:100000000C94E2000C9409090C94E2080C940A0187
:100010000C940A010C940A010C948B070C940A01AD
:100020000C940A010C940A010C940A010C940A0124
:100030000C940A010C940A010C940A010C940A0114
:100040000C9498080C940A010C94B3100C948D1025
:100050000C940A010C940A010C940A010C940A01F4
:100060000C940A010C940A0100000008000201002F
:10007000000304070000000000000000005EBCE276
:10008000613FDD83C29C7E20A3FD1F419DC3217F74
:10009000FCA2401E5F01E3BD3E6082DC237D9FC168
:1000A000421CFEA0E1BF5D0380DE3C62BEE0025C5C
:1000B000DF81633D7C22C09E1D43A1FF4618FAA448
:1000C00027799BC584DA3866E5BB5907DB85673934
:1000D000BAE406581947A5FB7826C49A653BD98728
:1000E000045AB8E6A7F91B45C6987A24F8A6441A1C
:1000F00099C7257B3A6486D85B05E7B98CD2306E08
:10010000EDB3510F4E10F2AC2F7193CD114FADF3F3
:10011000702ECC92D38D6F31B2EC0E50AFF1134DE7
:10012000CE90722C6D33D18F0C52B0EE326C8ED0DB
:10013000530DEFB1F0AE4C1291CF2D73CA947628C7
:10014000ABF517490856B4EA6937D58B5709EBB5B3
:1001500036688AD495CB2977F4AA4816E9B7550BA7
:1001600088D6346A2B7597C94A14F6A8742AC8969B
:10017000154BA9F7B6E80A54D7896B350000000083
:10018000250028002B0000000000240027002A0082
:1001900000000000230026002900040404040404D5
:1001A0000404020202020202030303030303010226
:1001B00004081020408001020408102001020408F5
:1001C0001020F91111241FBECFEFD8E0DEBFCDBF44
:1001D00011E0A0E0B1E0E2E7FBE202C005900D9281
:1001E000AC36B107D9F723E0ACE6B1E001C01D920F
:1001F000A330B207E1F710E0C2EED0E004C02197CF
:10020000FE010E94D012C13ED107C9F70E947011B1
:100210000C94B7150C940000809194018460809335
:10022000940180919501807880939501E0916D0112
:10023000F0916E01309709F00994089591E59CBD05
:1002400091E09DBD2A98E3E2F0E03197F1F78EBD91
:1002500000000DB407FEFDCF8EB5FB019FEF4150AE
:10026000C8F0222361F09EBD00000DB407FEFDCF53
:100270008EB56115710599F380833196F0CFDF015A
:10028000119680818EBD00000DB407FEFDCF8EB5A6
:10029000FD01E5CF2A9AE3E2F0E03197F1F7089506
:1002A000CF93DF931F92CDB7DEB7698320E041E0A3
:1002B000BE016F5F7F4F0E941E010F90DF91CF91B3
:1002C00008956FE080E20E94500160911B016F3F32
:1002D00019F08AE20E945001299A089520E040E036
:1002E00060E070E00C941E010F931F93CF93DF9397
:1002F000FC0182819091940190FF04C08F3F09F02E
:100300004FC005C08F3F19F0D091980101C0DFEFB9
:10031000809197018083438142FD06C046954695B2
:100320004695C7E0C40F01C0C0E28F0180E090E0B5
:10033000892B21F080E090E00E940000299883E062
:1003400092E00197F1F76EE080E20E9450018BE8A5
:1003500091E00197F1F76D2F8AE20E9450016D2F15
:1003600080E30E94500181EE0E946E01DF3F11F098
:1003700080EA01C080EB4C2FC13208F040E220E05F
:10038000B8010E941E01299A00E010E08FEF0E9440
:100390006E01C82F807331F401501109B9F702C002
:1003A000C0E02FC0299860E387E20E945001C4FF9B
:1003B00003C081EE0E946E010E946101C5FBCC2743
:1003C000C0F991E0DF3F09F090E0C92B80919801DE
:1003D000D81317C0C11110C080E090E0892B21F024
:1003E00085E690E00E9400008091950191E0980FD1
:1003F0009F70807F892B03C080919501807F8093BF
:1004000095018C2FDF91CF911F910F910895CF937C
:10041000C82F8FEF8C0F8E3FA8F4C0939701C09325
:100420001B0163E082E20E94500161E081E20E94D0
:1004300050010E9461016C2F80E090E00E94A515A0
:1004400081E00CC080E090E0892B21F08EE690E006
:100450000E9400008FEF8093970180E0CF91089574
:10046000E4E9F1E08081877F8F7E808310929001A4
:1004700010929101109292011092930143E050E08A
:1004800060E070E087E991E00C948515FC018381C0
:1004900087708860838384818F718062848367839F
:1004A000CF01089580E090E0892B21F088E090E072
:1004B0000E9400008FEF80939601809194018860E4
:1004C0008093940128E143E06FEF80E00E94870D64
:1004D00061E00E9446020C9474010F931F93CF9326
:1004E000DF93EC016115710561F0FB0101900020C3
:1004F000E9F73197E61BF70BE931F10518F0E9E16F
:1005000001C0E0E00E2F10E0C80123E0880F991F22
:100510002A95E1F79B819770892B8B838C818F7152
:100520008C83EE2329F0A801CE0107960E94F013D8
:10053000FE01E00FF11F1782CE01DF91CF911F91D5
:100540000F910895809197018F3FA1F480E090E092
:10055000892B21F086E090E00E94000023E043E038
:100560006FEF80E00E94870D64E671E00E946D02EB
:100570000C947401089580E090E0892B21F084E0D0
:1005800090E00E94000080919401897F81608093B7
:1005900094018FEF809399018093980127E043E0C5
:1005A0006FEF0E94870D64E671E00E946D020C946B
:1005B000740129986CE080E20C94500180919501BF
:1005C000982F9077903759F0982F92959F709F5F52
:1005D00097709295907F8F78892B80939501809169
:1005E00094018B7F8F7E8093940180E090E0892B33
:1005F00021F087E690E00E9400000C94D90220913F
:10060000940122FD0C94740180E00895CF9380E062
:1006100090E0892B21F08CE090E00E9400002FE018
:1006200043E06FEF80E00E94870D64E671E00E9476
:100630006D028091B602877080618093B6028091CE
:10064000B7028F71806C8093B70281E08093BA0209
:100650001092BB0283EB92E00E94FF028FE00E94A7
:100660009A0E61E18FEF0E94840EC091980126E0FE
:1006700043E06FEF80E00E94870D6C2F0E944602DE
:100680000E94FF0286E00E949A0ECF910C94EA0726
:10069000CF938091700181FD27C00E94060380E006
:1006A00090E0892B21F089E090E00E940000809189
:1006B0007001816080937001C4E02AE143E06FEF34
:1006C00080E00E94870D62E00E9446020E94FF02C5
:1006D0008BE10E949A0E811102C0C15071F7809186
:1006E0007001826080937001CF9108956F927F9224
:1006F0008F929F92AF92BF92CF92DF92EF92FF9232
:100700000F931F93CF93DF9300D0CDB7DEB7E09167
:100710008A01F0918B010280F381E02D309709F07E
:1007200009958091940184FBCC24C0F884FFA1C179
:1007300086E0D82E90E0692E90E0792E00E010E05F
:1007400020E0E22E20E0F22E31E2B32E21E041E063
:1007500060E070E087E10E941E0180FD8AC1DA94AA
:10076000DD2009F486C16114710421F081E090E07C
:100770000E94000021E041E060E070E080E60E941D
:100780001E01982E80E2891520F482EE0E946E01EF
:10079000912C21E0492D64ED72E081E60E941E015A
:1007A00060E487E20E9450019091D702292F26959C
:1007B000269526952A3108F029E192FD03C037E0FD
:1007C000320F01C030E2E091D8025091D902A090DE
:1007D000D5028091D4028090D602931639F061142C
:1007E000710409F4B3CF8CE690E00AC0392F33705E
:1007F000323049F06114710409F4A8CF8DE690E01D
:100800000E940000A3CF4E2F4770309195013068B1
:10081000309395013091970183124DC030E0B901BA
:10082000F3E0660F771FFA95E1F79770962B909398
:10083000D702D901AC52BD4F17961C92E3FF1BC0E3
:10084000E4EDF2E0A3EBB2E08B2D01900D928A95DE
:10085000E1F78091B702877F80618093B702809231
:10086000B402A092B50283EB92E049835A830E94BE
:10087000FF025A8149812091D80224FD13C04330E0
:1008800089F49091D90281EF890F833008F043C039
:100890005DCF913009F4CAC09A3009F457CF9C312A
:1008A00009F454CF0115110509F450CF84ED92E0FD
:1008B0000E9400004BCF9FEF891248CF433031F5A3
:1008C0009091940192FF03C0573009F43FCF583004
:1008D00009F43CCF543109F039CF90919801891334
:1008E00035CF0E9445087370882799270E942111EF
:1008F0009090980125E143E06FEF8A2D0E94870DCB
:10090000692D0E9446020E94740120CF90919801A7
:1009100089131CCFC7CF543029F40E944F0E0E9478
:10092000070214CF5830D1F49090940190FE0ECF6E
:100930000E944F0E8F3F09F409CF91E0980F9F3F1F
:1009400009F404CF80919901981708F0FFCE91FC2B
:10095000FDCE90939901A0929801F8CE583141F4C0
:1009600029E143E06FEF8A2D0E94870D61E0C9CF36
:10097000593161F48091940183FFE8CE877F8093A1
:1009800094010E944F0E80939601E0CE8091D50293
:1009900081116BC09D3099F480E090E0892B21F0AB
:1009A0008BE090E00E94000098E088E10FB6F89498
:1009B000A895809360000FBE90936000FFCF9B319D
:1009C00099F40E944F0E91E0811101C090E0809156
:1009D000700190FB80F9809370016114710409F437
:1009E000B5CE8AE090E00CCF9630A9F49091DB026E
:1009F000992329F081E09D3419F080E001C08C2D0D
:100A000080936F0141E050E063E071E08FE691E098
:100A10000E9495159BCE933119F40E94060396CE41
:100A2000923109F036CF0E94620E90CEE114F104AB
:100A300009F48CCE229526952770253049F46091D3
:100A4000DB027091DC028091DD029091DE020AC02F
:100A5000211105C08BED92E00E941D1403C060E0DF
:100A600070E0CB010E94000071CE9A3109F01ACFDC
:100A70006DCE0F900F90DF91CF911F910F91FF904E
:100A8000EF90DF90CF90BF90AF909F908F907F902E
:100A90006F9008950F931F930E94450800918C0159
:100AA00010918D0120918E0130918F01601B710B8F
:100AB000820B930B1F910F9108959C0180918A01E5
:100AC00090918B018217930751F0909194019F713F
:100AD0009093940130938B0120938A0105C08091FB
:100AE0009401805E80939401E0918A01F0918B01E2
:100AF0000190F081E02D309709F009950E9445089A
:100B000060938C0170938D0180938E0190938F017F
:100B100008950F931F930E944A0520919501207715
:100B2000203729F000E117E220E030E004C000E6C1
:100B30001AEE20E030E0061717072807390730F4CF
:100B40008CE191E01F910F910C945D051F910F9125
:100B50000895809195018F70863020F087E191E0B3
:100B60000C945D050895809196018F3FA1F00E943D
:100B70004508609390017093910180939201909346
:100B80009301809196019091990189138093990125
:100B900083E191E01BC00E944A05613D77408105D9
:100BA0009105B0F080919401803618F48FE091E0C7
:100BB0000DC0877F8093940180E090E0892B21F025
:100BC0008AE690E00E94000087E191E00C945D05C8
:100BD0000895809197018F3F59F080E090E0892B34
:100BE00021F087E090E00E9400008FE091E018C0C3
:100BF0000E944A05613D77408105910598F08091FA
:100C00009401803618F48BE091E00AC080E090E017
:100C1000892B21F089E690E00E94000087E091E0B6
:100C20000C945D0508950E944A05613D7740810559
:100C3000910520F48091940181FF0895809198019D
:100C40008F3F81F0809194018E7F8093940180E0AA
:100C500090E0892B21F085E090E00E9400008BE07D
:100C600091E011C080919401803618F487E191E001
:100C70000AC080E090E0892B21F088E690E00E9495
:100C8000000087E091E00C945D05CF93219A229AB1
:100C9000CFB7F89480916C01811166C084EA91E02D
:100CA000FC01249148EB51E0FA01649130E0220FFD
:100CB000331F2A573E4FF901A591B4912C9162231D
:100CC00009F040C0E2E7F0E02491FA014491FC0110
:100CD00094919923B9F1222339F1233091F038F41A
:100CE0002130A9F0223001F584B58F7D12C0273064
:100CF00091F02830A1F02430B9F4809180008F7DEC
:100D000003C0809180008F77809380000DC084B5F0
:100D10008F7784BD09C08091B0008F7703C0809128
:100D2000B0008F7D8093B000E92FF0E0EE0FFF1F41
:100D3000E458FE4FA591B4918FB7F8949C91492B3C
:100D40004C938FBF61E08AE00E94E5108CB5806112
:100D50008CBD8CB580648CBD61E08DE00E94E51097
:100D600061E08BE00E94E51080916C018F5F8093C1
:100D70006C01CFBF29982A9A6EE080E20E94500150
:100D800065E070E080E090E00E94211163E083E282
:100D90000E9450016FE584E20E9450016CE485E2FC
:100DA0000E94500167E286E20E94500163E780E5FD
:100DB0000E94500166E08DE30E94500121E041E075
:100DC00060E070E086E00E941E01C82F21E041E053
:100DD00060E070E085E00E941E018C3409F040C0A4
:100DE000C732F1F562E082E20E94500160E081E2E8
:100DF0000E94500163E08CE30E9450018FEF8093CA
:100E0000020120E045E062E071E08BE20E941E01F9
:100E100020E045E062E071E08AE20E941E0120E0ED
:100E200045E062E071E080E30E941E0182EE0E94D4
:100E30006E0181EE0E946E0160E787E20E94500120
:100E400080919401806180939401809197018F3FFC
:100E500081F00E94070281110CC087E091E00BC075
:100E600080E090E0892BC9F387E690E00E940000C3
:100E7000F4CF87E191E0CF910C945D0520917A0049
:100E80002F7720937A00309160008A309105B1F07D
:100E900083FD02C028E001C028E28770822B98E120
:100EA0000FB6F894A895909360000FBE80936000F1
:100EB000809160008065809360000BC00FB6F8944D
:100EC000A895809160008861809360001092600016
:100ED0000FBE83B7817F846083BFF89483B781603E
:100EE00083BF85B7806685BF8F7D85BF78948895E1
:100EF00083B78E7F83BFF894A89580916000886146
:100F00008093600030936000789480917A008068CC
:100F100080937A0008951F920F920FB60F921124BA
:100F20000F900FBE0F901F9018950895FC019081AF
:100F30000180F281E02DF8948181892B81832281C7
:100F4000892F809528232283A7E0B0E01197F1F73D
:100F5000218182238183A3E2B0E01197F1F78081A0
:100F60007894EFECF0E03197F1F7982381E009F401
:100F700080E00895FC0190810180F281E02D892FAD
:100F8000809560FF12C0F894228182238283818140
:100F9000892B8183A3E2B0E01197F1F78281982B2E
:100FA0009283789487ED90E011C0F8942281822397
:100FB00082838181892B8183AFEFB0E01197F1F7B4
:100FC0008281982B928378948FE090E00197F1F7DB
:100FD00008950895CF93DF932BE043E06FEF80E017
:100FE0000E94870D6CE371E00E946D020E94FF0277
:100FF0002CE043E06FEF80E00E94870D6FE471E02A
:101000000E946D020E94FF028091A40290E09093E2
:10101000800180937F01C0E0D0E080917F019091BA
:101020008001C817D9074CF4C330D10531F066E010
:101030008C2F0E94840E2196F0CFDF91CF910895DE
:101040003FB7F8948091860190918701A091880123
:10105000B091890126B5A89B05C02F3F19F00196D4
:10106000A11DB11D3FBFBA2FA92F982F8827820F2E
:10107000911DA11DB11DBC01CD0142E0660F771F7E
:10108000881F991F4A95D1F708952FB7F89460915A
:1010900082017091830180918401909185012FBF1D
:1010A00008950F931F93CF93DF93C7E3D2E010927D
:1010B0007B0210927C0210927D0210927E021A82B4
:1010C0001B821C821D8260ED77E080E090E00E9430
:1010D000211109E712E08AE991E0D8018D939C93F0
:1010E0000E94270E0E9445086A837B838C839D8320
:1010F000F80180819181DC01ED91FC910280F38106
:10110000E02D41E150E063E571E009956AE070E0AF
:1011100080E090E00E94211181E08E8B83E080933B
:1011200020011092A202DF91CF911F910F9108959B
:101130001F920F920FB60F9211242F933F938F930C
:101140009F93AF93BF938091820190918301A0916F
:101150008401B09185013091810123E0230F2D3767
:1011600020F40196A11DB11D05C026E8230F0296AB
:10117000A11DB11D20938101809382019093830171
:10118000A0938401B093850180918601909187019D
:10119000A0918801B09189010196A11DB11D809394
:1011A000860190938701A0938801B0938901BF9134
:1011B000AF919F918F913F912F910F900FBE0F9004
:1011C0001F9018951F920F920FB60F9211242F9314
:1011D0003F934F935F936F937F938F939F93AF93BF
:1011E000BF93EF93FF93E0912301F09124010995C0
:1011F000FF91EF91BF91AF919F918F917F916F91EF
:101200005F914F913F912F910F900FBE0F901F90C4
:1012100018951F920F920FB60F9211242F933F93A0
:101220004F935F936F937F938F939F93AF93BF93EE
:10123000EF93FF93E0912101F09122010995FF9135
:10124000EF91BF91AF919F918F917F916F915F913E
:101250004F913F912F910F900FBE0F901F901895B7
:10126000DC01E0E0615038F08D91E827F0E0E458CF
:10127000FF4FE491F7CF8E2F0895EF92FF920F93D7
:101280001F93CF93DF937C0108E010E0C0E0D1E032
:10129000C7010E9496078111CD2BDD0F0150110966
:1012A000B9F78C2FDF91CF911F910F91FF90EF90A5
:1012B0000895CF92DF92EF92FF920F931F93CF93F7
:1012C000DF931F92CDB7DEB76C01E62E08E010E089
:1012D000FF24F39461E08F2D8E2109F460E0C601B4
:1012E00049830E94BA07FF0C015011094981011579
:1012F000110581F7411115C0F894D6011196ED91B1
:10130000FC91129791818C9180958923818311960C
:10131000ED91FC91129792818C9180958923828323
:1013200078940F90DF91CF911F910F91FF90EF90E4
:10133000DF90CF900895CF92DF92EF92FF920F93BC
:101340001F93CF93DF931F92CDB7DEB78C01F62E9C
:1013500040E065E579830E945909CF2C7981D72E29
:10136000760188E0E80EF11CF60161916F0140E022
:10137000C8010E945909CE14DF04B1F70F90DF9124
:10138000CF911F910F91FF90EF90DF90CF90089534
:10139000FC0190810180F281E02DF8948181292F58
:1013A00020958223818378948DE743E050E081503B
:1013B00021F1DA011197F1F730813923C1F3F89463
:1013C0008281822382838181892B81837894ABE718
:1013D000B7E01197F1F7F894818128232183A3E1E5
:1013E000B1E01197F1F78081982381E009F080E066
:1013F0007894E3E6F6E03197F1F70895AF92BF9263
:10140000CF92DF92EF92FF920F931F93CF93DF93D0
:101410001F92CDB7DEB75C01E62ED72EFC01858585
:1014200081115DC0C5010E94C809811105C0F50187
:101430001386158614866BC040E060EFC5010E94DC
:10144000590901E0F12CC12C11E0C5010E94960759
:10145000682FC50169830E9496076981613019F47C
:101460008130B9F433C04F2D50E068131BC0F50133
:101470008385181730F4E40FF51F8381802349F426
:1014800002C0181731F060E0193058F4F5011487E4
:1014900008C0F501EF0DF11D8381802B838361E08E
:1014A00009C0C12EF501E40FF51F9381802F8095AF
:1014B00089238383C5010E94BA071F5F000F11F4BF
:1014C000F39401E0F7E0FF1508F0BFCF113438F0D6
:1014D000F501C386C11015C081E0858712C0F501F2
:1014E00013861586148680E0D5011396EE2DFD2D0A
:1014F0009501255F3F4F9D919193A217B307D9F7AF
:1015000006C0F5018381882351F381E0EDCF0F9070
:10151000DF91CF911F910F91FF90EF90DF90CF90CF
:10152000BF90AF9008957F928F929F92AF92BF929B
:10153000CF92DF92EF92FF920F931F93CF93DF939F
:10154000CDB7DEB728970FB6F894DEBF0FBECDBF7C
:101550008091200120E4829FC001112480937C00AF
:1015600080917A00806480937A0080917A0086FD71
:10157000FCCF809178002091790090E0922B6AE076
:1015800070E00E94A8128B0180917F0190918001F0
:10159000892B09F445C08091A5029091A6020E9472
:1015A000C80940E06CEC8091A5029091A6020E94CF
:1015B00059094091A00264E48091A5029091A6028D
:1015C0000E9459098091A2028823A9F0E091A1020A
:1015D000E950E33040F4F0E0EE0FFF1FEA5DFE4F0C
:1015E0006081718102C06EEE72E0072E000C880BE4
:1015F000990B0E942111E091A102E950E33040F4DF
:10160000F0E0EE0FFF1FEA5DFE4F6081718102C0C6
:101610006EEE72E0072E000C880B990B0E94D00E24
:1016200083E7C82E81E0D82EE12CF12C7724739427
:1016300080917F0190918001E816F9060CF0B7C007
:1016400083E0E816F10409F4B2C080916F016E2DB9
:10165000882301F1CE0101960E945810811105C026
:1016600060E070E08EEF92EC3AC0CE0101960E94ED
:1016700003108138E4EE9E079CF3BC01990F880BA0
:10168000990B0E94681420E030E040E05CE30E9487
:10169000C71425C0CE0101960E945810811105C0C3
:1016A0006AE979E984E493EC1AC0CE0101960E94BC
:1016B00003108138F4EE9F079CF3BC01990F880B4F
:1016C000990B0E94681426E636E646E65CE30E9423
:1016D000C71420E030E040E052E40E94D71220E03E
:1016E00030E040E251E40E94C7140E94B513072E77
:1016F000000C880B990B0E94681420E030E040E257
:1017000051E40E9443134B015C019B01AC01F601C3
:1017100060817181828193810E9461148823F1F13B
:1017200020E030E04EEF52ECC501B4010E9461149C
:101730008823A1F120E030E04AEA52E4C501B40177
:101740000E946114882351F1E09285028091820207
:1017500087708862809382028091830280928602E1
:1017600090928702A0928802B092890270928A02B7
:1017700090919701909380028071816E8093830293
:101780008091700180FF04C08FE792E00E94FF0209
:10179000F60180829182A282B38202C00E94620E10
:1017A000FFEFEF1AFF0A24E0C20ED11C41CF809157
:1017B0007101909172018017910779F020E043E068
:1017C0006FEF80E00E94870D602F0E9446020E940A
:1017D000FF02109372010093710160EE73E984E0DF
:1017E00090E00E94D00E28960FB6F894DEBF0FBE90
:1017F000CDBFDF91CF911F910F91FF90EF90DF90C0
:10180000CF90BF90AF909F908F907F9008950F934F
:101810001F93CF93DF93CDB7DEB761970FB6F894E0
:10182000DEBF0FBECDBFE091A502F091A6021386E8
:1018300015861486DF011B9633961E92AE17BF07DE
:10184000E1F71092A40211E0BE01665F7F4F809124
:10185000A5029091A6020E94FE09882309F453C0B4
:1018600067E0CE010A960E94300999898913ECCF6E
:101870008091A002811126C08091A5029091A602BC
:101880000E94C809BE01665F7F4F8091A5029091BA
:10189000A6020E949B0940E064EB8091A502909112
:1018A000A6020E9459098091A5029091A6020E9469
:1018B0009607082F8091A5029091A6020E94C80960
:1018C0000023F1F0BE016F5F7F4FCE010A960E94A8
:1018D000960D0091A102CE010A960E94EF0D80178D
:1018E00018F48091A10204C0CE010A960E94EF0D67
:1018F0008093A1028091A4028F5F8093A402A4CF61
:101900001093A002DFCF61960FB6F894DEBF0FBE32
:10191000CDBFDF91CF911F910F910895CF92DF92AC
:10192000EF92FF920F931F93CF93DF936C017A0195
:101930008B01C0E0D0E0CE15DF0589F0D8016D91B4
:101940008D01D601ED91FC910190F081E02DC60151
:101950000995892B11F47E0102C02196ECCFC701B5
:10196000DF91CF911F910F91FF90EF90DF90CF907B
:101970000895FC01918D828D981761F0828DDF01B1
:10198000A80FB11D5D968C91928D9F5F9F73928F72
:1019900090E008958FEF9FEF0895FC01918D828D67
:1019A000981731F0828DE80FF11D858D90E0089534
:1019B0008FEF9FEF0895FC01918D228D892F90E08C
:1019C000805C9F4F821B91098F73992708958AE944
:1019D00091E00E94DB0C21E0892B09F420E0822FAA
:1019E0000895FC01848DDF01A80FB11DA35ABF4FDC
:1019F0002C91848D90E001968F739927848FA6890E
:101A0000B7892C93A089B1898C9180648C93938D34
:101A1000848D981306C00288F389E02D80818F7D24
:101A200080830895EF92FF920F931F93CF93DF93DC
:101A3000EC0181E0888F9B8D8C8D981305C0E8891F
:101A4000F989808185FD24C0F62E0B8D10E00F5F93
:101A50001F4F0F731127E02E8C8DE8120CC00FB6AC
:101A600007FCFACFE889F989808185FFF5CFCE019F
:101A70000E94F10CF1CF8B8DFE01E80FF11DE35AAE
:101A8000FF4FF0820B8FEA89FB898081806207C05B
:101A9000EE89FF896083E889F98980818064808389
:101AA00081E090E0DF91CF911F910F91FF90EF9037
:101AB0000895CF93DF93EC01888D8823C9F0EA89DC
:101AC000FB89808185FD05C0A889B9898C9186FD37
:101AD0000FC00FB607FCF5CF808185FFF2CFA88934
:101AE000B9898C9185FFEDCFCE010E94F10CE7CF33
:101AF000DF91CF91089580E090E0892B29F00E943A
:101B0000E70C81110C94000008950E94EB13E3EBA5
:101B1000F2E09091970191838283668325834770D9
:101B20008481807E482B4483CF010895EF92FF92F9
:101B30000F931F93CF93DF937C018B01C0EAD2E018
:101B40008D819E810E94C809B7018D819E810E946E
:101B50009B0940E06EEB8D819E810E9459098D8129
:101B60009E810E943D09F80180838D819E810E94A3
:101B70003D09F80181838D819E810E943D09F80114
:101B800082838D819E810E943D09F80183838D812E
:101B90009E810E943D09F80184838D819E810E946F
:101BA0003D09F80185838D819E810E943D09F801E0
:101BB00086838D819E810E943D09F80187838D81F6
:101BC0009E810E943D09F80180878D819E81DF9171
:101BD000CF911F910F91FF90EF900C94C809CF9374
:101BE000DF93CDB7DEB729970FB6F894DEBF0FBEEF
:101BF000CDBFFC012081203101F1BE016F5F7F4F1D
:101C00000E94960D68E0CE0101960E9430099985E8
:101C1000891311C08D818F3361F020F48F3159F415
:101C200089E00CC08F3519F08F3739F004C08BE094
:101C300005C08AE003C080E001C08CE029960FB6A1
:101C4000F894DEBF0FBECDBFDF91CF910895EAE9D2
:101C5000F1E0A089B18982E08C93A485B5851C92BE
:101C6000A685B78580E18C93108EA489B58986E01E
:101C70008C93A289B3898C9180618C93A289B3895A
:101C80008C9188608C93A289B3898C9180688C93A5
:101C90000288F389E02D80818F7D80830895809173
:101CA000D802829586958770813019F48091DB0285
:101CB0000895811105C08BED92E00E94FF130895F5
:101CC00080E00895CF92DF92EF92FF920E944A0542
:101CD0006B017C0126E143E06FEF80E00E94870DFD
:101CE000FC0184818F71806A848383818770806224
:101CF0008383C782D086E186F286CF01FF90EF9082
:101D0000DF90CF900C94FF02CF93DF93262F8F3F6D
:101D100019F0C4E6D1E002C0C5E6D1E040E0682F8A
:101D200080E00E94870DBE010E946D02DF91CF917D
:101D30000C94FF02CF92DF92EF92FF92CF93DF934A
:101D4000D82F0E9445086B017C0181E0D11180E011
:101D50008093D902C0E00E944508AB01BC014C1938
:101D60005D096E097F09403D57406105710580F4AA
:101D7000C1110EC0A8950E9476039091D802977069
:101D8000933049F7C1E08091D9028D13E3CFE3CFBF
:101D90008C2FDF91CF91FF90EF90DF90CF9008953F
:101DA0008F929F92AF92BF92CF92DF92EF92FF926B
:101DB0006B017C018091940182FD1BC00E9445084B
:101DC0004B015C0180E090E0DC012091940122FD58
:101DD00040C08C159D05AE05BF0508F03FC08031A1
:101DE00027E29207A105B10540F1C81AD90AEA0A0B
:101DF000FB0A0E94D90280E090E0892B21F08EE05E
:101E000090E00E9400008AE991E00E94590D8091C3
:101E100025018F3F29F520E4C2162FE1D206E10407
:101E2000F104F0F089E090E00E943E0780E4C81AD7
:101E30008FE1D80AE108F108EACFA8950E9476035D
:101E40000E944508DC01CB0188199909AA09BB0940
:101E5000BCCF8C159D05AE05BF0538F28EEFCAC00C
:101E6000809125018F3F41F480EAC8168FE0D806A3
:101E7000E104F10408F065C0809125018F3F41F431
:101E800020EDC21627E0D206E104F10408F064C098
:101E9000809125018F3F41F488EEC81683E0D80673
:101EA000E104F10408F063C0809125018F3F41F403
:101EB00024EFC21621E0D206E104F10408F062C06A
:101EC000809125018F3F39F48AEFC816D104E104CF
:101ED000F10408F062C0809125018F3F39F42DE7AD
:101EE000C216D104E104F10408F061C0809125011B
:101EF0008F3F39F480E4C816D104E104F10408F0FE
:101F000060C0809125018F3F39F420E2C216D104D0
:101F1000E104F10408F05FC0809125018F3F39F49E
:101F200080E1C816D104E104F10408F05EC080E04D
:101F300090E0892B21F08FE090E00E9400008FEF6D
:101F400059C088E090E00E943E0720EAC21A2FE0C4
:101F5000D20AE108F10890CF87E090E00E943E07A6
:101F600080EDC81A87E0D80AE108F10891CF86E031
:101F700090E00E943E0728EEC21A23E0D20AE10850
:101F8000F10892CF85E090E00E943E0784EFC81AE6
:101F900081E0D80AE108F10893CF84E090E00E9444
:101FA0003E072AEFC21AD108E108F10894CF83E076
:101FB00090E00E943E0788E7C81AD108E108F108BE
:101FC00095CF82E090E00E943E072CE3C21AD10830
:101FD000E108F10896CF81E090E00E943E078EE193
:101FE000C81AD108E108F10897CF80E090E00E947C
:101FF0003E079DCFFF90EF90DF90CF90BF90AF90C6
:102000009F908F9008950F931F93CF93DF93CDB739
:10201000DEB729970FB6F894DEBF0FBECDBF8C0197
:10202000BE016F5F7F4F0E94960D68E0CE01019662
:102030000E943009998589132CC0298148E0249F8A
:10204000B00111249A81292F30E0322F2227330F3B
:10205000330F330F262B372BF80180818031E1F4C9
:10206000688570E08F81AB01481B5109CA019695C4
:10207000982F8827979587950E94A812CB014097A3
:10208000207F53E0220F331F5A95E1F7820F931FF1
:1020900004C080E894EE01C0C90129960FB6F894F7
:1020A000DEBF0FBECDBFDF91CF911F910F9108957D
:1020B0000F931F93CF93DF938C01D62FE091A5024E
:1020C000F091A602138615861486DF011B963396BF
:1020D0001E92AE17BF07E1F7C0E0B8018091A502DC
:1020E0009091A6020E94FE09811102C080E010C0FA
:1020F000CD130AC067E0C8010E943009F80197813A
:10210000891302C081E004C0CF5FDC1778F3E5CF0C
:10211000DF91CF911F910F9108951F920F920FB6EB
:102120000F9211242F933F934F935F936F937F935D
:102130008F939F93AF93BF93EF93FF938AE991E0BF
:102140000E94F10CFF91EF91BF91AF919F918F9100
:102150007F916F915F914F913F912F910F900FBEA3
:102160000F901F9018951F920F920FB60F92112487
:102170002F938F939F93EF93FF93E091AA01F09198
:10218000AB018081E091B001F091B10182FD12C0FC
:1021900090818091B3018F5F8F732091B40182177A
:1021A00051F0E091B301F0E0E656FE4F958F809339
:1021B000B30101C08081FF91EF919F918F912F9189
:1021C0000F900FBE0F901F901895CF93DF9390E064
:1021D000FC01E255FE4F2491FC01E656FE4F84912E
:1021E000882361F190E0880F991FFC01EA57FE4FA8
:1021F000C591D491FC01E458FE4FA591B4916111B1
:1022000009C09FB7F8948881209582238883EC9138
:102210002E230BC0623061F49FB7F8943881822F6F
:10222000809583238883EC912E2B2C939FBF06C02F
:102230008FB7F894E8812E2B28838FBFDF91CF9141
:1022400008958F929F92AF92BF92CF92DF92EF92BA
:10225000FF926B017C010E9420084B015C01C114BC
:10226000D104E104F104F1F00E942008DC01CB016B
:1022700088199909AA09BB09883E9340A105B105AF
:1022800070F321E0C21AD108E108F10888EE880E47
:1022900083E0981EA11CB11CC114D104E104F10417
:1022A00019F7DDCFFF90EF90DF90CF90BF90AF9008
:1022B0009F908F900895CF93DF93FC01108211823D
:1022C0001282148215821682DC0117968AE1ED01D2
:1022D00019928A95E9F782E08383DF91CF9108957F
:1022E000789484B5826084BD84B5816084BD85B5F1
:1022F000826085BD85B5816085BD80916E008160FD
:1023000080936E00109281008091810082608093A2
:1023100081008091810081608093810080918000A4
:102320008160809380008091B10084608093B100CF
:102330008091B00081608093B00080917A008460C9
:1023400080937A0080917A00826080937A008091F5
:102350007A00816080937A0080917A00806880930F
:102360007A001092C100A89580E090E0892B11F0CE
:102370000E9400000E94270E809170018D7F809343
:1023800070010E94070C41E050E063E071E08FE6CD
:1023900091E00E9485156FEF81E090E00E94A51505
:1023A000809195018F788093950110928B01109206
:1023B0008A018CE191E00E945D0588E493E09093AE
:1023C0006E0180936D010E9445080E9445080E949D
:1023D0007603A8958091940182FFF7CF0E9451085F
:1023E000A895A8950E9476030E94930A0E947B0DEF
:1023F000F8CF10929D0110929C0188EE93E0A0E02E
:10240000B0E080939E0190939F01A093A001B093B0
:10241000A10180E391E090939B0180939A0185EC68
:1024200090E09093A7018093A60184EC90E09093B4
:10243000A9018093A80180EC90E09093AB01809378
:10244000AA0181EC90E09093AD018093AC0182EC05
:1024500090E09093AF018093AE0186EC90E0909372
:10246000B1018093B0011092B3011092B4011092A7
:10247000B5011092B60110923D0210923E021092E8
:102480003F021092400210924102109242021092BA
:10249000430210924402109245021092460210929A
:1024A0004702109248021092490210924A0210927A
:1024B0004B0210924C0284ED92E00E945B1183EB80
:1024C00092E00E945B1160E088E00E94E510E6EB7C
:1024D000F1E0E491E093F502E2EAF1E0E491F0E06A
:1024E000EE0FFF1FE057FE4F859194919093F702F6
:1024F0008093F602109200031092020310920103DF
:10250000E0E0F3E0129282E0E83FF807D9F789EEC5
:1025100097E09093B2028093B10285EF92E090939E
:10252000A6028093A5021092A4021092A00289E054
:102530008093A10281E08093A2028093A3028FE79F
:1025400092E00E945B11109285021092840208951D
:1025500097FB072E16F4009407D077FD09D00E9450
:10256000BC1207FC05D03EF4909581959F4F0895CD
:10257000709561957F4F0895AA1BBB1B51E107C061
:10258000AA1FBB1FA617B70710F0A61BB70B881F03
:10259000991F5A95A9F780959095BC01CD01089592
:1025A000EE0FFF1F0590F491E02D09945058BB27C2
:1025B000AA270E94EE120C944B150E943D1538F08C
:1025C0000E94441520F039F49F3F19F426F40C942E
:1025D0003A150EF4E095E7FB0C943415E92F0E94B0
:1025E0005C1558F3BA17620773078407950720F044
:1025F00079F4A6F50C947E150EF4E0950B2EBA2F07
:10260000A02D0B01B90190010C01CA01A0011124F8
:10261000FF27591B99F0593F50F4503E68F11A16A4
:10262000F040A22F232F342F4427585FF3CF469535
:1026300037952795A795F0405395C9F77EF41F1657
:10264000BA0B620B730B840BBAF09150A1F0FF0F21
:10265000BB1F661F771F881FC2F70EC0BA0F621F0D
:10266000731F841F48F4879577956795B795F795FD
:102670009E3F08F0B0CF9395880F08F09927EE0F92
:102680009795879508950E9457130C944B150E94B7
:10269000441558F00E943D1540F029F45F3F29F0A1
:1026A0000C94341551110C947F150C943A150E941A
:1026B0005C1568F39923B1F3552391F3951B550BE2
:1026C000BB27AA2762177307840738F09F5F5F4F05
:1026D000220F331F441FAA1FA9F335D00E2E3AF044
:1026E000E0E832D091505040E695001CCAF72BD05C
:1026F000FE2F29D0660F771F881FBB1F26173707AD
:102700004807AB07B0E809F0BB0B802DBF01FF27DE
:1027100093585F4F3AF09E3F510578F00C94341572
:102720000C947F155F3FE4F3983ED4F3869577953C
:102730006795B795F7959F5FC9F7880F911D969597
:10274000879597F90895E1E0660F771F881FBB1FF3
:10275000621773078407BA0720F0621B730B840BA0
:10276000BA0BEE1F88F7E09508950E94BC13689499
:10277000B1110C947F1508950E94641588F09F573D
:1027800098F0B92F9927B751B0F0E1F0660F771F95
:10279000881F991F1AF0BA95C9F714C0B13091F08B
:1027A0000E947E15B1E008950C947E15672F782F56
:1027B0008827B85F39F0B93FCCF386957795679550
:1027C000B395D9F73EF490958095709561957F4FBC
:1027D0008F4F9F4F089581E090E0F8940C94B715C7
:1027E000FB01DC014150504048F001900D92002067
:1027F000C9F701C01D9241505040E0F70895FC0117
:1028000088279927E89421912032E9F3293010F0A4
:102810002E30C8F32B3241F02D3239F4689404C0C5
:102820000E945914820F911D219120532A30C0F328
:102830001EF4909581959F4F08951F93FC01992751
:102840008827BC01E89411911032E9F3193010F097
:102850001E30C8F31B3251F01D3249F4689406C093
:102860000E944414610F711D811D911D119110531F
:102870001A30B0F33EF490958095709561957F4F36
:102880008F4F9F4F1F910895592F482F372F262F75
:10289000660F771F881F991F660F771F881F991F64
:1028A000620F731F841F951F660F771F881F991F64
:1028B00008957AE0979F902D879F802D910D112488
:1028C00008950E94A31408F481E00895E89409C0D3
:1028D00097FB3EF490958095709561957F4F8F4F53
:1028E0009F4F9923A9F0F92F96E9BB279395F69569
:1028F000879577956795B795F111F8CFFAF4BB0FE7
:1029000011F460FF1BC06F5F7F4F8F4F9F4F16C04A
:10291000882311F096E911C0772321F09EE8872FD4
:10292000762F05C0662371F096E8862F70E060E090
:102930002AF09A95660F771F881FDAF7880F969509
:10294000879597F90895990F0008550FAA0BE0E8AD
:10295000FEEF16161706E807F907C0F01216130661
:10296000E407F50798F0621B730B840B950B39F4A1
:102970000A2661F0232B242B252B21F408950A2607
:1029800009F4A140A6958FEF811D811D08950E9435
:10299000DA140C944B150E943D1538F00E94441532
:1029A00020F0952311F00C9434150C943A15112451
:1029B0000C947F150E945C1570F3959FC1F3950FE1
:1029C00050E0551F629FF001729FBB27F00DB11DB3
:1029D000639FAA27F00DB11DAA1F649F6627B00D43
:1029E000A11D661F829F2227B00DA11D621F739F2C
:1029F000B00DA11D621F839FA00D611D221F749F3A
:102A00003327A00D611D231F849F600D211D822F80
:102A1000762F6A2F11249F5750409AF0F1F08823A7
:102A20004AF0EE0FFF1FBB1F661F771F881F9150D4
:102A30005040A9F79E3F510580F00C9434150C943A
:102A40007F155F3FE4F3983ED4F3869577956795BD
:102A5000B795F795E7959F5FC1F7FE2B880F911DFE
:102A60009695879597F9089597F99F6780E870E0A4
:102A700060E008959FEF80EC089500240A941616F4
:102A8000170618060906089500240A94121613065C
:102A9000140605060895092E0394000C11F48823EA
:102AA00052F0BB0F40F4BF2B11F460FF04C06F5F06
:102AB0007F4F8F4F9F4F089557FD9058440F551FDC
:102AC00059F05F3F71F04795880F97FB991F61F0B0
:102AD0009F3F79F087950895121613061406551F27
:102AE000F2CF4695F1DF08C0161617061806991F93
:102AF000F1CF86957105610508940895E894BB2788
:102B000066277727CB0197F90895DC01CB01FC01FB
:102B1000F999FECF06C0F2BDE1BDF89A319600B436
:102B20000D9241505040B8F70895DC01A40FB51F35
:102B30004150504048F0CB01840F951F2E910E94C8
:102B4000A61541505040D0F70895262FF999FECF91
:102B500092BD81BDF89A019700B4021639F01FBAF0
:102B600020BD0FB6F894FA9AF99A0FBE0895F8941A
:022B7000FFCF95
:102B7200FFFF00FCE1A8A8DE028905A202E90552D6
:102B820002B3050C01A905BB021306FF300245067C
:102B92000195079507FF5E00BC0077010000000069
:102BA200120D8E0CDB0CB90CCD0C590D54656D70E9
:102BB2002B42617474657279204D657465720031BF
:102BC2002E3000564D4450565F317C315F564D4495
:0C2BD20050560D0A00322E312E3100004A
:00000001FF
