:100000000C94E2000C947F050C9458050C940A01A2
:100010000C940A010C940A010C9484040C940A01B7
:100020000C940A010C940A010C940A010C940A0124
:100030000C940A010C940A010C940A010C940A0114
:100040000C940E050C940A010C9426100C940010CC
:100050000C940A010C940A010C940A010C940A01F4
:100060000C940A010C940A01005EBCE2613FDD833E
:10007000C29C7E20A3FD1F419DC3217FFCA2401E88
:100080005F01E3BD3E6082DC237D9FC1421CFEA078
:10009000E1BF5D0380DE3C62BEE0025CDF81633D68
:1000A0007C22C09E1D43A1FF4618FAA427799BC558
:1000B00084DA3866E5BB5907DB856739BAE4065848
:1000C0001947A5FB7826C49A653BD987045AB8E638
:1000D000A7F91B45C6987A24F8A6441A99C7257B28
:1000E0003A6486D85B05E7B98CD2306EEDB3510F18
:1000F0004E10F2AC2F7193CD114FADF3702ECC9208
:10010000D38D6F31B2EC0E50AFF1134DCE90722CF7
:100110006D33D18F0C52B0EE326C8ED0530DEFB1E7
:10012000F0AE4C1291CF2D73CA947628ABF51749D7
:100130000856B4EA6937D58B5709EBB536688AD4C7
:1001400095CB2977F4AA4816E9B7550B88D6346AB7
:100150002B7597C94A14F6A8742AC896154BA9F7A7
:10016000B6E80A54D7896B35000000002400270048
:100170002A0000000000250028002B0000000008D5
:10018000000201000003040700000000000000005E
:1001900000000000230026002900040404040404D5
:1001A0000404020202020202030303030303010226
:1001B00004081020408001020408102001020408F5
:1001C0001020F81111241FBECFEFD8E0DEBFCDBF45
:1001D00011E0A0E0B1E0E6E5FBE202C005900D927F
:1001E000AE35B107D9F722E0AEE5B1E001C01D920E
:1001F000AD3CB207E1F710E0C2EED0E004C02197B9
:10020000FE010E94BA12C13ED107C9F70E94271110
:100210000C94A9150C94000080916C01846080936B
:100220006C0180916D01807880936D01E0917C017B
:10023000F0917D01309709F009940895ECE6F1E022
:100240008081877F8F7E8083109268011092690180
:1002500010926A0110926B010E94020560936F0177
:1002600070937001809371019093720143E050E0AC
:1002700060E070E088E891E00C946F1591E59CBD1A
:1002800091E09DBD2A98E3E2F0E03197F1F78EBD51
:1002900000000DB407FEFDCF8EB5FB019FEF41506E
:1002A000C8F0222361F09EBD00000DB407FEFDCF13
:1002B0008EB56115710599F380833196F0CFDF011A
:1002C000119680818EBD00000DB407FEFDCF8EB566
:1002D000FD01E5CF2A9AE3E2F0E03197F1F70895C6
:1002E000CF93DF931F92CDB7DEB7698320E041E063
:1002F000BE016F5F7F4F0E943E010F90DF91CF9153
:10030000089580916D01982F9077903759F0982F2C
:1003100092959F709F5F97709295907F8F78892BB1
:1003200080936D0180916C018B7F8F7E80936C0137
:1003300080E090E0892B21F087E690E00E940000A9
:1003400029986CE080E20C94700120E040E060E0CD
:1003500070E00C943E010F931F93CF93DF938C01B9
:10036000FC01C28180916C0180FF04C0CF3F09F085
:100370005DC014C0C11103C0C09189010FC0CF3F3F
:1003800069F08C2F90E003960E947F158F3F29F42F
:1003900080918901F80190819813C82F809188017C
:1003A000F8018083438142FD06C0469546954695F7
:1003B000D7E0D40F01C0D0E280E090E0892B21F09B
:1003C00080E090E00E940000299883E092E001978D
:1003D000F1F76EE080E20E9470018BE891E00197F6
:1003E000F1F76C2F8AE20E9470016C2F80E30E946B
:1003F000700181EE0E94A501CF3F11F080EA01C09B
:1004000080EB4D2FD13208F040E220E0B8010E948D
:100410003E01299A00E010E08FEF0E94A501D82F3D
:10042000807331F401501109B9F702C0D0E02FC038
:10043000299860E387E20E947001D4FF03C081EE37
:100440000E94A5010E94620DD5FBDD27D0F991E045
:10045000CF3F09F090E0D92B80918901C81317C0D4
:10046000D11110C080E090E0892B21F085E690E06A
:100470000E94000080916D0191E0980F9F70807F35
:10048000892B03C080916D01807F80936D018D2F3A
:10049000DF91CF911F910F91089520916C0122FD62
:1004A0000C94AB0180E0089580E090E0892B21F06E
:1004B00088E090E00E9400008FEF80936E018091B1
:1004C0006C01886080936C0128E143E06FEF80E06D
:1004D0000E94680E61E00E94650C0C94AB01809153
:1004E00088018F3FA1F480E090E0892B21F086E025
:1004F00090E00E94000023E043E06FEF80E00E9464
:10050000680E67E571E00E94710C0C94AB010895D0
:1005100080E090E0892B21F084E090E00E940000D0
:1005200080916C01897F816080936C018FEF809353
:100530008A018093890127E043E06FEF0E94680EF3
:1005400067E571E00E94710C0C94AB01CF93C82F4A
:100550008FEF8C0F8E3FA8F4C0938801C0932001C9
:1005600063E082E20E94700161E081E20E9470011A
:100570000E94620D6C2F80E090E00E94971581E050
:100580000CC080E090E0892B21F08EE690E00E9484
:1005900000008FEF8093880180E0CF910895E09173
:1005A0006201F09163010280F381E02D309709F040
:1005B000099580916C0184FD0C942D0708950F938B
:1005C0001F930E9402050091640110916501209122
:1005D000660130916701601B710B820B930B1F91B9
:1005E0000F9108959C01809162019091630182179F
:1005F000930751F090916C019F7190936C0130932F
:1006000063012093620105C080916C01805E80933C
:100610006C01E0916201F09163010190F081E02DA5
:10062000309709F009950E94020560936401709368
:100630006501809366019093670108950F931F935E
:100640000E94DF0220916D012077203729F000E120
:1006500017E220E030E004C000E61AEE20E030E0CF
:10066000061717072807390730F481E291E01F9138
:100670000F910C94F2021F910F91089580916D01DA
:100680008F708B3020F084E191E00C94F202089599
:1006900080916E018F3FA1F00E9402056093680176
:1006A0007093690180936A0190936B0180916E0150
:1006B00090918A01891380938A0180E191E01BC0A7
:1006C0000E94DF02613D774081059105B0F0809185
:1006D0006C01803618F48CE091E00DC0877F809328
:1006E0006C0180E090E0892B21F08AE690E00E9486
:1006F000000084E191E00C94F20208958091880159
:100700008F3F59F080E090E0892B21F087E090E066
:100710000E9400008CE091E018C00E94DF02613D61
:1007200077408105910598F080916C01803618F42E
:1007300088E091E00AC080E090E0892B21F089E612
:1007400090E00E94000088E191E00C94F20208958C
:100750000E94DF02613D77408105910520F4809180
:100760006C0181FF0895809189018F3F81F0809114
:100770006C018E7F80936C0180E090E0892B21F0EA
:1007800085E090E00E94000088E091E011C0809137
:100790006C01803618F484E191E00AC080E090E0BA
:1007A000892B21F088E690E00E94000088E191E02A
:1007B0000C94F202CF93219A229ACFB7F8948091A9
:1007C0005E01811127C0E4EAF1E08491E8EBF1E0F9
:1007D0009491E82FF0E0EE0FFF1FE859FE4FA5912E
:1007E000B491EC91E92321F461E08AE00E94811048
:1007F00061E08AE00E94B1108CB580618CBD8CB53F
:1008000080648CBD61E08DE00E94B11061E08BE0FE
:100810000E94B11080915E018F5F80935E01CFBF17
:1008200029982A9A6EE080E20E94700165E070E0EB
:1008300080E090E00E94ED1063E083E20E9470018E
:100840006FE584E20E9470016CE485E20E94700111
:1008500065E286E20E94700163E780E50E94700114
:1008600066E08DE30E9470010E94470D8823F1F13C
:1008700062E082E20E94700160E081E20E94700109
:1008800063E08CE30E9470018FEF8093030120E00E
:1008900045E063E071E08BE20E943E0120E045E02C
:1008A00063E071E08AE20E943E0120E045E063E0FF
:1008B00071E080E30E943E0182EE0E94A50181EE7C
:1008C0000E94A50160E787E20E94700180916C019F
:1008D000806180936C01809188018F3F81F00E943C
:1008E000A60281110CC088E191E00BC080E090E08D
:1008F000892BC9F387E690E00E940000F4CF84E1E1
:1009000091E0CF910C94F2021F920F920FB60F92CA
:1009100011240F900FBE0F901F9018950895FC01A1
:1009200090810180F281E02D892F809560FF12C0B7
:10093000F8942281822382838181892B8183A3E29F
:10094000B0E01197F1F78281982B9283789487ED2C
:1009500090E011C0F8942281822382838181892BC7
:100960008183AFEFB0E01197F1F78281982B9283EA
:1009700078948FE090E00197F1F708950895CF9370
:10098000FC0125812230B9F40E94360DC1E08111AD
:1009900001C0C0E0C0935F016C2F84E00E94811011
:1009A0006C2F8EE991E00E94971560915F0187E0BE
:1009B000CF910C948110CF9108953FB7F894809116
:1009C000780190917901A0917A01B0917B0126B5CF
:1009D000A89B05C02F3F19F00196A11DB11D3FBF77
:1009E000BA2FA92F982F8827820F911DA11DB11D05
:1009F000BC01CD0142E0660F771F881F991F4A9501
:100A0000D1F708952FB7F894609174017091750132
:100A100080917601909177012FBF08951F920F92D8
:100A20000FB60F9211242F933F938F939F93AF9301
:100A3000BF938091740190917501A0917601B0915E
:100A400077013091730123E0230F2D3720F40196B5
:100A5000A11DB11D05C026E8230F0296A11DB11DE1
:100A6000209373018093740190937501A093760194
:100A7000B09377018091780190917901A0917A01EA
:100A8000B0917B010196A11DB11D809378019093D7
:100A90007901A0937A01B0937B01BF91AF919F91AF
:100AA0008F913F912F910F900FBE0F901F9018952F
:100AB0001F920F920FB60F9211242F933F934F93D3
:100AC0005F936F937F938F939F93AF93BF93EF93B6
:100AD000FF93E0911E01F0911F010995FF91EF91A5
:100AE000BF91AF919F918F917F916F915F914F9146
:100AF0003F912F910F900FBE0F901F9018951F924E
:100B00000F920FB60F9211242F933F934F935F9341
:100B10006F937F938F939F93AF93BF93EF93FF93C5
:100B2000E0911C01F0911D010995FF91EF91BF919A
:100B3000AF919F918F917F916F915F914F913F9175
:100B40002F910F900FBE0F901F901895DC01E0E0E1
:100B5000615038F08D91E827F0E0E859FF4FE491BB
:100B6000F7CF8E2F0895CF92DF92EF92FF920F93DF
:100B70001F93CF93DF931F92CDB7DEB76C01E62EA4
:100B800008E010E0FF24F39461E08F2D8E2109F43A
:100B900060E0C60149830E948F04FF0C01501109D7
:100BA00049810115110581F7411115C0F894D6014D
:100BB0001196ED91FC91129791818C9180958923EA
:100BC00081831196ED91FC91129792818C91809581
:100BD0008923828378940F90DF91CF911F910F9199
:100BE000FF90EF90DF90CF900895CF92DF92EF9239
:100BF000FF920F931F93CF93DF931F92CDB7DEB772
:100C00008C01F62E40E065E579830E94B305CF2C78
:100C10007981D72E760188E0E80EF11CF60161910A
:100C20006F0140E0C8010E94B305CE14DF04B1F7A4
:100C30000F90DF91CF911F910F91FF90EF90DF9078
:100C4000CF900895FC0190810180F281E02DF8940D
:100C50008181892B81832281892F8095282322837A
:100C6000A7E0B0E01197F1F7218182238183A3E20D
:100C7000B0E01197F1F780817894EFECF0E03197D4
:100C8000F1F7982381E009F480E00895EF92FF9254
:100C90000F931F93CF93DF937C0108E010E0C0E037
:100CA000D1E0C7010E9422068111CD2BDD0F01503A
:100CB0001109B9F78C2FDF91CF911F910F91FF9000
:100CC000EF900895FC0190810180F281E02DF8946D
:100CD0008181292F20958223818378948DE743E0B9
:100CE00050E0815021F1DA011197F1F73081392379
:100CF000C1F3F8948281822382838181892B81834D
:100D00007894ABE7B7E01197F1F7F8948181282345
:100D10002183A3E1B1E01197F1F78081982381E06D
:100D200009F080E07894E3E6F6E03197F1F7089572
:100D3000AF92BF92CF92DF92EF92FF920F931F93E9
:100D4000CF93DF931F92CDB7DEB75C01E62ED72E8F
:100D5000FC01858581115DC0C5010E94620681117B
:100D600005C0F5011386158614866BC040E060EF60
:100D7000C5010E94B30501E0F12CC12C11E0C501B1
:100D80000E942206682FC50169830E94220669819C
:100D9000613019F48130B9F433C04F2D50E068133D
:100DA0001BC0F5018385181730F4E40FF51F83810C
:100DB000802349F402C0181731F060E0193058F46C
:100DC000F501148708C0F501EF0DF11D8381802B1B
:100DD000838361E009C0C12EF501E40FF51F938103
:100DE000802F809589238383C5010E948F041F5F14
:100DF000000F11F4F39401E0F7E0FF1508F0BFCF06
:100E0000113438F0F501C386C11015C081E0858723
:100E100012C0F50113861586148680E0D50113965D
:100E2000EE2DFD2D9501255F3F4F9D919193A217CA
:100E3000B307D9F706C0F5018381882351F381E018
:100E4000EDCF0F90DF91CF911F910F91FF90EF9019
:100E5000DF90CF90BF90AF9008954F925F926F92C6
:100E60007F928F929F92AF92BF92CF92DF92EF923A
:100E7000FF920F931F93CF93DF930E94020500917F
:100E80006F01109170012091710130917201DC01AC
:100E9000CB01801B910BA20BB30B813A9B4BAD4056
:100EA000B10590F00E94020560936F01709370018C
:100EB00080937101909372010E94470D811104C0CB
:100EC00088E191E00E94F20286E0B82E90E0E92EDF
:100ED00090E0F92E20E0C22E20E0D22E31E2A32EA7
:100EE00021E041E060E070E087E10E943E0180FD8A
:100EF00083C2BA94BB2009F47FC2E114F10421F04B
:100F000081E090E00E94000021E041E060E070E0BC
:100F100080E60E943E01082F813220F082EE0E947E
:100F2000A50100E021E0402F6EE972E081E60E9419
:100F30003E0160E487E20E9470019091A102192FA6
:100F40001695169516951A3108F019E192FD03C011
:100F500087E0810F01C080E27090A202C091A302DD
:100F6000D0919F0290909E028090A002081739F0C5
:100F7000E114F10409F4B4CF8CE690E009C0937059
:100F8000923049F0E114F10409F4AACF8DE690E023
:100F90000E940000A5CF80918901981651F08091A0
:100FA0008801D81731F08D2F90E0692D03960E94AB
:100FB0009715072D077080916D01806880936D01F2
:100FC0008091880188124DC02091A102822F8695C0
:100FD000869586958A3108F089E138E0839FC001C3
:100FE00011242770822B8093A102E12FF0E0E256BA
:100FF000FD4F17828091A20283FF17C0EEE9F2E055
:10100000ADE7B2E08A2D01900D928A95E1F78091CB
:101010008102877F80618093810280927E02D093DB
:101020007F028DE792E00E944D028091A20284FD32
:1010300013C0033089F49091A30221EF290F2330CC
:1010400008F0BBC04DCF913009F447C19A3009F484
:1010500063C19C3109F444CF8EE992E00E94BF0441
:101060003FCF2FEF82128FC0033009F07EC08091F6
:101070006C0182FF5DC0C73009F05AC080918901C0
:10108000D81709F42DCF0E94020500916801109134
:10109000690120916A0130916B01DC01CB01801B59
:1010A000910BA20BB30B80319742A105B10518F14A
:1010B00080916C0183FD14CF90918801911154C1EE
:1010C00010926E0180916C01877F80936C01C091BA
:1010D0006E01CF3F09F404CF0E94020560936801BE
:1010E0007093690180936A0190936B0180918A01EA
:1010F000C813C0938A010E9402056093680170932F
:10110000690180936A0190936B010E9402057370DC
:10111000882799270E94ED10C0918A0128E043E0BA
:101120006FEF8D2F0E94680E6C2F0E94650C42C0DD
:10113000C83009F4D5CEC431C1F480918901981228
:1011400014C00E9402057370882799270E94ED1031
:10115000C091890125E143E06FEF8D2F0E94680E59
:101160006C2F0E94650C0E94AB018091890198123E
:10117000B7CE80918801D81709F43AC180916C01EB
:1011800082FD2AC135C180916C0182FFA9CE033056
:1011900079F4C851C23060F48EE992E00E94360DB5
:1011A0008E3F31F061E0680F8EE992E00E94650C9D
:1011B0008EE992E00E94AB0193CEC43039F48EE9FF
:1011C00092E00E94360D0E94A6028ACEC830D9F461
:1011D000C0916C01C0FF84CE8EE992E00E94360D72
:1011E0008F3F09F47DCE8F5F8F3F09F479CE9091C8
:1011F0008A01891708F074CEC1FD72CE80938A01EE
:10120000D09389016DCEC83141F429E143E06FEFFD
:101210008D2F0E94680E61E088CFC93171F48091F2
:101220006C0183FF5DCE877F80936C018EE992E035
:101230000E94360D80936E0153CE20919F022111A2
:101240008FC09D3099F480E090E0892B21F08BE0F5
:1012500090E00E94000098E088E10FB6F894A8950D
:10126000809360000FBE90936000FFCF9B31A9F484
:101270008EE992E00E94360D91E0811101C090E06C
:101280008091610190FB80F980936101E114F10488
:1012900009F426CE8AE090E07BCE963099F49091C6
:1012A000A50281E0992319F09D3409F080E0809334
:1012B000600141E050E063E071E080E691E00E946F
:1012C00087150ECE933119F40E94C60C09CE9231C7
:1012D00009F0B9CE0E94080F03CEC114D10409F45D
:1012E000FFCD829586958770853049F46091A5027F
:1012F0007091A6028091A7029091A8020AC0811164
:1013000005C085EA92E00E94071403C060E070E027
:10131000CB010E940000E4CD8091A502833409F046
:10132000DFCDE114F10421F08DE090E00E94000097
:10133000C3E0D0E06FEFCE010E9497152196C33035
:1013400081E0D807B9F72AE043E06FEF80E00E9420
:10135000680E6BE371E00E94710C0E944D02C0CDDB
:101360009A3109F079CEBCCD886080936C0180926F
:101370006E0128E143E06FEF80E00E94680E61E0BB
:101380000E94650C0E94AB010E9402052B013C01EA
:101390001092A302C0E00E940205DC01CB01841977
:1013A0009509A609B709803D9740A105B10508F048
:1013B00089CEC11187CE80916C0184FD0E942D07DA
:1013C000A8958091A2028770833029F7C1E08091AF
:1013D000A3028931F9F6DFCF8EE992E00E94AB01DA
:1013E000033009F47DCD80918901981279CD34CEF6
:1013F000033009F031CE74CDDF91CF911F910F9161
:10140000FF90EF90DF90CF90BF90AF909F908F9024
:101410007F906F905F904F900895FC01962F809180
:10142000880181836481607F262F216088E0989FF6
:10143000B0011124622B64838091610180FF03C09D
:10144000CF010C944D0280E008958F929F92AF924D
:10145000BF92CF92DF92EF92FF921F93CF93DF93D1
:10146000CDB7DEB728970FB6F894DEBF0FBECDBF5D
:10147000EFE7F1E08491E1EBF1E0F490EDE9F1E0E8
:1014800014911123A1F081110E945810E12FF0E076
:10149000EE0FFF1FE057FE4FA591B491EC91EF21A5
:1014A00091E080E009F490E0E92EF82E02C0E12CF2
:1014B000F12C0E9402054B015C0180918601909104
:1014C0008701E816F906D1F0E114F104B9F490911E
:1014D0005F0181E0982780912B028770886080935C
:1014E0002B0280912C028F71806280932C0290934A
:1014F0002F0261E088E292E00E940D0AF0928701DB
:10150000E09286018091820190918301A0918401F3
:10151000B0918501A5019401281B390B4A0B5B0B87
:10152000DA01C901803E9349A440B10508F40BC11A
:101530008092820190928301A0928401B0928501F1
:1015400080916F02909170020E94620640E06CEC04
:1015500080916F02909170020E94B30540916A02DF
:1015600064E480916F02909170020E94B3058091B3
:101570006C028823A9F0E0916B02E950E33040F45B
:10158000F0E0EE0FFF1FEB5DFE4F6081718102C046
:101590006EEE72E0072E000C880B990B0E94ED1086
:1015A000E0916B02E950E33040F4F0E0EE0FFF1FF2
:1015B000EB5DFE4F8081918102C08EEE92E06C0166
:1015C000990FEE08FF080E9402054B015C010E9482
:1015D0000205DC01CB0188199909AA09BB098C1500
:1015E0009D05AE05BF0520F4A8950E94CF02EFCF60
:1015F0008091600160E0811126C0CE0101960E94B9
:10160000CB0F811105C06AE979E984E493EC25C028
:10161000CE0101960E94760F813844EE94079CF328
:10162000BC01990F880B990B0E94521426E636E6EE
:1016300046E65CE30E94B11420E030E040E052E472
:101640000E94C1120AC0CE0101960E94CB0F8111E7
:1016500029C060E070E08EEF92EC20E030E040E2E4
:1016600051E40E94B1140E949F13072E000C880BB6
:10167000990B0E94521420E030E040E251E40E94B5
:101680002D136B017C019B01AC0160917E01709177
:101690007F0180918001909181010E944B14811102
:1016A00016C01FC0CE0101960E94760F813854EEFD
:1016B00095077CF2BC01990F880B990B0E9452147C
:1016C00020E030E040E05CE30E94B114C6CF20E0AF
:1016D00030E04EEF52ECC701B6010E944B1481116D
:1016E00003C00E94080F2FC020E030E04AEA52E415
:1016F000C701B6010E944B14882399F391E090939F
:101700004F0280914C028770886280934C028091D6
:101710004D02806E80934D02C0925002D0925102D1
:10172000E0925202F09253029093540260E089E4F6
:1017300092E00E940D0AC0927E01D0927F01E09259
:101740008001F092810128960FB6F894DEBF0FBE9B
:10175000CDBFDF91CF911F91FF90EF90DF90CF90A1
:10176000BF90AF909F908F90089561E087E00E94B6
:10177000B11060E083E00E94B11061E083E00E945C
:10178000811061E084E00E94B11060E084E00E947A
:1017900081108EE991E00E947F1561E0811101C006
:1017A00060E060935F0184E00E94811060915F01BE
:1017B00087E00E94811010926C0208950F931F938E
:1017C000CF93DF93CDB7DEB761970FB6F894DEBF46
:1017D0000FBECDBFE0916F02F091700213861586A7
:1017E0001486DF011B9633961E92AE17BF07E1F7F2
:1017F00010926E0211E0BE01665F7F4F80916F0212
:10180000909170020E949806882309F453C067E003
:10181000CE010A960E94A60599898913ECCF809182
:101820006A02811126C080916F02909170020E941D
:101830006206BE01665F7F4F80916F0290917002D9
:101840000E94F50540E064EB80916F029091700278
:101850000E94B30580916F02909170020E9422064F
:10186000082F80916F02909170020E9462060023FF
:10187000F1F0BE016F5F7F4FCE010A960E94770E96
:1018800000916B02CE010A960E94D00E801718F4C8
:1018900080916B0204C0CE010A960E94D00E809304
:1018A0006B0280916E028F5F80936E02A4CF1093C3
:1018B0006A02DFCF61960FB6F894DEBF0FBECDBFD0
:1018C000DF91CF911F910F910895FC018381877063
:1018D0008860838384818F71806284836783CF0172
:1018E00008950F931F93CF93DF93EC01611571055A
:1018F00061F0FB0101900020E9F73197E61BF70B3F
:10190000E931F10518F0E9E101C0E0E00E2F10E047
:10191000C80123E0880F991F2A95E1F79B819770F2
:10192000892B8B838C818F718C83EE2329F0A80106
:10193000CE0107960E94DA13FE01E00FF11F178215
:10194000CE01DF91CF911F910F9108952BE043E0DD
:101950006FEF80E00E94680E6EE371E00E94710CF0
:101960000E944D022CE043E06FEF80E00E94680E81
:1019700064E571E00E94710C0E944D0266E080E017
:101980000E942A0F63E081E00C942A0FCF9380E03D
:1019900090E0892B21F08CE090E00E9400002FE085
:1019A00043E06FEF80E00E94680E67E571E00E94FF
:1019B000710C809180028770806180938002809199
:1019C00081028F71806C8093810281E08093840218
:1019D000109285028DE792E00E944D028FE00E94F6
:1019E000400F62E18FEF0E942A0FC091890126E02B
:1019F00043E06FEF80E00E94680E6C2F0E94650C40
:101A00000E944D0286E00E94400FCF910C94A60CDC
:101A1000CF938091610181FD27C00E94C60C80E0B8
:101A200090E0892B21F089E090E00E9400008091F5
:101A30006101816080936101C4E02AE143E06FEFBE
:101A400080E00E94680E62E00E94650C0E944D02D8
:101A50008BE10E94400F811102C0C15071F780914B
:101A60006101826080936101CF910895FC0124811E
:101A7000229526952770213011F487810895211130
:101A800004C007960E94E913089580E00895CF935B
:101A900021E041E060E070E086E00E943E01C82F56
:101AA00021E041E060E070E085E00E943E0121E03D
:101AB0008C3409F020E081E0C53209F080E0822317
:101AC000CF9108956FE080E20E9470016091200143
:101AD0006F3F19F08AE20E947001299A0895CF920F
:101AE000DF92EF92FF920F931F93CF93DF936C01DE
:101AF0007A018B01C0E0D0E0CE15DF0589F0D80176
:101B00006D918D01D601ED91FC910190F081E02D58
:101B1000C6010995892B11F47E0102C02196ECCFF4
:101B2000C701DF91CF911F910F91FF90EF90DF9050
:101B3000CF900895FC01918D828D981761F0828D70
:101B4000DF01A80FB11D5D968C91928D9F5F9F73F1
:101B5000928F90E008958FEF9FEF0895FC01918D93
:101B6000828D981731F0828DE80FF11D858D90E000
:101B700008958FEF9FEF0895FC01918D228D892F9D
:101B800090E0805C9F4F821B91098F739927089585
:101B90008BE891E00E94BC0D21E0892B09F420E044
:101BA000822F0895FC01848DDF01A80FB11DA35A77
:101BB000BF4F2C91848D90E001968F739927848F6D
:101BC000A689B7892C93A089B1898C9180648C9364
:101BD000938D848D981306C00288F389E02D80814F
:101BE0008F7D80830895EF92FF920F931F93CF9381
:101BF000DF93EC0181E0888F9B8D8C8D981305C05D
:101C0000E889F989808185FD24C0F62E0B8D10E0CE
:101C10000F5F1F4F0F731127E02E8C8DE8120CC041
:101C20000FB607FCFACFE889F989808185FFF5CFE7
:101C3000CE010E94D20DF1CF8B8DFE01E80FF11D78
:101C4000E35AFF4FF0820B8FEA89FB898081806223
:101C500007C0EE89FF896083E889F9898081806403
:101C6000808381E090E0DF91CF911F910F91FF90F1
:101C7000EF900895CF93DF93EC01888D8823C9F00E
:101C8000EA89FB89808185FD05C0A889B9898C9185
:101C900086FD0FC00FB607FCF5CF808185FFF2CF20
:101CA000A889B9898C9185FFEDCFCE010E94D20D14
:101CB000E7CFDF91CF91089580E090E0892B29F064
:101CC0000E94C80D81110C94000008950E94D51344
:101CD000EDE7F2E09091880191838283668325830A
:101CE00047708481807E482B4483CF010895EF9212
:101CF000FF920F931F93CF93DF937C018B01CAE672
:101D0000D2E08D819E810E946206B7018D819E8105
:101D10000E94F50540E06EEB8D819E810E94B30527
:101D20008D819E810E944606F80180838D819E816F
:101D30000E944606F80181838D819E810E9446069D
:101D4000F80182838D819E810E944606F80183837B
:101D50008D819E810E944606F80184838D819E813B
:101D60000E944606F80185838D819E810E94460669
:101D7000F80186838D819E810E944606F801878343
:101D80008D819E810E944606F80180878D819E810B
:101D9000DF91CF911F910F91FF90EF900C9462060D
:101DA000CF93DF93CDB7DEB729970FB6F894DEBF98
:101DB0000FBECDBFFC012081203101F1BE016F5F5C
:101DC0007F4F0E94770E68E0CE0101960E94A60523
:101DD0009985891311C08D818F3361F020F48F3183
:101DE00059F489E00CC08F3519F08F3739F004C0F1
:101DF0008BE005C08AE003C080E001C08CE029963A
:101E00000FB6F894DEBF0FBECDBFDF91CF9108951E
:101E1000CF92DF92EF92FF920E94DF026B017C0172
:101E200026E143E06FEF80E00E94680EFC018481B0
:101E30008F71806A84838381877080628383C78285
:101E4000D086E186F286CF01FF90EF90DF90CF90B1
:101E50000C944D02CF93DF93262F8F3F19F0C7E5E7
:101E6000D1E002C0C8E5D1E040E0682F80E00E94E8
:101E7000680EBE010E94710CDF91CF910C944D024F
:101E8000CF92DF92EF92FF92CF93DF93D82F0E94F1
:101E900002056B017C0181E0D11180E08093A302F7
:101EA000C0E00E940205AB01BC014C195D096E093E
:101EB0007F09403D57406105710580F4C1110EC096
:101EC000A8950E94CF029091A2029770933049F793
:101ED000C1E08091A3028D13E3CFE3CF8C2FDF917C
:101EE000CF91FF90EF90DF90CF9008950F931F93C5
:101EF000CF93DF93CDB7DEB729970FB6F894DEBF47
:101F00000FBECDBF8C01BE016F5F7F4F0E94770E69
:101F100068E0CE0101960E94A605998589132CC020
:101F2000298148E0249FB00111249A81292F30E0B3
:101F3000322F2227330F330F330F262B372BF80185
:101F400080818031E1F4688570E08F81AB01481BAE
:101F50005109CA019695982F8827979587950E94D1
:101F60009212CB014097207F53E0220F331F5A95E6
:101F7000E1F7820F931F04C080E894EE01C0C9010D
:101F800029960FB6F894DEBF0FBECDBFDF91CF917B
:101F90001F910F9108950F931F93CF93DF938C019F
:101FA000D62FE0916F02F091700213861586148689
:101FB000DF011B9633961E92AE17BF07E1F7C0E014
:101FC000B80180916F02909170020E949806811171
:101FD00002C080E010C0CD130AC067E0C8010E94B3
:101FE000A605F8019781891302C081E004C0CF5F84
:101FF000DC1778F3E5CFDF91CF911F910F91089512
:102000001F920F920FB60F9211242F933F934F936D
:102010005F936F937F938F939F93AF93BF93EF9350
:10202000FF938BE891E00E94D20DFF91EF91BF9159
:10203000AF919F918F917F916F915F914F913F9160
:102040002F910F900FBE0F901F9018951F920F9217
:102050000FB60F9211242F938F939F93EF93FF93BB
:10206000E0919B01F0919C018081E091A101F091B0
:10207000A20182FD12C090818091A4018F5F8F73B5
:102080002091A501821751F0E091A401F0E0E557FD
:10209000FE4F958F8093A40101C08081FF91EF9145
:1020A0009F918F912F910F900FBE0F901F901895B9
:1020B000833081F028F4813099F08230A1F00895C6
:1020C0008730A9F08830B9F08430D1F48091800055
:1020D0008F7D03C0809180008F778093800008956A
:1020E00084B58F7702C084B58F7D84BD08958091BB
:1020F000B0008F7703C08091B0008F7D8093B000D7
:1021000008951F93CF93DF93282F30E0F901E4580F
:10211000FE4F8491F901E255FE4FD491F901E65644
:10212000FE4FC491CC23C9F0162F81110E94581084
:10213000EC2FF0E0EE0FFF1FEE58FE4FA591B4918B
:102140008FB7F894111105C09C91ED2FE095E9230C
:1021500002C0EC91ED2BEC938FBFDF91CF911F91DB
:102160000895CF93DF9390E0FC01E255FE4F249158
:10217000FC01E656FE4F8491882361F190E0880FC0
:10218000991FFC01E859FE4FC591D491FC01EE580E
:10219000FE4FA591B491611109C09FB7F894888151
:1021A000209582238883EC912E230BC0623061F44A
:1021B0009FB7F8943881822F809583238883EC9190
:1021C0002E2B2C939FBF06C08FB7F894E8812E2B3F
:1021D00028838FBFDF91CF9108958F929F92AF9206
:1021E000BF92CF92DF92EF92FF926B017C010E942F
:1021F000DD044B015C01C114D104E104F104F1F0F0
:102200000E94DD04DC01CB0188199909AA09BB09E8
:10221000883E9340A105B10570F321E0C21AD108B0
:10222000E108F10888EE880E83E0981EA11CB11C1D
:10223000C114D104E104F10419F7DDCFFF90EF9050
:10224000DF90CF90BF90AF909F908F90089578943B
:1022500084B5826084BD84B5816084BD85B58260AB
:1022600085BD85B5816085BD80916E00816080935C
:102270006E001092810080918100826080938100C5
:1022800080918100816080938100809180008160D5
:10229000809380008091B10084608093B100809130
:1022A000B00081608093B00080917A008460809358
:1022B0007A0080917A00826080937A0080917A001F
:1022C000816080937A0080917A00806880937A00A0
:1022D0001092C100A89580E090E0892B11F00E9437
:1022E0000000E0919B01F0919C0182E08083E091ED
:1022F0009701F09198011082E0919901F0919A0173
:1023000080E180831092A301E0919F01F091A001F0
:1023100086E08083E0919D01F0919E018081806143
:102320008083E0919D01F0919E018081886080838F
:10233000E0919D01F0919E01808180688083E09111
:102340009D01F0919E0180818F7D8083809161014C
:102350008D7F809361010E94DE0B41E050E063E0DD
:1023600071E080E691E00E946F156FEF81E090E0F0
:102370000E94971580916D018F7880936D01109266
:1023800063011092620181E291E00E94F20288E012
:102390009DE090937D0180937C010E9402050E9444
:1023A00002050E94CF02A89580916C0182FFF7CFB1
:1023B0000E94B50BA895A8950E94CF020E94250AFD
:1023C0000E945C0EF8CFCF93DF93FC011082118244
:1023D0001282148215821682DC0117968AE1ED01C1
:1023E00019928A95E9F782E08383DF91CF9108956E
:1023F000CF9310928E0110928D0188EE93E0A0E0B1
:10240000B0E080938F0190939001A0939101B093DD
:1024100092018FE291E090938C0180938B0185EC87
:1024200090E0909398018093970184EC90E09093D2
:102430009A018093990180EC90E090939C018093A5
:102440009B0181EC90E090939E0180939D0182EC32
:1024500090E09093A00180939F0186EC90E0909390
:10246000A2018093A1011092A4011092A5011092E3
:10247000A6011092A7018EE992E00E94E3118DE778
:1024800092E00E94E31160E088E00E94B110E6EB68
:10249000F1E0E491E093BF02E2EAF1E0E491F0E0E0
:1024A000EE0FFF1FE057FE4F859194919093C1026C
:1024B0008093C0021092CA021092CC021092CB02FA
:1024C000EAECF2E0129282E0E23CF807D9F78EEBF8
:1024D00094E090937C0280937B028FEB92E0909348
:1024E000700280936F0210926E0210926A0289E06D
:1024F00080936B02C1E0C0936C02C0936D0289E4CB
:1025000092E00E94E31110924F0210924E0288E274
:1025100092E00E94E311C0932E0282E080932D028C
:10252000CF91089597FB072E16F4009407D077FDFE
:1025300009D00E94A61207FC05D03EF49095819523
:102540009F4F0895709561957F4F0895AA1BBB1BFF
:1025500051E107C0AA1FBB1FA617B70710F0A61BA3
:10256000B70B881F991F5A95A9F780959095BC01C4
:10257000CD010895EE0FFF1F0590F491E02D099411
:102580005058BB27AA270E94D8120C9435150E94D8
:10259000271538F00E942E1520F039F49F3F19F4CA
:1025A00026F40C9424150EF4E095E7FB0C941E150C
:1025B000E92F0E94461558F3BA176207730784077C
:1025C000950720F079F4A6F50C9468150EF4E095C3
:1025D0000B2EBA2FA02D0B01B90190010C01CA01DD
:1025E000A0011124FF27591B99F0593F50F4503E88
:1025F00068F11A16F040A22F232F342F4427585F7A
:10260000F3CF469537952795A795F0405395C9F791
:102610007EF41F16BA0B620B730B840BBAF0915049
:10262000A1F0FF0FBB1F661F771F881FC2F70EC0E8
:10263000BA0F621F731F841F48F4879577956795BB
:10264000B795F7959E3F08F0B0CF9395880F08F0A7
:102650009927EE0F9795879508950E9441130C9442
:1026600035150E942E1558F00E94271540F029F4C8
:102670005F3F29F00C941E1551110C9469150C94B0
:1026800024150E94461568F39923B1F3552391F35D
:10269000951B550BBB27AA2762177307840738F0D1
:1026A0009F5F5F4F220F331F441FAA1FA9F335D02E
:1026B0000E2E3AF0E0E832D091505040E695001CE2
:1026C000CAF72BD0FE2F29D0660F771F881FBB1F9C
:1026D000261737074807AB07B0E809F0BB0B802D7A
:1026E000BF01FF2793585F4F3AF09E3F510578F0A6
:1026F0000C941E150C9469155F3FE4F3983ED4F3D7
:10270000869577956795B795F7959F5FC9F7880F79
:10271000911D9695879597F90895E1E0660F771FCB
:10272000881FBB1F621773078407BA0720F0621B5C
:10273000730B840BBA0BEE1F88F7E09508950E9487
:10274000A6136894B1110C94691508950E944E1552
:1027500088F09F5798F0B92F9927B751B0F0E1F062
:10276000660F771F881F991F1AF0BA95C9F714C012
:10277000B13091F00E946815B1E008950C9468158D
:10278000672F782F8827B85F39F0B93FCCF386954B
:1027900077956795B395D9F73EF4909580957095A8
:1027A00061957F4F8F4F9F4F089581E090E0F8949F
:1027B0000C94A915FB01DC014150504048F00190F8
:1027C0000D920020C9F701C01D9241505040E0F722
:1027D0000895FC0188279927E89421912032E9F394
:1027E000293010F02E30C8F32B3241F02D3239F45D
:1027F000689404C00E944314820F911D21912053BC
:102800002A30C0F31EF4909581959F4F08951F9331
:10281000FC0199278827BC01E89411911032E9F353
:10282000193010F01E30C8F31B3251F01D3249F43C
:10283000689406C00E942E14610F711D811D911DA8
:10284000119110531A30B0F33EF490958095709525
:1028500061957F4F8F4F9F4F1F910895592F482F9C
:10286000372F262F660F771F881F991F660F771F38
:10287000881F991F620F731F841F951F660F771F94
:10288000881F991F08957AE0979F902D879F802D2C
:10289000910D112408950E948D1408F481E008958B
:1028A000E89409C097FB3EF49095809570956195EA
:1028B0007F4F8F4F9F4F9923A9F0F92F96E9BB27A0
:1028C0009395F695879577956795B795F111F8CF1C
:1028D000FAF4BB0F11F460FF1BC06F5F7F4F8F4F87
:1028E0009F4F16C0882311F096E911C0772321F07D
:1028F0009EE8872F762F05C0662371F096E8862F15
:1029000070E060E02AF09A95660F771F881FDAF76B
:10291000880F9695879597F90895990F0008550F98
:10292000AA0BE0E8FEEF16161706E807F907C0F055
:1029300012161306E407F50798F0621B730B840B5D
:10294000950B39F40A2661F0232B242B252B21F437
:1029500008950A2609F4A140A6958FEF811D811DD7
:1029600008950E94C4140C9435150E94271538F060
:102970000E942E1520F0952311F00C941E150C9436
:10298000241511240C9469150E94461570F3959F27
:10299000C1F3950F50E0551F629FF001729FBB2756
:1029A000F00DB11D639FAA27F00DB11DAA1F649FF2
:1029B0006627B00DA11D661F829F2227B00DA11DA5
:1029C000621F739FB00DA11D621F839FA00D611D2B
:1029D000221F749F3327A00D611D231F849F600D4C
:1029E000211D822F762F6A2F11249F5750409AF075
:1029F000F1F088234AF0EE0FFF1FBB1F661F771F01
:102A0000881F91505040A9F79E3F510580F00C94CB
:102A10001E150C9469155F3FE4F3983ED4F3869538
:102A200077956795B795F795E7959F5FC1F7FE2B6B
:102A3000880F911D9695879597F9089597F99F6747
:102A400080E870E060E008959FEF80EC0895002436
:102A50000A941616170618060906089500240A9403
:102A600012161306140605060895092E0394000C89
:102A700011F4882352F0BB0F40F4BF2B11F460FF18
:102A800004C06F5F7F4F8F4F9F4F089557FD905841
:102A9000440F551F59F05F3F71F04795880F97FB22
:102AA000991F61F09F3F79F08795089512161306DC
:102AB0001406551FF2CF4695F1DF08C0161617060B
:102AC0001806991FF1CF8695710561050894089540
:102AD000E894BB2766277727CB0197F90895DC0197
:102AE000CB01FC01F999FECF06C0F2BDE1BDF89A19
:102AF000319600B40D9241505040B8F70895F999BD
:102B0000FECF92BD81BDF89A992780B50895DC016A
:102B1000A40FB51F4150504048F0CB01840F951FC2
:102B20002E910E94981541505040D0F70895262FBD
:102B3000F999FECF92BD81BDF89A019700B40216B3
:102B400039F01FBA20BD0FB6F894FA9AF99A0FBE61
:062B50000895F894FFCF88
:102B5600FFFFFF00FCE1A8A86F027E0354024803B2
:102B66000C013E038802A80381011E038E048E0415
:102B7600FF1E01DA035E00BC00770100000000F3CF
:102B86000D6F0DBC0D9A0DAE0D3A0E4F4B005472E3
:102B9600696163202620427574746F6E2026205466
:0E2BA600656D7000312E3000322E312E310060
:00000001FF
