:100000000C9432030C94BB1E0C94941E0C945A0353
:100010000C945A030C945A030C945B050C945A03E9
:100020000C945A030C945A030C945A030C945A03DC
:100030000C945A030C945A030C945A030C945A03CC
:100040000C944A1E0C945A030C94E70B0C94C10BAD
:100050000C945A030C945A030C945A030C945A03AC
:100060000C94A11F0C945A030000000023002600EA
:10007000290004040404040404040202020202022B
:10008000030303030303010204081020408001025C
:1000900004081020010204081020322E332E300AEA
:1000A00000207C5F5C2F602C0A0702200220B287B0
:1000B000100340012000240222100222020220022A
:1000C00022002220020220222710134101010103F5
:1000D00022203040203052034022140203105224C8
:1000E00002217101001010121012221010022401BE
:1000F00001032203002001010032203712100121E8
:1001000032260128403222121012122243222412D7
:100110001001222470C122240F0F00000000003EB5
:100120005B4F5B3E3E6B4F6B3E1C3E7C3E1C183C67
:100130007E3C181C577D571C1C5E7F5E1C00183CC3
:100140001800FFE7C3E7FF0018241800FFE7DBE70C
:10015000FF30483A060E2629792926407F050507F3
:10016000407F05253F5A3CE73C5A7F3E1C1C08084F
:100170001C1C3E7F14227F22145F5F005F5F060914
:100180007F017F006689956A606060606094A2FF6D
:10019000A29408047E040810207E201008082A1C5F
:1001A00008081C2A08081E101010100C1E0C1E0C2B
:1001B00030383E3830060E3E0E06000000000000CB
:1001C000005F00000007000700147F147F14242A3A
:1001D0007F2A12231308646236495620500008070C
:1001E0000300001C2241000041221C002A1C7F1C2D
:1001F0002A08083E0808008070300008080808082F
:10020000000060600020100804023E5149453E0095
:10021000427F400072494949462141494D331814F3
:10022000127F1027454545393C4A49493141211142
:1002300009073649494936464949291E0000140034
:100240000000403400000008142241141414141457
:10025000004122140802015909063E415D594E7CB5
:100260001211127C7F494949363E414141227F416A
:1002700041413E7F494949417F090909013E4141C8
:1002800051737F0808087F00417F41002040413FB3
:10029000017F081422417F404040407F021C027FC2
:1002A0007F0408107F3E4141413E7F090909063E17
:1002B0004151215E7F0919294626494949320301E6
:1002C0007F01033F4040403F1F2040201F3F4038F8
:1002D000403F631408146303047804036159494DD3
:1002E00043007F4141410204081020004141417F09
:1002F000040201020440404040400003070800207F
:10030000545478407F28444438384444442838447E
:1003100044287F385454541800087E090218A4A4B5
:100320009C787F0804047800447D40002040403DD4
:10033000007F1028440000417F40007C047804784E
:100340007C080404783844444438FC1824241818E1
:10035000242418FC7C08040408485454542404043D
:100360003F44243C4040207C1C2040201C3C40302A
:10037000403C44281028444C9090907C4464544C59
:1003800044000836410000007700000041360800B4
:1003900002010204023C2623263C1EA1A161123A5E
:1003A0004040207A385454555921555579412254AA
:1003B000547842215554784020545579400C1E52AF
:1003C0007212395555555939545454593955545454
:1003D000580000457C410002457D420001457C40BB
:1003E0007D1211127DF0282528F07C5455450020FF
:1003F00054547C547C0A097F4932494949323A4471
:1004000044443A324A4848303A4141217A3A4240DB
:100410002078009DA0A07D3D4242423D3D404040AD
:100420003D3C24FF2424487E4943662B2FFC2F2B80
:10043000FF0929F620C0887E090320545479410021
:1004400000447D413048484A32384040227A007AA0
:100450000A0A727D0D19317D2629292F282629297E
:10046000292630484D4020380808080808080808A0
:10047000382F10C8ACBA2F102834FA00007B0000C7
:1004800008142A142222142A14085500550055AACB
:1004900055AA55AAFF55FF55FF000000FF00101098
:1004A00010FF00141414FF001010FF00FF1010F0D4
:1004B00010F0141414FC001414F700FF0000FF00E7
:1004C000FF1414F404FC141417101F10101F101F35
:1004D0001414141F00101010F0000000001F101062
:1004E00010101F10101010F010000000FF1010105E
:1004F000101010101010FF10000000FF140000FF7B
:1005000000FF00001F10170000FC04F41414171063
:10051000171414F404F40000FF00F7141414141456
:100520001414F700F7141414171410101F101F14CC
:100530001414F4141010F010F000001F101F00002D
:10054000001F14000000FC140000F010F01010FF59
:1005500010FF141414FF141010101F00000000F0FE
:1005600010FFFFFFFFFFF0F0F0F0F0FFFFFF0000D3
:10057000000000FFFF0F0F0F0F0F3844443844FCFA
:100580004A4A4A347E02020606027E027E02635511
:100590004941633844443C04407E201E2006027ECC
:1005A000020299A5E7A5991C2A492A1C4C720172DE
:1005B0004C304A4D4D303048784830BC625A463D48
:1005C0003E494949007E0101017E2A2A2A2A2A44FD
:1005D000445F444440514A444040444A5140000032
:1005E000FF0103E080FF000008086B6B083612363D
:1005F0002436060F090F060000181800000010101E
:10060000003040FF0101001F01011E00191D1712DB
:10061000003C3C3C3C0000000000005EBCE2613F4E
:10062000DD83C29C7E20A3FD1F41009D23BE46DBCF
:1006300065F88C11AF32CA57E9740000000024003D
:1006400027002A0000000000250028002B000000E1
:100650000008000201000003040700000000000081
:100660000000D22111241FBECFEFD8E0DEBFCDBFE6
:1006700011E0A0E0B1E0E0E5F3E502C005900D92E5
:10068000A63BB107D9F724E0A6EBB1E001C01D926B
:10069000A130B207E1F713E0C2E3D3E004C0219731
:1006A000FE010E94AF28C133D107C9F70E94212360
:1006B0000C94A6290C940000809198038460809388
:1006C000980380919903807880939903E0919D032A
:1006D000F0919E03309709F0099408952F923F926C
:1006E0004F925F926F927F928F929F92AF92BF9242
:1006F000CF92EF92FF920F931F93CF93DF9300D08F
:1007000000D000D0CDB7DEB73C015C0127E0A20EDF
:10071000B11CA114B104C9F0F50101900020E9F762
:100720003197EA19FB09FE83ED83BF016F5F7F4FAD
:1007300080E090E00E94B5284C01009759F0FC0140
:100740001082B5010E94902907C01E821D82812C53
:10075000912C02C01E821D82F30185818F32D1F05F
:10076000C40126960FB6F894DEBF0FBECDBFDF9151
:10077000CF911F910F91FF90EF90CF90BF90AF90CE
:100780009F908F907F906F905F904F903F902F90B1
:100790000C94C42493E0292E312C20917E013091B9
:1007A0007F013A832983412C512C8091FB02909147
:1007B000FC02019769817A81861B970B4091F102B7
:1007C0005091F202ED81FE81E49F9001E59F300D92
:1007D000F49F300D1124820F931F4816590608F01C
:1007E00066C060E070E083EF92E00E94261D609199
:1007F000F1027091F202C2010E9465283B01A090B3
:10080000FB02B090FC02F1E0AF1AB108A81AB90AD5
:100810002091FD023091FE02C901089797FD0196D3
:100820009C01359527953C832B838091F102909113
:10083000F2028A0D9B1D69817A81861B970B97FDB9
:100840002AC077FC28C08D819E8168167906C8F47D
:100850008114910429F41092B601E6EBF1E003C093
:10086000F401E60DF71DCC24C394E12CF12C01E03A
:1008700010E020814B815C81B50183EF92E00E9402
:10088000171891E0691A71088091F1029091F202B3
:10089000A81AB90ACACF0E941F0964E170E080E07B
:1008A00090E00E94790DEFEF4E1A5E0A7ECFF1E0E4
:1008B0002F1A310809F077CF53CFE8E9F3E08081B0
:1008C000877F8F7E808310929403109295031092FD
:1008D0009603109297030E943E1E60938A037093C2
:1008E0008B0380938C0390938D0344E050E060E091
:1008F00070E083E292E00C94D326E0918E03F091B5
:100900008F03309721F00280F381E02D0994089540
:100910000F931F930E943E1E00919003109191032C
:100920002091920330919303601B710B820B930B08
:100930001F910F9108959C0180918E0390918F03D8
:100940008217930751F0909198039F7190939803A9
:1009500030938F0320938E0305C080919803805EAF
:1009600080939803E0918E03F0918F03309721F0EC
:100970000190F081E02D09950E943E1E6093900346
:1009800070939103809392039093930308950F9330
:100990001F930E948804209199032077203729F023
:1009A00000E117E220E030E004C000E61AEE20E0AB
:1009B00030E0061717072807390730F48FE191E078
:1009C0001F910F910C949B041F910F91089580919A
:1009D00099038F708B3020F084E191E00C949B049C
:1009E000089580919A038F3FA1F00E943E1E60936C
:1009F000940370939503809396039093970380914B
:100A00009A039091250289138093250280E191E059
:100A100013C00E948804613D77408105910570F004
:100A200080919803803618F48CE091E005C0877FB0
:100A30008093980384E191E00C949B040895809145
:100A400023028F3F19F08CE091E010C00E948804CF
:100A5000613D77408105910558F08091980380367B
:100A600018F488E091E002C08BE191E00C949B04C3
:100A700008950E948804613D77408105910520F426
:100A80008091980381FF0895809124028F3F41F067
:100A9000809198038E7F8093980388E091E009C04D
:100AA00080919803803618F484E191E002C08BE1D4
:100AB00091E00C949B041F920F920FB60F92112499
:100AC0000F900FBE0F901F9018958EBD00000DB4B3
:100AD00007FEFDCF8EB50895CF92DF92EF92FF9281
:100AE0000F931F93CF93DF937B01142F022F91E578
:100AF0009CBD91E09DBD2A98E3E2F0E03197F1F7CB
:100B00000E946505E7011123B1F0002359F08FEF32
:100B10000E946505E114F10411F41150F4CF8883AB
:100B20002196FBCF6E018FEFC81AD80A88810E94E8
:100B30006505E601F2CF2A9AE3E2F0E03197F1F79A
:100B4000DF91CF911F910F91FF90EF90DF90CF90A9
:100B5000089521E041E060E070E086E00E946C05CD
:100B6000853251F421E041E060E070E085E00E94D0
:100B70006C0591E08C3409F090E0892F0895CF93B3
:100B8000DF931F92CDB7DEB7698320E041E0BE015D
:100B90006F5F7F4F0E946C050F90DF91CF9108959A
:100BA00080919903982F9077903759F0982F9295CC
:100BB0009F709F5F97709295907F8F78892B80931D
:100BC0009903809198038B7F8F7E80939803299857
:100BD0006CE080E20C94BF056FE080E20E94BF05EC
:100BE000609123016F3F19F08AE20E94BF05299AA4
:100BF000089520E040E060E070E00C946C05EF9216
:100C0000FF921F93CF93DF937C01FC01C2818091FF
:100C1000980380FF04C0CF3F09F060C014C0C11129
:100C200003C0C09124020FC0CF3F69F08C2F90E029
:100C300003960E94E3268F3F29F480912402F70156
:100C400090819813C82F80912302F70180834381FC
:100C500042FD06C046954695469517E0140F01C023
:100C600010E2D0912602D170299883E092E001979A
:100C7000F1F76EE080E20E94BF058BE891E00197FA
:100C8000F1F76C2F8AE20E94BF056C2F80E30E946F
:100C9000BF0581EE0E94F905CF3F11F0DD2311F071
:100CA00080EB01C080EA412F113208F040E220E0E1
:100CB000B7010E946C05299A83E290E00197F1F751
:100CC0002998E12CF12C8FEF0E94F905182F8073E1
:100CD00039F4F1E0EF1AF108B1F702C080E023C067
:100CE00060E387E20E94BF0514FF03C081EE0E940B
:100CF000F9050E94EC0515FDD1E081E0CF3F09F038
:100D000080E08D2B90912402C9130DC0909199031E
:100D1000811106C021E0290F2F70907F922B01C016
:100D2000907F90939903DF91CF911F91FF90EF9067
:100D300008952091980322FD0C94FF0580E008950A
:100D40008FEF80939A03E8E9F3E0808188608083E5
:100D500028E143E06FEF80E00E94E40761E00E9439
:100D6000C5110C94FF05809123028F3FB1F40E94BE
:100D70003E1E6F3F19F060931A0102C010921A01D3
:100D800023E043E060911A0180E00E94E40765EBF4
:100D900071E00E94F7110C94FF050895E8E9F3E073
:100DA0008081897F81608083E3E2F2E08FEF82833C
:100DB000818327E043E06FEF0E94E40765EB71E079
:100DC0000E94F7110C94FF05CF93219A229A29983B
:100DD0002A9A0E94071B6EE080E20E94BF0565E030
:100DE00070E080E090E00E94041E63E083E20E94D5
:100DF000BF056FE584E20E94BF056CE485E20E94B6
:100E0000BF0565E286E20E94BF0563E780E50E94B8
:100E1000BF0564E08DE30E94BF050E94A9058823F9
:100E200009F447C062E082E20E94BF0560E081E20F
:100E30000E94BF0563E08CE30E94BF05CFEFC09323
:100E4000030120E045E063E071E08BE20E946C0565
:100E500020E045E063E071E08AE20E946C0520E05A
:100E600045E063E071E080E30E946C0582EE0E9441
:100E7000F90581EE0E94F90560E787E20E94BF054F
:100E800080919803806180939803809126028E7FE1
:100E900080932602809123028F3F71F09FEF980F7D
:100EA0009E3F28F40E943D1B811106C002C0C093E2
:100EB00023028BE191E002C084E191E0CF910C9498
:100EC0009B04CF92DF92EF92FF920F931F93CF93E9
:100ED000DF936C017A018B01C0E0D0E0CE15DF0515
:100EE00081F0D8016D918D01D601ED91FC910190B9
:100EF000F081E02DC6010995892B11F02196EECFE6
:100F00007E01C701DF91CF911F910F91FF90EF906C
:100F1000DF90CF90089587E292E00E94881B21E045
:100F2000892B09F420E0822F08950E947B29EF92FB
:100F3000FF920F931F93CF93DF93EC0181E0888F93
:100F40009B8D8C8D981305C0E889F989808185FD7A
:100F500026C0F62E0B8D10E00F5F1F4F0F73112769
:100F6000E02E8C8DE8120CC00FB607FCFACFE88992
:100F7000F989808185FFF5CFCE010E94371DF1CF21
:100F80008B8DFE01E80FF11DE35AFF4FF0829FB7F2
:100F9000F8940B8FEA89FB89808180620AC09FB731
:100FA000F894EE89FF896083E889F98980818370EC
:100FB000806480839FBF81E090E0DF91CF911F919B
:100FC0000F91FF90EF900895EBE2F3E090912302F0
:100FD000918382836683258384814770807E482B3A
:100FE0004483CF01089530912202313208F04BC082
:100FF0008091FF018111FCCF90916D0322E020933D
:10100000FF0121E02093FE012FEF2093FD011092BC
:10101000FC013093FB01E2E0F2E0ABEDB1E020E057
:10102000321721F041914D932F5FFACF1092DA01E0
:101030002091DA01990F922B9093DA019091D901C6
:10104000913061F41092D9019091DA019093BB0034
:101050009091BC0093FDF8CF95EC01C095EE909374
:10106000BC009091FF019230E1F39091FD019F3F10
:1010700079F08091FD01803241F08091FD01803353
:1010800031F084E005C081E003C082E001C083E06C
:101090001092010210922202109200020895682F0D
:1010A00084EC92E00C94511C91E0909300028093A8
:1010B0006D03109201021092220208959091FF0197
:1010C0009111FCCF982F813208F090E281E080935B
:1010D000FF018093FE012FEF2093FD011092FC0190
:1010E000290F2093FB018093DA018091DA01806D52
:1010F0008093DA018091D901813061F41092D90195
:101100008091DA018093BB008091BC0083FDF8CF11
:1011100085EC01C085EE8093BC008091FF01813099
:10112000E1F38091FC01891710F49091FC01EBED43
:10113000F1E0A9EBB1E080E0891721F021912D9336
:101140008F5FFACF1092B8018093B70108950F9383
:101150001F93CF93DF93D82F062F60E080910D036C
:101160000E947B1D1FEF1D0FC0911003C10FC850BF
:101170008D2F0E946505D93040F4E0910E03F09167
:101180000F03EC0FF11D808101C0802F0E946505C7
:101190001C1768F361E080910D03DF91CF911F91DF
:1011A0000F910C947B1D80915003829586958770DA
:1011B000813019F4809153030895811105C083E5AE
:1011C00093E00E944D25089580E00895CF93DF932A
:1011D000262F8F3F19F0C5EBD1E002C0CCE8D1E05B
:1011E00040E0682F80E00E94E407BE010E94F711F2
:1011F000DF91CF910C949906CF93DF93EC01892B6B
:1012000069F02BE043E06FEF80E00E94E407BE014D
:101210000E94F7110E949906C82F01C0C1E02CE07E
:1012200043E06FEF80E00E94E40762E971E00E9412
:10123000F7110E9499068C23DF91CF910895CF93E7
:10124000C8E060E08C2F0E94A708C150D1F7CF9171
:101250000895CF92DF92EF92FF92CF93DF93D82F32
:101260000E943E1E6B017C0181E0D11180E08093E1
:101270005103C0E00E943E1EDC01CB018C199D0988
:10128000AE09BF09803D9740A105B10590F4C11199
:1012900010C0A8950E947D040E94A5128091500361
:1012A0008770833039F7C1E0809151038D13E1CF0E
:1012B000E1CF8C2FDF91CF91FF90EF90DF90CF9017
:1012C0000895EF92FF920F931F93CF93DF93EC015A
:1012D000E62E08E010E0FF24F39461E08E2D8F21CC
:1012E00009F460E0CE010E943B1FFF0C0150110980
:1012F000A1F7F894E981FA81918188818095892309
:101300008183E981FA819281888180958923828312
:101310007894DF91CF911F910F91FF90EF900895F6
:10132000AF92BF92CF92DF92EF92FF920F931F93F3
:10133000CF93DF938B01BC0180911C0390911D031F
:101340000E94FA1E6EEB80911C0390911D030E9477
:101350006109E801680189E0C80ED11CA0901C0356
:10136000B0901D0388E0E82EF12C10E001E0C501EB
:101370000E94171F8111102B000F81E0E81AF1085D
:10138000B1F71993CC16DD0649F780911C039091B3
:101390001D030E946A1F91E0813009F090E0892FBF
:1013A000DF91CF911F910F91FF90EF90DF90CF9041
:1013B000BF90AF9008950F931F93CF93DF93CDB756
:1013C000DEB729970FB6F894DEBF0FBECDBF8C01F4
:1013D00080911C0390911D030E946A1F882309F1CC
:1013E000BE016F5F7F4FC8010E9490098823C9F03A
:1013F00068E0CE0101960E94E21E9985891311C012
:101400008D818F3361F020F48F3159F489E00CC065
:101410008F3519F08F3739F004C08BE005C08AE0B2
:1014200003C080E001C08CE029960FB6F894DEBFBF
:101430000FBECDBFDF91CF911F910F910895BF9245
:10144000CF92DF92EF92FF920F931F93CF93DF9390
:10145000EC016B018D85811105C0CE010E946A1FD0
:10146000811105C01B861D861C8680E05FC060EF71
:10147000CE010E94610901E0E12CB12C11E0CE0106
:101480000E94171FF82ECE010E94171F91E0F9123B
:1014900003C08130B1F434C02E2D30E0F8121BC0EF
:1014A0008B85181738F4FE01E20FF31F8381802328
:1014B00041F402C0811729F0F12C193058F41C872F
:1014C00009C0FE01EE0DF11D8381802B8383FF2473
:1014D000F39409C0B12EFE01E20FF31F9381802F18
:1014E0008095892383836F2DCE010E943B1F1F5F50
:1014F000000F11F4E39401E087E08E1508F0BFCFF0
:10150000113408F4AFCFBB86B11002C081E08D87E3
:101510008B81882309F4A6CFDE011396F6012B9662
:101520008D918193CA17DB07D9F781E0DF91CF91C5
:101530001F910F91FF90EF90DF90CF90BF90089593
:101540000F931F93CF93DF93CDB7DEB729970FB6D5
:10155000F894DEBF0FBECDBF8C0180911C0390912B
:101560001D030E946A1F882309F43FC0BE016F5FFC
:101570007F4FC8010E9490098823B9F168E0CE012D
:1015800001960E94E21E998589132FC02A8130E0BE
:10159000A901542F4427550F550F550F898128E075
:1015A000829FC00111249A01282B392BF8018081D8
:1015B0008031C9F4688570E08F81AB01481B510907
:1015C000CA019695982F8827979587950E94652838
:1015D000CB014097207F53E0220F331F5A95E1F74C
:1015E000820F931F04C0C90102C080E894EE2996BF
:1015F0000FB6F894DEBF0FBECDBFDF91CF911F9124
:101600000F9108951F93CF93DF93EC01E0911C039A
:10161000F0911D03138615861486DF011B96339601
:101620001E92AE17BF07E1F7BE0180911C03909197
:101630001D030E941F0A882381F0BE0180911C03B4
:1016400090911D030E941F0A182F882331F067E034
:10165000CE010E94E21E9F81891310E0812FDF914D
:10166000CF911F9108956115710579F0FB010190EB
:101670000020E9F73197AF01461B570BDC01ED91D4
:10168000FC910280F381E02D099480E090E00895C0
:101690008F929F92AF92BF92CF92DF92EF92FF9282
:1016A0000F931F93CF93DF93CDB7DEB7A1970FB6FC
:1016B000F894DEBF0FBECDBF6C01990FEE08FF0896
:1016C000F7FE2DC06DE283EF92E00E94311A8C018B
:1016D00022273327A9012C193D094E095F0919A2B8
:1016E000CE0181967C019AE0892E912CA12CB12CFF
:1016F000CA01B901A50194010E947928605DF70132
:1017000062937F01211531054105510589F7BF011C
:1017100083EF92E00E94330B800F911F1FC0A7013F
:10172000960119A28E010F5D1F4F8AE0C82ED12CA1
:10173000E12CF12CCA01B901A70196010E94792878
:10174000605DF80162938F01211531054105510556
:1017500089F7BF0183EF92E00E94330BA1960FB689
:10176000F894DEBF0FBECDBFDF91CF911F910F91D7
:10177000FF90EF90DF90CF90BF90AF909F908F90B1
:1017800008951F920F920FB60F9211242F933F933B
:101790004F935F936F937F938F939F93AF93BF9379
:1017A000EF93FF9387E292E00E94371DFF91EF9144
:1017B000BF91AF919F918F917F916F915F914F9169
:1017C0003F912F910F900FBE0F901F9018951F9271
:1017D0000F920FB60F9211242F938F939F93EF9335
:1017E000FF93E0913702F09138028081E0913D0251
:1017F000F0913E0282FD12C09081809140028F5F85
:101800008F7320914102821751F0E0914002F0E085
:10181000E95DFD4F958F8093400201C08081FF916B
:10182000EF919F918F912F910F900FBE0F901F906E
:101830001895CF92DF92EF92FF92CF93DF936B01D7
:101840007C010E943E1E88E60E94540882E090E0DF
:101850000E944F080E94F30781E090E00E945E081A
:1018600084EC92E00E94081CC82F88E60E9454086D
:1018700082E090E00E944F086C2F6F7B84EC92E036
:101880000E94511C0E94F307C701B6010E94CF209D
:10189000D091A803DE5488E60E94540886E090E0C8
:1018A0000E944F08CAE08D2F6C2F0E945928692F83
:1018B00020E1829F600D112484EC92E00E94511C73
:1018C0000E94F307C701B6010E94CF20D091A70361
:1018D00088E60E94540885E090E00E944F088D2F12
:1018E0006C2F0E945928692F20E1829F600D1124DE
:1018F00084EC92E00E94511C0E94F307C701B601DC
:101900000E94CF20D091A60388E60E94540884E06C
:1019100090E00E944F088D2F6C2F0E945928692F4C
:1019200020E1829F600D112484EC92E00E94511C02
:101930000E94F307C701B6010E94CF20D091A503F2
:1019400088E60E94540883E090E00E944F088D2FA3
:101950006C2F0E945928692F20E1829F600D11246D
:1019600084EC92E00E94511C0E94F307C701B6016B
:101970000E94CF20D091A40388E60E94540882E000
:1019800090E00E944F080E94F30781E090E00E94DF
:101990005E0884EC92E00E94081C86FF18C0DD30CF
:1019A00060F084EF8D0F6C2F0E945928C92F20E121
:1019B000829FC00D1124C06614C08D2F6C2F0E9411
:1019C0005928C92F20E1829FC00D11240AC08D2FF4
:1019D0006C2F0E945928C92F20E1829FC00D11242D
:1019E000CF7B88E60E94540882E090E00E944F0876
:1019F0006C2F84EC92E00E94511C0E94F307C701F7
:101A0000B6010E94CF20D091A30388E60E9454081B
:101A100081E090E00E944F08CAE08D2F6C2F0E9459
:101A20005928692F20E1829F600D112484EC92E0F7
:101A30000E94511C0E94F307C701B6010E94CF20EB
:101A4000D091A20388E60E94540880E090E00E94B2
:101A50004F088D2F6C2F0E945928692F20E1829FFB
:101A6000600D112484EC92E00E94511C0E94F30747
:101A700088E60E9454088FE090E00E944F080E9480
:101A8000F30781E090E00E945E0884EC92E00E94FF
:101A9000081CC82F88E60E9454088FE090E00E943E
:101AA0004F086C2F6F7784EC92E00E94511CDF91FD
:101AB000CF91FF90EF90DF90CF900C94F30764E20A
:101AC00080E00E94E60886E991E00E94FC0880918F
:101AD0001A0390E090937F0380937E03019741F473
:101AE00080EA91E00E94FC0866E081E00C94E60840
:101AF00008958F929F92AF92BF92CF92DF92EF9212
:101B0000FF924B015C010E943E1E6B017C010E9412
:101B10003E1EDC01CB018C199D09AE09BF09881559
:101B20009905AA05BB0530F4A8950E947D040E9482
:101B3000A512EDCFFF90EF90DF90CF90BF90AF90C8
:101B40009F908F9008955F926F927F928F929F9255
:101B5000AF92BF92CF92DF92EF92FF920F931F93BB
:101B6000CF93DF93CDB7DEB728970FB6F894DEBFDB
:101B70000FBECDBF88E60E94540880E090E00E942E
:101B80004F080E94F30787E090E00E945E0884EC13
:101B900092E00E94081C8F77982F92959F701AEF01
:101BA000582E919F500C112484EC92E00E94081C46
:101BB0009C01332764E0359527956A95E1F7082F56
:101BC000129F000D112484EC92E00E94081C9C01DD
:101BD000332774E0359527957A95E1F7482F129FC2
:101BE000400D1124142F84EC92E00E94081C84EC18
:101BF00092E00E94081C84EC92E00E94081C84EC95
:101C000092E00E94081C212F30E03093890320933A
:101C10008803802F90E09093870380938603E52CC0
:101C2000F12CF0928503E0928403809182039091DD
:101C300083032817390709F4DAC060E070E083EF06
:101C400092E00E94261D0E941F0964E670E080E079
:101C500090E00E94790D61E070E083EF92E00E94D5
:101C6000261D0E941F0964E670E080E090E00E945B
:101C7000790D60E070E083EF92E00E94261D0E94E3
:101C80001F0964E670E080E090E00E94790D61E059
:101C900070E083EF92E00E94261D0E941F0964E617
:101CA00070E080E090E00E94790D60E08AE00E94A0
:101CB000A70860E070E083EF92E00E94261D08EF25
:101CC0001FEF33E0632E712C49E0C42ED12C52E17A
:101CD000A52EB12C480188E0880E911C60E070E0D0
:101CE00083EF92E00E94261D8091880390918903E2
:101CF0008A3091052CF4D0920003C092FF0204C0F8
:101D0000709200036092FF0210930203009301039C
:101D10000E94480B80918803909189030A974CF4A4
:101D2000D0920003C092FF021093020300930103BC
:101D300008C0709200036092FF02909202038092AA
:101D4000010380918203909183030E94480BB0921B
:101D50000003A092FF0210930203009301038091FD
:101D60008603909187030A9734F464E971E083EF66
:101D700092E00E94330B80918603909187030E942A
:101D8000480BB0920003A092FF029092020380924F
:101D9000010380918603909187030A9734F464E9E4
:101DA00071E083EF92E00E94330B80918003909169
:101DB00081030E94480B0E941F0968E270E080E0E6
:101DC00090E00E94790D0F5F1F4F09F083CF809143
:101DD0008803909189039093830380938203809179
:101DE00086039091870390938103809380032091D1
:101DF0008603309187038091800390918103281797
:101E0000390709F422C100E010E083E0A82EB12CCC
:101E100099E0892E912C22E1C22ED12C60E070E055
:101E200083EF92E00E94261D8091880390918903A0
:101E30008A3091052CF4909200038092FF0204C036
:101E4000B0920003A092FF021092020310920103CD
:101E50000E94480BD0920003C092FF02C80108976D
:101E600090930203809301038091860390918703EE
:101E70000A9734F464E971E083EF92E00E94330B37
:101E800080918603909187030E94480BD0920003B3
:101E9000C092FF0210930203009301038091860316
:101EA000909187030A9734F464E971E083EF92E03C
:101EB0000E94330B80918003909181030E94480B14
:101EC0000E941F0968E270E080E090E00E94790DB6
:101ED0000F5F1F4F0830110509F0A0CF80918603D6
:101EE00090918703909381038093800380917E0378
:101EF00090917F03019709F0A8C0809118019091FB
:101F000019018A3091050CF49BC080919F038823AE
:101F100001F1CE0101960E94020B811105C060E023
:101F200070E08EEF92EC3AC0CE0101960E94A00ABA
:101F3000813824EE92079CF3BC01990F880B990B12
:101F40000E94B62520E030E040E05CE30E941526C8
:101F500025C0CE0101960E94020B811105C06AE9DD
:101F600079E984E493EC1AC0CE0101960E94A00A9C
:101F7000813844EE94079CF3BC01990F880B990BB0
:101F80000E94B62526E636E646E65CE30E94152664
:101F900020E030E040E052E40E94452720E030E0BD
:101FA00040E251E40E9415260E942328072E000CCF
:101FB000880B990B0E94B62520E030E040E251E406
:101FC0000E94B1274B015C0120E030E04EEF52EC63
:101FD0000E94AF25882379F120E030E04AEA52E4FC
:101FE000C501B4010E94AF25882329F191E09093A7
:101FF000D6028091D302877088628093D302809149
:10200000D4028092D7029092D802A092D902B092C4
:10201000DA029093DB02909123029093D1028071B7
:10202000816E8093D4028091A00380FF04C080ED74
:1020300092E00E949906109219011092180105C0B1
:102040000196909319018093180120918403309197
:10205000850380917C0390917D032817390709F44B
:1020600055C060E070E083EF92E00E94261D8091F1
:102070008803909189038A3091051CF429E030E0AF
:1020800002C023E030E0309300032093FF0210925F
:102090000203109201030E94480B82E190E09093AA
:1020A00000038093FF0210920203109201038091BB
:1020B0008603909187030A9734F464E971E083EF13
:1020C00092E00E94330B80918603909187030E94D7
:1020D000480B8DE1851540F021E030E047E050E00D
:1020E000B7016F5F7F4F08C06CE370E06E197F0926
:1020F00021E030E047E050E083EF92E00E94801C56
:102100000E941F09F0927D03E0927C0328960FB68F
:10211000F894DEBF0FBECDBFDF91CF911F910F911D
:10212000FF90EF90DF90CF90BF90AF909F908F90F7
:102130007F906F905F900895CF932FE043E06FEF13
:1021400080E00E94E40765EB71E00E94F711EBE28A
:10215000F3E0838187708061838384818F71806CD9
:10216000848381E087831086CF010E9499068FE0E7
:102170000E94290962E18FEF0E94E608C0912402C3
:1021800026E043E06FEF80E00E94E4076C2F0E949E
:10219000C5110E94990686E00E942909CF910C94EE
:1021A0005F0D0F931F93CF93DF93CDB7DEB72897C3
:1021B0000FB6F894DEBF0FBECDBF1092B8011092DB
:1021C000B70110920102109222021092FF0111E059
:1021D0001093FE011092D90161E082E10E947B1D03
:1021E00061E083E10E947B1D8091B9008E7F809326
:1021F000B9008091B9008D7F8093B90088E4809305
:10220000B80085E48093BC0086EF9BE19093AA031D
:102210008093A90387EF9BE19093AC038093AB037A
:1022200060E08AE00E94A708E0911403F091150392
:102230001083E0911403F09115031183E0911403CE
:10224000F09115031283E0911403F09115031383A9
:1022500060E070E083EF92E00E94261D0E941F095B
:10226000E0911C03F0911D03138615861486DF018F
:102270001B9633961E92EA17FB07E1F710921A039A
:1022800010921B0301E0BE016F5F7F4F80911C0322
:1022900090911D030E941F0A882309F46BC067E018
:1022A000CE0101960E94E21E98858913ECCF8091A1
:1022B0001603811125C080911C0390911D030E947B
:1022C0006A1FBE016F5F7F4F80911C0390911D03B9
:1022D0000E94FA1E64EB80911C0390911D030E94E2
:1022E000610980911C0390911D030E94171F182FF4
:1022F00080911C0390911D030E946A1F112371F1AC
:10230000109117038981803191F1CE0101960E94CD
:10231000DB09811718F48091170309C08981803186
:1023200011F48CE004C0CE0101960E94DB09809379
:10233000170380911A038F5F80931A038981883273
:1023400081F030F4803169F0823209F09CCF09C00D
:102350008B3339F0823409F096CF03C00093160313
:10236000CFCF80911B038F5F80931B038CCF1D30D9
:1023700090F6D7CF28960FB6F894DEBF0FBECDBF2C
:10238000DF91CF911F910F910895FC018381877098
:102390008860838384818F71806284836783CF01A7
:1023A0000895CF938091A00381FD1FC00E949C10CF
:1023B0008091A00381608093A003C4E02AE143E000
:1023C0006FEF80E00E94E40762E00E94C5110E9466
:1023D00099068BE10E942909811102C0C15071F751
:1023E0008091A00382608093A003CF9108950F9302
:1023F0001F93CF93DF93EC016115710561F0FB0131
:1024000001900020E9F73197E61BF70BE931F10560
:1024100018F0E9E101C0E0E00E2F10E08B81282FD9
:102420002770C80133E0880F991F3A95E1F7822B96
:102430008B838C818F718C83EE2329F0A801CE01D0
:1024400007960E949729FE01E00FF11F1782CE0127
:10245000DF91CF911F910F910895CF92DF92EF926C
:10246000FF920F931F93CF93DF9360E08AE00E9467
:10247000A708C12CD12CC091FB02D091FC0221975E
:10248000CC16DD061CF560E070E083EF92E00E9460
:10249000261D0091FD021091FE0201501109EE244B
:1024A000E394F12C960140E050E0B60183EF92E016
:1024B0000E94F1150E941F0962E370E080E090E045
:1024C0000E94790D8FEFC81AD80AD5CF60E070E06E
:1024D00083EF92E01C161D06ECF40E94261D00916D
:1024E000FD021091FE0201501109EE24E394F12C3B
:1024F0009E0140E050E0BE0183EF92E00E94F115A2
:102500000E941F0969E170E080E090E00E94790D6F
:102510002197DCCF0E94261D0E941F0921E043E085
:102520006FEF80E00E94E40765EB71E00E94F71115
:102530000E94990610921803DF91CF911F910F917D
:10254000FF90EF90DF90CF9008958F929F92AF927F
:10255000BF92CF92DF92EF92FF920F931F93CF9390
:10256000DF938091980384FBCC24C0F884FFB8C229
:102570000E943E1E00918A0310918B0320918C03D0
:1025800030918D03DC01CB01801B910BA20BB30BAF
:10259000813A9B4BAD40B10590F00E943E1E609386
:1025A0008A0370938B0380938C0390938D030E9416
:1025B000A905811104C08BE191E00E949B0486E093
:1025C000D82EE12CFF24FA9421E041E060E070E095
:1025D00087E10E946C0580FD83C2DA94DD2009F456
:1025E0007FC221E041E060E070E080E60E946C057F
:1025F000C82F813220F082EE0E94F905C0E021E070
:102600004C2F6CE473E081E60E946C0560E487E285
:102610000E94BF0580914F03182F169516951695A9
:102620001A3108F019E182FD03C097E0910F01C053
:1026300090E29C13C9CF8370823031F60091500331
:10264000C0915103D0914D03A0904C03B0904E0324
:1026500080912402A81651F080912302D81731F0FE
:102660008D2F90E06A2D03960E94FB2607708091C3
:10267000990380688093990380912302B8123DC02A
:1026800020914F03822F8695869586958A3108F092
:1026900089E138E0839FC00111242770822B809349
:1026A0004F03E12FF0E0E45BFC4F17828091500371
:1026B00083FF15C091E2ECE4F3E0ABE2B3E00190FC
:1026C0000D929A95E1F7877F806180932F03B092F6
:1026D0002C03D0932D038BE293E00E9499069091F6
:1026E000500394FD27C0033029F58091510321EF59
:1026F000280F233008F07AC067CF2FEFB21260C0E6
:102700000330E9F080912402A8125ECF8091230269
:10271000D81709F4E1C18091980382FFDDC18CE4F0
:1027200093E00E94FF05033009F44ECF809124020C
:10273000A8124ACF8CE493E00E946E0345CF8091AB
:10274000980382FF1EC0C730E1F480912402D8179D
:1027500009F43ACF0E943E1E009194031091950314
:102760002091960330919703DC01CB01801B910BE4
:10277000A20BB30B80319742A105B10508F48DC1BE
:1027800032C1C83009F420CFC43109F0BBCF8091E9
:102790002402A812B7CF0E943E1E73708827992783
:1027A0000E94041EC091240225E143E06FEF8D2FAB
:1027B0000E94E4076C2F0E94C5110E94FF05A2CF62
:1027C0008091980382FF00CF033069F4C851C23072
:1027D00050F40E94D3088E3F31F061E0680F8CE422
:1027E00093E00E94C5118CE493E073C1C430B1F44E
:1027F0008091520390911A01891719F08F3F09F0C7
:10280000E3CE0E94D3089FEF980F9E3F18F40E94DA
:102810003D1BDACE8FEF80932302D6CEC830C9F4A9
:10282000C0919803C0FFD0CE0E94D3088F3F09F417
:10283000CBCE8F5F8F3F09F4C7CE909125028917C9
:1028400008F0C2CEC1FDC0CE80932502D0932402F1
:10285000BBCEC83141F429E143E06FEF8D2F0E94D8
:10286000E40761E034C1C93161F48091980383FFCA
:10287000ABCE877F809398030E94D30880939A03FE
:10288000A3CE20914D03211192C08D3059F498E0D0
:1028900088E10FB6F894A895809360000FBE9093DE
:1028A0006000FFCF8B3169F40E94D30891E0811161
:1028B00001C090E08091A00390FB80F98093A00379
:1028C00083CE8630A9F490915303992329F081E0B7
:1028D0009D3419F080E001C08C2D80939F0341E06E
:1028E00050E063E071E08FE993E00E94EB266CCE4C
:1028F000833119F40E949C1067CE8231C9F40E9482
:1029000088044B015C0126E143E06FEF80E00E9408
:10291000E407FC0184818F71806A848383818770DE
:102920008062838387829086A186B286CF0139C078
:102930008130D9F4929596959770953049F46091CD
:1029400053037091540380915503909156030AC02C
:10295000911105C083E593E00E946B2503C060E000
:1029600070E0CB010E94190C2FCE8A30E9F48091DF
:102970005303833409F028CEC3E0D0E06FEFCE01DB
:102980000E94FB262196C33081E0D807B9F72AE0E0
:1029900043E06FEF80E00E94E40760EB71E00E948B
:1029A000F7110E94990610CE8C3121F40DCE8A3198
:1029B00009F40ACECE3109F407CECD3109F0BACEF2
:1029C0002FE143E06FEF80E00E94E407FC01848187
:1029D0008F71806484838381877080618383F086B4
:1029E000E782CF0176C08091980383FDEDCD909171
:1029F0002302911103C010929A0326C0886080932D
:102A00009803B0929A0328E143E06FEF80E00E94C0
:102A1000E40761E00E94C5110E94FF050E943E1E6E
:102A20004B015C0110925103C0E00E943E1EDC018C
:102A3000CB0188199909AA09BB09803D9740A105D6
:102A4000B10510F4CC23D9F080919803877F80934F
:102A50009803C0919A03CF3F09F4B6CD0E943E1E61
:102A600060939403709395038093960390939703D8
:102A7000809125028C1789F0C09325020EC00E9418
:102A8000A512A895809150038770833071F6C1E03C
:102A900080915103893141F6C8CF0E943E1E609358
:102AA00094037093950380939603909397030E94E9
:102AB0003E1E7370882799270E94041EC09125022C
:102AC00028E043E06FEF8D2F0E94E4076C2F0E94F7
:102AD000C5110E94FF0578CD033009F02BCE74CDCF
:102AE000DF91CF911F910F91FF90EF90DF90CF90EA
:102AF000BF90AF909F908F900895FC016370658B9D
:102B00008481958126813781613039F0633029F0E5
:102B1000918780873387228708953187208793871D
:102B2000828708956F927F928F929F92AF92BF9209
:102B3000CF92DF92EF92FF920F931F93CF93DF9389
:102B4000EC014B015A0169013801E881F9810284E5
:102B5000F385E02D0995E881F9810288F389E02D5C
:102B600087019601A501B401CE010995A501460D85
:102B7000571D41505109E881F9810288F389E02D00
:102B80009601B401CE010995E881F9810088F189A7
:102B9000E02D9301A501B401CE010995C80CD91C03
:102BA000B60161507109E881F9810088F189E02D51
:102BB0009301A501CE010995E881F9810688F7897D
:102BC000E02DCE01DF91CF911F910F91FF90EF90FB
:102BD000DF90CF90BF90AF909F908F907F906F903D
:102BE00009948F929F92AF92BF92CF92DF92EF9211
:102BF000FF920F931F93CF93DF934C016B015A0108
:102C0000E901DC01ED91FC916217730781F404176F
:102C1000150724F48B2D5801042F182F0A191B09AE
:102C200098012F5F3F4F048CF58DE02D12C04017A7
:102C3000510709F52617370724F48D2D6901C62F92
:102C4000D82F9E012C193D092F5F3F4F068CF78D21
:102C5000E02D8701A501B601C4010995DF91CF914F
:102C60001F910F91FF90EF90DF90CF90BF90AF90AA
:102C70009F908F9008950284F385E02D0995D401EB
:102C8000ED91FC910488F589E02D9E01A501B60126
:102C9000C4010995D401ED91FC910688F789E02DD6
:102CA000C401DF91CF911F910F91FF90EF90DF90C2
:102CB000CF90BF90AF909F908F900994EF92FF922A
:102CC0000F931F93DC011A960D911C911B97189678
:102CD0002D913C911997ED91FC9100A0F1A1E02D6F
:102CE0007B0140E050E060E070E009951F910F919A
:102CF000FF90EF9008954F925F926F927F928F9224
:102D00009F92AF92BF92CF92DF92EF92FF920F937A
:102D10001F93CF93DF936C012B015A0139014801B6
:102D2000DC01ED91FC910284F385E02D0995E2012F
:102D3000640C751CD601ED91FC91C615D7055CF4A9
:102D40000088F189E02D87019401A501BE01C6012B
:102D500009952196EFCF0688F789E02DC601DF910E
:102D6000CF911F910F91FF90EF90DF90CF90BF9088
:102D7000AF909F908F907F906F905F904F9009944D
:102D80008F929F92AF92BF92CF92DF92EF92FF927B
:102D90000F931F93CF93DF93EC015B014A0169010D
:102DA000E881F9810284F385E02D099595012C0DC8
:102DB0003D1D21503109E881F9810488F589E02D14
:102DC00078018401A401B501CE010995E881F9815A
:102DD0000688F789E02DCE01DF91CF911F910F91E9
:102DE000FF90EF90DF90CF90BF90AF909F908F902B
:102DF00009948F929F92AF92BF92CF92DF92EF92FF
:102E0000FF920F931F93CF93DF93EC015B014A0175
:102E100069017801E881F9810284F385E02D099543
:102E2000C80CD91C860101501109E881F981048878
:102E3000F589E02D9501A401B501CE010995E88140
:102E4000F9810688F789E02DCE01DF91CF911F919E
:102E50000F91FF90EF90DF90CF90BF90AF909F9039
:102E60008F900994EF92FF920F931F93DC01ED91E5
:102E7000FC9100A0F1A1E02D09951F910F91FF9009
:102E8000EF9008950F931F93DC01ED91FC91068C58
:102E9000F78DE02D09951F910F9108950F931F93C2
:102EA000DC01ED91FC91048CF58DE02D09951F91CD
:102EB0000F910895DC01ED91FC910084F185E02DE6
:102EC00009942F923F924F925F926F927F928F92CE
:102ED0009F92AF92BF92CF92DF92EF92FF920F93A9
:102EE0001F93CF93DF9300D000D000D0CDB7DEB7D3
:102EF0002C017E836D836A015901C801FC82EB823B
:102F00004801841A950A97FE03C091948194910810
:102F100035012D813E81621A730A77FE03C07194D8
:102F200061947108681479045CF43A2D2B2D5C01CE
:102F3000832F922F3D812E81DE82CD82C32ED22E11
:102F4000AD81BE81AA16BB065CF43C2D2D2D6C0113
:102F5000832F922F3D812E81BE82AD82A32EB22E71
:102F600085012D813E81021B130B1C012C183D088D
:102F700037FE03C0319421943108780117FF03C054
:102F80003FEFE31AF30AF594E794C816D9062CF03C
:102F90008FEF9FEF9A83898304C0A1E0B0E0BA83EA
:102FA000A9832D813E81A216B30624F1D201ED91B1
:102FB000FC910484F585E02D2B813C816814790413
:102FC00024F44D815E81B60103C0A6016D817E812E
:102FD000C2010995E218F308F7FE06C029813A817B
:102FE000C20ED31EE00EF11E8D819E8101969E833E
:102FF0008D83D7CF26960FB6F894DEBF0FBECDBF18
:10300000DF91CF911F910F91FF90EF90DF90CF90C4
:10301000BF90AF909F908F907F906F905F904F90F8
:103020003F902F900895089580E090E008952F92AA
:103030003F924F925F926F927F928F929F92AF9248
:10304000BF92CF92DF92EF92FF920F931F93CF9395
:10305000DF93CDB7DEB76B970FB6F894DEBF0FBE28
:10306000CDBF9B8F8A8F5B011A01D22E1F830E83E7
:103070003701C982DC0158962D913C915997211551
:10308000310509F0E6C018968D919C911997681743
:1030900079070CF0CDC11A968D919C911B9748171A
:1030A00059070CF0C5C18C2C912CFB0126E0C29E67
:1030B000E00DF11D1124FB87EA871E161F060CF098
:1030C000B7C1A40183E0440F551F8A95E1F75D87DE
:1030D0004C87CA01820D931D181619060CF0A8C161
:1030E00057968C91811104C05FEA5D1508F4D39462
:1030F000AA8DBB8DED91FC9111970284F385E02D93
:10310000CD010995B5E0DB9EC0011124F50135968E
:10311000FF87EE87BB82AA8225019C012A193B0901
:10312000398B288BA101485F5F4F5B8B4A8BE88905
:10313000F989E40DF51DE65EFE4F54915887610153
:103140003D822C82888580FF13C0AA8DBB8DED91B6
:10315000FC91B981B13031F40484F585E02D2E81E4
:103160003F8116C00684F785E02DEE80FF801AC0EF
:10317000EE81FF81E615F705F1F0AA8DBB8DED918B
:10318000FC91B981B13051F40484F585E02D9301AF
:10319000A601B2018A8D9B8D09950DC00684F78525
:1031A000E02D7301840194014C815D816A817B81F2
:1031B0008A8D9B8D0995E885E695E887FFEFCF1A04
:1031C000DF0A2C813D81280D391D3D832C834A89DE
:1031D0005B89C416D50609F0B5CF5FEF451A550ACD
:1031E0008A819B81880D991D9B838A83AE85BF85CB
:1031F0004A165B0609F09BCFEE81FF81E615F705C5
:1032000009F4F4C0EA8DFB8DA081B181F981F13020
:1032100079F4B5016B5F7F4F5096ED91FC9151971A
:10322000830128E030E0A1018A8D9B8D0995DEC0E5
:103230006A857B85681979091E96ED91FC911F9727
:1032400073010C851D859401A1018A8D9B8D0995C3
:10325000CDC0F9013496E491DE1AF90132968591D8
:103260009491B7E0DB9E800D911D1124F901259109
:1032700034913B8B2A8BFC01259134912901FC016F
:103280003296C490319634913E873296149131969D
:10329000D4904981423058F0612E012E000C7708FD
:1032A0008D2D0D2C000C990B9987888704C01986E9
:1032B0001886612C712CAA8DBB8DED91FC91119714
:1032C0000284F385E02DCD010995B9818B2E912CD7
:1032D000689CC001699C900D789C900D1124FC01A4
:1032E000EA0DFB1DFD87EC871A82712C612CE12F02
:1032F000110FFF0B95012E0F3F1F3B872A87AC0C48
:10330000B11CA5014E0F5F1F5F8B4E8BC1018D0D50
:10331000911DD7FC9A95998F888F9E85691608F024
:1033200065C0862D90E048855985480F591F489DF6
:103330009001499D300D589D300D1124D101A20FEF
:10334000B31FB98BA88BEC85FD85FD83EC83AA8424
:10335000BB84DA80FA85DF1A288D398D280F391F52
:103360003D8B2C8B8D2D8A0D4E895F89A416B50659
:10337000C1F1877041F4C2010196EA89FB89E40D2D
:10338000F51D74902C0177FE21C0AA8DBB8DED91A7
:10339000FC91B981B13061F40484F585E02D2E8172
:1033A0003F814C895D89B5018A8D9B8D09950EC041
:1033B0000684F785E02DEE80FF8084019401488922
:1033C00059896C817D818A8D9B8D0995770CEFEFF2
:1033D000AE1ABE0A2C813D81280D391D3D832C83F8
:1033E000C1CF3A813C0D3A83639497CFAA8DBB8DB0
:1033F000ED91FC9111970688F789E02DCD016B9630
:103400000FB6F894DEBF0FBECDBFDF91CF911F91F5
:103410000F91FF90EF90DF90CF90BF90AF909F9073
:103420008F907F906F905F904F903F902F90099476
:103430006B960FB6F894DEBF0FBECDBFDF91CF9174
:103440001F910F91FF90EF90DF90CF90BF90AF90C2
:103450009F908F907F906F905F904F903F902F90B4
:103460000895AF92BF92CF92EF92FF920F931F9366
:10347000CF93DF93EC01262F888D998D009709F06B
:1034800040C06A3059F41D861C862C898E859F8524
:1034900038E0239F800D911D112441C06D3009F447
:1034A000AAC08E898823C1F03C898C859D8546E021
:1034B000349F800D911D112448855985481759075F
:1034C0005CF41D861C868E859F8548E0349F800DA8
:1034D000911D11249F878E87EA88FB8808891989A6
:1034E0004E855F856C857D85CC88CE010E9417183E
:1034F0002C898C859D8536E0239F800D911D11249C
:1035000042C06A3079F41D861C862C89FC013696EF
:10351000E4918E859F852E9F800D911D11249F879C
:103520008E8769C06D3009F466C0FC013496349111
:10353000631708F460C03196E491E61708F45BC0A5
:10354000FC01329665917491422F50E0431B510962
:1035500037E0349F5001359FB00C1124A60EB71EE2
:10356000F501329634913196E491332311F0E11153
:103570000DC0F5013496E4912C898C859D85E29FE0
:10358000800D911D11249D878C8735C0F5013596DE
:1035900044915E89552311F16C89E32FF0E0E40F2B
:1035A000F11D47FDFA956E9FD0016F9FB00D11245C
:1035B0004C855D854A0F5B1FE885F985E417F507A3
:1035C0006CF41D861C86FC013696E4918E859F85E1
:1035D0006E9F800D911D11249F878E87EA88FB883E
:1035E000088919894E855F856C857D85CC88CE01DB
:1035F0000E941718BECF81E090E0DF91CF911F911C
:103600000F91FF90EF90CF90BF90AF900895CF9320
:10361000CFB7F8948091A103811127C0ECE7F0E0C7
:103620008491E0E9F0E09491E82FF0E0EE0FFF1FC5
:10363000E65CF94FA591B491EC91E92321F461E0A6
:103640008AE00E947B1D61E08AE00E94C81D8CB563
:1036500080618CBD8CB580648CBD61E08DE00E9482
:10366000C81D61E08BE00E94C81D8091A1038F5F9F
:103670008093A103CFBFCF910895CF93C82F80939C
:1036800023028F3F51F08093230163E082E20E9486
:10369000BF0561E081E20E94BF050E94EC056C2F2E
:1036A00080E090E00E94FB2681E0CF910895FC012C
:1036B000538D448D252F30E0842F90E0821B930B97
:1036C000541710F0CF96089501970895FC01918D3D
:1036D000828D981761F0828DDF01A80FB11D5D9674
:1036E0008C91928D9F5F9F73928F90E008958FEFE2
:1036F0009FEF0895FC01918D828D981731F0828D96
:10370000E80FF11D858D90E008958FEF9FEF0895EC
:10371000FC01918D228D892F90E0805C9F4F821B50
:1037200091098F739927089580E090E0892B29F003
:103730000E948B0781110C94000008953FB7F89404
:103740008091F9039091FA03A091FB03B091FC03DF
:1037500026B5A89B05C02F3F19F00196A11DB11DEC
:103760003FBFBA2FA92F982F8827820F911DA11D27
:10377000B11DBC01CD0142E0660F771F881F991F64
:103780004A95D1F70895089585ED8093BC00809106
:10379000BC0084FDFCCF1092FF0108954091D1033D
:1037A000262F30E0240F311D21323105DCF4209129
:1037B000FF012430C9F4FC0180E090E0861758F442
:1037C0003091D1032191DC01AF54BC4FA30FB11D47
:1037D0002C930196F3CF8091D103680F6093D103AE
:1037E00080E0089581E0089582E0089508950895A5
:1037F0000895E091B8018091B701E81730F4F0E046
:10380000E754FE4F808190E008958FEF9FEF089579
:103810009091B8018091B701981750F4E92FF0E02A
:10382000E754FE4F208130E09F5F9093B80102C0C3
:103830002FEF3FEFC90108958091B70190E02091EB
:10384000B801821B91090895CF92DF92EF92FF9207
:103850000F931F93CF93DF937C01CB018A012091BB
:103860000002222389F0EB016B01C40ED51ECC159A
:10387000DD0569F06991D701ED91FC910190F0812E
:10388000E02DC7010995F3CF642F0E94CE1BC8011C
:10389000DF91CF911F910F91FF90EF90DF90CF902C
:1038A0000895CF93DF931F92CDB7DEB76983209140
:1038B00000022223D1F020912202203240F021E0A8
:1038C00030E0FC013383228380E090E015C08091DA
:1038D0000102E82FF0E0EE5FFD4F998190838F5F4A
:1038E000809301028093220205C061E0CE0101961F
:1038F0000E94CE1B81E090E00F90DF91CF91089560
:10390000CF92DF92EF92FF920F931F93CF93DF93AB
:10391000FC016901342F8589882391F0823020F0E1
:1039200090859150961B692F9FEF980F923018F455
:1039300032853150341B80FF03C0862F632F382F10
:1039400067FD7AC0862F062E000C990BC481D581A5
:103950008C179D070CF070C0032F10E04681578133
:10396000041715070CF068C0568D23E015950795D0
:103970002A95E1F7509F7001519FF00C11248C01A2
:1039800043E0159507954A95E1F7878D90A18E0D37
:103990009F1D800F911FDC012C91462F47703770BF
:1039A00081A192A1820F911DDC018C91823018F0CF
:1039B00097E0941B492F9FEF980F923018F497E0EF
:1039C000931B392F80FF03C0842F432F382F822F62
:1039D000652F0E945928589F20191124B8E02B9F69
:1039E000400D112498E0899F300D1124632F70E061
:1039F00083E0759567958A95E1F76C9FC0016D9F8F
:103A0000900D7C9F900D1124840F911D47FD9A9578
:103A1000038CF48DE02DE80FF91F377081E090E002
:103A200001C0880F3A95EAF72081CD2811F0822B4A
:103A300002C0809582238083DF91CF911F910F91E7
:103A4000FF90EF90DF90CF9008950895FC01458D91
:103A500050E0672B19F460E070E002C06FEF70E097
:103A6000FC01838D948D0C9489290C947D15FC01A7
:103A7000848DDF01A80FB11DA35ABF4F2C91848DF7
:103A800090E001968F739927848FA689B7892C932C
:103A9000A089B1898C91837080648C93938D848D7F
:103AA000981306C00288F389E02D80818F7D808382
:103AB0000895CF93DF93EC01888D8823C9F0EA89BC
:103AC000FB89808185FD05C0A889B9898C9186FD17
:103AD0000FC00FB607FCF5CF808185FFF2CFA88914
:103AE000B9898C9185FFEDCFCE010E94371DE7CFBC
:103AF000DF91CF91089590E0FC01E25BF94F2491B2
:103B0000FC01EA57FF4F3491FC01EE58FF4FE4915E
:103B1000EE2309F43CC0222339F1233091F038F42C
:103B20002130A9F0223001F584B58F7D12C02730F5
:103B300091F02830A1F02430B9F4809180008F7D7D
:103B400003C0809180008F77809380000DC084B582
:103B50008F7784BD09C08091B0008F7703C08091BA
:103B6000B0008F7D8093B000F0E0EE0FFF1FEC5BA4
:103B7000F94FA591B4919FB7F894611104C08C914D
:103B80003095382302C0EC913E2B3C939FBF0895A3
:103B9000CF93DF9390E0FC01EA57FF4F2491FC01A3
:103BA000EE58FF4F8491882361F190E0880F991FB0
:103BB000FC01E65CF94FC591D491FC01EC5BF94F37
:103BC000A591B491611109C09FB7F894888120959F
:103BD00082238883EC912E230BC0623061F49FB75F
:103BE000F8948881322F309583238883EC912E2B93
:103BF0002C939FBF06C08FB7F894E8812E2B2883A3
:103C00008FBFDF91CF9108958F929F92AF92BF9215
:103C1000CF92DF92EF92FF926B017C010E949E1B7C
:103C20004B015C01C114D104E104F104F1F00E94E4
:103C30009E1BDC01CB0188199909AA09BB09883EA2
:103C40009340A105B10570F321E0C21AD108E10843
:103C5000F10888EE880E83E0981EA11CB11CC114E7
:103C6000D104E104F10419F7DDCFFF90EF90DF906C
:103C7000CF90BF90AF909F908F9008952FB7F894FA
:103C80006091F5037091F6038091F7039091F8032A
:103C90002FBF08951F920F920FB60F9211242F93EA
:103CA0003F938F939F93AF93BF938091F503909130
:103CB000F603A091F703B091F8033091F40323E0E9
:103CC000230F2D3720F40196A11DB11D05C026E854
:103CD000230F0296A11DB11D2093F4038093F503D9
:103CE0009093F603A093F703B093F8038091F90340
:103CF0009091FA03A091FB03B091FC030196A11DE2
:103D0000B11D8093F9039093FA03A093FB03B09342
:103D1000FC03BF91AF919F918F913F912F910F9095
:103D20000FBE0F901F9018951F920F920FB60F9213
:103D300011242F933F934F935F936F937F938F93B0
:103D40009F93AF93BF93EF93FF93E0912601F09180
:103D500027010995FF91EF91BF91AF919F918F91AD
:103D60007F916F915F914F913F912F910F900FBE77
:103D70000F901F9018951F920F920FB60F9211245B
:103D80002F933F934F935F936F937F938F939F9363
:103D9000AF93BF93EF93FF93E0912401F09125013E
:103DA0000995FF91EF91BF91AF919F918F917F9175
:103DB0006F915F914F913F912F910F900FBE0F9098
:103DC0001F901895DC0180E0615098F02D91982F9C
:103DD0009227E92FEF70F0E0E65EF94F249192957B
:103DE0009F70E92FF0E0E65DF94FE491822F8E2776
:103DF000EBCF0895EF92FF920F931F93CF93DF9332
:103E00008C017B0165E50E946109E70188E0E80E0D
:103E1000F11C6991C8010E946109CE15DF05C9F73F
:103E2000DF91CF911F910F91FF90EF900895FC01CA
:103E300090810180F281E02DF8948181892B81832A
:103E40002281892F809528232283A7E0B0E0119753
:103E5000F1F7218182238183A3E2B0E01197F1F78A
:103E600080817894EFECF0E03197F1F7982381E0CE
:103E700009F480E00895FC0190810180F281E02D39
:103E8000892F809560FF12C0F8942281822382835B
:103E90008181892B8183A3E2B0E01197F1F78281C0
:103EA000982B9283789487ED90E011C0F89422814A
:103EB000822382838181892B8183AFEFB0E01197C8
:103EC000F1F78281982B928378948FE090E00197AC
:103ED000F1F70895DC012C911196ED91FC91129768
:103EE000F8948181922F90958923818378948DE72E
:103EF00043E050E0815021F1DA011197F1F7308170
:103F00003223C1F3F8948281892382838181822BB9
:103F100081837894ABE7B7E01197F1F7F89481814A
:103F20009823918383E191E00197F1F78081282321
:103F300081E009F080E07894E3E6F6E03197F1F76C
:103F400008951F920F920FB60F9211242F933F9353
:103F50004F935F936F937F938F939F93AF93BF9391
:103F6000EF93FF938091B900887F803609F49CC05D
:103F700068F5883209F45BC090F4803109F454C0CC
:103F800038F4882309F4F6C0883009F44DC0F6C02F
:103F9000883109F44CC0803209F45DC0EFC0803430
:103FA00009F468C048F4803309F455C0883309F037
:103FB000E5C08093FD01D8C0803509F44FC0883535
:103FC00009F45DC0883409F0D9C0D6C0883909F435
:103FD000C7C0A8F4883709F467C038F4883609F4F4
:103FE00063C0803709F460C0C9C0883809F4B8C01C
:103FF000803909F45FC0803809F0C0C05BC0803BE5
:1040000009F486C038F4803A09F466C0883A09F4A5
:104010007FC0B4C0803C09F4A7C0883C09F4A4C0A8
:10402000883B09F48AC0AAC08091DA0110C090913F
:10403000FC018091FB01981770F5E091FC0181E093
:104040008E0F8093FC01F0E0E552FE4F808180935B
:10405000BB0085EC86C08093FD018EC0E091FC0121
:1040600081E08E0F8093FC018091BB00F0E0E5526F
:10407000FE4F80839091FC018091FB016EC0E09126
:10408000FC0181E08E0F8093FC018091BB00F0E089
:10409000E552FE4F80838091FE0181116DC081E069
:1040A0008093D90184EA61C083E08093FF0110927C
:1040B000F303CFCF8091F303803208F051C0E09139
:1040C000F30381E08E0F8093F3038091BB00F0E057
:1040D000ED52FC4F8083BDCF85EC8093BC001092E5
:1040E000FF018091F303803230F4E091F303F0E0BC
:1040F000ED52FC4F10826091F30370E0E091AB034E
:10410000F091AC0383ED93E009951092F30336C070
:1041100084E08093FF011092D2031092D103E091CA
:10412000A903F091AA0309958091D103811105C0DB
:1041300081E08093D1031092B103E091D20381E03A
:104140008E0F8093D203F0E0EF54FC4F8081809378
:10415000BB009091D2038091D103981708F479CFD6
:1041600085E88093BC000AC085EC8093BC00109267
:10417000FF0104C01092FD010E94C41BFF91EF914A
:10418000BF91AF919F918F917F916F915F914F916F
:104190003F912F910F900FBE0F901F9018954F9247
:1041A0005F926F927F928F929F92AF92BF92CF92C7
:1041B000DF92EF92FF920F931F93CF93DF934B0108
:1041C0005C018091AD039091AE03A091AF03B091DB
:1041D000B00388159905AA05BB0509F4D2C08CE384
:1041E000C82ED12CE12CF12CC501B401A7019601F8
:1041F0000E9479286093A203CA01B901A701960120
:104200000E9479286093A303C501B40120E13EE038
:1042100040E050E00E947928CA01B90128E130E06D
:1042200040E050E00E9479286093A403C501B401E6
:1042300020E831E541E050E00E94792869017A01E7
:10424000CA01B9016C5F7F4F8F4F9F4F27E030E06D
:1042500040E050E00E9479286F5F6093A503412CF5
:10426000512C320140E004E610E0C0E9D1E0242FF7
:1042700030E02E54384FF901E370FF27309789F46E
:10428000C901B8010E946528892B31F4C901BE011A
:104290000E946528892B29F48EE691E0A0E0B0E029
:1042A00004C08DE691E0A0E0B0E0480E591E6A1E01
:1042B0007B1ED301C201AA27BB27C816D906EA066E
:1042C000FB0610F04F5FD3CF4093A803309799F4CB
:1042D000C90164E670E00E946528892B39F4C901A0
:1042E00060E971E00E946528892B29F48EE691E04F
:1042F000A0E0B0E004C08DE691E0A0E0B0E0481A94
:10430000590A6A0A7B0AC418D508E608F708C901E1
:1043100064E670E00E946528EC01C90160E971E083
:104320000E946528A0E8B1E020E0213039F4309700
:1043300049F4209729F4009729F402C04C9103C056
:104340004DE101C04CE150E060E070E0C416D506DC
:10435000E606F70640F0C41AD50AE60AF70A2F5F08
:1043600011962C3011F72F5F2093A703C394C092AE
:10437000A6038092AD039092AE03A092AF03B092D9
:10438000B003DF91CF911F910F91FF90EF90DF90DD
:10439000CF90BF90AF909F908F907F906F905F90E5
:1043A0004F90089510922A021092290288EE93E00D
:1043B000A0E0B0E080932B0290932C02A0932D02FA
:1043C000B0932E0222E331E030932802209327029B
:1043D00025EC30E0309334022093330224EC30E0BB
:1043E000309336022093350220EC30E030933802CF
:1043F0002093370221EC30E030933A0220933902C7
:1044000022EC30E030933C0220933B0226EC30E07B
:1044100030933E0220933D021092400210924102DE
:1044200010924202109243021092C7021092C602EA
:104430008093C8029093C902A093CA02B093CB02A2
:1044400084E491E09093C5028093C4028CE493E0ED
:104450000E940C238BE293E00E940C2360E080E03A
:104460000E94C81DE6E8F0E0E491E0936E03E2E705
:10447000F0E0E491F0E0EE0FFF1FE859FF4F859167
:1044800094919093700380936F031092790310922C
:104490007B0310927A03E9E7F3E081E793E012925D
:1044A0008E179F07E1F78EE693E090931D038093AC
:1044B0001C0310921A0310921B031092160389E03A
:1044C0008093170381E0809318038093190310925F
:1044D0002903109228031092F6021092F50240E28E
:1044E00050E05093F8024093F70228E030E0309318
:1044F000FA022093F9025093FC024093FB0230939E
:10450000FE022093FD021092080310920003109205
:10451000FF021092020310920103809307032FEF12
:104520003FEF309306032093050330930403209359
:1045300003038093090310920A0310920C03109254
:104540000B0386E591E09093F4028093F30288E0F8
:1045500080930D0384E08093110380E28093100325
:1045600080E290E00E942C2490930F0380930E032E
:1045700084E090E00E942C24909315038093140310
:1045800084E090E00E942C24909313038093120304
:1045900080E090E0E0911203F0911303E80FF91F1F
:1045A0008083E0911403F0911503E80FF91F108246
:1045B00001968430910571F70E94071B61E080919C
:1045C0000D030E94C81D60E070E083EF92E00E943E
:1045D000261D60E08FE00E94A70867E08BE00E9444
:1045E000A70860E089E00E94A70861E08CE00E94D3
:1045F000A70867E08AE00E94A70886E090E0909311
:10460000F2028093F10280ED92E00E940C2310925E
:10461000D6021092D5020895CF93DF93FC01108249
:1046200011821282148215821682DC0117968AE1A9
:10463000ED0119928A95E9F782E08383DF91CF91AA
:104640000895789484B5826084BD84B5816084BD0A
:1046500085B5826085BD85B5816085BD80916E0020
:10466000816080936E001092810080918100826051
:10467000809381008091810081608093810080918E
:1046800080008160809380008091B100846080937D
:10469000B1008091B00081608093B00080917A0079
:1046A000846080937A0080917A00826080937A009F
:1046B00080917A00816080937A0080917A0080688E
:1046C00080937A001092C100A89580E090E0892B39
:1046D00011F00E940000E0913702F091380282E070
:1046E0008083E0913302F09134021082E091350230
:1046F000F091360280E1808310923F02E0913B020C
:10470000F0913C0286E08083E0913902F0913A0218
:10471000808180618083E0913902F0913A0280814A
:1047200088608083E0913902F0913A02808180684C
:104730008083E0913902F0913A0280818F7D8083FD
:10474000C0E1D0E0F12CFE01F595E795EF55FF4F64
:10475000E491C0FFE295EF70E83008F071C0F0E03E
:10476000EF55FF4FF4906F2D87E292E00E9497077C
:104770002196C23FD10539F7CAE9D0E0FE01649124
:10478000611132C063EB71E087E292E00E94330B6B
:104790008091A0038D7F8093A0030E94D11041E0FF
:1047A00050E063E071E08FE993E00E94D3266FEF61
:1047B00081E090E00E94FB26809199038F7880939E
:1047C000990310928F0310928E038FE191E00E9463
:1047D0009B0481ED91E190939E0380939D030E9441
:1047E0003E1E6B017C0112C087E292E00E94970797
:1047F0002196892B09F0C2CFC5CF0E947D040E946B
:10480000A512A8958091980382FD0DC00E943E1EBE
:10481000DC01CB018C199D09AE09BF0988399A4387
:10482000A105B10550F30E942D12A895A8950E94EC
:104830007D040E94A5120E94A30D0E94941BF6CF36
:104840001BEF1E0F00E06F2D87E292E00E9497079A
:104850000F5F0117C0F38CCF0F931F93CF93DF939C
:104860008230910510F482E090E0E091FF03F09136
:10487000000420E030E0A0E0B0E0309719F1408182
:1048800051810281138148175907C8F08417950791
:1048900069F4109731F012960C93129713961C93AB
:1048A00027C00093FF031093000422C02115310597
:1048B00019F04217530718F49A01BD01EF01DF0107
:1048C000F801DBCF21153105F9F0281B390B243015
:1048D000310580F48A819B816115710521F0FB010E
:1048E0009383828304C0909300048093FF03FE01AE
:1048F000329644C0FE01E20FF31F81939193225040
:104900003109398328833AC02091FD033091FE0399
:10491000232B41F420912A0130912B013093FE0387
:104920002093FD03209128013091290121153105A3
:1049300041F42DB73EB740912C0150912D01241B1D
:10494000350BE091FD03F091FE03E217F307A0F4AD
:104950002E1B3F0B2817390778F0AC014E5F5F4FD5
:104960002417350748F04E0F5F1F5093FE03409306
:10497000FD038193919302C0E0E0F0E0CF01DF916D
:10498000CF911F910F910895CF93DF93009709F472
:1049900081C0FC01329713821282A091FF03B09173
:1049A0000004109781F420813181820F931F2091A0
:1049B000FD033091FE032817390751F5F093FE03EC
:1049C000E093FD0367C0ED0120E030E0CE17DF0784
:1049D00040F44A815B819E0141155105F1F0EA01E5
:1049E000F5CFD383C28340815181840F951FC817AF
:1049F000D90759F488819981840F951F0296918374
:104A000080838A819B81938382832115310529F4D8
:104A1000F0930004E093FF033DC0E901FB83EA83C8
:104A200049915991C40FD51FEC17FD0761F480819E
:104A30009181840F951F0296E90199838883828171
:104A400093819B838A83E0E0F0E012968D919C91A4
:104A50001397009719F0FD01DC01F7CF8D919C9120
:104A600011979D012E5F3F4F820F931F2091FD03F1
:104A70003091FE032817390769F4309729F4109212
:104A800000041092FF0302C013821282B093FE034F
:104A9000A093FD03DF91CF910895FC01882799270A
:104AA000E89421912032E9F3293010F02E30C8F338
:104AB0002B3241F02D3239F4689404C00E94A725AE
:104AC000820F911D219120532A30C0F31EF490953E
:104AD00081959F4F08951F93FC0199278827BC015A
:104AE000E89411911032E9F3193010F01E30C8F338
:104AF0001B3251F01D3249F4689406C00E94922581
:104B0000610F711D811D911D119110531A30B0F369
:104B10003EF490958095709561957F4F8F4F9F4F94
:104B20001F910895592F482F372F262F660F771F73
:104B3000881F991F660F771F881F991F620F731FA9
:104B4000841F951F660F771F881F991F08957AE0AD
:104B5000979F902D879F802D910D112408950E947D
:104B6000F12508F481E00895E89409C097FB3EF42C
:104B700090958095709561957F4F8F4F9F4F9923AA
:104B8000A9F0F92F96E9BB279395F6958795779528
:104B90006795B795F111F8CFFAF4BB0F11F460FFE8
:104BA0001BC06F5F7F4F8F4F9F4F16C0882311F040
:104BB00096E911C0772321F09EE8872F762F05C054
:104BC000662371F096E8862F70E060E02AF09A95EF
:104BD000660F771F881FDAF7880F9695879597F9E4
:104BE0000895990F0008550FAA0BE0E8FEEF16167E
:104BF0001706E807F907C0F012161306E407F507D1
:104C000098F0621B730B840B950B39F40A2661F044
:104C1000232B242B252B21F408950A2609F4A140E7
:104C2000A6958FEF811D811D08950E9428260C9462
:104C300099260E948B2638F00E94922620F0952318
:104C400011F00C9482260C94882611240C94CD2605
:104C50000E94AA2670F3959FC1F3950F50E0551F4F
:104C6000629FF001729FBB27F00DB11D639FAA27C1
:104C7000F00DB11DAA1F649F6627B00DA11D661F10
:104C8000829F2227B00DA11D621F739FB00DA11D31
:104C9000621F839FA00D611D221F749F3327A00DEB
:104CA000611D231F849F600D211D822F762F6A2F87
:104CB00011249F5750409AF0F1F088234AF0EE0FEC
:104CC000FF1FBB1F661F771F881F91505040A9F719
:104CD0009E3F510580F00C9482260C94CD265F3FB8
:104CE000E4F3983ED4F3869577956795B795F79555
:104CF000E7959F5FC1F7FE2B880F911D96958795CD
:104D000097F9089597F99F6780E870E060E008954B
:104D10009FEF80EC089500240A94161617061806D3
:104D20000906089500240A941216130614060506AF
:104D30000895092E0394000C11F4882352F0BB0F40
:104D400040F4BF2B11F460FF04C06F5F7F4F8F4FA3
:104D50009F4F089557FD9058440F551F59F05F3FDE
:104D600071F04795880F97FB991F61F09F3F79F08D
:104D700087950895121613061406551FF2CF46950F
:104D8000F1DF08C0161617061806991FF1CF869591
:104D90007105610508940895E894BB276627772775
:104DA000CB0197F90895DC01CB01FC01F999FECF05
:104DB00006C0F2BDE1BDF89A319600B40D924150A3
:104DC0005040B8F70895F999FECF92BD81BDF89A89
:104DD000992780B50895DC01A40FB51F41505040BC
:104DE00048F0CB01840F951F2E910E94FC26415064
:104DF0005040D0F70895262FF999FECF92BD81BD7E
:104E0000F89A019700B4021639F01FBA20BD0FB608
:104E1000F894FA9AF99A0FBE08952F923F924F9202
:104E20005F926F927F928F929F92AF92BF92CF923A
:104E3000DF92EF92FF920F931F93CF93DF93CDB743
:104E4000DEB7CA1BDB0B0FB6F894DEBF0FBECDBFBB
:104E500009942A88398848885F846E847D848C848C
:104E60009B84AA84B984C884DF80EE80FD800C8195
:104E70001B81AA81B981CE0FD11D0FB6F894DEBF78
:104E80000FBECDBFED0108955058BB27AA270E9441
:104E90005C270C9499260E948B2638F00E9492265B
:104EA00020F039F49F3F19F426F40C9488260EF470
:104EB000E095E7FB0C948226E92F0E94AA2658F37E
:104EC000BA17620773078407950720F079F4A6F5EF
:104ED0000C94CC260EF4E0950B2EBA2FA02D0B01CE
:104EE000B90190010C01CA01A0011124FF27591B2F
:104EF00099F0593F50F4503E68F11A16F040A22F35
:104F0000232F342F4427585FF3CF469537952795A5
:104F1000A795F0405395C9F77EF41F16BA0B620BA4
:104F2000730B840BBAF09150A1F0FF0FBB1F661FEB
:104F3000771F881FC2F70EC0BA0F621F731F841F2E
:104F400048F4879577956795B795F7959E3F08F054
:104F5000B0CF9395880F08F09927EE0F9795879516
:104F600008950E94C5270C9499260E94922658F015
:104F70000E948B2640F029F45F3F29F00C94822692
:104F800051110C94CD260C9488260E94AA2668F311
:104F90009923B1F3552391F3951B550BBB27AA27F2
:104FA00062177307840738F09F5F5F4F220F331F2C
:104FB000441FAA1FA9F335D00E2E3AF0E0E832D0F4
:104FC00091505040E695001CCAF72BD0FE2F29D0F7
:104FD000660F771F881FBB1F261737074807AB07C9
:104FE000B0E809F0BB0B802DBF01FF2793585F4F3E
:104FF0003AF09E3F510578F00C9482260C94CD2611
:105000005F3FE4F3983ED4F3869577956795B7951F
:10501000F7959F5FC9F7880F911D9695879597F92A
:105020000895E1E0660F771F881FBB1F62177307A3
:105030008407BA0720F0621B730B840BBA0BEE1FB8
:1050400088F7E09508950E942A286894B1110C947D
:10505000CD2608950E94B22688F09F5798F0B92F68
:105060009927B751B0F0E1F0660F771F881F991F9D
:105070001AF0BA95C9F714C0B13091F00E94CC264D
:10508000B1E008950C94CC26672F782F8827B85F5D
:1050900039F0B93FCCF3869577956795B395D9F7F5
:1050A0003EF490958095709561957F4F8F4F9F4FFF
:1050B0000895991B79E004C0991F961708F0961B74
:1050C000881F7A95C9F78095089597FB072E16F4E7
:1050D000009407D077FD09D00E949B2807FC05D0DB
:1050E0003EF4909581959F4F0895709561957F4FFF
:1050F0000895A1E21A2EAA1BBB1BFD010DC0AA1F19
:10510000BB1FEE1FFF1FA217B307E407F50720F030
:10511000A21BB30BE40BF50B661F771F881F991FAB
:105120001A9469F760957095809590959B01AC01F4
:10513000BD01CF010895AA1BBB1B51E107C0AA1FE7
:10514000BB1FA617B70710F0A61BB70B881F991F28
:105150005A95A9F780959095BC01CD010895EE0F61
:10516000FF1F0590F491E02D0994A0E0B0E0EBEB77
:10517000F8E20C941127EC01009721F4CB010E9476
:105180002C24B4C0FC01E60FF71F9C01225031090A
:10519000E217F30708F4A8C0D9010D911C911197EB
:1051A00006171707B0F00530110508F49BC0C801B9
:1051B00004978617970708F495C002501109061B3B
:1051C000170B019311936D937C93CF010E94C4241C
:1051D00089C05B01A01AB10A4C01800E911EA091FA
:1051E000FF03B0910004612C712CE12CF12C10977D
:1051F00009F446C08D919C911197A815B905B1F598
:105200006C0142E0C40ED11CCA14DB0478F14C01DD
:105210008A189B08640142E0C40ED11C1296BC900F
:1052200012971396AC91B5E0CB16D10440F0B28240
:10523000A38391828082D9016D937C9309C00E5F14
:105240001F4F800F911FF90191838083EB2DFA2F5F
:10525000E114F10431F0D7011396FC93EE93129709
:1052600041C0F0930004E093FF033CC06816790648
:1052700008F43C017D0112960D90BC91A02DB7CF92
:105280008091FD039091FE0388169906E1F466165D
:105290007706C8F48091280190912901009741F484
:1052A0008DB79EB740912C0150912D01841B950B19
:1052B000E817F907C8F4F093FE03E093FD03F90142
:1052C000718360830FC0CB010E942C247C01009766
:1052D00059F0A801BE010E948029CE010E94C42479
:1052E000C70104C0CE0102C080E090E0CDB7DEB7B8
:1052F000EEE00C942D2781E090E0F8940C94A62920
:10530000FB01DC0102C001900D9241505040D8F7E2
:105310000895DC0101C06D9341505040E0F70895BD
:10532000FB01DC0101900D920020E1F70895FB01E3
:10533000DC014150504048F001900D920020C9F727
:1053400001C01D9241505040E0F70895F894FFCFFE
:10535000FFFFFF00FCE1A8A8B3061F05A006F104AB
:105360005C03E704CE0639050A00FFD005C7045DDB
:1053700004E406FFC31BC31B0000010480000000FF
:10538000000097076107571B591D881B661B7A1B76
:1053900000000000511C241C1418F81B1C1C081CC5
:1053A000F91B00000000311A610714181318801C43
:1053B000F81B5A1732174E1742176117F81B351D85
:1053C000251DF916C0167B16261DF1159215010034
:1053D0001F1C1F1E1F1E1F1F1E1F1E1F322E332E9F
:1053E0003000312E300052544320436C6F636B0009
:1053F0005254432054656D70657261747572650016
:065400004F4B000D0A00F5
:00000001FF
