:1000000087C300000C9431120C9406120C94DB117F
:100010000C94B0110C9485110C945A110C942F115E
:100020000C940411A6C30000A4C30000A2C30000E6
:100030000C949F089EC300009CC300009AC300005C
:1000400098C3000096C3000094C3000092C3000050
:1000500090C300008EC300008CC300000C94BA1043
:1000600088C300000C948F0F0C94660F82C30000AD
:1000700080C300007EC300007CC300007AC3000080
:1000800078C3000076C3000074C3000072C3000090
:1000900070C300006EC300006CC300000C948A178C
:1000A00068C3000066C3000064C3000062C30000B0
:1000B00060C300005EC300005CC300005AC30000C0
:1000C00058C3000056C3000054C3000052C30000D0
:1000D00050C300004EC300004CC300004AC30000E0
:1000E00048C30000F40FF70FE60FEA0FEE0F2E10D3
:1000F000FB0FFF0F051009100D10131017101B1028
:100100002E1021102510291000000A0B02090C0DD9
:100110000E080703040100000000000000000000BA
:1001200000000000000000000000000000000000CF
:10013000000000001211100000000000000000008C
:1001400000000000000000000000000000000000AF
:100150002200250028002B002E003100340002016F
:100160000000050108010B01000021002400270008
:100170002A002D00300033000101000004010701B6
:100180000A0105050505070508080808020202021C
:100190000A0A080804040404010101010101010123
:1001A0000303030303030303040707070C0C0C0CEE
:1001B0000C0C0C0C020202020606060606060606D7
:1001C0000B0B0B0B0B0B0B0B010210202008081064
:1001D00020401020408002010201080402010102B7
:1001E0000408102040808040201008040201800490
:1001F00002018040201008040201080402010102EB
:1002000004081020408001020408102040800000F3
:100210000000003E5B4F5B3E3E6B4F6B3E1C3E7CE6
:100220003E1C183C7E3C181C577D571C1C5E7F5E94
:100230001C00183C1800FFE7C3E7FF001824180053
:10024000FFE7DBE7FF30483A060E262979292640EA
:100250007F050507407F05253F5A3CE73C5A7F3E16
:100260001C1C08081C1C3E7F14227F22145F5F00A8
:100270005F5F06097F017F006689956A6060606044
:100280006094A2FFA29408047E040810207E20102F
:1002900008082A1C08081C2A08081E101010100C38
:1002A0001E0C1E0C30383E3830060E3E0E06000086
:1002B00000000000005F00000007000700147F142A
:1002C0007F14242A7F2A1223130864623649562099
:1002D000500008070300001C2241000041221C00BE
:1002E0002A1C7F1C2A08083E08080080703000087D
:1002F00008080808000060600020100804023E5151
:1003000049453E00427F40007249494946214149E2
:100310004D331814127F1027454545393C4A494949
:100320003141211109073649494936464949291EB3
:1003300000001400000040340000000814224114A2
:1003400014141414004122140802015909063E41F4
:100350005D594E7C1211127C7F494949363E41411C
:1003600041227F4141413E7F494949417F09090975
:10037000013E414151737F0808087F00417F4100E1
:100380002040413F017F081422417F404040407F90
:10039000021C027F7F0408107F3E4141413E7F09DD
:1003A0000909063E4151215E7F091929462649491E
:1003B000493203017F01033F4040403F1F2040205E
:1003C0001F3F4038403F631408146303047804035C
:1003D0006159494D43007F4141410204081020000A
:1003E0004141417F0402010204404040404000037B
:1003F00007080020545478407F2844443838444447
:100400004428384444287F385454541800087E093E
:100410000218A4A49C787F0804047800447D40005E
:100420002040403D007F1028440000417F40007C78
:10043000047804787C080404783844444438FC1870
:1004400024241818242418FC7C0804040848545454
:10045000542404043F44243C4040207C1C20402081
:100460001C3C4030403C44281028444C9090907CE8
:100470004464544C440008364100000077000000FA
:100480004136080002010204023C2623263C1EA13C
:10049000A161123A4040207A38545455592155559B
:1004A000794122545478422155547840205455794A
:1004B000400C1E52721239555555593954545459DD
:1004C00039555454580000457C410002457D420096
:1004D00001457C407D1211127DF0282528F07C54C6
:1004E0005545002054547C547C0A097F49324949BF
:1004F00049323A4444443A324A4848303A41412128
:100500007A3A42402078009DA0A07D3D4242423D83
:100510003D4040403D3C24FF2424487E4943662B17
:100520002FFC2F2BFF0929F620C0887E09032054B9
:100530005479410000447D413048484A32384040B7
:10054000227A007A0A0A727D0D19317D2629292F17
:1005500028262929292630484D402038080808082F
:1005600008080808382F10C8ACBA2F102834FA0031
:10057000007B000008142A142222142A14085500B3
:10058000550055AA55AA55AAFF55FF55FF00000072
:10059000FF00101010FF00141414FF001010FF00D3
:1005A000FF1010F010F0141414FC001414F700FFE6
:1005B0000000FF00FF1414F404FC141417101F10A3
:1005C000101F101F1414141F00101010F000000052
:1005D000001F101010101F10101010F0100000005D
:1005E000FF101010101010101010FF10000000FF6E
:1005F000140000FF00FF00001F10170000FC04F4AF
:1006000014141710171414F404F40000FF00F71466
:10061000141414141414F700F714141417141010ED
:100620001F101F141414F4141010F010F000001F09
:10063000101F0000001F14000000FC140000F01048
:10064000F01010FF10FF141414FF141010101F00EE
:10065000000000F010FFFFFFFFFFF0F0F0F0F0FFF0
:10066000FFFF0000000000FFFF0F0F0F0F0F3844C7
:10067000443844FC4A4A4A347E02020606027E029C
:100680007E0263554941633844443C04407E201E49
:100690002006027E020299A5E7A5991C2A492A1C78
:1006A0004C7201724C304A4D4D303048784830BC65
:1006B000625A463D3E494949007E0101017E2A2A8F
:1006C0002A2A2A44445F444440514A444040444A10
:1006D00051400000FF0103E080FF000008086B6B41
:1006E000083612362436060F090F060000181800C7
:1006F00000001010003040FF0101001F01011E002A
:10070000191D1712003C3C3C3C0000000000791F02
:1007100011241FBECFEFD1E2DEBFCDBF00E00CBF82
:1007200026E0AEEBB4E001C01D92AD3CB207E1F7AC
:1007300014E0A0E0B2E0ECEFF1E400E00BBF02C097
:1007400007900D92AE3BB107D9F713E0C8E8D3E0AC
:1007500000E006C021970109802FFE010E94CD20F4
:10076000C738D10780E00807A9F70E94941E0C94AF
:10077000FC2046CC8091C80484608093C80480919A
:10078000C90480788093C904E091CB04F091CC0433
:10079000309709F0199408950F931F930E947A10CF
:1007A0000091C0041091C1042091C2043091C3048F
:1007B000601B710B820B930B1F910F910895E8EC56
:1007C000F4E08081877F8F7E80831092C404109232
:1007D000C5041092C6041092C70443E050E060E0E4
:1007E00070E080E395E00C9467208EBD00000DB4AE
:1007F00007FEFDCF8EB508958CBD9DBD0895AF92C7
:10080000BF92DF92EF92FF920F931F93CF93DF93EC
:10081000C82F7B01142FD22E81E591E0EDDF60E03F
:1008200085E30E94C50FE3E2F0E03197F1F78C2FEA
:10083000DCDF082FE7011123A9F0DD2049F08FEF5D
:10084000D4DF082FE114F10459F08883219608C001
:100850005E018FEFA81AB80A8881C7DF082FE5016B
:100860001150E9CF61E085E30E94C50F83E290E07B
:100870000197F1F7802FDF91CF911F910F91FF909A
:10088000EF90DF90BF90AF900895CF93DF931F92CA
:10089000CDB7DEB7698320E041E0BE016F5F7F4FD7
:1008A000AEDF0F90DF91CF910895CF93C82F8FEFD8
:1008B0008C0F8E3F90F4C0933005C0931C0263E010
:1008C00082E2E3DF61E081E2E0DF7CD76C2F80E051
:1008D00090E00E94862081E00CC080E090E0892BAF
:1008E00021F08EE690E00E9400008FEF80933005AB
:1008F00080E0CF9108958091C904982F9077903728
:1009000059F0982F92959F709F5F97709295907F66
:100910008F78892B8093C9048091C8048B7F8F7E48
:100920008093C80480E090E0892B21F087E690E076
:100930000E94000060E081E30E94C50F6CE080E24D
:10094000A4CF20E040E060E070E059CFEF92FF924A
:100950000F931F93CF93DF931F92CDB7DEB7FC01A8
:1009600082819091C80490FF04C08F3F09F053C06A
:1009700005C08F3F19F0F090310502C0FF24FA94B2
:10098000809130058083438142FD05C046954695A0
:100990004695495F01C040E28F0180E090E0892BDD
:1009A00031F080E090E049830E94000049814132AB
:1009B00008F040E260E081E349830E94C50F83E0D4
:1009C00092E00197F1F76EE080E25FDF8BE891E063
:1009D0000197F1F76F2D8AE258DF6F2D80E355DF25
:1009E00081EEAFDF49818FEFF81611F080EA01C088
:1009F00080EB20E0B80103DF61E081E30E94C50FD6
:100A000000E010E08FEF9DDFE82E807331F401509D
:100A10001109C1F702C010E02FC060E081E30E941D
:100A2000C50F60E387E231DFE4FE02C081EE89DFBB
:100A3000C9D6E5FA112710F991E08FEFF81290E08E
:100A4000192B80913105F81217C0111110C080E0E8
:100A500090E0892B21F085E690E00E9400008091D3
:100A6000C90491E0980F9F70807F892B03C080910B
:100A7000C904807F8093C904812F0F90DF91CF91AB
:100A80001F910F91FF90EF90089580E090E0892BE7
:100A900021F088E090E00E9400008FEF8093CA046C
:100AA0008091C80488608093C80448E163E080E0D6
:100AB0000E94D40D61E0D2D549CF809130058F3F9F
:100AC00089F480E090E0892B21F086E090E00E949C
:100AD000000043E063E080E00E94D40D69EA74E026
:100AE000C9D534CF089580E090E0892B21F084E0CF
:100AF00090E00E9400008091C804897F816080930B
:100B0000C8048FEF809332058093310547E063E09E
:100B10000E94D40D69EA74E0ADD518CF2091C804C5
:100B200022FD14CF80E008957F928F929F92AF9222
:100B3000BF92CF92DF92EF92FF920F931F93CF93CA
:100B4000DF931F92CDB7DEB7E091BE04F091BF04F2
:100B50000280F381E02D309709F019958091C80447
:100B600084FBFF24F0F884FF81C186E0782E00E04A
:100B700010E091E2E92E21E041E060E070E087E1E1
:100B80003EDE80FD73C17A94772009F46FC10115B0
:100B9000110521F081E090E00E94000021E041E099
:100BA00060E070E080E62BDEC82E80E28C1518F441
:100BB00082EEC7DEC12C21E04C2D6BE276E081E6AF
:100BC0001EDE60E487E261DE90912E06292F2695D5
:100BD000269526952A3108F029E192FD03C037E0D9
:100BE000320F01C030E280912F06B0903006D090D5
:100BF0002C0660912B0640912D06C31639F0011585
:100C0000110509F4B8CF8CE690E00AC0392F337093
:100C1000323049F00115110509F4ADCF8DE690E0B1
:100C20000E940000A8CF582F57703091C904306837
:100C30003093C90430913005431337C030E0B90117
:100C4000E3E0660F771FEA95E1F79770962B909394
:100C50002E06F901E55DF94F178283FF18C0EBE21C
:100C6000F6E0AAE0B6E08E2D01900D928A95E1F7AC
:100C700080910E06877F806180930E0640930B065D
:100C8000D0920C068AE096E0598348DF5981209182
:100C90002F0624FD70CF533009F06DCF90913006B0
:100CA00081EF890F833038F566CF4F3F09F063CF6E
:100CB000533009F060CF8091C80482FF04C087E000
:100CC000B81609F458CF84E1B81255CF8091310598
:100CD000681351CF0E947A107370882799270E9459
:100CE0004210C090310545E163E08D2D5DD76C2D3C
:100CF000B5D42CDE40CF84E0B81204C00E941C0F93
:100D0000D4DD39CF88E0B8121AC0C090C804C0FE44
:100D100032CF0E941C0F8F3F09F42DCF91E0980F26
:100D20009F3F09F428CF80913205981708F023CF10
:100D3000C1FC21CF90933205D09231051CCF88E1C0
:100D4000B81206C049E163E08D2D2ED761E0D0CF07
:100D500089E1B8120CC08091C80483FF0CCF877F53
:100D60008093C8040E941C0F8093CA0404CF809112
:100D70002C06811100CF9D3099F480E090E0892B02
:100D800021F08BE090E00E94000098E088E10FB62F
:100D9000F894A895809360000FBE90936000FFCFF9
:100DA0009B3199F40E941C0F91E0811101C090E0E9
:100DB0008091CE0490FB80F98093CE04011511053B
:100DC00009F4D9CE8AE090E02BCF9630A9F4909127
:100DD0003206992329F081E09D3419F080E001C0AA
:100DE0008F2D8093CD0441E050E063E071E08DEC05
:100DF00094E00E947720BFCE933111F480D4BBCE13
:100E00009231B9F4C9DC4B015C0146E163E080E05A
:100E1000CBD6FC0184818F71806A84838381877043
:100E20008062838387829086A186B286CF0176DE38
:100E3000A2CE913009F09FCE2295269527702530BD
:100E400049F4609132067091330680913406909196
:100E500035060AC0211105C082E396E00E942420D5
:100E600003C060E070E0CB01C4D285CE0F90DF916B
:100E7000CF911F910F91FF90EF90DF90CF90BF9097
:100E8000AF909F908F907F9008959C018091BE04B9
:100E90009091BF048217930751F09091C8049F71FD
:100EA0009093C8043093BF042093BE0405C0809182
:100EB000C804805E8093C804E091BE04F091BF0432
:100EC0000190F081E02D309709F019950E947A1079
:100ED0006093C0047093C1048093C2049093C304D0
:100EE00008950F931F9358DC2091C9042077203771
:100EF00029F000E117E220E030E004C000E61AEE3D
:100F000020E030E0061717072807390728F48DE19D
:100F100092E01F910F91B9CF1F910F910895809189
:100F2000C9048F70863018F088E192E0AECF089542
:100F30008091CA048F3FA1F00E947A106093C4048C
:100F40007093C5048093C6049093C7048091CA042B
:100F50009091320589138093320584E192E01AC0A2
:100F60001BDC613D774081059105A8F08091C804A4
:100F7000803618F480E192E00DC0877F8093C8042A
:100F800080E090E0892B21F08AE690E00E9400004A
:100F900088E192E07ACF0895809130058F3F59F033
:100FA00080E090E0892B21F087E090E00E94000033
:100FB00080E192E017C0F0DB613D7740810591054B
:100FC00090F08091C804803618F48CE092E00AC05A
:100FD00080E090E0892B21F089E690E00E940000FB
:100FE00088E092E052CF0895D7DB613D77408105DC
:100FF000910520F48091C80481FF08958091310506
:101000008F3F81F08091C8048E7F8093C80480E078
:1010100090E0892B21F085E090E00E9400008CE0B8
:1010200092E011C08091C804803618F488E192E003
:101030000AC080E090E0892B21F088E690E00E94D1
:10104000000088E092E021CFCF9381E3D6D685E3FC
:10105000D4D60E94581760E081E397D761E085E31A
:1010600094D76EE080E211DC65E070E080E090E013
:101070000E94421063E083E208DC6FE584E205DC55
:101080006CE485E202DC67E286E2FFDB63E780E591
:10109000FCDB66E08DE3F9DB21E041E060E070E03D
:1010A00086E0ADDBC82F21E041E060E070E085E044
:1010B000A6DB8C3409F036C0C732A1F562E082E2CB
:1010C000E4DB60E081E2E1DB63E08CE3DEDB8FEF19
:1010D0008093030220E045E063E072E08BE28FDB67
:1010E00020E045E063E072E08AE289DB20E045E051
:1010F00063E072E080E383DB82EE23DC81EE21DCBF
:1011000060E787E2C2DB8091C80480618093C804F5
:10111000809130058F3F79F0C8DB81110CC088E0E9
:1011200092E00BC080E090E0892BC9F387E690E065
:101130000E940000F4CF88E192E0CF91A6CE1F92EA
:101140000F920FB60F9211240F900FBE0F901F90A9
:1011500018959091770680917606981750F4E92FAC
:10116000F0E0EA5AF94F208130E09F5F90937706D4
:1011700002C02FEF3FEFC90108958091760690E0FD
:1011800020917706821B91090895089580E090E0F0
:10119000089508950895CF92DF92EF92FF920F93F2
:1011A0001F93CF93DF937C01262F972F8A01809185
:1011B0000D05882391F0C62FD72F6E01C40ED51EC2
:1011C000CC15DD0571F06991D701ED91FC9101908D
:1011D000F081E02DC7011995F3CF642F822F0E9473
:1011E000BB18C801DF91CF911F910F91FF90EF9035
:1011F000DF90CF900895CF93DF931F92CDB7DEB7E6
:10120000698320910D052223D1F020912F052032F2
:1012100040F021E030E0FC013383228380E090E065
:1012200015C080910E05E82FF0E0E15FFA4F99813B
:1012300090838F5F80930E0580932F0505C061E03A
:10124000CE0101960E94BB1881E090E00F90DF91E3
:10125000CF910895CF93DF93EC010A975CF4E0916E
:10126000DC05F091DD050190F081E02D60E38CED6F
:1012700095E01995BE01DD0F880B990B97FF03C010
:10128000DF91CF91F5C54AE0DF91CF916BC5CF9249
:10129000DF92EF92FF922ED76B017C012091D70451
:1012A0008091D3049091D404A091D504B091D60438
:1012B00021110EC0A7019601281B390B4A0B5B0BAD
:1012C000DA01C90181319742A105B10570F416C058
:1012D000A7019601281B390B4A0B5B0BDA01C901E8
:1012E00081389E4EA643B10548F0B9D5C092D304CB
:1012F000D092D404E092D504F092D6048091CF0429
:101300009091D004A091D104B091D204A70196018C
:10131000281B390B4A0B5B0BDA01C901893E93404C
:10132000A105B10508F460C05DD581E08093F005AA
:1013300081E090E09093EF058093EE059093ED05AA
:101340008093EC051092E9051092E8051092EB05E8
:101350001092EA050E94211D0E94AB1D8091C406D7
:1013600090E0ACD581EA94E0ECD40E94211D0E946B
:10137000AB1D8091C50690E0A1D581EA94E0E1D44F
:101380000E94211D0E94AB1D8091C60690E08E54E4
:10139000984F94D583EA94E0D4D40E94211D0E94F2
:1013A000AB1D8091C20690E055DF85EA94E0C9D478
:1013B0000E94211D0E94AB1D8091C10690E04ADF72
:1013C00085EA94E0BED40E94211D0E94AB1D80914D
:1013D000C00690E03FDF3DD4C092CF04D092D0044D
:1013E000E092D104F092D204FF90EF90DF90CF9082
:1013F0000895CF92DF92EF92FF926B017C01F2D4BD
:10140000ECEDF5E015861486178616864AE0C701CE
:10141000B601A8D487EA94E094D41BD4C701B601DE
:101420000E945C1281E08093D704FF90EF90DF90E0
:10143000CF90089582E08093F7058CE38093F605C2
:101440008091F8058F3F09F482C08091FA05D5D4C8
:101450008091FC05D2D48091FC05082E000C990BDC
:10146000FC01EE57FE4FE491F0E0EE0FFF1FE25B50
:10147000FE4F259134913093030620930206FC0120
:10148000E853FE4FE491E09308068091FA05082E98
:10149000000C990BFC01EE57FE4FE491F0E0EE0FCB
:1014A000FF1FE25BFE4F2591349130930506209398
:1014B0000406FC01E853FE4FE491E0930906809195
:1014C000FD0581113AC08091F80597D48091F90506
:1014D00094D48091F905082E000C990BFC01EE576D
:1014E000FE4FE491F0E0EE0FFF1FE25BFE4F25910F
:1014F00034913093010620930006FC01E853FE4F1F
:10150000E491E09307068091F805082E000C990BF2
:10151000FC01EE57FE4FE491F0E0EE0FFF1FE25B9F
:10152000FE4F259134913093FF052093FE05FC0179
:10153000E853FE4FE491E09306068091FD05882371
:1015400059F10E94581780E591E056D925C01092B4
:1015500077061092760610920E0510922F051092C3
:101560000C0581E080930B051092E60461E084E1B4
:101570000CD561E085E109D58091B9008E7F80931B
:10158000B9008091B9008D7F8093B90088E4809381
:10159000B80085E48093BC008091FB0587FD17C0EF
:1015A0002CD461E08091FB05F0D461E070E080E034
:1015B00090E068D560E08091FB05E7D46AE070E0D8
:1015C00080E090E05FD561E08091FB05DED48EEA9B
:1015D000FBD285EDF9D280E8F7D288EAF5D28FE127
:1015E000F3D283EDF1D280E0EFD280E4EDD28DE84A
:1015F000EBD284E1E9D280E2E7D280E0E5D281EA71
:10160000E3D288ECE1D28AEDDFD282E0DDD281E85C
:10161000DBD28FE8D9D289EDD7D281EFD5D28BED4D
:10162000D3D280E4D1D284EACFD286EACDD28EE280
:10163000CBD28FEAC9D2D6D321E030E04AE050E0E5
:101640006AE070E08CED95E00E94991B02D360ED9A
:1016500077E080E090E016D5C5D301C4FC0183811A
:1016600087708860838384818F71806284836783BD
:10167000CF0108950F931F93CF93DF93EC01611572
:10168000710561F0FB0101900020E9F73197E61B3D
:10169000F70BE931F10518F0E9E101C0E0E00E2FA8
:1016A00010E0C80123E0880F991F2A95E1F79B817C
:1016B0009770892B8B838C818F718C83EE2329F01B
:1016C000A801CE0107960E94ED20FE01E00FF11F58
:1016D0001782CE01DF91CF911F910F9108954BE0BA
:1016E00063E080E061D26AEA74E0C4DF17DA4CE0BC
:1016F00063E080E059D264EB74E0BCDF0FCACF93A3
:1017000080E090E0892B21F08CE090E00E940000C6
:101710004FE063E080E048D269EA74E0ABDF80919B
:101720000D068770806180930D0680910E068F7183
:10173000806C80930E0681E0809311061092120651
:101740008AE096E0EBD98FE0E1D441E160E080E00F
:101750002BD268EB74E08EDFE1D9C091310546E011
:1017600063E080E021D26C2F79DFD8D986E0CED437
:10177000CF91B5CFCF938091CE0481FD21C0BFDF43
:1017800080E090E0892B21F089E090E00E94000049
:101790008091CE0481608093CE04C4E04AE163E08E
:1017A00080E002D262E05ADFB9D98BE1AFD4811177
:1017B00002C0C15099F78091CE0482608093CE041C
:1017C000CF9108956FE080E260D860911C026F3F76
:1017D00011F08AE25AD861E081E3D7C320912F0546
:1017E00090915506213208F04AC080910C05811174
:1017F000FCCF32E030930C0531E030930B053FEF26
:1018000030930A051092090520930805AFE0B5E072
:1018100048EE54E0FA013E2F341B321718F43D9184
:101820003193F9CF1092E7042091E704990F922B9E
:101830009093E7049091E604913061F41092E604ED
:101840009091E7049093BB009091BC0093FDF8CF7A
:1018500095EC01C095EE9093BC0090910C059230F0
:10186000E1F390910A059F3F79F080910A0580325B
:1018700041F080910A05803331F084E005C081E0B9
:1018800003C082E001C083E010920E0510922F0584
:1018900010920D050895CF92DF92EF92FF920F9371
:1018A0001F93CF93DF936C017A018B01C0E0D0E0EE
:1018B000CE15DF0589F0D8016D918D01D601ED912E
:1018C000FC910190F081E02DC6011995892B11F44E
:1018D0007E0102C02196ECCFC701DF91CF911F910D
:1018E0000F91FF90EF90DF90CF900895FC01538D02
:1018F000448D252F30E0842F90E0821B930B5417EA
:1019000010F0CF96089501970895FC01918D828D76
:10191000981761F0828DDF01A80FB11D5D968C9143
:10192000928D9F5F9F73928F90E008958FEF9FEF4E
:101930000895FC01918D828D981731F0828DE80F0A
:10194000F11D858D90E008958FEF9FEF0895FC01C4
:10195000918D228D892F90E0805C9F4F821B910991
:101960008F739927089583E395E0F1DF21E0892BB8
:1019700009F420E0822F0895FC01848DDF01A80F77
:10198000B11DA35ABF4F2C91848D90E001968F73A7
:101990009927848FA689B7892C93A089B1898C91C6
:1019A00080648C93938D848D981306C00288F3898C
:1019B000E02D80818F7D80830895EF92FF920F93B9
:1019C0001F93CF93DF93EC0181E0888F9B8D8C8DEB
:1019D000981305C0E889F989808185FD23C0F62E1A
:1019E0000B8D10E00F5F1F4F0F731127E02E8C8DB2
:1019F000E8120BC00FB607FCFACFE889F98980819D
:101A000085FFF5CFCE01B8DFF2CF8B8DFE01E80F59
:101A1000F11DE35AFF4FF0820B8FEA89FB89808129
:101A2000806207C0EE89FF896083E889F989808137
:101A30008064808381E090E0DF91CF911F910F91CE
:101A4000FF90EF900895CF93DF93EC01888D88236A
:101A5000C1F0EA89FB89808185FD05C0A889B98923
:101A60008C9186FD0EC00FB607FCF5CF808185FFF7
:101A7000F2CFA889B9898C9185FFEDCFCE017CDFAB
:101A8000E8CFDF91CF91089580E090E0892B19F0A5
:101A90006ADF811125C080E090E0892B41F080E071
:101AA00090E0892B21F00E94000081111CC080E091
:101AB00090E0892B41F080E090E0892B21F00E949A
:101AC0000000811113C080E090E0892BA1F080E03C
:101AD00090E0892B81F00E94000081110AC00895D6
:101AE0000E940000D8CF0E940000E1CF0E940000B9
:101AF000EACF0C94000008953FB7F8948091510606
:101B000090915206A0915306B091540626B5A89B19
:101B100005C02F3F19F00196A11DB11D3FBFBA2F7F
:101B2000A92F982F8827820F911DA11DB11DBC01DF
:101B3000CD0142E0660F771F881F991F4A95D1F7A4
:101B4000089508959091FD0591110C94F50328E0F6
:101B500030E040E8E0910006F0910106508190915C
:101B60000706909595239083E091FE05F091FF057F
:101B700090910606542F582319F05081952B03C0DD
:101B80005081909595239083E0910006F091010695
:101B9000508190910706952B9083469521503109ED
:101BA000C9F608950E94E920EAE0F6E09091300538
:101BB000918382838FEF8683458367708481807EE3
:101BC000682B6483CF010895CF93C82F8091F805C7
:101BD0008F3F51F1E0910206F091030680819091D0
:101BE0000806982B9083E0910406F0910506208169
:101BF00090910906909592239083E0910206F091CE
:101C000003062081909108069095922390838C2F53
:101C100099DFE0910206F091030690818091080619
:101C2000892B8083CF9108958091F60591E0909360
:101C30000D058093550610920E0510922F0560E059
:101C400080ED95E0D8DA6C2F80ED95E0D4DACF9175
:101C5000C5CDEF92FF920F931F93CF93DF9381E255
:101C6000B3DF80E0B1DF8FE7AFDF82E2ADDF80E09E
:101C7000ABDF83E0A9DF8091F8058F3F71F1E09140
:101C80000206F0910306908180910806892B8083DB
:101C9000E0910406F0910506908180910906892B58
:101CA0008083E0910206F0910306908180910806FE
:101CB000809589238083C1E3D2E0899143DF84E06A
:101CC000C133D807D1F7E0910206F0910306908165
:101CD00080910806892B80832DC0F090B8008CE09D
:101CE0008093B800C1E3D2E0EE24E3948091F6053E
:101CF000E0920D058093550610920E0510922F0567
:101D000060E480ED95E077DA00E010E0FE01E00F9E
:101D1000F11F608180ED95E06EDA0F5F1F4F00319B
:101D20001105A1F75BDD609684E0C133D807F1F6B9
:101D3000F092B800DF91CF911F910F91FF90EF903B
:101D40000895009761F0FC0101900020E9F73197B8
:101D5000AF01481B590BBC018CED95E09CCD80E098
:101D600090E008958F929F92AF92BF920F931F932E
:101D7000CF93DF93CDB7DEB7A1970FB6F894DEBF50
:101D80000FBECDBF19A2423008F44AE08E010F5DAC
:101D90001F4F842E912CA12CB12CA50194010E94DF
:101DA000AB20E62FB901CA0101501109EA3014F441
:101DB000E05D01C0E95CD801EC93232B242B252B9B
:101DC00061F7C801BEDFA1960FB6F894DEBF0FBE63
:101DD000CDBFDF91CF911F910F91BF90AF909F909A
:101DE0008F90089580E092E0E1E3F2E0DF019C0152
:101DF0001D9221503040E1F7089590E0FC01E85336
:101E0000FE4F2491FC01EE57FE4F8491882399F0F8
:101E100090E0880F991FFC01E859FE4FA591B491FD
:101E2000FC01E25BFE4F859194918FB7F894EC91A1
:101E3000E22BEC938FBF089580912F0682958695B3
:101E40008770813019F4809132060895811105C0A0
:101E500082E396E00C940720089580E0089541E025
:101E600063E080E0A1DE69EA74E004DC0C948E0596
:101E7000CF92DF92EF92FF92CF93DF936B017C01C1
:101E8000E091DC05F091DD050190F081E02D6DE23F
:101E90008CED95E01995EC0166277727CB016C193D
:101EA0007D098E099F094AE05DDF8C0F9D1FDF9140
:101EB000CF91FF90EF90DF90CF900895BC01990FE4
:101EC000880B990B97FDD4CF4AE04CCF1F920F920D
:101ED0000FB60F9211240BB60F922F933F934F938F
:101EE0005F936F937F938F939F93AF93BF93EF9382
:101EF000FF9383E395E040DDFF91EF91BF91AF91B8
:101F00009F918F917F916F915F914F913F912F9111
:101F10000F900BBE0F900FBE0F901F9018951F9241
:101F20000F920FB60F9211240BB60F922F938F932F
:101F30009F93EF93FF93E0914305F09144058081D7
:101F4000E0914905F0914A0582FD12C0908180918F
:101F50004C058F5F8F7320914D05821751F0E091F2
:101F60004C05F0E0ED5CFA4F958F80934C0501C075
:101F70008081FF91EF919F918F912F910F900BBED8
:101F80000F900FBE0F901F901895362F90E0FC0118
:101F9000E85FFE4F4491FC01E853FE4F2491FC01A1
:101FA000EE57FE4F9491992309F46BC0442309F432
:101FB00055C050E0FA013197E231F10508F04EC00A
:101FC0008827EE58FF4F8F4F0C94CD2080918000D2
:101FD0008F7707C0809180008F7D03C08091800043
:101FE000877F809380003AC084B58F7702C084B524
:101FF0008F7D84BD33C08091B0008F7703C0809106
:10200000B0008F7D8093B00029C0809190008F77C1
:1020100007C0809190008F7D03C080919000877FE2
:10202000809390001BC08091A0008F7707C08091A3
:10203000A0008F7D03C08091A000877F8093A000C7
:102040000DC0809120018F7707C0809120018F7D86
:1020500003C080912001877F80932001E92FF0E069
:10206000EE0FFF1FE25BFE4FA591B4918FB7F8947E
:10207000EC91311103C020952E2301C02E2B2C93FF
:102080008FBF08958F929F92AF92BF92CF92DF92AF
:10209000EF92FF926B017C012FDD4B015C01C114BB
:1020A000D104E104F104E9F027DDDC01CB0188195A
:1020B0009909AA09BB09883E9340A105B10578F3A7
:1020C00021E0C21AD108E108F10888EE880E83E009
:1020D000981EA11CB11CC114D104E104F10421F724
:1020E000DECFFF90EF90DF90CF90BF90AF909F90AA
:1020F0008F9008952FB7F89460914D0670914E0619
:1021000080914F06909150062FBF0895CF92DF9295
:10211000EF92FF92CF93DF93D82FECDF6B017C011E
:1021200081E0D11180E080933006C0E0E3DFAB01B5
:10213000BC014C195D096E097F09403D574061059E
:10214000710580F4C1110EC0A8950E94940590916C
:102150002F069770933051F7C1E0809130068D13B0
:10216000E4CFE4CF8C2FDF91CF91FF90EF90DF9001
:10217000CF9008951F920F920FB60F9211242F93B4
:102180003F938F939F93AF93BF9380914D06909110
:102190004E06A0914F06B091500630914C0623E0B8
:1021A000230F2D3720F40196A11DB11D05C026E88F
:1021B000230F0296A11DB11D20934C0680934D065E
:1021C00090934E06A0934F06B0935006809151060F
:1021D00090915206A0915306B09154060196A11D0C
:1021E000B11D8093510690935206A0935306B0936D
:1021F0005406BF91AF919F918F913F912F910F9076
:102200000FBE0F901F9018951F920F920FB60F924E
:1022100011240BB60F922F933F934F935F936F93BD
:102220007F938F939F93AF93BF93EF93FF93E0912F
:102230002F02F09130021995FF91EF91BF91AF916C
:102240009F918F917F916F915F914F913F912F91CE
:102250000F900BBE0F900FBE0F901F9018951F92FE
:102260000F920FB60F9211240BB60F922F933F933C
:102270004F935F936F937F938F939F93AF93BF938E
:10228000EF93FF93E0912D02F0912E021995FF91AB
:10229000EF91BF91AF919F918F917F916F915F91DE
:1022A0004F913F912F910F900BBE0F900FBE0F904B
:1022B0001F9018951F920F920FB60F9211240BB614
:1022C0000F922F933F934F935F936F937F938F93CF
:1022D0009F93AF93BF93EF93FF93E0912302F0910D
:1022E00024021995FF91EF91BF91AF919F918F912A
:1022F0007F916F915F914F913F912F910F900BBE06
:102300000F900FBE0F901F9018951F920F920FB64F
:102310000F9211240BB60F922F933F934F935F931D
:102320006F937F938F939F93AF93BF93EF93FF939D
:10233000E0912102F09122021995FF91EF91BF9156
:10234000AF919F918F917F916F915F914F913F914D
:102350002F910F900BBE0F900FBE0F901F901895EE
:102360001F920F920FB60F9211240BB60F922F935C
:102370003F934F935F936F937F938F939F93AF930D
:10238000BF93EF93FF93E0912B02F0912C021995EC
:10239000FF91EF91BF91AF919F918F917F916F913D
:1023A0005F914F913F912F910F900BBE0F900FBEF9
:1023B0000F901F9018951F920F920FB60F92112435
:1023C0000BB60F922F933F934F935F936F937F932F
:1023D0008F939F93AF93BF93EF93FF93E091290265
:1023E000F0912A021995FF91EF91BF91AF919F91C2
:1023F0008F917F916F915F914F913F912F910F90AE
:102400000BBE0F900FBE0F901F9018951F920F924A
:102410000FB60F9211240BB60F922F933F934F9349
:102420005F936F937F938F939F93AF93BF93EF933C
:10243000FF93E0912702F09128021995FF91EF9107
:10244000BF91AF919F918F917F916F915F914F91CC
:102450003F912F910F900BBE0F900FBE0F901F90CA
:1024600018951F920F920FB60F9211240BB60F9270
:102470002F933F934F935F936F937F938F939F938C
:10248000AF93BF93EF93FF93E0912502F091260263
:102490001995FF91EF91BF91AF919F918F917F918E
:1024A0006F915F914F913F912F910F900BBE0F90C5
:1024B0000FBE0F901F9018956093E2047093E30491
:1024C0008093E4049093E504DC01CB01845D9E4F8E
:1024D000AF4FBF4F8093DE049093DF04A093E004DE
:1024E000B093E10482E090E09093DD048093DC04FB
:1024F00001DE6093D8047093D9048093DA0490933A
:10250000DB0408956F927F928F929F92AF92BF9259
:10251000CF92DF92EF92FF920F931F93CF93DF93AF
:10252000EC014B015A0169013801E881F98102840B
:10253000F385E02D1995E881F9810288F389E02D72
:1025400087019601A501B401CE011995E881F981B1
:10255000A501460D571D415051090288F389E02D10
:102560009601B401CE011995E881F9810088F189BD
:10257000E02D9301A501B401CE011995E881F981FF
:10258000C80CD91CB601615071090088F189E02D91
:102590009301A501CE011995E881F9810688F78993
:1025A000E02DCE01DF91CF911F910F91FF90EF9021
:1025B000DF90CF90BF90AF909F908F907F906F9063
:1025C0001994CF92DF92EF92FF920F931F93CF93C4
:1025D000DF9300D000D0CDB7DEB76C01DC01ED9108
:1025E000FC916217730789F4041715072CF4942FD4
:1025F000852FA801092F182F041B150B98012F5F99
:102600003F4F048CF58DE02D12C04017510709F59E
:10261000261737072CF4962F872FB901292F382F2B
:10262000261B370B2F5F3F4F068CF78DE02D870160
:10263000C601199526960FB6F894DEBF0FBECDBF22
:10264000DF91CF911F910F91FF90EF90DF90CF908E
:1026500008950284F385E02D2D833E834B835C83B4
:1026600069837A831995D601ED91FC910488F589E7
:10267000E02D2D813E814B815C8169817A81C6018B
:102680001995D601ED91FC910688F789E02DC601D8
:1026900026960FB6F894DEBF0FBECDBFDF91CF9167
:1026A0001F910F91FF90EF90DF90CF901994EF92D0
:1026B000FF920F931F93DC01ED91FC9111971A96F5
:1026C0000D911C911B9718962D913C91199700A084
:1026D000F1A1E02D7B0140E050E060E070E0199551
:1026E0001F910F91FF90EF9008954F925F926F921C
:1026F0007F928F929F92AF92BF92CF92DF92EF9292
:10270000FF920F931F93CF93DF931F921F92CDB72A
:10271000DEB76C015A0139014801DC01ED91FC91F1
:102720000284F385E02D69837A8319956981462EA9
:102730007A81572E640C751CD601ED91FC914614DC
:1027400057046CF40088F189E02D87019401A501FC
:10275000B201C6011995BFEF4B1A5B0AEDCF06888F
:10276000F789E02DC6010F900F90DF91CF911F9157
:102770000F91FF90EF90DF90CF90BF90AF909F9020
:102780008F907F906F905F904F901994AF92BF920F
:10279000CF92DF92EF92FF920F931F93CF93DF932D
:1027A00000D01F92CDB7DEB75C016901DC01ED916D
:1027B000FC910284F385E02D4B835C8369837A83EB
:1027C0001995D501ED91FC9169817A819B012C0DC0
:1027D0003D1D215031090488F589E02D78014B8198
:1027E0005C818A01C5011995D501ED91FC9106889E
:1027F000F789E02DC5010F900F900F900F90DF919A
:10280000CF911F910F91FF90EF90DF90CF90BF90ED
:10281000AF901994AF92BF92CF92DF92EF92FF9256
:102820000F931F93CF93DF9300D01F92CDB7DEB7E6
:102830005C016901DC01ED91FC910284F385E02DDE
:102840004B835C8369837A831995D501ED91FC9163
:102850004B815C81C40ED51EB1E0CB1AD10804882F
:10286000F589E02D7801860169817A819B01C50196
:102870001995D501ED91FC910688F789E02DC501E8
:102880000F900F900F900F90DF91CF911F910F91AC
:10289000FF90EF90DF90CF90BF90AF901994089584
:1028A000EF92FF920F931F93DC01ED91FC9100A03A
:1028B000F1A1E02D19951F910F91FF90EF900895D0
:1028C0000F931F93DC01ED91FC91068CF78DE02DA9
:1028D00019951F910F9108950F931F93DC01ED91AE
:1028E000FC91048CF58DE02D19951F910F910895A1
:1028F000DC01ED91FC910084F185E02D199408959F
:102900002F923F924F925F926F927F928F929F92FF
:10291000AF92BF92CF92DF92EF92FF920F931F93ED
:10292000CF93DF9300D0CDB7DEB74C017B836A83B2
:102930006A01590117019801241B350B37FF03C0A9
:10294000319521953109C5014A815B81841B950B25
:1029500097FF03C091958195910951E059838217A2
:10296000930714F019820BC09A2D8B2D5801092F53
:10297000182F9A818B81DB82CA82C92ED82E8A8138
:102980009B81A816B9065CF49C2D8D2D6801092F3A
:10299000182F9A818B81BB82AA82A92EB82E25017D
:1029A000AA81BB814A1A5B0A38016C187D0877FE40
:1029B00003C0719461947108720157FE03C0BFEFA8
:1029C000EB1AFB0AF594E794C016D1061CF00FEF42
:1029D0001FEF1FC001E010E01CC0D401ED91FC917D
:1029E000B9810484F585E02D9101BB23C1F04A81B2
:1029F0005B81B601C4011995E618F708F7FE04C01B
:102A0000C00ED11EE40CF51CEA81FB813196FB83DC
:102A1000EA834A815B81A416B506FCF604C0A601D0
:102A20006A817B81E7CF0F900F900F90DF91CF915C
:102A30001F910F91FF90EF90DF90CF90BF90AF90DC
:102A40009F908F907F906F905F904F903F902F90CE
:102A5000089585ED8093BC008091BC0084FDFCCF7F
:102A600010920C050895089581E090E0309177066A
:102A700020917606321710F480E090E091958195D0
:102A8000910908952F923F924F925F926F927F9299
:102A90008F929F92AF92BF92CF92DF92EF92FF926E
:102AA0000F931F93CF93DF93CDB7DEB76C970FB61D
:102AB000F894DEBF0FBECDBF9C8F8B8F5B011A01D8
:102AC0001F830E833701C982DC0158964D915C91BA
:102AD00059974115510509F0E5C018968D919C91C3
:102AE0001997681779070CF0CAC11A968D919C91B5
:102AF0001B97281639060CF0C2C18C2C912CFB01B7
:102B000036E0C39EE00DF11D1124FB87EA871E16F7
:102B10001F060CF0B4C1C40133E0880F991F3A9529
:102B2000E1F79D878C87820D931D181619060CF00E
:102B3000A6C157968C91811103C0203B08F02F5FEE
:102B4000AB8DBC8DED91FC9111970284F385E02D46
:102B5000CD012A8F19952A8DB5E02B9F9001112464
:102B6000F5013596FF87EE87BB82AA822501A90170
:102B70004A195B09598B488BC10108969B8B8A8B3C
:102B8000E889F989E40DF51DE25FFD4F949198877E
:102B900061013D822C82A885A0FF13C0AB8DBC8D46
:102BA000ED91FC91B981B13031F40484F585E02DCB
:102BB0002E813F8116C00684F785E02DEE80FF80D0
:102BC0001AC0EE81FF816E167F06F1F0AB8DBC8DD1
:102BD000ED91FC91B981B13051F40484F585E02D7B
:102BE0009301A601B2018B8D9C8D19950DC00684B1
:102BF000F785E02D7301840194014C815D816A8128
:102C00007B818B8D9C8D1995E885E695E887FFEF94
:102C1000CF1ADF0A2C813D81280D391D3D832C837D
:102C20004A895B89C416D50609F0B5CF5FEF451A0E
:102C3000550A8A819B81880D991D9B838A83AE8565
:102C4000BF854A165B0609F09BCFEE81FF816E16A9
:102C50007F0609F4F2C0EB8DFC8DA081B181F98172
:102C6000F13079F4B5016B5F7F4F5096ED91FC9197
:102C70005197830128E030E0A1018B8D9C8D19953F
:102C8000DCC06A857B85681979091E96ED91FC91F7
:102C90001F9773010C851D859401A1018B8D9C8D5F
:102CA0001995CBC0FA01349694913297659174913D
:102CB000291BCB01B7E02B9F800D911D1124FA0138
:102CC000259134913B8B2A8BFC01459154915B8378
:102CD0004A83FC013296C490319654915E873296B5
:102CE00014913196D4908981823058F0612E012E52
:102CF000000C7708AD2D0D2C000CBB0BB987A887F5
:102D000004C019861886612C712CAB8DBC8DED9199
:102D1000FC9111970284F385E02DCD011995B981BD
:102D20008B2E912C689CC001699C900D789C900D15
:102D30001124FC01EA0DFB1DFD87EC871C82712C20
:102D4000612CE12F110FFF0B95012E0F3F1F3B87C9
:102D50002A87AC0CB11CA5014E0F5F1F5F8B4E8BF9
:102D6000C1018D0D911DD7FC9A95998F888F4E8545
:102D7000641608F062C0862D90E048855985480F9A
:102D8000591F489D9001499D300D589D300D1124CB
:102D9000D901A20DB31DB98BA88BAA84BB844C8426
:102DA0005D84DC80BA85DB1AE88DF98DE80FF91FA8
:102DB000FD8BEC8B8D2D8A0D2E893F89A216B306D3
:102DC000B9F1877061F48A819B810196EA89FB8958
:102DD000AA81BB81EA0FFB1F74909B838A8377FED5
:102DE00020C0AB8DBC8DED91FC91B981B13061F407
:102DF0000484F585E02D2E813F814C895D89B501E4
:102E00008B8D9C8D19950DC00684F785E02DEE8085
:102E1000FF808401940148895989B2018B8D9C8D72
:102E20001995770CEFEFAE1ABE0A480C591CC2CFA9
:102E30003C813C0D3C8363949ACFAB8DBC8DED916E
:102E4000FC9111970688F789E02DCD016C960FB69D
:102E5000F894DEBF0FBECDBFDF91CF911F910F91D0
:102E6000FF90EF90DF90CF90BF90AF909F908F90AA
:102E70007F906F905F904F903F902F9019946C9639
:102E80000FB6F894DEBF0FBECDBFDF91CF911F917B
:102E90000F91FF90EF90DF90CF90BF90AF909F90F9
:102EA0008F907F906F905F904F903F902F900895FC
:102EB000CF93CFB7F8948091BF06811123C0E7EB81
:102EC000F1E08491EDEFF1E09491E82FF0E0EE0F66
:102ED000FF1FE859FE4FA591B491EC91E92319F435
:102EE00061E085E352D885E30E94FD0E8CB58061D8
:102EF0008CBD8CB580648CBD84E30E94FD0E83E3A1
:102F00000E94FD0E8091BF068F5F8093BF06CFBFEA
:102F1000CF9108951F920F920FB60F9211240BB606
:102F20000F922F933F934F935F936F937F938F9362
:102F30009F93AF93BF93EF93FF938091B900887FE6
:102F4000803609F49CC068F5883209F45BC090F4BF
:102F5000803109F454C038F4882309F4F6C088306D
:102F600009F44DC0F5C0883109F44CC0803209F431
:102F70005DC0EEC0803409F468C048F4803309F4C1
:102F800055C0883309F0E4C080930A05D8C0803565
:102F900009F44FC0883509F45DC0883409F0D8C001
:102FA000D6C0883909F4C7C0A8F4883709F467C0C7
:102FB00038F4883609F463C0803709F460C0C8C0AB
:102FC000883809F4B8C0803909F45FC0803809F046
:102FD000BFC05BC0803B09F486C038F4803A09F476
:102FE00066C0883A09F47FC0B3C0803C09F4A7C02A
:102FF000883C09F4A4C0883B09F48AC0A9C0809128
:10300000E70410C09091090580910805981770F5A4
:10301000E091090581E08E0F80930905F0E0E85109
:10302000FB4F80818093BB0085EC86C080930A05AE
:103030008EC0E091090581E08E0F80930905809193
:10304000BB00F0E0E851FB4F80839091090580912F
:1030500008056EC0E091090581E08E0F8093090597
:103060008091BB00F0E0E851FB4F808380910B051D
:1030700081116DC081E08093E60484EA61C083E041
:1030800080930C051092BE06CFCF8091BE06803291
:1030900008F051C0E091BE0681E08E0F8093BE061D
:1030A0008091BB00F0E0E256F94F8083BDCF85EC04
:1030B0008093BC0010920C058091BE06803230F4E3
:1030C000E091BE06F0E0E256F94F10826091BE0634
:1030D00070E0E0919C06F0919D068EE996E01995CE
:1030E0001092BE0635C084E080930C0510929B06BA
:1030F00010929A06E0919806F091990619958091A0
:103100009A06811105C081E080939A061092780694
:10311000E0919B0681E08E0F80939B06F0E0E858DB
:10312000F94F80818093BB0090919B0680919A0615
:10313000981708F479CF85E88093BC0009C085EC26
:103140008093BC0010920C0503C010920A0581DC2C
:10315000FF91EF91BF91AF919F918F917F916F916F
:103160005F914F913F912F910F900BBE0F900FBE2B
:103170000F901F90189540919A06262F30E0240F4B
:10318000311D21323105DCF420910C052430C9F4C5
:10319000FC0180E090E0861758F430919A06219166
:1031A000DC01A858B94FA30FB11D2C930196F3CFA2
:1031B00080919A06680F60939A0680E0089581E0F6
:1031C000089582E008950F931F93CF93DF93DC015E
:1031D00055968C915597823071F0833009F181308A
:1031E00009F08CC01496ED91FC911597E41BF50B3A
:1031F000E21BF30B20C01496ED91FC911597CF01C3
:10320000861B970BBC01615071091696ED91FC91DC
:103210001797CF01841B950BAC01421B530B6EC05B
:103220001696ED91FC911797CF01861B970BBC0169
:1032300061507109FA0177FD1BC116968D919C9121
:103240001797681779070CF013C1F7FF04C02E0F0A
:103250003F1FE0E0F0E014968D919C911597AF012F
:10326000420F531F841795071CF49C012E1B3F0B24
:10327000121613060CF0FCC0CB0177FD079643E055
:10328000959587954A95E1F79695982F8827979574
:103290008795E80FF91FEF5CFD4F6770772781E096
:1032A00090E001C0880F6A95EAF7482F01301105B8
:1032B00041F088F00230110509F0DAC02E0F3F1FEF
:1032C00015C02E0F3F1FE217F30709F4D1C080810C
:1032D000842B8193F8CF80952E0F3F1FE217F307C1
:1032E00009F4C6C0908198239193F8CFE217F307B1
:1032F00009F4BEC0808184278193F8CF77FDB8C0E0
:1033000014968D919C911597681779070CF0B0C0B1
:1033100057FF04C0240F351F40E050E016968D91F2
:103320009C911797FA01E20FF31F8E179F071CF469
:103330009C01241B350B121613060CF099C0A22F0A
:10334000842F86958695869590E8899F600D711DDE
:103350001124FB01EF5CFD4F4770A9F198E0941B2D
:10336000492F50E0EA01C357DB4F8881291790F4B9
:10337000421B51092FEF30E002C0359527954A9541
:10338000E2F782230130110541F068F002301105A7
:1033900089F06EC00130110519F42081822B0CC018
:1033A0000130110520F480952081822305C0023070
:1033B000110531F4208182278083A91708F458C0B1
:1033C000A91BE058FF4FA83048F10230110559F40D
:1033D000EF018A2F988190959883C058DF4F8850CD
:1033E0008830C0F730C081E00130110509F080E07D
:1033F0008195EF019A2F8883C058DF4F98509830FD
:10340000D0F788EF8A0F86958695869590E8899FF4
:10341000E00DF11D1124E058FF4FA770AA2341F1E0
:10342000B0E0AB57BB4F8C910130110529F038F05B
:1034300002301105D1F01CC09081892B18C08095F5
:103440009081892314C088EF8A0F8695869586958A
:1034500090E8899FE00DF11D1124E058FF4FA770FF
:1034600039F0B0E0AB57BB4F8C91908189278083B6
:10347000DF91CF911F910F9108950F931F93CF93D9
:10348000DF93DC01FB0155968C915597823081F0DA
:10349000833019F1813051F514968D919C911597D7
:1034A000BC01641B750BAB0141505109BF0181C0C8
:1034B00014966D917C911597CB018E1B9F0BFC018F
:1034C00016968D919C911797BC01641B750BAB01EF
:1034D00041505109E21BF30B09C016966D917C9186
:1034E00017976E1B7F0B621B730B63C057FD1CC1CC
:1034F00016968D919C911797481759070CF014C197
:10350000F7FF04C02E0F3F1FE0E0F0E014968D910E
:103510009C911597BF01620F731F861797071CF4C4
:103520009C012E1B3F0B121613060CF0FDC0CA01A6
:1035300057FD079663E0959587956A95E1F796950F
:10354000982F882797958795E80FF91FEF5CFD4F17
:103550004770552781E090E001C0880F4A95EAF74F
:10356000482F0130110541F088F00230110509F0B3
:10357000DBC02E0F3F1F15C02E0F3F1FE217F307B2
:1035800009F4D2C08081842B8193F8CF80952E0FCF
:103590003F1FE217F30709F4C7C090819823919366
:1035A000F8CFE217F30709F4BFC080818427819325
:1035B000F8CF57FDB9C014968D919C911597481777
:1035C00059070CF0B1C077FF04C0260F371F60E029
:1035D00070E016968D919C911797FB01E20FF31FF7
:1035E0008E179F071CF49C01261B370B121613061F
:1035F0000CF09AC0A22F862F86958695869590E826
:10360000899F400D511D1124FA01EF5CFD4F677039
:10361000A9F198E0961B492F50E0EA01C357DB4F10
:103620008881291790F4421B51092FEF30E002C026
:10363000359527954A95E2F782230130110541F02F
:1036400068F00230110589F06FC00130110519F4DE
:103650002081822B0CC00130110520F4809520813F
:10366000822305C00230110531F420818227808336
:10367000A91708F459C0A91BE058FF4FA83048F11A
:103680000230110559F4EF018A2F988190959883A3
:10369000C058DF4F88508830C0F731C081E001301A
:1036A000110509F080E08195EF019A2F8883C058B9
:1036B000DF4F98509830D0F788EF8A0F869586951F
:1036C000869560E8869FE00DF11D1124E058FF4FBC
:1036D000A770AA2349F1B0E0AB57BB4F8C910130E2
:1036E000110529F038F002301105D9F01DC0908184
:1036F000892B03C0809590818923808315C088EF32
:103700008A0F86958695869570E8879FE00DF11D56
:103710001124E058FF4FA77039F0B0E0AB57BB4F12
:103720008C9190818927E9CFDF91CF911F910F91E3
:103730000895FC0177FD9AC0808591856817790707
:103740000CF094C057FD92C08285938548175907A5
:103750000CF08CC08589823009F07CC08481958111
:10376000DC01A61BB70BBD016150710986819781F1
:10377000FC01E41BF50BAF01415051090AC0813037
:1037800041F484819581841B950BAB01BC01615090
:1037900071092130310529F008F122303105E1F1BC
:1037A0000895FA0157FD3796A3E0F595E795AA9598
:1037B000E1F7F695FE2FEE27F795E7956E0F7F1F41
:1037C000FB01EF5CFD4F4770552781E090E001C0A1
:1037D000880F4A95EAF79081892B3AC0FA0157FD84
:1037E000379623E0F595E7952A95E1F7F695FE2FB4
:1037F000EE27F795E7956E0F7F1FFB01EF5CFD4FFE
:103800004770552781E090E001C0880F4A95EAF79C
:103810008095908189231CC0FA0157FD379683E07B
:10382000F595E7958A95E1F7F695FE2FEE27F79542
:10383000E7956E0F7F1FFB01EF5CFD4F477055272B
:1038400081E090E001C0880F4A95EAF790818927CE
:1038500080830895833009F092CF86819781861BFB
:10386000970BBA01AC014150510993CF08950895C7
:10387000FC016370658B848195812681378161307D
:1038800039F0633029F09187808733872287089544
:1038900031872087938782870895AF92BF92CF9216
:1038A000EF92FF920F931F93CF93DF93EC01262F9C
:1038B000888D998D009709F03FC06A3059F41D86B4
:1038C0001C862C898E859F8538E0239F800D911D55
:1038D000112440C06D3009F4A8C08E898823C1F03E
:1038E0003C898C859D8546E0349F800D911D112477
:1038F00048855985481759075CF41D861C868E85B6
:103900009F8548E0349F800D911D11249F878E87ED
:10391000EA88FB88088919894E855F856C857D85D5
:10392000CC88CE01AFD82C898C859D8536E0239F2D
:10393000800D911D112442C06A3079F41D861C86C9
:103940002C89FC013696E4918E859F852E9F800DF3
:10395000911D11249F878E8768C06D3009F465C062
:10396000FC0134963491631708F45FC03196E491FA
:10397000E61708F45AC0FC013296A590B490462F81
:1039800050E0431B510937E0349FB001359F700D63
:103990001124A60EB71EF501329634913196E491AA
:1039A000332311F0E1110DC0F5013496E4912C8917
:1039B0008C859D85E29F800D911D11249D878C87AC
:1039C00034C0F501359644915E89552311F16C8917
:1039D000E32FF0E0E40FF11D47FDFA956E9FD00153
:1039E0006F9FB00D11244C855D854A0F5B1FE885E4
:1039F000F985E417F5076CF41D861C86FC013696E4
:103A0000E4918E859F856E9F800D911D11249F8767
:103A10008E87EA88FB88088919894E855F856C85C1
:103A20007D85CC88CE012ED8BFCF81E090E0DF919C
:103A3000CF911F910F91FF90EF90CF90BF90AF90DB
:103A40000895CF92DF92EF92FF920F931F930E94FF
:103A50007A10C090D804D090D904E090DA04F090A5
:103A6000DB048B019C010C191D092E093F09809173
:103A7000E2049091E304A091E404B091E504083ECF
:103A8000134021053105D0F00196A11DB11D809391
:103A9000E2049093E304A093E404B093E504B70137
:103AA000A60148515C4F6F4F7F4F4093D80450930D
:103AB000D9046093DA047093DB04C9CF4091DE042B
:103AC0005091DF046091E0047091E1048417950740
:103AD000A607B70788F1E091CB06F091CC063097A6
:103AE00059F11995611571058105910519F00E942B
:103AF0005C1222C08091E2049091E304A091E4045E
:103B0000B091E504845D9E4FAF4FBF4F8093DE04BC
:103B10009093DF04A093E004B093E10481E090E08F
:103B20002091DC043091DD04232B11F480E090E03F
:103B30009093DD048093DC046091E2047091E304CF
:103B40008091E4049091E5041F910F91FF90EF9014
:103B5000DF90CF9008954F925F926F927F928F92F5
:103B60009F92AF92BF92CF92DF92EF92FF920F930C
:103B70001F93CF93DF934B015C018091C706909117
:103B8000C806A091C906B091CA0688169906AA0669
:103B9000BB0609F4B8C08CE3C82ED12CE12CF12C63
:103BA000C501B401A7019601D6D26093C006CA012F
:103BB000B901A7019601CFD26093C106CA01B9012C
:103BC00028E130E040E050E0C6D269017A0160931C
:103BD000C206CA01B9016C5F7F4F8F4F9F4F27E02C
:103BE00030E040E050E0B7D26F5F6093C306412CF5
:103BF000512C320140E004E610E0C0E9D1E0242F6E
:103C000030E02E54384FF901E370FF27309779F4F4
:103C1000C901B8018DD2892B29F4C901BE0188D20E
:103C2000892B29F48EE691E0A0E0B0E004C08DE697
:103C300091E0A0E0B0E0480E591E6A1E7B1ED30141
:103C4000C201AA27BB27C816D906EA06FB0610F050
:103C50004F5FD5CF4093C606309789F4C90164E61B
:103C600070E066D2892B31F4C90160E971E060D25D
:103C7000892B29F48EE691E0A0E0B0E004C08DE647
:103C800091E0A0E0B0E0481A590A6A0A7B0AC41819
:103C9000D508E608F708C90164E670E049D2EC01EE
:103CA000C90160E971E044D2A5E9B4E020E0213027
:103CB00039F4309749F4209729F4009729F402C089
:103CC0004C9103C04DE101C04CE150E060E070E078
:103CD000C416D506E606F70640F0C41AD50AE60A69
:103CE000F70A2F5F11962C3011F72F5F2093C5062E
:103CF000C394C092C4068092C7069092C806A09250
:103D0000C906B092CA06DF91CF911F910F91FF9023
:103D1000EF90DF90CF90BF90AF909F908F907F906B
:103D20006F905F904F900895789484B5826084BDC1
:103D300084B5816084BD85B5826085BD85B58160AF
:103D400085BD80916E00816080936E00109281002D
:103D500080918100826080938100809181008160E8
:103D600080938100809180008160809380008091A9
:103D7000B10084608093B1008091B0008160809335
:103D8000B0008091910082608093910080919100B9
:103D90008160809391008091900081608093900079
:103DA0008091A10082608093A1008091A100816038
:103DB0008093A1008091A00081608093A0008091F9
:103DC0002101826080932101809121018160809393
:103DD00021018091200181608093200180917A00EF
:103DE000846080937A0080917A00826080937A0068
:103DF00080917A00816080937A0080917A00806857
:103E000080937A001092C100A89580E090E0892B01
:103E100011F00E940000E0914305F091440582E01A
:103E20008083E0913F05F09140051082E0914105CB
:103E3000F091420580E1808310924B05E0914705A7
:103E4000F091480586E08083E0914505F0914605B4
:103E5000808180618083E0914505F09146058081F5
:103E600088608083E0914505F091460580818068F7
:103E70008083E0914505F091460580818F7D8083A8
:103E80008091CE048D7F8093CE0441E050E063E0CA
:103E900071E08DEC94E01BD16FEF81E090E036D1C2
:103EA0008091C9048F788093C9041092BF04109246
:103EB000BE048DE192E00E9445078AEB9BE090935F
:103EC000CC048093CB040E947A100E947A100E9446
:103ED0009405A8958091C80482FFF7CF0E941A0A22
:103EE000A895A8950E9494050E9447090E94440D38
:103EF000F8CFCF93DF93E3E3F5E01382128288EEED
:103F000093E0A0E0B0E084839583A683B78329E3A0
:103F100034E03183208325EC30E03587248724EC9E
:103F200030E03787268720EC30E0318B208B21EC86
:103F300030E0338B228B22EC30E0358B248B26EC67
:103F400030E0378B268B118E128E138E148EE0ED9F
:103F5000F5E01382128284839583A683B7838BE472
:103F600094E091838083EBE2F6E01082118212826A
:103F70001482158216829AE1A2E3B6E0ED01892F40
:103F800019928A95E9F782E08383EAE0F6E01082ED
:103F900011821282148215821682A1E1B6E0ED012F
:103FA00019929A95E9F78383ECEDF5E0138212827A
:103FB00020E830E03583248380E290E09783868395
:103FC0003187208793878287158A158614861786FE
:103FD000168681E0848B2FEF3FEF338B228B318B62
:103FE000208B868B178A118E108E8DE594E091833D
:103FF00080838CE080A38DE0878F8BE0868F8AE0C2
:10400000858F89E0848F11A2DF91CF910895FC0103
:1040100088279927E89421912032E9F3293010F07C
:104020002E30C8F32B3239F02D3231F4689403C0AE
:1040300046D0820F911D219120532A30C8F31EF4DF
:10404000909581959F4F08951F93FC01992788278C
:10405000BC01E89411911032E9F3193010F01E30D0
:10406000C8F31B3249F01D3241F4689405C012D0E8
:10407000610F711D811D911D119110531A30B8F3FC
:104080003EF490958095709561957F4F8F4F9F4F2F
:104090001F910895592F482F372F262F660F771F0E
:1040A000881F991F660F771F881F991F620F731F44
:1040B000841F951F660F771F881F991F08957AE048
:1040C000979F902D879F802D910D11240895DC01DD
:1040D000CB01FC01F999FECF06C0F2BDE1BDF89A13
:1040E000319600B40D9241505040B8F70895DC016C
:1040F000A40FB51F4150504040F0CB01840F951FD5
:104100002E9105D041505040D8F70895262FF999A7
:10411000FECF92BD81BDF89A019700B4021639F026
:104120001FBA20BD0FB6F894FA9AF99A0FBE0895F7
:1041300097FB072E16F4009406D077FD08D035D0F3
:1041400007FC05D03EF4909581959F4F089570959A
:1041500061957F4F0895A1E21A2EAA1BBB1BFD019A
:104160000DC0AA1FBB1FEE1FFF1FA217B307E40756
:10417000F50720F0A21BB30BE40BF50B661F771FAE
:10418000881F991F1A9469F760957095809590958E
:104190009B01AC01BD01CF010895EE0FFF1F881FE9
:1041A0008BBF0790F691E02D1994AA1BBB1B51E120
:1041B00007C0AA1FBB1FA617B70710F0A61BB70B97
:1041C000881F991F5A95A9F780959095BC01CD013C
:1041D000089581E090E0F8940FC0FB01DC014150AC
:1041E000504048F001900D920020C9F701C01D9287
:0C41F00041505040E0F70895F894FFCFD4
:1041FC00FFFFFF00FCE1A8A87B0471075D05CC075D
:10420C0045059807BA038F077305F407FFDF0324EE
:10421C0008A10DA10DA10DA10DA10DA10DA10DA127
:10422C000D00000000000000000000000000000075
:10423C000000000000000000000000000000000072
:10424C000000000000000000000000000000000062
:10425C000000000000000000000000000000000052
:10426C0080808000000000000000000000000000C2
:10427C0000008080C0C000000000000000000000B2
:10428C000000000000000000000000000000000022
:10429C000000000000000000000000000000000012
:1042AC000000000000000000000000000000000002
:1042BC00000000000080C0E0F0F8FCF8E000000016
:1042CC0000000000000000000000000000008080E2
:1042DC0080808000808000000000808080808000D2
:1042EC00FFFFFF00000000808080800000808000C5
:1042FC000080FFFF808000808000808080800080B4
:10430C00800000000000808000008C8E8400008003
:10431C00F8F8F88000000000000000000000000029
:10432C0000F0F0F0F0F0F0F0F0F0F0F0F0E0E0C0C1
:10433C008000E0FCFEFFFFFF7FFFFFFFFFFF0000A0
:10434C00000000000000000000000000FEFFC7019C
:10435C0001010183FFFF00007CFEC7010101018305
:10436C00FFFFFF0038FEC78301010183C7FFFF0079
:10437C000001FFFF010100FFFF0701010100007FA9
:10438C00FF80000000FFFF7F0000FFFFFF00000127
:10439C00FFFFFF0100000000000000000000000013
:1043AC0000030F3F7F7FFFFFFFFFFFFFFFE7C7C744
:1043BC008F8F9FBFFFFFC3C0F0FFFFFFFFFFFCFC11
:1043CC00FCFCFCFCFCFCF8F8F0F0E0C00001030382
:1043DC0003030301030300000000010303030301B3
:1043EC0001030100000001030303030101030300A7
:1043FC0000000303000000030300000000000000A5
:10440C00010303030303010000000103010000008A
:10441C000303010000000000000000000000000089
:10442C00002C01000000000000DD0C4B0C760C236E
:10443C000DA70C850C990C00000000FB08CB08C6DE
:10444C00083315BD08A9083415000000004D1C4B9D
:10445C000CC608C508991B7F14781450146C146092
:10446C001480144F14381C371CE3183D1A7513575D
:10447C0013E1128212000103070F1F3F7F0080C05F
:10448C00E0F0F8FCFE1F1C1F1E1F1E1F1F1E1F1E10
:10449C001F2F0020003A000D0A0052544320436C99
:0E44AC006F636B00312E3000322E312E310046
:00000001FF
