:100000000C94E2000C947F050C9458050C940A01A2
:100010000C940A010C940A010C9484040C940A01B7
:100020000C940A010C940A010C940A010C940A0124
:100030000C940A010C940A010C940A010C940A0114
:100040000C940E050C940A010C9455100C942F106E
:100050000C940A010C940A010C940A010C940A01F4
:100060000C940A010C940A01005EBCE2613FDD833E
:10007000C29C7E20A3FD1F419DC3217FFCA2401E88
:100080005F01E3BD3E6082DC237D9FC1421CFEA078
:10009000E1BF5D0380DE3C62BEE0025CDF81633D68
:1000A0007C22C09E1D43A1FF4618FAA427799BC558
:1000B00084DA3866E5BB5907DB856739BAE4065848
:1000C0001947A5FB7826C49A653BD987045AB8E638
:1000D000A7F91B45C6987A24F8A6441A99C7257B28
:1000E0003A6486D85B05E7B98CD2306EEDB3510F18
:1000F0004E10F2AC2F7193CD114FADF3702ECC9208
:10010000D38D6F31B2EC0E50AFF1134DCE90722CF7
:100110006D33D18F0C52B0EE326C8ED0530DEFB1E7
:10012000F0AE4C1291CF2D73CA947628ABF51749D7
:100130000856B4EA6937D58B5709EBB536688AD4C7
:1001400095CB2977F4AA4816E9B7550B88D6346AB7
:100150002B7597C94A14F6A8742AC896154BA9F7A7
:10016000B6E80A54D7896B35000000002400270048
:100170002A0000000000250028002B0000000008D5
:10018000000201000003040700000000000000005E
:1001900000000000230026002900040404040404D5
:1001A0000404020202020202030303030303010226
:1001B00004081020408001020408102001020408F5
:1001C0001020271211241FBECFEFD8E0DEBFCDBF15
:1001D00011E0A0E0B1E0E4EBFBE202C005900D927B
:1001E000AA35B107D9F722E0AAE5B1E001C01D9216
:1001F000AF3CB207E1F710E0C2EED0E004C02197B7
:10020000FE010E94E912C13ED107C9F70E945611B2
:100210000C94D8150C940000809168018460809340
:10022000680180916901807880936901E09178018B
:10023000F0917901309709F009940895E8E6F1E02A
:100240008081877F8F7E8083109264011092650188
:1002500010926601109267010E94020560936B0183
:1002600070936C0180936D0190936E0143E050E0B8
:1002700060E070E08AE891E00C949E1591E59CBDE9
:1002800091E09DBD2A98E3E2F0E03197F1F78EBD51
:1002900000000DB407FEFDCF8EB5FB019FEF41506E
:1002A000C8F0222361F09EBD00000DB407FEFDCF13
:1002B0008EB56115710599F380833196F0CFDF011A
:1002C000119680818EBD00000DB407FEFDCF8EB566
:1002D000FD01E5CF2A9AE3E2F0E03197F1F70895C6
:1002E000CF93DF931F92CDB7DEB7698320E041E063
:1002F000BE016F5F7F4F0E943E010F90DF91CF9153
:10030000089580916901982F9077903759F0982F30
:1003100092959F709F5F97709295907F8F78892BB1
:1003200080936901809168018B7F8F7E8093680143
:1003300080E090E0892B21F087E690E00E940000A9
:1003400029986CE080E20C94700120E040E060E0CD
:1003500070E00C943E010F931F93CF93DF938C01B9
:10036000FC01C2818091680180FF04C0CF3F09F089
:100370005DC014C0C11103C0C0918B010FC0CF3F3D
:1003800069F08C2F90E003960E94AE158F3F29F400
:1003900080918B01F80190819813C82F80918A0178
:1003A000F8018083438142FD06C0469546954695F7
:1003B000D7E0D40F01C0D0E280E090E0892B21F09B
:1003C00080E090E00E940000299883E092E001978D
:1003D000F1F76EE080E20E9470018BE891E00197F6
:1003E000F1F76C2F8AE20E9470016C2F80E30E946B
:1003F000700181EE0E94A501CF3F11F080EA01C09B
:1004000080EB4D2FD13208F040E220E0B8010E948D
:100410003E01299A00E010E08FEF0E94A501D82F3D
:10042000807331F401501109B9F702C0D0E02FC038
:10043000299860E387E20E947001D4FF03C081EE37
:100440000E94A5010E94910DD5FBDD27D0F991E016
:10045000CF3F09F090E0D92B80918B01C81317C0D2
:10046000D11110C080E090E0892B21F085E690E06A
:100470000E9400008091690191E0980F9F70807F39
:10048000892B03C080916901807F809369018D2F42
:10049000DF91CF911F910F9108952091680122FD66
:1004A0000C94AB0180E0089580E090E0892B21F06E
:1004B00088E090E00E9400008FEF80936A018091B5
:1004C000680188608093680128E143E06FEF80E075
:1004D0000E94970E61E00E947B0C0C94AB0180910E
:1004E0008A018F3FA1F480E090E0892B21F086E023
:1004F00090E00E94000023E043E06FEF80E00E9464
:10050000970E69E571E00E94870C0C94AB01089589
:1005100080E090E0892B21F084E090E00E940000D0
:1005200080916801897F8160809368018FEF80935B
:100530008C0180938B0127E043E06FEF0E94970EC0
:1005400069E571E00E94870C0C94AB01CF93C82F32
:100550008FEF8C0F8E3FA8F4C0938A01C0932001C7
:1005600063E082E20E94700161E081E20E9470011A
:100570000E94910D6C2F80E090E00E94C61581E0F2
:100580000CC080E090E0892B21F08EE690E00E9484
:1005900000008FEF80938A0180E0CF910895E09171
:1005A0005E01F0915F010280F381E02D309709F048
:1005B00009958091680184FD0C942D0708950F938F
:1005C0001F930E940205009160011091610120912A
:1005D000620130916301601B710B820B930B1F91C1
:1005E0000F9108959C0180915E0190915F018217A7
:1005F000930751F0909168019F7190936801309337
:100600005F0120935E0105C080916801805E809348
:100610006801E0915E01F0915F010190F081E02DB1
:10062000309709F009950E9402056093600170936C
:100630006101809362019093630108950F931F936A
:100640000E94DF02209169012077203729F000E124
:1006500017E220E030E004C000E61AEE20E030E0CF
:10066000061717072807390730F481E291E01F9138
:100670000F910C94F2021F910F91089580916901DE
:100680008F708B3020F084E191E00C94F202089599
:1006900080916A018F3FA1F00E940205609364017E
:1006A00070936501809366019093670180916A0160
:1006B00090918C01891380938C0180E191E01BC0A3
:1006C0000E94DF02613D774081059105B0F0809185
:1006D0006801803618F48CE091E00DC0877F80932C
:1006E000680180E090E0892B21F08AE690E00E948A
:1006F000000084E191E00C94F202089580918A0157
:100700008F3F59F080E090E0892B21F087E090E066
:100710000E9400008CE091E018C00E94DF02613D61
:1007200077408105910598F080916801803618F432
:1007300088E091E00AC080E090E0892B21F089E612
:1007400090E00E94000088E191E00C94F20208958C
:100750000E94DF02613D77408105910520F4809180
:10076000680181FF089580918B018F3F81F0809116
:1007700068018E7F8093680180E090E0892B21F0F2
:1007800085E090E00E94000088E091E011C0809137
:100790006801803618F484E191E00AC080E090E0BE
:1007A000892B21F088E690E00E94000088E191E02A
:1007B0000C94F202CF93219A229ACFB7F8948091A9
:1007C0005A01811127C0E4EAF1E08491E8EBF1E0FD
:1007D0009491E82FF0E0EE0FFF1FE859FE4FA5912E
:1007E000B491EC91E92321F461E08AE00E94B01019
:1007F00061E08AE00E94E0108CB580618CBD8CB510
:1008000080648CBD61E08DE00E94E01061E08BE0CF
:100810000E94E01080915A018F5F80935A01CFBFF0
:1008200029982A9A6EE080E20E94700165E070E0EB
:1008300080E090E00E941C1163E083E20E9470015E
:100840006FE584E20E9470016CE485E20E94700111
:1008500067E286E20E94700163E780E50E94700112
:1008600066E08DE30E9470010E94760D8823F1F10D
:1008700062E082E20E94700160E081E20E94700109
:1008800063E08CE30E9470018FEF8093030120E00E
:1008900045E063E071E08BE20E943E0120E045E02C
:1008A00063E071E08AE20E943E0120E045E063E0FF
:1008B00071E080E30E943E0182EE0E94A50181EE7C
:1008C0000E94A50160E787E20E94700180916801A3
:1008D00080618093680180918A018F3F81F00E943E
:1008E000A60281110CC088E191E00BC080E090E08D
:1008F000892BC9F387E690E00E940000F4CF84E1E1
:1009000091E0CF910C94F2021F920F920FB60F92CA
:1009100011240F900FBE0F901F9018950895FC01A1
:1009200090810180F281E02D892F809560FF12C0B7
:10093000F8942281822382838181892B8183A3E29F
:10094000B0E01197F1F78281982B9283789487ED2C
:1009500090E011C0F8942281822382838181892BC7
:100960008183AFEFB0E01197F1F78281982B9283EA
:1009700078948FE090E00197F1F708950895CF9370
:10098000FC0125812230B9F40E94650DC1E081117E
:1009900001C0C0E0C0935B016C2F83E00E94B010E7
:1009A0006C2F8DE991E00E94C61560915B0184E097
:1009B000CF910C94B010CF9108953FB7F8948091E7
:1009C000740190917501A0917601B091770126B5DF
:1009D000A89B05C02F3F19F00196A11DB11D3FBF77
:1009E000BA2FA92F982F8827820F911DA11DB11D05
:1009F000BC01CD0142E0660F771F881F991F4A9501
:100A0000D1F708952FB7F89460917001709171013A
:100A100080917201909173012FBF08951F920F92E0
:100A20000FB60F9211242F933F938F939F93AF9301
:100A3000BF938091700190917101A0917201B0916A
:100A4000730130916F0123E0230F2D3720F40196BD
:100A5000A11DB11D05C026E8230F0296A11DB11DE1
:100A600020936F018093700190937101A0937201A4
:100A7000B09373018091740190917501A0917601FA
:100A8000B09177010196A11DB11D809374019093DF
:100A90007501A0937601B0937701BF91AF919F91BB
:100AA0008F913F912F910F900FBE0F901F9018952F
:100AB0001F920F920FB60F9211242F933F934F93D3
:100AC0005F936F937F938F939F93AF93BF93EF93B6
:100AD000FF93E0911E01F0911F010995FF91EF91A5
:100AE000BF91AF919F918F917F916F915F914F9146
:100AF0003F912F910F900FBE0F901F9018951F924E
:100B00000F920FB60F9211242F933F934F935F9341
:100B10006F937F938F939F93AF93BF93EF93FF93C5
:100B2000E0911C01F0911D010995FF91EF91BF919A
:100B3000AF919F918F917F916F915F914F913F9175
:100B40002F910F900FBE0F901F901895DC01E0E0E1
:100B5000615038F08D91E827F0E0E859FF4FE491BB
:100B6000F7CF8E2F0895CF92DF92EF92FF920F93DF
:100B70001F93CF93DF931F92CDB7DEB76C01E62EA4
:100B800008E010E0FF24F39461E08F2D8E2109F43A
:100B900060E0C60149830E948F04FF0C01501109D7
:100BA00049810115110581F7411115C0F894D6014D
:100BB0001196ED91FC91129791818C9180958923EA
:100BC00081831196ED91FC91129792818C91809581
:100BD0008923828378940F90DF91CF911F910F9199
:100BE000FF90EF90DF90CF900895CF92DF92EF9239
:100BF000FF920F931F93CF93DF931F92CDB7DEB772
:100C00008C01F62E40E065E579830E94B305CF2C78
:100C10007981D72E760188E0E80EF11CF60161910A
:100C20006F0140E0C8010E94B305CE14DF04B1F7A4
:100C30000F90DF91CF911F910F91FF90EF90DF9078
:100C4000CF900895FC0190810180F281E02DF8940D
:100C50008181892B81832281892F8095282322837A
:100C6000A7E0B0E01197F1F7218182238183A3E20D
:100C7000B0E01197F1F780817894EFECF0E03197D4
:100C8000F1F7982381E009F480E00895EF92FF9254
:100C90000F931F93CF93DF937C0108E010E0C0E037
:100CA000D1E0C7010E9422068111CD2BDD0F01503A
:100CB0001109B9F78C2FDF91CF911F910F91FF9000
:100CC000EF900895FC0190810180F281E02DF8946D
:100CD0008181292F20958223818378948DE743E0B9
:100CE00050E0815021F1DA011197F1F73081392379
:100CF000C1F3F8948281822382838181892B81834D
:100D00007894ABE7B7E01197F1F7F8948181282345
:100D10002183A3E1B1E01197F1F78081982381E06D
:100D200009F080E07894E3E6F6E03197F1F7089572
:100D3000AF92BF92CF92DF92EF92FF920F931F93E9
:100D4000CF93DF931F92CDB7DEB75C01E62ED72E8F
:100D5000FC01858581115DC0C5010E94620681117B
:100D600005C0F5011386158614866BC040E060EF60
:100D7000C5010E94B30501E0F12CC12C11E0C501B1
:100D80000E942206682FC50169830E94220669819C
:100D9000613019F48130B9F433C04F2D50E068133D
:100DA0001BC0F5018385181730F4E40FF51F83810C
:100DB000802349F402C0181731F060E0193058F46C
:100DC000F501148708C0F501EF0DF11D8381802B1B
:100DD000838361E009C0C12EF501E40FF51F938103
:100DE000802F809589238383C5010E948F041F5F14
:100DF000000F11F4F39401E0F7E0FF1508F0BFCF06
:100E0000113438F0F501C386C11015C081E0858723
:100E100012C0F50113861586148680E0D50113965D
:100E2000EE2DFD2D9501255F3F4F9D919193A217CA
:100E3000B307D9F706C0F5018381882351F381E018
:100E4000EDCF0F90DF91CF911F910F91FF90EF9019
:100E5000DF90CF90BF90AF9008954F925F926F92C6
:100E60007F928F929F92AF92BF92CF92DF92EF923A
:100E7000FF920F931F93CF93DF930E94020500917F
:100E80006B0110916C0120916D0130916E01DC01BC
:100E9000CB01801B910BA20BB30B813A9B4BAD4056
:100EA000B10590F00E94020560936B0170936C0194
:100EB00080936D0190936E010E94760D811104C0A4
:100EC00088E191E00E94F20286E0B82E90E0E92EDF
:100ED00090E0F92E20E0C22E20E0D22E31E2A32EA7
:100EE00021E041E060E070E087E10E943E0180FD8A
:100EF00083C2BA94BB2009F47FC2E114F10421F04B
:100F000081E090E00E94000021E041E060E070E0BC
:100F100080E60E943E01082F813220F082EE0E947E
:100F2000A50100E021E0402F60EA72E081E60E9426
:100F30003E0160E487E20E9470019091A302192FA4
:100F40001695169516951A3108F019E192FD03C011
:100F500087E0810F01C080E27090A402C091A502D9
:100F6000D091A1029090A0028090A202081739F0BF
:100F7000E114F10409F4B4CF8CE690E009C0937059
:100F8000923049F0E114F10409F4AACF8DE690E023
:100F90000E940000A5CF80918B01981651F080919E
:100FA0008A01D81731F08D2F90E0692D03960E94A9
:100FB000C615072D077080916901806880936901CB
:100FC00080918A0188124DC02091A302822F8695BC
:100FD000869586958A3108F089E138E0839FC001C3
:100FE00011242770822B8093A302E12FF0E0E056BA
:100FF000FD4F17828091A40283FF17C0E0EAF2E060
:10100000AFE7B2E08A2D01900D928A95E1F78091C9
:101010008302877F80618093830280928002D093D5
:1010200081028FE792E00E944D028091A40284FD2C
:1010300013C0033089F49091A50221EF290F2330CA
:1010400008F0BBC04DCF913009F447C19A3009F484
:1010500063C19C3109F444CF80EA92E00E94BF044E
:101060003FCF2FEF82128FC0033009F07EC08091F6
:10107000680182FF5DC0C73009F05AC080918B01C2
:10108000D81709F42DCF0E94020500916401109138
:1010900065012091660130916701DC01CB01801B65
:1010A000910BA20BB30B80319742A105B10518F14A
:1010B0008091680183FD14CF90918A01911154C1F0
:1010C00010926A0180916801877F80936801C091C6
:1010D0006A01CF3F09F404CF0E94020560936401C6
:1010E00070936501809366019093670180918C01F4
:1010F000C813C0938C010E94020560936401709331
:10110000650180936601909367010E9402057370E8
:10111000882799270E941C11C0918C0128E043E088
:101120006FEF8D2F0E94970E6C2F0E947B0C42C098
:10113000C83009F4D5CEC431C1F480918B01981226
:1011400014C00E9402057370882799270E941C1101
:10115000C0918B0125E143E06FEF8D2F0E94970E28
:101160006C2F0E947B0C0E94AB0180918B01981226
:10117000B7CE80918A01D81709F43AC180916801ED
:1011800082FD2AC135C18091680182FFA9CE03305A
:1011900079F4C851C23060F480EA92E00E94650D93
:1011A0008E3F31F061E0680F80EA92E00E947B0C94
:1011B00080EA92E00E94AB0193CEC43039F480EA19
:1011C00092E00E94650D0E94A6028ACEC830D9F432
:1011D000C0916801C0FF84CE80EA92E00E94650D54
:1011E0008F3F09F47DCE8F5F8F3F09F479CE9091C8
:1011F0008C01891708F074CEC1FD72CE80938C01EA
:10120000D0938B016DCEC83141F429E143E06FEFFB
:101210008D2F0E94970E61E088CFC93171F48091C3
:10122000680183FF5DCE877F8093680180EA92E04A
:101230000E94650D80936A0153CE2091A102211175
:101240008FC09D3099F480E090E0892B21F08BE0F5
:1012500090E00E94000098E088E10FB6F894A8950D
:10126000809360000FBE90936000FFCF9B31A9F484
:1012700080EA92E00E94650D91E0811101C090E04A
:1012800080915D0190FB80F980935D01E114F10490
:1012900009F426CE8AE090E07BCE963099F49091C6
:1012A000A70281E0992319F09D3409F080E0809332
:1012B0005C0141E050E063E071E08CE591E00E9468
:1012C000B6150ECE933119F40E94F50C09CE923169
:1012D00009F0B9CE0E94370F03CEC114D10409F42E
:1012E000FFCD829586958770853049F46091A7027D
:1012F0007091A8028091A9029091AA020AC081115E
:1013000005C087EA92E00E94361403C060E070E0F6
:10131000CB010E940000E4CD8091A702833409F044
:10132000DFCDE114F10421F08DE090E00E94000097
:10133000C3E0D0E06FEFCE010E94C6152196C33006
:1013400081E0D807B9F72AE043E06FEF80E00E9420
:10135000970E6BE371E00E94870C0E944D02C0CD96
:101360009A3109F079CEBCCD886080936801809273
:101370006A0128E143E06FEF80E00E94970E61E090
:101380000E947B0C0E94AB010E9402052B013C01D4
:101390001092A502C0E00E940205DC01CB01841975
:1013A0009509A609B709803D9740A105B10508F048
:1013B00089CEC11187CE8091680184FD0E942D07DE
:1013C000A8958091A4028770833029F7C1E08091AD
:1013D000A5028931F9F6DFCF80EA92E00E94AB01E5
:1013E000033009F47DCD80918B01981279CD34CEF4
:1013F000033009F031CE74CDDF91CF911F910F9161
:10140000FF90EF90DF90CF90BF90AF909F908F9024
:101410007F906F905F904F90089561E084E00E940C
:10142000E01060E085E00E94E01061E085E00E944D
:10143000B01061E083E00E94E01060E083E00E9471
:10144000B0108DE991E00E94AE1561E0811101C0FC
:1014500060E060935B0183E00E94B01060915B01EB
:1014600084E00E94B01010926E020895FC01962F45
:1014700080918A0181836481607F262F216088E0CA
:10148000989FB0011124622B648380915D0180FFDD
:1014900003C0CF010C944D0280E008958F929F927B
:1014A000AF92BF92CF92DF92EF92FF920F931F9372
:1014B000CF93DF93CDB7DEB728970FB6F894DEBF92
:1014C0000FBECDBFE1E8F1E08491E3EBF1E00491E0
:1014D000EFE9F1E014911123A1F081110E9487102E
:1014E000E12FF0E0EE0FFF1FE057FE4FA591B49102
:1014F000EC91E02391E080E009F490E0092F182FAF
:1015000002C000E010E00E9402056B017C018091A6
:1015100088019091890108171907D1F0011511056B
:10152000B9F490915B0181E0982780914E02877019
:10153000886080934E0280914F028F718062809309
:101540004F029093520261E08BE492E00E94360ACF
:101550001093890100938801809184019091850105
:10156000A0918601B0918701A7019601281B390B34
:101570004A0B5B0BDA01C901803E9349A440B105D7
:1015800008F41FC1C0928401D0928501E0928601C7
:10159000F092870180917102909172020E9462061E
:1015A00040E06CEC80917102909172020E94B30550
:1015B00040916C0264E480917102909172020E94E9
:1015C000B30580916E028823A9F0E0916D02E95085
:1015D000E33040F4F0E0EE0FFF1FEB5DFE4F608163
:1015E000718102C06EEE72E0072E000C880B990B21
:1015F0000E941C11E0916D02E950E33040F4F0E0EC
:10160000EE0FFF1FEB5DFE4F8081918102C08EEED9
:1016100092E06C01990FEE08FF080E9402054B0151
:101620005C010E940205DC01CB0188199909AA0915
:10163000BB098C159D05AE05BF0520F4A8950E9439
:10164000CF02EFCF8CE7A82E81E0B82E00E010E0AB
:101650009924939480917A0190917B01081719073E
:101660000CF0AFC00230110509F4ABC080915C01F1
:10167000602F882301F1CE0101960E94FA0F81119B
:1016800005C060E070E08EEF92EC3AC0CE010196AA
:101690000E94A50F813844EE94079CF3BC01990F7A
:1016A000880B990B0E94811420E030E040E05CE35D
:1016B0000E94E01425C0CE0101960E94FA0F81110C
:1016C00005C06AE979E984E493EC1AC0CE01019679
:1016D0000E94A50F813854EE95079CF3BC01990F29
:1016E000880B990B0E94811426E636E646E65CE3F9
:1016F0000E94E01420E030E040E052E40E94F0124A
:1017000020E030E040E251E40E94E0140E94CE1359
:10171000072E000C880B990B0E94811420E030E00A
:1017200040E251E40E945C136B017C019B01AC011F
:10173000F50160817181828193810E947A148823EE
:10174000C1F120E030E04EEF52ECC701B6010E943B
:101750007A14882371F120E030E04AEA52E4C701AC
:10176000B6010E947A14882321F181E0800F8093D2
:10177000300280912D028770886280932D028091C3
:101780002E02806E80932E02C0923102D0923202DD
:10179000E0923302F09234029092350260E08AE2E5
:1017A00092E00E94360AF501C082D182E282F38281
:1017B00002C00E94370F0F5F1F4FF4E0AF0EB11C45
:1017C00049CF28960FB6F894DEBF0FBECDBFDF918C
:1017D000CF911F910F91FF90EF90DF90CF90BF902E
:1017E000AF909F908F9008950F931F93CF93DF93A7
:1017F000CDB7DEB761970FB6F894DEBF0FBECDBF91
:10180000E0917102F0917202138615861486DF0151
:101810001B9633961E92AE17BF07E1F71092700227
:1018200011E0BE01665F7F4F80917102909172025C
:101830000E949806882309F453C067E0CE010A96F7
:101840000E94A60599898913ECCF80916C028111C1
:1018500026C080917102909172020E946206BE01C0
:10186000665F7F4F80917102909172020E94F50530
:1018700040E064EB80917102909172020E94B30586
:1018800080917102909172020E942206082F80912D
:101890007102909172020E9462060023F1F0BE0173
:1018A0006F5F7F4FCE010A960E94A60E00916D02D7
:1018B000CE010A960E94FF0E801718F480916D02E7
:1018C00004C0CE010A960E94FF0E80936D028091A3
:1018D00070028F5F80937002A4CF10936C02DFCFF1
:1018E00061960FB6F894DEBF0FBECDBFDF91CF91EA
:1018F0001F910F910895FC01838187708860838315
:1019000084818F71806284836783CF0108950F93F0
:101910001F93CF93DF93EC016115710561F0FB011B
:1019200001900020E9F73197E61BF70BE931F1054B
:1019300018F0E9E101C0E0E00E2F10E0C80123E05B
:10194000880F991F2A95E1F79B819770892B8B83CC
:101950008C818F718C83EE2329F0A801CE0107962C
:101960000E940914FE01E00FF11F1782CE01DF91E2
:10197000CF911F910F9108952BE043E06FEF80E02E
:101980000E94970E6EE371E00E94870C0E944D0248
:101990002CE043E06FEF80E00E94970E66E571E077
:1019A0000E94870C0E944D028091700290E09093FB
:1019B0007B0180937A0163E080E00E94590F80915F
:1019C0007A0190917B011816190674F466E081E0A3
:1019D0000E94590F80917A0190917B01029724F027
:1019E00066E082E00C94590F0895CF9380E090E078
:1019F000892B21F08CE090E00E9400002FE043E072
:101A00006FEF80E00E94970E69E571E00E94870CFD
:101A1000809182028770806180938202809183022C
:101A20008F71806C8093830281E080938602109294
:101A300087028FE792E00E944D028FE00E946F0FB5
:101A400062E18FEF0E94590FC0918B0126E043E0C5
:101A50006FEF80E00E94970E6C2F0E947B0C0E941B
:101A60004D0286E00E946F0FCF910C94BC0CCF9377
:101A700080915D0181FD27C00E94F50C80E090E01F
:101A8000892B21F089E090E00E94000080915D01A7
:101A9000816080935D01C4E02AE143E06FEF80E064
:101AA0000E94970E62E00E947B0C0E944D028BE127
:101AB0000E946F0F811102C0C15071F780915D01CA
:101AC000826080935D01CF910895FC01248122956D
:101AD00026952770213011F487810895211104C0C3
:101AE00007960E941814089580E00895CF9321E08E
:101AF00041E060E070E086E00E943E01C82F21E0F6
:101B000041E060E070E085E00E943E0121E08C341D
:101B100009F020E081E0C73209F080E08223CF9114
:101B200008956FE080E20E947001609120016F3F94
:101B300019F08AE20E947001299A0895CF92DF92EB
:101B4000EF92FF920F931F93CF93DF936C017A0173
:101B50008B01C0E0D0E0CE15DF0589F0D8016D9192
:101B60008D01D601ED91FC910190F081E02DC6012F
:101B70000995892B11F47E0102C02196ECCFC70193
:101B8000DF91CF911F910F91FF90EF90DF90CF9059
:101B90000895FC01918D828D981761F0828DDF018F
:101BA000A80FB11D5D968C91928D9F5F9F73928F50
:101BB00090E008958FEF9FEF0895FC01918D828D45
:101BC000981731F0828DE80FF11D858D90E0089512
:101BD0008FEF9FEF0895FC01918D228D892F90E06A
:101BE000805C9F4F821B91098F73992708958DE820
:101BF00091E00E94EB0D21E0892B09F420E0822F77
:101C00000895FC01848DDF01A80FB11DA35ABF4FB9
:101C10002C91848D90E001968F739927848FA689EB
:101C2000B7892C93A089B1898C9180648C93938D12
:101C3000848D981306C00288F389E02D80818F7D02
:101C400080830895EF92FF920F931F93CF93DF93BA
:101C5000EC0181E0888F9B8D8C8D981305C0E889FD
:101C6000F989808185FD24C0F62E0B8D10E00F5F71
:101C70001F4F0F731127E02E8C8DE8120CC00FB68A
:101C800007FCFACFE889F989808185FFF5CFCE017D
:101C90000E94010EF1CF8B8DFE01E80FF11DE35A7A
:101CA000FF4FF0820B8FEA89FB898081806207C039
:101CB000EE89FF896083E889F98980818064808367
:101CC00081E090E0DF91CF911F910F91FF90EF9015
:101CD0000895CF93DF93EC01888D8823C9F0EA89BA
:101CE000FB89808185FD05C0A889B9898C9186FD15
:101CF0000FC00FB607FCF5CF808185FFF2CFA88912
:101D0000B9898C9185FFEDCFCE010E94010EE7CFFE
:101D1000DF91CF91089580E090E0892B29F00E9417
:101D2000F70D81110C94000008950E940414EFE750
:101D3000F2E090918A0191838283668325834770C4
:101D40008481807E482B4483CF010895EF92FF92D7
:101D50000F931F93CF93DF937C018B01CCE6D2E0EE
:101D60008D819E810E946206B7018D819E810E94B5
:101D7000F50540E06EEB8D819E810E94B3058D815B
:101D80009E810E944606F80180838D819E810E947B
:101D90004606F80181838D819E810E944606F801E6
:101DA00082838D819E810E944606F80183838D8106
:101DB0009E810E944606F80184838D819E810E9447
:101DC0004606F80185838D819E810E944606F801B2
:101DD00086838D819E810E944606F80187838D81CE
:101DE0009E810E944606F80180878D819E81DF9149
:101DF000CF911F910F91FF90EF900C946206CF93BB
:101E0000DF93CDB7DEB729970FB6F894DEBF0FBECC
:101E1000CDBFFC012081203101F1BE016F5F7F4FFA
:101E20000E94A60E68E0CE0101960E94A605998543
:101E3000891311C08D818F3361F020F48F3159F4F3
:101E400089E00CC08F3519F08F3739F004C08BE072
:101E500005C08AE003C080E001C08CE029960FB67F
:101E6000F894DEBF0FBECDBFDF91CF910895CF9222
:101E7000DF92EF92FF920E94DF026B017C0126E16C
:101E800043E06FEF80E00E94970EFC0184818F7128
:101E9000806A84838381877080628383C782D086CF
:101EA000E186F286CF01FF90EF90DF90CF900C9407
:101EB0004D02CF93DF93262F8F3F19F0C9E5D1E074
:101EC00002C0C4E5D1E040E0682F80E00E94970E98
:101ED000BE010E94870CDF91CF910C944D02CF92EE
:101EE000DF92EF92FF92CF93DF93D82F0E940205EB
:101EF0006B017C0181E0D11180E08093A502C0E0FC
:101F00000E940205AB01BC014C195D096E097F09F5
:101F1000403D57406105710580F4C1110EC0A89580
:101F20000E94CF029091A4029770933049F7C1E0CC
:101F30008091A5028D13E3CFE3CF8C2FDF91CF915A
:101F4000FF90EF90DF90CF9008950F931F93CF9362
:101F5000DF93CDB7DEB729970FB6F894DEBF0FBE7B
:101F6000CDBF8C01BE016F5F7F4F0E94A60E68E05F
:101F7000CE0101960E94A605998589132CC029815E
:101F800048E0249FB00111249A81292F30E0322F9C
:101F90002227330F330F330F262B372BF801808185
:101FA0008031E1F4688570E08F81AB01481B5109F5
:101FB000CA019695982F8827979587950E94C112F8
:101FC000CB014097207F53E0220F331F5A95E1F752
:101FD000820F931F04C080E894EE01C0C9012996C6
:101FE0000FB6F894DEBF0FBECDBFDF91CF911F912A
:101FF0000F9108950F931F93CF93DF938C01D62FEA
:10200000E0917102F0917202138615861486DF0149
:102010001B9633961E92AE17BF07E1F7C0E0B801DA
:1020200080917102909172020E949806811102C003
:1020300080E010C0CD130AC067E0C8010E94A60569
:10204000F8019781891302C081E004C0CF5FDC17DB
:1020500078F3E5CFDF91CF911F910F9108951F92F3
:102060000F920FB60F9211242F933F934F935F93CC
:102070006F937F938F939F93AF93BF93EF93FF9350
:102080008DE891E00E94010EFF91EF91BF91AF9119
:102090009F918F917F916F915F914F913F912F9180
:1020A0000F900FBE0F901F9018951F920F920FB6B2
:1020B0000F9211242F938F939F93EF93FF93E091AF
:1020C0009D01F0919E018081E091A301F091A40116
:1020D00082FD12C090818091A6018F5F8F73209145
:1020E000A701821751F0E091A601F0E0E357FE4FFF
:1020F000958F8093A60101C08081FF91EF919F9100
:102100008F912F910F900FBE0F901F9018958330D5
:1021100081F028F4813099F08230A1F00895873061
:10212000A9F08830B9F08430D1F4809180008F7D9F
:1021300003C0809180008F7780938000089584B5DC
:102140008F7702C084B58F7D84BD08958091B000E3
:102150008F7703C08091B0008F7D8093B000089589
:102160001F93CF93DF93282F30E0F901E458FE4FFF
:102170008491F901E255FE4FD491F901E656FE4FE4
:10218000C491CC23C9F0162F81110E948710EC2F27
:10219000F0E0EE0FFF1FEE58FE4FA591B4918FB700
:1021A000F894111105C09C91ED2FE095E92302C030
:1021B000EC91ED2BEC938FBFDF91CF911F910895A0
:1021C000CF93DF9390E0FC01E255FE4F2491FC0198
:1021D000E656FE4F8491882361F190E0880F991FA5
:1021E000FC01E859FE4FC591D491FC01EE58FE4F19
:1021F000A591B491611109C09FB7F8948881209589
:1022000082238883EC912E230BC0623061F49FB748
:10221000F8943881822F809583238883EC912E2B2C
:102220002C939FBF06C08FB7F894E8812E2B28838C
:102230008FBFDF91CF9108958F929F92AF92BF92FF
:10224000CF92DF92EF92FF926B017C010E94DD043E
:102250004B015C01C114D104E104F104F1F00E94CE
:10226000DD04DC01CB0188199909AA09BB09883E64
:102270009340A105B10570F321E0C21AD108E1082D
:10228000F10888EE880E83E0981EA11CB11CC114D1
:10229000D104E104F10419F7DDCFFF90EF90DF9056
:1022A000CF90BF90AF909F908F900895789484B511
:1022B000826084BD84B5816084BD85B5826085BD42
:1022C00085B5816085BD80916E00816080936E00D0
:1022D00010928100809181008260809381008091C2
:1022E0008100816080938100809180008160809373
:1022F00080008091B10084608093B1008091B00033
:1023000081608093B00080917A00846080937A002D
:1023100080917A00826080937A0080917A00816057
:1023200080937A0080917A00806880937A0010927E
:10233000C100A89580E090E0892B11F00E94000078
:10234000E0919D01F0919E0182E08083E0919901EE
:10235000F0919A011082E0919B01F0919C0180E143
:1023600080831092A501E091A101F091A20186E085
:102370008083E0919F01F091A00180818061808342
:10238000E0919F01F091A001808188608083E091BD
:102390009F01F091A001808180688083E0919F017E
:1023A000F091A00180818F7D808380915D018D7F80
:1023B00080935D010E94F40B41E050E063E071E026
:1023C0008CE591E00E949E156FEF81E090E00E9405
:1023D000C615809169018F788093690110925F0121
:1023E00010925E0181E291E00E94F20287E39DE09B
:1023F00090937901809378010E9402050E94020562
:102400000E94CF02A8958091680182FFF7CF0E94B9
:102410000D0AA895A8950E94CF020E944E0A0E941C
:102420008B0EF8CFCF93DF93FC01108211821282C2
:10243000148215821682DC0117968AE1ED01199249
:102440008A95E9F782E08383DF91CF910895CF9356
:102450001092900110928F0188EE93E0A0E0B0E01E
:102460008093910190939201A0939301B093940172
:102470008FE291E090938E0180938D0185EC90E046
:1024800090939A018093990184EC90E090939C0141
:1024900080939B0180EC90E090939E0180939D013E
:1024A00081EC90E09093A00180939F0182EC90E0FA
:1024B0009093A2018093A10186EC90E09093A401F7
:1024C0008093A3011092A6011092A7011092A80177
:1024D0001092A90180EA92E00E9412128FE792E026
:1024E0000E94121260E088E00E94E010E6EBF1E04A
:1024F000E491E093C102E2EAF1E0E491F0E0EE0F52
:10250000FF1FE057FE4F859194919093C3028093F3
:10251000C2021092CC021092CE021092CD02ECECCC
:10252000F2E0129282E0E43CF807D9F78EEB94E0F7
:1025300090937E0280937D0281EC92E090937202F0
:10254000809371021092700210926C0289E0809365
:102550006D02C1E0C0936E02C0936F028BE492E003
:102560000E9412121092510282E0809350028AE27D
:1025700092E00E941212C093300210922F02CF916B
:10258000089597FB072E16F4009407D077FD09D025
:102590000E94D51207FC05D03EF4909581959F4F7F
:1025A0000895709561957F4F0895AA1BBB1B51E15B
:1025B00007C0AA1FBB1FA617B70710F0A61BB70BB3
:1025C000881F991F5A95A9F780959095BC01CD0158
:1025D0000895EE0FFF1F0590F491E02D09945058D7
:1025E000BB27AA270E9407130C9464150E94561556
:1025F00038F00E945D1520F039F49F3F19F426F45D
:102600000C9453150EF4E095E7FB0C944D15E92F4F
:102610000E94751558F3BA17620773078407950768
:1026200020F079F4A6F50C9497150EF4E0950B2E96
:10263000BA2FA02D0B01B90190010C01CA01A00114
:102640001124FF27591B99F0593F50F4503E68F16F
:102650001A16F040A22F232F342F4427585FF3CFB0
:10266000469537952795A795F0405395C9F77EF481
:102670001F16BA0B620B730B840BBAF09150A1F0CA
:10268000FF0FBB1F661F771F881FC2F70EC0BA0F50
:10269000621F731F841F48F4879577956795B795D8
:1026A000F7959E3F08F0B0CF9395880F08F09927D3
:1026B000EE0F9795879508950E9470130C946415FA
:1026C0000E945D1558F00E94561540F029F45F3FB6
:1026D00029F00C944D1551110C9498150C94531528
:1026E0000E94751568F39923B1F3552391F3951B57
:1026F000550BBB27AA2762177307840738F09F5F23
:102700005F4F220F331F441FAA1FA9F335D00E2E8F
:102710003AF0E0E832D091505040E695001CCAF7FC
:102720002BD0FE2F29D0660F771F881FBB1F2617BF
:1027300037074807AB07B0E809F0BB0B802DBF0196
:10274000FF2793585F4F3AF09E3F510578F00C9465
:102750004D150C9498155F3FE4F3983ED4F386959D
:1027600077956795B795F7959F5FC9F7880F911D86
:102770009695879597F90895E1E0660F771F881F72
:10278000BB1F621773078407BA0720F0621B730B25
:10279000840BBA0BEE1F88F7E09508950E94D513BD
:1027A0006894B1110C94981508950E947D1588F0D5
:1027B0009F5798F0B92F9927B751B0F0E1F0660F05
:1027C000771F881F991F1AF0BA95C9F714C0B13046
:1027D00091F00E949715B1E008950C949715672F1A
:1027E000782F8827B85F39F0B93FCCF38695779575
:1027F0006795B395D9F73EF490958095709561955E
:102800007F4F8F4F9F4F089581E090E0F8940C9494
:10281000D815FB01DC014150504048F001900D9269
:102820000020C9F701C01D9241505040E0F70895C3
:10283000FC0188279927E89421912032E9F3293077
:1028400010F02E30C8F32B3241F02D3239F4689459
:1028500004C00E947214820F911D219120532A30CE
:10286000C0F31EF4909581959F4F08951F93FC012E
:1028700099278827BC01E89411911032E9F31930A7
:1028800010F01E30C8F31B3251F01D3249F4689429
:1028900006C00E945D14610F711D811D911D119173
:1028A00010531A30B0F33EF4909580957095619571
:1028B0007F4F8F4F9F4F1F910895592F482F372FCC
:1028C000262F660F771F881F991F660F771F881F97
:1028D000991F620F731F841F951F660F771F881F34
:1028E000991F08957AE0979F902D879F802D910DD5
:1028F000112408950E94BC1408F481E00895E8941E
:1029000009C097FB3EF490958095709561957F4F37
:102910008F4F9F4F9923A9F0F92F96E9BB279395E5
:10292000F695879577956795B795F111F8CFFAF4F5
:10293000BB0F11F460FF1BC06F5F7F4F8F4F9F4F26
:1029400016C0882311F096E911C0772321F09EE884
:10295000872F762F05C0662371F096E8862F70E0EA
:1029600060E02AF09A95660F771F881FDAF7880FC4
:102970009695879597F90895990F0008550FAA0B1A
:10298000E0E8FEEF16161706E807F907C0F0121682
:102990001306E407F50798F0621B730B840B950B85
:1029A00039F40A2661F0232B242B252B21F40895DA
:1029B0000A2609F4A140A6958FEF811D811D089577
:1029C0000E94F3140C9464150E94561538F00E946E
:1029D0005D1520F0952311F00C944D150C945315B2
:1029E00011240C9498150E94751570F3959FC1F3EE
:1029F000950F50E0551F629FF001729FBB27F00DAD
:102A0000B11D639FAA27F00DB11DAA1F649F662701
:102A1000B00DA11D661F829F2227B00DA11D621F50
:102A2000739FB00DA11D621F839FA00D611D221F0A
:102A3000749F3327A00D611D231F849F600D211DEE
:102A4000822F762F6A2F11249F5750409AF0F1F071
:102A500088234AF0EE0FFF1FBB1F661F771F881FDA
:102A600091505040A9F79E3F510580F00C944D15B0
:102A70000C9498155F3FE4F3983ED4F386957795D0
:102A80006795B795F795E7959F5FC1F7FE2B880F80
:102A9000911D9695879597F9089597F99F6780E816
:102AA00070E060E008959FEF80EC089500240A94A0
:102AB0001616170618060906089500240A94121619
:102AC0001306140605060895092E0394000C11F44C
:102AD000882352F0BB0F40F4BF2B11F460FF04C0F9
:102AE0006F5F7F4F8F4F9F4F089557FD9058440F52
:102AF000551F59F05F3F71F04795880F97FB991F5D
:102B000061F09F3F79F08795089512161306140619
:102B1000551FF2CF4695F1DF08C0161617061806A6
:102B2000991FF1CF86957105610508940895E89481
:102B3000BB2766277727CB0197F90895DC01CB01E6
:102B4000FC01F999FECF06C0F2BDE1BDF89A3196BD
:102B500000B40D9241505040B8F70895F999FECF56
:102B600092BD81BDF89A992780B50895DC01A40F24
:102B7000B51F4150504048F0CB01840F951F2E9156
:102B80000E94C71541505040D0F70895262FF9995B
:102B9000FECF92BD81BDF89A019700B4021639F0BC
:102BA0001FBA20BD0FB6F894FA9AF99A0FBE08958D
:042BB000F894FFCFC7
:102BB400FFFFFF00FCE1A8A86F027E035402480354
:102BC4000C013E038802A80381011E038E048E04B7
:102BD400FF1E01DA035E00BC007701000000002242
:102BE4000E9E0DEB0DC90DDD0D690E4F4B005265A8
:102BF4006C6179202620427574746F6E20262054EF
:0A2C0400656D7000322E312E310094
:00000001FF
