:100000000C94E2020C940A030C940A030C94A50FBE
:100010000C94800F0C945B0F0C940A030C94CA0F81
:100020000C940A030C940A030C940A030C940A031C
:100030000C940A030C94340F0C940A030C940A03D6
:100040000C94EA0E0C940A030C940A030C940A0311
:100050000C940A030C940A030C940A030C940A03EC
:100060000C94AF0A0C940A0300000008000201007F
:100070000003040700000000000000000000000072
:10008000003E5B4F5B3E3E6B4F6B3E1C3E7C3E1C1E
:10009000183C7E3C181C577D571C1C5E7F5E1C0064
:1000A000183C1800FFE7C3E7FF0018241800FFE71B
:1000B000DBE7FF30483A060E2629792926407F05DE
:1000C0000507407F05253F5A3CE73C5A7F3E1C1CF4
:1000D00008081C1C3E7F14227F22145F5F005F5FB4
:1000E00006097F017F006689956A606060606094A0
:1000F000A2FFA29408047E040810207E20100808A5
:100100002A1C08081C2A08081E101010100C1E0CAF
:100110001E0C30383E3830060E3E0E060000000041
:100120000000005F00000007000700147F147F1428
:10013000242A7F2A1223130864623649562050006D
:1001400008070300001C2241000041221C002A1C59
:100150007F1C2A08083E0808008070300008080844
:100160000808000060600020100804023E51494564
:100170003E00427F400072494949462141494D3382
:100180001814127F1027454545393C4A49493141E9
:10019000211109073649494936464949291E0000B7
:1001A000140000004034000000081422411414140C
:1001B0001414004122140802015909063E415D59F8
:1001C0004E7C1211127C7F494949363E4141412201
:1001D0007F4141413E7F494949417F090909013E2B
:1001E000414151737F0808087F00417F4100204052
:1001F000413F017F081422417F404040407F021C64
:10020000027F7F0408107F3E4141413E7F0909097A
:10021000063E4151215E7F09192946264949493246
:1002200003017F01033F4040403F1F2040201F3F0C
:100230004038403F63140814630304780403615991
:10024000494D43007F4141410204081020004141D3
:10025000417F04020102044040404040000307087F
:100260000020545478407F2844443838444444287B
:10027000384444287F385454541800087E09021822
:10028000A4A49C787F0804047800447D40002040AA
:10029000403D007F1028440000417F40007C0478EE
:1002A00004787C080404783844444438FC18242436
:1002B0001818242418FC7C080404084854545424B6
:1002C00004043F44243C4040207C1C2040201C3C33
:1002D0004030403C44281028444C9090907C44642A
:1002E000544C4400083641000000770000004136BD
:1002F000080002010204023C2623263C1EA1A16143
:10030000123A4040207A3854545559215555794174
:100310002254547842215554784020545579400C49
:100320001E5272123955555559395454545939552C
:100330005454580000457C410002457D420001456F
:100340007C407D1211127DF0282528F07C54554503
:10035000002054547C547C0A097F4932494949326F
:100360003A4444443A324A4848303A4141217A3A80
:1003700042402078009DA0A07D3D4242423D3D404C
:1003800040403D3C24FF2424487E4943662B2FFCFB
:100390002F2BFF0929F620C0887E090320545479A9
:1003A000410000447D413048484A32384040227A7A
:1003B000007A0A0A727D0D19317D2629292F2826F7
:1003C0002929292630484D402038080808080808FF
:1003D0000808382F10C8ACBA2F102834FA00007B58
:1003E000000008142A142222142A1408550055006B
:1003F00055AA55AA55AAFF55FF55FF000000FF005A
:10040000101010FF00141414FF001010FF00FF1054
:1004100010F010F0141414FC001414F700FF000086
:10042000FF00FF1414F404FC141417101F10101F05
:10043000101F1414141F00101010F0000000001FF3
:10044000101010101F10101010F010000000FF10FE
:100450001010101010101010FF10000000FF1400FA
:1004600000FF00FF00001F10170000FC04F414142C
:100470001710171414F404F40000FF00F7141414F8
:1004800014141414F700F7141414171410101F1078
:100490001F141414F4141010F010F000001F101F9B
:1004A0000000001F14000000FC140000F010F01009
:1004B00010FF10FF141414FF141010101F00000080
:1004C00000F010FFFFFFFFFFF0F0F0F0F0FFFFFF84
:1004D0000000000000FFFF0F0F0F0F0F38444438DB
:1004E00044FC4A4A4A347E02020606027E027E022A
:1004F00063554941633844443C04407E201E200635
:10050000027E020299A5E7A5991C2A492A1C4C7271
:1005100001724C304A4D4D303048784830BC625AF8
:10052000463D3E494949007E0101017E2A2A2A2A88
:100530002A44445F444440514A444040444A514064
:100540000000FF0103E080FF000008086B6B083625
:1005500012362436060F090F060000181800000096
:100560001010003040FF0101001F01011E00191D85
:100570001712003C3C3C3C00000000000000000062
:10058000240027002A000000000023002600290084
:1005900000000000250028002B00040404040404CB
:1005A0000404020202020202030303030303010222
:1005B00004081020408001020408102001020408F1
:1005C00010202E1B11241FBECFEFD8E0DEBFCDBF01
:1005D00023E0A2ECB1E001C01D92AA3CB207E1F712
:1005E00011E0A0E0B1E0E6E8FFE302C005900D9263
:1005F000A23CB107D9F712E0C2EED2E004C02197C5
:10060000FE010E94A81DC13ED107C9F70E94EB154B
:100610000C94C11F0C9400006F927F928F929F9256
:10062000AF92BF92CF92DF92EF92FF920F931F9300
:10063000CF93DF93EC014B015A0169013801E88146
:10064000F9810284F385E02D0995E881F98102881A
:10065000F389E02D87019601A501B401CE0109952A
:10066000E881F981A501460D571D415051090288C5
:10067000F389E02D9601B401CE010995E881F98155
:100680000088F189E02D9301A501B401CE010995FF
:10069000E881F981C80CD91CB60161507109008844
:1006A000F189E02D9301A501CE010995E881F98139
:1006B0000688F789E02DCE01DF91CF911F910F9130
:1006C000FF90EF90DF90CF90BF90AF909F908F9072
:1006D0007F906F900994CF92DF92EF92FF920F93E9
:1006E0001F93CF93DF9300D000D000D0CDB7DEB7FB
:1006F0006C01DC01ED91FC916217730789F404171A
:1007000015072CF4942F852FA801092F182F041BEF
:10071000150B98012F5F3F4F048CF58DE02D12C013
:100720004017510709F5261737072CF4962F872F06
:10073000B901292F382F261B370B2F5F3F4F068C0F
:10074000F78DE02D8701C601099526960FB6F8941E
:10075000DEBF0FBECDBFDF91CF911F910F91FF90F4
:10076000EF90DF90CF9008950284F385E02D2D83E4
:100770003E834B835C8369837A830995D601ED912F
:10078000FC910488F589E02D2D813E814B815C81AF
:1007900069817A81C6010995D601ED91FC9106889F
:1007A000F789E02DC60126960FB6F894DEBF0FBE7E
:1007B000CDBFDF91CF911F910F91FF90EF90DF9010
:1007C000CF900994EF92FF920F931F93DC01ED916C
:1007D000FC9111971A960D911C911B9718962D91CB
:1007E0003C91199700A0F1A1E02D7B0140E050E081
:1007F00060E070E009951F910F91FF90EF900895D0
:100800004F925F926F927F928F929F92AF92BF9220
:10081000CF92DF92EF92FF920F931F93CF93DF93CC
:1008200000D0CDB7DEB76C015A0139014801DC01B7
:10083000ED91FC910284F385E02D69837A8309951B
:100840006981462E7A81572E640C751CD601ED9174
:10085000FC91461457046CF40088F189E02D87015F
:100860009401A501B201C6010995BFEF4B1A5B0ABD
:10087000EDCF0688F789E02DC6010F900F90DF912C
:10088000CF911F910F91FF90EF90DF90CF90BF908D
:10089000AF909F908F907F906F905F904F90099452
:1008A000AF92BF92CF92DF92EF92FF920F931F937E
:1008B000CF93DF9300D000D0CDB7DEB75C016901E4
:1008C000DC01ED91FC910284F385E02D4B835C8388
:1008D00069837A830995D501ED91FC9169817A81CB
:1008E0009B012C0D3D1D215031090488F589E02D17
:1008F00078014B815C818A01C5010995D501ED9193
:10090000FC910688F789E02DC5010F900F900F909C
:100910000F90DF91CF911F910F91FF90EF90DF909B
:10092000CF90BF90AF900994AF92BF92CF92DF92D9
:10093000EF92FF920F931F93CF93DF9300D000D0DD
:10094000CDB7DEB75C016901DC01ED91FC91028459
:10095000F385E02D4B835C8369837A830995D50108
:10096000ED91FC914B815C81C40ED51EB1E0CB1A98
:10097000D1080488F589E02D7801860169817A81A2
:100980009B01C5010995D501ED91FC910688F78978
:10099000E02DC5010F900F900F900F90DF91CF9138
:1009A0001F910F91FF90EF90DF90CF90BF90AF908D
:1009B00009940895EF92FF920F931F93DC01ED913C
:1009C000FC9100A0F1A1E02D09951F910F91FF90DE
:1009D000EF9008950F931F93DC01ED91FC91068C2D
:1009E000F78DE02D09951F910F9108950F931F9397
:1009F000DC01ED91FC91048CF58DE02D09951F91A2
:100A00000F910895DC01ED91FC910084F185E02DBA
:100A1000099408952F923F924F925F926F927F9226
:100A20008F929F92AF92BF92CF92DF92EF92FF92FE
:100A30000F931F93CF93DF9300D01F92CDB7DEB7F4
:100A40004C017B836A836A01590117019801241BB9
:100A5000350B37FF03C0319521953109C5014A8116
:100A60005B81841B950B97FF03C09195819591093C
:100A700051E059838217930714F019820BC09A2D05
:100A80008B2D5801092F182F9A818B81DB82CA8206
:100A9000C92ED82E8A819B81A816B9065CF49C2D9C
:100AA0008D2D6801092F182F9A818B81BB82AA8214
:100AB000A92EB82E2501AA81BB814A1A5B0A3801EA
:100AC0006C187D0877FE03C07194619471087201FF
:100AD00057FE03C0BFEFEB1AFB0AF594E794C0166C
:100AE000D1061CF00FEF1FEF1FC001E010E01CC08B
:100AF000D401ED91FC91B9810484F585E02D91013B
:100B0000BB23C1F04A815B81B601C4010995E61897
:100B1000F708F7FE04C0C00ED11EE40CF51CEA81F4
:100B2000FB813196FB83EA834A815B81A416B5067B
:100B3000FCF604C0A6016A817B81E7CF0F900F907D
:100B40000F90DF91CF911F910F91FF90EF90DF9069
:100B5000CF90BF90AF909F908F907F906F905F905D
:100B60004F903F902F90089585ED8093BC00809129
:100B7000BC0084FDFCCF1092E90208954091F4017D
:100B8000262F30E0240F311D21323105DCF4209175
:100B9000E9022430C9F4FC0180E090E0861758F4A3
:100BA0003091F4012191DC01AE52BE4FA30FB11D73
:100BB0002C930196F3CF8091F401680F6093F401B8
:100BC00080E0089581E0089582E008950895E0911D
:100BD000EB028091EA02E81730F4F0E0E451FD4FB7
:100BE000808190E008958FEF9FEF08959091EB0240
:100BF0008091EA02981750F4E92FF0E0E451FD4F9C
:100C0000208130E09F5F9093EB0202C02FEF3FEF17
:100C1000C90108958091EA0290E02091EB02821BC5
:100C200091090895CF92DF92EF92FF920F931F9355
:100C3000CF93DF937C01262F972F8A018091C202E8
:100C4000882391F0C62FD72F6E01C40ED51ECC1568
:100C5000DD0571F06991D701ED91FC910190F08172
:100C6000E02DC7010995F3CF642F822F0E94BE05A6
:100C7000C801DF91CF911F910F91FF90EF90DF900E
:100C8000CF900895CF93DF931F92CDB7DEB76983DE
:100C90002091C2022223D1F02091C002203240F0E4
:100CA00021E030E0FC013383228380E090E015C036
:100CB0008091C102E82FF0E0E056FD4F99819083CA
:100CC0008F5F8093C1028093C00205C061E0CE01B6
:100CD00001960E94BE0581E090E00F90DF91CF91D8
:100CE0000895089580E090E008952F923F924F92EA
:100CF0005F926F927F928F929F92AF92BF92CF92AC
:100D0000EF92FF920F931F93CF93DF933C010E94CA
:100D1000DE0E1B012C018091CE019091CF01A0919C
:100D2000D001B091D101A2019101281B390B4A0BCE
:100D30005B0B293231054105510508F490C060E094
:100D400070E083E293E00E940B0E80918802909104
:100D5000890260918003709181030E94721D5B0182
:100D6000C0912B03D0912C032197C81BD90B8091E4
:100D70002D0390912E034C0138E0831A910897FEC1
:100D800004C04C0147E0841A91089594879480919F
:100D90008003909181038C0F9D1F1816190664F52E
:100DA000B7FC2AC0D30114968D919C911597A81673
:100DB000B906C0F4ED91FC91309729F41092CD0161
:100DC000EDECF1E002C0EA0DFB1DCC24C394E12C54
:100DD000F12C01E010E02081A401BE0183E293E048
:100DE0000E946610B1E0AB1AB10880918003909127
:100DF0008103C81BD90BCBCF0E94A9138091880215
:100E00009091890220912B0330912C0322503109BB
:100E1000D3011496ED91FC91159760918003709128
:100E20008103E69FA001E79F500DF69F500D11240E
:100E3000240F351F8217930730F40196909389028F
:100E40008093880204C01092890210928802209236
:100E5000CE013092CF014092D0015092D101DF916A
:100E6000CF911F910F91FF90EF90CF90BF90AF90D7
:100E70009F908F907F906F905F904F903F902F90BA
:100E8000089580917703909178038130910519F14D
:100E90001CF4892B49F008958330910509F446C06C
:100EA000049709F46CC008958091C0039091C10328
:100EB000892B09F48FC081E080934D0381E497E092
:100EC000909356038093550361E088E00E94BC0C28
:100ED00083E090E06FC082E080934D0381E497E06F
:100EE000909356038093550360E088E00E94BC0C09
:100EF00040917A0350917B0328EE33E0429FC0017A
:100F0000439F900D529F900D1124A0E0B0E080937C
:100F10001D0390931E03A0931F03B093200384E04E
:100F200090E09093780380937703089582E0809314
:100F30004D0381E497E0909356038093550360E05E
:100F400088E00E94BC0C40917A0350917B0328EE0C
:100F500033E0429FC001439F900D529F900D11249A
:100F6000A0E0B0E080931D0390931E03A0931F03A5
:100F7000B093200310927803109277030895809124
:100F8000020190910301029729F58091000190914F
:100F900001010397F9F481E080934D0381E497E028
:100FA000909356038093550361E088E00E94BC0C47
:100FB00081E090E090937803809377038AEF90E04C
:100FC000A0E0B0E080931D0390931E03A0931F0345
:100FD000B093200308950F931F93CF93DF938091D5
:100FE0004B03811159C081E080934B0378940E9498
:100FF000521305E513E0C0E0D0E02C2FD801ED91AD
:10100000FD918D013097F1F1DE01AA5BBC4F17967F
:101010008C91813031F0B0F0823049F08330E9F0CA
:1010200031C08091470390914A03892723C0809162
:101030004A0390E00C2E02C0959587950A94E2F73A
:1010400080FF20C08091470390E002C0959587956E
:101050002A95E2F780FD16C01DC080914A0390E0FA
:101060000C2E02C0959587950A94E2F780FD0AC080
:101070008091470390E002C0959587952A95E2F705
:1010800080FD08C02196C830D10509F0B6CF109276
:101090004B0302C00995F6CFDF91CF911F910F91BD
:1010A0000895CF92DF92EF92FF920F931F93CF9309
:1010B000DF93C0918A02D0918B020E94DE0E6B01F9
:1010C0007C018E85882359F089859A8502979A87B5
:1010D000898789859A8597FF02C01A861986888133
:1010E0000E94930C2B8130E08217930711F413E0D8
:1010F00001C010E089810E94930C2B8130E082179F
:10110000930711F481E018278E819F81811B80FF56
:1011100012C0212F110F330B3F832E832C813D8171
:101120008270082E000C990B0197820F931F9D83EC
:101130008C8381E001C080E09E85992361F0882343
:1011400051F089859A85883E9B4028F489859A8547
:1011500049969A8789878A81882309F470C04091CB
:10116000C9015091CA016091CB017091CC019701E6
:101170008601041B150B260B370B0A3011052105C0
:10118000310508F45CC0C092C901D092CA01E09256
:10119000CB01F092CC010E94930C2B8130E082179E
:1011A000930781F48091C7019091C80101969093B3
:1011B000C8018093C7018937910520F083E090E052
:1011C0009C878B878A810E94930C3B8121E0232797
:1011D00030E08217930731F58091C7019091C801E3
:1011E000892BE1F08B859C85039719F484E090E0CE
:1011F00008C08091C601823048F08C3378F486E0D4
:1012000090E09C878B871092C60108C08D85811164
:1012100002C081E001C08CE38093C6011092C80136
:101220001092C7018091C601882349F082508093B3
:10123000C601811104C085E090E09C878B87DF9117
:10124000CF911F910F91FF90EF90DF90CF90089575
:101250002F923F924F925F926F927F928F929F92C6
:10126000AF92BF92CF92DF92EF92FF920F931F93B4
:10127000CF93DF9300D000D000D0CDB7DEB781E0B0
:101280008093BF038091770390917803039749F48B
:1012900080918402909185020196909385028093BB
:1012A00084021A82198213E000E06BE0462E512C72
:1012B00073E2672E712CE8EE8E2EE3E09E2EA12CB9
:1012C000B12C0E947F0E6B017C01E0916F03F091C5
:1012D0007003908180916903892B8083E0916B0377
:1012E000F0916C03908180916903809589238083BC
:1012F000C2010197F1F7E0916B03F0916C039081CB
:1013000080916903892B8083C3010197F1F7E091F4
:101310006B03F0916C039081809169038095892320
:101320008083E0916F03F091700390818091690355
:10133000809589238083E0916D03F0916E03908105
:1013400080916A03892309F0A2C00E947F0E209138
:1013500071033091720340E050E02855394E4F4FF1
:101360005F4FDC01CB01820F931FA41FB51F809339
:10137000730390937403A0937503B0937603E09185
:101380006D03F0916E03908180916A03892381F44B
:101390000E947F0E20917303309174034091750376
:1013A00050917603261737074807590740F76FC053
:1013B0000E947F0E2091710330917203DC01CB01FA
:1013C000820F931FA11DB11D80937303909374032B
:1013D000A0937503B0937603E0916D03F0916E03D3
:1013E000908180916A03892381F00E947F0E209171
:1013F000730330917403409175035091760326175F
:1014000037074807590740F742C00E947F0E2091D6
:10141000710330917203A901455051092091730362
:1014200030917403FA01E21BF30B6E0F7F1F6115FD
:10143000710569F1011102C040E01FC0402F842FE7
:1014400090E0FC013197EE0FFF1F21E030E02C0F00
:101450003D1FE20FF31F208131812617370768F403
:10146000880F991FE1E0F0E0EC0FFD1FE80FF91F76
:1014700031832083415019F7DFCFFE013196E40F0D
:10148000F11DE40FF11D718360830F5F01C01150E6
:10149000011738F50E947F0EDC01CB018C199D09E4
:1014A000AE09BF0988349147A105B10508F009CFFD
:1014B0000E947F0E48E4C40E41E7D41EE11CF11CDB
:1014C000A7019601261B370B480B590BCA01B9011E
:1014D000A50194010E94861DCA01B9010E94A40EB3
:1014E000F0CE1E7FFE01E10FF11D818192810FB6CA
:1014F000F894DEBF0FBECDBF69E370E00E945E1DB1
:10150000709383026093820280917C0390917D03AB
:101510008617970728F41092C1031092C00306C0E3
:10152000861B970B9093C1038093C00326960FB63A
:10153000F894DEBF0FBECDBFDF91CF911F910F9109
:10154000FF90EF90DF90CF90BF90AF909F908F90E3
:101550007F906F905F904F903F902F9008951F92D3
:101560000F920FB60F9211242F933F934F935F93D7
:101570006F937F938F939F93AF93BF93EF93FF935B
:101580008091B900887F803609F49CC068F5883264
:1015900009F45BC090F4803109F454C038F4882316
:1015A00009F4F6C0883009F44DC0F6C0883109F45A
:1015B0004CC0803209F45DC0EFC0803409F468C0CB
:1015C00048F4803309F455C0883309F0E5C08093AE
:1015D000E702D8C0803509F44FC0883509F45DC0F2
:1015E000883409F0D9C0D6C0883909F4C7C0A8F436
:1015F000883709F467C038F4883609F463C0803747
:1016000009F460C0C9C0883809F4B8C0803909F449
:101610005FC0803809F0C0C05BC0803B09F486C061
:1016200038F4803A09F466C0883A09F47FC0B4C03F
:10163000803C09F4A7C0883C09F4A4C0883B09F4A5
:101640008AC0AAC08091E40210C09091E602809105
:10165000E502981770F5E091E60281E08E0F809325
:10166000E602F0E0ED53FD4F80818093BB0085ECF6
:1016700086C08093E7028EC0E091E60281E08E0F83
:101680008093E6028091BB00F0E0ED53FD4F808334
:101690009091E6028091E5026EC0E091E60281E061
:1016A0008E0F8093E6028091BB00F0E0ED53FD4F7A
:1016B00080838091E80281116DC081E08093E30214
:1016C00084EA61C083E08093E90210921802CFCFD0
:1016D00080911802803208F051C0E091180281E038
:1016E0008E0F809318028091BB00F0E0E850FE4F0F
:1016F0008083BDCF85EC8093BC001092E90280917D
:101700001802803230F4E0911802F0E0E850FE4F09
:1017100010826091180270E0E091F601F091F701FB
:1017200088EF91E009951092180236C084E080930A
:10173000E9021092F5011092F401E091F201F091AA
:10174000F30109958091F401811105C081E0809336
:10175000F4011092D201E091F50181E08E0F8093A7
:10176000F501F0E0EE52FE4F80818093BB00909136
:10177000F5018091F401981708F479CF85E88093FA
:10178000BC000AC085EC8093BC001092E90204C042
:101790001092E7020E94B405FF91EF91BF91AF91C3
:1017A0009F918F917F916F915F914F913F912F9179
:1017B0000F900FBE0F901F9018950C940D1D8091E7
:1017C000770390917803029771F060E088E00E94BF
:1017D000BC0C82E090E090937803809377031092A2
:1017E000180362E01FC0109278031092770381E023
:1017F0008093180340917A0350917B0328EE33E0E5
:10180000429FC001439F900D529F900D1124A0E074
:10181000B0E080931D0390931E03A0931F03B09329
:10182000200360E080E090E00C94DD0BCF93DF9329
:1018300000D000D000D0CDB7DEB7809102019091EA
:101840000301019761F580910001909101018330BE
:101850009105A1F044F48130910569F00297F9F403
:1018600062E671E010C08430910559F00597B9F433
:1018700064EA71E008C060E571E005C060E771E00E
:1018800002C06AE871E0CE0101960E94D615CE0131
:1018900001960E94750689819A810E94431E80915B
:1018A000020190910301029799F560E070E083E2F4
:1018B00093E00E940B0E1092300310922F031092AF
:1018C0003203109231038091000190910101833025
:1018D0009105B1F01CF4029739F018C084309105DD
:1018E00079F0059769F012C080917903882319F087
:1018F00089EB91E002C08CEB91E00E94B51306C029
:1019000080918602909187020E94C7130E94A913BA
:1019100026960FB6F894DEBF0FBECDBFDF91CF91F4
:1019200008950E94A51FCF93DF93282F30E0F9017F
:10193000E859FF4F8491F901E255FA4FD491F9012A
:10194000E656FA4FC491CC2391F081110E941A0EF1
:10195000EC2FF0E0EE0FFF1FEA57FA4FA591B4917C
:10196000EC91ED2381E090E021F480E002C080E082
:1019700090E0DF91CF9108951F93CF93DF93282FAD
:1019800030E0F901E859FF4F8491F901E255FA4F2F
:10199000D491F901E656FA4FC491CC23C9F0162F21
:1019A00081110E941A0EEC2FF0E0EE0FFF1FE0579E
:1019B000FA4FA591B4918FB7F894111105C09C917D
:1019C000ED2FE095E92302C0EC91ED2BEC938FBF56
:1019D000DF91CF911F910895DF92EF92FF920F93C5
:1019E0001F93CF93DF93282F30E0F901EE0FFF1FF5
:1019F000E657FA4FA591B4910C91F901E75EFD4FBE
:101A0000D080D0260083220F331FF901E65FFE4FFE
:101A10000190F081E02D9081D922C9F1182F110F8A
:101A2000110F110FE12CF12CC1E0D0E09E010E2C22
:101A300001C0220F0A94EAF78D2D822309F1E12FCC
:101A4000EE0DF0E0EE0FFF1FDF01A45BBD4F8D91A7
:101A50009C918130910551F08330910519F4202338
:101A600029F40EC0029761F4202351F4E45EFD4F87
:101A700080819181892B21F00190F081E02D0995E1
:101A80008FEFE81AF80A88E0E816F10479F6DF919A
:101A9000CF911F910F91FF90EF90DF900895CF921B
:101AA000DF92EF92FF920F931F93CF93DF93FC018E
:101AB0006901342F8589882391F0823020F0908548
:101AC0009150961B692F9FEF980F923018F4328532
:101AD0003150341B80FF03C0862F632F382F67FDE2
:101AE00079C0862F062E000C990BC481D5818C17E6
:101AF0009D070CF06FC0032F10E04681578104173B
:101B000015070CF067C0568D23E0959587952A95AB
:101B1000E1F743E0159507954A95E1F7509F70016D
:101B2000519FF00C1124078D10A1800F911F8E0D75
:101B30009F1DDC012C91462F4770377081A192A127
:101B4000820F911DDC018C91823018F097E0941B7C
:101B5000492F9FEF980F923018F497E0931B392F7D
:101B600080FF03C0842F432F382F822F652F0E94C0
:101B7000521D859F20191124B8E02B9F400D112480
:101B800098E0899F300D1124632F70E083E07595F4
:101B900067958A95E1F7C69FC001C79F900DD69FB4
:101BA000900D1124840F911D47FD9A95038CF48D9F
:101BB000E02DE80FF91F377081E090E001C0880F39
:101BC0003A95EAF72081CD2811F0822B02C080954A
:101BD00082238083DF91CF911F910F91FF90EF902F
:101BE000DF90CF9008950895FC016370658B848128
:101BF000958126813781613039F0633029F09187F2
:101C0000808733872287089531872087938782874B
:101C100008950C94F40DFC01458D50E0672B19F4E8
:101C200060E070E002C06FEF70E0FC01838D948D86
:101C30000C94B31F833081F028F4813099F0823006
:101C4000A1F008958730A9F08830B9F08430D1F43C
:101C5000809180008F7D03C0809180008F7780937A
:101C60008000089584B58F7702C084B58F7D84BDD0
:101C700008958091B0008F7703C08091B0008F7D70
:101C80008093B0000895CF93DF9390E0FC01E2557C
:101C9000FA4F2491FC01E656FA4F8491882361F1B2
:101CA00090E0880F991FFC01E458FA4FC591D49138
:101CB000FC01E057FA4FA591B491611109C09FB79B
:101CC000F8948881209582238883EC912E230BC081
:101CD000623061F49FB7F8943881822F8095832316
:101CE0008883EC912E2B2C939FBF06C08FB7F8945E
:101CF000E8812E2B28838FBFDF91CF9108953FB7C6
:101D0000F89480919C0290919D02A0919E02B091C6
:101D10009F0226B5A89B05C02F3F19F00196A11D73
:101D2000B11D3FBFBA2FA92F982F8827820F911D71
:101D3000A11DB11DBC01CD0142E0660F771F881FB8
:101D4000991F4A95D1F708958F929F92AF92BF92B3
:101D5000CF92DF92EF92FF926B017C010E947F0E87
:101D60004B015C01C114D104E104F104F1F00E94C3
:101D70007F0EDC01CB0188199909AA09BB09883EAD
:101D80009340A105B10570F321E0C21AD108E10822
:101D9000F10888EE880E83E0981EA11CB11CC114C6
:101DA000D104E104F10419F7DDCFFF90EF90DF904B
:101DB000CF90BF90AF909F908F9008952FB7F894D9
:101DC000609198027091990280919A0290919B0281
:101DD0002FBF08951F920F920FB60F9211242F93C9
:101DE0003F938F939F93AF93BF938091980290916D
:101DF0009902A0919A02B0919B023091970223E040
:101E0000230F2D3720F40196A11DB11D05C026E832
:101E1000230F0296A11DB11D209397028093980273
:101E200090939902A0939A02B0939B0280919C0296
:101E300090919D02A0919E02B0919F020196A11DDA
:101E4000B11D80939C0290939D02A0939E02B0933B
:101E50009F02BF91AF919F918F913F912F910F90D2
:101E60000FBE0F901F9018951F920F920FB60F92F2
:101E700011242F933F934F935F936F937F938F938F
:101E80009F93AF93BF93EF93FF93E0918002F09104
:101E900081020995FF91EF91BF91AF919F918F9131
:101EA0007F916F915F914F913F912F910F900FBE56
:101EB0000F901F9018951F920F920FB60F9211243A
:101EC0002F933F934F935F936F937F938F939F9342
:101ED000AF93BF93EF93FF9382E00E94EC0CFF91CE
:101EE000EF91BF91AF919F918F917F916F915F9192
:101EF0004F913F912F910F900FBE0F901F9018950B
:101F00001F920F920FB60F9211242F933F934F936E
:101F10005F936F937F938F939F93AF93BF93EF9351
:101F2000FF9381E00E94EC0CFF91EF91BF91AF9184
:101F30009F918F917F916F915F914F913F912F91E1
:101F40000F900FBE0F901F9018951F920F920FB613
:101F50000F9211242F933F934F935F936F937F932F
:101F60008F939F93AF93BF93EF93FF9380E00E9473
:101F7000EC0CFF91EF91BF91AF919F918F917F9169
:101F80006F915F914F913F912F910F900FBE0F90E6
:101F90001F9018951F920F920FB60F9211242F9336
:101FA0003F934F935F936F937F938F939F93AF93E1
:101FB000BF93EF93FF93E0919502F09196020995FC
:101FC000FF91EF91BF91AF919F918F917F916F9111
:101FD0005F914F913F912F910F900FBE0F901F90E7
:101FE0001895FC01F894248135818085823021F494
:101FF000C9018170992705C0843031F4C90183700B
:1020000099279583848302C01582148278948085F1
:10201000843029F4359527953595279504C082306D
:1020200011F4359527958685882329F08185928539
:10203000892F992702C080E090E037FF03C0809588
:1020400090950895232B11F00196089580E090E07B
:102050000895EF92FF921F93CF93DF931F92CDB716
:10206000DEB77C01162F60E0DC015A968C91498323
:102070000E94BC0C8FEF810FF701958D980F49815D
:1020800098501EBD00000DB407FEFDCF2EB51930CF
:1020900048F4D7015B96ED91FC915C97E90FF11D37
:1020A000208101C0242F2EBD00000DB407FEFDCFFE
:1020B0002EB5891728F361E0F701828D0F90DF912B
:1020C000CF911F91FF90EF900C94BC0C2F923F92F8
:1020D0004F925F926F927F928F929F92AF92BF9238
:1020E000CF92DF92EF92FF920F931F93CF93DF93E4
:1020F000CDB7DEB76C970FB6F894DEBF0FBECDBF7D
:102100009C8F8B8F5B011A011F830E833701C9825D
:10211000DC0158964D915C9159974115510509F094
:10212000E5C018968D919C911997681779070CF066
:10213000CAC11A968D919C911B97281639060CF0EE
:10214000C2C18C2C912CFB0136E0C39EE00DF11D29
:102150001124FB87EA871E161F060CF0B4C1C401C8
:1021600033E0880F991F3A95E1F79D878C87820DA0
:10217000931D181619060CF0A6C157968C91811163
:1021800003C0203B08F02F5FAB8DBC8DED91FC911F
:1021900011970284F385E02DCD012A8F09952A8DB0
:1021A000B5E02B9F90011124F5013596FF87EE874E
:1021B000BB82AA822501A9014A195B09598B488B68
:1021C000C10108969B8B8A8BE889F989E40DF51D7E
:1021D000E458FF4F9491988761013D822C82A88535
:1021E000A0FF13C0AB8DBC8DED91FC91B981B130D6
:1021F00031F40484F585E02D2E813F8116C00684DC
:10220000F785E02DEE80FF801AC0EE81FF816E160B
:102210007F06F1F0AB8DBC8DED91FC91B981B130B1
:1022200051F40484F585E02D9301A601B2018B8D54
:102230009C8D09950DC00684F785E02D73018401FE
:1022400094014C815D816A817B818B8D9C8D099588
:10225000E885E695E887FFEFCF1ADF0A2C813D81FC
:10226000280D391D3D832C834A895B89C416D50608
:1022700009F0B5CF5FEF451A550A8A819B81880D19
:10228000991D9B838A83AE85BF854A165B0609F03C
:102290009BCFEE81FF816E167F0609F4F2C0EB8DB5
:1022A000FC8DA081B181F981F13079F4B5016B5FCA
:1022B0007F4F5096ED91FC915197830128E030E0DB
:1022C000A1018B8D9C8D0995DCC06A857B85681981
:1022D00079091E96ED91FC911F9773010C851D8560
:1022E0009401A1018B8D9C8D0995CBC0FA01349688
:1022F0009491329765917491291BCB01B7E02B9F84
:10230000800D911D1124FA01259134913B8B2A8B6C
:10231000FC01459154915B834A83FC013296C49041
:10232000319654915E87329614913196D49089817A
:10233000823058F0612E012E000C7708AD2D0D2C47
:10234000000CBB0BB987A88704C019861886612CBE
:10235000712CAB8DBC8DED91FC9111970284F385AE
:10236000E02DCD010995B9818B2E912C689CC0017F
:10237000699C900D789C900D1124FC01EA0DFB1DC9
:10238000FD87EC871C82712C612CE12F110FFF0B54
:1023900095012E0F3F1F3B872A87AC0CB11CA5016E
:1023A0004E0F5F1F5F8B4E8BC1018D0D911DD7FCB2
:1023B0009A95998F888F4E85641608F062C0862D95
:1023C00090E048855985480F591F489D9001499DC7
:1023D000300D589D300D1124D901A20DB31DB98BBC
:1023E000A88BAA84BB844C845D84DC80BA85DB1A0C
:1023F000E88DF98DE80FF91FFD8BEC8B8D2D8A0D83
:102400002E893F89A216B306B9F1877061F48A81DB
:102410009B810196EA89FB89AA81BB81EA0FFB1F98
:1024200074909B838A8377FE20C0AB8DBC8DED9129
:10243000FC91B981B13061F40484F585E02D2E81E1
:102440003F814C895D89B5018B8D9C8D09950DC0AF
:102450000684F785E02DEE80FF8084019401488991
:102460005989B2018B8D9C8D0995770CEFEFAE1ACF
:10247000BE0A480C591CC2CF3C813C0D3C8363947E
:102480009ACFAB8DBC8DED91FC9111970688F789A1
:10249000E02DCD016C960FB6F894DEBF0FBECDBF18
:1024A000DF91CF911F910F91FF90EF90DF90CF9030
:1024B000BF90AF909F908F907F906F905F904F9064
:1024C0003F902F9009946C960FB6F894DEBF0FBE24
:1024D000CDBFDF91CF911F910F91FF90EF90DF90D3
:1024E000CF90BF90AF909F908F907F906F905F90B4
:1024F0004F903F902F900895AF92BF92CF92EF925E
:10250000FF920F931F93CF93DF93EC01262F888DBB
:10251000998D009709F040C06A3059F41D861C86D9
:102520002C898E859F8538E0239F800D911D112475
:1025300041C06D3009F4AAC08E898823C1F03C895E
:102540008C859D8546E0349F800D911D1124488522
:102550005985481759075CF41D861C868E859F8512
:1025600048E0349F800D911D11249F878E87EA8853
:10257000FB88088919894E855F856C857D85CC88A7
:10258000CE010E9466102C898C859D8536E0239FA4
:10259000800D911D112442C06A3079F41D861C867D
:1025A0002C89FC013696E4918E859F852E9F800DA7
:1025B000911D11249F878E8769C06D3009F466C014
:1025C000FC0134963491631708F460C03196E491AD
:1025D000E61708F45BC0FC013296A590B490462F34
:1025E00050E0431B510937E0349FB001359F700D17
:1025F0001124A60EB71EF501329634913196E4915E
:10260000332311F0E1110DC0F5013496E4912C89CA
:102610008C859D85E29F800D911D11249D878C875F
:1026200035C0F501359644915E89552311F16C89C9
:10263000E32FF0E0E40FF11D47FDFA956E9FD00106
:102640006F9FB00D11244C855D854A0F5B1FE88597
:10265000F985E417F5076CF41D861C86FC01369697
:10266000E4918E859F856E9F800D911D11249F871B
:102670008E87EA88FB88088919894E855F856C8575
:102680007D85CC88CE010E946610BECF81E090E0AF
:10269000DF91CF911F910F91FF90EF90CF90BF905E
:1026A000AF9008958091470380934A038091490336
:1026B0009091E9029111FCCF91E09093E9029093FF
:1026C000E8022FEF2093E7021092E6021092E50253
:1026D0009093E4029091E402880F892B8093E402A6
:1026E0008091E302813061F41092E3028091E40270
:1026F0008093BB008091BC0083FDF8CF85EC01C0C6
:1027000085EE8093BC008091E9028130E1F38091F5
:10271000E602811103C08091E60201C081E0A3ECD2
:10272000B2E02CEE32E0F9019E2F921B981718F4BC
:102730009D919193F9CF1092EB028093EA0281115F
:1027400001C0FFCF8CE093E00E94F6058093470321
:102750000895CF93C8E040E06C2F83E293E00E949D
:102760002910C150C1F7CF910895009769F0FC017D
:1027700001900020E9F73197AF01481B590BBC01CC
:1027800083E293E00C94701480E090E00895CF927F
:10279000DF92EF92FF920F931F93CF93DF93CDB70A
:1027A000DEB7A1970FB6F894DEBF0FBECDBF9C0178
:1027B00040E050E019A28E010F5D1F4F8AE0C82E45
:1027C000D12CE12CF12CCA01B901A70196010E947C
:1027D000861D605DF80162938F0121153105410569
:1027E000510589F7CF010E94B513A1960FB6F89451
:1027F000DEBF0FBECDBFDF91CF911F910F91FF9034
:10280000EF90DF90CF900895CF9390914703609120
:10281000480380914603C091490321E02093C202FE
:10282000C09382031092C1021092C0026095692386
:10283000682B8CE093E00E9442068091C0028132B6
:1028400008F046C09091E9029111FCCF92E090937C
:10285000E90291E09093E8029FEF9093E7021092D3
:10286000E6028093E502A0EAB2E023EC32E0F9014F
:102870009E2F921B981718F49D919193F9CF109267
:10288000E4028091E402CC0FC82BC093E402809153
:10289000E302813061F41092E3028091E4028093BC
:1028A000BB008091BC0083FDF8CF85EC01C085EEB4
:1028B0008093BC008091E9028230E1F38091E702CD
:1028C0008F3F31F08091E702803211F08091E70272
:1028D0001092C1021092C0021092C202CF910895CC
:1028E000CF92DF92EF92FF920F931F93CF93DF93DC
:1028F0006C017A018B01C0E0D0E0CE15DF0589F0D4
:10290000D8016D918D01D601ED91FC910190F0817E
:10291000E02DC6010995892B11F47E0102C0219694
:10292000ECCFC701DF91CF911F910F91FF90EF90F6
:10293000DF90CF900895EF92FF920F931F93CF9364
:10294000DF93EC017B018A0188819981009729F04E
:102950002A813B8124173507F8F4B8016F5F7F4F58
:102960000E94DB1E009759F0998388831B830A839A
:102970002C813D81232B81F4FC0110820DC08881C4
:102980009981009711F00E94431E198218821D82BE
:102990001C821B821A8207C01D830C83B7018881A9
:1029A00099810E94BA1FCE01DF91CF911F910F91A3
:1029B000FF90EF900895AF92BF92CF92DF92EF9287
:1029C000FF920F931F93CF93DF93CDB7DEB7679737
:1029D0000FB6F894DEBF0FBECDBF182F062F0E9492
:1029E000DE0E6B017C012091C0033091C103C9014F
:1029F00023E0880F991F2A95E1F720917C033091FD
:102A00007D0340917E0350917F03B901641B750BD8
:102A10000E945E1D5B0160E070E083E293E00E9433
:102A20000B0E8091BF03882349F121E030E040E0A4
:102A300050E06FE070E083E293E00E944F0D8091E0
:102A4000C2039091C303A091C403B091C503A70131
:102A50009601281B390B4A0B5B0B253631054105C6
:102A60005105A0F020E030E040E050E06FE070E081
:102A700083E293E00E944F0D1092BF03C092C20305
:102A8000D092C303E092C403F092C503002319F06F
:102A900021E030E002C020E030E042E050E06FE0B2
:102AA00070E083E293E00E944F0D809179038823C8
:102AB00019F020E030E002C021E030E044E050E0D6
:102AC0006FE070E083E293E00E944F0D112319F054
:102AD00021E030E002C020E030E046E050E06FE06E
:102AE00070E083E293E00E944F0D82E0C82ED12C6B
:102AF000D0923003C0922F03109232031092310310
:102B000008E010E00A191B09EE24E394F12C20E000
:102B100030E047E050E060E070E083E293E00E9444
:102B20006B03D0923003C0922F03109232031092A5
:102B300031038091C0039091C1031B8A1A8A1D8AB8
:102B40001C8A1F8A1E8A4AE08E010F5F1F4FB80140
:102B50000E94DB1CF80101900020E9F73197AF01DA
:102B6000401B510BB801CE0142960E949B144E8926
:102B70005F896A897B8983E293E00E9470148A8965
:102B80009B890E94431E0E94A91367960FB6F89472
:102B9000DEBF0FBECDBFDF91CF911F910F91FF9090
:102BA000EF90DF90CF90BF90AF900895FC0111821D
:102BB000108213821282158214826115710551F000
:102BC000FB0101900020E9F73197AF01461B570B3D
:102BD0000C949B140895789484B5826084BD84B568
:102BE000816084BD85B5826085BD85B5816085BD08
:102BF00080916E00816080936E00109281008091C0
:102C00008100826080938100809181008160809347
:102C10008100809180008160809380008091B1006C
:102C200084608093B1008091B00081608093B00097
:102C300080917A00846080937A0080917A0082602B
:102C400080937A0080917A00816080937A008091ED
:102C50007A00806880937A001092C1009FE088E13A
:102C60000FB6F894A895809360000FBE9093600013
:102C700061E088E00E94430E60E088E00E94BC0CA6
:102C800040E06AE083E293E00E94291060E070E097
:102C900083E293E00E940B0E8FEB91E00E94B5134C
:102CA0000E94A91380E2809349031092EB021092D4
:102CB000EA021092C1021092C0021092E90281E071
:102CC0008093E8021092E30261E082E10E94BC0C72
:102CD00061E083E10E94BC0C8091B9008E7F8093FB
:102CE000B9008091B9008D7F8093B90088E480930A
:102CF000B80085E48093BC000E9452138091480381
:102D00008E7F80934803809146038E7F8093460395
:102D10000E940414809148038E7F80934803809121
:102D200046038160809346030E9404148091480307
:102D30008D7F80934803809146038D7F8093460367
:102D40000E940414809148038D7F809348038091F2
:102D500046038260809346030E94041460E082E090
:102D60000E94430E61E082E00E94BC0C82E08093EE
:102D70004C0362E00E94430EE0EBF5E02491ECE9A5
:102D8000F5E0E491EE2309F447C0E250AE2FB0E045
:102D9000AA0FBB1FA65FBE4F0D90BC91A02DE130C6
:102DA00031F08E2F880F880F880F8E5F01C08CEF57
:102DB00090E0880F991FEC01C45BDD4F42E050E0CA
:102DC00059834883EC01C45EDD4F4BEE57E05983D5
:102DD00048838C91282B2C932091680081E090E00F
:102DE00001C0880FEA95EAF7822B80936800EAE831
:102DF000F5E0A591B4918C9180931902ECE8F5E08F
:102E0000A591B4918C9180931A02EEE8F5E0A5911A
:102E1000B4918C9180931B0282E080934E032FED3E
:102E20003BE0309358032093570380934D0381E494
:102E300097E090935603809355038FE090E00E94B3
:102E4000AE1DEC0180E188838FE0898381E18A8374
:102E50001B821D821C821F821E8281E088871A8647
:102E600019861C861B868D878E8762E080E10E9412
:102E7000430E62E089810E94430E62E08A810E94D3
:102E8000430E88810E94930C2B8130E082179307B8
:102E900021F483E090E09F838E8389810E94930CCC
:102EA0002B8130E08217930731F48E819F8121E0DE
:102EB00082279F838E83D0938B02C0938A0291E0F6
:102EC0009E871092800080E18093810090937E0223
:102ED0008FB780937F02F89420E43FE130937D0226
:102EE00020937C02309387002093860080917F029C
:102EF0008FBF80918100887F809381002091810025
:102F000080917E02282B2093810021E538E03093C8
:102F100081022093800290936F0090918100892B11
:102F20008093810080918A0290918B020E94F10F20
:102F300090938D0280938C0240E06AE083E293E0FC
:102F40000E942910C0E0D0E080912B0390912C03C7
:102F5000019760E070E0C817D90734F583E293E089
:102F60000E940B0E00912D0310912E0301501109A8
:102F700020912B0330912C03215031092C1B3D0B48
:102F8000EE24E394F12C40E050E0BE0183E293E0B4
:102F90000E946B030E94A91360E570E080E090E05E
:102FA0000E94A40E2196D0CF83E293E00E940B0EE4
:102FB0000E94A913A89580E090E00E94051D90E072
:102FC000909378038093770381E090E00E94051D41
:102FD00091E0811101C090E09093790382E090E04C
:102FE0000E94051D90E090937B0380937A0383E019
:102FF00090E00E94051D90E090937D0380937C03F8
:1030000084E090E00E94051D90E090937F03809300
:103010007E030E94280980917C0390917D0320917A
:103020007E0330917F03821B930B909392028093D7
:10303000910240917A0350917B0328EE33E0429F46
:10304000C001439F900D529F900D1124A0E0B0E06D
:1030500080931D0390931E03A0931F03B09320033E
:1030600032E0C32ED12C44E0242E312C53E0A52E87
:10307000B12C6AEF462E512C612C712C992493941B
:10308000C1E0D0E0A895809118038823F1F00E9458
:10309000DE0E0091190310911A0320911B03309149
:1030A0001C03DC01CB01801B910BA20BB30B009125
:1030B0001D0310911E0320911F03309120038017E0
:1030C0009107A207B30708F0B9C200918A021091D4
:1030D0008B02C8010E94F10F20918E0230918F0265
:1030E000820F931F90938F0280938E0297FD01961B
:1030F0009595879520918C0230918D02281739077C
:103100003CF490938D0280938C029092930209C0BC
:103110008217930764F490938D0280938C029092AF
:10312000900266E970E080E090E00E94A40EF80151
:1031300083859485238534852330310511F01486E9
:103140001386009721F0059711F4909294028091D4
:103150009302882309F48DC020910201309103016C
:103160002130310509F040C010929302109289027B
:1031700010928802809100019091010181309105A7
:1031800029F4D0920101C092000173C082309105F0
:1031900049F4B0920101A092000180917C039091CA
:1031A0007D035CC08330910549F430920101209287
:1031B0000001809191029091920250C0843091055B
:1031C00059F445E050E05093010140930001809193
:1031D0007A0390917B0342C0059709F04AC030936F
:1031E00001012093000145C02230310509F041C0A2
:1031F00080910001909101018230910561F410925B
:10320000930280917903882319F01092790331C0D9
:10321000909279032EC08330910589F41092930225
:103220008091860290918702019690938702809305
:10323000860284369105E8F083E690E00FC0843082
:10324000910561F30597A9F410929302809186028B
:103250009091870201968B35910528F4909387020F
:103260008093860206C0EAE5F0E0F0938702E093DF
:10327000860280919002882309F489C0209102017E
:10328000309103012130310509F044C010929002C1
:1032900010928902109288028091000190910101A0
:1032A0008130910559F445E050E05093010140937D
:1032B000000180917A0390917B0313C082309105C5
:1032C00029F4309301012093000161C083309105FE
:1032D00069F4D0920101C092000180917C03909129
:1032E0007D03909387028093860251C084309105BC
:1032F00029F4B0920101A0920001EFCF059709F0E7
:1033000046C030920101209200018091910290917B
:103310009202E7CF22303105D1F5809100019091E2
:1033200001018230910561F410929002809179033D
:10333000882319F0109279032AC09092790327C04C
:103340008330910591F410929002809186029091C1
:103350008702019790938702809386020297B8F4C0
:10336000D0928702C092860212C08430910559F330
:10337000059769F4109290028091860290918702DD
:10338000019709F0AECFD0938702C0938602809157
:103390009402882309F48FC01092940280917703DD
:1033A00090917803049769F0309278032092770324
:1033B000D0930301C0930201D0930101C093000197
:1033C0007AC080910201909103018130910561F5ED
:1033D000809100019091010181309105E1F41092FA
:1033E00078031092770320917A0330917B03E8EE03
:1033F000F3E02E9FC0012F9F900D3E9F900D112452
:10340000A0E0B0E080931D0390931E03A0931F03E0
:10341000B093200350C00297049708F04CC0D0929C
:103420000301C092020147C0029709F044C0809195
:1034300000019091010183309105C1F03CF40297A5
:10344000B1F56091790381E090E02FC0843091055F
:10345000C1F0059761F560918602809187026093C3
:103460007A0380937B0382E090E01FC06091860224
:103470008091870260937C0380937D0383E090E0DA
:1034800014C0809186029091870260917C037091B4
:103490007D03681B790B70937F0360937E03909389
:1034A00092028093910284E090E00E94DD0BD09321
:1034B0000301C093020180917703909178038230D9
:1034C000910509F43FC074F40097A1F0019709F049
:1034D000ADC0809182029091830290938702809385
:1034E0008602A2C08330910509F45CC0049709F4F8
:1034F0009BC09CC02091C0033091C1038091910278
:103500009091920282179307D8F4809179038823CF
:10351000A9F0B0927803A092770361E088E00E945E
:10352000BC0C40921D0350921E0360921F037092C8
:103530002003109285021092840278C060E06EC071
:1035400060E06EC060E070E083E293E00E940B0EEA
:10355000EE24E394F12C08E010E020E130E040E0BC
:1035600050E060E070E083E293E00E940C0307E02B
:1035700010E02FE030E040E050E060E070E083E2F7
:1035800093E00E946B0300E010E02FE030E047E0A2
:1035900050E060E070E083E293E00E946B030E94E1
:1035A000A91344C08091C0039091C103892B39F0C5
:1035B0008091840290918502883791051CF11092C8
:1035C00078031092770360E088E00E94BC0C2091A1
:1035D0007A0330917B0348EE53E0249FC001259F7E
:1035E000900D349F900D1124A0E0B0E080931D0356
:1035F00090931E03A0931F03B093200310928502A3
:10360000109284022091C0033091C10380919102F5
:103610009091920261E08217930710F481E001C05B
:1036200080E00E94DB1402C00E94160C80E090E053
:10363000892B09F427CD0E94000020CD0E94DE0EC8
:103640006093190370931A0380931B0390931C03D8
:10365000E0912103F0912203099537CD0F931F9339
:10366000CF9310920F0310920E0388EE93E0A0E028
:10367000B0E08093100390931103A0931203B093D2
:10368000130384E191E090930D0380930C0386E093
:1036900090E090938103809380031092790381E0FE
:1036A00090E090937B0380937A038CE190E0909379
:1036B0007D0380937C0328E030E030937F032093E8
:1036C0007E03E2EBF5E0E491E0936903E1EBF5E0E2
:1036D000E491E0936A038EE995E0FC014491E42FC4
:1036E000F0E0EE0FFF1FE057FA4F459154915093D1
:1036F0006C0340936B03EDE9F5E0E491F0E0EE0F2D
:10370000FF1FEA57FA4F4591549150936E0340932F
:103710006D03FC018491E82FF0E0EE0FFF1FE458E9
:10372000FA4F859194919093700380936F038DE786
:1037300096E1909372038093710310924603109266
:103740004703109248031092490310924A031092C3
:103750004B0310924C0310924D0310924E031092A3
:103760004F03109250031092510310925203109283
:103770005303109254031092560310925503109263
:1037800058031092570310925A0310925903109243
:103790005C0310925B0310925E0310925D03109223
:1037A000600310925F031092620310926103109203
:1037B000640310926303C1E0C0939C0310929E03C4
:1037C00010929D038DEC9CECACECBDE38093AB03BD
:1037D0009093AC03A093AD03B093AE0380E090E070
:1037E000A0EAB0E480939F039093A003A093A10369
:1037F000B093A203109226031092250380E190E07B
:10380000909328038093270330932A03209329035E
:1038100090932C0380932B0330932E0320932D033E
:10382000109238031092300310922F03109232033B
:1038300010923103C09337038FEF9FEF90933603BD
:10384000809335039093340380933303C0933903FB
:1038500010923A0310923C0310923B0386E291E0EF
:10386000909324038093230387E080933D0382E0B9
:103870008093410380E18093400380E190E00E94C7
:10388000AE1D90933F0380933E0382E090E00E9440
:10389000AE1D8C01909345038093440382E090E039
:1038A0000E94AE1D9093430380934203FC0110825B
:1038B000F8011082FC01C183F8011182CFB7F8949E
:1038C00080918303811127C0E4EAF5E08491E8EB5D
:1038D000F5E09491E82FF0E0EE0FFF1FE458FA4F67
:1038E000A591B491EC91E92321F461E08AE00E9472
:1038F000BC0C61E08AE00E94430E8CB580618CBDF7
:103900008CB580648CBD61E08DE00E94430E61E067
:103910008BE00E94430E809183038F5F809383032B
:10392000CFBF61E080913D030E94430E60E070E0F4
:1039300083E293E00E940B0E40E06FE083E293E0AD
:103940000E94291047E06BE083E293E00E94291077
:1039500040E069E083E293E00E94291041E06CE0DE
:1039600083E293E00E94291047E06AE083E293E05B
:103970000E94291081E0809318031092190310927D
:103980001A0310921B0310921C0388EE93E0A0E030
:10399000B0E080931D0390931E03A0931F03B09388
:1039A000200388E299E09093220380932103CF9132
:1039B0001F910F910895BB27FB015527AA27880F58
:1039C000991FAA1FA41710F0A41B83955051B9F793
:1039D000A05DAA3308F0A95DA193009779F7B11112
:1039E000B1931192CB010C94F51CDC01FC01672F03
:1039F00071917723E1F7329704C07C916D937083C6
:103A00006291AE17BF07C8F30895F999FECF92BD32
:103A100081BDF89A992780B50895262FF999FECF90
:103A20001FBA92BD81BD20BD0FB6F894FA9AF99ADB
:103A30000FBE019608952F923F924F925F926F9220
:103A40007F928F929F92AF92BF92CF92DF92EF922E
:103A5000FF920F931F93CF93DF93CDB7DEB7CA1BAF
:103A6000DB0B0FB6F894DEBF0FBECDBF09942A88DA
:103A7000398848885F846E847D848C849B84AA8482
:103A8000B984C884DF80EE80FD800C811B81AA810F
:103A9000B981CE0FD11D0FB6F894DEBF0FBECDBFDA
:103AA000ED010895991B79E004C0991F961708F05D
:103AB000961B881F7A95C9F780950895AA1BBB1B92
:103AC00051E107C0AA1FBB1FA617B70710F0A61B1E
:103AD000B70B881F991F5A95A9F780959095BC013F
:103AE000CD01089597FB072E16F4009407D077FDBB
:103AF00009D00E945E1D07FC05D03EF4909581958B
:103B00009F4F0895709561957F4F0895A1E21A2EF9
:103B1000AA1BBB1BFD010DC0AA1FBB1FEE1FFF1F71
:103B2000A217B307E407F50720F0A21BB30BE40BC1
:103B3000F50B661F771F881F991F1A9469F7609508
:103B40007095809590959B01AC01BD01CF010895C2
:103B5000EE0FFF1F0590F491E02D0994CF93DF93B2
:103B60008230910510F482E090E0E091C803F0917A
:103B7000C90320E030E0C0E0D0E0309711F140818F
:103B8000518148175907C0F04817590761F48281DD
:103B90009381209719F09B838A832BC09093C9034C
:103BA0008093C80326C02115310519F04217530729
:103BB00018F49A01BE01DF01EF010280F381E02DCC
:103BC000DCCF2115310509F1281B390B24303105D3
:103BD00090F412968D919C9113976115710521F0C7
:103BE000FB019383828304C09093C9038093C8032D
:103BF000FD01329644C0FD01E20FF31F81939193C2
:103C0000225031092D933C933AC02091C603309144
:103C1000C703232B41F42091060130910701309313
:103C2000C7032093C603209104013091050121159B
:103C3000310541F42DB73EB740910801509109017B
:103C4000241B350BE091C603F091C703E217F3077D
:103C5000A0F42E1B3F0B2817390778F0AC014E5FFC
:103C60005F4F2417350748F04E0F5F1F5093C7036F
:103C70004093C6038193919302C0E0E0F0E0CF014E
:103C8000DF91CF9108950F931F93CF93DF93009708
:103C900009F48CC0FC013297138212820091C80390
:103CA0001091C9030115110581F420813181820F22
:103CB000931F2091C6033091C7032817390779F560
:103CC000F093C703E093C60371C0D80140E050E011
:103CD000AE17BF0750F412962D913C911397AD018A
:103CE0002115310509F1D901F3CF9D01DA013383A3
:103CF000228360817181860F971F8217930769F471
:103D0000EC0128813981260F371F2E5F3F4F318309
:103D100020838A819B8193838283452B29F4F093AE
:103D2000C903E093C80342C01396FC93EE93129725
:103D3000ED01499159919E01240F351FE217F307B8
:103D400071F480819181840F951F029611969C9346
:103D50008E938281938113969C938E931297E0E0C9
:103D6000F0E0D80112968D919C911397009719F06D
:103D7000F8018C01F6CF8D919C9198012E5F3F4FF9
:103D8000820F931F2091C6033091C703281739076C
:103D900069F4309729F41092C9031092C80302C045
:103DA000138212821093C7030093C603DF91CF9151
:103DB0001F910F910895A0E0B0E0E1EEFEE10C94B8
:103DC0001F1DEC01009721F4CB010E94AE1DB8C06D
:103DD000FC01E60FF71F9C0122503109E217F3079F
:103DE00008F4ACC0D9010D911C9111970617170763
:103DF000B0F00530110508F49FC0C801049786177C
:103E0000970708F499C002501109061B170B01937C
:103E100011936D937C93CF010E94431E8DC05B0173
:103E2000A01AB10A4C01800E911EA091C803B09156
:103E3000C90340E050E0E12CF12C109709F44AC08E
:103E4000A815B905D1F56D907C901197630182E0BA
:103E5000C80ED11CCA14DB0480F1A3014A195B0906
:103E60006A0182E0C80ED11C1296BC90129713967C
:103E7000AC91B5E0CB16D10440F0B282A38351835C
:103E80004083D9016D937C930AC00E5F1F4FC3011D
:103E9000800F911FF90191838083EB2DFA2FE1149C
:103EA000F10431F0D7011396FC93EE93129744C0BE
:103EB000F093C903E093C8033FC08D919C91119783
:103EC0004817590708F4AC017D0112960D90BC917A
:103ED000A02DB3CF8091C6039091C7038815990593
:103EE000E1F446175707C8F4809104019091050149
:103EF000009741F48DB79EB7409108015091090198
:103F0000841B950BE817F907C8F4F093C703E093F7
:103F1000C603F901718360830FC0CB010E94AE1DFF
:103F20007C01009759F0A801BE010E94AA1FCE0192
:103F30000E94431EC70104C0CE0102C080E090E091
:103F4000CDB7DEB7EEE00C943B1D81E090E0F89435
:103F50000C94C11FFB01DC0102C001900D92415085
:103F60005040D8F70895DC0101C06D934150504096
:103F7000E0F70895FB01DC0101900D920020E1F7CC
:063F80000895F894FFCF44
:103F8600010001000000CA0380006B006C006D0098
:103F960000000000420612067206E6050A06F6054D
:103FA600E705000000007C127014720671064F0DC2
:103FB60009050205DA04F604EA040A05D904090E1D
:103FC600F30D9404500400040B0E6B030C03010064
:103FD600312E2077796A73636965207A206D656E64
:103FE6007500322E207472796220707261637900D6
:103FF600332E206D696E20706F7A696F6D20772081
:104006007A62696F726E696B7500342E206D617805
:1040160020706F7A696F6D2077207A62696F726E91
:10402600696B7500352E20706F6D69617220636F44
:1040360020696C6520736563004175004D6E003E16
:02404600000078
:107E0000112484B714BE81FFF0D085E080938100F7
:107E100082E08093C00088E18093C10086E0809377
:107E2000C20080E18093C4008EE0C9D0259A86E02C
:107E300020E33CEF91E0309385002093840096BBD3
:107E4000B09BFECF1D9AA8958150A9F7CC24DD24C4
:107E500088248394B5E0AB2EA1E19A2EF3E0BF2EE7
:107E6000A2D0813461F49FD0082FAFD0023811F036
:107E7000013811F484E001C083E08DD089C08234E0
:107E800011F484E103C0853419F485E0A6D080C0E4
:107E9000853579F488D0E82EFF2485D0082F10E0AE
:107EA000102F00270E291F29000F111F8ED06801E7
:107EB0006FC0863521F484E090D080E0DECF843638
:107EC00009F040C070D06FD0082F6DD080E0C81688
:107ED00080E7D80618F4F601B7BEE895C0E0D1E017
:107EE00062D089930C17E1F7F0E0CF16F0E7DF06D8
:107EF00018F0F601B7BEE89568D007B600FCFDCFD4
:107F0000A601A0E0B1E02C9130E011968C91119780
:107F100090E0982F8827822B932B1296FA010C0160
:107F200087BEE89511244E5F5F4FF1E0A038BF0790
:107F300051F7F601A7BEE89507B600FCFDCF97BE46
:107F4000E89526C08437B1F42ED02DD0F82E2BD052
:107F50003CD0F601EF2C8F010F5F1F4F84911BD097
:107F6000EA94F801C1F70894C11CD11CFA94CF0C13
:107F7000D11C0EC0853739F428D08EE10CD085E9AC
:107F80000AD08FE07ACF813511F488E018D01DD067
:107F900080E101D065CF982F8091C00085FFFCCF94
:107FA0009093C60008958091C00087FFFCCF809118
:107FB000C00084FD01C0A8958091C6000895E0E648
:107FC000F0E098E1908380830895EDDF803219F02E
:107FD00088E0F5DFFFCF84E1DECF1F93182FE3DFCA
:107FE0001150E9F7F2DF1F91089580E0E8DFEE27F6
:047FF000FF270994CA
:027FFE00040479
:0400000300007E007B
:00000001FF