:100000000C94E2000C94A7050C9480050C940A0152
:100010000C940A010C940A010C94AC040C940A018F
:100020000C940A010C940A010C940A010C940A0124
:100030000C940A010C940A010C940A010C940A0114
:100040000C9436050C940A010C94BD100C94971076
:100050000C940A010C940A010C940A010C940A01F4
:100060000C940A010C940A01005EBCE2613FDD833E
:10007000C29C7E20A3FD1F419DC3217FFCA2401E88
:100080005F01E3BD3E6082DC237D9FC1421CFEA078
:10009000E1BF5D0380DE3C62BEE0025CDF81633D68
:1000A0007C22C09E1D43A1FF4618FAA427799BC558
:1000B00084DA3866E5BB5907DB856739BAE4065848
:1000C0001947A5FB7826C49A653BD987045AB8E638
:1000D000A7F91B45C6987A24F8A6441A99C7257B28
:1000E0003A6486D85B05E7B98CD2306EEDB3510F18
:1000F0004E10F2AC2F7193CD114FADF3702ECC9208
:10010000D38D6F31B2EC0E50AFF1134DCE90722CF7
:100110006D33D18F0C52B0EE326C8ED0530DEFB1E7
:10012000F0AE4C1291CF2D73CA947628ABF51749D7
:100130000856B4EA6937D58B5709EBB536688AD4C7
:1001400095CB2977F4AA4816E9B7550B88D6346AB7
:100150002B7597C94A14F6A8742AC896154BA9F7A7
:10016000B6E80A54D7896B35000000002400270048
:100170002A0000000000250028002B0000000008D5
:10018000000201000003040700000000000000005E
:1001900000000000230026002900040404040404D5
:1001A0000404020202020202030303030303010226
:1001B00004081020408001020408102001020408F5
:1001C00010205C1211241FBECFEFD8E0DEBFCDBFE0
:1001D00011E0A0E0B1E0EEE5FCE202C005900D9276
:1001E000A037B107D9F723E0A0E7B1E001C01D9225
:1001F000AD32B207E1F710E0C2EED0E004C02197C3
:10020000FE010E943E13C13ED107C9F70E94BE11F4
:100210000C942D160C94000080917E0184608093D4
:100220007E0180917F01807880937F01E0918E0133
:10023000F0918F01309709F009940895EEE7F1E00D
:100240008081877F8F7E808310927A0110927B015C
:1002500010927C0110927D010E942A056093810119
:1002600070938201809383019093840143E050E076
:1002700060E070E080EA91E00C94F31591E59CBD9C
:1002800091E09DBD2A98E3E2F0E03197F1F78EBD51
:1002900000000DB407FEFDCF8EB5FB019FEF41506E
:1002A000C8F0222361F09EBD00000DB407FEFDCF13
:1002B0008EB56115710599F380833196F0CFDF011A
:1002C000119680818EBD00000DB407FEFDCF8EB566
:1002D000FD01E5CF2A9AE3E2F0E03197F1F70895C6
:1002E000CF9321E041E060E070E086E00E943E01B3
:1002F000C82F21E041E060E070E085E00E943E010F
:1003000021E08C3409F020E081E0C73209F080E080
:100310008223CF910895CF93DF931F92CDB7DEB79D
:10032000698320E041E0BE016F5F7F4F0E943E0184
:100330000F90DF91CF9108956FE080E20E948B01D2
:10034000609118016F3F19F08AE20E948B01299A8F
:10035000089580917F01982F9077903759F0982FCA
:1003600092959F709F5F97709295907F8F78892B61
:1003700080937F0180917E018B7F8F7E80937E01B1
:1003800080E090E0892B21F087E690E00E94000059
:1003900029986CE080E20C948B0120E040E060E062
:1003A00070E00C943E010F931F93CF93DF938C0169
:1003B000FC01C28180917E0180FF04C0CF3F09F023
:1003C0005DC014C0C11103C0C091A1010FC0CF3FD7
:1003D00069F08C2F90E003960E9403168F3F29F45A
:1003E0008091A101F80190819813C82F8091A001FC
:1003F000F8018083438142FD06C0469546954695A7
:10040000D7E0D40F01C0D0E280E090E0892B21F04A
:1004100080E090E00E940000299883E092E001973C
:10042000F1F76EE080E20E948B018BE891E001978A
:10043000F1F76C2F8AE20E948B016C2F80E30E94FF
:100440008B0181EE0E94CD01CF3F11F080EA01C007
:1004500080EB4D2FD13208F040E220E0B8010E943D
:100460003E01299A00E010E08FEF0E94CD01D82FC5
:10047000807331F401501109B9F702C0D0E02FC0E8
:10048000299860E387E20E948B01D4FF03C081EECC
:100490000E94CD010E949C01D5FBDD27D0F991E09F
:1004A000CF3F09F090E0D92B8091A101C81317C06C
:1004B000D11110C080E090E0892B21F085E690E01A
:1004C0000E94000080917F0191E0980F9F70807FD3
:1004D000892B03C080917F01807F80937F018D2FC6
:1004E000DF91CF911F910F91089520917E0122FD00
:1004F0000C94D30180E0089580E090E0892B21F0F6
:1005000088E090E00E9400008FEF8093800180914E
:100510007E01886080937E0128E143E06FEF80E0F8
:100520000E94D70E61E00E94E30C0C94D3018091ED
:10053000A0018F3FA1F480E090E0892B21F086E0BC
:1005400090E00E94000023E043E06FEF80E00E9413
:10055000D70E6FE471E00E94EF0C0C94D301089564
:1005600080E090E0892B21F084E090E00E94000080
:1005700080917E01897F816080937E018FEF8093DF
:10058000A2018093A10127E043E06FEF0E94D70E04
:100590006FE471E00E94EF0C0C94D301CF93C82F4D
:1005A0008FEF8C0F8E3FA8F4C093A001C093180169
:1005B00063E082E20E948B0161E081E20E948B0194
:1005C0000E949C016C2F80E090E00E941B1681E04D
:1005D0000CC080E090E0892B21F08EE690E00E9434
:1005E00000008FEF8093A00180E0CF910895E0910B
:1005F0007401F09175010280F381E02D309709F0CC
:10060000099580917E0184FD0C94550708950F9300
:100610001F930E942A050091760110917701209185
:10062000780130917901601B710B820B930B1F9144
:100630000F9108959C01809174019091750182172A
:10064000930751F090917E019F7190937E013093BA
:1006500075012093740105C080917E01805E8093B6
:100660007E01E0917401F09175010190F081E02D1F
:10067000309709F009950E942A05609376017093DE
:100680007701809378019093790108950F931F93D8
:100690000E94070320917F012077203729F000E195
:1006A00017E220E030E004C000E61AEE20E030E07F
:1006B000061717072807390730F481E291E01F91E8
:1006C0000F910C941A031F910F91089580917F014F
:1006D0008F708B3020F084E191E00C941A03089520
:1006E000809180018F3FA1F00E942A0560937A01DA
:1006F00070937B0180937C0190937D0180918001B8
:100700009091A20189138093A20180E191E01BC026
:100710000E940703613D774081059105B0F080910B
:100720007E01803618F48CE091E00DC0877F8093C5
:100730007E0180E090E0892B21F08AE690E00E9423
:10074000000084E191E00C941A0308958091A001C7
:100750008F3F59F080E090E0892B21F087E090E016
:100760000E9400008CE091E018C00E940703613DE8
:1007700077408105910598F080917E01803618F4CC
:1007800088E091E00AC080E090E0892B21F089E6C2
:1007900090E00E94000089E191E00C941A03089512
:1007A0000E940703613D77408105910520F4809107
:1007B0007E0181FF08958091A1018F3F81F080919A
:1007C0007E018E7F80937E0180E090E0892B21F076
:1007D00085E090E00E94000088E091E011C08091E7
:1007E0007E01803618F484E191E00AC080E090E058
:1007F000892B21F088E690E00E94000089E191E0D9
:100800000C941A03CF93219A229ACFB7F89480912F
:100810007001811127C0E4EAF1E08491E8EBF1E096
:100820009491E82FF0E0EE0FFF1FE859FE4FA591DD
:10083000B491EC91E92321F461E08AE00E9418115F
:1008400061E08AE00E9448118CB580618CBD8CB556
:1008500080648CBD61E08DE00E94481161E08BE016
:100860000E944811809170018F5F80937001CFBF0B
:1008700029982A9A6EE080E20E948B0165E070E080
:1008800080E090E00E94841163E083E20E948B018B
:100890006FE584E20E948B016CE485E20E948B018B
:1008A00067E286E20E948B0163E780E50E948B018C
:1008B00066E08DE30E948B010E9470018823F1F1B4
:1008C00062E082E20E948B0160E081E20E948B0183
:1008D00063E08CE30E948B018FEF8093030120E0A3
:1008E00045E063E071E08BE20E943E0120E045E0DC
:1008F00063E071E08AE20E943E0120E045E063E0AF
:1009000071E080E30E943E0182EE0E94CD0181EE03
:100910000E94CD0160E787E20E948B0180917E01F9
:10092000806180937E018091A0018F3F81F00E94C1
:10093000CE0281110CC089E191E00BC080E090E013
:10094000892BC9F387E690E00E940000F4CF84E190
:1009500091E0CF910C941A031F920F920FB60F9251
:1009600011240F900FBE0F901F9018950895FC0151
:1009700090810180F281E02D892F809560FF12C067
:10098000F8942281822382838181892B8183A3E24F
:10099000B0E01197F1F78281982B9283789487EDDC
:1009A00090E011C0F8942281822382838181892B77
:1009B0008183AFEFB0E01197F1F78281982B92839A
:1009C00078948FE090E00197F1F708950895CF9320
:1009D000FC0125812230B9F40E94CD0DC1E08111C6
:1009E00001C0C0E0C09371016C2F84E00E94181117
:1009F0006C2F8DE991E00E941B166091710187E0D8
:100A0000CF910C941811CF9108953FB7F89480912D
:100A10008A0190918B01A0918C01B0918D0126B536
:100A2000A89B05C02F3F19F00196A11DB11D3FBF26
:100A3000BA2FA92F982F8827820F911DA11DB11DB4
:100A4000BC01CD0142E0660F771F881F991F4A95B0
:100A5000D1F708952FB7F8946091860170918701BE
:100A600080918801909189012FBF08951F920F9264
:100A70000FB60F9211242F933F938F939F93AF93B1
:100A8000BF938091860190918701A0918801B091D8
:100A900089013091850123E0230F2D3720F4019641
:100AA000A11DB11D05C026E8230F0296A11DB11D91
:100AB000209385018093860190938701A0938801FC
:100AC000B093890180918A0190918B01A0918C0152
:100AD000B0918D010196A11DB11D80938A01909363
:100AE0008B01A0938C01B0938D01BF91AF919F9129
:100AF0008F913F912F910F900FBE0F901F901895DF
:100B00001F920F920FB60F9211242F933F934F9382
:100B10005F936F937F938F939F93AF93BF93EF9365
:100B2000FF93E0911F01F09120010995FF91EF9152
:100B3000BF91AF919F918F917F916F915F914F91F5
:100B40003F912F910F900FBE0F901F9018951F92FD
:100B50000F920FB60F9211242F933F934F935F93F1
:100B60006F937F938F939F93AF93BF93EF93FF9375
:100B7000E0911D01F0911E010995FF91EF91BF9148
:100B8000AF919F918F917F916F915F914F913F9125
:100B90002F910F900FBE0F901F901895DC01E0E091
:100BA000615038F08D91E827F0E0E859FF4FE4916B
:100BB000F7CF8E2F0895CF92DF92EF92FF920F938F
:100BC0001F93CF93DF931F92CDB7DEB76C01E62E54
:100BD00008E010E0FF24F39461E08F2D8E2109F4EA
:100BE00060E0C60149830E94B704FF0C015011095F
:100BF00049810115110581F7411115C0F894D601FD
:100C00001196ED91FC91129791818C918095892399
:100C100081831196ED91FC91129792818C91809530
:100C20008923828378940F90DF91CF911F910F9148
:100C3000FF90EF90DF90CF900895CF92DF92EF92E8
:100C4000FF920F931F93CF93DF931F92CDB7DEB721
:100C50008C01F62E40E065E579830E94DB05CF2C00
:100C60007981D72E760188E0E80EF11CF6016191BA
:100C70006F0140E0C8010E94DB05CE14DF04B1F72C
:100C80000F90DF91CF911F910F91FF90EF90DF9028
:100C9000CF900895FC0190810180F281E02DF894BD
:100CA0008181892B81832281892F8095282322832A
:100CB000A7E0B0E01197F1F7218182238183A3E2BD
:100CC000B0E01197F1F780817894EFECF0E0319784
:100CD000F1F7982381E009F480E00895EF92FF9204
:100CE0000F931F93CF93DF937C0108E010E0C0E0E7
:100CF000D1E0C7010E944A068111CD2BDD0F0150C2
:100D00001109B9F78C2FDF91CF911F910F91FF90AF
:100D1000EF900895FC0190810180F281E02DF8941C
:100D20008181292F20958223818378948DE743E068
:100D300050E0815021F1DA011197F1F73081392328
:100D4000C1F3F8948281822382838181892B8183FC
:100D50007894ABE7B7E01197F1F7F89481812823F5
:100D60002183A3E1B1E01197F1F78081982381E01D
:100D700009F080E07894E3E6F6E03197F1F7089522
:100D8000AF92BF92CF92DF92EF92FF920F931F9399
:100D9000CF93DF931F92CDB7DEB75C01E62ED72E3F
:100DA000FC01858581115DC0C5010E948A06811103
:100DB00005C0F5011386158614866BC040E060EF10
:100DC000C5010E94DB0501E0F12CC12C11E0C50139
:100DD0000E944A06682FC50169830E944A066981FC
:100DE000613019F48130B9F433C04F2D50E06813ED
:100DF0001BC0F5018385181730F4E40FF51F8381BC
:100E0000802349F402C0181731F060E0193058F41B
:100E1000F501148708C0F501EF0DF11D8381802BCA
:100E2000838361E009C0C12EF501E40FF51F9381B2
:100E3000802F809589238383C5010E94B7041F5F9B
:100E4000000F11F4F39401E0F7E0FF1508F0BFCFB5
:100E5000113438F0F501C386C11015C081E08587D3
:100E600012C0F50113861586148680E0D50113960D
:100E7000EE2DFD2D9501255F3F4F9D919193A2177A
:100E8000B307D9F706C0F5018381882351F381E0C8
:100E9000EDCF0F90DF91CF911F910F91FF90EF90C9
:100EA000DF90CF90BF90AF9008954F925F926F9276
:100EB0007F928F929F92AF92BF92CF92DF92EF92EA
:100EC000FF920F931F93CF93DF930E942A05009107
:100ED0008101109182012091830130918401DC0114
:100EE000CB01801B910BA20BB30B813A9B4BAD4006
:100EF000B10590F00E942A056093810170938201F0
:100F000080938301909384010E947001811104C039
:100F100089E191E00E941A0386E0B82E90E0E92E64
:100F200090E0F92E20E0C22E20E0D22E31E2A32E56
:100F300021E041E060E070E087E10E943E0180FD39
:100F400083C2BA94BB2009F47FC2E114F10421F0FA
:100F500081E090E00E94000021E041E060E070E06C
:100F600080E60E943E01082F813220F082EE0E942E
:100F7000CD0100E021E0402F6EEF72E081E60E949B
:100F80003E0160E487E20E948B0190910103192FDA
:100F90001695169516951A3108F019E192FD03C0C1
:100FA00087E0810F01C080E270900203C0910303CB
:100FB000D091FF029090FE0280900003081739F054
:100FC000E114F10409F4B4CF8CE690E009C0937009
:100FD000923049F0E114F10409F4AACF8DE690E0D3
:100FE0000E940000A5CF8091A101981651F0809138
:100FF000A001D81731F08D2F90E0692D03960E9443
:101000001B16072D077080917F01806880937F01F8
:101010008091A00188124DC020910103822F8695F6
:10102000869586958A3108F089E138E0839FC00172
:1010300011242770822B80930103E12FF0E0E2500E
:10104000FD4F17828091020383FF17C0EEEFF2E09D
:10105000ADEDB2E08A2D01900D928A95E1F7809175
:10106000E102877F80618093E1028092DE02D0936B
:10107000DF028DED92E00E9475028091020384FDF3
:1010800013C0033089F49091030321EF290F23301B
:1010900008F0BBC04DCF913009F447C19A3009F434
:1010A00063C19C3109F444CF8EEF92E00E94E704C3
:1010B0003FCF2FEF82128FC0033009F07EC08091A6
:1010C0007E0182FF5DC0C73009F05AC08091A10146
:1010D000D81709F42DCF0E942A0500917A011091AA
:1010E0007B0120917C0130917D01DC01CB01801BD3
:1010F000910BA20BB30B80319742A105B10518F1FA
:1011000080917E0183FD14CF9091A001911154C173
:101110001092800180917E01877F80937E01C09133
:101120008001CF3F09F404CF0E942A0560937A0121
:1011300070937B0180937C0190937D018091A2014B
:10114000C813C093A2010E942A0560937A0170938C
:101150007B0180937C0190937D010E942A0573702E
:10116000882799270E948411C091A20128E043E0BA
:101170006FEF8D2F0E94D70E6C2F0E94E30C42C0A0
:10118000C83009F4D5CEC431C1F48091A1019812C0
:1011900014C00E942A057370882799270E94841121
:1011A000C091A10125E143E06FEF8D2F0E94D70E82
:1011B0006C2F0E94E30C0E94D3018091A101981230
:1011C000B7CE8091A001D81709F43AC180917E0171
:1011D00082FD2AC135C180917E0182FFA9CE0330F4
:1011E00079F4C851C23060F48EEF92E00E94CD0DC8
:1011F0008E3F31F061E0680F8EEF92E00E94E30CC9
:101200008EEF92E00E94D30193CEC43039F48EEF7A
:1012100092E00E94CD0D0E94CE028ACEC830D9F451
:10122000C0917E01C0FF84CE8EEF92E00E94CD0D72
:101230008F3F09F47DCE8F5F8F3F09F479CE909177
:10124000A201891708F074CEC1FD72CE8093A2016D
:10125000D093A1016DCEC83141F429E143E06FEF95
:101260008D2F0E94D70E61E088CFC93171F4809133
:101270007E0183FF5DCE877F80937E018EEF92E0BB
:101280000E94CD0D8093800153CE2091FF02211149
:101290008FC09D3099F480E090E0892B21F08BE0A5
:1012A00090E00E94000098E088E10FB6F894A895BD
:1012B000809360000FBE90936000FFCF9B31A9F434
:1012C0008EEF92E00E94CD0D91E0811101C090E07F
:1012D0008091730190FB80F980937301E114F10414
:1012E00009F426CE8AE090E07BCE963099F4909176
:1012F000050381E0992319F09D3409F080E0809383
:10130000720141E050E063E071E082E791E00E9409
:101310000B160ECE933119F40E945D0D09CE923159
:1013200009F0B9CE0E949F0F03CEC114D10409F475
:10133000FFCD829586958770853049F460910503CD
:101340007091060380910703909108030AC08111F0
:1013500005C085E093E00E948B1403C060E070E05C
:10136000CB010E940000E4CD80910503833409F095
:10137000DFCDE114F10421F08DE090E00E94000047
:10138000C3E0D0E06FEFCE010E941B162196C33060
:1013900081E0D807B9F72AE043E06FEF80E00E94D0
:1013A000D70E6BE371E00E94EF0C0E947502C0CD76
:1013B0009A3109F079CEBCCD886080937E0180920D
:1013C000800128E143E06FEF80E00E94D70E61E0EA
:1013D0000E94E30C0E94D3010E942A052B013C01CC
:1013E00010920303C0E00E942A05DC01CB0184199E
:1013F0009509A609B709803D9740A105B10508F0F8
:1014000089CEC11187CE80917E0184FD0E9455074F
:10141000A895809102038770833029F7C1E08091FD
:1014200003038931F9F6DFCF8EEF92E00E94D301FA
:10143000033009F47DCD8091A101981279CD34CE8D
:10144000033009F031CE74CDDF91CF911F910F9110
:10145000FF90EF90DF90CF90BF90AF909F908F90D4
:101460007F906F905F904F90089510928402109239
:101470008502109286021092870210924202109208
:101480004302109244021092450260ED77E080E042
:1014900090E00E94841183EA91E09093830280930C
:1014A00082020E94770F0E942A0560934202709385
:1014B000430280934402909345028091820290916E
:1014C0008302DC01ED91FC910280F381E02D41E18A
:1014D00050E06EE371E009956AE070E080E090E032
:1014E0000E94841181E08093560261E087E00E94AF
:1014F000481160E083E00E94481161E083E00E94AF
:10150000181161E084E00E94481160E084E00E94CC
:1015100018118DE991E00E94031661E0811101C06C
:1015200060E06093710184E00E9418116091710184
:1015300087E00E9418111092CC020895FC01962FAA
:101540008091A00181836481607F262F216088E0E3
:10155000989FB0011124622B64838091730180FFF6
:1015600003C0CF010C94750280E008958F929F9282
:10157000AF92BF92CF92DF92EF92FF920F931F93A1
:10158000CF93DF93CDB7DEB728970FB6F894DEBFC1
:101590000FBECDBFEFE7F1E08491E1EBF1E0049104
:1015A000EDE9F1E014911123A1F081110E94EF10F7
:1015B000E12FF0E0EE0FFF1FE057FE4FA591B49131
:1015C000EC91E02391E080E009F490E0092F182FDE
:1015D00002C000E010E00E942A056B017C018091AE
:1015E0009E0190919F0108171907D1F0011511056F
:1015F000B9F49091710181E098278091AC028770D5
:1016000088608093AC028091AD028F71806280937C
:10161000AD029093B00261E089EA92E00E949E0AD6
:1016200010939F0100939E0180919A0190919B01DC
:10163000A0919C01B0919D01A7019601281B390B37
:101640004A0B5B0BDA01C901803E9349A440B10506
:1016500008F41FC1C0929A01D0929B01E0929C01B4
:10166000F0929D018091CF029091D0020E948A0653
:1016700040E06CEC8091CF029091D0020E94DB059B
:101680004091CA0264E48091CF029091D0020E94FE
:10169000DB058091CC028823A9F0E091CB02E950D0
:1016A000E33040F4F0E0EE0FFF1FEB5DFE4F608192
:1016B000718102C06EEE72E0072E000C880B990B50
:1016C0000E948411E091CB02E950E33040F4F0E055
:1016D000EE0FFF1FEB5DFE4F8081918102C08EEE09
:1016E00092E06C01990FEE08FF080E942A054B0159
:1016F0005C010E942A05DC01CB0188199909AA091D
:10170000BB098C159D05AE05BF0520F4A8950E9468
:10171000F702EFCF82E9A82E81E0B82E00E010E0BA
:101720009924939480919001909191010817190741
:101730000CF0AFC00230110509F4ABC0809172010A
:10174000602F882301F1CE0101960E946210811161
:1017500005C060E070E08EEF92EC3AC0CE010196D9
:101760000E940D10813844EE94079CF3BC01990F40
:10177000880B990B0E94D61420E030E040E05CE337
:101780000E94351525C0CE0101960E94621081117C
:1017900005C06AE979E984E493EC1AC0CE010196A8
:1017A0000E940D10813854EE95079CF3BC01990FEF
:1017B000880B990B0E94D61426E636E646E65CE3D3
:1017C0000E94351520E030E040E052E40E944513CD
:1017D00020E030E040E251E40E9435150E942314DD
:1017E000072E000C880B990B0E94D61420E030E0E5
:1017F00040E251E40E94B1136B017C019B01AC01FA
:10180000F50160817181828193810E94CF148823C8
:10181000C1F120E030E04EEF52ECC701B6010E946A
:10182000CF14882371F120E030E04AEA52E4C70186
:10183000B6010E94CF14882321F181E0800F8093AC
:101840008E0280918B028770886280938B028091D8
:101850008C02806E80938C02C0928F02D092900294
:10186000E0929102F09292029092930260E088E8F6
:1018700092E00E949E0AF501C082D182E282F38248
:1018800002C00E949F0F0F5F1F4FF4E0AF0EB11C0C
:1018900049CF28960FB6F894DEBF0FBECDBFDF91BB
:1018A000CF911F910F91FF90EF90DF90CF90BF905D
:1018B000AF909F908F9008950F931F93CF93DF93D6
:1018C000CDB7DEB761970FB6F894DEBF0FBECDBFC0
:1018D000E091CF02F091D002138615861486DF01C5
:1018E0001B9633961E92AE17BF07E1F71092CE02F9
:1018F00011E0BE01665F7F4F8091CF029091D002D0
:101900000E94C006882309F453C067E0CE010A96FE
:101910000E94CE0599898913ECCF8091CA0281116A
:1019200026C08091CF029091D0020E948A06BE010B
:10193000665F7F4F8091CF029091D0020E941D067A
:1019400040E064EB8091CF029091D0020E94DB05D1
:101950008091CF029091D0020E944A06082F809178
:10196000CF029091D0020E948A060023F1F0BE01BE
:101970006F5F7F4FCE010A960E94E60E0091CB0268
:10198000CE010A960E943F0F801718F48091CB0277
:1019900004C0CE010A960E943F0F8093CB02809133
:1019A000CE028F5F8093CE02A4CF1093CA02DFCF06
:1019B00061960FB6F894DEBF0FBECDBFDF91CF9119
:1019C0001F910F910895FC01838187708860838344
:1019D00084818F71806284836783CF0108950F9320
:1019E0001F93CF93DF93EC016115710561F0FB014B
:1019F00001900020E9F73197E61BF70BE931F1057B
:101A000018F0E9E101C0E0E00E2F10E0C80123E08A
:101A1000880F991F2A95E1F79B819770892B8B83FB
:101A20008C818F718C83EE2329F0A801CE0107965B
:101A30000E945E14FE01E00FF11F1782CE01DF91BC
:101A4000CF911F910F9108952BE043E06FEF80E05D
:101A50000E94D70E60E571E00E94EF0C0E947502B3
:101A60002CE043E06FEF80E00E94D70E66E671E065
:101A70000E94EF0C0E9475028091CE0290E090933C
:101A800091018093900163E080E00E94C10F8091FA
:101A90009001909191011816190674F466E081E0A6
:101AA0000E94C10F8091900190919101029724F0C2
:101AB00066E082E00C94C10F0895CF9380E090E03F
:101AC000892B21F08CE090E00E9400002FE043E0A1
:101AD0006FEF80E00E94D70E6FE471E00E94EF0C80
:101AE0008091E002877080618093E0028091E10242
:101AF0008F71806C8093E10281E08093E402109208
:101B0000E5028DED92E00E9475028FE00E94D70FF2
:101B100062E18FEF0E94C10FC091A10126E043E076
:101B20006FEF80E00E94D70E6C2F0E94E30C0E94A2
:101B3000750286E00E94D70FCF910C94240DCF93AD
:101B40008091730181FD27C00E945D0D80E090E0CF
:101B5000892B21F089E090E00E94000080917301C0
:101B6000816080937301C4E02AE143E06FEF80E07D
:101B70000E94D70E62E00E94E30C0E9475028BE186
:101B80000E94D70F811102C0C15071F7809173017B
:101B9000826080937301CF910895FC012481229586
:101BA00026952770213011F487810895211104C0F2
:101BB00007960E946D14089580E00895CF92DF92F9
:101BC000EF92FF920F931F93CF93DF936C017A01F3
:101BD0008B01C0E0D0E0CE15DF0589F0D8016D9112
:101BE0008D01D601ED91FC910190F081E02DC601AF
:101BF0000995892B11F47E0102C02196ECCFC70113
:101C0000DF91CF911F910F91FF90EF90DF90CF90D8
:101C10000895FC01918D828D981761F0828DDF010E
:101C2000A80FB11D5D968C91928D9F5F9F73928FCF
:101C300090E008958FEF9FEF0895FC01918D828DC4
:101C4000981731F0828DE80FF11D858D90E0089591
:101C50008FEF9FEF0895FC01918D228D892F90E0E9
:101C6000805C9F4F821B91098F739927089583EAA7
:101C700091E00E942B0E21E0892B09F420E0822FB5
:101C80000895FC01848DDF01A80FB11DA35ABF4F39
:101C90002C91848D90E001968F739927848FA6896B
:101CA000B7892C93A089B1898C9180648C93938D92
:101CB000848D981306C00288F389E02D80818F7D82
:101CC00080830895EF92FF920F931F93CF93DF933A
:101CD000EC0181E0888F9B8D8C8D981305C0E8897D
:101CE000F989808185FD24C0F62E0B8D10E00F5FF1
:101CF0001F4F0F731127E02E8C8DE8120CC00FB60A
:101D000007FCFACFE889F989808185FFF5CFCE01FC
:101D10000E94410EF1CF8B8DFE01E80FF11DE35AB9
:101D2000FF4FF0820B8FEA89FB898081806207C0B8
:101D3000EE89FF896083E889F989808180648083E6
:101D400081E090E0DF91CF911F910F91FF90EF9094
:101D50000895CF93DF93EC01888D8823C9F0EA8939
:101D6000FB89808185FD05C0A889B9898C9186FD94
:101D70000FC00FB607FCF5CF808185FFF2CFA88991
:101D8000B9898C9185FFEDCFCE010E94410EE7CF3E
:101D9000DF91CF91089580E090E0892B29F00E9497
:101DA000370E81110C94000008950E945914EDED36
:101DB000F2E09091A001918382836683258347702E
:101DC0008481807E482B4483CF010895EF92FF9257
:101DD0000F931F93CF93DF937C018B01CAECD2E06A
:101DE0008D819E810E948A06B7018D819E810E940D
:101DF0001D0640E06EEB8D819E810E94DB058D818A
:101E00009E810E946E06F80180838D819E810E94D2
:101E10006E06F80181838D819E810E946E06F80115
:101E200082838D819E810E946E06F80183838D815D
:101E30009E810E946E06F80184838D819E810E949E
:101E40006E06F80185838D819E810E946E06F801E1
:101E500086838D819E810E946E06F80187838D8125
:101E60009E810E946E06F80180878D819E81DF91A0
:101E7000CF911F910F91FF90EF900C948A06CF9312
:101E8000DF93CDB7DEB729970FB6F894DEBF0FBE4C
:101E9000CDBFFC012081203101F1BE016F5F7F4F7A
:101EA0000E94E60E68E0CE0101960E94CE0599855B
:101EB000891311C08D818F3361F020F48F3159F473
:101EC00089E00CC08F3519F08F3739F004C08BE0F2
:101ED00005C08AE003C080E001C08CE029960FB6FF
:101EE000F894DEBF0FBECDBFDF91CF910895E3EA36
:101EF000F1E0A089B18982E08C93A485B5851C921C
:101F0000A685B78580E18C93108EA489B58986E07B
:101F10008C93A289B3898C9180618C93A289B389B7
:101F20008C9188608C93A289B3898C9180688C9302
:101F30000288F389E02D80818F7D80830895CF9280
:101F4000DF92EF92FF920E9407036B017C0126E172
:101F500043E06FEF80E00E94D70EFC0184818F7117
:101F6000806A84838381877080628383C782D086FE
:101F7000E186F286CF01FF90EF90DF90CF900C9436
:101F80007502CF93DF93262F8F3F19F0CFE4D1E076
:101F900002C0CAE6D1E040E0682F80E00E94D70E80
:101FA000BE010E94EF0CDF91CF910C947502CF928D
:101FB000DF92EF92FF92CF93DF93D82F0E942A05F2
:101FC0006B017C0181E0D11180E080930303C0E0CC
:101FD0000E942A05AB01BC014C195D096E097F09FD
:101FE000403D57406105710580F4C1110EC0A895B0
:101FF0000E94F702909102039770933049F7C1E075
:10200000809103038D13E3CFE3CF8C2FDF91CF912A
:10201000FF90EF90DF90CF9008950F931F93CF9391
:10202000DF93CDB7DEB729970FB6F894DEBF0FBEAA
:10203000CDBF8C01BE016F5F7F4F0E94E60E68E04E
:10204000CE0101960E94CE05998589132CC0298165
:1020500048E0249FB00111249A81292F30E0322FCB
:102060002227330F330F330F262B372BF8018081B4
:102070008031E1F4688570E08F81AB01481B510924
:10208000CA019695982F8827979587950E941613D1
:10209000CB014097207F53E0220F331F5A95E1F781
:1020A000820F931F04C080E894EE01C0C9012996F5
:1020B0000FB6F894DEBF0FBECDBFDF91CF911F9159
:1020C0000F9108950F931F93CF93DF938C01D62F19
:1020D000E091CF02F091D002138615861486DF01BD
:1020E0001B9633961E92AE17BF07E1F7C0E0B8010A
:1020F0008091CF029091D0020E94C006811102C04F
:1021000080E010C0CD130AC067E0C8010E94CE0570
:10211000F8019781891302C081E004C0CF5FDC170A
:1021200078F3E5CFDF91CF911F910F9108951F9222
:102130000F920FB60F9211242F933F934F935F93FB
:102140006F937F938F939F93AF93BF93EF93FF937F
:1021500083EA91E00E94410EFF91EF91BF91AF9110
:102160009F918F917F916F915F914F913F912F91AF
:102170000F900FBE0F901F9018951F920F920FB6E1
:102180000F9211242F938F939F93EF93FF93E091DE
:10219000B301F091B4018081E091B901F091BA01ED
:1021A00082FD12C090818091BC018F5F8F7320915E
:1021B000BD01821751F0E091BC01F0E0ED55FE4FFA
:1021C000958F8093BC0101C08081FF91EF919F9119
:1021D0008F912F910F900FBE0F901F901895833005
:1021E00081F028F4813099F08230A1F00895873091
:1021F000A9F08830B9F08430D1F4809180008F7DCF
:1022000003C0809180008F7780938000089584B50B
:102210008F7702C084B58F7D84BD08958091B00012
:102220008F7703C08091B0008F7D8093B0000895B8
:102230001F93CF93DF93282F30E0F901E458FE4F2E
:102240008491F901E255FE4FD491F901E656FE4F13
:10225000C491CC23C9F0162F81110E94EF10EC2FEE
:10226000F0E0EE0FFF1FEE58FE4FA591B4918FB72F
:10227000F894111105C09C91ED2FE095E92302C05F
:10228000EC91ED2BEC938FBFDF91CF911F910895CF
:10229000CF93DF9390E0FC01E255FE4F2491FC01C7
:1022A000E656FE4F8491882361F190E0880F991FD4
:1022B000FC01E859FE4FC591D491FC01EE58FE4F48
:1022C000A591B491611109C09FB7F89488812095B8
:1022D00082238883EC912E230BC0623061F49FB778
:1022E000F8943881822F809583238883EC912E2B5C
:1022F0002C939FBF06C08FB7F894E8812E2B2883BC
:102300008FBFDF91CF9108958F929F92AF92BF922E
:10231000CF92DF92EF92FF926B017C010E94050544
:102320004B015C01C114D104E104F104F1F00E94FD
:102330000505DC01CB0188199909AA09BB09883E6A
:102340009340A105B10570F321E0C21AD108E1085C
:10235000F10888EE880E83E0981EA11CB11CC11400
:10236000D104E104F10419F7DDCFFF90EF90DF9085
:10237000CF90BF90AF909F908F900895789484B540
:10238000826084BD84B5816084BD85B5826085BD71
:1023900085B5816085BD80916E00816080936E00FF
:1023A00010928100809181008260809381008091F1
:1023B00081008160809381008091800081608093A2
:1023C00080008091B10084608093B1008091B00062
:1023D00081608093B00080917A00846080937A005D
:1023E00080917A00826080937A0080917A00816087
:1023F00080937A0080917A00806880937A001092AE
:10240000C100A89580E090E0892B11F00E940000A7
:102410000E94770F809173018D7F809373010E94DA
:102420005C0C41E050E063E071E082E791E00E94E3
:10243000F3156FEF81E090E00E941B1680917F0101
:102440008F7880937F01109275011092740181E260
:1024500091E00E941A038FE99DE090938F01809391
:102460008E010E942A050E942A050E94F702A89563
:1024700080917E0182FFF7CF0E94350AA895A8952A
:102480000E94F7020E94B60A0E94CB0EF8CFCF93AB
:10249000DF93FC011082118212821482158216824F
:1024A000DC0117968AE1ED0119928A95E9F782E03D
:1024B0008383DF91CF910895CF931092A60110925C
:1024C000A50188EE93E0A0E0B0E08093A70190938F
:1024D000A801A093A901B093AA018FE291E0909383
:1024E000A4018093A30185EC90E09093B0018093C8
:1024F000AF0184EC90E09093B2018093B10180EC45
:1025000090E09093B4018093B30181EC90E09093BC
:10251000B6018093B50182EC90E09093B80180936E
:10252000B70186EC90E09093BA018093B9011092C4
:10253000BC011092BD011092BE011092BF01109219
:1025400046021092470210924802109249021092DD
:102550004A0210924B0210924C0210924D021092BD
:102560004E0210924F02109250021092510210929D
:1025700052021092530210925402109255028EEFA2
:1025800092E00E9447128DED92E00E94471260E0B7
:1025900088E00E944811E6EBF1E0E491E0931F032C
:1025A000E2EAF1E0E491F0E0EE0FFF1FE057FE4FAA
:1025B00085919491909321038093200310922A0394
:1025C00010922C0310922B03EAE2F3E0129283E0C4
:1025D000E232F807D9F786EE94E09093DC0280931C
:1025E000DB028FE193E09093D0028093CF021092B0
:1025F000CE021092CA0289E08093CB02C1E0C09360
:10260000CC02C093CD0289EA92E00E944712109258
:10261000AF0282E08093AE0288E892E00E94471207
:10262000C0938E0210928D02CF91089597FB072ED2
:1026300016F4009407D077FD09D00E942A1307FCF6
:1026400005D03EF4909581959F4F089570956195C2
:102650007F4F0895AA1BBB1B51E107C0AA1FBB1FD8
:10266000A617B70710F0A61BB70B881F991F5A951E
:10267000A9F780959095BC01CD010895EE0FFF1F3D
:102680000590F491E02D09945058BB27AA270E9489
:102690005C130C94B9150E94AB1538F00E94B2156A
:1026A00020F039F49F3F19F426F40C94A8150EF489
:1026B000E095E7FB0C94A215E92F0E94CA1558F388
:1026C000BA17620773078407950720F079F4A6F517
:1026D0000C94EC150EF4E0950B2EBA2FA02D0B01E7
:1026E000B90190010C01CA01A0011124FF27591B57
:1026F00099F0593F50F4503E68F11A16F040A22F5D
:10270000232F342F4427585FF3CF469537952795CD
:10271000A795F0405395C9F77EF41F16BA0B620BCC
:10272000730B840BBAF09150A1F0FF0FBB1F661F13
:10273000771F881FC2F70EC0BA0F621F731F841F56
:1027400048F4879577956795B795F7959E3F08F07C
:10275000B0CF9395880F08F09927EE0F979587953E
:1027600008950E94C5130C94B9150E94B21558F033
:102770000E94AB1540F029F45F3F29F00C94A2159C
:1027800051110C94ED150C94A8150E94CA1568F30C
:102790009923B1F3552391F3951B550BBB27AA271A
:1027A00062177307840738F09F5F5F4F220F331F54
:1027B000441FAA1FA9F335D00E2E3AF0E0E832D01C
:1027C00091505040E695001CCAF72BD0FE2F29D01F
:1027D000660F771F881FBB1F261737074807AB07F1
:1027E000B0E809F0BB0B802DBF01FF2793585F4F66
:1027F0003AF09E3F510578F00C94A2150C94ED151B
:102800005F3FE4F3983ED4F3869577956795B79547
:10281000F7959F5FC9F7880F911D9695879597F952
:102820000895E1E0660F771F881FBB1F62177307CB
:102830008407BA0720F0621B730B840BBA0BEE1FE0
:1028400088F7E09508950E942A146894B1110C94B9
:10285000ED1508950E94D21588F09F5798F0B92F72
:102860009927B751B0F0E1F0660F771F881F991FC5
:102870001AF0BA95C9F714C0B13091F00E94EC1566
:10288000B1E008950C94EC15672F782F8827B85F76
:1028900039F0B93FCCF3869577956795B395D9F71D
:1028A0003EF490958095709561957F4F8F4F9F4F27
:1028B000089581E090E0F8940C942D16FB01DC0162
:1028C0004150504048F001900D920020C9F701C0DE
:1028D0001D9241505040E0F70895FC018827992748
:1028E000E89421912032E9F3293010F02E30C8F31A
:1028F0002B3241F02D3239F4689404C00E94C71481
:10290000820F911D219120532A30C0F31EF490951F
:1029100081959F4F08951F93FC0199278827BC013B
:10292000E89411911032E9F3193010F01E30C8F319
:102930001B3251F01D3249F4689406C00E94B21453
:10294000610F711D811D911D119110531A30B0F34B
:102950003EF490958095709561957F4F8F4F9F4F76
:102960001F910895592F482F372F262F660F771F55
:10297000881F991F660F771F881F991F620F731F8B
:10298000841F951F660F771F881F991F08957AE08F
:10299000979F902D879F802D910D112408950E945F
:1029A000111508F481E00895E89409C097FB3EF4FE
:1029B00090958095709561957F4F8F4F9F4F99238C
:1029C000A9F0F92F96E9BB279395F695879577950A
:1029D0006795B795F111F8CFFAF4BB0F11F460FFCA
:1029E0001BC06F5F7F4F8F4F9F4F16C0882311F022
:1029F00096E911C0772321F09EE8872F762F05C036
:102A0000662371F096E8862F70E060E02AF09A95D0
:102A1000660F771F881FDAF7880F9695879597F9C5
:102A20000895990F0008550FAA0BE0E8FEEF16165F
:102A30001706E807F907C0F012161306E407F507B2
:102A400098F0621B730B840B950B39F40A2661F026
:102A5000232B242B252B21F408950A2609F4A140C9
:102A6000A6958FEF811D811D08950E9448150C9435
:102A7000B9150E94AB1538F00E94B21520F09523CD
:102A800011F00C94A2150C94A81511240C94ED15BA
:102A90000E94CA1570F3959FC1F3950F50E0551F22
:102AA000629FF001729FBB27F00DB11D639FAA27A3
:102AB000F00DB11DAA1F649F6627B00DA11D661FF2
:102AC000829F2227B00DA11D621F739FB00DA11D13
:102AD000621F839FA00D611D221F749F3327A00DCD
:102AE000611D231F849F600D211D822F762F6A2F69
:102AF00011249F5750409AF0F1F088234AF0EE0FCE
:102B0000FF1FBB1F661F771F881F91505040A9F7FA
:102B10009E3F510580F00C94A2150C94ED155F3F7B
:102B2000E4F3983ED4F3869577956795B795F79536
:102B3000E7959F5FC1F7FE2B880F911D96958795AE
:102B400097F9089597F99F6780E870E060E008952D
:102B50009FEF80EC089500240A94161617061806B5
:102B60000906089500240A94121613061406050691
:102B70000895092E0394000C11F4882352F0BB0F22
:102B800040F4BF2B11F460FF04C06F5F7F4F8F4F85
:102B90009F4F089557FD9058440F551F59F05F3FC0
:102BA00071F04795880F97FB991F61F09F3F79F06F
:102BB00087950895121613061406551FF2CF4695F1
:102BC000F1DF08C0161617061806991FF1CF869573
:102BD0007105610508940895E894BB276627772757
:102BE000CB0197F90895DC01CB01FC01F999FECFE7
:102BF00006C0F2BDE1BDF89A319600B40D92415085
:102C00005040B8F70895F999FECF92BD81BDF89A6A
:102C1000992780B50895DC01A40FB51F415050409D
:102C200048F0CB01840F951F2E910E941C16415035
:102C30005040D0F70895262FF999FECF92BD81BD5F
:102C4000F89A019700B4021639F01FBA20BD0FB6EA
:0E2C5000F894FA9AF99A0FBE0895F894FFCFFF
:102C5E00FFFFFF00FCE1A8A89702A6037C02700309
:102C6E000C016603B002D003FFA9014603B604B6F9
:102C7E00041E0102045E00BC007701000000006229
:102C8E000EDE0D2B0E090E1D0EA90E4F4B00564DCE
:102C9E004450565F317C315F564D4450560D0A00FC
:102CAE005472696163202620427574746F6E2026FB
:102CBE002054656D7000312E3000322E312E3100D1
:00000001FF
