:100000000C94E2000C94960E0C946F0E0C940A0162
:100010000C940A010C940A010C941B070C940A011D
:100020000C940A010C940A010C940A010C940A0124
:100030000C940A010C940A010C940A010C940A0114
:100040000C94250E0C940A010C943B0D0C94150D88
:100050000C940A010C940A010C940A010C940A01F4
:100060000C940A010C940A0100000008000201002F
:10007000000304070000000000000000005EBCE276
:10008000613FDD83C29C7E20A3FD1F419DC3217F74
:10009000FCA2401E5F01E3BD3E6082DC237D9FC168
:1000A000421CFEA0E1BF5D0380DE3C62BEE0025C5C
:1000B000DF81633D7C22C09E1D43A1FF4618FAA448
:1000C00027799BC584DA3866E5BB5907DB85673934
:1000D000BAE406581947A5FB7826C49A653BD98728
:1000E000045AB8E6A7F91B45C6987A24F8A6441A1C
:1000F00099C7257B3A6486D85B05E7B98CD2306E08
:10010000EDB3510F4E10F2AC2F7193CD114FADF3F3
:10011000702ECC92D38D6F31B2EC0E50AFF1134DE7
:10012000CE90722C6D33D18F0C52B0EE326C8ED0DB
:10013000530DEFB1F0AE4C1291CF2D73CA947628C7
:10014000ABF517490856B4EA6937D58B5709EBB5B3
:1001500036688AD495CB2977F4AA4816E9B7550BA7
:1001600088D6346A2B7597C94A14F6A8742AC8969B
:10017000154BA9F7B6E80A54D7896B350000000083
:10018000250028002B0000000000240027002A0082
:1001900000000000230026002900040404040404D5
:1001A0000404020202020202030303030303010226
:1001B00004081020408001020408102001020408F5
:1001C00010202B1111241FBECFEFD8E0DEBFCDBF12
:1001D00022E0ACE5B1E001C01D92A73AB207E1F719
:1001E00011E0A0E0B1E0ECE6F7E202C005900D926C
:1001F000AC35B107D9F710E0C2EED0E004C02197CA
:10020000FE010E949A13C13ED107C9F70E946E10E9
:100210000C94B4130C94000080916B018460809363
:100220006B0180916C01807880936C01E0915D019D
:10023000F0915E01309709F00994089591E59CBD15
:1002400091E09DBD2A98E3E2F0E03197F1F78EBD91
:1002500000000DB407FEFDCF8EB5FB019FEF4150AE
:10026000C8F0222361F09EBD00000DB407FEFDCF53
:100270008EB56115710599F380833196F0CFDF015A
:10028000119680818EBD00000DB407FEFDCF8EB5A6
:10029000FD01E5CF2A9AE3E2F0E03197F1F7089506
:1002A000CF93DF931F92CDB7DEB7698320E041E0A3
:1002B000BE016F5F7F4F0E941E010F90DF91CF91B3
:1002C00008956FE080E20E94500160911B016F3F32
:1002D00019F08AE20E945001299A089520E040E036
:1002E00060E070E00C941E010F931F93CF93DF9397
:1002F000FC01828190916B0190FF04C08F3F09F057
:100300004FC005C08F3F19F0D0917B0101C0DFEFD6
:1003100080917A018083438142FD06C046954695CF
:100320004695C7E0C40F01C0C0E28F0180E090E0B5
:10033000892B21F080E090E00E940000299883E062
:1003400092E00197F1F76EE080E20E9450018BE8A5
:1003500091E00197F1F76D2F8AE20E9450016D2F15
:1003600080E30E94500181EE0E946E01DF3F11F098
:1003700080EA01C080EB4C2FC13208F040E220E05F
:10038000B8010E941E01299A00E010E08FEF0E9440
:100390006E01C82F807331F401501109B9F702C002
:1003A000C0E02FC0299860E387E20E945001C4FF9B
:1003B00003C081EE0E946E010E946101C5FBCC2743
:1003C000C0F991E0DF3F09F090E0C92B80917B01FB
:1003D000D81317C0C11110C080E090E0892B21F024
:1003E00085E690E00E94000080916C0191E0980FFA
:1003F0009F70807F892B03C080916C01807F8093E8
:100400006C018C2FDF91CF911F910F910895CF93A5
:10041000C82F8FEF8C0F8E3FA8F4C0937A01C09342
:100420001B0163E082E20E94500161E081E20E94D0
:1004300050010E9461016C2F80E090E00E946013E7
:1004400081E00CC080E090E0892B21F08EE690E006
:100450000E9400008FEF80937A0180E0CF91089591
:10046000EBE6F1E08081877F8F7E808310926701C9
:10047000109268011092690110926A0143E050E005
:1004800060E070E08AE791E00C944013FC01838106
:1004900087708860838384818F718062848367839F
:1004A000CF01089580E090E0892B21F088E090E072
:1004B0000E9400008FEF80936D0180916B01886036
:1004C00080936B0128E143E06FEF80E00E94BB0C5A
:1004D00061E00E9446020C9474010F931F93CF9326
:1004E000DF93EC016115710561F0FB0101900020C3
:1004F000E9F73197E61BF70BE931F10518F0E9E16F
:1005000001C0E0E00E2F10E0C80123E0880F991F22
:100510002A95E1F79B819770892B8B838C818F7152
:100520008C83EE2329F0A801CE0107960E94A51323
:10053000FE01E00FF11F1782CE01DF91CF911F91D5
:100540000F91089580917A018F3FA1F480E090E0AF
:10055000892B21F086E090E00E94000023E043E038
:100560006FEF80E00E94BB0C64E571E00E946D02B9
:100570000C947401089580E090E0892B21F084E0D0
:1005800090E00E94000080916B01897F81608093E0
:100590006B018FEF80937C0180937B0127E043E028
:1005A0006FEF0E94BB0C64E571E00E946D020C9439
:1005B000740129986CE080E20C94500180916C01E8
:1005C000982F9077903759F0982F92959F709F5F52
:1005D00097709295907F8F78892B80936C01809192
:1005E0006B018B7F8F7E80936B0180E090E0892B85
:1005F00021F087E690E00E9400000C94D90220913F
:100600006B0122FD0C94740180E008956F927F923B
:100610008F929F92AF92BF92CF92DF92EF92FF9212
:100620000F931F93CF93DF9300D0CDB7DEB7E09148
:100630006101F09162010280F381E02D309709F0B1
:10064000099580916B0184FBCC24C0F884FFA1C183
:1006500086E0D82E90E0692E90E0792E00E010E040
:1006600020E0E22E20E0F22E31E2B32E21E041E044
:1006700060E070E087E10E941E0180FD8AC1DA948B
:10068000DD2009F486C16114710421F081E090E05D
:100690000E94000021E041E060E070E080E60E94FE
:1006A0001E01982E80E2891520F482EE0E946E01D0
:1006B000912C21E0492D6FE672E081E60E941E0137
:1006C00060E487E20E94500190917202292F2695E2
:1006D000269526952A3108F029E192FD03C037E0DE
:1006E000320F01C030E2E091730250917402A09089
:1006F000700280916F0280907102931639F061143C
:10070000710409F4B3CF8CE690E00AC0392F33703E
:10071000323049F06114710409F4A8CF8DE690E0FD
:100720000E940000A3CF4E2F477030916C013068BB
:1007300030936C0130917A0183124DC030E0B901E1
:10074000F3E0660F771FFA95E1F79770962B909379
:100750007202D901A159BD4F17961C92E3FF1BC02D
:10076000EFE6F2E0AEE4B2E08B2D01900D928A95B7
:10077000E1F780915202877F8061809352028092DC
:100780004F02A09250028EE492E049835A830E9465
:10079000FF025A8149812091730224FD13C0433026
:1007A00089F49091740281EF890F833008F043C07F
:1007B0005DCF913009F4CAC09A3009F457CF9C310B
:1007C00009F454CF0115110509F450CF8FE692E0DA
:1007D0000E9400004BCF9FEF891248CF433031F584
:1007E00090916B0192FF03C0573009F43FCF58300E
:1007F00009F43CCF543109F039CF90917B01891332
:1008000035CF0E94E30D7370882799270E94A90DA8
:1008100090907B0125E143E06FEF8A2D0E94BB0C95
:10082000692D0E9446020E94740120CF90917B01A5
:1008300089131CCFC7CF543029F40E94CA0C0E94E0
:10084000070214CF5830D1F490906B0190FE0ECF78
:100850000E94CA0C8F3F09F409CF91E0980F9F3F87
:1008600009F404CF80917C01981708F0FFCE91FC29
:10087000FDCE90937C01A0927B01F8CE583141F4DB
:1008800029E143E06FEF8A2D0E94BB0C61E0C9CFE4
:10089000593161F480916B0183FFE8CE877F8093AB
:1008A0006B010E94CA0C80936D01E0CE80917002B2
:1008B00081116BC09D3099F480E090E0892B21F08C
:1008C0008BE090E00E94000098E088E10FB6F89479
:1008D000A895809360000FBE90936000FFCF9B317E
:1008E00099F40E94CA0C91E0811101C090E08091BE
:1008F000600190FB80F9809360016114710409F438
:10090000B5CE8AE090E00CCF9630A9F490917602B3
:10091000992329F081E09D3419F080E001C08C2DED
:1009200080935F0141E050E063E071E08FE591E08A
:100930000E9450139BCE933119F40E94190B96CE4E
:10094000923109F036CF0E94DD0C90CEE114F10413
:1009500009F48CCE229526952770253049F46091B4
:1009600076027091770280917802909179020AC0A4
:10097000211105C086E792E00E94D81103C060E013
:1009800070E0CB010E94000071CE9A3109F01ACFBD
:100990006DCE0F900F90DF91CF911F910F91FF902F
:1009A000EF90DF90CF90BF90AF909F908F907F900F
:1009B0006F9008950F931F930E94E30D00916301C0
:1009C000109164012091650130916601601B710BEB
:1009D000820B930B1F910F9108959C0180916101EF
:1009E000909162018217930751F090916B019F7172
:1009F00090936B01309362012093610105C0809157
:100A00006B01805E80936B01E0916101F091620166
:100A10000190F081E02D309709F009950E94E30DD7
:100A20006093630170936401809365019093660104
:100A300008950F931F930E94DA0420916C01207790
:100A4000203729F000E117E220E030E004C000E6A2
:100A50001AEE20E030E0061717072807390730F4B0
:100A60008CE191E01F910F910C94ED041F910F9177
:100A7000089580916C018F70863020F087E191E0BD
:100A80000C94ED04089580916D018F3FA1F00E94B8
:100A9000E30D6093670170936801809369019093FF
:100AA0006A0180916D0190917C01891380937C0192
:100AB00083E191E01BC00E94DA04613D774081052B
:100AC0009105B0F080916B01803618F48FE091E0D1
:100AD0000DC0877F80936B0180E090E0892B21F02F
:100AE0008AE690E00E94000087E191E00C94ED041A
:100AF000089580917A018F3F59F080E090E0892B32
:100B000021F087E090E00E9400008FE091E018C0A3
:100B10000E94DA04613D77408105910598F080914B
:100B20006B01803618F48BE091E00AC080E090E021
:100B3000892B21F089E690E00E94000087E091E097
:100B40000C94ED0408950E94DA04613D774081051C
:100B5000910520F480916B0181FF089580917B01C4
:100B60008F3F81F080916B018E7F80936B0180E0DD
:100B700090E0892B21F085E090E00E9400008BE05E
:100B800091E011C080916B01803618F487E191E00B
:100B90000AC080E090E0892B21F088E690E00E9476
:100BA000000087E091E00C94ED04CF93219A229A03
:100BB000CFB7F89480915C01811166C084EA91E01E
:100BC000FC01249148EB51E0FA01649130E0220FDE
:100BD000331F2A573E4FF901A591B4912C916223FE
:100BE00009F040C0E2E7F0E02491FA014491FC01F1
:100BF00094919923B9F1222339F1233091F038F4FB
:100C00002130A9F0223001F584B58F7D12C0273044
:100C100091F02830A1F02430B9F4809180008F7DCC
:100C200003C0809180008F77809380000DC084B5D1
:100C30008F7784BD09C08091B0008F7703C0809109
:100C4000B0008F7D8093B000E92FF0E0EE0FFF1F22
:100C5000E458FE4FA591B4918FB7F8949C91492B1D
:100C60004C938FBF61E08AE00E946D0D8CB580616E
:100C70008CBD8CB580648CBD61E08DE00E946D0DF3
:100C800061E08BE00E946D0D80915C018F5F80932D
:100C90005C01CFBF29982A9A6EE080E20E94500141
:100CA00065E070E080E090E00E94A90D63E083E2DF
:100CB0000E9450016FE584E20E9450016CE485E2DD
:100CC0000E94500167E286E20E94500163E780E5DE
:100CD0000E94500166E08DE30E94500121E041E056
:100CE00060E070E086E00E941E01C82F21E041E034
:100CF00060E070E085E00E941E018C3409F040C085
:100D0000C732F1F562E082E20E94500160E081E2C8
:100D10000E94500163E08CE30E9450018FEF8093AA
:100D2000020120E045E062E071E08BE20E941E01DA
:100D300020E045E062E071E08AE20E941E0120E0CE
:100D400045E062E071E080E30E941E0182EE0E94B5
:100D50006E0181EE0E946E0160E787E20E94500101
:100D600080916B01806180936B0180917A018F3F4C
:100D700081F00E94070281110CC087E091E00BC056
:100D800080E090E0892BC9F387E690E00E940000A4
:100D9000F4CF87E191E0CF910C94ED0420917A009B
:100DA0002F7720937A00309160008A309105B1F05E
:100DB00083FD02C028E001C028E28770822B98E101
:100DC0000FB6F894A895909360000FBE80936000D2
:100DD000809160008065809360000BC00FB6F8942E
:100DE000A8958091600088618093600010926000F7
:100DF0000FBE83B7817F846083BFF89483B781601F
:100E000083BF85B7806685BF8F7D85BF78948895C1
:100E100083B78E7F83BFF894A89580916000886126
:100E20008093600030936000789480917A008068AD
:100E300080937A0008951F920F920FB60F9211249B
:100E40000F900FBE0F901F901895089583E0809328
:100E500020010895CF93DF932BE043E06FEF80E014
:100E60000E94BB0C6EE371E00E946D020E94FF02C3
:100E70002CE043E06FEF80E00E94BB0C61E571E085
:100E80000E946D020E94FF0280913F0290E09093C9
:100E9000710180937001C0E0D0E080917001909169
:100EA0007101C817D9074CF4C230D10531F066E0A2
:100EB0008C2F0E94FF0C2196F0CFDF91CF910895E7
:100EC000FC0190810180F281E02DF8948181892BD1
:100ED00081832281892F809528232283A7E0B0E097
:100EE0001197F1F7218182238183A3E2B0E011976A
:100EF000F1F780817894EFECF0E03197F1F79823E7
:100F000081E009F480E00895FC0190810180F28184
:100F1000E02D892F809560FF12C0F89422818223F2
:100F200082838181892B8183A3E2B0E01197F1F75D
:100F30008281982B9283789487ED90E011C0F89489
:100F40002281822382838181892B8183AFEFB0E06C
:100F50001197F1F78281982B928378948FE090E03B
:100F60000197F1F70895FC0190810180F281E02D55
:100F7000F8948181292F20958223818378948DE7AD
:100F800043E050E0815021F1DA011197F1F730810F
:100F90003923C1F3F8948281822382838181892B52
:100FA00081837894ABE7B7E01197F1F7F8948181EA
:100FB00028232183A3E1B1E01197F1F780819823E1
:100FC00081E009F080E07894E3E6F6E03197F1F70C
:100FD00008954F925F926F927F928F929F92AF92FD
:100FE000BF92CF92DF92EF92FF920F931F93CF9316
:100FF000DF93CDB7DEB761970FB6F894DEBF0FBEB3
:10100000CDBF8091200120E4829FC00111248093F4
:101010007C0080917A00806480937A0080917A00CD
:1010200086FDFCCF809178002091790090E0922B92
:101030006AE070E00E9472136B018091400290910F
:1010400041020E94B30740E06CEC80914002909115
:1010500041020E94CA0E40913B0264E4809140022A
:10106000909141020E94CA0E80913D028823A9F00E
:10107000E0913C02E950E33040F4F0E0EE0FFF1F56
:10108000EA5DFE4F6081718102C06EEE72E0072E54
:10109000000C880B990B0E94A90D02E711E0E12CCE
:1010A000F12CAA24A3948091700190917101E8160B
:1010B000F9060CF085C022E0E216F10409F480C0C4
:1010C000BE2CE0914002F0914102138615861486F1
:1010D000DF011B9633961E92AE17BF07E1F7912CE6
:1010E000BE01665F7F4F80914002909141020E9455
:1010F0000C0F882371F09B1009C067E0CE010A969F
:101100000E94BD0E9989891709F4A0C19394B9145E
:1011100038F7412C512C3EEF632E32EC732EA30195
:101120009201F80160817181828193810E941C1279
:101130008823F1F120E030E04EEF52ECC301B20120
:101140000E941C128823A1F120E030E04AEA52E418
:10115000C301B2010E941C12882351F1B0922002F7
:1011600080911D028770886280931D0280911E020B
:101170004092210250922202609223027092240235
:10118000A092250290917A0190931B028071816E4A
:1011900080931E028091600180FF04C08AE192E08A
:1011A0000E94FF02F801408251826282738202C073
:1011B0000E94DD0CFFEFEF1AFF0A0C5F1F4F73CF89
:1011C00080916E0190916F018C159D0579F020E062
:1011D00043E06FEF80E00E94BB0C6C2D0E94460242
:1011E0000E94FF02D0926F01C0926E0180916B014C
:1011F00082FD13C00E94E30D6B017C0180E090E052
:10120000DC0120916B0122FD33C0803147E294075D
:10121000A105B10508F440C02BC090EC892E97E2DF
:10122000992E99E0A92EB12C0E94D90280E090E07D
:10123000892B21F08EE090E00E9400008DE791E084
:101240000E94670C809121018F3F91F580E4881600
:101250008FE19806A104B10458F189E090E00E9462
:10126000CE0650E4851A5FE1950AA108B108EACFDD
:10127000803C57E2950759E0A507B10508F03BC14E
:1012800020EC822E27E2922E29E0A22EB12C881A81
:10129000990AAA0ABB0AC8CFA8950E9406030E9411
:1012A000E30DDC01CB018C199D09AE09BF09A9CF63
:1012B00075016401809121018F3F41F4E0EA8E16AF
:1012C000EFE09E06A104B10408F065C08091210101
:1012D0008F3F41F4F0EDCF16F7E0DF06E104F104B3
:1012E00008F066C0809121018F3F41F428EEC216BC
:1012F00023E0D206E104F10408F065C080912101E9
:101300008F3F41F444EFC41641E0D406E104F104F8
:1013100008F064C0809121018F3F39F45AEFC5165F
:10132000D104E104F10408F064C0809121018F3FF1
:1013300039F48DE7C816D104E104F10408F063C064
:10134000809121018F3F39F4E0E4CE16D104E1040D
:10135000F10408F062C0809121018F3F39F4F0E27E
:10136000CF16D104E104F10408F061C0809121019D
:101370008F3F39F420E1C216D104E104F10408F0F2
:1013800060C080E090E0892B09F4B5C08FE090E068
:101390000E940000B0C088E090E00E94CE06750177
:1013A000640180EAC81A8FE0D80AE108F1088ECFFC
:1013B00087E090E00E94CE06E0EDCE1AE7E0DE0A7C
:1013C000E108F1088FCF86E090E00E94CE06F8EEAB
:1013D000CF1AF3E0DF0AE108F10890CF85E090E052
:1013E0000E94CE0624EFC21A21E0D20AE108F108D9
:1013F00091CF84E090E00E94CE064AEFC41AD10853
:10140000E108F10892CF83E090E00E94CE0658E711
:10141000C51AD108E108F10893CF82E090E00E945C
:10142000CE068CE3C81AD108E108F10894CF81E018
:1014300090E00E94CE06EEE1CE1AD108E108F10854
:1014400095CF80E090E00E94CE069BCFBE016F5FFB
:101450007F4FCE010A960E94C90F882309F448C025
:1014600068E0CE0101960E94BD0E9985891340C0A7
:10147000698148E0649FB00111248A81282F30E0FF
:10148000322F2227330F330F330F262B372B8A852A
:10149000803161F5688570E08F81AB01481B51098F
:1014A000CA019695982F8827979587950E94721361
:1014B00060517109207F53E0220F331F5A95E1F7E5
:1014C000620F731F613854EE75070CF422CE072E9D
:1014D000000C880B990B0E94231220E030E040E0C2
:1014E0005CE30E9482122B013C0119CEB901EACFC4
:1014F00060E874EEE7CF61960FB6F894DEBF0FBEDA
:10150000CDBFDF91CF911F910F91FF90EF90DF90B2
:10151000CF90BF90AF909F908F907F906F905F9093
:101520004F9008950F931F93CF93DF93CDB7DEB7FE
:1015300061970FB6F894DEBF0FBECDBFE0914002B9
:10154000F0914102138615861486DF011B963396AF
:101550001E92AE17BF07E1F710923F0211E0BE01E5
:10156000665F7F4F80914002909141020E940C0F74
:10157000882309F453C067E0CE010A960E94BD0E8D
:1015800099898913ECCF80913B02811126C080910B
:101590004002909141020E94B307BE01665F7F4FF7
:1015A00080914002909141020E949C0F40E064EBC8
:1015B00080914002909141020E94CA0E80914002A7
:1015C000909141020E946007082F80914002909103
:1015D00041020E94B3070023F1F0BE016F5F7F4F0D
:1015E000CE010A960E94C90F00913C02CE010A96D4
:1015F0000E941E10801718F480913C0204C0CE0196
:101600000A960E941E1080933C0280913F028F5FD9
:1016100080933F02A4CF10933B02DFCF61960FB6B9
:10162000F894DEBF0FBECDBFDF91CF911F910F9118
:101630000895CF9380E090E0892B21F08CE090E03A
:101640000E9400002FE043E06FEF80E00E94BB0C9F
:1016500064E571E00E946D028091510287708061A3
:1016600080935102809152028F71806C809352025C
:1016700081E080935502109256028EE492E00E941F
:10168000FF028FE00E94EF0D61E18FEF0E94FF0CDF
:10169000C0917B0126E043E06FEF80E00E94BB0C2D
:1016A0006C2F0E9446020E94FF0286E00E94EF0D0E
:1016B000CF910C942A07CF938091600181FD27C0C0
:1016C0000E94190B80E090E0892B21F089E090E0E6
:1016D0000E94000080916001816080936001C4E0FD
:1016E0002AE143E06FEF80E00E94BB0C62E00E94C1
:1016F00046020E94FF028BE10E94EF0D811102C0A1
:10170000C15071F780916001826080936001CF9138
:101710000895CF92DF92EF92FF920F931F93CF9392
:10172000DF936C017A018B01C0E0D0E0CE15DF05BC
:1017300089F0D8016D918D01D601ED91FC91019058
:10174000F081E02DC6010995892B11F47E0102C0BC
:101750002196ECCFC701DF91CF911F910F91FF90A0
:10176000EF90DF90CF900895089580E090E0089585
:10177000FC01538D448D252F30E0842F90E0821B97
:10178000930B541710F0CF96089501970895FC011C
:10179000918D828D981761F0828DDF01A80FB11DA8
:1017A0005D968C91928D9F5F9F73928F90E00895CC
:1017B0008FEF9FEF0895FC01918D828D981731F086
:1017C000828DE80FF11D858D90E008958FEF9FEFDA
:1017D0000895FC01918D228D892F90E0805C9F4FB0
:1017E000821B91098F73992708958DE791E00E94DC
:1017F000E90B21E0892B09F420E0822F0895FC01F8
:10180000848DDF01A80FB11DA35ABF4F2C91848D89
:1018100090E001968F739927848FA689B7892C93BE
:10182000A089B1898C9180648C93938D848D981359
:1018300006C00288F389E02D80818F7D8083089522
:10184000EF92FF920F931F93CF93DF93EC0181E010
:10185000888F9B8D8C8D981305C0E889F9898081CC
:1018600085FD24C0F62E0B8D10E00F5F1F4F0F7308
:101870001127E02E8C8DE8120CC00FB607FCFACFB2
:10188000E889F989808185FFF5CFCE010E94FF0BA1
:10189000F1CF8B8DFE01E80FF11DE35AFF4FF0826F
:1018A0000B8FEA89FB898081806207C0EE89FF89FE
:1018B0006083E889F98980818064808381E090E099
:1018C000DF91CF911F910F91FF90EF900895CF93EB
:1018D000DF93EC01888D8823C9F0EA89FB89808138
:1018E00085FD05C0A889B9898C9186FD0FC00FB60A
:1018F00007FCF5CF808185FFF2CFA889B9898C914B
:1019000085FFEDCFCE010E94FF0BE7CFDF91CF9196
:10191000089580E090E0892B29F00E94F50B811159
:101920000C94000008953FB7F8948091950290912F
:101930009602A0919702B091980226B5A89B05C087
:101940002F3F19F00196A11DB11D3FBFBA2FA92F3E
:10195000982F8827820F911DA11DB11DBC01CD01BB
:1019600042E0660F771F881F991F4A95D1F70895A7
:1019700008950E94A013EEE4F2E090917A01918321
:1019800082836683258347708481807E482B4483CD
:10199000CF0108958091730282958695877081307A
:1019A00019F4809176020895811105C086E792E0CE
:1019B0000E94BA11089580E00895CF92DF92EF92CD
:1019C000FF920E94DA046B017C0126E143E06FEF95
:1019D00080E00E94BB0CFC0184818F71806A84834B
:1019E0008381877080628383C782D086E186F28696
:1019F000CF01FF90EF90DF90CF900C94FF02CF9338
:101A0000DF93262F8F3F19F0C4E5D1E002C0C5E572
:101A1000D1E040E0682F80E00E94BB0CBE010E9434
:101A20006D02DF91CF910C94FF021F920F920FB6BF
:101A30000F9211242F933F934F935F936F937F9354
:101A40008F939F93AF93BF93EF93FF938DE791E0B5
:101A50000E94FF0BFF91EF91BF91AF919F918F91EA
:101A60007F916F915F914F913F912F910F900FBE9A
:101A70000F901F9018951F920F920FB60F9211247E
:101A80002F938F939F93EF93FF93E0918D01F091AC
:101A90008E018081E0919301F091940182FD12C04A
:101AA0009081809196018F5F8F73209197018217AB
:101AB00051F0E0919601F0E0E358FE4F958F80934E
:101AC000960101C08081FF91EF919F918F912F919D
:101AD0000F900FBE0F901F901895CF93DF9390E05B
:101AE000FC01E255FE4F2491FC01E656FE4F849125
:101AF000882361F190E0880F991FFC01EA57FE4F9F
:101B0000C591D491FC01E458FE4FA591B4916111A7
:101B100009C09FB7F8948881209582238883EC912F
:101B20002E230BC0623061F49FB7F8943881822F66
:101B3000809583238883EC912E2B2C939FBF06C026
:101B40008FB7F894E8812E2B28838FBFDF91CF9138
:101B500008958F929F92AF92BF92CF92DF92EF92B1
:101B6000FF926B017C010E94930C4B015C01C1143C
:101B7000D104E104F104F1F00E94930CDC01CB01EB
:101B800088199909AA09BB09883E9340A105B105A6
:101B900070F321E0C21AD108E108F10888EE880E3E
:101BA00083E0981EA11CB11CC114D104E104F1040E
:101BB00019F7DDCFFF90EF90DF90CF90BF90AF90FF
:101BC0009F908F9008952FB7F89460919102709133
:101BD000920280919302909194022FBF0895CF9228
:101BE000DF92EF92FF92CF93DF93D82F0E94E30D05
:101BF0006B017C0181E0D11180E080937402C0E030
:101C00000E94E30DAB01BC014C195D096E097F090F
:101C1000403D57406105710580F4C1110EC0A89583
:101C20000E940603909173029770933049F7C1E0C8
:101C3000809174028D13E3CFE3CF8C2FDF91CF918E
:101C4000FF90EF90DF90CF9008951F920F920FB604
:101C50000F9211242F933F938F939F93AF93BF9332
:101C60008091910290919202A0919302B09194027E
:101C70003091900223E0230F2D3720F40196A11D0F
:101C8000B11D05C026E8230F0296A11DB11D2093AA
:101C900090028093910290939202A0939302B0934A
:101CA00094028091950290919602A0919702B09132
:101CB00098020196A11DB11D809395029093960202
:101CC000A0939702B0939802BF91AF919F918F918B
:101CD0003F912F910F900FBE0F901F9018951F925C
:101CE0000F920FB60F9211242F933F934F935F9350
:101CF0006F937F938F939F93AF93BF93EF93FF93D4
:101D0000E0912401F09125010995FF91EF91BF9198
:101D1000AF919F918F917F916F915F914F913F9183
:101D20002F910F900FBE0F901F9018951F920F923A
:101D30000FB60F9211242F933F934F935F936F939E
:101D40007F938F939F93AF93BF93EF93FF93E09114
:101D50002201F09123010995FF91EF91BF91AF917D
:101D60009F918F917F916F915F914F913F912F91B3
:101D70000F900FBE0F901F901895DC01E0E06150AE
:101D800038F08D91E827F0E0E458FF4FE491F7CF69
:101D90008E2F0895CF92DF92EF92FF920F931F93B1
:101DA000CF93DF931F92CDB7DEB76C01E62E08E02C
:101DB00010E0FF24F39461E08F2D8E2109F460E0A0
:101DC000C60149830E948407FF0C01501109498113
:101DD0000115110581F7411115C0F894D60111962E
:101DE000ED91FC91129791818C918095892381834B
:101DF0001196ED91FC91129792818C918095892397
:101E0000828378940F90DF91CF911F910F91FF9073
:101E1000EF90DF90CF900895AF92BF92CF92DF9274
:101E2000EF92FF920F931F93CF93DF931F92CDB743
:101E3000DEB75C01D62EE72EFC018585811105C039
:101E4000C5010E94B307811106C0F50113861586EE
:101E5000148680E065C040E060EFC5010E94CA0EB4
:101E600001E0F12CC12C11E0C5010E946007682F30
:101E7000C50169830E9460076981613019F481306E
:101E8000B9F433C04F2D50E068131BC0F5018385B2
:101E9000181730F4E40FF51F8381802349F402C042
:101EA000181731F060E0193058F4F501148708C0B4
:101EB000F501EF0DF11D8381802B838361E009C063
:101EC000C12EF501E40FF51F9381802F80958923A2
:101ED0008383C5010E9484071F5F000F11F4F394F0
:101EE00001E0F7E0FF1508F0BFCF113408F4ADCFE3
:101EF000F501C386C11002C081E08587F5018381A9
:101F0000882309F4A2CFD5011396ED2DFE2D95015E
:101F1000255F3F4F8D918193A217B307D9F781E0D9
:101F20000F90DF91CF911F910F91FF90EF90DF9075
:101F3000CF90BF90AF900895CF92DF92EF92FF9233
:101F40000F931F93CF93DF931F92CDB7DEB78C0112
:101F5000F62E40E065E579830E94CA0ECF2C798188
:101F6000D72E760188E0E80EF11CF60161916F0131
:101F700040E0C8010E94CA0ECE14DF04B1F70F90F2
:101F8000DF91CF911F910F91FF90EF90DF90CF9055
:101F90000895AF92BF92CF92DF92EF92FF920F938C
:101FA0001F93CF93DF93EC018B01809140029091BE
:101FB00041020E94B3078823A1F1BE018091400233
:101FC000909141020E949C0F40E06EEB8091400294
:101FD000909141020E94CA0EE801680189E0C80E92
:101FE000D11CA0904002B090410288E0E82EF12C74
:101FF00001E010E0C5010E9460078111102B000F65
:1020000081E0E81AF108B1F71993CC15DD0549F71D
:1020100080914002909141020E94B30791E081308B
:1020200009F090E0892FDF91CF911F910F91FF90E0
:10203000EF90DF90CF90BF90AF900895CF93DF9354
:10204000CDB7DEB729970FB6F894DEBF0FBECDBF70
:10205000FC012081203119F1BE016F5F7F4F0E948A
:10206000C90F882379F068E0CE0101960E94BD0E69
:102070009985891307C008C0803458F08F3569F0FE
:102080008F3769F080E00CC08D818F33A9F78AE02B
:1020900007C08F31B9F789E003C08BE001C08CE045
:1020A00029960FB6F894DEBF0FBECDBFDF91CF915A
:1020B0000895CF93DF93FC01108211821282148263
:1020C00015821682DC0117968AE1ED0119928A9534
:1020D000E9F782E08383DF91CF910895789484B506
:1020E000826084BD84B5816084BD85B5826085BD14
:1020F00085B5816085BD80916E00816080936E00A2
:102100001092810080918100826080938100809193
:102110008100816080938100809180008160809344
:1021200080008091B10084608093B1008091B00004
:1021300081608093B00080917A00846080937A00FF
:1021400080917A00826080937A0080917A00816029
:1021500080937A0080917A00806880937A00109250
:10216000C100A89580E090E0892B11F00E9400004A
:10217000E0918D01F0918E0182E08083E0918901F0
:10218000F0918A011082E0918B01F0918C0180E145
:10219000808310929501E0919101F091920186E087
:1021A0008083E0918F01F091900180818061808334
:1021B000E0918F01F0919001808188608083E091AF
:1021C0008F01F0919001808180688083E0918F0180
:1021D000F091900180818F7D8083809160018D7F5F
:1021E000809360010E94920A41E050E063E071E058
:1021F0008FE591E00E9440136FEF81E090E00E9434
:10220000601380916C018F7880936C011092620151
:10221000109261018CE191E00E94ED048BE59BE05E
:1022200090935E0180935D010E94E30D0E94E30D97
:102230000E940603A89580916B0182FFF7CF83E08F
:1022400080932001A895A8950E9406030E94E907A3
:102250000E94890CF8CF1092800110927F0188EEC5
:1022600093E0A0E0B0E08093810190938201A0937D
:102270008301B093840180E391E090937E01809389
:102280007D0185EC90E090938A018093890184EC34
:1022900090E090938C0180938B0180EC90E0909380
:1022A0008E0180938D0181EC90E09093900180935A
:1022B0008F0182EC90E0909392018093910186ECE3
:1022C00090E0909394018093930110929601109264
:1022D000970110929801109299018FE692E00E9466
:1022E00059108EE492E00E94591060E088E00E944C
:1022F0006D0DE6EBF1E0E491E0939902E2EAF1E0A2
:10230000E491F0E0EE0FFF1FE057FE4F85919491AE
:1023100090939B0280939A021092A4021092A602BC
:102320001092A502E4EAF2E0129282E0EC39F8079A
:10233000D9F785E297E090934D0280934C0289E9AA
:1023400092E0909341028093400210923F021092DB
:102350003B0289E080933C0281E080933D028093C0
:102360003E028AE192E00E945910109220021092DF
:102370001F020895FC0188279927E89421912032B3
:10238000E9F3293010F02E30C8F32B3241F02D3212
:1023900039F4689404C00E941412820F911D219197
:1023A00020532A30C0F31EF4909581959F4F0895D5
:1023B0001F93FC0199278827BC01E89411911032E2
:1023C000E9F3193010F01E30C8F31B3251F01D3202
:1023D00049F4689406C00E94FF11610F711D811DB0
:1023E000911D119110531A30B0F33EF490958095E1
:1023F000709561957F4F8F4F9F4F1F910895592F73
:10240000482F372F262F660F771F881F991F660FBB
:10241000771F881F991F620F731F841F951F660FF8
:10242000771F881F991F08957AE0979F902D879FA7
:10243000802D910D112408950E945E1208F481E010
:102440000895E89409C097FB3EF4909580957095A7
:1024500061957F4F8F4F9F4F9923A9F0F92F96E9F0
:10246000BB279395F695879577956795B795F11165
:10247000F8CFFAF4BB0F11F460FF1BC06F5F7F4F02
:102480008F4F9F4F16C0882311F096E911C0772314
:1024900021F09EE8872F762F05C0662371F096E81D
:1024A000862F70E060E02AF09A95660F771F881FEC
:1024B000DAF7880F9695879597F90895990F000890
:1024C000550FAA0BE0E8FEEF16161706E807F90706
:1024D000C0F012161306E407F50798F0621B730BA1
:1024E000840B950B39F40A2661F0232B242B252B22
:1024F00021F408950A2609F4A140A6958FEF811DC5
:10250000811D08950E9495120C9406130E94F812E2
:1025100038F00E94FF1220F0952311F00C94EF1276
:102520000C94F51211240C943A130E94171370F3B3
:10253000959FC1F3950F50E0551F629FF001729F68
:10254000BB27F00DB11D639FAA27F00DB11DAA1F77
:10255000649F6627B00DA11D661F829F2227B00DC4
:10256000A11D621F739FB00DA11D621F839FA00D4F
:10257000611D221F749F3327A00D611D231F849F9F
:10258000600D211D822F762F6A2F11249F575040F6
:102590009AF0F1F088234AF0EE0FFF1FBB1F661F71
:1025A000771F881F91505040A9F79E3F510580F03A
:1025B0000C94EF120C943A135F3FE4F3983ED4F37B
:1025C000869577956795B795F795E7959F5FC1F7DE
:1025D000FE2B880F911D9695879597F9089597F989
:1025E0009F6780E870E060E008959FEF80EC0895B9
:1025F00000240A94161617061806090608950024E2
:102600000A9412161306140605060895092E03945B
:10261000000C11F4882352F0BB0F40F4BF2B11F4CF
:1026200060FF04C06F5F7F4F8F4F9F4F089557FD2E
:102630009058440F551F59F05F3F71F04795880F30
:1026400097FB991F61F09F3F79F0879508951216C7
:1026500013061406551FF2CF4695F1DF08C0161673
:1026600017061806991FF1CF869571056105089424
:102670000895E894BB2766277727CB0197F908953B
:10268000DC01CB01FC01F999FECF06C0F2BDE1BD32
:10269000F89A319600B40D9241505040B8F7089521
:1026A000DC01A40FB51F4150504048F0CB01840F0E
:1026B000951F2E910E94611341505040D0F708950C
:1026C000262FF999FECF92BD81BDF89A019700B4EB
:1026D000021639F01FBA20BD0FB6F894FA9AF99A8B
:1026E0000FBE089597FB072E16F4009407D077FDD0
:1026F00009D00E94861307FC05D03EF49095819581
:102700009F4F0895709561957F4F0895AA1BBB1B3D
:1027100051E107C0AA1FBB1FA617B70710F0A61BE1
:10272000B70B881F991F5A95A9F780959095BC0102
:10273000CD010895EE0FFF1F0590F491E02D09944F
:1027400081E090E0F8940C94B413FB01DC0141505B
:10275000504048F001900D920020C9F701C01D9231
:1027600041505040E0F70895F894FFCFFFFF00FC80
:10277000E1A8A8DE021905A2027905520243050C60
:10278000013905BB02A305FF3002D50501FFB80CD6
:10279000B80C5E00BC00770100000000200C890B23
:1027A000B80B670CE90BC70BDB0B54656D702B4244
:1027B000617474657279204D6574657200322E30D3
:1027C00000322E312E310000FFFFFFFFFFFFFFFF21
:1027D000FFFFFFFFFFFFFFFFFFFFFFFFFFFFFFFF09
:1027E000FFFFFFFFFFFFFFFFFFFFFFFFFFFFFFFFF9
:1027F000FFFFFFFFFFFFFFFFFFFFFFFFFFFFFFFFE9
:10280000802D910D112408950E94461408F481E052
:102810000895E89409C097FB3EF4909580957095D3
:1028200061957F4F8F4F9F4F9923A9F0F92F96E91C
:10283000BB279395F695879577956795B795F11191
:10284000F8CFFAF4BB0F11F460FF1BC06F5F7F4F2E
:102850008F4F9F4F16C0882311F096E911C0772340
:1028600021F09EE8872F762F05C0662371F096E849
:10287000862F70E060E02AF09A95660F771F881F18
:10288000DAF7880F9695879597F90895990F0008BC
:10289000550FAA0BE0E8FEEF16161706E807F90732
:1028A000C0F012161306E407F50798F0621B730BCD
:1028B000840B950B39F40A2661F0232B242B252B4E
:1028C00021F408950A2609F4A140A6958FEF811DF1
:1028D000811D08950E947D140C94EE140E94E01452
:1028E00038F00E94E71420F0952311F00C94D714CF
:1028F0000C94DD1411240C9422150E94FF1470F323
:10290000959FC1F3950F50E0551F629FF001729F94
:10291000BB27F00DB11D639FAA27F00DB11DAA1FA3
:10292000649F6627B00DA11D661F829F2227B00DF0
:10293000A11D621F739FB00DA11D621F839FA00D7B
:10294000611D221F749F3327A00D611D231F849FCB
:10295000600D211D822F762F6A2F11249F57504022
:102960009AF0F1F088234AF0EE0FFF1FBB1F661F9D
:10297000771F881F91505040A9F79E3F510580F066
:102980000C94D7140C9422155F3FE4F3983ED4F3D3
:10299000869577956795B795F795E7959F5FC1F70A
:1029A000FE2B880F911D9695879597F9089597F9B5
:1029B0009F6780E870E060E008959FEF80EC0895E5
:1029C00000240A941616170618060906089500240E
:1029D0000A9412161306140605060895092E039488
:1029E000000C11F4882352F0BB0F40F4BF2B11F4FC
:1029F00060FF04C06F5F7F4F8F4F9F4F089557FD5B
:102A00009058440F551F59F05F3F71F04795880F5C
:102A100097FB991F61F09F3F79F0879508951216F3
:102A200013061406551FF2CF4695F1DF08C016169F
:102A300017061806991FF1CF869571056105089450
:102A40000895E894BB2766277727CB0197F9089567
:102A5000DC01CB01FC01F999FECF06C0F2BDE1BD5E
:102A6000F89A319600B40D9241505040B8F708954D
:102A7000DC01A40FB51F4150504048F0CB01840F3A
:102A8000951F2E910E94491541505040D0F708954E
:102A9000262FF999FECF92BD81BDF89A019700B417
:102AA000021639F01FBA20BD0FB6F894FA9AF99AB7
:102AB0000FBE0895F894FFCFFFFF00FCE1A8A862C5
:102AC00001E3038301430447010D040C0103049C4B
:102AD000016D04FFBA019F04FF01FD0CFD0C000015
:102AE0000000DC085808A5088308970823095E0041
:102AF000BC00770154656D702B4261747465727906
:102B0000FFFFFFFFFFFFFFFFFFFFFFFFFFFFFFFFD5
:102B1000FFFFFFFFFFFFFFFFFFFFFFFFFFFFFFFFC5
:102B2000FFFFFFFFFFFFFFFFFFFFFFFFFFFFFFFFB5
:102B3000FFFFFFFFFFFFFFFFFFFFFFFFFFFFFFFFA5
:102B4000FFFFFFFFFFFFFFFFFFFFFFFFFFFFFFFF95
:102B5000FFFFFFFFFFFFFFFFFFFFFFFFFFFFFFFF85
:102B6000FFFFFFFFFFFFFFFFFFFFFFFFFFFFFFFF75
:102B7000FFFFFFFFFFFFFFFFFFFFFFFFFFFFFFFF65
:102B80000895DC01CB01FC01F999FECF06C0F2BD2E
:102B9000E1BDF89A319600B40D9241505040B8F71B
:102BA0000895F999FECF92BD81BDF89A992780B515
:102BB0000895DC01A40FB51F4150504048F0CB01EF
:102BC000840F951F2E910E94EA1541505040D0F776
:102BD0000895262FF999FECF92BD81BDF89A0197ED
:102BE00000B4021639F01FBA20BD0FB6F894FA9A55
:102BF000F99A0FBE0895F894FFCFFFFF00FCE1A8FB
:102C0000A80203B005B50210061302DA051801D0B8
:102C100005CE023A06FF6A026C06017D077D07FFBA
:102C20005E00BC00770100000000D70C530CA00C24
:102C30007E0C920C1E0D496E636F6D696E6720638A
:102C400068616E676520666F722073656E736F7260
:102C50003A002C204E6577207374617475733A20A6
:102C6000000D0A0054656D7000322E312E300000C8
:102C7000FFFFFFFFFFFFFFFFFFFFFFFFFFFFFFFF64
:102C8000820F911D219120532A30C0F31EF490959C
:102C900081959F4F08951F93FC0199278827BC01B8
:102CA000E89411911032E9F3193010F01E30C8F396
:102CB0001B3251F01D3249F4689406C00E9472160E
:102CC000610F711D811D911D119110531A30B0F3C8
:102CD0003EF490958095709561957F4F8F4F9F4FF3
:102CE0001F910895592F482F372F262F660F771FD2
:102CF000881F991F660F771F881F991F620F731F08
:102D0000841F951F660F771F881F991F08957AE00B
:102D1000979F902D879F802D910D112408950E94DB
:102D2000D11608F481E00895E89409C097FB3EF4B9
:102D300090958095709561957F4F8F4F9F4F992308
:102D4000A9F0F92F96E9BB279395F6958795779586
:102D50006795B795F111F8CFFAF4BB0F11F460FF46
:102D60001BC06F5F7F4F8F4F9F4F16C0882311F09E
:102D700096E911C0772321F09EE8872F762F05C0B2
:102D8000662371F096E8862F70E060E02AF09A954D
:102D9000660F771F881FDAF7880F9695879597F942
:102DA0000895990F0008550FAA0BE0E8FEEF1616DC
:102DB0001706E807F907C0F012161306E407F5072F
:102DC00098F0621B730B840B950B39F40A2661F0A3
:102DD000232B242B252B21F408950A2609F4A14046
:102DE000A6958FEF811D811D08950E9408170C94F0
:102DF00079170E946B1738F00E94721720F0952304
:102E000011F00C9462170C94681711240C94AD17F0
:102E10000E948A1770F3959FC1F3950F50E0551FDC
:102E2000629FF001729FBB27F00DB11D639FAA271F
:102E3000F00DB11DAA1F649F6627B00DA11D661F6E
:102E4000829F2227B00DA11D621F739FB00DA11D8F
:102E5000621F839FA00D611D221F749F3327A00D49
:102E6000611D231F849F600D211D822F762F6A2FE5
:102E700011249F5750409AF0F1F088234AF0EE0F4A
:102E8000FF1FBB1F661F771F881F91505040A9F777
:102E90009E3F510580F00C9462170C94AD175F3F74
:102EA000E4F3983ED4F3869577956795B795F795B3
:102EB000E7959F5FC1F7FE2B880F911D969587952B
:102EC00097F9089597F99F6780E870E060E00895AA
:102ED0009FEF80EC089500240A9416161706180632
:102EE0000906089500240A9412161306140605060E
:102EF0000895092E0394000C11F4882352F0BB0F9F
:102F000040F4BF2B11F460FF04C06F5F7F4F8F4F01
:102F10009F4F089557FD9058440F551F59F05F3F3C
:102F200071F04795880F97FB991F61F09F3F79F0EB
:102F300087950895121613061406551FF2CF46956D
:102F4000F1DF08C0161617061806991FF1CF8695EF
:102F50007105610508940895E894BB2766277727D3
:102F6000CB0197F90895DC01CB01FC01F999FECF63
:102F700006C0F2BDE1BDF89A319600B40D92415001
:102F80005040B8F70895F999FECF92BD81BDF89AE7
:102F9000992780B50895DC01A40FB51F415050401A
:102FA00048F0CB01840F951F2E910E94DC174150F1
:102FB0005040D0F70895262FF999FECF92BD81BDDC
:102FC000F89A019700B4021639F01FBA20BD0FB667
:102FD000F894FA9AF99A0FBE0895F894FFCFFFFF7C
:102FE000FF00FCE1A8A8210422020604EC010C0168
:102FF000E2013A044C02FF1E061E063303C2011E04
:103000000158040100000000860502054F052D054A
:103010004105CD055E00BC007701322E312E300017
:103020004F4B0054656D702053656E736F720000D6
:10303000FFFFFFFFFFFFFFFFFFFFFFFFFFFFFFFFA0
:10304000FFFFFFFFFFFFFFFFFFFFFFFFFFFFFFFF90
:10305000FFFFFFFFFFFFFFFFFFFFFFFFFFFFFFFF80
:10306000FFFFFFFFFFFFFFFFFFFFFFFFFFFFFFFF70
:10307000FFFFFFFFFFFFFFFFFFFFFFFFFFFFFFFF60
:10308000312E30004F4B0054656D702B42617474CB
:103090006572792053656E736F720000FFFFFFFF4A
:1030A000FFFFFFFFFFFFFFFFFFFFFFFFFFFFFFFF30
:1030B000FFFFFFFFFFFFFFFFFFFFFFFFFFFFFFFF20
:1030C000FFFFFFFFFFFFFFFFFFFFFFFFFFFFFFFF10
:1030D000FFFFFFFFFFFFFFFFFFFFFFFFFFFFFFFF00
:1030E000FFFFFFFFFFFFFFFFFFFFFFFFFFFFFFFFF0
:1030F000FFFFFFFFFFFFFFFFFFFFFFFFFFFFFFFFE0
:10310000656E736F7200FFFFFFFFFFFFFFFFFFFFA2
:10311000FFFFFFFFFFFFFFFFFFFFFFFFFFFFFFFFBF
:10312000FFFFFFFFFFFFFFFFFFFFFFFFFFFFFFFFAF
:10313000FFFFFFFFFFFFFFFFFFFFFFFFFFFFFFFF9F
:10314000FFFFFFFFFFFFFFFFFFFFFFFFFFFFFFFF8F
:1078000011E0A0E0B1E0E6EFFFE702C005900D92C5
:10781000A630B107D9F721E0A6E0B1E001C01D9282
:10782000AE34B207E1F7CDB7DEB76197DEBFCDBFAB
:10783000112484B78093270114BE88E248D3809135
:10784000270181FF96C082E08093C00088E1809389
:10785000C10086E08093C20080E18093C400E12CE7
:10786000F12C00E010E0CC24CA94DC2CAA24A394D0
:10787000A8953AD3813471F437D3898B41D3898960
:10788000823811F482E054C0813811F485E650C08A
:1078900083E04EC0823411F484E103C0853419F4CE
:1078A00085E031D363C0853541F41ED3082F1CD346
:1078B00010E0182B000F111F58C0863521F484E00A
:1078C00022D380E035C08436E1F40ED30DD3882E68
:1078D0000BD3E82CF12C912C981480F405D3B82EFE
:1078E00003D3F801E90DF11D2B2D30E0382B0901F0
:1078F000A7BEE895112493949394EECFC801BCD110
:1079000034C0843769F4F0D2EFD2B82EEDD2F8D279
:10791000F80185918F01E1D2BA94B110F9CF26C058
:10792000853741F4EDD28EE1D8D285E9D6D28FE009
:10793000D4D21CC08135C9F4DA82C982DC82CB8200
:10794000C70154E0969587955A95E1F79E838D83FC
:10795000C701A4D198878F8348E050E06BE171E0C4
:10796000CE01019627D388E0B2D2CAD280E1B5D247
:107970007FCF8EE284B981E58CBD29982A9A63E095
:1079800083E2D2D16FE584E2CFD16CE485E2CCD141
:1079900067E286E2C9D163E780E5C6D166E08DE3A0
:1079A000C3D161E082E2C0D161E081E2BDD161E09A
:1079B0008CE3BAD181E0812C912C5524539411E0B1
:1079C000CC24CA94DC2CAA24A39442E0B42E8130A7
:1079D000F1F7F999FECF43E050E060E070E089E212
:1079E00091E0D8D2809129018093050180912A01EC
:1079F0008093280110924D018FEF80932A0180938C
:107A00002B0103E222E047E06FEF84D261E08EEFCA
:107A1000A8D180912A018F3F49F38091290181509B
:107A20008E3F08F467C003E022E043E06FEF80E0A0
:107A300071D263E084E095D1882359F283E391E029
:107A400077D2682FBDC046E050E063E371E08DE07F
:107A500091E08BD2892B79F5C3018150904F082F8B
:107A60000295007740E050E0602F70E0DA01A45DFD
:107A7000BE4FFA01E60FF71F1E962C911E9730E0BD
:107A8000322F22271D96AC912A2B090157BEE8956B
:107A900011244E5F5F4F4031510541F7011106C07F
:107AA00044E0880F991F4A95E1F7E6D0E114F1040C
:107AB00009F4B6C0370189859A8590930E018093A9
:107AC0000D018B859C859093100180930F017301AC
:107AD000F1E0EF1AF108F0921201E092110104ECCA
:107AE00022E342E06FEF80E015D268E083E039D115
:107AF0008111A9CF10930D0110920E0103EC22E128
:107B00004FE06FEF80E006D261E08FE02AD148E0DD
:107B100050E06BE171E0CE0101963CD28D819E81F7
:107B200024E0880F991F2A95E1F7B8D098878F83B2
:107B300088E0FE013196ADE0B1E001900D928A95AA
:107B4000E1F7B0921601A092150104EC22E540E0A5
:107B50006FEF80E0DFD163E081E003D1882309F497
:107B600078C088E0E3E3F1E0DE01199601900D9220
:107B70008A95E1F7E0903701F0903801E114F104C3
:107B800059F58091390190913A018A379A4D09F05F
:107B900020CF80913301813079F4E12CF12C6FEF0B
:107BA000C70117D2F999FECF2FEFE21AF20AE114BA
:107BB00084E0F806A1F70DCF823029F460913501F9
:107BC00080E090E007C0833009F003CF6091350179
:107BD00081E090E0FED1FDCE48E050E0BE01675F5D
:107BE0007F4FCE010196C1D1892B99F1E0E8EE16C5
:107BF000E7E0FE0670F588E0FE013996DE01119699
:107C000001900D928A95E1F7D886CF8248E050E046
:107C10006BE171E0CE010196CDD16D847E844BCFB6
:107C20008D859E8534E0880F991F3A95E1F736D00F
:107C30002F8538898217930721F01E861D86188AA2
:107C40001F8648E050E06BE171E0CE010996B2D1A9
:107C5000C0CE8D819E8124E0880F991F2A95E1F77F
:107C60001DD02F8138858217930709F0B2CE1CBC36
:107C7000A895F4010995ADCE23E0FC0127BFE89556
:107C800007B600FCFDCF25E0FC0127BFE89507B64D
:107C900000FCFDCF81E187BFE8950895AC01E0E0ED
:107CA000F0E08FEF9FEF41155105B1F0259182274C
:107CB00068E0DC01B695A7959C01217033273195CA
:107CC000219531092170307AC9018A279B2761509B
:107CD00081F741505109E7CF08952A988EBD0DB420
:107CE00007FEFDCF8EB59FEF4150D0F0222369F003
:107CF0009EBD0DB407FEFDCF8EB561157105A1F3D4
:107D0000DB018C936F5F7F4FEFCFFB013196DB017F
:107D10008C918EBD0DB407FEFDCF8EB5BF01E4CFB3
:107D20002A9A089520E0D9CFCF93DF931F92CDB741
:107D3000DEB7698320E041E0BE016F5F7F4FCDDF9A
:107D40000F90DF91CF91089540E060E070E082EE07
:107D5000E9DF40E060E070E081EEE4DF60E787E2C9
:107D6000E3CFEF92FF920F931F93CF93DF93F82E01
:107D7000D62F80E0EE24EA94DD2309F4A1C081111E
:107D80009EC0A895C0910901C695C695C695C95FC4
:107D900010912A0129986EE080E2C6DFD5DF1093AA
:107DA000000145E060E071E08AE2BCDF45E060E0B0
:107DB00071E080E3B7DF4C2F66E071E080EAB2DF6C
:107DC000299A2A98EEBC0DB407FEFDCF8EB52A9AEB
:107DD000982F9073B1F3299884FF05C040E060E0CC
:107DE00070E081EE9FDF6FE080E29EDF6091050131
:107DF0008AE29ADFA9DF299A0FEF1FEFA89521E009
:107E000041E060E070E087E168DF80FF02C04FEF93
:107E100044C021E041E060E070E080E65EDF813256
:107E200030F040E060E070E082EE7CDF80E021E056
:107E3000482F6CE271E081E650DF86DF90912E01E1
:107E4000809129019813E3CF409131018091300155
:107E50008770833011F5483001F5509128018091E9
:107E60002D01581303C091E090934D01909133017F
:107E7000692F70E020912B0130E021503109621709
:107E8000730724F420914D01222311F0581305C0EB
:107E90009F5F90932B0180932A0191E04F1190E016
:107EA00085EA8A95F1F700000150110911F4892F34
:107EB00004C0992309F4A2CF81E0D1505DCF81E0C5
:107EC000DF91CF911F910F91FF90EF900895E0E621
:107ED000F0E098E19083808308959091C00095FF31
:107EE000FCCF8093C60008958091C00087FFFCCF2F
:107EF0008091C00084FD01C0A8958091C6000895BE
:107F0000F3DF84E1EACFCF93C82FEEDFC150E9F76A
:107F1000CF91F6CF0F9390912901E6E0F1E09183A4
:107F20009083828366834583048323830F9108951E
:107F3000FC0188279927E89421912032E9F3293020
:107F400010F02E30C8F32B3239F02D3231F4689412
:107F500003C018D0820F911D219120532A30C8F3FD
:107F60001EF4909581959F4F0895FB01DC0104C09C
:107F70008D910190801921F441505040C8F7881B21
:107F8000990B08957AE0979F902D879F802D910DF2
:107F900011240895DC01CB01FC01F999FECF06C044
:107FA000F2BDE1BDF89A319600B40D9241505040B7
:107FB000B8F70895DC01A40FB51F4150504040F0C0
:107FC000CB01840F951F2E9105D041505040D8F71A
:107FD0000895262FF999FECF92BD81BDF89A019799
:107FE00000B4021639F01FBA20BD0FB6F894FA9A01
:107FF000F99A0FBE0895FFFCE1A8A8FFFFFFFFFF5D
:00000001FF
