:100000000C94D7030C94FF030C94FF030C945E0A2A
:100010000C945E0A0C945E0A0C94FF030C94FF038C
:100020000C94FF030C94FF030C94FF030C94FF0348
:100030000C94FF030C94FF030C94FF030C94FF0338
:100040000C9491100C94FF030C94250F0C94FF0E4C
:100050000C94FF030C94FF030C94FF030C94FF0318
:100060000C94FF030C94FF035761726E696E673A3C
:1000700020556E737570706F727465642066697256
:100080006D77617265000D0A0053444B20766572EE
:1000900073696F6E3A0041542B474D520041542B07
:1000A0004357444843503D312C310041542B435772
:1000B0004155544F434F4E4E3D300041542B434920
:1000C0005044494E464F3D310041542B4349504D19
:1000D00055583D310041542B43574D4F44453D3118
:1000E00000415445300041542B52535400496E692D
:1000F00074696C697A6174696F6E20737563636586
:10010000737366756C202D0043616E6E6F74206989
:100110006E697469616C697A6520455350206D6F12
:1001200064756C6500415400496E697469616C695D
:100130007A696E6720455350206D6F64756C650059
:100140000D0A005354415455533A0041542B43492E
:100150005053544154555300436F6E6E656374653C
:100160006420746F004661696C656420746F20635D
:100170006F6E6E656374656420746F0041542B4329
:10018000574A41505F4355523D222573222C222568
:1001900073220000000000003E5B4F5B3E3E6B4F51
:1001A0006B3E1C3E7C3E1C183C7E3C181C577D5709
:1001B0001C1C5E7F5E1C00183C1800FFE7C3E7FFB5
:1001C0000018241800FFE7DBE7FF30483A060E2648
:1001D00029792926407F050507407F05253F5A3CA0
:1001E000E73C5A7F3E1C1C08081C1C3E7F14227FE3
:1001F00022145F5F005F5F06097F017F00668995BB
:100200006A606060606094A2FFA29408047E0408A3
:1002100010207E201008082A1C08081C2A08081E26
:10022000101010100C1E0C1E0C30383E3830060E0C
:100230003E0E06000000000000005F000000070006
:100240000700147F147F14242A7F2A1223130864C2
:100250006236495620500008070300001C22410066
:100260000041221C002A1C7F1C2A08083E080800A6
:100270008070300008080808080000606000201046
:100280000804023E5149453E00427F400072494900
:1002900049462141494D331814127F1027454545E1
:1002A000393C4A4949314121110907364949493602
:1002B000464949291E000014000000403400000097
:1002C00008142241141414141400412214080201C9
:1002D0005909063E415D594E7C1211127C7F4949F5
:1002E00049363E414141227F4141413E7F49494992
:1002F000417F090909013E414151737F0808087F88
:1003000000417F41002040413F017F081422417F8E
:10031000404040407F021C027F7F0408107F3E4126
:1003200041413E7F090909063E4151215E7F09197D
:100330002946264949493203017F01033F40404095
:100340003F1F2040201F3F4038403F631408146384
:1003500003047804036159494D43007F4141410240
:1003600004081020004141417F0402010204404082
:10037000404040000307080020545478407F284440
:1003800044383844444428384444287F385454542A
:100390001800087E090218A4A49C787F0804047839
:1003A00000447D40002040403D007F102844000074
:1003B000417F40007C047804787C08040478384449
:1003C000444438FC1824241818242418FC7C0804FD
:1003D0000408485454542404043F44243C4040201E
:1003E0007C1C2040201C3C4030403C4428102844C9
:1003F0004C9090907C4464544C440008364100007A
:1004000000770000004136080002010204023C2689
:1004100023263C1EA1A161123A4040207A38545450
:1004200055592155557941225454784221555478D3
:100430004020545579400C1E527212395555555969
:10044000395454545939555454580000457C41008E
:1004500002457D420001457C407D1211127DF0284D
:100460002528F07C545545002054547C547C0A09BE
:100470007F4932494949323A4444443A324A484829
:10048000303A4141217A3A42402078009DA0A07D37
:100490003D4242423D3D4040403D3C24FF242448F3
:1004A0007E4943662B2FFC2F2BFF0929F620C0889D
:1004B0007E090320545479410000447D413048486E
:1004C0004A32384040227A007A0A0A727D0D193188
:1004D0007D2629292F28262929292630484D4020E4
:1004E000380808080808080808382F10C8ACBA2FC0
:1004F000102834FA00007B000008142A1422221469
:100500002A14085500550055AA55AA55AAFF55FFAB
:1005100055FF000000FF00101010FF00141414FF1E
:10052000001010FF00FF1010F010F0141414FC0065
:100530001414F700FF0000FF00FF1414F404FC146F
:100540001417101F10101F101F1414141F00101068
:1005500010F0000000001F101010101F10101010DD
:10056000F010000000FF101010101010101010FFFD
:1005700010000000FF140000FF00FF00001F101714
:100580000000FC04F414141710171414F404F400FD
:1005900000FF00F714141414141414F700F71414C3
:1005A00014171410101F101F141414F4141010F04A
:1005B00010F000001F101F0000001F14000000FCBE
:1005C000140000F010F01010FF10FF141414FF14AA
:1005D0001010101F00000000F010FFFFFFFFFFF0E1
:1005E000F0F0F0F0FFFFFF0000000000FFFF0F0F32
:1005F0000F0F0F3844443844FC4A4A4A347E020202
:100600000606027E027E0263554941633844443C3B
:1006100004407E201E2006027E020299A5E7A599CD
:100620001C2A492A1C4C7201724C304A4D4D303004
:1006300048784830BC625A463D3E494949007E01EF
:1006400001017E2A2A2A2A2A44445F444440514A0E
:10065000444040444A51400000FF0103E080FF0055
:100660000008086B6B083612362436060F090F0691
:10067000000018180000001010003040FF010100B9
:100680001F01011E00191D1712003C3C3C3C0000DC
:1006900000000041542B43495053544152543D25CE
:1006A000642C22554450222C222573222C302C25D8
:1006B000752C320044617461207061636B65742035
:1006C00073656E64206572726F722028322900444F
:1006D000617461207061636B65742073656E642062
:1006E0006572726F72202831290041542B434950A2
:1006F00053454E443D25642C25752C222573222C10
:1007000025750054494D454F55543A0054616720B2
:10071000434C4F534544206E6F7420666F756E6472
:1007200000456E6420746167206E6F7420666F757B
:100730006E64004E6F2074616720666F756E640092
:100740003E3E3E2054494D454F5554203E3E3E00CE
:100750000000000800020100000304070000000080
:100760000000000000000000250028002B00000011
:1007700000002300260029000000000024002700BC
:100780002A00010204081020408001020408102001
:1007900001020408102004040404040404040202F6
:1007A00002020202030303030303F320E9201124DE
:1007B0001FBECFEFD8E0DEBFCDBF12E0A0E0B1E0BA
:1007C000EEECF2E502C005900D92A633B107D9F721
:1007D00024E0A6E3B2E001C01D92A53DB207E1F717
:1007E00013E0C6EDD3E004C02197FE010E947423FC
:1007F000C53DD107C9F70E94BC180C945A290C9426
:100800000000FC0124852F3F11F02FEF248708956D
:10081000DC01ED91FC91008CF18DE02D099420918B
:100820003802309139022817390771F49091360255
:1008300080913702981741F0E0913602F0E0E45AD7
:10084000FD4F808190E008958FEF9FEF0895089508
:100850001F93CF93DF93DC015C962D913C915D97C4
:100860002115310539F481E090E013969C938E9325
:1008700012973DC05196ED91FC91529750969C91E4
:100880005097892F80951FB75E964C915E9741FBDC
:10089000772770F941FD6095F8944081772311F036
:1008A000492B01C048234083E9012197F1F748E033
:1008B000508160FF02C0592B01C058235083E901C9
:1008C0002197F1F76695415099F7772321F09081B0
:1008D0008923808303C08081982B90831FBF5C96FF
:1008E0008D919C915D970197F1F721E030E0C9016E
:1008F000DF91CF911F9108952091380230913902F4
:100900002817390771F4809137022091360290E060
:10091000805C9F4F821B910960E470E00E944C2331
:10092000089580E090E008952091380230913902D6
:1009300028173907B9F49091360280913702981739
:1009400089F0E0913602F0E0E45AFD4F8081209179
:10095000360230E02F5F3F4F2F733327209336024C
:1009600090E008958FEF9FEF0895CF92DF92EF927E
:10097000FF920F931F93CF93DF93FC016901342FF4
:100980008589882391F0823020F090859150961BC4
:10099000692F9FEF980F923018F432853150341B35
:1009A00080FF03C0862F632F382F67FD79C0862F05
:1009B000062E000C990BC481D5818C179D070CF075
:1009C0006FC0032F10E046815781041715070CF004
:1009D00067C0568D23E0959587952A95E1F743E00A
:1009E000159507954A95E1F7509F7001519FF00CBE
:1009F0001124078D10A1800F911F8E0D9F1DDC010A
:100A00002C91462F4770377081A192A1820F911DC2
:100A1000DC018C91823018F097E0941B492F9FEFF6
:100A2000980F923018F497E0931B392F80FF03C082
:100A3000842F432F382F822F652F0E944023859FBC
:100A400020191124B8E02B9F400D112498E0899FB4
:100A5000300D1124632F70E083E0759567958A95BA
:100A6000E1F7C69FC001C79F900DD69F900D11243E
:100A7000840F911D47FD9A95038CF48DE02DE80FAE
:100A8000F91F377081E090E001C0880F3A95EAF7CE
:100A90002081CD2811F0822B02C080958223808393
:100AA000DF91CF911F910F91FF90EF90DF90CF904A
:100AB00008950895EF92FF920F931F93DC01ED913B
:100AC000FC9111971A960D911C911B9718962D91D8
:100AD0003C9119970684F785E02D7B0140E050E0BA
:100AE00060E070E009951F910F91FF90EF900895DD
:100AF0006F927F928F929F92AF92BF92CF92DF922E
:100B0000EF92FF920F931F93CF93DF936C015A01E3
:100B10004801EB013B01620E731EC615D70574F444
:100B2000D601ED91FC910084F185E02D87019401BF
:100B3000A501BE01C60109952196EFCFDF91CF91A6
:100B40001F910F91FF90EF90DF90CF90BF90AF90EB
:100B50009F908F907F906F900895EF92FF920F93E8
:100B60001F93DC01ED91FC91260F371F21503109B5
:100B70000680F781E02D78018A0109951F910F9178
:100B8000FF90EF900895EF92FF920F931F937801DB
:100B9000DC01ED91FC91240F351F890101501109F1
:100BA0000680F781E02D9B0109951F910F91FF9021
:100BB000EF9008956F927F928F929F92AF92BF9223
:100BC000CF92DF92EF92FF920F931F93CF93DF9319
:100BD000EC014B015A0169013801E881F981028475
:100BE000F385E02D87010995E881F981A501460D7E
:100BF000571D415051090284F385E02D9601B4013F
:100C0000CE010995E881F9810084F185E02D9301F9
:100C1000A501B401CE010995E881F981C80CD91C60
:100C2000B601615071090084F185E02D9301A501A1
:100C3000CE010995DF91CF911F910F91FF90EF9019
:100C4000DF90CF90BF90AF909F908F907F906F90EC
:100C500008952F923F924F925F926F927F928F9260
:100C60009F92AF92BF92CF92DF92EF92FF920F933B
:100C70001F93CF93DF9300D01F92CDB7DEB74C0107
:100C80007B836A836A01590117019801241B350B84
:100C900037FF03C0319521953109C5014A815B8138
:100CA000841B950B97FF03C091958195910951E0A5
:100CB00059838217930714F019820BC09A2D8B2D3C
:100CC0005801092F182F9A818B81DB82CA82C92E85
:100CD000D82E8A819B81A816B9065CF49C2D8D2D97
:100CE0006801092F182F9A818B81BB82AA82A92EB5
:100CF000B82E2501AA81BB814A1A5B0A38016C18FB
:100D00007D0877FE03C0719461947108720157FEEB
:100D100003C0BFEFEB1AFB0AF594E794C016D106A7
:100D20001CF00FEF1FEF1FC001E010E01CC0D4014A
:100D3000ED91FC91B9810480F581E02D9101BB23F7
:100D4000C1F04A815B81B601C4010995E618F70834
:100D5000F7FE04C0C00ED11EE40CF51CEA81FB8135
:100D60003196FB83EA834A815B81A416B506FCF6C3
:100D700004C0A6016A817B81E7CF0F900F900F908E
:100D8000DF91CF911F910F91FF90EF90DF90CF9067
:100D9000BF90AF909F908F907F906F905F904F909B
:100DA0003F902F900895CF93DF93FC0124852F3F30
:100DB00079F4A1E0B1E080E090E0CD91DD91219661
:100DC00011F4282F04C0019684309105B1F72487CF
:100DD000C485CF3F91F0508B4787CF0141960E9449
:100DE00086258C2F90E0FC01EE0FFF1FEF5FFE4F7A
:100DF0009183808381E090E002C080E090E0DF9109
:100E0000CF9108958F929F92AF92BF92CF92DF922F
:100E1000FF920F931F93CF93DF93DC011C96FC90FE
:100E2000BFEFFB1609F444C18091B8029091B9025A
:100E3000A091BA02B091BB02181619061A061B0639
:100E40004CF42091BC022F1511F0211103C0382F52
:100E5000292F2AC180913A0390913B03DC01ED9147
:100E6000FC910480F581E02D0995892B19F430E07F
:100E700020E01AC100913A0310913B03C0E0D0E09A
:100E80000E94FD0FF8016087718782879387D801E0
:100E9000ED91FC910680F781E02DC801099597FD41
:100EA0000BC0FE01EA51FE4F2081022E000C330BD5
:100EB00082179307D1F44CC00E94FD0FF801808483
:100EC0009184A284B384DC01CB0188199909AA0911
:100ED000BB0984809580A680B78088159905AA05EE
:100EE000BB05A8F28FEF9FEF3AC0209749F267EE5B
:100EF00071E09E0121503109F901EA51FE4F408114
:100F0000042E000C550B84179507F1F421153105BB
:100F100009F4B6CFE6EEF1E040E050E0B1906B01AD
:100F2000C40ED51ED601DC90BD1441F04217530704
:100F300009F4A6CF6F5F7F4FE901DBCF4F5F5F4FB3
:100F40004217530758F3F2CF2115310599F796CF81
:100F50002196C530D10509F093CF80E090E0892B30
:100F600009F085CF80913A0390913B030E943C1693
:100F70006093BC0280913A0390913B03DC01ED91B8
:100F8000FC910680F781E02D099580913A039091BC
:100F90003B030E943C166093B8027093B9028093A1
:100FA000BA029093BB0280913A0390913B03DC011B
:100FB000ED91FC910680F781E02D099580913A032F
:100FC00090913B030E943C166093BD0280913A03CE
:100FD00090913B03DC01ED91FC910680F781E02DBF
:100FE000099580913A0390913B030E943C166093CF
:100FF000BE0280913A0390913B03DC01ED91FC919C
:101000000680F781E02D099580913A0390913B038A
:101010000E943C166093BF0280913A0390913B037B
:10102000DC01ED91FC910680F781E02D099580911E
:101030003A0390913B030E943C166093C00280915A
:101040003A0390913B03DC01ED91FC910680F7811E
:10105000E02D099580913A0390913B03DC01ED91DD
:10106000FC910680F781E02D099580913A039091DB
:101070003B030E943C167093C2026093C1028091B0
:101080003A0390913B03DC01ED91FC910680F781DE
:10109000E02D09958091BC028F1511F0F110E7CE7B
:1010A0003091B8022091B902832F922F97FF02C08E
:1010B00080E090E0DF91CF911F910F91FF90DF9042
:1010C000CF90BF90AF909F908F900895EF92FF9236
:1010D0000F931F93CF93DF93E1E0F1E0C0E0D0E006
:1010E000219131912F3F3F4F51F5E72EF62E8C0184
:1010F0007F936F9387EC91E09F938F93DF93CF93D0
:1011000083E18F9388E88F9383E996E09F938F9391
:101110000E948E14FE01EE0FFF1FE055FD4FF0827E
:10112000E182F801C487F586E6868DB79EB70A96F8
:101130000FB6F8949EBF0FBE8DBF81E005C021960B
:10114000C430D10569F680E0DF91CF911F910F91F6
:10115000FF90EF900895FC01458D50E0672B19F446
:1011600060E070E002C06FEF70E0FC01838D948D51
:101170000C947F256093AC027093AD028093AE0215
:101180009093AF02DC01CB01845D9E4FAF4FBF4F08
:101190008093A8029093A902A093AA02B093AB02F5
:1011A00082E090E09093A7028093A6020E94FD0F38
:1011B0006093A2027093A3028093A4029093A5026D
:1011C0000895CF92DF92EF92FF920F931F930E94A8
:1011D000FD0FC090A202D090A302E090A402F09074
:1011E000A5028B019C010C191D092E093F09809154
:1011F000AC029091AD02A091AE02B091AF02083E58
:10120000134021053105D0F00196A11DB11D809339
:10121000AC029093AD02A093AE02B093AF02B701BF
:10122000A60148515C4F6F4F7F4F4093A2025093ED
:10123000A3026093A4027093A502C9CF4091A802B3
:101240005091A9026091AA027091AB028417950790
:10125000A607B70788F1E091A002F091A1023097AC
:1012600059F10995611571058105910519F00E94E3
:10127000BA0822C08091AC029091AD02A091AE025A
:10128000B091AF02845D9E4FAF4FBF4F8093A802D5
:101290009093A902A093AA02B093AB0281E090E0E0
:1012A0002091A6023091A702232B11F480E090E058
:1012B0009093A7028093A6026091AC027091AD0258
:1012C0008091AE029091AF021F910F91FF90EF902D
:1012D000DF90CF9008954F925F926F927F928F929E
:1012E0009F92AF92BF92CF92DF92EF92FF920F93B5
:1012F0001F93CF93DF934B015C0180919C029091EF
:101300009D02A0919E02B0919F0288169906AA069E
:10131000BB0609F4C2C08CE3C82ED12CE12CF12C01
:10132000C501B401A70196010E94E72860933A0223
:10133000CA01B901A70196010E94E72860933B0208
:10134000CA01B90128E130E040E050E00E94E728FE
:1013500069017A0160933C02CA01B9016C5F7F4F59
:101360008F4F9F4F27E030E040E050E00E94E72899
:101370006F5F60933D02412C512C320140E004E646
:1013800010E0C0E9D1E0242F30E02E54384FF901AD
:10139000E370FF27309789F4C901B8010E944C23FC
:1013A000892B31F4C901BE010E944C23892B29F4F9
:1013B0008EE691E0A0E0B0E004C08DE691E0A0E010
:1013C000B0E0480E591E6A1E7B1ED301C201AA2737
:1013D000BB27C816D906EA06FB0610F04F5FD3CF2D
:1013E00040934002309799F4C90164E670E00E948E
:1013F0004C23892B39F4C90160E971E00E944C2328
:10140000892B29F48EE691E0A0E0B0E004C08DE6DF
:1014100091E0A0E0B0E0481A590A6A0A7B0AC418B1
:10142000D508E608F708C90164E670E00E944C237D
:10143000EC01C90160E971E00E944C23A3E1B1E035
:1014400020E0213039F4309749F4209729F40097AF
:1014500029F402C04C9103C04DE101C04CE150E0C1
:1014600060E070E0C416D506E606F70640F0C41A40
:10147000D50AE60AF70A2F5F11962C3011F72F5F75
:1014800020933F02C394C0923E0280929C029092AD
:101490009D02A0929E02B0929F02DF91CF911F9178
:1014A0000F91FF90EF90DF90CF90BF90AF909F9003
:1014B0008F907F906F905F904F9008951F920F9242
:1014C0000FB60F9211242F933F934F935F936F9317
:1014D0007F938F939F93AF93BF93EF93FF93E0918D
:1014E0003802F0913902309709F451C0968DA685E3
:1014F000B785858591FF04C09C91892329F447C055
:101500009C91892309F043C0A389B4899C91858962
:10151000809589238C93868997890197F1F7608D4F
:10152000718DA685B785558538E020E0CB01019700
:10153000F1F7822F90E095958795282F4C914523C0
:1015400009F02068315091F7868D81FD20958091BA
:10155000370290E001968F73992730913602381741
:1015600049F0A0913702B0E0A45ABD4F2C9380936C
:10157000370203C0868D8160868F828D938D01979F
:10158000F1F7A389B4899C918589892B8C93FF916C
:10159000EF91BF91AF919F918F917F916F915F91EB
:1015A0004F913F912F910F900FBE0F901F90189564
:1015B000E0913802F0913902E817F90769F4A3893C
:1015C000B4899C918589809589238C9310923902E6
:1015D0001092380281E0089580E00895EF92FF9222
:1015E0001F93CF93DF931F92CDB7DEB77C01162FE9
:1015F00060E0DC015A968C9149830E94570F8FEF6F
:10160000810FF701958D980F498198501EBD0000FC
:101610000DB407FEFDCF2EB5193048F4D7015B9607
:10162000ED91FC915C97E90FF11D208101C0242F01
:101630002EBD00000DB407FEFDCF2EB5891728F38F
:1016400061E0F701828D0F90DF91CF911F91FF90A4
:10165000EF900C94570F462F6AE00C94EE0A2F92ED
:101660003F924F925F926F927F928F929F92AF9232
:10167000BF92CF92DF92EF92FF920F931F93CF937F
:10168000DF93CDB7DEB767970FB6F894DEBF0FBE16
:10169000CDBF4C015A8349831F830E83FD82EC82A8
:1016A000CB82DC0158964D915C91599741155105BB
:1016B00009F0A5C018968D919C9119976817790724
:1016C0000CF057C11A968D919C911B97E981FA8174
:1016D000E817F9070CF04DC1D12CCB013B81F6E0A6
:1016E0003F9F800D911D1124181619060CF041C161
:1016F000C60133E0880F991F3A95E1F749815A8175
:10170000840F951F181619060CF033C157968C914B
:10171000811103C0203B08F02F5F55E0259F900109
:1017200011247D876C875B01212CC901861B970BD7
:1017300099878887A981BA811896BB87AA87B5E05F
:101740002B1641F0E885F985EA0DFB1DED56FE4F9D
:10175000349001C0312C69807A80230130FE12C0A0
:10176000D401ED91FC91BB81B13031F40480F5815D
:10177000E02D2E813F8118C00684F785E02DEE8094
:10178000FF801CC0EC81FD812E813F81E217F307B1
:10179000E1F0D401ED91FC91BB81B13051F40480B2
:1017A000F581E02D2C813D81A301B501C40109958E
:1017B0000CC00684F785E02DEC80FD808601960143
:1017C000A2016C857D85C40109953694EFEF6E1AF0
:1017D0007E0A4C0C5D1C2A853B856216730609F057
:1017E000BDCF23943FEFA31AB30A4C855D854C0D02
:1017F0005D1D5D874C8756E02512A1CFBAC0FA0166
:1018000034963491329785919491231BA7E02A9FB7
:10181000800D911D1124FA01259134913F872E8767
:10182000FC0145905490FC013296249131966490CD
:101830003196E491FC0135963491319684914B8137
:10184000423050F0A32E032E000CBB08A82F082E08
:10185000000CBB0BB987A887BB81CB2ED12CAC9CCD
:10186000A001AD9C500DBC9C500D1124FA01E60F57
:10187000F71FFD87EC87B12CA12CA32F330FBB0BD7
:10188000AB014A0F5B1F598B488B620F711DFB0127
:10189000EA0FFB1FFB8BEA8B29813A81280F311D50
:1018A00087FD3A953D8B2C8BA61408F062C02A2C3C
:1018B000312C28853985220D331D2C9DC0012D9D8D
:1018C000900D3C9D900D1124A981BA81A80FB91FDC
:1018D000BB87AA87E889F989FF8BEE8B2C853D852C
:1018E0003D832C834C895D89240E351E4E895F898A
:1018F0008A899B8948175907D1F1B1100AC0C201E2
:101900000196EE85FF85E40DF51D74902C0180E8AD
:10191000B82E8B2D8721F1F0D401ED91FC91BB8184
:10192000B13059F40480F581E02D2E813F81A10171
:101930006E897F89C40109950DC00684F785E02D65
:10194000EE80FF80860196014A855B856C817D81F2
:10195000C4010995B694EE89FF893196FF8BEE8B11
:101960002C813D812C0D3D1D3D832C83BFCFA39445
:101970009BCF67960FB6F894DEBF0FBECDBFDF9149
:10198000CF911F910F91FF90EF90DF90CF90BF907C
:10199000AF909F908F907F906F905F904F903F900F
:1019A0002F900895AF92BF92CF92EF92FF920F9334
:1019B0001F93CF93DF93EC01262F888D998D00978D
:1019C00009F042C06A3069F42C898E859F8538E021
:1019D000239F800D911D11249F878E871D861C8655
:1019E000ACC06D3009F4A9C08E898823C1F03C8950
:1019F0008C859D8546E0349F800D911D112448857E
:101A00005985841795075CF01D861C868E859F85F9
:101A1000E8E03E9F800D911D11249F878E87EA8804
:101A2000FB88088919894E855F856C857D85CC8802
:101A3000CE010E942F0B2C898C859D85F6E02F9F6F
:101A4000800D911D112441C06A3079F41D861C86D9
:101A50002C89FC013696E4918E859F852E9F800D02
:101A6000911D11249F878E8768C06D3009F465C071
:101A7000AC014C5F5F4FFA013491631708F45DC00D
:101A80003196E491E61708F458C0FA014491362FD4
:101A9000341BFC013296A590B490F7E03F9FA00C58
:101AA000B11C1124F501329634913196E49133231F
:101AB00011F0E1110DC0F5013496E4912C898C856B
:101AC0009D85E29F800D911D11249D878C8735C0D7
:101AD000F501359644915E89552311F16C89E32F08
:101AE000F0E0E40FF11D47FDFA956E9FD0016F9F66
:101AF000B00D11244C855D854A0F5B1FE885F98583
:101B00004E175F076CF01D861C86FC013696E4912B
:101B10008E859F856E9F800D911D11249F878E87D6
:101B2000EA88FB88088919894E855F856C857D85E3
:101B3000CC88CE010E942F0BBECF81E090E0DF91D8
:101B4000CF911F910F91FF90EF90CF90BF90AF90EA
:101B50000895833081F028F4813099F08230A1F02B
:101B600008958730A9F08830B9F08430D1F480919D
:101B700080008F7D03C0809180008F7780938000EC
:101B8000089584B58F7702C084B58F7D84BD089594
:101B90008091B0008F7703C08091B0008F7D8093DB
:101BA000B0000895CF93DF93282F30E0F901E05B78
:101BB000F84F8491F901EE57F84FD491F901EA56A4
:101BC000F84FC491CC2391F081110E94A90DEC2F04
:101BD000F0E0EE0FFF1FE259F84FA591B491EC91A0
:101BE000ED2381E090E021F480E002C080E090E00D
:101BF000DF91CF9108953FB7F8948091F8029091CA
:101C0000F902A091FA02B091FB0226B5A89B05C08B
:101C10002F3F19F00196A11DB11D3FBFBA2FA92F6B
:101C2000982F8827820F911DA11DB11DBC01CD01E8
:101C300042E0660F771F881F991F4A95D1F70895D4
:101C400081E090E008958091C1029091C2020895D0
:101C500029E731E0FC01318320834091BD0250919E
:101C6000BE026091BF027091C002428353836483BD
:101C7000758308950895DC01ED91FC910480F58150
:101C8000E02D09958FEF9FEF0895DC01ED91FC9118
:101C90000480F581E02D0994CF93DF931F92CDB797
:101CA000DEB76983DC01ED91FC910280F381E02DC8
:101CB00041E050E0BE016F5F7F4F09950F90DF91CB
:101CC000CF9108958F929F92AF92BF92CF92DF9261
:101CD000EF92FF920F931F93CF93DF937C01EB0161
:101CE0006C0182E0C80ED11C4701E5E08E0E911C0C
:101CF00000E010E0F60141916F0150E060E070E01B
:101D00002AE0CE010E9497175C01E881F9810190D9
:101D1000F081E02D6EE2CE0109958A0D9B1D080F22
:101D2000191FC814D90431F7F701458150E060E06C
:101D300070E02AE0CE010E949717800F911FDF917B
:101D4000CF911F910F91FF90EF90DF90CF90BF90B8
:101D5000AF909F908F9008958CE393E00E94B6150A
:101D600021E0892B09F420E0822F08950E9471253B
:101D7000EF92FF920F931F93CF93DF93CDB7DEB710
:101D800064970FB6F894DEBF0FBECDBF8C01FB0188
:101D900085811F928F9384811F928F9383811F92DD
:101DA0008F9382811F928F938CEE91E09F938F93FC
:101DB0009E012F5F3F4F79013F932F934B8B5C8B9D
:101DC0000E949C25D801ED91FC910288F389E02DB9
:101DD0004B895C89B701C80109950FB6F894DEBF3D
:101DE0000FBECDBF64960FB6F894DEBF0FBECDBF59
:101DF000DF91CF911F910F91FF90EF9008951F9267
:101E00000F920FB60F9211242F933F934F935F932E
:101E10006F937F938F939F93AF93BF93EF93FF93B2
:101E20008CE393E00E94E616FF91EF91BF91AF9192
:101E30009F918F917F916F915F914F913F912F91E2
:101E40000F900FBE0F901F9018951F920F920FB614
:101E50000F9211242F938F939F93EF93FF93E09111
:101E60004C03F0914D038081E0915203F0915303B4
:101E700082FD12C09081809155038F5F8F732091F6
:101E80005603821751F0E0915503F0E0E45CFC4FFB
:101E9000958F8093550301C08081FF91EF919F91B1
:101EA0008F912F910F900FBE0F901F9018951F9339
:101EB000CF93DF93282F30E0F901E05BF84F849156
:101EC000F901EE57F84FD491F901EA56F84FC49151
:101ED000CC23C9F0162F81110E94A90DEC2FF0E040
:101EE000EE0FFF1FEC59F84FA591B4918FB7F894FE
:101EF000111105C09C91ED2FE095E92302C0EC91F2
:101F0000ED2BEC938FBFDF91CF911F910895CF936D
:101F1000DF9390E0FC01EE57F84F2491FC01EA5664
:101F2000F84F8491882361F190E0880F991FFC019C
:101F3000E858F84FC591D491FC01EC59F84FA591A0
:101F4000B491611109C09FB7F894888120958223CC
:101F50008883EC912E230BC0623061F49FB7F89414
:101F60003881822F809583238883EC912E2B2C93AC
:101F70009FBF06C08FB7F894E8812E2B28838FBFB0
:101F8000DF91CF9108958F929F92AF92BF92CF929F
:101F9000DF92EF92FF926B017C010E94FB0D4B01DF
:101FA0005C01C114D104E104F104F1F00E94FB0DC5
:101FB000DC01CB0188199909AA09BB09883E934025
:101FC000A105B10570F321E0C21AD108E108F108BA
:101FD00088EE880E83E0981EA11CB11CC114D104A8
:101FE000E104F10419F7DDCFFF90EF90DF90CF907F
:101FF000BF90AF909F908F9008952FB7F894609105
:10200000F4027091F5028091F6029091F7022FBFD1
:1020100008958F929F92AF92BF92CF92DF92EF92EC
:10202000FF920F931F93CF93DF9300D0CDB7DEB70E
:102030007C018A01DC01ED91FC910480F581E02DA9
:1020400069837A83099569817A81892B19F48FEFE5
:102050009FEF58C0F70194858091BC02981350C03F
:102060008091B8029091B902A091BA02B091BB02DE
:102070004801A12CB12C88159905AA05BB050CF4C3
:102080008C016B017B01E00EF11ECE14DF04B1F177
:102090000E94FD0F4B015C0180913A0390913B033C
:1020A000DC01ED91FC910680F781E02D099597FF09
:1020B0000EC00E94FD0FDC01CB0188199909AA0905
:1020C000BB09883E9340A105B10530F3C0CFD601CE
:1020D0008D936D018091B8029091B902A091BA02DE
:1020E000B091BB020197A109B1098093B802909306
:1020F000B902A093BA02B093BB02C7CFC80102C015
:1021000080E090E00F900F90DF91CF911F910F91A1
:10211000FF90EF90DF90CF90BF90AF909F908F9007
:1021200008951F920F920FB60F9211242F933F9391
:102130008F939F93AF93BF938091F4029091F50298
:10214000A091F602B091F7023091F30223E0230F41
:102150002D3720F40196A11DB11D05C026E8230FDF
:102160000296A11DB11D2093F3028093F402909377
:10217000F502A093F602B093F7028091F8029091D5
:10218000F902A091FA02B091FB020196A11DB11DC6
:102190008093F8029093F902A093FA02B093FB02A5
:1021A000BF91AF919F918F913F912F910F900FBE53
:1021B0000F901F90189560E070E083E894E00E9413
:1021C000AB080E94FC1564E670E080E090E00E949D
:1021D000C30F61E070E083E894E00E94AB080E94C6
:1021E000FC1564E670E080E090E00E94C30F60E0C0
:1021F00070E083E894E00E94AB080E94FC1564E65E
:1022000070E080E090E00E94C30F61E070E083E83E
:1022100094E00E94AB080E94FC1564E670E080E048
:1022200090E00E94C30F60E083E894E00E942B0BD3
:1022300060E070E083E894E00C94AB088F929F928A
:10224000AF92BF92CF92DF92EF92FF920F931F93C4
:10225000CF93DF93EC01062F1B82862F0E94D20DB5
:10226000182F8A81181769F00E94FD0F6D8F7E8FDD
:102270008F8F98A31A830E94FD0F698B7A8B8B8BAB
:102280009C8B0E94FD0FC988DA88EB88FC886C154E
:102290007D058E059F0560F4198A1A8A1B8A1C8A9F
:1022A00007C0802F0E94D20D482F2981821318C0A9
:1022B0000E94FD0F6B017C0189899A89AB89BC89D9
:1022C000B701A601481B590B6A0B7B0B8D899E89B0
:1022D000AF89B88D84179507A607B70710F728C0F0
:1022E0009C01332781E090E05881552311F080E074
:1022F00090E028173907D1F48D8D9E8DAF8DB8A150
:1023000046015701881A990AAA0ABB0A89859A8543
:10231000AB85BC8588169906AA06BB0638F09B815A
:102320009F5F9B83CD8EDE8EEF8EF8A24983C0CF58
:10233000888118131EC08A8118131BC00E94FD0FCC
:1023400009891A892B893C89DC01CB01801B910BFF
:10235000A20BB30B898F9A8FAB8FBC8F0D811E811F
:102360002F813885081719072A073B0710F484E6E0
:102370008B838B81823069F028F4813091F4E9A15C
:10238000FAA10CC0833041F0843659F4EFA1F8A5CE
:1023900005C0EBA1FCA102C0EDA1FEA1309709F0A0
:1023A00009958B8190E0DF91CF911F910F91FF9064
:1023B000EF90DF90CF90BF90AF909F908F90089557
:1023C00080913A0390913B03DC01ED91FC910480F4
:1023D000F581E02D09951816190664F480913A03E9
:1023E00090913B03DC01ED91FC910680F781E02D9B
:1023F0000995E6CF08953F924F925F926F927F9238
:102400008F929F92AF92BF92CF92DF92EF92FF9204
:102410000F931F93CF93DF936C015B01342E809158
:10242000DB039091DC039093E0038093DF030E9431
:10243000FD0F2B013C01CFEFDFEF0D2C000CEE0860
:10244000FF080E94FD0FDC01CB0184199509A60944
:10245000B7098C159D05AE05BF0508F05DC0CF3FDF
:10246000FFEFDF0709F058C080913A0390913B03DA
:10247000DC01ED91FC910480F581E02D0995892B1B
:1024800001F380913A0390913B03DC01ED91FC91C3
:102490000680F781E02D0995E091DF03F091E003DC
:1024A00080838091DF039091E00301969093E00395
:1024B0008093DF032091DD033091DE0382179307C1
:1024C00040F08091DB039091DC039093E0038093D4
:1024D000DF03A114B10439F0C5010E940816882356
:1024E00011F0C5E0D0E0332009F4ABCF8FE1882EA6
:1024F00081E0982E00E010E0F401819191914F016C
:102500000E940816811106C00F5F1F4F053011058C
:1025100099F797CFE80195CF0E94FD0FDC01CB0121
:1025200084199509A609B7098C159D05AE05BF0547
:1025300060F067E971E08CE393E00E942C1860E49E
:1025400077E08CE393E00E945218CE01DF91CF91A7
:102550001F910F91FF90EF90DF90CF90BF90AF90C1
:102560009F908F907F906F905F904F903F900895D5
:10257000CF92DF92EF92FF920F931F93CF93DF934F
:102580008C01DC01ED91FC910480F581E02D099531
:10259000892B09F4C2C0F801D4858091BC02D813FC
:1025A000B9C00E94FD0F6B017C0180913A039091AC
:1025B0003B03DC01ED91FC910480F581E02D099550
:1025C000892B09F462C080913A0390913B03DC01AE
:1025D000ED91FC910680F781E02D0995C82F80913F
:1025E000B8029091B902A091BA02B091BB020197D2
:1025F000A109B1098093B8029093B902A093BA02DD
:10260000B093BB02892B8A2B8B2B09F083C065E02A
:1026100070E080E090E00E94C30F80913A039091B7
:102620003B03DC01ED91FC910480F581E02D0995DF
:10263000892B09F46FC080913A0390913B03DC0130
:10264000ED91FC910084F185E02D09952D2F30E06E
:10265000205D3F4F8217930709F05CC040E068EFB0
:1026600071E084EF91E00E94FB11059709F452C0DC
:1026700067E971E08CE393E00E942C186CE077E04E
:102680008CE393E00E94521845C00E94FD0FDC01CC
:10269000CB018C199D09AE09BF09803D9740A1056A
:1026A000B10508F482CF67E971E08CE393E00E9402
:1026B0002C1863E077E08CE393E00E942E186BEB1C
:1026C00071E08CE393E00E942C184091B802509185
:1026D000B9026091BA027091BB0277FF05C08CE32A
:1026E00093E00E94E01705C02AE08CE393E00E948B
:1026F00097176FEF71E08CE393E00E94A718109298
:10270000B8021092B9021092BA021092BB02109253
:10271000BC02C0E08C2F90E002C08FEF9FEFDF91F2
:10272000CF911F910F91FF90EF90DF90CF90089580
:10273000CF92DF92EF92FF920F931F93CF93DF938D
:10274000CDB7DEB7A8970FB6F894DEBF0FBECDBFEA
:10275000FC016B018A0180898F9387858F93CF015C
:1027600041969F938F931F934F9384851F928F93CE
:102770008AEE96E09F938F939E012F5F3F4F7901E2
:102780003F932F930E94F425B70180913A039091D3
:102790003B030E94181840E062E072E088EE93E08C
:1027A0000E94FB110FB6F894DEBF0FBECDBF059798
:1027B00049F067E971E08CE393E00E942C186FEC1C
:1027C00076E01EC080913A0390913B03DC01ED91CD
:1027D000FC910280F381E02DA801B601099541E04A
:1027E00060E070E080ED97E00E94FB11039779F0C4
:1027F00067E971E08CE393E00E942C1864EB76E0CB
:102800008CE393E00E94521880E090E001C0C80180
:10281000A8960FB6F894DEBF0FBECDBFDF91CF9163
:102820001F910F91FF90EF90DF90CF9008950F933D
:102830001F9380E3E3ECF2E0DF011D928A95E9F754
:1028400083EE8093C30286E08093C5028CEE809372
:10285000C60281E38093CF029EE49093D0028093DE
:10286000D10284E38093D2024BE750E06CE173E045
:1028700081EE93E00E94D30640E350E063EC72E007
:1028800081EE93E00E94981381EE93E00E94450E42
:10289000892B09F440C040E350E063EC72E081EE24
:1028A00093E00E9409102091320380E19EE0289F6E
:1028B000B001299F700D1124CB01770FAA0BBB0B20
:1028C0008C019D0100581E472A4A33488091EB0233
:1028D00090E0982F88274091EC02842BA0E0B0E094
:1028E000DC01992788274091ED0250E0542F4427BE
:1028F0006091EE02462B60E070E0842B952BA62BB6
:10290000B72BBC01CD01600F711F821F931F1F9158
:102910000F910C94BA081F910F910895CF93DF93F4
:10292000CDB7DEB7C85CD1090FB6F894DEBF0FBED5
:10293000CDBF9E012F523F4FC353DF4F4881598176
:10294000CD5CD04068EC70E0CE0101960E94172665
:1029500081E00E94E011BE016F5F7F4F80913A03DA
:1029600090913B030E94181841E060E070E0C15371
:10297000DF4F88819981CF5CD0400E94FB11C85302
:10298000DF4F0FB6F894DEBF0FBECDBFDF91CF9102
:1029900008954F925F926F927F928F929F92AF9223
:1029A000BF92CF92DF92EF92FF920F931F93CF933C
:1029B000DF9300D0CDB7DEB74C015A017901380161
:1029C0004DB65EB6CB0169837A830E94C625019617
:1029D0002DB73EB7281B390B0FB6F8943EBF0FBE7C
:1029E0002DBF8DB79EB701966C0169817A810E94D7
:1029F000BF25C5010E94C6250196EDB7FEB7E81BAD
:102A0000F90B0FB6F894FEBF0FBEEDBF0DB71EB7A2
:102A10000F5F1F4FB501C8010E94BF25F70110824B
:102A200081E00E94E011B40180913A0390913B0350
:102A30000E94521841E0B60188EE93E00E94FB111B
:102A40008530910509F049C08091DB039091DC034A
:102A50009093E0038093DF034091D9035091DA0310
:102A60004F5F5F4F60E070E00E947F2541E0B8015A
:102A700084EF91E00E94FB11059731F5A3014150CD
:102A80005109F80101900020E9F73197E01BF10BA3
:102A90006091DB037091DC038091DF039091E00390
:102AA000861B970B8E1B9F0B4817590708F0AC012C
:102AB000C7010E948D2541E060E070E080ED97E065
:102AC0000E94FB1181E018C067E971E08CE393E09C
:102AD0000E942C1861E277E00AC0059760F067E970
:102AE00071E08CE393E00E942C1863E377E08CE3C1
:102AF00093E00E94521880E00FB6F8945EBE0FBEBD
:102B00004DBE0F900F90DF91CF911F910F91FF90CD
:102B1000EF90DF90CF90BF90AF909F908F907F907D
:102B20006F905F904F900895FC01918D828D981762
:102B300061F0828DDF01A80FB11D5D968C91928DA1
:102B40009F5F9F73928F90E008958FEF9FEF08959E
:102B5000FC01918D828D981731F0828DE80FF11D67
:102B6000858D90E008958FEF9FEF0895FC01918D82
:102B7000228D892F90E0805C9F4F821B91098F737B
:102B80009927089580E090E0892B29F00E94AC0EEF
:102B900081110C94000008950F931F93CF93DF933E
:102BA000EC010E94FD0F688779878A879B87E881FF
:102BB000F9810084F185E02DCE01099597FF17C0BA
:102BC0000E94FD0F088519852A853B85DC01CB0114
:102BD000801B910BA20BB30B0C811D812E813F81B9
:102BE00080179107A207B30710F38FEF9FEFDF91D4
:102BF000CF911F910F910895CF93C8E040E06C2FC3
:102C000083E894E00E94EE0AC150C1F7CF91089585
:102C1000FC0101900020E9F731979F01281B390B37
:102C2000E091DF03F091E003E21BF30B4091DB0343
:102C30005091DC03E417F50730F46091D9037091EB
:102C4000DA03E60FF71F280F391F6091DD0370913B
:102C5000DE03DC018217930758F40196BC91A08132
:102C6000BA1308C03196E617F70799F7FA01F1CFC2
:102C700081E0089580E00895AF92BF92CF92DF92F5
:102C8000EF92FF921F93CF93DF9300D000D0CDB788
:102C9000DEB75C01C5010E94CC15FC0197FD0FC099
:102CA0008D32910581F0C0970A9768F0D501ED91BA
:102CB000FC910680F781E02DC5010995EBCF60E01E
:102CC00070E0CB014AC020E030E0A90110E0E13023
:102CD000F105E9F0ED32F105C9F0CF01C0970A978F
:102CE000B0F4AAE0B0E00E9409296F01FF0FEE08DE
:102CF000FF08DC01CB018C0D9D1DAE1DBF1D9C018D
:102D0000AD01205331094109510901C011E0D5013C
:102D1000ED91FC910680F781E02DC50129833A836E
:102D20004B835C830995C5010E94CC15FC01C097BB
:102D300029813A814B815C810A9748F2E130F105A3
:102D400031F2112341F066277727CB01621B730B09
:102D5000840B950B02C0CA01B9010F900F900F9020
:102D60000F90DF91CF911F91FF90EF90DF90CF9068
:102D7000BF90AF900895EF92FF920F931F93CF9360
:102D8000DF931F92CDB7DEB70CEF12E0E12CF12CF0
:102D9000F80161918F01C70169830E94D12869817F
:102DA000681719F0C7010E94D928FFEFEF1AFF0A30
:102DB0008EE3E816F10461F78CEF92E00F90DF915B
:102DC000CF911F910F91FF90EF900895FC01848D9A
:102DD000DF01A80FB11DA35ABF4F2C91848D90E045
:102DE00001968F739927848FA689B7892C93A08920
:102DF000B1898C9180648C93938D848D981306C0D7
:102E00000288F389E02D80818F7D80830895EF9281
:102E1000FF920F931F93CF93DF93EC0181E0888F94
:102E20009B8D8C8D981305C0E889F989808185FD7B
:102E300024C0F62E0B8D10E00F5F1F4F0F7311276C
:102E4000E02E8C8DE8120CC00FB607FCFACFE88993
:102E5000F989808185FFF5CFCE010E94E616F1CF7A
:102E60008B8DFE01E80FF11DE35AFF4FF0820B8FAF
:102E7000EA89FB898081806207C0EE89FF896083CF
:102E8000E889F98980818064808381E090E0DF9126
:102E9000CF911F910F91FF90EF900895CF93DF9303
:102EA000EC01888D8823C9F0EA89FB89808185FD42
:102EB00005C0A889B9898C9186FD0FC00FB607FCA3
:102EC000F5CF808185FFF2CFA889B9898C9185FFE4
:102ED000EDCFCE010E94E616E7CFDF91CF910895A6
:102EE0000F931F93CF93DF93EC0188819981009713
:102EF00029F02A813B812617370788F48B016F5F01
:102F00007F4F0E94A724009761F0998388831B83D9
:102F10000A832C813D81232B11F4FC01108281E076
:102F200001C080E0DF91CF911F910F9108954F92E2
:102F30005F926F927F92EF92FF920F931F93CF93C6
:102F4000DF93CDB7DEB7A1970FB6F894DEBF0FBE03
:102F5000CDBF7C01FA01CB0119A2223008F42AE08E
:102F60008E010F5D1F4F422E512C612C712CBF0121
:102F7000A30192010E94E728F901CA010150110939
:102F80006A3014F4605D01C0695CD8016C93232B36
:102F9000242B252B61F7B801C7010E94A718A19621
:102FA0000FB6F894DEBF0FBECDBFDF91CF911F915A
:102FB0000F91FF90EF907F906F905F904F900895EA
:102FC000CF92DF92EF92FF920F931F93CF93DF93F5
:102FD000EC016A017B01E881F9810190F081E02D2B
:102FE0006DE209958C0144275527BA014C195D09FA
:102FF0006E097F092AE0CE010E949717800F911F6A
:10300000DF91CF911F910F91FF90EF90DF90CF90C4
:103010000895AC01990F660B770B77FF04C083E826
:1030200094E00C94E0172AE083E894E00C9497175E
:103030000F931F93CF93DF93EC010E94A7188C018D
:103040006FEF71E0CE010E94A718800F911FDF91F2
:10305000CF911F910F9108950C94A718EF92FF92B2
:103060000F931F93CF93DF938C017B01C0E0D0E0DF
:10307000F701EC0FFD1F6491662361F0D801ED911B
:10308000FC910190F081E02DC8010995892B11F088
:103090002196EECFCE01DF91CF911F910F91FF903E
:1030A000EF9008950F931F93CF93DF93EC010E944D
:1030B0002E188C016FEF71E0CE010E94A718800FCF
:1030C000911FDF91CF911F910F910895CF93DF93BF
:1030D000EC0181E00E94E011BE0180913A039091E1
:1030E0003B030E94521841E060E070E088EE93E0FC
:1030F000DF91CF910C94FB11CF92DF92EF92FF9270
:103100000F931F93CF93DF936C017A018B01C0E083
:10311000D0E0CE15DF0589F0D8016D918D01D60183
:10312000ED91FC910190F081E02DC6010995892B6C
:1031300011F47E0102C02196ECCFC701DF91CF913F
:103140001F910F91FF90EF90DF90CF900895611540
:10315000710579F0FB0101900020E9F73197AF018B
:10316000461B570BDC01ED91FC910280F381E02DB1
:10317000099480E090E00895CF93DF93CDB7DEB758
:10318000AB970FB6F894DEBF0FBECDBF789484B571
:10319000826084BD84B5816084BD85B5826085BD53
:1031A00085B5816085BD80916E00816080936E00E1
:1031B00010928100809181008260809381008091D3
:1031C0008100816080938100809180008160809384
:1031D00080008091B10084608093B1008091B00044
:1031E00081608093B00080917A00846080937A003F
:1031F00080917A00826080937A0080917A00816069
:1032000080937A0080917A00806880937A0010928F
:10321000C10088E0E9ECF1E0DE01909601900D92AA
:103220008A95E1F785E1E1EDF1E09E012F5F3F4FE7
:103230001901D90101900D928A95E1F72CEFC22E68
:1032400022E0D22E00E010E0C8010E94D128F60151
:1032500081936F010F5F1F4F0E331105A9F760E0D7
:1032600083E894E00E942B0B8091340380934B02FF
:1032700060E083E894E00E942B0BA12CB12CC0905D
:103280008B04D0908C0421E0C21AD108AC14BD0488
:103290001CF560E070E083E894E00E94AB080091C8
:1032A0008D0410918E0401501109EE24E394F12C49
:1032B000950140E050E0B50183E894E00E942906C2
:1032C0000E94FC1562E370E080E090E00E94C30F72
:1032D000FFEFAF1ABF0AD3CF1C141D041CF560E02A
:1032E00070E083E894E00E94AB0800918D04109197
:1032F0008E0401501109EE24E394F12C960140E074
:1033000050E0B60183E894E00E9429060E94FC1573
:1033100069E170E080E090E00E94C30F31E0C31AE1
:10332000D108DACF65E083E894E00E942B0B60E0DF
:1033300070E083E894E00E94AB080E94FC1568EC02
:1033400070E080E090E00E94C30F61E070E083E8ED
:1033500094E00E94AB080E94FC1564E670E080E0F7
:1033600090E00E94C30F60E070E083E894E00E9468
:10337000AB080E94FC1564E670E080E090E00E94DB
:10338000C30F61E070E083E894E00E94AB080E9404
:10339000FC1568EC70E080E090E00E94C30F60E0F4
:1033A00083E894E00E942B0B60E070E083E894E0F7
:1033B0000E94AB080E94FC151092900410928F049A
:1033C000109292041092910463E971E083E894E012
:1033D0000E942C1821E030E046E050E060E170E00F
:1033E00083E894E00E94B5040E94FC1510922B041F
:1033F00010922A0410922904109228041092270493
:10340000109226048DEC90E090932D0480932C0470
:1034100090911C04963108F057C025E530E03093B8
:103420002704209326042BEC30E0309329042093CA
:10343000280420E930E030932B0420932A042091C3
:103440006800983050F031E09E3008F430E081E0C0
:1034500001C0880F3A95EAF701C084E0822B80937F
:103460006800983038F09E3040F0963148F020E007
:1034700030E008C02DE630E005C02BE630E002C0A9
:103480002CE630E03093240420932304983030F469
:1034900081E001C0880F9A95EAF70EC0292F30E02D
:1034A0009E3018F42850310902C02E50310981E0B5
:1034B00001C0880F2A95EAF78093250480912C0497
:1034C00090912D040197F1F780912A0490912B049B
:1034D000892B21F18091380290913902E4E080310A
:1034E0009E07E1F0009711F00E94D80A80912E0407
:1034F0008E7F80932E04109237021092360280E164
:1035000094E09093390280933802E0912304F09183
:103510002404908180912504892B808367E971E0E0
:103520008CE393E00E942C1868E271E08CE393E056
:103530000E94521880E194E090933B0380933A03F9
:1035400085E291E00E946618892B89F067E971E0B5
:103550008CE393E00E942C1868E071E08CE393E028
:103560000E94521860E47FE180E090E057C086EE50
:1035700090E00E94661868EB7BE080E090E00E949B
:10358000C30F80E00E94E01181EE90E00E94661877
:1035900085ED90E00E94661889EC90E00E94661824
:1035A0008BEB90E00E9466188BEA90E00E94661810
:1035B0008DE990E00E9466181092410206E010E04A
:1035C00021E432E046E850E069E870E086E990E006
:1035D0000E94C9148091410267E971E0813321F4AE
:1035E000809142028E32E9F08CE393E00E942C1825
:1035F00068E670E08CE393E00E942E186BEB71E0BC
:103600008CE393E00E942C1861E472E08CE393E079
:103610000E94181860EA7FE080E090E00E94C30FEB
:1036200016C08CE393E00E942C186DEE70E08CE3E2
:1036300093E00E942E186BEB71E08CE393E00E9404
:103640002C1861E472E08CE393E00E9418180AE001
:1036500010E09E012A5E3F4F40E451E063E471E0D8
:103660008BE491E00E94C914882371F0CC24C394A8
:103670008E01005E1F4FFEE49F2EA0E28A2EBCE763
:10368000AB2EB1E0BB2E35C060E070E083E894E083
:103690000E94AB081092900410928F041092920432
:1036A0001092910462EA71E083E894E00E942C1881
:1036B0000E94FC15FFCF8CE393E00E942C1865E676
:1036C00071E08CE393E00E942E186BEB71E08CE3C9
:1036D00093E00E942C18B8018CE393E00E94181824
:1036E00068EE73E080E090E00E94C30F80E00E94EB
:1036F000E01121E030E046E050E061E170E083E875
:1037000094E00E94B5040E94FC15DD24D394C0927D
:1037100047023F922F921F930F939F928F92BF92D7
:10372000AF920E948E140FB6F894DEBF0FBECDBFCD
:1037300067E971E0892B09F0BECF8CE393E00E942A
:103740002C1868E571E08CE393E00E942E186BEB77
:1037500071E08CE393E00E942C18B8018CE393E0B5
:103760000E94181866E579E081EE93E00E946608F1
:1037700021E030E046E050E062E170E083E894E070
:103780000E94B5040E94FC150E9417140E94E108D3
:103790000E946B0980913C0290E090935B028093C1
:1037A0005A020E94E1080E946B0980913B0290E05E
:1037B00090935902809358020E94E1080E946B097D
:1037C00080913A0290E090935702809356020E94B3
:1037D000E1080E946B098091400290E08E54984F5E
:1037E00090935502809354022091580230915902CF
:1037F00030934F0220934E0220915A0230915B0287
:103800003093530220935202209156023091570276
:1038100030934D0220934C029093510280935002BA
:1038200021E030E046E050E063E170E083E894E0BE
:103830000E94B5040E94FC1562E082E00E94870F9E
:1038400010925804D0925904D0925A04E4EF8E2E6C
:1038500099249394A12CB12C80926D0490926E04C3
:10386000A0926F04B092700462E083E00E94870F20
:1038700010922F04D0923004D092310480924404EC
:1038800090924504A0924604B092470462C1C301DD
:10389000B2010E946B09D0903D0231E0D31609F4C9
:1038A00091C1C301B2010E946B0980913D02813038
:1038B00009F4AFC120915402309155028091500219
:1038C000909151022817390709F0CDC10E94DB10F1
:1038D00008EF1FEF680198E0C90ED11C60E070E0AE
:1038E00083E894E00E94AB0880915A0290915B02B9
:1038F0008A3091050CF02AC3E9E0F0E0F0939004DF
:10390000E0938F0410939204009391040E9409188D
:1039100080915A0290915B020A970CF01EC389E0D5
:1039200090E09093900480938F04109392040093FE
:10393000910480915202909153020E94091822E151
:1039400030E03093900420938F04109392040093FE
:10395000910480915802909159020A9734F467ECCF
:1039600071E083E894E00E942C18809158029091B5
:1039700059020E94091882E190E09093900480938C
:103980008F04D0929204C092910480915802909139
:1039900059020A9734F467EC71E083E894E00E94DE
:1039A0002C1880914E0290914F020E9409180E949B
:1039B000FC1560E570E080E090E00E94C30F0F5FAF
:1039C0001F4F09F087CF80915A0290915B0290932C
:1039D0005302809352028091580290915902909321
:1039E0004F0280934E0220915802309159028091EB
:1039F0004E0290914F022817390709F46CC000E07D
:103A000010E060E070E083E894E00E94AB088091F1
:103A10005A0290915B028A3091050CF0A9C2E9E04C
:103A2000F0E0F0939004E0938F04109292041092CF
:103A300091040E94091882E190E090939004809391
:103A40008F04C80108979093920480939104809109
:103A50005802909159020A9734F467EC71E083E8B8
:103A600094E00E942C1880915802909159020E9473
:103A70000918E2E1F0E0F0939004E0938F041093D2
:103A800092040093910480915802909159020A97F0
:103A900034F467EC71E083E894E00E942C18809184
:103AA0004E0290914F020E9409180E94FC1560E599
:103AB00070E080E090E00E94C30F0F5F1F4F08305E
:103AC000110509F09ECF8091580290915902909370
:103AD0004F0280934E0220915602309157028091FE
:103AE0004C0290914D022817390709F048C262E054
:103AF00088E594E00E941E118436C1F460E070E015
:103B000083E894E00E94AB081092900410928F0416
:103B1000109292041092910463E971E083E894E0BA
:103B20000E942C180E94FC150E94171463E08FE27B
:103B300094E00E941E1199278330910509F402C375
:103B40008436910509F433C3019709F4ECC20E944D
:103B5000C2150E94E1082B013C010E946B090091F3
:103B60003C0210E010935B0200935A02C301B201C1
:103B70000E946B0980913B0290E0909359028093E0
:103B80005802C301B2010E946B0980913A0290E091
:103B90009093570280935602C301B2010E946B09B1
:103BA0008091400290E08E54984F909355028093FC
:103BB000540280915202909153020817190709F09C
:103BC00066CE11CFC301B2010E946B0980913F0202
:103BD0008A3009F066CEC301B2010E946B09809160
:103BE0003E0290E049970CF45CCEC301B2010E9402
:103BF0006B0980913E0290E080970CF052CE03302A
:103C0000110509F04ECE80913203823009F049CE81
:103C1000D1C2C301B2010E946B0980913F0283307F
:103C200009F048CEC301B2010E946B0980913E02A7
:103C300090E049970CF43ECEC301B2010E946B099B
:103C400080913E0290E080970CF034CE80915A0231
:103C500090915B02029709F02DCE80913203813062
:103C600009F028CEAEC21F8A1E8A198E188E1B8EAE
:103C70001A8E64E170E0CE0146960E9470172E897C
:103C80003F8981110DC02115310519F0C9010E942C
:103C90000F241F8A1E8A1B8E1A8E198E188E09C039
:103CA00084E190E09B8F8A8F68EA71E0C9010E94ED
:103CB00086250E94E1080E946B098091400290E0F5
:103CC0004AE0B1018E54984F0E94CF25F101019036
:103CD0000020E9F73197E219F3090A8D1B8D30971F
:103CE000A1F00E0F1F1FB801CE0146960E9470175B
:103CF000882359F02E893F898A8D9B8DB101820FCF
:103D0000931F0E9486251B8F0A8F0A8D1B8D075FCC
:103D10001F4FB801CE0146960E947017882361F0AC
:103D20002E893F898A8D9B8D6DEB71E0820F931FE9
:103D30000E9486251B8F0A8F63E083E894E00E942F
:103D40002B0B60E070E083E894E00E94AB0874E025
:103D5000872E912C5FE1A52EB12CC12CD12C850191
:103D600007511109EE24E394F12C9501A601B60147
:103D700083E894E00E94DA050E94FC1566E970E091
:103D800080E090E00E94C30F8FEFC81AD80A92E03B
:103D9000A91AB108E4E0CE16D10409F760E070E09A
:103DA00083E894E00E94AB08F1E08F1A910891F645
:103DB00019A618A680918B0490918C0402976091AB
:103DC0008104709182044A8D5B8D649F9001659F90
:103DD000300D749F300D1124820F931FE8A5F9A5B3
:103DE000E817F90708F067C060E070E083E894E046
:103DF0000E94AB08609181047091820488A599A506
:103E00000E944C235B0180908B0490908C0421E0F5
:103E1000821A9108881A990A20918D0430918E0493
:103E2000C901089797FD0196FC01F595E795FBA759
:103E3000EAA78091810490918204880D991D18163B
:103E4000190654F5B7FC28C08A8D9B8DA816B906B3
:103E5000C8F4EE89FF89309729F410924802E8E40B
:103E6000F2E002C0EA0DFB1DCC24C394E12CF12C3E
:103E700001E010E020814AA55BA5B40183E894E04D
:103E80000E942F0BF1E0AF1AB1088091810490914C
:103E90008204881A990ACDCF0E94FC1568E270E06E
:103EA00080E090E00E94C30F28A539A52F5F3F4F07
:103EB00039A728A77FCF34E0832E912C9FE1A92E2C
:103EC000B12CC12CD12C850107511109EE24E394AA
:103ED000F12C9501A601B60183E894E00E94DA0571
:103EE0000E94FC1566E970E080E090E00E94C30F3C
:103EF000FFEFCF1ADF0A22E0A21AB10834E0C3169E
:103F0000D10409F760E070E083E894E00E94AB0818
:103F100081E0881A910891F660E083E894E00E94BD
:103F20002B0B60E070E083E894E00E94AB080E94F5
:103F3000FC158E899F890E940F24809154029091D4
:103F400055029093510280935002C0CC23E030E0A0
:103F50003093900420938F04D5CCE3E0F0E0F0930D
:103F60009004E0938F04D0929204C0929104E1CC2B
:103F700023E030E03093900420938F0456CD60E02E
:103F800070E083E894E00E94AB0880915A0290911F
:103F90005B028A3091053CF429E030E030939004D4
:103FA00020938F0406C0E3E0F0E0F0939004E093E8
:103FB0008F0410929204109291040E94091822E139
:103FC00030E03093900420938F041092920410926A
:103FD000910480915802909159020A9734F467EC49
:103FE00071E083E894E00E942C188091580290912F
:103FF00059020E94091880914B02823069F118F42D
:10400000813041F070C0833009F445C0843009F438
:1040100060C069C0C301B2010E946B0980913A027D
:1040200090E04E9754F4C301B2010E946B09609175
:104030003A0270E06F5F7F4F0AC0C301B2010E9475
:104040006B0980913A026CE370E0681B710921E012
:1040500030E047E050E043C0809100018823B9F090
:1040600021E030E042E050E060E170E083E894E07D
:104070000E94B50421E030E044E050E060E170E0EF
:1040800083E894E00E94B504109200012CC081E006
:104090008093000128C021E030E045E050E06FE06F
:1040A00070E083E894E00E94B50421E030E046E04F
:1040B00050E06FE070E083E894E00E94B50421E0F6
:1040C00030E045E050E060E170E083E894E00E9479
:1040D000B50421E030E046E050E060E170E083E8C4
:1040E00094E00E94B5040E94FC15809156029091C4
:1040F000570290934D0280934C0280914902909117
:104100004A02019690934A0280934902893097406F
:104110000CF4EDCC0E94171481E090E090934A02D9
:1041200080934902E4CC80914B028F5F853008F088
:1041300081E080934B0280914B02809334030E9474
:10414000BB1605CDC12CD12C80918B0490918C0491
:104150000197C816D9060CF0FACC60E070E083E84D
:1041600094E00E94AB0800918D0410918E040150E0
:10417000110920918B0430918C04215031092C19A4
:104180003D09EE24E394F12C40E050E0B60183E8D1
:1041900094E00E9429060E94FC1560E570E080E032
:1041A00090E00E94C30F8FEFC81AD80ACDCF0E94AB
:1041B000DB10CDCCD09232030E94BB160E941714A4
:1041C00070CB82E0809332030E94BB160E941714CA
:1041D00071CB85E891E0909311048093100480E105
:1041E00094E00C94D80ACF93DF9389E791E0909301
:1041F000A7048093A6041092A8041092A904109218
:10420000AA041092AB0410923F0310923E0348EEB2
:1042100053E060E070E040934003509341036093AB
:104220004203709343032DE231E030933D0320932A
:104230003C0325EC30E0309349032093480324EC01
:1042400030E030934B0320934A0320EC30E030936E
:104250004D0320934C0321EC30E030934F03209327
:104260004E0322EC30E0309351032093500326ECB0
:1042700030E0309353032093520310925503109271
:10428000560310925703109258039093CC048093D6
:10429000CB041092CD041092CE041092CF04109251
:1042A000D004109286041092850420E230E030930E
:1042B00088042093870488E090E090938A04809398
:1042C000890430938C0420938B0490938E04809304
:1042D0008D04109298041092900410928F04109202
:1042E00092041092910481E0809397042FEF3FEFA6
:1042F0003093960420939504309394042093930470
:104300008093990410929A0410929C0410929B043A
:1043100081E691E090938404809383048AE0809303
:104320009D0484E08093A10480E28093A00480E255
:1043300090E00E947A2390939F0480939E0484E0EF
:1043400090E00E947A239093A5048093A40484E0D3
:1043500090E00E947A239093A3048093A20480E0CB
:1043600090E0E091A204F091A304E80FF91F80838C
:10437000E091A404F091A504E80FF91F10820196C2
:104380008430910571F7CFB7F8948091AC04811116
:1043900027C0E0EAF7E08491ECE8F7E09491E82F99
:1043A000F0E0EE0FFF1FE858F84FA591B491EC91A3
:1043B000E92321F461E08AE00E94570F61E08AE07E
:1043C0000E94870F8CB580618CBD8CB580648CBDDC
:1043D00061E08DE00E94870F61E08BE00E94870F13
:1043E0008091AC048F5F8093AC04CFBF61E080917B
:1043F0009D040E94870F60E070E083E894E00E94D3
:10440000AB0840E06FE083E894E00E94EE0A47E0EA
:104410006BE083E894E00E94EE0A40E069E083E804
:1044200094E00E94EE0A41E06CE083E894E00E9490
:10443000EE0A67E083E894E00E942B0B86E090E0B0
:10444000909382048093810410925B04109269041B
:1044500010926A0410926B0410926C0488EE93E040
:10446000A0E0B0E080935D0490935E04A0935F04AD
:10447000B093600442E350E060E070E04093610478
:104480005093620460936304709364041092320446
:10449000109240041092410410924204109243047E
:1044A0008093340490933504A0933604B09337047A
:1044B000409338045093390460933A0470933B045A
:1044C0001092130410921204809314049093150414
:1044D000A0931604B093170485E891E0909311041B
:1044E000809310041092270410922604109229043D
:1044F0001092280410922B0410922A0410922D047A
:1045000010922C0460912E046E7F6D7F60932E04B8
:104510006695617081E0682787E00E94570F61E02F
:1045200087E00E94870FE9E8F7E0E491E093200438
:10453000EDE9F7E0E491F0E0EE0FFF1FEC59F84FE2
:1045400085919491909322048093210460E086E009
:104550000E94870F80912E0481FD04C061E086E0F7
:104560000E94570F86E080931C04E8E8F7E0E4918E
:10457000E0931D04ECE9F7E0E491F0E0EE0FFF1F9B
:10458000E259F84F8591949190931F0480931E04F3
:104590001092E4031092E30388EE93E0A0E0B0E011
:1045A0008093E5039093E603A093E703B093E803B9
:1045B0008DE391E09093E2038093E1038FEF80938A
:1045C000ED03C9E7D1E0D093C604C093C5041092AF
:1045D000C7041092C8041092C9041092CA0480E261
:1045E00090E09093DA038093D90381E290E00E94F7
:1045F0007A239093DC038093DB039C01205E3F4F82
:104600003093DE032093DD039093E0038093DF0378
:1046100021E2FC0111922A95E9F7D093AE04C093F0
:10462000AD041092AF041092B0041092B104109235
:10463000B204D093B404C093B3041092B5041092A2
:10464000B6041092B7041092B804D093BA04C09381
:10465000B9041092BB041092BC041092BD041092D5
:10466000BE04D093C004C093BF041092C104109242
:10467000C2041092C3041092C404DF91CF91089534
:10468000991B79E004C0991F961708F0961B881FA4
:104690007A95C9F78095089597FB072E16F4009434
:1046A00007D077FD09D00E94602307FC05D03EF4B7
:1046B000909581959F4F0895709561957F4F0895CE
:1046C000AA1BBB1B51E107C0AA1FBB1FA617B70738
:1046D00010F0A61BB70B881F991F5A95A9F7809554
:1046E0009095BC01CD010895EE0FFF1F0590F49148
:1046F000E02D0994CF93DF938230910510F482E08E
:1047000090E0E091D304F091D40420E030E0C0E0E8
:10471000D0E0309711F14081518148175907C0F01E
:104720004817590761F482819381209719F09B8380
:104730008A832BC09093D4048093D30426C0211580
:10474000310519F04217530718F49A01BE01DF0131
:10475000EF010280F381E02DDCCF2115310509F155
:10476000281B390B2430310590F412968D919C91C1
:1047700013976115710521F0FB019383828304C0B7
:104780009093D4048093D304FD01329644C0FD017C
:10479000E20FF31F81939193225031092D933C93A3
:1047A0003AC02091D1043091D204232B41F42091BE
:1047B0000B0130910C013093D2042093D10420914D
:1047C000090130910A012115310541F42DB73EB799
:1047D00040910D0150910E01241B350BE091D10445
:1047E000F091D204E217F307A0F42E1B3F0B281719
:1047F000390778F0AC014E5F5F4F2417350748F05A
:104800004E0F5F1F5093D2044093D1048193919334
:1048100002C0E0E0F0E0CF01DF91CF9108950F9367
:104820001F93CF93DF93009709F48CC0FC0132975C
:10483000138212820091D3041091D4040115110542
:1048400081F420813181820F931F2091D104309116
:10485000D2042817390779F5F093D204E093D104F4
:1048600071C0D80140E050E0AE17BF0750F4129677
:104870002D913C911397AD012115310509F1D90115
:10488000F3CF9D01DA013383228360817181860F2A
:10489000971F8217930769F4EC0128813981260F4D
:1048A000371F2E5F3F4F318320838A819B81938303
:1048B0008283452B29F4F093D404E093D30442C0BF
:1048C0001396FC93EE931297ED01499159919E0135
:1048D000240F351FE217F30771F480819181840F53
:1048E000951F029611969C938E93828193811396C5
:1048F0009C938E931297E0E0F0E0D80112968D9190
:104900009C911397009719F0F8018C01F6CF8D91C7
:104910009C9198012E5F3F4F820F931F2091D104ED
:104920003091D2042817390769F4309729F410928E
:10493000D4041092D30402C0138212821093D204C2
:104940000093D104DF91CF911F910F910895A0E0C2
:10495000B0E0EDEAF4E20C941829EC01009721F4A0
:10496000CB010E947A23B8C0FC01E60FF71F9C011F
:1049700022503109E217F30708F4ACC0D9010D91B8
:104980001C91119706171707B0F00530110508F4B0
:104990009FC0C80104978617970708F499C0025072
:1049A0001109061B170B019311936D937C93CF0193
:1049B0000E940F248DC05B01A01AB10A4C01800E29
:1049C000911EA091D304B091D40440E050E0E12CBA
:1049D000F12C109709F44AC0A815B905D1F56D90CE
:1049E0007C901197630182E0C80ED11CCA14DB04CD
:1049F00080F1A3014A195B096A0182E0C80ED11C4B
:104A00001296BC9012971396AC91B5E0CB16D104D8
:104A100040F0B282A38351834083D9016D937C938C
:104A20000AC00E5F1F4FC301800F911FF9019183D0
:104A30008083EB2DFA2FE114F10431F0D7011396A6
:104A4000FC93EE93129744C0F093D404E093D30404
:104A50003FC08D919C9111974817590708F4AC01FC
:104A60007D0112960D90BC91A02DB3CF8091D10401
:104A70009091D20488159905E1F446175707C8F4B8
:104A80008091090190910A01009741F48DB79EB77A
:104A900040910D0150910E01841B950BE817F90709
:104AA000C8F4F093D204E093D104F90171836083D8
:104AB0000FC0CB010E947A237C01009759F0A80116
:104AC000BE010E947625CE010E940F24C70104C0BA
:104AD000CE0102C080E090E0CDB7DEB7EEE00C94EE
:104AE000342981E090E0F8940C945A29FB01DC0110
:104AF00002C001900D9241505040D8F70895DC015A
:104B000001C06D9341505040E0F70895FB01DC0176
:104B100001900D920020E1F70895FB01DC01415066
:104B2000504048F001900D920020C9F701C01D923D
:104B300041505040E0F70895AEE0B0E0E2EAF5E21F
:104B40000C9422290D891E8986E08C831A8309839F
:104B50008FEF9FE79E838D83AE01475E5F4F6F8926
:104B6000788DCE0101960E9443262F813885F80169
:104B7000E20FF31F10822E96E4E00C943E29FB0115
:104B8000DC0105900D920020E1F70895FC010590ED
:104B90000020E9F7809590958E0F9F1F0895BB2701
:104BA0004A3031F4992322F4BDE2909581959F4FCC
:104BB0000C94DB25BB27FB015527AA27880F991FDB
:104BC000AA1FA41710F0A41B83955051B9F7A05D3C
:104BD000AA3308F0A95DA193009779F7B111B193B9
:104BE0001192CB010C942B28AEE0B0E0EAEFF5E295
:104BF0000C9422290D891E898EE08C831A830983E7
:104C00008FEF9FE79E838D83AE01475E5F4F6F8975
:104C1000788DCE0101960E9443262F813885F801B8
:104C2000E20FF31F10822E96E4E00C943E29AEE0D2
:104C3000B0E0EDE1F6E20C9422298C01CA014EE0CD
:104C40004C831A83098377FF02C060E070E8FB01A0
:104C50003197FE83ED83A901BC01CE0101960E942C
:104C600043264D815E8157FD0AC02F81388542174A
:104C700053070CF49A01F801E20FF31F10822E96ED
:104C8000E4E00C943E29ACE0B0E0E9E4F6E20C94F8
:104C900014297C016B018A01FC0117821682838131
:104CA00081FFBDC1CE0101964C01F7019381F60150
:104CB00093FD859193FF81916F01882309F4ABC126
:104CC000853239F493FD859193FF81916F0185328F
:104CD00029F4B70190E00E943B28E7CF512C312CFA
:104CE00020E02032A0F48B3269F030F4803259F0A9
:104CF000833269F420612CC08D3239F0803339F46D
:104D0000216026C02260246023C0286021C027FDC6
:104D100027C030ED380F3A3078F426FF06C0FAE0AD
:104D20005F9E300D1124532E13C08AE0389E300D43
:104D30001124332E20620CC08E3221F426FD6BC16B
:104D4000206406C08C3611F4206802C0883641F415
:104D5000F60193FD859193FF81916F018111C1CF80
:104D6000982F9F7D9554933028F40C5F1F4FFFE3DD
:104D7000F9830DC0833631F0833771F0833509F044
:104D80005BC022C0F801808189830E5F1F4F4424DD
:104D90004394512C540115C03801F2E06F0E711C80
:104DA000F801A080B18026FF03C0652D70E002C02D
:104DB0006FEF7FEFC5012C870E9420282C01830113
:104DC0002C852F77222E17C03801F2E06F0E711C50
:104DD000F801A080B18026FF03C0652D70E002C0FD
:104DE0006FEF7FEFC5012C870E9415282C012C85C1
:104DF0002068222E830123FC1BC0832D90E04816DF
:104E00005906B0F4B70180E290E00E943B283A9442
:104E1000F4CFF50127FC859127FE81915F01B70151
:104E200090E00E943B2831103A94F1E04F1A51086B
:104E30004114510471F7E5C0843611F0893639F513
:104E4000F80127FF07C060817181828193810C5F27
:104E50001F4F08C060817181072E000C880B990BD1
:104E60000E5F1F4F2F76722E97FF09C09095809589
:104E7000709561957F4F8F4F9F4F2068722E2AE06B
:104E800030E0A4010E947328A82EA81844C08537DA
:104E900029F42F7EB22E2AE030E025C0F22FF97FD0
:104EA000BF2E8F36C1F018F4883579F0B4C0803742
:104EB00019F0883721F0AFC02F2F2061B22EB4FE39
:104EC0000DC08B2D8460B82E09C024FF0AC09F2F0F
:104ED0009660B92E06C028E030E005C020E130E041
:104EE00002C020E132E0F801B7FE07C060817181A5
:104EF000828193810C5F1F4F06C06081718180E0C9
:104F000090E00E5F1F4FA4010E947328A82EA818DE
:104F1000FB2DFF777F2E76FE0BC0372D3E7FA5142D
:104F200050F474FE0AC072FC08C0372D3E7E05C0E6
:104F3000BA2C372D03C0BA2C01C0B52C34FF0DC0DC
:104F4000FE01EA0DF11D8081803311F4397E09C024
:104F500032FF06C0B394B39404C0832F867809F05F
:104F6000B39433FD13C030FF06C05A2CB31418F4A9
:104F7000530C5B18B32CB31468F4B70180E290E0D3
:104F80003C870E943B28B3943C85F5CFB31410F4C2
:104F90003B1801C0312C34FF12C0B70180E390E010
:104FA0003C870E943B283C8532FF17C031FD03C07F
:104FB00088E790E002C088E590E0B7010CC0832F3D
:104FC000867859F031FF02C08BE201C080E237FDE4
:104FD0008DE2B70190E00E943B28A51438F4B70198
:104FE00080E390E00E943B285A94F7CFAA94F40102
:104FF000EA0DF11D8081B70190E00E943B28A110CD
:10500000F5CF332009F451CEB70180E290E00E9441
:105010003B283A94F6CFF7018681978102C08FEF43
:105020009FEF2C96E2E10C943029FC010590615031
:1050300070400110D8F7809590958E0F9F1F0895AE
:10504000FC016150704001900110D8F78095909557
:105050008E0F9F1F0895DC01FC01672F719177234C
:10506000E1F7329704C07C916D9370836291AE1723
:10507000BF07C8F308950F931F93CF93DF93FB01EE
:10508000238121FD03C08FEF9FEF28C022FF16C0B0
:1050900046815781248135814217530744F4A0810A
:1050A000B1819D012F5F3F4F318320838C932681F7
:1050B00037812F5F3F4F3783268310C0EB01092FC5
:1050C000182F0084F185E02D0995892BE1F68E815A
:1050D0009F8101969F838E83812F902FDF91CF91A7
:1050E0001F910F910895FA01AA27283051F120311C
:1050F00081F1E8946F936E7F6E5F7F4F8F4F9F4F6C
:10510000AF4FB1E03ED0B4E03CD0670F781F891FAD
:105110009A1FA11D680F791F8A1F911DA11D6A0F7B
:10512000711D811D911DA11D20D009F468943F912E
:105130002AE0269F11243019305D3193DEF6CF012D
:105140000895462F4770405D4193B3E00FD0C9F7F3
:10515000F6CF462F4F70405D4A3318F0495D31FD60
:105160004052419302D0A9F7EACFB4E0A6959795B3
:10517000879577956795BA95C9F700976105710589
:1051800008959B01AC010A2E0694579547953795D3
:105190002795BA95C9F7620F731F841F951FA01D2D
:1051A0000895F999FECF92BD81BDF89A992780B5EF
:1051B0000895262FF999FECF1FBA92BD81BD20BD5B
:1051C0000FB6F894FA9AF99A0FBE01960895A1E2E3
:1051D0001A2EAA1BBB1BFD010DC0AA1FBB1FEE1F71
:1051E000FF1FA217B307E407F50720F0A21BB30BBC
:1051F000E40BF50B661F771F881F991F1A9469F738
:1052000060957095809590959B01AC01BD01CF0193
:1052100008950E944B29A59F900DB49F900DA49FC7
:10522000800D911D112408952F923F924F925F920D
:105230006F927F928F929F92AF92BF92CF92DF92A6
:10524000EF92FF920F931F93CF93DF93CDB7DEB70B
:10525000CA1BDB0B0FB6F894DEBF0FBECDBF09949F
:105260002A88398848885F846E847D848C849B84F6
:10527000AA84B984C884DF80EE80FD800C811B8104
:10528000AA81B981CE0FD11D0FB6F894DEBF0FBE33
:10529000CDBFED010895A29FB001B39FC001A39FB0
:1052A000700D811D1124911DB29F700D811D11245F
:1052B000911D089513E0C6EDD3E004C0FE010E94E5
:1052C00074232196C73DD107C9F7F894FFCF01FF9A
:1052D000FFFFFFFFFFFFFF0000D50480000100007B
:1052E000001F1C1F1E1F1E1F1F1E1F1E1F04020B40
:1052F0000215021E022A020000000007177C18B6E1
:10530000159415A8154E17000000004C0E981302B6
:1053100007B8123B0E3A0E66080104B80ED30620F9
:105320000E450E09100804280E230E00000000D2BE
:105330000C7C18B5042906C305AD05DA057805AB64
:1053400008590500000000620E00000000B60E00C3
:1053500000000028047C187C0494040F0427040136
:10536000004E5450005B576946694573705D2000DC
:1053700057466F666600537A637A65736C69776522
:10538000676F204E4F5745474F200020524F4B55D7
:1053900020212121003000534B594E4554330061E8
:1053A000316131613161316131613161316131616D
:1053B000316131002B4950442C0025642E25642E88
:1053C00025642E2564002C434C4F5345440D0A00A0
:1053D0003E000D0A4F4B0D0A000D0A4552524F5226
:1053E0000D0A000D0A4641494C0D0A000D0A5345AD
:1053F0004E44204F4B0D0A0020434F4E4E45435420
:105400000D0A0000FFFFFFFFFFFFFFFFFFFFFFFF91
:10541000FFFFFFFFFFFFFFFFFFFFFFFFFFFFFFFF9C
:10542000FFFFFFFFFFFFFFFFFFFFFFFFFFFFFFFF8C
:10543000FFFFFFFFFFFFFFFFFFFFFFFFFFFFFFFF7C
:10544000FFFFFFFFFFFFFFFFFFFFFFFFFFFFFFFF6C
:00000001FF
