:100000000C94DE030C9406040C9406040C94BA06BB
:100010000C94BA060C94BA060C9406040C940604CC
:100020000C9406040C9406040C9406040C94060428
:100030000C9406040C9406040C9406040C94060418
:100040000C940D110C9406040C9400100C94DA0F0F
:100050000C9406040C9406040C9406040C940604F8
:100060000C9406040C9406045F216221652168212A
:100070006B216E2171215761726E696E673A20554E
:100080006E737570706F72746564206669726D77D7
:10009000617265000D0A0053444B207665727369E6
:1000A0006F6E3A0041542B474D520041542B435739
:1000B000444843503D312C310041542B4357415566
:1000C000544F434F4E4E3D300041542B4349504412
:1000D000494E464F3D310041542B4349504D5558F0
:1000E0003D310041542B43574D4F44453D31004174
:1000F0005445300041542B52535400496E69746981
:100100006C697A6174696F6E20737563636573736C
:1001100066756C202D0043616E6E6F7420696E6988
:100120007469616C697A6520455350206D6F647500
:100130006C6500415400496E697469616C697A6943
:100140006E6720455350206D6F64756C65000D0A15
:10015000005354415455533A0041542B4349505392
:10016000544154555300436F6E6E6563746564204B
:10017000746F004661696C656420746F20636F6EF4
:100180006E656374656420746F0041542B43574A55
:1001900041505F4355523D222573222C2225732264
:1001A0000041542B43495053544152543D25642C33
:1001B00022554450222C222573222C302C25752CBC
:1001C000320044617461207061636B6574207365F3
:1001D0006E64206572726F72202832290044617447
:1001E00061207061636B65742073656E6420657255
:1001F000726F72202831290041542B4349505345D6
:100200004E443D25642C25752C222573222C257502
:100210000054494D454F55543A0054616720434CB2
:100220004F534544206E6F7420666F756E640045B1
:100230006E6420746167206E6F7420666F756E64E3
:10024000004E6F2074616720666F756E64003E3EDD
:100250003E2054494D454F5554203E3E3E0000003F
:100260000000003E5B4F5B3E3E6B4F6B3E1C3E7C96
:100270003E1C183C7E3C181C577D571C1C5E7F5E44
:100280001C00183C1800FFE7C3E7FF001824180003
:10029000FFE7DBE7FF30483A060E2629792926409A
:1002A0007F050507407F05253F5A3CE73C5A7F3EC6
:1002B0001C1C08081C1C3E7F14227F22145F5F0058
:1002C0005F5F06097F017F006689956A60606060F4
:1002D0006094A2FFA29408047E040810207E2010DF
:1002E00008082A1C08081C2A08081E101010100CE8
:1002F0001E0C1E0C30383E3830060E3E0E06000036
:1003000000000000005F00000007000700147F14D9
:100310007F14242A7F2A1223130864623649562048
:10032000500008070300001C2241000041221C006D
:100330002A1C7F1C2A08083E08080080703000082C
:1003400008080808000060600020100804023E5100
:1003500049453E00427F4000724949494621414992
:100360004D331814127F1027454545393C4A4949F9
:100370003141211109073649494936464949291E63
:100380000000140000004034000000081422411452
:1003900014141414004122140802015909063E41A4
:1003A0005D594E7C1211127C7F494949363E4141CC
:1003B00041227F4141413E7F494949417F09090925
:1003C000013E414151737F0808087F00417F410091
:1003D0002040413F017F081422417F404040407F40
:1003E000021C027F7F0408107F3E4141413E7F098D
:1003F0000909063E4151215E7F09192946264949CE
:10040000493203017F01033F4040403F1F2040200D
:100410001F3F4038403F631408146303047804030B
:100420006159494D43007F414141020408102000B9
:100430004141417F0402010204404040404000032A
:1004400007080020545478407F28444438384444F6
:100450004428384444287F385454541800087E09EE
:100460000218A4A49C787F0804047800447D40000E
:100470002040403D007F1028440000417F40007C28
:10048000047804787C080404783844444438FC1820
:1004900024241818242418FC7C0804040848545404
:1004A000542404043F44243C4040207C1C20402031
:1004B0001C3C4030403C44281028444C9090907C98
:1004C0004464544C440008364100000077000000AA
:1004D0004136080002010204023C2623263C1EA1EC
:1004E000A161123A4040207A38545455592155554B
:1004F00079412254547842215554784020545579FA
:10050000400C1E527212395555555939545454598C
:1005100039555454580000457C410002457D420045
:1005200001457C407D1211127DF0282528F07C5475
:100530005545002054547C547C0A097F493249496E
:1005400049323A4444443A324A4848303A414121D7
:100550007A3A42402078009DA0A07D3D4242423D33
:100560003D4040403D3C24FF2424487E4943662BC7
:100570002FFC2F2BFF0929F620C0887E0903205469
:100580005479410000447D413048484A3238404067
:10059000227A007A0A0A727D0D19317D2629292FC7
:1005A00028262929292630484D40203808080808DF
:1005B00008080808382F10C8ACBA2F102834FA00E1
:1005C000007B000008142A142222142A1408550063
:1005D000550055AA55AA55AAFF55FF55FF00000022
:1005E000FF00101010FF00141414FF001010FF0083
:1005F000FF1010F010F0141414FC001414F700FF96
:100600000000FF00FF1414F404FC141417101F1052
:10061000101F101F1414141F00101010F000000001
:10062000001F101010101F10101010F0100000000C
:10063000FF101010101010101010FF10000000FF1D
:10064000140000FF00FF00001F10170000FC04F45E
:1006500014141710171414F404F40000FF00F71416
:10066000141414141414F700F7141414171410109D
:100670001F101F141414F4141010F010F000001FB9
:10068000101F0000001F14000000FC140000F010F8
:10069000F01010FF10FF141414FF141010101F009E
:1006A000000000F010FFFFFFFFFFF0F0F0F0F0FFA0
:1006B000FFFF0000000000FFFF0F0F0F0F0F384477
:1006C000443844FC4A4A4A347E02020606027E024C
:1006D0007E0263554941633844443C04407E201EF9
:1006E0002006027E020299A5E7A5991C2A492A1C28
:1006F0004C7201724C304A4D4D303048784830BC15
:10070000625A463D3E494949007E0101017E2A2A3E
:100710002A2A2A44445F444440514A444040444ABF
:1007200051400000FF0103E080FF000008086B6BF0
:10073000083612362436060F090F06000018180076
:1007400000001010003040FF0101001F01011E00D9
:10075000191D1712003C3C3C3C000000000000004A
:100760000008000201000003040700000000000070
:10077000000000000000250028002B000000000001
:1007800023002600290000000000240027002A0082
:100790000102040810204080010204081020010218
:1007A00004081020040404040404040402020202E5
:1007B00002020303030303035E22542211241FBE1B
:1007C000CFEFD8E0DEBFCDBF12E0A0E0B1E0EAEBB2
:1007D000F5E502C005900D92A03CB107D9F725E0E0
:1007E000A0ECB2E001C01D92AD32B207E1F713E018
:1007F000CDEDD3E004C02197FE010E94DF24CC3D63
:10080000D107C9F70E94EB180C94D02A0C94000071
:1008100080912B0390912C03089523EA31E0FC0191
:10082000318320834091270350912803609129034D
:1008300070912A03428353836483758308950895D6
:10084000DC01ED91FC910480F581E02D09958FEF9D
:100850009FEF0895DC01ED91FC910480F581E02D7E
:100860000994CF93DF931F92CDB7DEB76983DC0184
:10087000ED91FC910280F381E02D41E050E0BE015A
:100880006F5F7F4F09950F90DF91CF91089581E0C1
:1008900090E00895FC0124852F3F11F02FEF24876D
:1008A0000895DC01ED91FC91008CF18DE02D09940F
:1008B0008F929F92AF92BF92CF92DF92EF92FF9270
:1008C0000F931F93CF93DF9300D0CDB7DEB77C019A
:1008D0008A01DC01ED91FC910480F581E02D6983B2
:1008E0007A83099569817A81892B19F48FEF9FEFBB
:1008F00058C0F701948580912603981350C08091C9
:10090000220390912303A0912403B0912503480171
:10091000A12CB12C88159905AA05BB050CF48C01F6
:100920006B017B01E00EF11ECE14DF04B1F10E94D9
:1009300001114B015C0180918A0390918B03DC01D2
:10094000ED91FC910680F781E02D099597FF0EC08F
:100950000E940111DC01CB0188199909AA09BB0980
:10096000883E9340A105B10530F3C0CFD6018D93E9
:100970006D018091220390912303A0912403B091F3
:1009800025030197A109B1098093220390932303C2
:10099000A0932403B0932503C7CFC80102C080E011
:1009A00090E00F900F90DF91CF911F910F91FF90EA
:1009B000EF90DF90CF90BF90AF909F908F90089571
:1009C000EF92FF920F931F93CF93DF93CDB7DEB7D4
:1009D00064970FB6F894DEBF0FBECDBF8C01FB014C
:1009E00085811F928F9384811F928F9383811F92A1
:1009F0008F9382811F928F9388E592E09F938F93CC
:100A00009E012F5F3F4F79013F932F934B8B5C8B60
:100A10000E941227D801ED91FC910288F389E02D04
:100A20004B895C89B701C80109950FB6F894DEBF00
:100A30000FBECDBF64960FB6F894DEBF0FBECDBF1C
:100A4000DF91CF911F910F91FF90EF900895CF9379
:100A5000DF93FC0124852F3F79F4A1E0B1E080E031
:100A600090E0CD91DD91219611F4282F04C00196DC
:100A700084309105B1F72487C485CF3F91F0508B26
:100A80004787CF0141960E94FC268C2F90E0FC0105
:100A9000EE0FFF1FEF5FFE4F9183808381E090E0B8
:100AA00002C080E090E0DF91CF9108958F929F92F5
:100AB000AF92BF92CF92DF92FF920F931F93CF938B
:100AC000DF93DC011C96FC90BFEFFB1609F444C1D8
:100AD0008091220390912303A0912403B0912503D8
:100AE000181619061A061B064CF4209126032F151A
:100AF00011F0211103C0382F292F2AC180918A03B8
:100B000090918B03DC01ED91FC910480F581E02D47
:100B10000995892B19F430E020E01AC100918A036D
:100B200010918B03C0E0D0E00E940111F8016087B2
:100B3000718782879387D801ED91FC910680F781B8
:100B4000E02DC801099597FD0BC0FE01EC59FD4F42
:100B50002081022E000C330B82179307D1F44CC076
:100B60000E940111F80180849184A284B384DC0185
:100B7000CB0188199909AA09BB0984809580A680B0
:100B8000B78088159905AA05BB05A8F28FEF9FEFDE
:100B90003AC0209749F265E672E09E012150310982
:100BA000F901EC59FD4F4081042E000C550B8417C0
:100BB0009507F1F42115310509F4B6CFE4E6F2E02A
:100BC00040E050E0B1906B01C40ED51ED601DC9020
:100BD000BD1441F04217530709F4A6CF6F5F7F4F52
:100BE000E901DBCF4F5F5F4F4217530758F3F2CF56
:100BF0002115310599F796CF2196C530D10509F019
:100C000093CF80E090E0892B09F085CF80918A0313
:100C100090918B030E9496166093260380918A031D
:100C200090918B03DC01ED91FC910680F781E02D22
:100C3000099580918A0390918B030E949616609388
:100C400022037093230380932403909325038091C0
:100C50008A0390918B03DC01ED91FC910680F78172
:100C6000E02D099580918A0390918B030E9496163E
:100C70006093270380918A0390918B03DC01ED91AF
:100C8000FC910680F781E02D099580918A0390916F
:100C90008B030E9496166093280380918A0390919B
:100CA0008B03DC01ED91FC910680F781E02D099525
:100CB00080918A0390918B030E949616609329037A
:100CC00080918A0390918B03DC01ED91FC91068069
:100CD000F781E02D099580918A0390918B030E9402
:100CE000961660932A0380918A0390918B03DC010E
:100CF000ED91FC910680F781E02D099580918A03A2
:100D000090918B03DC01ED91FC910680F781E02D41
:100D1000099580918A0390918B030E949616709397
:100D20002C0360932B0380918A0390918B03DC0149
:100D3000ED91FC910680F781E02D099580912603C5
:100D40008F1511F0F110E7CE30912203209123038B
:100D5000832F922F97FF02C080E090E0DF91CF9128
:100D60001F910F91FF90DF90CF90BF90AF909F9019
:100D70008F9008951F920F920FB60F9211242F9308
:100D80003F934F935F936F937F938F939F93AF9313
:100D9000BF93EF93FF93E091C202F091C3023097AB
:100DA00009F451C0968DA685B785858591FF04C04D
:100DB0009C91892329F447C09C91892309F043C061
:100DC000A389B4899C918589809589238C93868990
:100DD00097890197F1F7608D718DA685B785558547
:100DE00038E020E0CB010197F1F7822F90E0959554
:100DF0008795282F4C91452309F02068315091F7B1
:100E0000868D81FD20958091C10290E001968F73BF
:100E100099273091C002381749F0A091C102B0E083
:100E2000A35DBC4F2C938093C10203C0868D81606B
:100E3000868F828D938D0197F1F7A389B4899C9158
:100E40008589892B8C93FF91EF91BF91AF919F91F1
:100E50008F917F916F915F914F913F912F910F9063
:100E60000FBE0F901F901895E091C202F091C3023F
:100E7000E817F90769F4A389B4899C91858980955D
:100E800089238C931092C3021092C20281E00895CC
:100E900080E0089580918A0390918B03DC01ED91AD
:100EA000FC910480F581E02D09951816190664F46B
:100EB00080918A0390918B03DC01ED91FC91068077
:100EC000F781E02D0995E6CF08953F924F925F920A
:100ED0006F927F928F929F92AF92BF92CF92DF924A
:100EE000EF92FF920F931F93CF93DF936C015B01FF
:100EF000342E8091F8049091F9049093FD0480932E
:100F0000FC040E9401112B013C01CFEFDFEF0D2CFF
:100F1000000CEE08FF080E940111DC01CB018419CE
:100F20009509A609B7098C159D05AE05BF0508F002
:100F30005DC0CF3FFFEFDF0709F058C080918A0303
:100F400090918B03DC01ED91FC910480F581E02D03
:100F50000995892B01F380918A0390918B03DC0121
:100F6000ED91FC910680F781E02D0995E091FC045C
:100F7000F091FD0480838091FC049091FD04019622
:100F80009093FD048093FC042091FA043091FB04BB
:100F90008217930740F08091F8049091F9049093A0
:100FA000FD048093FC04A114B10439F0C5010E9432
:100FB0006216882311F0C5E0D0E0332009F4ABCFEE
:100FC0008BE2882E81E0982E00E010E0F401819100
:100FD00091914F010E946216811106C00F5F1F4F51
:100FE0000530110599F797CFE80195CF0E940111BF
:100FF000DC01CB0184199509A609B7098C159D055B
:10100000AE05BF0560F06FEA71E084E993E00E94ED
:101010005B186EE472E084E993E00E948118CE01CF
:10102000DF91CF911F910F91FF90EF90DF90CF90C4
:10103000BF90AF909F908F907F906F905F904F90F8
:101040003F900895CF92DF92EF92FF920F931F93FC
:10105000CF93DF938C01DC01ED91FC910480F5814D
:10106000E02D0995892B09F4C2C0F801D48580913F
:101070002603D813B9C00E9401116B017C01809135
:101080008A0390918B03DC01ED91FC910480F58142
:10109000E02D0995892B09F462C080918A03909113
:1010A0008B03DC01ED91FC910680F781E02D099521
:1010B000C82F8091220390912303A0912403B09123
:1010C00025030197A109B10980932203909323037B
:1010D000A0932403B0932503892B8A2B8B2B09F033
:1010E00083C065E070E080E090E00E94C7108091CE
:1010F0008A0390918B03DC01ED91FC910480F581D2
:10110000E02D0995892B09F46FC080918A03909195
:101110008B03DC01ED91FC910084F185E02D0995B4
:101120002D2F30E0205D3F4F8217930709F05CC000
:1011300040E06AE672E084EF91E00E94650705975F
:1011400009F452C06FEA71E084E993E00E945B18F1
:101150006AE172E084E993E00E94811845C00E9430
:101160000111DC01CB018C199D09AE09BF09803D3D
:101170009740A105B10508F482CF6FEA71E084E9D8
:1011800093E00E945B1861E172E084E993E00E94C1
:101190005D186BE272E084E993E00E945B18409175
:1011A000220350912303609124037091250377FF5C
:1011B00005C084E993E00E940F1805C02AE084E985
:1011C00093E00E94C61761E772E084E993E00E9411
:1011D000D618109222031092230310922403109227
:1011E000250310922603C0E08C2F90E002C08FEF01
:1011F0009FEFDF91CF911F910F91FF90EF90DF90C4
:10120000CF900895CF92DF92EF92FF920F931F93AA
:10121000CF93DF93CDB7DEB7A8970FB6F894DEBFB4
:101220000FBECDBFFC016B018A0180898F9387853A
:101230008F93CF0141969F938F931F934F938485F4
:101240001F928F9388EF91E09F938F939E012F5F62
:101250003F4F79013F932F930E946A27B7018091F6
:101260008A0390918B030E94471840E064E772E084
:1012700088EE93E00E9465070FB6F894DEBF0FBEBC
:10128000CDBF059749F06FEA71E084E993E00E94D1
:101290005B186DED71E01EC080918A0390918B0305
:1012A000DC01ED91FC910280F381E02DA801B601F3
:1012B000099541E060E070E080ED97E00E946507ED
:1012C000039779F06FEA71E084E993E00E945B187C
:1012D00062EC71E084E993E00E94811880E090E084
:1012E00001C0C801A8960FB6F894DEBF0FBECDBFEF
:1012F000DF91CF911F910F91FF90EF90DF90CF90F2
:101300000895CF93DF93CDB7DEB7C85CD1090FB690
:10131000F894DEBF0FBECDBF9E012F523F4FC35387
:10132000DF4F48815981CD5CD04068EC70E0CE0140
:1013300001960E948D2781E00E944A07BE016F5FDF
:101340007F4F80918A0390918B030E94471841E060
:1013500060E070E0C153DF4F88819981CF5CD0405D
:101360000E946507C853DF4F0FB6F894DEBF0FBE6B
:10137000CDBFDF91CF910895EF92FF920F931F930E
:10138000CF93DF93E1E0F1E0C0E0D0E02191319133
:101390002F3F3F4F51F5E72EF62E8C017F936F9331
:1013A0008FED91E09F938F93DF93CF9383E18F93A2
:1013B00088E88F9381EA91E09F938F930E9481093F
:1013C000FE01EE0FFF1FE65EFC4FF082E182F801A6
:1013D000C487F586E6868DB79EB70A960FB6F89451
:1013E0009EBF0FBE8DBF81E005C02196C430D105E0
:1013F00069F680E0DF91CF911F910F91FF90EF9000
:1014000008954F925F926F927F928F929F92AF92C8
:10141000BF92CF92DF92EF92FF920F931F93CF93E1
:10142000DF9300D0CDB7DEB74C015A017901380106
:101430004DB65EB6CB0169837A830E943C27019644
:101440002DB73EB7281B390B0FB6F8943EBF0FBE21
:101450002DBF8DB79EB701966C0169817A810E947C
:101460003527C5010E943C270196EDB7FEB7E81B62
:10147000F90B0FB6F894FEBF0FBEEDBF0DB71EB748
:101480000F5F1F4FB501C8010E943527F701108279
:1014900081E00E944A07B40180918A0390918B03F6
:1014A0000E94811841E0B60188EE93E00E94650732
:1014B0008530910509F049C08091F8049091F904B4
:1014C0009093FD048093FC044091F6045091F7043E
:1014D0004F5F5F4F60E070E00E94EA2641E0B80194
:1014E00084EF91E00E946507059731F5A301415013
:1014F0005109F80101900020E9F73197E01BF10B49
:101500006091F8047091F9048091FC049091FD04BD
:10151000861B970B8E1B9F0B4817590708F0AC01D1
:10152000C7010E94032741E060E070E080ED97E092
:101530000E94650781E018C06FEA71E084E993E0DA
:101540000E945B186FE272E00AC0059760F06FEAD4
:1015500071E084E993E00E945B1861E472E084E941
:1015600093E00E94811880E00FB6F8945EBE0FBE33
:101570004DBE0F900F90DF91CF911F910F91FF9073
:10158000EF90DF90CF90BF90AF909F908F907F9023
:101590006F905F904F90089560E070E083ED94E06D
:1015A0000E94CB0F0E94561664E670E080E090E047
:1015B0000E94C71061E070E083ED94E00E94CB0FC1
:1015C0000E94561664E670E080E090E00E94C7102A
:1015D00060E070E083ED94E00E94CB0F0E9456160D
:1015E00064E670E080E090E00E94C71061E070E087
:1015F00083ED94E00E94CB0F0E94561664E670E0E3
:1016000080E090E00E94C71060E083ED94E00E94CB
:10161000421360E070E083ED94E00C94CB0F0F93E5
:101620001F9380E3EAEEF2E0DF011D928A95E9F76D
:1016300083EE8093EA0286E08093EC028CEE809346
:10164000ED0281E38093F6029EE49093F70280938B
:10165000F80284E38093F9024BE750E066E772E01A
:1016600081E394E00E94270540E350E06AEE72E0D7
:1016700081E394E00E9402096AE070E080E090E07B
:101680000E94C71081E394E00E942A04892B09F488
:1016900040C040E350E06AEE72E081E394E00E94D3
:1016A000580420918C0380E19EE0289FB001299F7F
:1016B000700D1124CB01770FAA0BBB0B8C019D0180
:1016C00000581E472A4A33488091120390E0982F11
:1016D000882740911303842BA0E0B0E0DC01992718
:1016E00088274091140350E0542F4427609115033C
:1016F000462B60E070E0842B952BA62BB72BBC010A
:10170000CD01600F711F821F931F1F910F910C94C9
:10171000571160E070E083ED94E00E94CB0F1092CF
:10172000E0041092DF041092E2041092E10469E8F0
:1017300072E083ED94E00E945B181F910F910C946E
:1017400056168F929F92AF92BF92CF92DF92EF92F6
:10175000FF920F931F93CF93DF93EC01062F1B8211
:10176000862F0E943210182F8A81181769F00E9464
:1017700001116D8F7E8F8F8F98A31A830E940111A4
:10178000698B7A8B8B8B9C8B0E940111C988DA88BC
:10179000EB88FC886C157D058E059F0560F4198A21
:1017A0001A8A1B8A1C8A07C0802F0E943210482F79
:1017B0002981821318C00E9401116B017C01898963
:1017C0009A89AB89BC89B701A601481B590B6A0BE2
:1017D0007B0B8D899E89AF89B88D84179507A607E5
:1017E000B70710F728C09C01332781E090E05881AB
:1017F000552311F080E090E028173907D1F48D8D42
:101800009E8DAF8DB8A146015701881A990AAA0A80
:10181000BB0A89859A85AB85BC8588169906AA0678
:10182000BB0638F09B819F5F9B83CD8EDE8EEF8E53
:10183000F8A24983C0CF888118131EC08A8118136B
:101840001BC00E94011109891A892B893C89DC017E
:10185000CB01801B910BA20BB30B898F9A8FAB8F9F
:10186000BC8F0D811E812F813885081719072A0723
:101870003B0710F484E68B838B81823069F028F477
:10188000813091F4E9A1FAA10CC0833041F0843693
:1018900059F4EFA1F8A505C0EBA1FCA102C0EDA190
:1018A000FEA1309709F009958B8190E0DF91CF91EF
:1018B0001F910F91FF90EF90DF90CF90BF90AF906E
:1018C0009F908F900895833081F028F4813099F0B3
:1018D0008230A1F008958730A9F08830B9F08430C3
:1018E000D1F4809180008F7D03C0809180008F773C
:1018F00080938000089584B58F7702C084B58F7D72
:1019000084BD08958091B0008F7703C08091B000AE
:101910008F7D8093B00008953FB7F894809186033F
:1019200090918703A0918803B091890326B5A89B65
:1019300005C02F3F19F00196A11DB11D3FBFBA2F61
:10194000A92F982F8827820F911DA11DB11DBC01C1
:10195000CD0142E0660F771F881F991F4A95D1F786
:101960000895CF92DF92EF92FF920F931F93CF9340
:10197000DF93FC016901342F8589882391F082303F
:1019800020F090859150961B692F9FEF980F923011
:1019900018F432853150341B80FF03C0862F632F2B
:1019A000382F67FD79C0862F062E000C990BC48155
:1019B000D5818C179D070CF06FC0032F10E0468176
:1019C0005781041715070CF067C0568D23E09595D5
:1019D00087952A95E1F743E0159507954A95E1F734
:1019E000509F7001519FF00C1124078D10A1800FA2
:1019F000911F8E0D9F1DDC012C91462F4770377073
:101A000081A192A1820F911DDC018C91823018F08E
:101A100097E0941B492F9FEF980F923018F497E0AE
:101A2000931B392F80FF03C0842F432F382F822F21
:101A3000652F0E94AB24859F20191124B8E02B9FAD
:101A4000400D112498E0899F300D1124632F70E020
:101A500083E0759567958A95E1F7C69FC001C79F9A
:101A6000900DD69F900D1124840F911D47FD9A95DE
:101A7000038CF48DE02DE80FF91F377081E090E0C2
:101A800001C0880F3A95EAF72081CD2811F0822B0A
:101A900002C0809582238083DF91CF911F910F91A7
:101AA000FF90EF90DF90CF9008950895EF92FF920E
:101AB0000F931F93DC01ED91FC9111971A960D91F4
:101AC0001C911B9718962D913C9119970684F785C8
:101AD000E02D7B0140E050E060E070E009951F914F
:101AE0000F91FF90EF9008956F927F928F929F9247
:101AF000AF92BF92CF92DF92EF92FF920F931F931C
:101B0000CF93DF936C015A014801EB013B01620E58
:101B1000731EC615D70574F4D601ED91FC910084AF
:101B2000F185E02D87019401A501BE01C60109954B
:101B30002196EFCFDF91CF911F910F91FF90EF9002
:101B4000DF90CF90BF90AF909F908F907F906F90DD
:101B50000895EF92FF920F931F93DC01ED91FC919A
:101B6000260F371F215031090680F781E02D7801BB
:101B70008A0109951F910F91FF90EF900895EF92C0
:101B8000FF920F931F937801DC01ED91FC91240FDC
:101B9000351F8901015011090680F781E02D9B0155
:101BA00009951F910F91FF90EF9008956F927F928A
:101BB0008F929F92AF92BF92CF92DF92EF92FF925D
:101BC0000F931F93CF93DF93EC014B015A016901EF
:101BD0003801E881F9810284F385E02D87010995B8
:101BE000E881F981A501460D571D41505109028434
:101BF000F385E02D9601B401CE010995E881F981C4
:101C00000084F185E02D9301A501B401CE01099571
:101C1000E881F981C80CD91CB601615071090084B2
:101C2000F185E02D9301A501CE010995DF91CF91BA
:101C30001F910F91FF90EF90DF90CF90BF90AF90EA
:101C40009F908F907F906F9008952F923F924F9228
:101C50005F926F927F928F929F92AF92BF92CF923C
:101C6000DF92EF92FF920F931F93CF93DF9300D0F9
:101C70001F92CDB7DEB74C017B836A836A0159019D
:101C800017019801241B350B37FF03C031952195AF
:101C90003109C5014A815B81841B950B97FF03C005
:101CA00091958195910951E059838217930714F01A
:101CB00019820BC09A2D8B2D5801092F182F9A814C
:101CC0008B81DB82CA82C92ED82E8A819B81A8167D
:101CD000B9065CF49C2D8D2D6801092F182F9A816F
:101CE0008B81BB82AA82A92EB82E2501AA81BB8135
:101CF0004A1A5B0A38016C187D0877FE03C071949C
:101D000061947108720157FE03C0BFEFEB1AFB0A22
:101D1000F594E794C016D1061CF00FEF1FEF1FC01B
:101D200001E010E01CC0D401ED91FC91B981048068
:101D3000F581E02D9101BB23C1F04A815B81B601A1
:101D4000C4010995E618F708F7FE04C0C00ED11EBD
:101D5000E40CF51CEA81FB813196FB83EA834A811E
:101D60005B81A416B506FCF604C0A6016A817B81DE
:101D7000E7CF0F900F900F90DF91CF911F910F91B0
:101D8000FF90EF90DF90CF90BF90AF909F908F909B
:101D90007F906F905F904F903F902F90089520918B
:101DA000C2023091C3022817390771F49091C00222
:101DB0008091C102981741F0E091C002F0E0E35D2C
:101DC000FC4F808190E008958FEF9FEF0895089574
:101DD0001F93CF93DF93DC015C962D913C915D972F
:101DE0002115310539F481E090E013969C938E9390
:101DF00012973DC05196ED91FC91529750969C914F
:101E00005097892F80951FB75E964C915E9741FB46
:101E1000772770F941FD6095F8944081772311F0A0
:101E2000492B01C048234083E9012197F1F748E09D
:101E3000508160FF02C0592B01C058235083E90133
:101E40002197F1F76695415099F7772321F090811A
:101E50008923808303C08081982B90831FBF5C9669
:101E60008D919C915D970197F1F721E030E0C901D8
:101E7000DF91CF911F9108952091C2023091C3024A
:101E80002817390771F48091C1022091C00290E0B7
:101E9000805C9F4F821B910960E470E00E94CB241C
:101EA000089580E090E008952091C2023091C3022D
:101EB00028173907B9F49091C0028091C102981790
:101EC00089F0E091C002F0E0E35DFC4F8081209159
:101ED000C00230E02F5F3F4F2F7333272093C002A3
:101EE00090E008958FEF9FEF08958F929F92AF92A9
:101EF000BF92CF92DF92EF92FF920F931F93CF93F7
:101F0000DF937C01EB016C0182E0C80ED11C47011C
:101F1000E5E08E0E911C00E010E0F60141916F01AA
:101F200050E060E070E02AE0CE010E94C6175C013C
:101F3000E881F9810190F081E02D6EE2CE010995F2
:101F40008A0D9B1D080F191FC814D90431F7F7011A
:101F5000458150E060E070E02AE0CE010E94C617A3
:101F6000800F911FDF91CF911F910F91FF90EF9004
:101F7000DF90CF90BF90AF909F908F90089584E9AD
:101F800093E00E94E51521E0892B09F420E0822FDF
:101F900008950E94DC26FC01458D50E0672B19F462
:101FA00060E070E002C06FEF70E0FC01838D948D03
:101FB0000C94EA261F920F920FB60F9211242F93C2
:101FC0003F934F935F936F937F938F939F93AF93C1
:101FD000BF93EF93FF9384E993E00E941517FF915D
:101FE000EF91BF91AF919F918F917F916F915F9191
:101FF0004F913F912F910F900FBE0F901F9018950A
:102000001F920F920FB60F9211242F938F939F93CD
:10201000EF93FF93E091A403F091A5038081E091F9
:10202000AA03F091AB0382FD12C090818091AD03B1
:102030008F5F8F732091AE03821751F0E091AD0353
:10204000F0E0EC56FC4F958F8093AD0301C080818A
:10205000FF91EF919F918F912F910F900FBE0F9055
:102060001F901895CF93DF93282F30E0F901E25AA3
:10207000F84F8491F901E057F84FD491F901EC55EC
:10208000F84FC491CC2391F081110E94630CEC2F86
:10209000F0E0EE0FFF1FE458F84FA591B491EC91DA
:1020A000ED2381E090E021F480E002C080E090E048
:1020B000DF91CF9108951F93CF93DF93282F30E0C6
:1020C000F901E25AF84F8491F901E057F84FD491A1
:1020D000F901EC55F84FC491CC23C9F0162F8111AA
:1020E0000E94630CEC2FF0E0EE0FFF1FEE58F84F4C
:1020F000A591B4918FB7F894111105C09C91ED2F63
:10210000E095E92302C0EC91ED2BEC938FBFDF91BA
:10211000CF911F910895CF93DF9390E0FC01E0579A
:10212000F84F2491FC01EC55F84F8491882361F11C
:1021300090E0880F991FFC01EA57F84FC591D491A0
:10214000FC01EE58F84FA591B491611109C09FB7F9
:10215000F8948881209582238883EC912E230BC0EC
:10216000623061F49FB7F8943881822F8095832381
:102170008883EC912E2B2C939FBF06C08FB7F894C9
:10218000E8812E2B28838FBFDF91CF9108958F9206
:102190009F92AF92BF92CF92DF92EF92FF926B012C
:1021A0007C010E948C0C4B015C01C114D104E10440
:1021B000F104F1F00E948C0CDC01CB018819990923
:1021C000AA09BB09883E9340A105B10570F321E03F
:1021D000C21AD108E108F10888EE880E83E0981E43
:1021E000A11CB11CC114D104E104F10419F7DDCF25
:1021F000FF90EF90DF90CF90BF90AF909F908F9027
:1022000008952FB7F89460918203709183038091B1
:102210008403909185032FBF08951F920F920FB6EC
:102220000F9211242F933F938F939F93AF93BF935C
:102230008091820390918303A0918403B0918503E0
:102240003091810323E0230F2D3720F40196A11D47
:10225000B11D05C026E8230F0296A11DB11D2093D4
:1022600081038093820390938303A0938403B093AC
:1022700085038091860390918703A0918803B09194
:1022800089030196A11DB11D809386039093870356
:10229000A0938803B0938903BF91AF919F918F91D1
:1022A0003F912F910F900FBE0F901F901895609344
:1022B0007D0370937E0380937F0390938003DC0102
:1022C000CB01845D9E4FAF4FBF4F809379039093B6
:1022D0007A03A0937B03B0937C0382E090E0909319
:1022E0007803809377030E940111609373037093C6
:1022F000740380937503909376030895CF92DF92D1
:10230000EF92FF920F931F930E940111C0907303ED
:10231000D0907403E0907503F09076038B019C01DC
:102320000C191D092E093F0980917D0390917E03B0
:10233000A0917F03B0918003083E13402105310531
:10234000D0F00196A11DB11D80937D0390937E0373
:10235000A0937F03B0938003B701A60148515C4F5F
:102360006F4F7F4F409373035093740360937503D3
:1023700070937603C9CF4091790350917A036091AD
:102380007B0370917C0384179507A607B70788F134
:10239000E0917103F0917203309759F1099561153D
:1023A00071058105910519F00E94571122C0809195
:1023B0007D0390917E03A0917F03B0918003845DA3
:1023C0009E4FAF4FBF4F8093790390937A03A093B2
:1023D0007B03B0937C0381E090E020917703309100
:1023E0007803232B11F480E090E09093780380939E
:1023F000770360917D0370917E0380917F039091BC
:1024000080031F910F91FF90EF90DF90CF90089580
:102410004F925F926F927F928F929F92AF92BF92F4
:10242000CF92DF92EF92FF920F931F93CF93DF93A0
:102430004B015C0180916D0390916E03A0916F033D
:10244000B091700388169906AA06BB0609F4C2C0AB
:102450008CE3C82ED12CE12CF12CC501B401A701CD
:1024600096010E945D2A6093C402CA01B901A701C6
:1024700096010E945D2A6093C502CA01B90128E154
:1024800030E040E050E00E945D2A69017A016093EB
:10249000C602CA01B9016C5F7F4F8F4F9F4F27E083
:1024A00030E040E050E00E945D2A6F5F6093C70219
:1024B000412C512C320140E004E610E0C0E9D1E0AB
:1024C000242F30E02E54384FF901E370FF27309766
:1024D00089F4C901B8010E94CB24892B31F4C901C8
:1024E000BE010E94CB24892B29F48EE691E0A0E066
:1024F000B0E004C08DE691E0A0E0B0E0480E591EC7
:102500006A1E7B1ED301C201AA27BB27C816D906A3
:10251000EA06FB0610F04F5FD3CF4093CA02309714
:1025200099F4C90164E670E00E94CB24892B39F448
:10253000C90160E971E00E94CB24892B29F48EE661
:1025400091E0A0E0B0E004C08DE691E0A0E0B0E052
:10255000481A590A6A0A7B0AC418D508E608F70817
:10256000C90164E670E00E94CB24EC01C90160E976
:1025700071E00E94CB24A5E3B1E020E0213039F4E2
:10258000309749F4209729F4009729F402C04C9120
:1025900003C04DE101C04CE150E060E070E0C416C2
:1025A000D506E606F70640F0C41AD50AE60AF70A89
:1025B0002F5F11962C3011F72F5F2093C902C3941F
:1025C000C092C80280926D0390926E03A0926F0336
:1025D000B0927003DF91CF911F910F91FF90EF9018
:1025E000DF90CF90BF90AF909F908F907F906F9033
:1025F0005F904F9008950E947E110E940812809172
:10260000CA0290E08E54984F0895EF92FF921F9364
:10261000CF93DF931F92CDB7DEB77C01162F60E01A
:10262000DC015A968C9149830E945B108FEF810FD9
:10263000F701958D980F498198501EBD00000DB48B
:1026400007FEFDCF2EB5193048F4D7015B96ED910A
:10265000FC915C97E90FF11D208101C0242F2EBD54
:1026600000000DB407FEFDCF2EB5891728F361E0F9
:10267000F701828D0F90DF91CF911F91FF90EF9026
:102680000C945B10462F6AE00C9405132F923F9236
:102690004F925F926F927F928F929F92AF92BF9272
:1026A000CF92DF92EF92FF920F931F93CF93DF931E
:1026B000CDB7DEB76B970FB6F894DEBF0FBECDBFB8
:1026C0004C015A8349831F830E83FD82EC82CB82A7
:1026D000DC0158964D915C9159974115510509F0CF
:1026E000A5C018968D919C911997681779070CF0E1
:1026F0005AC11A968D919C911B97E981FA81E8172E
:10270000F9070CF050C1D12CCB013B81F6E03F9F83
:10271000800D911D1124181619060CF044C1C60134
:1027200033E0880F991F3A95E1F749815A81840F68
:10273000951F181619060CF036C157968C91811109
:1027400003C0203B08F02F5F55E0259F9001112426
:102750007E876D875B01212CC901861B970B9987AA
:102760008887A981BA811896BB87AA87B5E02B16FE
:1027700041F0E885F985EA0DFB1DE25AFD4F3490E2
:1027800001C0312C69807A80230130FE12C0D4014F
:10279000ED91FC91BB81B13031F40480F581E02DE5
:1027A0002E813F8118C00684F785E02DEE80FF80E2
:1027B0001CC0EC81FD812E813F81E217F307E1F01F
:1027C000D401ED91FC91BB81B13051F40480F581CD
:1027D000E02D2C813D81A301B501C40109950CC0F8
:1027E0000684F785E02DEC80FD8086019601A2012C
:1027F0006D857E85C40109953694EFEF6E1A7E0AC9
:102800004C0C5D1C2A853B856216730609F0BDCF12
:1028100023943FEFA31AB30A4D855E854C0D5D1DD1
:102820005E874D8756E02512A1CFBDC0FA013496D0
:102830003491329785919491231BA7E02A9F800DB4
:10284000911D1124FA01259134913A8B298BFC01B9
:1028500025903490FC01329634913887319644911A
:102860004C873196E491FC013596A4913196849180
:102870005B81523050F06A2E0A2E000C7708E82F48
:10288000082E000CFF0BFB87EA87FB81CF2ED12C93
:102890006C9C90016D9C300D7C9C300D1124A90125
:1028A000460F571F588B4F871C82A12CEA2FAA0F67
:1028B000FF0B3B016E0E7F1E5885650F711DDB01FE
:1028C000AE0FBF1FBF8BAE8BE981FA81E80FF11D00
:1028D00087FDFA95F98FE88F9C85A91608F063C0EB
:1028E0008A2D90E04A855B85480F591F4C9D9001C9
:1028F0004D9D300D5C9D300D1124A981BA81A20F30
:10290000B31FBE87AD877B8E6A8E4F845888BC818B
:10291000B619BB8BE88DF98DE80FF91FFD8BEC8B99
:102920008B89FA8D8F0F2A8D3B8D4E895F892417F5
:10293000350799F1877041F4C1010196E989FA8957
:10294000E20DF31DB4901C01B7FE1EC0D401ED9141
:10295000FC91BB81B13061F40480F581E02D2E81C2
:102960003F814C895D896A8D7B8DC40109950CC0BE
:102970000684F785E02DEE80FF80860196014D8567
:102980005E85B201C4010995BB0CEA8DFB8D3196C1
:10299000FB8FEA8F4C0C5D1CC3CF5C818885580F80
:1029A0005C83A39499CF6B960FB6F894DEBF0FBEED
:1029B000CDBFDF91CF911F910F91FF90EF90DF90EE
:1029C000CF90BF90AF909F908F907F906F905F90CF
:1029D0004F903F902F900895AF92BF92CF92EF9279
:1029E000FF920F931F93CF93DF93EC01262F888DD7
:1029F000998D009709F042C06A3069F42C898E8560
:102A00009F8538E0239F800D911D11249F878E871D
:102A10001D861C86ACC06D3009F4A9C08E89882340
:102A2000C1F03C898C859D8546E0349F800D911DC9
:102A3000112448855985841795075CF01D861C86EE
:102A40008E859F85E8E03E9F800D911D11249F8714
:102A50008E87EA88FB88088919894E855F856C8591
:102A60007D85CC88CE010E9446132C898C859D855E
:102A7000F6E02F9F800D911D112441C06A3079F43A
:102A80001D861C862C89FC013696E4918E859F85D7
:102A90002E9F800D911D11249F878E8768C06D30F9
:102AA00009F465C0AC014C5F5F4FFA0134916317C4
:102AB00008F45DC03196E491E61708F458C0FA01B5
:102AC0004491362F341BFC013296A590B490F7E068
:102AD0003F9FA00CB11C1124F50132963491319620
:102AE000E491332311F0E1110DC0F5013496E49126
:102AF0002C898C859D85E29F800D911D11249D87D9
:102B00008C8735C0F501359644915E89552311F1C6
:102B10006C89E32FF0E0E40FF11D47FDFA956E9FFD
:102B2000D0016F9FB00D11244C855D854A0F5B1F4E
:102B3000E885F9854E175F076CF01D861C86FC0141
:102B40003696E4918E859F856E9F800D911D112490
:102B50009F878E87EA88FB88088919894E855F855B
:102B60006C857D85CC88CE010E944613BECF81E066
:102B700090E0DF91CF911F910F91FF90EF90CF9058
:102B8000BF90AF900895FC01918D828D981761F0F0
:102B9000828DDF01A80FB11D5D968C91928D9F5F94
:102BA0009F73928F90E008958FEF9FEF0895FC013F
:102BB000918D828D981731F0828DE80FF11D858DF2
:102BC00090E008958FEF9FEF0895FC01918D228D85
:102BD000892F90E0805C9F4F821B91098F7399270A
:102BE000089580E090E0892B29F00E94BF0F8111A9
:102BF0000C94000008950F931F93CF93DF93EC0183
:102C00000E940111688779878A879B87E881F9810B
:102C10000084F185E02DCE01099597FF17C00E9431
:102C20000111088519852A853B85DC01CB01801BB4
:102C3000910BA20BB30B0C811D812E813F8180175C
:102C40009107A207B30710F38FEF9FEFDF91CF91AA
:102C50001F910F910895EF92FF920F931F93CF93BF
:102C6000DF931F92CDB7DEB70CE813E0E12CF12C17
:102C7000F80161918F01C70169830E94472A698128
:102C8000681719F0C7010E944F2AFFEFEF1AFF0AD9
:102C900088E0E816F10461F78CE893E00F90DF918B
:102CA000CF911F910F91FF90EF900895CF93C8E0BF
:102CB00040E06C2F83ED94E00E940513C150C1F7F2
:102CC000CF910895FC0101900020E9F731979F0111
:102CD000281B390BE091FC04F091FD04E21BF30B7F
:102CE0004091F8045091F904E417F50730F460912D
:102CF000F6047091F704E60FF71F280F391F609153
:102D0000FA047091FB04DC018217930758F40196D2
:102D1000BC91A081BA1308C03196E617F70799F75E
:102D2000FA01F1CF81E0089580E00895AF92BF925B
:102D3000CF92DF92EF92FF921F93CF93DF9300D059
:102D400000D0CDB7DEB75C01C5010E94FB15FC01C8
:102D500097FD0FC08D32910581F0C0970A9768F0FA
:102D6000D501ED91FC910680F781E02DC501099513
:102D7000EBCF60E070E0CB014AC020E030E0A90179
:102D800010E0E130F105E9F0ED32F105C9F0CF01D5
:102D9000C0970A97B0F4AAE0B0E00E947F2A6F01C2
:102DA000FF0FEE08FF08DC01CB018C0D9D1DAE1D51
:102DB000BF1D9C01AD01205331094109510901C0DA
:102DC00011E0D501ED91FC910680F781E02DC50160
:102DD00029833A834B835C830995C5010E94FB15C7
:102DE000FC01C09729813A814B815C810A9748F2A6
:102DF000E130F10531F2112341F066277727CB014D
:102E0000621B730B840B950B02C0CA01B9010F90B2
:102E10000F900F900F90DF91CF911F91FF90EF9047
:102E2000DF90CF90BF90AF900895FC01848DDF01BB
:102E3000A80FB11DA35ABF4F2C91848D90E001962D
:102E40008F739927848FA689B7892C93A089B1891C
:102E50008C9180648C93938D848D981306C0028826
:102E6000F389E02D80818F7D80830895EF92FF921A
:102E70000F931F93CF93DF93EC0181E0888F9B8D9D
:102E80008C8D981305C0E889F989808185FD24C05F
:102E9000F62E0B8D10E00F5F1F4F0F731127E02EE2
:102EA0008C8DE8120CC00FB607FCFACFE889F989BF
:102EB000808185FFF5CFCE010E941517F1CF8B8D54
:102EC000FE01E80FF11DE35AFF4FF0820B8FEA89F4
:102ED000FB898081806207C0EE89FF896083E88971
:102EE000F98980818064808381E090E0DF91CF91D7
:102EF0001F910F91FF90EF900895CF93DF93EC0116
:102F0000888D8823C9F0EA89FB89808185FD05C009
:102F1000A889B9898C9186FD0FC00FB607FCF5CF43
:102F2000808185FFF2CFA889B9898C9185FFEDCF8B
:102F3000CE010E941517E7CFDF91CF9108950F932F
:102F40001F93CF93DF93EC0188819981009729F03B
:102F50002A813B812617370788F48B016F5F7F4FEB
:102F60000E941226009761F0998388831B830A834D
:102F70002C813D81232B11F4FC01108281E001C0E2
:102F800080E0DF91CF911F910F9108954F925F9252
:102F90006F927F92EF92FF920F931F93CF93DF93E5
:102FA000CDB7DEB7A1970FB6F894DEBF0FBECDBF89
:102FB0007C01FA01CB0119A2223008F42AE08E012B
:102FC0000F5D1F4F422E512C612C712CBF01A301AC
:102FD00092010E945D2AF901CA01015011096A306B
:102FE00014F4605D01C0695CD8016C93232B242B21
:102FF000252B61F7B801C7010E94D618A1960FB61C
:10300000F894DEBF0FBECDBFDF91CF911F910F911E
:10301000FF90EF907F906F905F904F900895CF92C8
:10302000DF92EF92FF920F931F93CF93DF93EC0108
:103030006A017B01E881F9810190F081E02D6DE268
:1030400009958C0144275527BA014C195D096E0971
:103050007F092AE0CE010E94C617800F911FDF91E1
:10306000CF911F910F91FF90EF90DF90CF90089537
:10307000AC01990F660B770B77FF04C083ED94E0EA
:103080000C940F182AE083ED94E00C94C6170F936C
:103090001F93CF93DF93EC010E94D6188C0161E758
:1030A00072E0CE010E94D618800F911FDF91CF9160
:1030B0001F910F9108950C94D618EF92FF920F93E1
:1030C0001F93CF93DF938C017B01C0E0D0E0F70129
:1030D000EC0FFD1F6491662361F0D801ED91FC9126
:1030E0000190F081E02DC8010995892B11F02196FE
:1030F000EECFCE01DF91CF911F910F91FF90EF9016
:1031000008950F931F93CF93DF93EC010E945D18F6
:103110008C0161E772E0CE010E94D618800F911FEA
:10312000DF91CF911F910F910895CF93DF93EC0121
:1031300081E00E944A07BE0180918A0390918B032F
:103140000E94811841E060E070E088EE93E0DF913A
:10315000CF910C946507CF92DF92EF92FF920F937D
:103160001F93CF93DF936C017A018B01C0E0D0E015
:10317000CE15DF0589F0D8016D918D01D601ED9155
:10318000FC910190F081E02DC6010995892B11F485
:103190007E0102C02196ECCFC701DF91CF911F9134
:1031A0000F91FF90EF90DF90CF900895611571051A
:1031B00079F0FB0101900020E9F73197AF01461B40
:1031C000570BDC01ED91FC910280F381E02D099415
:1031D00080E090E00895CF93DF93CDB7DEB7C2557E
:1031E000D1090FB6F894DEBF0FBECDBF789484B579
:1031F000826084BD84B5816084BD85B5826085BDF3
:1032000085B5816085BD80916E00816080936E0080
:103210001092810080918100826080938100809172
:103220008100816080938100809180008160809323
:1032300080008091B10084608093B1008091B000E3
:1032400081608093B00080917A00846080937A00DE
:1032500080917A00826080937A0080917A00816008
:1032600080937A0080917A00806880937A0010922F
:10327000C1006E0127E4C20ED11C88E0EBE3F2E04E
:10328000D60101900D928A95E1F785E1E3E4F2E041
:103290009E012F5F3F4F1901D90101900D928A9530
:1032A000E1F7ECE8AE2EE3E0BE2E00E010E0C8014E
:1032B0000E94472AF50181935F010F5F1F4F08307D
:1032C0001105A9F760E083ED94E00E94421380911C
:1032D0008E038093D90260E083ED94E00E94421354
:1032E000812C912CA090DB04B090DC0421E0A21A88
:1032F000B1088A149B041CF560E070E083ED94E053
:103300000E94CB0F0091DD041091DE0401501109E1
:10331000EE24E394F12C940140E050E0B40183EDFD
:1033200094E00E94250E0E94561662E370E080E051
:1033300090E00E94C710FFEF8F1A9F0AD3CF1A1494
:103340001B041CF560E070E083ED94E00E94CB0F5D
:103350000091DD041091DE0401501109EE24E39484
:10336000F12C950140E050E0B50183ED94E00E941E
:10337000250E0E94561669E170E080E090E00E9400
:10338000C71031E0A31AB108DACF65E083ED94E00D
:103390000E94421360E070E083ED94E00E94CB0F46
:1033A0000E94561668EC70E080E090E00E94C71022
:1033B00061E070E083ED94E00E94CB0F0E9456160E
:1033C00064E670E080E090E00E94C71060E070E08A
:1033D00083ED94E00E94CB0F0E94561664E670E0E5
:1033E00080E090E00E94C71061E070E083ED94E01F
:1033F0000E94CB0F0E94561668EC70E080E090E0CF
:103400000E94C71060E083ED94E00E94421360E0E8
:1034100070E083ED94E00E94CB0F0E94561610924C
:10342000E0041092DF041092E2041092E1046BEACF
:1034300071E083ED94E00E945B1821E030E046E00B
:1034400050E060E170E083ED94E00E94B10C0E94D6
:10345000561610927B0410927A04109279041092FE
:10346000780410927704109276048DEC90E090939B
:103470007D0480937C0490916C04963108F057C0D1
:1034800025E530E030937704209376042BEC30E090
:10349000309379042093780420E930E030937B0462
:1034A00020937A0420916800983050F031E09E30EB
:1034B00008F430E081E001C0880F3A95EAF701C0D6
:1034C00084E0822B80936800983038F09E3040F082
:1034D000963148F020E030E008C02DE630E005C02D
:1034E0002BE630E002C02CE630E0309374042093E9
:1034F0007304983030F481E001C0880F9A95EAF7A0
:103500000EC0292F30E09E3018F42850310902C037
:103510002E50310981E001C0880F2A95EAF7809387
:10352000750480917C0490917D040197F1F780915E
:103530007A0490917B04892B21F18091C2029091B1
:10354000C302E4E080369E07E1F0009711F00E948C
:10355000340780917E048E7F80937E041092C10296
:103560001092C00280E694E09093C3028093C2025E
:10357000E0917304F0917404908180917504892B1B
:1035800080836FEA71E084E993E00E945B1866E350
:1035900071E084E993E00E94811880E694E09093C2
:1035A0008B0380938A0383E391E00E949518892B13
:1035B00089F06FEA71E084E993E00E945B1866E1AC
:1035C00071E084E993E00E94811860E47FE180E08B
:1035D00090E057C084EF90E00E94951868EB7BE084
:1035E00080E090E00E94C71080E00E944A078FEEC2
:1035F00090E00E94951883EE90E00E94951887ED68
:1036000090E00E94951889EC90E00E94951889EB53
:1036100090E00E9495188BEA90E00E949518109215
:10362000CB0206E010E02BEC32E044E950E067E921
:1036300070E084EA90E00E94010A8091CB026FEA78
:1036400071E0813321F48091CC028E32E9F084E97B
:1036500093E00E945B1866E770E084E993E00E94C3
:103660005D186BE272E084E993E00E945B186BECFA
:1036700072E084E993E00E94471860EA7FE080E00E
:1036800090E00E94C71016C084E993E00E945B1886
:103690006BEF70E084E993E00E945D186BE272E0EA
:1036A00084E993E00E945B186BEC72E084E993E09C
:1036B0000E9447180AE010E09E01235C3F4F4EE451
:1036C00051E061E571E089E591E00E94010A8823FB
:1036D00051F001E03EE4932E40E2842E5AE8A52EFC
:1036E00051E0B52E35C060E070E083ED94E00E94BB
:1036F000CB0F1092E0041092DF041092E2041092BB
:10370000E1046AEB71E083ED94E00E945B180E9493
:103710005616FFCF84E993E00E945B1863E771E0DF
:1037200084E993E00E945D186BE272E084E993E023
:103730000E945B18B60184E993E00E94471868EE86
:1037400073E080E090E00E94C71080E00E944A078A
:1037500021E030E046E050E061E170E083ED94E08C
:103760000E94B10C0E94561611E00093D1023F92C4
:103770002F92DF92CF929F928F92BF92AF920E9430
:1037800081090FB6F894DEBF0FBECDBF6FEA71E0BE
:10379000892B09F0BFCF84E993E00E945B1866E6AD
:1037A00071E084E993E00E945D186BE272E084E9C5
:1037B00093E00E945B18B60184E993E00E944718E9
:1037C00066E579E081E394E00E94BC0921E030E005
:1037D00046E050E062E170E083ED94E00E94B10CBD
:1037E0000E9456160E940F0B0E947E110E94081222
:1037F0008091C60290E09093E9028093E8020E94D3
:103800007E110E9408128091C50290E09093E70219
:103810008093E6020E947E110E9408128091C402E9
:1038200090E09093E5028093E4020E94FB12909353
:10383000E3028093E2022091E6023091E7023093A6
:10384000DD022093DC022091E8023091E9023093FE
:10385000E1022093E0022091E4023091E5023093EE
:10386000DB022093DA029093DF028093DE0262E0B3
:1038700082E00E948B101092A8041093A904109368
:10388000AA0424EF822E99249394A12CB12C809227
:10389000BD049092BE04A092BF04B092C00462E046
:1038A00083E00E948B1010927F0410938004109389
:1038B00081048092940490929504A0929604B09210
:1038C000970460C1C301B2010E940812D090C702E0
:1038D00031E0D31609F48FC1C301B2010E9408126E
:1038E0008091C702813009F4ADC12091E20230918C
:1038F000E3028091DE029091DF022817390709F078
:10390000CBC10E94CC0A08EF1FEF680198E0C90EF6
:10391000D11C60E070E083ED94E00E94CB0F8091B9
:10392000E8029091E9028A3091050CF049C3E9E080
:10393000F0E0F093E004E093DF041093E2040093DE
:10394000E1040E9438188091E8029091E9020A97F8
:103950000CF03DC389E090E09093E0048093DF0495
:103960001093E2040093E1048091E0029091E1025F
:103970000E94381822E130E03093E0042093DF0405
:103980001093E2040093E1048091E6029091E70233
:103990000A9734F46FED71E083ED94E00E945B18B8
:1039A0008091E6029091E7020E94381882E190E04F
:1039B0009093E0048093DF04D092E204C092E1048B
:1039C0008091E6029091E7020A9734F46FED71E07E
:1039D00083ED94E00E945B188091DC029091DD02FF
:1039E0000E9438180E94561660E570E080E090E072
:1039F0000E94C7100F5F1F4F09F087CF8091E80228
:103A00009091E9029093E1028093E0028091E602B6
:103A10009091E7029093DD028093DC022091E60210
:103A20003091E7028091DC029091DD02281739077E
:103A300009F46CC000E010E060E070E083ED94E019
:103A40000E94CB0F8091E8029091E9028A309105A3
:103A50000CF0C8C2E9E0F0E0F093E004E093DF048A
:103A60001092E2041092E1040E94381882E190E082
:103A70009093E0048093DF04C80108979093E204D8
:103A80008093E1048091E6029091E7020A9734F472
:103A90006FED71E083ED94E00E945B188091E60287
:103AA0009091E7020E943818E2E1F0E0F093E00420
:103AB000E093DF041093E2040093E1048091E602B6
:103AC0009091E7020A9734F46FED71E083ED94E092
:103AD0000E945B188091DC029091DD020E943818F0
:103AE0000E94561660E570E080E090E00E94C710EA
:103AF0000F5F1F4F0830110509F09ECF8091E6023D
:103B00009091E7029093DD028093DC022091E40221
:103B10003091E5028091DA029091DB022817390793
:103B200009F067C262E088EA94E00E94A10B843643
:103B3000C1F460E070E083ED94E00E94CB0F10923E
:103B4000E0041092DF041092E2041092E1046BEAA8
:103B500071E083ED94E00E945B180E9456160E946B
:103B60000F0B63E08FE794E00E94A10B992782304E
:103B7000910509F42CC30CF010C3019709F418C384
:103B80000E94F1150E947E112B013C010E94081237
:103B90000091C60210E01093E9020093E802C3010D
:103BA000B2010E9408128091C50290E09093E70252
:103BB0008093E602C301B2010E9408128091C40200
:103BC00090E09093E5028093E402C301B2010E9469
:103BD00008128091CA0290E08E54984F9093E302AD
:103BE0008093E2028091E0029091E10208171907A8
:103BF00009F068CE13CFC301B2010E940812809170
:103C0000C9028A3009F068CEC301B2010E940812CD
:103C10008091C80290E049970CF45ECEC301B201D6
:103C20000E9408128091C80290E080970CF054CE58
:103C30000330110509F050CE80918C03823009F0D9
:103C40004BCE23C4C301B2010E9408128091C90265
:103C5000833009F04ACEC301B2010E94081280915C
:103C6000C80290E049970CF440CEC301B2010E9413
:103C700008128091C80290E080970CF036CE8091B7
:103C8000E8029091E902029709F02FCE80918C030F
:103C9000813009F02ACE00C41EAE1DAE21961FAEA3
:103CA0001EAE219723961FAE1EAE239764E170E0EF
:103CB000CE01CD960E949F172DAD3EAD811111C052
:103CC0002115310519F0C9010E947A251EAE1DAEDD
:103CD00023961FAE1EAE239721961FAE1EAE2197D0
:103CE0000BC084E190E023969FAF8EAF239760ECEA
:103CF00071E0C9010E94FC260E94FB124AE0B1015A
:103D00000E944527F10101900020E9F73197E2195F
:103D1000F30923960EAD1FAD23973097C1F00E0F18
:103D20001F1FB801CE01CD960E949F17882379F0FE
:103D30002DAD3EAD23968EAD9FAD2397B101820F81
:103D4000931F0E94FC2623961FAF0EAF2397239646
:103D50000EAD1FAD2397075F1F4FB801CE01CD9663
:103D60000E949F17882381F02DAD3EAD23968EAD26
:103D70009FAD239765ED71E0820F931F0E94FC2693
:103D800023961FAF0EAF239763E083ED94E00E946C
:103D9000421360E070E083ED94E00E94CB0F94E06A
:103DA000892E912CBFE1AB2EB12CC12CD12C8501D9
:103DB00007511109EE24E394F12C9501A601B601F7
:103DC00083ED94E00E94D60D0E94561666E970E0DD
:103DD00080E090E00E94C7108FEFC81AD80A92E0E6
:103DE000A91AB108E4E0CE16D10409F760E070E04A
:103DF00083ED94E00E94CB0FF1E08F1A910891F6C9
:103E000061961FAE1EAE61978091DB049091DC0439
:103E100002976091D1047091D20423964EAD5FADAC
:103E20002397649F9001659F300D749F300D11247E
:103E3000820F931F6196EEADFFAD6197E817F9070A
:103E400008F073C060E070E083ED94E00E94CB0F57
:103E50006091D1047091D20461968EAD9FAD61974F
:103E60000E94CB245B018090DB049090DC0421E075
:103E7000821A9108881A990A2091DD043091DE0493
:103E8000C901089797FD0196FC01F595E7956396A2
:103E9000FFAFEEAF63978091D1049091D204880D6B
:103EA000991D1816190674F5B7FC2CC023968EAD13
:103EB0009FAD2397A816B906D8F4EDADFEAD3097A7
:103EC00029F41092D202E2EDF2E002C0EA0DFB1DED
:103ED000CC24C394E12CF12C01E010E02081639606
:103EE0004EAD5FAD6397B40183ED94E00E9446133D
:103EF000F1E0AF1AB1088091D1049091D204881AF0
:103F0000990AC9CF0E94561668E270E080E090E0FE
:103F10000E94C71061962EAD3FAD61972F5F3F4F56
:103F200061963FAF2EAF61976FCF74E0872E912CD3
:103F30005FE1A52EB12CC12CD12C850107511109AF
:103F4000EE24E394F12C9501A601B60183ED94E0F3
:103F50000E94D60D0E94561666E970E080E090E05F
:103F60000E94C710FFEFCF1ADF0A22E0A21AB108A1
:103F700034E0C316D10409F760E070E083ED94E00B
:103F80000E94CB0F81E0881A910891F660E083EDE2
:103F900094E00E94421360E070E083ED94E00E94A0
:103FA000CB0F0E9456168DAD9EAD0E947A25809152
:103FB000E2029091E3029093DF028093DE02A1CCB3
:103FC00023E030E03093E0042093DF04B6CCE3E05C
:103FD000F0E0F093E004E093DF04D092E204C092BA
:103FE000E104C2CC23E030E03093E0042093DF040E
:103FF00037CD60E070E083ED94E00E94CB0F8091BC
:10400000E8029091E9028A3091053CF429E030E021
:104010003093E0042093DF0406C0E3E0F0E0F09387
:10402000E004E093DF041092E2041092E1040E94A5
:10403000381822E130E03093E0042093DF0410923E
:10404000E2041092E1048091E6029091E7020A975F
:1040500034F46FED71E083ED94E00E945B18809181
:10406000E6029091E7020E9438188091D9028230CE
:1040700069F118F4813041F070C0833009F445C013
:10408000843009F460C069C0C301B2010E94081203
:104090008091C40290E04E9754F4C301B2010E9493
:1040A00008126091C40270E06F5F7F4F0AC0C301C5
:1040B000B2010E9408128091C4026CE370E0681B98
:1040C000710921E030E047E050E043C080910001F9
:1040D0008823B9F021E030E042E050E060E170E098
:1040E00083ED94E00E94B10C21E030E044E050E028
:1040F00060E170E083ED94E00E94B10C1092000149
:104100002CC081E08093000128C021E030E045E030
:1041100050E06FE070E083ED94E00E94B10C21E08C
:1041200030E046E050E06FE070E083ED94E00E9404
:10413000B10C21E030E045E050E060E170E083ED5B
:1041400094E00E94B10C21E030E046E050E060E1F4
:1041500070E083ED94E00E94B10C0E9456168091AD
:10416000E4029091E5029093DB028093DA02809161
:10417000D7029091D80201969093D8028093D702EB
:10418000893097400CF4CECC0E940F0B81E090E078
:104190009093D8028093D702C5CC8330910509F45F
:1041A0003FC18436910509F0EBCC0E94CC0AE8CCE3
:1041B0008091D9028F5F853008F081E08093D90229
:1041C0008091D90280938E030E942B16D9CC0E9435
:1041D0007E110E9408128090C702912C0E947E11CD
:1041E0000E940812C090C802D12C0E947E110E9429
:1041F0000812A090C902B12C0E94FB129C0188E118
:10420000E3E1F1E0D10101900D928A95E1F781E0BF
:10421000A81AB108F501EE0FFF1F92E0A916B1042C
:10422000B0F0C90183709927892B39F4C90164E67C
:1042300070E00E94B724892B39F4C90160E971E06C
:104240000E94B724892B19F42FEFC21AD20AE20D6B
:10425000F31D80819181C80ED91ED092D602C092E2
:10426000D5028091D5029091D6028114910431F447
:10427000039667E070E00E94CB2407C00A96881975
:10428000990967E070E00E94B7247093D4026093AC
:10429000D30261EE71E0C1010E94F1260E947E11FD
:1042A0000E940812E091C7028E2F90E0FC01319726
:1042B000E730F105D8F4EC5CFF4F0C94DF246FEE8F
:1042C00071E011C069EF71E00EC066E072E00BC0F2
:1042D0006DE072E008C063E172E005C06CE172E07D
:1042E00002C063E272E0C1010E94F1266AE272E05C
:1042F000C1010E94F1266DE272E0C1010E94F12627
:104300006DE272E0C1010E94F1266AE272E0C10131
:104310000E94F1266FE272E0C1010E94F126612C39
:10432000712CF10101900020E9F73197E219F309AE
:104330008091DB049091DC0402974091D10450916C
:10434000D204E49F9001E59F300DF49F300D1124BD
:10435000820F931F6816790608F012CC60E070E0B7
:1043600083ED94E00E94CB0F6091D1047091D20450
:10437000C3010E94CB244B01A090DB04B090DC046D
:1043800031E0A31AB108A81AB90A8091DD0490910E
:10439000DE042C01E8E04E1A510857FE04C02C013F
:1043A000F7E04F1A5108559447948091D1049091A9
:1043B000D2048A0D9B1D1816190634F597FC24C0EB
:1043C000F10101900020E9F73197E219F3098E1607
:1043D0009F0680F4CC24C394E12CF12C01E010E082
:1043E000F101E80DF91D2081A201B50183ED94E0F2
:1043F0000E94461321E0821A91088091D104909185
:10440000D204A81AB90AD1CF0E94561668E270E009
:1044100080E090E00E94C7103FEF631A730A81CFDB
:10442000C12CD12C8091DB049091DC040197C8163B
:10443000D9060CF0A5CB60E070E083ED94E00E941B
:10444000CB0F0091DD041091DE0401501109209181
:10445000DB043091DC04215031092C193D09EE2494
:10446000E394F12C40E050E0B60183ED94E00E942B
:10447000250E0E94561660E570E080E090E00E94F4
:10448000C7108FEFC81AD80ACDCFD0928C030E94E4
:104490002B160E940F0B20CA82E080938C030E948F
:1044A0002B160E940F0B21CA81E991E090936104C1
:1044B0008093600480E694E00C9434070F931F937C
:1044C000CF93DF93C3EAD1E0D093FF04C093FE04FF
:1044D000109200051092010510920205109203053A
:1044E000109297031092960388EE93E0A0E0B0E05C
:1044F0008093980390939903A0939A03B0939B039E
:1045000085E491E0909395038093940385EC90E08B
:104510009093A1038093A00384EC90E09093A30375
:104520008093A20380EC90E09093A5038093A40372
:1045300081EC90E09093A7038093A60382EC90E037
:104540009093A9038093A80386EC90E09093AB032B
:104550008093AA031092AD031092AE031092AF03A2
:104560001092B003D0932405C09323051092250523
:1045700010922605109227051092280500E210E0FF
:104580001093F7040093F60481E290E00E94E52482
:104590009093F9048093F8049C01205E3F4F309380
:1045A000FB042093FA049093FD048093FC0421E221
:1045B000FC0111922A95E9F7D0930505C0930405F3
:1045C0001092060510920705109208051092090531
:1045D000D0930B05C0930A0510920C0510920D059F
:1045E00010920E0510920F05D0931105C09310057F
:1045F00010921205109213051092140510921505D1
:10460000D0931705C093160510921805109219053E
:1046100010921A0510921B05D0931E05C0931D051C
:1046200010921F051092200510922105109222056C
:104630001092D6041092D5041093D8040093D70496
:1046400088E090E09093DA048093D9041093DC041E
:104650000093DB049093DE048093DD041092E80461
:104660001092E0041092DF041092E2041092E10430
:1046700081E08093E7042FEF3FEF3093E60420932F
:10468000E5043093E4042093E3048093E90410925A
:10469000EA041092EC041092EB0489E791E0909305
:1046A000D4048093D3048AE08093ED0484E0809363
:1046B000F10480E28093F00480E290E00E94E5241F
:1046C0009093EF048093EE0484E090E00E94E52450
:1046D0009093F5048093F40484E090E00E94E52434
:1046E0009093F3048093F20480E090E0E091F20470
:1046F000F091F304E80FF91F8083E091F404F09146
:10470000F504E80FF91F108201968430910571F7C6
:10471000CFB7F89480911C05811127C0EEEAF7E02D
:104720008491EAE9F7E09491E82FF0E0EE0FFF1FA3
:10473000EA57F84FA591B491EC91E92321F461E097
:104740008AE00E945B1061E08AE00E948B108CB5C9
:1047500080618CBD8CB580648CBD61E08DE00E9471
:104760008B1061E08BE00E948B1080911C058F5FA5
:1047700080931C05CFBF61E08091ED040E948B10F7
:1047800060E070E083ED94E00E94CB0F40E06FE0CA
:1047900083ED94E00E94051347E06BE083ED94E025
:1047A0000E94051340E069E083ED94E00E94051348
:1047B00041E06CE083ED94E00E94051367E083ED37
:1047C00094E00E94421386E090E09093D20480939C
:1047D000D1041092AB041092B9041092BA04109252
:1047E000BB041092BC0488EE93E0A0E0B0E080939C
:1047F000AD049093AE04A093AF04B093B00442E331
:1048000050E060E070E04093B1045093B2046093D4
:10481000B3047093B4041092820410929004109226
:1048200091041092920410929304809384049093C4
:104830008504A0938604B093870440938804509322
:10484000890460938A0470938B041092630410921D
:1048500062048093640490936504A0936604B0930B
:10486000670481E991E09093610480936004109261
:1048700077041092760410927904109278041092C2
:104880007B0410927A0410927D0410927C04609153
:104890007E046E7F6D7F60937E046695617081E01B
:1048A000682787E00E945B1061E087E00E948B1020
:1048B000E7E9F7E0E491E0937004EBEAF7E0E491D4
:1048C000F0E0EE0FFF1FEE58F84F85919491909312
:1048D00072048093710460E086E00E948B108091E6
:1048E0007E0481FD04C061E086E00E945B1086E0EA
:1048F00080936C04E6E9F7E0E491E0936D04EAEA62
:10490000F7E0E491F0E0EE0FFF1FE458F84F8591D7
:10491000949190936F0480936E04109234041092DB
:10492000330488EE93E0A0E0B0E0809335049093E8
:104930003604A0933704B093380485E591E0909352
:104940003204809331048FEF80933D04DF91CF9147
:104950001F910F910895991B79E004C0991F961734
:1049600008F0961B881F7A95C9F780950895AA1BB1
:10497000BB1B51E107C0AA1FBB1FA617B70710F04A
:10498000A61BB70B881F991F5A95A9F7809590957C
:10499000BC01CD01089597FB072E16F4009407D0B3
:1049A00077FD09D00E94B72407FC05D03EF490950E
:1049B00081959F4F0895709561957F4F0895EE0FF3
:1049C000FF1F0590F491E02D0994CF93DF9382307F
:1049D000910510F482E090E0E0912B05F0912C0518
:1049E00020E030E0C0E0D0E0309711F1408151810B
:1049F00048175907C0F04817590761F4828193811D
:104A0000209719F09B838A832BC090932C05809369
:104A10002B0526C02115310519F04217530718F44C
:104A20009A01BE01DF01EF010280F381E02DDCCFAE
:104A30002115310509F1281B390B2430310590F47B
:104A400012968D919C9113976115710521F0FB01D0
:104A50009383828304C090932C0580932B05FD01E2
:104A6000329644C0FD01E20FF31F819391932250CF
:104A700031092D933C933AC02091290530912A05A4
:104A8000232B41F420910B0130910C0130932A0526
:104A9000209329052091090130910A012115310542
:104AA00041F42DB73EB740910D0150910E01241BEA
:104AB000350BE0912905F0912A05E217F307A0F4E0
:104AC0002E1B3F0B2817390778F0AC014E5F5F4F64
:104AD0002417350748F04E0F5F1F50932A05409367
:104AE00029058193919302C0E0E0F0E0CF01DF91CE
:104AF000CF9108950F931F93CF93DF93009709F4FD
:104B00008CC0FC0132971382128200912B05109108
:104B10002C050115110581F420813181820F931F2D
:104B20002091290530912A052817390779F5F09346
:104B30002A05E093290571C0D80140E050E0AE1786
:104B4000BF0750F412962D913C911397AD0121159A
:104B5000310509F1D901F3CF9D01DA0133832283B5
:104B600060817181860F971F8217930769F4EC01AA
:104B700028813981260F371F2E5F3F4F31832083D5
:104B80008A819B8193838283452B29F4F0932C05A2
:104B9000E0932B0542C01396FC93EE931297ED0120
:104BA000499159919E01240F351FE217F30771F4C3
:104BB00080819181840F951F029611969C938E930C
:104BC0008281938113969C938E931297E0E0F0E09C
:104BD000D80112968D919C911397009719F0F801C6
:104BE0008C01F6CF8D919C9198012E5F3F4F820FE3
:104BF000931F2091290530912A052817390769F458
:104C0000309729F410922C0510922B0502C01382C4
:104C1000128210932A0500932905DF91CF911F91ED
:104C20000F910895A0E0B0E0E8E1F6E20C948E2A3E
:104C3000EC01009721F4CB010E94E524B8C0FC01EF
:104C4000E60FF71F9C0122503109E217F30708F421
:104C5000ACC0D9010D911C91119706171707B0F040
:104C60000530110508F49FC0C801049786179707FF
:104C700008F499C002501109061B170B01931193F8
:104C80006D937C93CF010E947A258DC05B01A01AA1
:104C9000B10A4C01800E911EA0912B05B0912C05FC
:104CA00040E050E0E12CF12C109709F44AC0A8151F
:104CB000B905D1F56D907C901197630182E0C80E23
:104CC000D11CCA14DB0480F1A3014A195B096A01F3
:104CD00082E0C80ED11C1296BC9012971396AC912C
:104CE000B5E0CB16D10440F0B282A3835183408358
:104CF000D9016D937C930AC00E5F1F4FC301800FD3
:104D0000911FF90191838083EB2DFA2FE114F104B7
:104D100031F0D7011396FC93EE93129744C0F093B1
:104D20002C05E0932B053FC08D919C91119748175E
:104D3000590708F4AC017D0112960D90BC91A02D8D
:104D4000B3CF8091290590912A0588159905E1F442
:104D500046175707C8F48091090190910A010097FE
:104D600041F48DB79EB740910D0150910E01841B07
:104D7000950BE817F907C8F4F0932A05E093290585
:104D8000F901718360830FC0CB010E94E5247C018F
:104D9000009759F0A801BE010E94E126CE010E94B1
:104DA0007A25C70104C0CE0102C080E090E0CDB7F3
:104DB000DEB7EEE00C94AA2A81E090E0F8940C941F
:104DC000D02AFB01DC0102C001900D9241505040FD
:104DD000D8F70895DC0101C06D9341505040E0F7D1
:104DE0000895FB01DC010D900020E9F71197019077
:104DF0000D920020E1F70895FB01DC0101900D9276
:104E00000020E1F70895FB01DC014150504048F0DB
:104E100001900D920020C9F701C01D9241505040F1
:104E2000E0F70895AEE0B0E0E8E1F7E20C94982AEC
:104E30000D891E8986E08C831A8309838FEF9FE793
:104E40009E838D83AE01475E5F4F6F89788DCE0163
:104E500001960E94B9272F813885F801E20FF31FD0
:104E600010822E96E4E00C94B42AFB01DC0105903C
:104E70000D920020E1F70895FC0105900020E9F76C
:104E8000809590958E0F9F1F0895BB274A3031F46F
:104E9000992322F4BDE2909581959F4F0C94512760
:104EA000BB27FB015527AA27880F991FAA1FA41704
:104EB00010F0A41B83955051B9F7A05DAA3308F0F8
:104EC000A95DA193009779F7B111B1931192CB012C
:104ED0000C94A129AEE0B0E0E0E7F7E20C94982A48
:104EE0000D891E898EE08C831A8309838FEF9FE7DB
:104EF0009E838D83AE01475E5F4F6F89788DCE01B3
:104F000001960E94B9272F813885F801E20FF31F1F
:104F100010822E96E4E00C94B42AAEE0B0E0E3E90F
:104F2000F7E20C94982A8C01CA014EE04C831A8354
:104F3000098377FF02C060E070E8FB013197FE83D0
:104F4000ED83A901BC01CE0101960E94B9274D81D4
:104F50005E8157FD0AC02F813885421753070CF434
:104F60009A01F801E20FF31F10822E96E4E00C94F0
:104F7000B42AACE0B0E0EFEBF7E20C948A2A7C01B3
:104F80006B018A01FC0117821682838181FFBDC1FA
:104F9000CE0101964C01F7019381F60193FD8591B5
:104FA00093FF81916F01882309F4ABC1853239F4F5
:104FB00093FD859193FF81916F01853229F4B701AB
:104FC00090E00E94B129E7CF512C312C20E0203213
:104FD000A0F48B3269F030F4803259F0833269F4F6
:104FE00020612CC08D3239F0803339F4216026C025
:104FF0002260246023C0286021C027FD27C030ED37
:10500000380F3A3078F426FF06C0FAE05F9E300D84
:105010001124532E13C08AE0389E300D1124332EF4
:1050200020620CC08E3221F426FD6BC1206406C0C4
:105030008C3611F4206802C0883641F4F60193FDE5
:10504000859193FF81916F018111C1CF982F9F7D31
:105050009554933028F40C5F1F4FFFE3F9830DC084
:10506000833631F0833771F0833509F05BC022C09D
:10507000F801808189830E5F1F4F44244394512C93
:10508000540115C03801F2E06F0E711CF801A080C8
:10509000B18026FF03C0652D70E002C06FEF7FEF87
:1050A000C5012C870E9496292C0183012C852F771E
:1050B000222E17C03801F2E06F0E711CF801A0809B
:1050C000B18026FF03C0652D70E002C06FEF7FEF57
:1050D000C5012C870E948B292C012C852068222E4B
:1050E000830123FC1BC0832D90E048165906B0F4C1
:1050F000B70180E290E00E94B1293A94F4CFF50123
:1051000027FC859127FE81915F01B70190E00E9405
:10511000B12931103A94F1E04F1A51084114510469
:1051200071F7E5C0843611F0893639F5F80127FFAB
:1051300007C060817181828193810C5F1F4F08C01D
:1051400060817181072E000C880B990B0E5F1F4F39
:105150002F76722E97FF09C0909580957095619576
:105160007F4F8F4F9F4F2068722E2AE030E0A401BE
:105170000E94E929A82EA81844C0853729F42F7E5B
:10518000B22E2AE030E025C0F22FF97FBF2E8F36F5
:10519000C1F018F4883579F0B4C0803719F0883739
:1051A00021F0AFC02F2F2061B22EB4FE0DC08B2D89
:1051B0008460B82E09C024FF0AC09F2F9660B92EC4
:1051C00006C028E030E005C020E130E002C020E168
:1051D00032E0F801B7FE07C060817181828193815E
:1051E0000C5F1F4F06C06081718180E090E00E5F10
:1051F0001F4FA4010E94E929A82EA818FB2DFF77B4
:105200007F2E76FE0BC0372D3E7FA51450F474FE22
:105210000AC072FC08C0372D3E7E05C0BA2C372D5F
:1052200003C0BA2C01C0B52C34FF0DC0FE01EA0D3D
:10523000F11D8081803311F4397E09C032FF06C030
:10524000B394B39404C0832F867809F0B39433FDEC
:1052500013C030FF06C05A2CB31418F4530C5B185B
:10526000B32CB31468F4B70180E290E03C870E944D
:10527000B129B3943C85F5CFB31410F43B1801C0A9
:10528000312C34FF12C0B70180E390E03C870E94CC
:10529000B1293C8532FF17C031FD03C088E790E09B
:1052A00002C088E590E0B7010CC0832F867859F0E2
:1052B00031FF02C08BE201C080E237FD8DE2B70111
:1052C00090E00E94B129A51438F4B70180E390E082
:1052D0000E94B1295A94F7CFAA94F401EA0DF11D66
:1052E0008081B70190E00E94B129A110F5CF332051
:1052F00009F451CEB70180E290E00E94B1293A94BE
:10530000F6CFF7018681978102C08FEF9FEF2C9631
:10531000E2E10C94A62AFC01059061507040011056
:10532000D8F7809590958E0F9F1F0895FC016150CE
:10533000704001900110D8F7809590958E0F9F1FB7
:105340000895DC01FC01672F71917723E1F7329713
:1053500004C07C916D9370836291AE17BF07C8F350
:1053600008950F931F93CF93DF93FB01238121FDBA
:1053700003C08FEF9FEF28C022FF16C046815781E0
:10538000248135814217530744F4A081B1819D01E6
:105390002F5F3F4F318320838C93268137812F5F8E
:1053A0003F4F3783268310C0EB01092F182F00844D
:1053B000F185E02D0995892BE1F68E819F8101967B
:1053C0009F838E83812F902FDF91CF911F910F911B
:1053D0000895FA01AA27283051F1203181F1E8948B
:1053E0006F936E7F6E5F7F4F8F4F9F4FAF4FB1E0D8
:1053F0003ED0B4E03CD0670F781F891F9A1FA11DD3
:10540000680F791F8A1F911DA11D6A0F711D811DD3
:10541000911DA11D20D009F468943F912AE0269F98
:1054200011243019305D3193DEF6CF010895462FF7
:105430004770405D4193B3E00FD0C9F7F6CF462FD8
:105440004F70405D4A3318F0495D31FD4052419341
:1054500002D0A9F7EACFB4E0A695979587957795FE
:105460006795BA95C9F700976105710508959B0185
:10547000AC010A2E06945795479537952795BA950E
:10548000C9F7620F731F841F951FA01D0895F99916
:10549000FECF92BD81BDF89A992780B50895262F39
:1054A000F999FECF1FBA92BD81BD20BD0FB6F89409
:1054B000FA9AF99A0FBE01960895A1E21A2EAA1B34
:1054C000BB1BFD010DC0AA1FBB1FEE1FFF1FA217B4
:1054D000B307E407F50720F0A21BB30BE40BF50BB1
:1054E000661F771F881F991F1A9469F7609570953A
:1054F000809590959B01AC01BD01CF0108950E945C
:10550000C12AA59F900DB49F900DA49F800D911D61
:10551000112408952F923F924F925F926F927F9243
:105520008F929F92AF92BF92CF92DF92EF92FF92B3
:105530000F931F93CF93DF93CDB7DEB7CA1BDB0B5F
:105540000FB6F894DEBF0FBECDBF09942A88398804
:1055500048885F846E847D848C849B84AA84B9840B
:10556000C884DF80EE80FD800C811B81AA81B98117
:10557000CE0FD11D0FB6F894DEBF0FBECDBFED012B
:105580000895A29FB001B39FC001A39F700D811D1C
:105590001124911DB29F700D811D1124911D08953C
:1055A00013E0CDEDD3E004C0FE010E94DF2421967C
:0A55B000CE3DD107C9F7F894FFCFF4
:1055BA0001FFFFFFFFFFFFFFFF00002D0580000135
:1055CA0000000000001F003B005A0078009700B559
:1055DA0000D400F300110130014E018E0295029FA2
:1055EA0002A802B4021F1C1F1E1F1E1F1F1E1F1E01
:1055FA001F000000003617AB18E515C315D7157D37
:10560A001700000000310402095605220820041F71
:10561A0004BC094A04E004270547042A0458045133
:10562A00040D04080400000000EC14AB18B10C25AA
:10563A000EBF0DA90DD60D740DCB0F550D00000030
:10564A0000E80EAB183C0F540FCF0EE70E01000016
:10565A00000000750F00000000C90F4E5450005B97
:10566A00576946694573705D200057466F66660044
:10567A00537A637A65736C697765676F204E4F5703
:10568A0045474F200020524F4B5520212121003001
:10569A0000447A697369616A206A65737420004EEE
:1056AA006965647A69656C6100506F6E6965647AD0
:1056BA0069616C656B0057746F72656B0053726F2A
:1056CA00646100437A77617274656B005069617432
:1056DA00656B00536F626F7461002C20002F0020ED
:1056EA00647A69656E20726F6B7500534B594E452B
:1056FA00543300613161316131613161316131614C
:10570A00316131613161310025642E25642E2564B1
:10571A002E2564002B4950442C002C434C4F5345F2
:10572A00440D0A003E00766567612E63626B2E7037
:10573A006F7A6E616E2E706C007A65726F000D0A58
:10574A004F4B0D0A000D0A4552524F520D0A000DD9
:10575A000A4641494C0D0A000D0A53454E44204F52
:10576A004B0D0A0020434F4E4E4543540D0A00008C
:00000001FF
