:100000000C94F5030C941D040C941D040C94920A9A
:100010000C94920A0C94920A0C941D040C941D04E6
:100020000C941D040C941D040C941D040C941D04CC
:100030000C941D040C941D040C941D040C941D04BC
:100040000C94DF200C941D040C9490220C94C2227A
:100050000C941D040C941D040C941D040C941D049C
:100060000C941D040C941D04F218F518F818FB18D4
:10007000FE180119041900000000003E5B4F5B3EB2
:100080003E6B4F6B3E1C3E7C3E1C183C7E3C181C5D
:10009000577D571C1C5E7F5E1C00183C1800FFE754
:1000A000C3E7FF0018241800FFE7DBE7FF30483AFA
:1000B000060E2629792926407F050507407F05255C
:1000C0003F5A3CE73C5A7F3E1C1C08081C1C3E7FE4
:1000D00014227F22145F5F005F5F06097F017F00AB
:1000E0006689956A606060606094A2FFA2940804CB
:1000F0007E040810207E201008082A1C08081C2AEC
:1001000008081E101010100C1E0C1E0C30383E3843
:1001100030060E3E0E06000000000000005F0000EA
:100120000007000700147F147F14242A7F2A12235B
:100130001308646236495620500008070300001C6B
:100140002241000041221C002A1C7F1C2A08083E74
:100150000808008070300008080808080000606087
:100160000020100804023E5149453E00427F4000F5
:1001700072494949462141494D331814127F1027CD
:10018000454545393C4A494931412111090736491C
:10019000494936464949291E0000140000004034F0
:1001A00000000008142241141414141400412214F5
:1001B0000802015909063E415D594E7C1211127C1C
:1001C0007F494949363E414141227F4141413E7F7D
:1001D000494949417F090909013E414151737F085D
:1001E00008087F00417F41002040413F017F081403
:1001F00022417F404040407F021C027F7F04081064
:100200007F3E4141413E7F090909063E4151215E41
:100210007F09192946264949493203017F01033FD5
:100220004040403F1F2040201F3F4038403F631464
:1002300008146303047804036159494D43007F4166
:1002400041410204081020004141417F04020102A3
:1002500004404040404000030708002054547840C8
:100260007F284444383844444428384444287F385C
:100270005454541800087E090218A4A49C787F08DE
:1002800004047800447D40002040403D007F102859
:10029000440000417F40007C047804787C0804041A
:1002A000783844444438FC1824241818242418FCB2
:1002B0007C08040408485454542404043F44243C57
:1002C0004040207C1C2040201C3C4030403C4428C6
:1002D0001028444C9090907C4464544C4400083660
:1002E00041000000770000004136080002010204CE
:1002F000023C2623263C1EA1A161123A4040207AEE
:100300003854545559215555794122545478422135
:100310005554784020545579400C1E52721239556C
:100320005555593954545459395554545800004569
:100330007C410002457D420001457C407D12111246
:100340007DF0282528F07C545545002054547C54D9
:100350007C0A097F4932494949323A4444443A3295
:100360004A4848303A4141217A3A42402078009D3B
:10037000A0A07D3D4242423D3D4040403D3C24FFE7
:100380002424487E4943662B2FFC2F2BFF0929F696
:1003900020C0887E090320545479410000447D41E7
:1003A0003048484A32384040227A007A0A0A727D40
:1003B0000D19317D2629292F28262929292630485B
:1003C0004D4020380808080808080808382F10C8C9
:1003D000ACBA2F102834FA00007B000008142A144D
:1003E0002222142A14085500550055AA55AA55AAC8
:1003F000FF55FF55FF000000FF00101010FF001414
:100400001414FF001010FF00FF1010F010F014146F
:1004100014FC001414F700FF0000FF00FF1414F494
:1004200004FC141417101F10101F101F1414141F95
:1004300000101010F0000000001F101010101F100E
:10044000101010F010000000FF101010101010100D
:100450001010FF10000000FF140000FF00FF00005C
:100460001F10170000FC04F414141710171414F4D0
:1004700004F40000FF00F714141414141414F7000B
:10048000F7141414171410101F101F141414F4145C
:100490001010F010F000001F101F0000001F1400CB
:1004A0000000FC140000F010F01010FF10FF1414F6
:1004B00014FF141010101F00000000F010FFFFFFC9
:1004C000FFFFF0F0F0F0F0FFFFFF0000000000FF82
:1004D000FF0F0F0F0F0F3844443844FC4A4A4A3488
:1004E0007E02020606027E027E026355494163389F
:1004F00044443C04407E201E2006027E020299A550
:10050000E7A5991C2A492A1C4C7201724C304A4DAD
:100510004D303048784830BC625A463D3E494949E2
:10052000007E0101017E2A2A2A2A2A44445F44448B
:1005300040514A444040444A51400000FF0103E01A
:1005400080FF000008086B6B083612362436060F51
:10055000090F06000018180000001010003040FFBE
:100560000101001F01011E00191D1712003C3C3C37
:100570003C0000000000496E697469616C697A6929
:100580006E6720455350206D6F64756C65003E3E6C
:100590003E2054494D454F5554203E3E3E004E6F3F
:1005A0002074616720666F756E6400456E64207408
:1005B0006167206E6F7420666F756E6400446174AD
:1005C00061207061636B65742073656E6420657271
:1005D000726F722028322900446174612070616357
:1005E0006B65742073656E64206572726F7220286B
:1005F00031290041542B43495053454E443D256415
:100600002C25752C222573222C25750054494D4527
:100610004F55543A0054616720434C4F5345442092
:100620006E6F7420666F756E640041542B434950A1
:1006300053544152543D25642C22554450222C22BF
:100640002573222C302C25752C320041542B434924
:100650005053544152543D25642C22544350222C73
:10066000222573222C25750041542B474D520053EF
:10067000444B2076657273696F6E3A000D0A004133
:10068000542B4349505354415455530053544154EF
:1006900055533A000D0A004661696C656420746F19
:1006A00020636F6E6E656374656420746F00436FC2
:1006B0006E6E656374656420746F0041542B4357FC
:1006C0004A41505F4355523D222573222C22257307
:1006D000220041542B4357444843503D312C3100B4
:1006E00041542B43574155544F434F4E4E3D3000DC
:1006F00041542B43495044494E464F3D31004154EB
:100700002B4349504D55583D310041542B43574DD3
:100710004F44453D3100415445300041542B525324
:100720005400496E6974696C697A6174696F6E20EE
:100730007375636365737366756C202D0057617202
:100740006E696E673A20556E737570706F7274655E
:1007500064206669726D776172650043616E6E6FC9
:100760007420696E697469616C697A6520455350BB
:10077000206D6F64756C6500415400000000080036
:100780000201000003040700000000000000000157
:100790000204081020408001020408102001020415
:1007A00008102004040404040404040202020202E7
:1007B00002030303030303000000002300260029B3
:1007C0000000000000250028002B0000000000248D
:1007D0000027002A00009D0EA80EB30E50106816C8
:1007E000E817F22290237816401811241FBECFEF8D
:1007F000D8E0DEBFCDBF12E0A0E0B1E0E0E9FEE569
:1008000002C005900D92AC3DB107D9F725E0ACEDE3
:10081000B2E001C01D92A337B207E1F717E0C6EEC0
:10082000D7E004C02297FE010E944D29C63DD107A2
:10083000C9F70E94A0230C943B2F0C9400002F9228
:100840003F924F925F926F927F928F929F92AF9260
:10085000BF92CF92DF92EF92FF920F931F93CF93AD
:10086000DF9300D000D0CDB7DEB74C017C836B8323
:100870006A015901C8018701AC014C195D0957FF94
:1008800003C051954195510995016B817C81261BCF
:10089000370B37FF03C0319521953109222423946A
:1008A000312C2417350714F0212C312C211431045C
:1008B00059F03A2D2B2D5C01832F922F3B812C81F7
:1008C000DC82CB82C32ED22EAB81BC81AA16BB06A2
:1008D0005CF43C2D2D2D6C01832F922F3B812C81BC
:1008E000BC82AB82A32EB22E2501EB81FC814E1A75
:1008F0005F0A3C016C187D0877FE03C07194619417
:100900007108720157FE03C0FFEFEF1AFF0AF5945A
:10091000E794C816D9062CF421E030E03A83298305
:1009200024C06FEF7FEF7A8369831FC0D401ED91FC
:10093000FC910480F581E02D980121143104D9F057
:100940004B815C81B601C4010995E618F708F7FEF2
:1009500006C0E981FA81CE0EDF1EE40CF51C2B8166
:100960003C812F5F3F4F3C832B836B817C81A6169C
:10097000B706E4F604C0A6016B817C81E4CF0F903A
:100980000F900F900F90DF91CF911F910F91FF90DB
:10099000EF90DF90CF90BF90AF909F908F907F901F
:1009A0006F905F904F903F902F9008956F927F923D
:1009B0008F929F92AF92BF92CF92DF92EF92FF926F
:1009C0000F931F93CF93DF93EC015B016A01390111
:1009D0004801E881F9810284F385E02D87010995BA
:1009E000E881F981A601480D591D41505109028441
:1009F000F385E02D9301B501CE010995E881F981D8
:100A00000084F185E02D9401A601B501CE01099580
:100A1000E881F981B501660D771D61507109008487
:100A2000F185E02D9401A601CE010995DF91CF91CA
:100A30001F910F91FF90EF90DF90CF90BF90AF90FC
:100A40009F908F907F906F900895EF92FF920F93F9
:100A50001F93DC01ED91FC91240F351F21503109CA
:100A60000680F781E02D780189019B0109951F918E
:100A70000F91FF90EF900895EF92FF920F931F93C5
:100A8000DC01ED91FC91260F371F215031090680C2
:100A9000F781E02D78018A0109951F910F91FF9050
:100AA000EF9008956F927F928F929F92AF92BF9234
:100AB000CF92DF92EF92FF920F931F93CF93DF932A
:100AC0005C014A0169013801EB01C60ED71ECC1545
:100AD000DD0574F4D501ED91FC910084F185E02DE4
:100AE00087019301A401BE01C50109952196EFCFAD
:100AF000DF91CF911F910F91FF90EF90DF90CF90FA
:100B0000BF90AF909F908F907F906F900895EF92DD
:100B1000FF920F931F93DC01ED91FC9111971A96B0
:100B20000D911C911B9718962D913C911997068455
:100B3000F785E02D7B0140E050E060E070E0099532
:100B40001F910F91FF90EF9008950895FC0113827B
:100B5000128282E491E0918380837583648357835A
:100B600046837187608753874287158A1586148666
:100B70001786168621E0248B8FEF9FEF938B828B55
:100B8000918B808B268B178A118E108E08952F9251
:100B90003F924F925F926F927F928F929F92AF920D
:100BA000BF92CF92DF92EF92FF920F931F93CF935A
:100BB000DF93CDB7DEB769970FB6F894DEBF0FBEEF
:100BC000CDBF1C015F834E8319870887FC86EB86A7
:100BD000CB82DC0158964D915C9159974115510596
:100BE00009F0A6C018968D919C91199768177907FE
:100BF0000CF050C11A968D919C911B97EE81FF814C
:100C0000E817F9070CF046C1D12CCB013B81F6E087
:100C10003F9F800D911D1124181619060CF03AC142
:100C2000C601E3E0880F991FEA95E1F74E815F81E5
:100C3000840F951F181619060CF02CC157968C912D
:100C4000811103C0203B08F02F5F7E876D874B0129
:100C5000198266E7A62E60E0B62EA818B90855E0FE
:100C6000259FA00CB11C11248981853039F0ED85B8
:100C7000FE85EA0DFB1D94919C8301C01C826E8051
:100C80007F802301A8E0AA87BC81B0FF12C0D101F8
:100C9000ED91FC91BB81B13031F40480F581E02D00
:100CA0002885398518C00684F785E02DE884F98405
:100CB0001DC0EB85FC8528853985E217F307E1F037
:100CC000D101ED91FC91BB81B13059F40480F581E3
:100CD000E02D2B853C85A2016D857E85C10109959E
:100CE0000BC00684F785E02DEB84FC848601960119
:100CF000A301B401C1010995EC81E695EC83FA8565
:100D0000F150FA876C0C7D1C2FEF421A520AF11138
:100D1000BBCF39813F5F39838C0C9D1C4D855E852F
:100D20004F5F5F4F5E874D87363009F09DCFB2C071
:100D3000FA0134963491329785919491231BA7E060
:100D40002A9F800D911D1124FA0125913491398B30
:100D5000288BFC0145905490FC01329634913B87DE
:100D6000319644914F873196E491FC013596249158
:100D7000319684915B81523050F0A22EBB24A7FCA7
:100D8000B094A82FBB27A7FDB095BE87AD87BB81C8
:100D9000CB2ED12CAC9C3001AD9C700CBC9C700C4B
:100DA0001124660E771EB12CA12CDD8ACC8AFB01A2
:100DB000E20FF11D27FDFA95FD83EC832E813F8123
:100DC000280F311D87FD3A953F8B2E8B5F85A51629
:100DD00008F060C08A2D90E02D853E85280F391FD0
:100DE0002C9DD0012D9DB00D3C9DB00D1124EE81A8
:100DF000FF81EA0FFB1FFA83E9832C813D81398F44
:100E0000288F43014E895F89480F591F5B8B4A8B9E
:100E1000888D3C81831B4B858417D0F5B1100BC0A6
:100E2000C2010196E889F989E40DF51D34913A87EC
:100E30002C0150E8B52E8A858B21F1F0D101ED917E
:100E4000FC91BB81B13061F40480F581E02D2885EF
:100E500039854A895B89688D798DC10109950CC0F6
:100E60000684F785E02DE884F9848601960149819E
:100E70005A81B401C1010995B694EC89FD898E0EA1
:100E80009F1E288D398D2F5F3F4F398F288FC0CF00
:100E9000A3949CCF69960FB6F894DEBF0FBECDBF6A
:100EA000DF91CF911F910F91FF90EF90DF90CF9046
:100EB000BF90AF909F908F907F906F905F904F907A
:100EC0003F902F900895AF92BF92CF92EF92FF92F2
:100ED0000F931F93CF93DF93EC01262F888D998D6D
:100EE000009709F042C06A3069F42C898E859F858D
:100EF00038E0239F800D911D11249F878E871D86CA
:100F00001C86ABC06D3009F4A8C08E898823C1F05F
:100F10003C898C859D8546E0349F800D911D112470
:100F200048855985841795075CF01D861C868E853B
:100F30009F85E8E03E9F800D911D11249F878E873D
:100F4000EA88FB88088919894E855F856C857D85CF
:100F5000CC88CE010E94C7052C898C859D85F6E042
:100F60002F9F800D911D112441C06A3079F41D8698
:100F70001C864C89FC01369684912E853F85489FBE
:100F8000200D311D11243F872E8767C06D3009F475
:100F900064C0AC014C5F5F4FFA013491631708F4F1
:100FA0005CC03196E491E61708F457C0FA01449109
:100FB000362F341BFC013296A590B490F7E03F9F8A
:100FC000A00CB11C1124F5013296A4913196E49144
:100FD000AA2311F0E1110DC0F5013496A4902C89DB
:100FE0008C859D85A29E800D911D11249D878C87E7
:100FF00034C0F5013596E4913E89332309F13C89EB
:10100000B0E0AE0FB11DE7FDBA953A9FA0013B9F3E
:10101000500D11246C857D85460F571F6885798595
:10102000461757076CF01D861C86FC013696849186
:101030004E855F85389F400D511D11245F874E8777
:10104000EA88FB88088919894E855F856C857D85CE
:10105000CC88CE010E94C705BFCF81E090E0DF9130
:10106000CF911F910F91FF90EF90CF90BF90AF90D5
:101070000895FC0175876487578746870895FC01AA
:10108000808591850895FC01828593850895FF925E
:101090000F931F93CF93DF93FC01742F85898823CF
:1010A00091F0823020F090859150961B692F9FEF30
:1010B000980F923018F472857150741B80FF03C032
:1010C000862F672F782F67FD7BC0462F552747FD5A
:1010D0005095C481D5814C175D070CF071C0872FE6
:1010E00090E0A681B7818A179B070CF069C0F68C47
:1010F000A3E055954795AA95E1F7B3E095958795B7
:10110000BA95E1F7F89E8001F99E100D1124A78D84
:10111000B0A1A40FB51FA00FB11F1C91562F57707F
:10112000472F4770A1A1B2A1A10FB11D8C918230B0
:1011300018F097E0951B592F9FEF980F923018F4F5
:1011400097E0941B492F80FF03C0852F542F482F11
:10115000812F6F2D0E94EA288F9D10191124652F71
:1011600098E0199F600D1124742F98E0899F700DED
:101170001124472F50E083E0559547958A95E1F774
:10118000C49FC001C59F900DD49F900D1124860F60
:10119000911D67FD9A95038CF48DE02DE80FF91FE2
:1011A000777081E090E0072E01C0880F0A94EAF77B
:1011B0004081232B11F0842B02C0809584238083EF
:1011C000DF91CF911F910F91FF900895FC01458D04
:1011D00050E0672B19F06FEF70E002C060E070E044
:1011E000FC01838D948D0C94AC2B8EBD00000DB44E
:1011F00007FEFDCF8EB50895EF92FF920F931F93D8
:10120000CF93DF93EC01062FE42E60E08A8D0E94DD
:101210002F22FF24FA94F00E1D8D1F0D1850802FE1
:101220000E94F508093030F4EB8DFC8DE10FF11DC3
:10123000808101C08E2D0E94F508F11678F361E0DF
:101240008A8DDF91CF911F910F91FF90EF900C94B9
:101250002F22462F21E042276CE00C94FC08462FF9
:101260006AE00C94FC08FF920F931F93CF93DF93D7
:10127000EC01062F142FF22E88E0289FA0011124E4
:1012800088E0189FB0011124CE010E94A6058AE5CE
:1012900091E0998388830A8FF19EF02C11241E8F90
:1012A0008F2D880F880F880F8D8F90E00E947F29E7
:1012B0009C8F8B8F0F2D10E0C8010E947F299AA36D
:1012C00089A3C8010E947F2998A38F8F80E090E0B6
:1012D0008F1560F4EF8DF8A1E80FF91F8083E9A165
:1012E000FAA1E80FF91F10820196F2CF0E94230C99
:1012F00061E08A8D0E94F62160E070E0CE010E94DC
:10130000E60840E06FE0CE010E94FC0847E06BE099
:10131000CE010E94FC0840E069E0CE010E94FC087A
:1013200060E0CE010E94290967E0CE01DF91CF91F4
:101330001F910F91FF900C942F091F93CF93DF9370
:10134000EC0118E040E0612FCE010E94FC08115032
:10135000C9F7DF91CF911F91089520911E0330911D
:101360001F0328173907B9F49091DC028091DD0240
:10137000981789F0E091DC02F0E0E252FD4F8081A5
:101380002091DC0230E02F5F3F4F2F7333272093F3
:10139000DC0290E008958FEF9FEF08951F93CF93A5
:1013A000DF93DC015C968D919C915D97009749F4E9
:1013B00081E090E013969C938E93129780E090E0EA
:1013C0003BC05196ED91FC91529750962C915097BD
:1013D000322F30951FB75E964C915E9741FB772771
:1013E00070F941FD6095F8944081772311F0422B0C
:1013F00001C043234083EC012197F1F748E050817D
:1014000060FF02C0522B01C053235083EC0121978F
:10141000F1F76695415099F78081772311F0832386
:1014200001C0822B80831FBF5C968D919C915D973C
:101430000197F1F781E090E0DF91CF911F9108953E
:10144000089520911E0330911F032817390781F456
:101450009091DC028091DD02981751F0E091DC025E
:10146000F0E0E252FD4F8081992787FD9095089525
:101470008FEF9FEF089520911E0330911F032817CF
:10148000390771F48091DD022091DC0290E0805CEC
:101490009F4F821B910960E470E00E94F628089536
:1014A00080E090E00895E0911E03F0911F03E8179B
:1014B000F90769F4A389B4899C918589809589236A
:1014C0008C9310921F0310921E0381E0089580E018
:1014D0000895CF93DF93EC018A8D9B8D892BF1F0DA
:1014E00080911E0390911F038C179D07B9F0009700
:1014F00011F00E94530A8E8D8E7F8E8F1092DD0226
:101500001092DC02D0931F03C0931E03EB89FC8969
:1015100080819D89892B808381E001C080E0DF91FB
:10152000CF9108951F920F920FB60F9211242F930F
:101530003F934F935F936F937F938F939F93AF935B
:10154000BF93EF93FF93E0911E03F0911F03309739
:1015500009F451C0868DA685B785958581FF04C0A5
:101560008C91892329F447C08C91892309F043C0C9
:10157000A389B4899C918589809589238C938689D8
:1015800097890197F1F7208D318DA685B7857585EF
:1015900058E040E0C9010197F1F7842F90E095955C
:1015A0008795482F6C91672309F04068515091F757
:1015B000868D81FD40958091DD0290E001968F73CC
:1015C00099272091DC02281749F0A091DD02B0E0B4
:1015D000A252BD4F4C938093DD0203C0868D816083
:1015E000868F828D938D0197F1F7A389B4898C91B1
:1015F0009589892B8C93FF91EF91BF91AF919F912A
:101600008F917F916F915F914F913F912F910F90AB
:101610000FBE0F901F90189522E731E0FC01318337
:1016200020830C94530A1F93CF93DF93EC01162F62
:101630006E8D6695617081E06827812F0E942F2250
:1016400061E0812F0E94F621812F90E0FC01E1579B
:10165000F84FE491E88BFC01ED55F84FE491F0E090
:10166000EE0FFF1FEF53F84F859194919A8B898B62
:10167000DF91CF911F9108951F93CF93DF93EC01DA
:10168000162F60E0812F0E94F6218E8D81FD04C00F
:1016900061E0812F0E942F221C87812F90E0FC01A6
:1016A000E157F84FE491ED87FC01ED55F84FE491D7
:1016B000F0E0EE0FFF1FE954F84F859194919F875A
:1016C0008E87DF91CF911F910895FF920F931F9303
:1016D000CF93DF93EC01F62E522F1B821A8208EE75
:1016E00013E020E030E00C831D832E833F8382E7EC
:1016F00091E0998388831F8A1E8A198E188E1B8E0B
:101700001A8E1D8E1C8E8E8D8E7F50FB81F98E8FD2
:10171000642FCE010E94130B6F2DCE01DF91CF916C
:101720001F910F91FF900C943C0BCF93DF93EC0132
:101730009A01AB011B8E1A8E198E188E1F8A1E8A73
:1017400060E079E08DE390E00E942C29C90124300B
:10175000310520F0B9016350710902C061E070E009
:101760007D8F6C8FEC85E63108F068C0B901769505
:1017700067956431710518F06351710902C061E029
:1017800070E07F8B6E8B069718F0C901059702C039
:1017900081E090E0998F888FC901880F991F820F8F
:1017A000931F96958795969587958D30910510F0A6
:1017B0000C9702C081E090E09B8F8A8F2091680097
:1017C000E83050F091E0EE3008F490E081E001C0A4
:1017D000880F9A95EAF701C084E0822B8093680015
:1017E0002C85283038F02E3040F0263148F48CE635
:1017F00090E008C08DE690E005C08BE690E002C066
:1018000080E090E09C8B8B8B283030F481E001C02D
:10181000880F2A95EAF70DC0822F90E02E3010F441
:10182000089701C00E9791E001C0990F8A95EAF7D9
:10183000892F8D8B8C8D9D8D0197F1F7CE01DF91D6
:10184000CF910C94690ACF93CFB7F894809120037D
:10185000811127C0EDEAF7E08491E9E9F7E094917E
:10186000E82FF0E0EE0FFF1FE553F84FA591B4917C
:101870008C91892321F461E08AE00E942F2261E0AB
:101880008AE00E94F6218CB580618CBD8CB58064A5
:101890008CBD61E08DE00E94F62161E08BE00E944A
:1018A000F621809120038F5F80932003CFBFCF91DB
:1018B00008956F927F928F929F92AF92BF92CF9234
:1018C000DF92EF92FF920F931F93CF93DF93EA0182
:1018D0002CE3C22ED12CE12CF12CA70196010E9401
:1018E0000A296883CA01B901A70196010E940A2941
:1018F0006983CA01B90128E130E040E050E00E946C
:101900000A2949015A016A83CA01B9016C5F7F4FF4
:101910008F4F9F4F27E030E040E050E00E940A29BF
:101920006F5F6B8300E010E0980140E054E6652EA5
:10193000712C60E9C62EDD24D394E42FF0E0EE5440
:10194000F84F7F0183E0E822FF24E114F10489F4D9
:10195000CF01B3010E94F628892B29F08EE691E091
:10196000A0E0B0E00AC0CF01B6010E94F628892BA2
:10197000A9F38DE691E0A0E0B0E0080F191F2A1F3F
:101980003B1FD901C801AA27BB2788169906AA06BA
:10199000BB0610F04F5FD1CF4E83E114F10499F4F0
:1019A000CF0164E670E00E94F628892B29F08EE6CC
:1019B00091E0A0E0B0E00BC0CF0160E971E00E94CF
:1019C000F628892BA1F38DE691E0A0E0B0E0081B9A
:1019D000190B2A0B3B0B801A910AA20AB30ACF01FA
:1019E00064E670E00E94F6289C01CF0160E971E096
:1019F0000E94F628EEE7F1E0A0E0A13059F4E114EE
:101A0000F10451F42115310511F04DE106C00097A4
:101A1000E1F302C0408101C04CE150E060E070E0C1
:101A200084169506A606B70640F0841A950AA60AFB
:101A3000B70AAF5F3196AC3001F7AF5FAD838394E7
:101A40008C82DF91CF911F910F91FF90EF90DF90EB
:101A5000CF90BF90AF909F908F907F906F900895A0
:101A6000CF92DF92EF92FF926B017C018091310364
:101A700090913203A0913303B0913403C816D90674
:101A8000EA06FB0671F045E353E0C701B6010E9488
:101A9000590CC0923103D0923203E0923303F0929A
:101AA0003403FF90EF90DF90CF9008950E94300DA7
:101AB0008091370390E008950E94300D80913603A5
:101AC00090E008950E94300D8091350390E00895D4
:101AD0000E94300D8091390390E008950E94300DEE
:101AE0008091380390E008950E94300D80913A0370
:101AF00090E008950E94300D80913B0390E08E5459
:101B0000984F08950F931F9360932D0370932E03A6
:101B100080932F039093300300910A0110910B01E1
:101B200020910C0130910D01060F171F281F391F3E
:101B30000093250310932603209327033093280353
:101B400082E090E090932403809323030E94292154
:101B50006093290370932A0380932B0390932C03A3
:101B60001F910F910895CF92DF92EF92FF920F9302
:101B70001F930E942921C0902903D0902A03E0904E
:101B80002B03F0902C036C197D098E099F0900919D
:101B90002D0310912E0320912F0330913003683EC6
:101BA000734081059105D8F00F5F1F4F2F4F3F4FB6
:101BB00000932D0310932E0320932F0330933003B3
:101BC00048EEC40E43E0D41EE11CF11CC092290370
:101BD000D0922A03E0922B03F0922C03CACF80917B
:101BE000250390912603A0912703B091280308179D
:101BF00019072A073B07C8F1E0912103F09122035E
:101C0000309799F10995611571058105910519F0D4
:101C10000E94820D2AC080910A0190910B01A0912F
:101C20000C01B0910D0140912D0350912E03609154
:101C30002F0370913003840F951FA61FB71F809349
:101C4000250390932603A0932703B093280381E0F4
:101C500090E02091230330912403232B11F480E0A2
:101C600090E0909324038093230360912D0370915F
:101C70002E0380912F03909130031F910F91FF90BD
:101C8000EF90DF90CF9008950E94B30D0E94300D29
:101C90008091370390E008950E94B30D0E94300DAB
:101CA0008091360390E008950E94B30D0E94300D9C
:101CB0008091350390E008950E94B30D0E94300D8D
:101CC0008091390390E008950E94B30D0E94300D79
:101CD0008091380390E008950E94B30D0E94300D6A
:101CE00080913A0390E008950E94B30D0C947A0D10
:101CF000CF93DF93EC016AE871E08BEC94E00E94F3
:101D0000122466E775E08BEC94E00E941F24CE015C
:101D1000DF91CF910C94C614CB0121E020933D03B9
:101D2000BA010E949915882319F081E090E0089586
:101D300082E090E008950C942B140F9300E020E0D3
:101D400040E060E086E493E00E9479230F910895DB
:101D50000F9300E020E040E060E08CE493E00E941C
:101D600079230F9108950F9300E020E040E060E0B8
:101D700082E593E00E9479230F910895DC01ED91B3
:101D8000FC91008CF18DE02D0994FC0124852F3FFE
:101D900011F02FEF2487089581E090E00895CF930C
:101DA000DF931F92CDB7DEB76983DC01ED91FC9123
:101DB0000280F381E02D41E050E0BE016F5F7F4F74
:101DC00009950F90DF91CF910895DC01ED91FC9181
:101DD0000480F581E02D0994DC01ED91FC910480F3
:101DE000F581E02D09958FEF9FEF08950895FC018F
:101DF00084858F3F21F00E945B1097FF02C080E036
:101E000090E00895EF92FF920F931F93CF93DF938B
:101E1000CDB7DEB764970FB6F894DEBF0FBECDBF67
:101E20007C01FB0185811F928F9384811F928F9388
:101E300083811F928F9382811F928F9385E991E016
:101E40009F938F938E010F5F1F4F1F930F934B8BA9
:101E50005C8B0E94F62BD701ED91FC910288F389EF
:101E6000E02D4B895C89B801C70109950FB6F8943C
:101E7000DEBF0FBECDBF64960FB6F894DEBF0FBEB7
:101E8000CDBFDF91CF911F910F91FF90EF900895FB
:101E90000F931F93CF93DF93FC019B01D42FC52F8A
:101EA00047855089BC016F5E7F4F0D2F1C2F8485A5
:101EB0000E94CB12811102C090E002C08D2F9C2F96
:101EC000DF91CF911F910F9108950F931F93CF939F
:101ED000DF9300D0CDB7DEB78C01DC01ED91FC9132
:101EE0000480F581E02D0995892B79F019829E01F6
:101EF0002F5F3F4F40E0BE016E5F7F4FF80184854A
:101F00000E94EE118A8190E002C08FEF9FEF0F9048
:101F10000F90DF91CF911F910F9108950F931F9311
:101F2000CF93DF9300D000D0CDB7DEB78C01DC01BA
:101F3000ED91FC910480F581E02D4B835C836983F6
:101F40007A8309954B815C8169817A81892B61F063
:101F5000F80184850F900F900F900F90DF91CF9133
:101F60001F910F910C941A168FEF9FEF0F900F9007
:101F70000F900F90DF91CF911F910F910895CF9304
:101F8000DF93EC010E946F23CE010E944511CE0128
:101F9000DF91CF9108950C944911FC0113821282B4
:101FA00048EE53E060E070E04483558366837783B6
:101FB00087EA91E0918380838FEF84870895EEE034
:101FC000F1E080E090E0219131912F3F3F4F29F0E7
:101FD000019684309105B9F78FEF0895FF920F9322
:101FE0001F93CF93DF93EC018B010E94DF0FF82E3C
:101FF0008FEFF816A1F021E04F2DB80181EA91E0B2
:102000000E945E15EF2DF0E0EE0FFF1FE25CFC4F2B
:1020100011830083FC861E870D8781E001C080E06C
:10202000DF91CF911F910F91FF900895EF92FF9252
:102030000F931F93CF93DF9300D0CDB7DEB77C0112
:102040008A01FC0184858F3F49F4C70169837A8343
:102050000E94DF0FF70184877A816981F701848507
:102060008F3F99F0108B0787C70141960E94B32BD1
:10207000F701848590E0FC01EE0FFF1FE25FFE4F49
:102080009183808381E090E002C080E090E00F9037
:102090000F90DF91CF911F910F91FF90EF900895D6
:1020A0000F9300E020E040E060E088E593E00E94CC
:1020B00079230F910895CF93C82F409165035091D4
:1020C000660360916703709168031416150616067F
:1020D000170644F4809164038C1711F0811102C03B
:1020E000CA01D1C08091770390917803DC01ED9112
:1020F000FC910480F581E02D0995892B19F480E08D
:1021000090E0C1C067EC71E0809177039091780313
:102110000E94DB26882399F341E060E070E0809123
:102120007703909178030E94A925609364038091BE
:10213000770390917803DC01ED91FC910680F781A3
:10214000E02D099541E060E070E080917703909187
:1021500078030E94A92560936503709366038093BA
:102160006703909368038091770390917803DC0173
:10217000ED91FC910680F781E02D099541E060E04A
:1021800070E080917703909178030E94A925609375
:102190005E038091770390917803DC01ED91FC91CF
:1021A0000680F781E02D099541E060E070E08091C4
:1021B0007703909178030E94A92560935F03809133
:1021C000770390917803DC01ED91FC910680F78113
:1021D000E02D099541E060E070E0809177039091F7
:1021E00078030E94A9256093600380917703909102
:1021F0007803DC01ED91FC910680F781E02D0995D3
:1022000041E060E070E080917703909178030E9454
:10221000A925609361038091770390917803DC0195
:10222000ED91FC910680F781E02D0995809177036F
:1022300090917803DC01ED91FC910680F781E02D0F
:10224000099541E060E070E0809177039091780318
:102250000E94A925709363036093620380917703C2
:1022600090917803DC01ED91FC910680F781E02DDF
:102270000995809164038C1711F0C11140CF8091B2
:10228000650390916603CF9108956EE573E00C9419
:102290008523809162039091630308953F924F924A
:1022A0005F926F927F928F929F92AF92BF92CF92E6
:1022B000DF92EF92FF920F931F93CF93DF936C0106
:1022C0005B01342E8FE693E00E947D160E94292147
:1022D0002B013C01CFEFDFEFEE24D7FCE094FE2C86
:1022E0000E94292164197509860997096C157D05D5
:1022F0008E059F0508F048C0CF3FFFEFDF0709F0CC
:1023000043C08091770390917803DC01ED91FC91BB
:102310000480F581E02D0995892B11F380917703D5
:1023200090917803DC01ED91FC910680F781E02D1E
:102330000995682F8FE693E00E94A916A114B104B5
:1023400049F0B5018FE693E00E94BC16882311F096
:10235000C5E0D0E0332021F286E1882E81E0982E7E
:1023600000E010E0F401619171914F018FE693E07C
:102370000E94BC16811106C00F5F1F4F053011056A
:1023800089F7AECFE801ACCF0E9429216419750905
:10239000860997096C157D058E059F0560F06AE832
:1023A00071E08BEC94E00E9412246EE875E08BECF7
:1023B00094E00E941F24CE01DF91CF911F910F91D5
:1023C000FF90EF90DF90CF90BF90AF909F908F9055
:1023D0007F906F905F904F903F9008958F929F9263
:1023E000AF92BF92CF92DF92EF92FF92CF93DF93A3
:1023F000D82E7B01C42EE90180916403D812BFC09E
:102400000E9429214B015C01809177039091780310
:10241000DC01ED91FC910480F581E02D0995892B7B
:1024200009F475C08091770390917803DC01ED91F8
:10243000FC91CC2039F00084F185E02D0995F7015D
:1024400080831AC00680F781E02D0995F70180830B
:102450004091650350916603609167037091680332
:102460004150510961097109409365035093660316
:10247000609367037093680380916503909166038E
:10248000A0916703B0916803892B8A2B8B2B11F0E5
:1024900081E076C065E070E080E090E00E94582125
:1024A0008091770390917803DC01ED91FC91048099
:1024B000F581E02D0995892B59F38091770390914F
:1024C0007803DC01ED91FC910084F185E02D099504
:1024D0002D2D30E0205D3F4F82179307C9F640E075
:1024E0006DEC71E084EF91E00E944E11059761F070
:1024F0006AE871E08BEC94E00E94122465E176E0DA
:102500008BEC94E00E941F2481E0888339C00E94F4
:102510002921681979098A099B09603D774081055D
:10252000910508F471CF6AE871E08BEC94E00E94A9
:1025300012246CE076E08BEC94E00E94EF2363E6DB
:1025400072E08BEC94E00E9412244091650350915C
:10255000660360916703709168032AE030E08BECBA
:1025600094E00E94E4241092650310926603109296
:1025700067031092680310926403F701108280E0F1
:10258000DF91CF91FF90EF90DF90CF90BF90AF9011
:102590009F908F900895CF92DF92EF92FF920F93CA
:1025A0001F93CF93DF93CDB7DEB7A8970FB6F894FC
:1025B000DEBF0FBECDBF69015F934F937F936F93D3
:1025C0001F930F931F928F9383EF95E09F938F93A9
:1025D0009E012F5F3F4F7901FF922F930E94182C8D
:1025E000B70180917703909178030E94312440E0F5
:1025F00067ED71E088EE93E00E944E110FB6F894FB
:10260000DEBF0FBECDBF059749F06AE871E08BECE5
:1026100094E00E94122468ED75E01EC0809177035B
:1026200090917803DC01ED91FC910280F381E02D23
:10263000A801B601099541E060E070E080ED97E007
:102640000E944E11039771F06AE871E08BEC94E000
:102650000E9412246DEB75E08BEC94E00E941F2425
:1026600080E001C081E0A8960FB6F894DEBF0FBEEF
:10267000CDBFDF91CF911F910F91FF90EF90DF9031
:10268000CF9008958091770390917803DC01ED91CC
:10269000FC910480F581E02D09951816190664F463
:1026A0008091770390917803DC01ED91FC91068095
:1026B000F781E02D0995E6CF0895AF92BF92CF92B2
:1026C000DF92EF92FF920F931F93CF93DF935C0102
:1026D0006B01EA017901F901108281E00E94421345
:1026E000B50180917703909178030E941F2441E007
:1026F000B60188EE93E00E944E118530910579F580
:102700008FE693E00E94831641E0BE0184EF91E0E2
:102710000E944E110597D1F4FE0101900020E9F7C7
:10272000AF01415051094C1B5D0B980121503109FB
:10273000B7018FE693E00E94EF1641E060E070E0A1
:1027400080ED97E00E944E1181E018C06AE871E0C8
:102750008BEC94E00E9412246BEA75E00AC00597A6
:1027600060F06AE871E08BEC94E00E9412246EE95C
:1027700075E08BEC94E00E941F2480E0DF91CF9104
:102780001F910F91FF90EF90DF90CF90BF90AF908F
:1027900008956F927F928F929F92AF92BF92CF9245
:1027A000DF92EF92FF920F931F93CF93DF9300D0AE
:1027B00000D0CDB7DEB74C015A016DB67EB6CB0165
:1027C0002B833C8369837A830E949A2B01964DB7B1
:1027D0005EB7481B590B0FB6F8945EBF0FBE4DBFD6
:1027E0008DB79EB701967C0169817A810E94932BF7
:1027F000C5010E949A2B01964DB75EB7481B590B35
:102800000FB6F8945EBF0FBE4DBF8DB79EB7019651
:102810006C01B5010E94932B2B813C81A601B7016D
:10282000C4010E945D130FB6F8947EBE0FBE6DBE4C
:102830000F900F900F900F90DF91CF911F910F91FC
:10284000FF90EF90DF90CF90BF90AF909F908F90D0
:102850007F906F9008950F931F93CF93DF93CDB721
:10286000DEB72A970FB6F894DEBF0FBECDBF0AE0E1
:1028700010E09E012F5F3F4F44E956E06CE876E0A0
:102880008FE796E00E94C913882371F0CE0101966C
:102890000E94752B9C01225031092330310530F004
:1028A000059731F483E005C08FEF03C081E001C0DC
:1028B00080E02A960FB6F894DEBF0FBECDBFDF9141
:1028C000CF911F910F9108950F931F931092690359
:1028D00006E010E029E633E04CE756E06FE676E0EC
:1028E00088E696E00E94C91389E693E01F910F9154
:1028F00008950F931F93CF93DF938C01EB0181E039
:102900000E944213B80180917703909178030E944E
:102910001F2441E060E070E0CE01DF91CF911F9174
:102920000F910C944E1168EE73E08BE197E00E94DA
:10293000791468EB7BE080E090E00E94582180E011
:102940000E94421368EE73E086E197E00E947914DA
:1029500068EE73E08AE097E00E94791468EE73E015
:102960008EEF96E00E94791468EE73E080EF96E0B7
:102970000E94791468EE73E080EE96E00E9479146C
:1029800068EE73E082ED96E00C94791490937803EE
:102990008093770368EE73E088E797E00E947914EC
:1029A000892B89F06AE871E08BEC94E00E94122494
:1029B0006BE577E08BEC94E00E941F2460E47FE1FC
:1029C00080E090E028C00E9493140E9464148091DB
:1029D00069036AE871E0813321F480916A038E32E1
:1029E000E1F08BEC94E00E9412246DE377E08BEC35
:1029F00094E00E94EF2363E672E08BEC94E00E9487
:102A0000122469E673E08BEC94E00E94312460EAC2
:102A10007FE080E090E00C9458218BEC94E00E94E1
:102A2000122462E277E08BEC94E00E94EF2363E6ED
:102A300072E08BEC94E00E94122469E673E08BEC68
:102A400094E00C943124CF93DF93CDB7DEB7C85C0C
:102A5000D1090FB6F894DEBF0FBECDBF9E012F5235
:102A60003F4FC353DF4F48815981CD5CD04068EC64
:102A700070E0CE0101960E943A2C81E00E94421340
:102A8000BE016F5F7F4F80917703909178030E9422
:102A9000312441E060E070E0C153DF4F88819981CB
:102AA000CF5CD0400E944E11C853DF4F0FB6F89450
:102AB000DEBF0FBECDBFDF91CF91089521111AC0A7
:102AC0007F936F939F938F931F924F9383E18F9385
:102AD00088E88F938BE496E09F938F930E94231551
:102AE0002DB73EB7265F3F4F0FB6F8943EBF0FBEDF
:102AF0002DBF19C07F936F939F938F931F924F9316
:102B000083E18F9388E88F938AE296E09F938F9377
:102B10000E9423152DB73EB7265F3F4F0FB6F8949E
:102B20003EBF0FBE2DBF21E0892B09F020E0822F90
:102B30000895CF93DF93D82FC92F7F936F939F93DF
:102B40008F938EE48F9380E28F932BEB36E03F934D
:102B50002F930E9423152DB73EB7285F3F4F0FB626
:102B6000F8943EBF0FBE2DBF6AE871E0892BC1F417
:102B70008BEC94E00E9412246EEA76E08BEC94E0F9
:102B80000E94EF2363E672E08BEC94E00E94122433
:102B90006D2F7C2F8BEC94E00E94312481E020C0CB
:102BA0008BEC94E00E94122467E976E08BEC94E0D1
:102BB0000E94EF2363E672E08BEC94E00E94122403
:102BC0006D2F7C2F8BEC94E00E94312468EE73E033
:102BD00080E090E00E94582180E00E94421380E053
:102BE000DF91CF910895CF92DF92EF92FF920E94F2
:102BF00029216B017C018091770390917803DC019E
:102C0000ED91FC910680F781E02D099597FF0DC0AD
:102C10000E9429216C197D098E099F09683E734025
:102C20008105910540F38FEF9FEFFF90EF90DF90CC
:102C3000CF900895EF92FF920F931F93CF93DF935E
:102C4000EA0190916403891337C0809165039091E4
:102C50006603A0916703B09168038A0120E030E029
:102C600080179107A207B3070CF4EC018B017B01DD
:102C7000EC0EFD1E0E151F05E9F00E94F3158F3FA7
:102C80002FEF9207E1F0F80181938F0180916503A6
:102C900090916603A0916703B09168030197A10921
:102CA000B1098093650390936603A0936703B09383
:102CB0006803E0CFCE0105C080E090E002C08FEF56
:102CC0009FEFDF91CF911F910F91FF90EF900895AB
:102CD0000F9300E020E040E060E089E793E00E948D
:102CE000792360E270E08FE693E00F910C949016E8
:102CF0008FE693E00C947C160895FC0122813381C9
:102D0000378326830895FC0182819381978386838C
:102D1000408151814F5F5F4F60E070E00C94AC2BBD
:102D20000F931F93CF93DF93EC018B01798368831B
:102D3000CB0101960E94AF239B838A83080F191F42
:102D40001D830C83CE01DF91CF911F910F910C94C5
:102D50008316FC01A681B7816C93868197810196C9
:102D600097838683248135818217930720F082819F
:102D70009381978386830895CF93DF93EC01DB01E2
:102D80000D900020E9F71197A61BB70BEE81FF818C
:102D9000EA1BFB0B8A819B81E817F90720F4288145
:102DA0003981E20FF31FAD01460F571F9B016417D6
:102DB000750778F46F5F7F4FD9013C912081321302
:102DC0000AC031962C813D81E217F30779F7FC01A7
:102DD000EDCF81E001C080E0DF91CF910895FC014B
:102DE000CB01628173810680F781E02DE61BF70B32
:102DF000E41BF50B2E173F0710F0AF0101C0A9012E
:102E00000C94BA2BEF92FF920F931F93CF93DF9303
:102E10001F92CDB7DEB700E014E0E12CF12CF801F1
:102E200061918F01C70169830E94382E69816817FB
:102E300019F0C7010E94402EFFEFEF1AFF0A85E349
:102E4000E816F10461F780E094E00F90DF91CF91F4
:102E50001F910F91FF90EF900895AF92BF92CF9284
:102E6000DF92EF92FF920F931F93CF93DF93EC01CA
:102E7000A62E1B82862F0E946522B82E8A81B81644
:102E800069F00E9429216D8F7E8F8F8F98A3BA825F
:102E90000E942921698B7A8B8B8B9C8B0E94292124
:102EA00009891A892B893C89601771078207930762
:102EB00060F4198A1A8A1B8A1C8A07C08A2D0E940C
:102EC0006522E82F2981821318C00E9429216B01F5
:102ED0007C0189899A89AB89BC8997018601081B85
:102EE000190B2A0B3B0B4D895E896F89788D401732
:102EF00051076207730710F727C0992721E030E0D8
:102F00004881442311F020E030E082179307D1F488
:102F10008D8D9E8DAF8DB8A1B701A601481B590BB1
:102F20006A0B7B0B89859A85AB85BC854817590749
:102F30006A077B0738F08B818F5F8B83CD8EDE8EA7
:102F4000EF8EF8A2E983C1CF8881B8121CC08A81B4
:102F5000B81219C00E942921C988DA88EB88FC8838
:102F60006C197D098E099F09698F7A8F8B8F9C8FD1
:102F7000CD80DE80EF80F884C616D706E806F90615
:102F800010F484E68B838B81823069F028F48130E1
:102F900091F4E9A1FAA10CC0833041F0843659F4D0
:102FA000EFA1F8A505C0EBA1FCA102C0EDA1FEA117
:102FB000309709F009958B8190E0DF91CF911F91B7
:102FC0000F91FF90EF90DF90CF90BF90AF9008955A
:102FD0000F9300E020E040E060E08CEB94E00E9482
:102FE00079232091380140913A0160913C0189E9AF
:102FF00094E00E9433098091340190913501059647
:1030000090939804809397041092710410927F0417
:10301000109280041092810410928204EEE6F4E093
:1030200048EE53E060E070E0458356836783708725
:1030300082E390E0A0E0B0E081879287A387B48725
:10304000109248041092560410925704109258049B
:1030500010925904E5E4F4E0458356836783708752
:1030600081879287A387B48720E047E066E081EEFE
:1030700093E00E94650B82E893E00F910C94CD0FD2
:1030800081EE93E00C940C0BE1EBF3E020E3DF0125
:103090001D922A95E9F723EE208326E02093B303BF
:1030A0002CEE2093B40321E32093BD033EE4309340
:1030B000BE032093BF0324E32093C0034BE750E0FB
:1030C000BC0182E893E00E94161040E350E061EBFF
:1030D00073E082E893E00E94480F82E893E00E9448
:1030E000CC0E0895CF92DF92EF92FF920F931F9331
:1030F00081E291E00E94441882E893E00E94E50E8C
:10310000892BF1F140E350E061EB73E082E893E05A
:103110000E948E0F6091DA038091D9030E94E62607
:103120008C016091DC038091DB030E94E6266C0138
:1031300020912D0480E19EE0289FB001299F700D11
:103140001124882777FD8095982F60587E478A4AFA
:10315000934820E030E0980111270027E12CF12C62
:103160000C291D292E293F29600F711F821F931FD3
:103170001F910F91FF90EF90DF90CF900C94820DF4
:103180001F910F91FF90EF90DF90CF9008954F9295
:103190005F926F927F928F929F92AF92BF92CF92E7
:1031A000EF92FF920F931F93CF93DF9300D000D045
:1031B00000D0CDB7DEB766ED71E0CE0101960E947A
:1031C000592769E172E0CE0101960E946F270E94A3
:1031D000640E019787309105E8F48C5C9F4FFC01E9
:1031E0000C944B2967E272E011C061E372E00EC0FB
:1031F0006EE372E00BC065E472E008C06BE472E05D
:1032000005C064E572E002C06BE572E0CE01019694
:103210000E94B32762E672E0CE0101960E94B327B6
:103220000E945C0EBC01CE0101960E94C32765E698
:1032300072E0CE0101960E94B3270E946C0EBC0181
:10324000CE0101960E94C32765E672E0CE01019689
:103250000E94B3270E94740EBC01CE0101960E9409
:10326000C32762E672E0CE0101960E94B32767E6AB
:1032700072E0CE0101960E94B327812C912C2091FF
:103280009704309198048D819E81289F5001299F39
:10329000B00C389FB00C112489E994E00E943F08DB
:1032A0002091340130913501A501421B530B9A0145
:1032B00021503109280F391F8216930608F06DC07E
:1032C00060E070E089E994E00E94E608609197046C
:1032D00070919804C4010E94F6283B0189E994E0AA
:1032E0000E943F0801975C016091970470919804D7
:1032F000C4010E94F628A81AB90A89E994E00E943C
:1033000043082C01F8E04F1A510857FE04C02C0165
:1033100027E0421A51085594479480919704909160
:1033200098048A0D9B1D2091340130913501821B38
:10333000930B97FD24C077FC22C08D819E81681677
:10334000790698F4B301CE0101960E94F427CC24AB
:10335000C394E12CF12C01E010E0FC012081A201DA
:10336000B50189E994E00E94C705F1E06F1A710880
:103370008091970490919804A81AB90ACECF89E950
:1033800094E00E949D0968E270E080E090E00E9475
:1033900058212FEF821A920A72CFCE0101960E9415
:1033A000EB2626960FB6F894DEBF0FBECDBFDF9199
:1033B000CF911F910F91FF90EF90CF90BF90AF9062
:1033C0009F908F907F906F905F904F900895CF92D5
:1033D000DF92EF92FF920F931F93CF93DF93C0E0A2
:1033E000D0E089E994E00E943F080197C817D90707
:1033F00094F560E070E089E994E00E94E608E091CD
:103400009904F0919A04C680D78089E994E00E94DB
:1034100043088C0189E994E00E943F08015011099A
:103420009C01215031092C1B3D0BEE24E394F12C1F
:1034300040E050E0BE0189E994E0F601099589E990
:1034400094E00E949D0960E570E080E090E00E94B9
:1034500058212196C6CFDF91CF911F910F91FF90F8
:10346000EF90DF90CF900895CF92DF92EF92FF928E
:103470000F931F93CF93DF9360E089E994E00E945C
:103480002F09C0E0D0E089E994E00E943F0801974D
:10349000C817D90754F560E070E089E994E00E940C
:1034A000E608E0919904F0919A04C680D78089E9F2
:1034B00094E00E9443088C0101501109EE24E3942A
:1034C000F12C9E0140E050E0BE0189E994E0F60154
:1034D000099589E994E00E949D0962E370E080E02B
:1034E00090E00E9458212196CECF89E994E00E9475
:1034F0003F08EC0121971C161D064CF560E070E0BA
:1035000089E994E00E94E608E0919904F0919A0418
:10351000C680D78089E994E00E9443088C0101505D
:103520001109EE24E394F12C9E0140E050E0BE012D
:1035300089E994E0F601099589E994E00E949D09E2
:1035400069E170E080E090E00E945821D3CF65E00F
:1035500089E994E00E942F0960E070E089E994E035
:103560000E94E60889E994E00E949D0968EC70E0F9
:1035700080E090E00E94582161E070E089E994E0E9
:103580000E94E60889E994E00E949D0964E670E0E3
:1035900080E090E00E94582160E070E089E994E0CA
:1035A0000E94E60889E994E00E949D0964E670E0C3
:1035B00080E090E00E94582161E070E089E994E0A9
:1035C0000E94E60889E994E00E949D0968EC70E099
:1035D00080E090E00E94582160E089E994E00E9438
:1035E0002F0960E070E089E994E00E94E60889E92B
:1035F00094E0DF91CF911F910F91FF90EF90DF90BA
:10360000CF900C949D0960E070E089E994E00E94FD
:10361000E60889E994E00E949D0964E670E080E094
:1036200090E00E94582161E070E089E994E00E94F6
:10363000E60889E994E00E949D0964E670E080E074
:1036400090E00E94582160E070E089E994E00E94D7
:10365000E60889E994E00E949D0964E670E080E054
:1036600090E00E94582161E070E089E994E00E94B6
:10367000E60889E994E00E949D0964E670E080E034
:1036800090E00E94582160E089E994E00E942F09AF
:1036900060E070E089E994E00C94E6084F925F9254
:1036A0006F927F928F929F92AF92BF92CF92EF9242
:1036B000FF920F931F93CF93DF9300D000D000D0E1
:1036C000CDB7DEB763E772E0CE0101960E945927BD
:1036D0000E94740EBC01CE0101960E94C32768E8C7
:1036E00072E0CE0101960E94B32763E089E994E07D
:1036F0000E942F0960E070E089E994E00E94E608EA
:1037000014E0612E712CAFE18A2E912CA12CB12CEA
:10371000E0919904F0919A048401075111090484FD
:10372000F585E02DEE24E394F12C9401A501B5017B
:1037300089E994E0099589E994E00E949D0966E988
:1037400070E080E090E00E9458212FEFA21AB20AA8
:1037500042E0841A910854E0A516B104C9F660E06D
:1037600070E089E994E00E94E60881E0681A710837
:1037700051F6812C912C20919704309198048D81E1
:103780009E81289F5001299FB00C389FB00C1124B6
:1037900089E994E00E943F0820913401309135017D
:1037A000A501421B530B9A0121503109280F391FE3
:1037B0008216930608F06DC060E070E089E994E03D
:1037C0000E94E6086091970470919804C4010E94D9
:1037D000F6283B0189E994E00E943F0801975C01CB
:1037E0006091970470919804C4010E94F628A81A69
:1037F000B90A89E994E00E9443082C01E8E04E1AD6
:10380000510857FE04C02C01F7E04F1A5108559497
:10381000479480919704909198048A0D9B1D209164
:10382000340130913501821B930B97FD24C077FC46
:1038300022C08D819E816816790698F4B301CE016D
:1038400001960E94F427CC24C394E12CF12C01E0D2
:1038500010E0FC012081A201B50189E994E00E94F9
:10386000C705F1E06F1A7108809197049091980450
:10387000A81AB90ACECF89E994E00E949D0968E2AE
:1038800070E080E090E00E9458212FEF821A920AA7
:1038900072CFE4E06E2E712C6FE1862E912CA12C5C
:1038A000B12CE0919904F0919A0484010751110917
:1038B0000484F585E02DEE24E394F12C9401A50118
:1038C000B50189E994E0099589E994E00E949D0990
:1038D00066E970E080E090E00E9458215FEFA51A51
:1038E000B50A82E0881A9108E4E0AE16B104C9F680
:1038F00060E070E089E994E00E94E608F1E06F1A68
:10390000710851F660E089E994E00E942F0960E0B7
:1039100070E089E994E00E94E60889E994E00E9459
:103920009D09CE0101960E94EB2626960FB6F894CB
:10393000DEBF0FBECDBFDF91CF911F910F91FF90E2
:10394000EF90CF90BF90AF909F908F907F906F90AF
:103950005F904F900895CF92DF92EF92FF920F9376
:103960001F93CF93DF930E94B30D6B017C010E94E4
:10397000560D9093440480934304C701B6010E94FE
:103980005C0D9093400480933F04C701B6010E94F0
:10399000620D90933C0480933B04C701B6010E94E2
:1039A0007A0D90933804809337042091430430912A
:1039B000440480914104909142042817390709F486
:1039C000F8C0C701B6010E946E0D0197E9F4C70166
:1039D000B6010E94740D0A97B9F4C701B6010E949E
:1039E000680D49978CF0C701B6010E94680D809759
:1039F0005CF48091430490914404039729F48091EE
:103A00002D04823009F491C2C701B6010E946E0DE7
:103A10000197E9F4C701B6010E94740D0397B9F448
:103A2000C701B6010E94680D49978CF0C701B60125
:103A30000E94680D80975CF4809143049091440447
:103A4000029729F480912D04813009F476C22091E7
:103A5000370430913804809135049091360428174A
:103A6000390751F00E944E1B809137049091380421
:103A700090933604809335040E94031BC8EFDFEF58
:103A80008E01085F1F4F60E070E089E994E00E94BA
:103A9000E6088091430490914404AE010A971CF417
:103AA00069E070E002C063E070E089E994E00E94A0
:103AB000390860914304709144044AE050E089E978
:103AC00094E00E94DC2480914304909144040A977E
:103AD00024F4AE0169E070E003C0A80163E070E087
:103AE00089E994E00E943908609141047091420490
:103AF0004AE050E089E994E00E94DC24AE0162E1F2
:103B000070E089E994E00E94390880913F04909127
:103B100040040A9734F461EA71E089E994E00E9474
:103B2000122460913F04709140044AE050E089E91A
:103B300094E00E94DC24A80162E170E089E994E04D
:103B40000E94390880913F04909140040A9734F410
:103B500061EA71E089E994E00E94122460913D04D9
:103B600070913E044AE050E089E994E00E94DC2430
:103B700089E994E00E949D096091360170913701B6
:103B8000882777FD8095982F0E945821219609F06B
:103B900077CF8091430490914404909342048093A2
:103BA000410480913F049091400490933E0480939F
:103BB0003D0420913F043091400480913D04909158
:103BC0003E042817390709F47AC0C8EFDFEF8E01E9
:103BD000085F1F4F60E070E089E994E00E94E6080A
:103BE00080914304909144040A9724F4AE0169E063
:103BF00070E004C040E050E063E070E089E994E0E8
:103C00000E94390860914304709144044AE050E0F6
:103C100089E994E00E94DC24AE0162E170E089E968
:103C200094E00E94390880913F04909140040A97E3
:103C300034F461EA71E089E994E00E941224609111
:103C40003F04709140044AE050E089E994E00E940A
:103C5000DC24A80162E170E089E994E00E9439085F
:103C600080913F04909140040A9734F461EA71E036
:103C700089E994E00E94122460913D0470913E0411
:103C80004AE050E089E994E00E94DC2489E994E06C
:103C90000E949D096091360170913701882777FD58
:103CA0008095982F0E945821219609F090CF8091FD
:103CB0003F049091400490933E0480933D042091F2
:103CC0003B0430913C048091390490913A042817C8
:103CD000390709F4CFC060E070E089E994E00E9400
:103CE000E608809143049091440440E050E00A9734
:103CF0001CF469E070E002C063E070E089E994E0E0
:103D00000E94390860914304709144044AE050E0F5
:103D100089E994E00E94DC2440E050E062E170E038
:103D200089E994E00E94390880913F049091400411
:103D30000A9734F461EA71E089E994E00E94122460
:103D400060913F04709140044AE050E089E994E0BA
:103D50000E94DC2480918103823029F118F48130A3
:103D600039F068C08330F1F1843009F459C062C081
:103D7000C701B6010E94620D4E9744F4C701B60117
:103D80000E94620DBC016F5F7F4F08C0C701B60182
:103D90000E94620D6CE370E0681B790B21E030E05B
:103DA00047E050E043C0809120018823B9F021E032
:103DB00030E042E050E060E170E089E994E00E9488
:103DC000470821E030E044E050E060E170E089E93C
:103DD00094E00E944708109220012CC081E080935B
:103DE000200128C021E030E045E050E06FE070E0C5
:103DF00089E994E00E94470821E030E046E050E085
:103E00006FE070E089E994E00E94470821E030E02B
:103E100045E050E060E170E089E994E00E944708E5
:103E200021E030E046E050E060E170E089E994E0B4
:103E30000E94470889E994E00E949D0980913B0413
:103E400090913C0490933A048093390480917F03CD
:103E50009091800301969093800380937F03893033
:103E6000974044F00E94721881E090E090938003A4
:103E700080937F0362E08EE694E00E942D178436E3
:103E8000D1F460E070E089E994E00E94E60840E047
:103E900050E060E070E089E994E00E94390862E94E
:103EA00072E089E994E00E94122489E994E00E947A
:103EB0009D090E94721863E085E494E00E942D172A
:103EC000992782309105E9F01CF4019789F03DC0F3
:103ED0008330910501F184369105B9F5DF91CF91D9
:103EE0001F910F91FF90EF90DF90CF900C94031BE8
:103EF000809181038F5F853008F081E0809381039A
:103F000024C0DF91CF911F910F91FF90EF90DF9030
:103F1000CF900C94C718DF91CF911F910F91FF9014
:103F2000EF90DF90CF900C94E71981E080932D04FF
:103F30000E9402170E94721867CD82E080932D04C0
:103F40000E9402170E94721882CDDF91CF911F91BB
:103F50000F91FF90EF90DF90CF900895CF92DF9276
:103F6000EF92FF920F931F93CF93DF93CDB7DEB7FE
:103F70006D970FB6F894DEBF0FBECDBF88E0ECE9B9
:103F8000F2E0DE01569601900D928A95E1F785E107
:103F9000E4EAF2E0DE01119601900D928A95E1F7D4
:103FA00000E014E0E12CF12CC7010E94382EF8014A
:103FB00081938F01FFEFEF1AFF0A85E3E816F10402
:103FC00099F760E089E994E00E942F0980912F041D
:103FD000809381030E94341A40E050E060E070E07A
:103FE00089E994E00E94390862E972E089E994E085
:103FF0000E94122421E030E046E050E060E170E0F1
:1040000089E994E00E94470889E994E00E949D09AB
:1040100040E05BE460E070E081EE93E00E94950B8D
:1040200081EE93E00E94780E8CE393E00E949B0E59
:104030008F3FC9F460E070E089E994E00E94E608EF
:1040400040E050E060E070E089E994E00E943908C7
:1040500066E972E089E994E00E94122489E994E01B
:104060000E949D09FFCF21E030E046E050E061E191
:1040700070E089E994E00E94470889E994E00E9491
:104080009D09AE014F5F5F4FBE016A5E7F4F8CE3BB
:1040900093E00E948C0E019731F766E579E082E8A3
:1040A00093E00E94EE0F21E030E046E050E062E154
:1040B00070E089E994E00E94470889E994E00E9451
:1040C0009D090E9472180E94440E909344048093AC
:1040D00043040E944C0E9093400480933F040E943E
:1040E000540E90933C0480933B040E94740E909372
:1040F00038048093370420913F043091400430937A
:104100003E0420933D0420914304309144043093B5
:1041100042042093410420913B0430913C043093AD
:104120003A0420933904909336048093350421E0B7
:1041300030E046E050E063E170E089E994E00E94FD
:10414000470889E994E00E949D0962E082E00E94AC
:10415000F62110926E0411E010936F041093700416
:1041600004EFC02EDD24D394E12CF12CC092830403
:10417000D0928404E0928504F092860462E083E0A9
:104180000E94F621109245041093460410934704B0
:10419000C0925A04D0925B04E0925C04F0925D04F9
:1041A0006D960FB6F894DEBF0FBECDBFDF91CF91F5
:1041B0001F910F91FF90EF90DF90CF9008951F9285
:1041C0000F920FB60F9211242F933F938F939F93CB
:1041D000AF93BF938091C3049091C404A091C50490
:1041E000B091C6043091C20423E0230F2D3720F490
:1041F0000196A11DB11D05C026E8230F0296A11D41
:10420000B11D2093C2048093C3049093C404A0936F
:10421000C504B093C6048091C7049091C804A091CE
:10422000C904B091CA040196A11DB11D8093C704B1
:104230009093C804A093C904B093CA04BF91AF91EE
:104240009F918F913F912F910F900FBE0F901F90D4
:1042500018952FB7F8946091C3047091C4048091AD
:10426000C5049091C6042FBF08953FB7F89480917C
:10427000C7049091C804A091C904B091CA0426B59E
:10428000A89B05C02F3F19F00196A11DB11D3FBF8E
:104290006627782F892F9A2F620F711D811D911D1E
:1042A00042E0660F771F881F991F4A95D1F708953E
:1042B0008F929F92AF92BF92CF92DF92EF92FF9236
:1042C0006B017C010E9435214B015C01C114D104BA
:1042D000E104F104F1F00E9406280E9435216819DA
:1042E00079098A099B09683E73408105910570F33D
:1042F00021E0C21AD108E108F10888EE880E83E0B7
:10430000981EA11CB11CC114D104E104F10429F7C9
:10431000DDCFFF90EF90DF90CF90BF90AF909F9058
:104320008F900895789484B5826084BD84B581604F
:1043300084BD85B5826085BD85B5816085BDEEE6AD
:10434000F0E0808181608083E1E8F0E0108280818C
:1043500082608083808181608083E0E8F0E08081FA
:1043600081608083E1EBF0E0808184608083E0EB1A
:10437000F0E0808181608083EAE7F0E08081846002
:10438000808380818260808380818160808380815E
:10439000806880831092C1000895833081F028F4F2
:1043A000813099F08230A1F008958730A9F08830EB
:1043B000B9F08430D1F4809180008F7D03C080916A
:1043C00080008F7780938000089584B58F7702C036
:1043D00084B58F7D84BD08958091B0008F7703C030
:1043E0008091B0008F7D8093B0000895CF93DF93CC
:1043F00090E0FC01E157F84F2491FC01ED55F84F96
:104400008491882349F190E0880F991FFC01E553BE
:10441000F84FA591B4918F53984FFC01C591D49159
:104420009FB7611108C0F8948C91209582238C93DA
:10443000888182230AC0623051F4F8948C91322F23
:10444000309583238C938881822B888304C0F894D1
:104450008C91822B8C939FBFDF91CF9108950F9306
:104460001F93CF93DF931F92CDB7DEB7282F30E095
:10447000F901E558F84F8491F901E157F84F14918B
:10448000F901ED55F84F04910023C9F0882321F07C
:1044900069830E94CD216981E02FF0E0EE0FFF1FBC
:1044A000EF53F84FA591B4919FB7F8948C91611197
:1044B00003C01095812301C0812B8C939FBF0F9067
:1044C000DF91CF911F910F910895CF93DF93282F04
:1044D00030E0F901E558F84F8491F901E157F84FC0
:1044E000D491F901ED55F84FC491CC2391F081118D
:1044F0000E94CD21EC2FF0E0EE0FFF1FE954F84FA2
:10450000A591B4912C912D2381E090E021F480E0DD
:1045100002C080E090E0DF91CF9108950E94702B5F
:104520001F920F920FB60F9211242F938F939F9388
:10453000EF93FF93E091DB04F091DC048081E09144
:10454000E104F091E20482FD12C090818091E404C4
:104550008F5F8F732091E504821751F0E091E4049E
:10456000F0E0E553FB4F958F8093E40401C0808118
:10457000FF91EF919F918F912F910F900FBE0F9010
:104580001F9018951F920F920FB60F9211242F9320
:104590003F934F935F936F937F938F939F93AF93CB
:1045A000BF93EF93FF938BEC94E00E944228FF911E
:1045B000EF91BF91AF919F918F917F916F915F919B
:1045C0004F913F912F910F900FBE0F901F90189514
:1045D0008BEC94E00E94072821E0892B09F420E06D
:1045E000822F08951092CE041092CD0488EE93E0AD
:1045F000A0E0B0E08093CF049093D004A093D104C6
:10460000B093D2048FEC92E09093CC048093CB04CF
:1046100085EC90E09093D8048093D70484EC90E0EC
:104620009093DA048093D90480EC90E09093DC04BA
:104630008093DB0481EC90E09093DE048093DD04B2
:1046400082EC90E09093E0048093DF0486EC90E0AD
:104650009093E2048093E1041092E4041092E50444
:104660001092E6041092E7040895AF92BF92CF92A1
:10467000DF92EF92FF920F931F93CF93DF936C0122
:104680007B01C0E0D0E000E010E0F601EC0FFD1F80
:104690004AE050E06281C7010E9403255C016EE29E
:1046A000C7010E9414248A0D9B1D080F191F219613
:1046B000C330D10551F74AE050E0F6016581C701EA
:1046C0000E940325800F911FDF91CF911F910F91C1
:1046D000FF90EF90DF90CF90BF90AF9008952DEBBB
:1046E00032E0FC013183208312821382148215820E
:1046F00008950F93FC018DEB92E091838083628398
:104700004383248305830F910895FB0140815181E8
:1047100062817381FC0142835383648375830895AE
:104720008DEB92E0909369058093680510926A057D
:1047300010926B0510926C0510926D050895089506
:104740000E9492210E949F230E94AE1FC4E3D8E2E0
:104750000E94AB1C2097E1F30E943428F9CF0C94FF
:104760007F29CF92DF92EF92FF920F931F93CF9307
:10477000DF937C016A01EB0100E010E00C151D05E0
:1047800071F06991D701ED91FC910190F081E02DDC
:10479000C7010995892B19F00F5F1F4FEFCFC80193
:1047A000DF91CF911F910F91FF90EF90DF90CF900D
:1047B00008956115710581F0DB010D900020E9F786
:1047C000AD0141505109461B570BDC01ED91FC91A5
:1047D0000280F381E02D099480E090E00895EF924B
:1047E000FF920F931F93CF93DF938C017B01C0E067
:1047F000D0E0F701EC0FFD1F6491662359F0F8013A
:10480000A081B181ED91FC91C8010995892B11F02E
:104810002196EFCFCE01DF91CF911F910F91FF90A5
:10482000EF9008950C94D923DC01ED91FC91019057
:10483000F081E02D099464ED71E00C94D9230F937D
:104840001F93CF93DF93EC010E94EF238C01CE01E5
:104850000E941B24800F911FDF91CF911F910F9118
:1048600008950F931F93CF93DF93EC010E94D923F8
:104870008C01CE010E941B24800F911FDF91CF91EC
:104880001F910F9108958F929F92AF92BF92DF92E6
:10489000EF92FF920F931F93CF93DF93CDB7DEB7C5
:1048A000A1970FB6F894DEBF0FBECDBF7C01F42FE9
:1048B000D52ECB0119A2223008F42AE08E010F5D1B
:1048C0001F4F822E912CA12CB12C6F2F7D2DA50175
:1048D00094010E940A29F22FD32ECA010150110916
:1048E0006A3014F4E0E301C0E7E3E60FD801EC938B
:1048F000232B242B252B49F7B801C7010E94D9236C
:10490000A1960FB6F894DEBF0FBECDBFDF91CF9159
:104910001F910F91FF90EF90DF90BF90AF909F900D
:104920008F900895CF92DF92EF92FF920F931F9393
:10493000CF93DF93EC016A017B012115310579F4F6
:10494000E881F9810190F081E02D642FDF91CF9112
:104950001F910F91FF90EF90DF90CF9009942A3034
:104960003105E9F477FF1AC06DE20E9414248C012E
:1049700044275527BA014C195D096E097F092AE0C1
:10498000CE010E944324800F911FDF91CF911F9190
:104990000F91FF90EF90DF90CF9008952AE0B7013C
:1049A000A601CE01DF91CF911F910F91FF90EF9063
:1049B000DF90CF900C9443249A01AB01662757FDFA
:1049C0006095762F0C9492240F931F93CF93DF93CF
:1049D000EC010E9492248C01CE010E941B24800FC6
:1049E000911FDF91CF911F910F91089521153105EE
:1049F00041F4DC01ED91FC910190F081E02D642FF8
:104A000009940C9443249A01462F50E060E070E032
:104A10000C94F6240F931F93CF93DF93EC010E9425
:104A20002921688779878A879B87E881F9810680B1
:104A3000F781E02DCE01099597FF15C00E9429212D
:104A4000088519852A853B85601B710B820B930BAA
:104A50000C811D812E813F816017710782079307AA
:104A600020F38FEF9FEFDF91CF911F910F9108956A
:104A70000F931F93CF93DF93EC010E942921688746
:104A800079878A879B87E881F9810084F185E02D09
:104A9000CE01099597FF15C00E9429210885198527
:104AA0002A853B85601B710B820B930B0C811D814A
:104AB0002E813F81601771078207930720F38FEFE4
:104AC0009FEFDF91CF911F910F910895FF920F9368
:104AD0001F93CF93DF93EC018B01F42ECE010E9444
:104AE00038259C0197FD28C08D32910519F1C0979A
:104AF0000A9710F1FF2019F02E323105F9F001303C
:104B00001105F9F00230110569F42D30310551F02D
:104B100034F4295031092230310520F012C02032FE
:104B2000310579F4E881F9810680F781E02DCE0125
:104B30000995D4CF8DE203C0C90105C08EE290E093
:104B400002C08FEF9FEFDF91CF911F910F91FF90E8
:104B50000895CF92DF92FF920F931F93CF93DF932D
:104B600000D000D0CDB7DEB76C01042F40E00E942A
:104B70006625FC0197FD4BC020E030E0A901F12C37
:104B8000112707FD1095E017F107E9F0ED32F10567
:104B9000C1F0CF01C0970A97B0F4AAE0B0E00E943C
:104BA00060299B01AC01CF01AA2797FDA095BA2FE0
:104BB000280F391F4A1F5B1F205331094109510932
:104BC00002C0FF24F394D601ED91FC910680F78199
:104BD000E02DC60129833A834B835C830995C60186
:104BE0000E943825FC01C09729813A814B815C8164
:104BF0000A9748F2E017F10731F2FF2061F06627CB
:104C00007727CB01621B730B840B950B06C060E00A
:104C100070E0CB0102C0CA01B9010F900F900F9054
:104C20000F90DF91CF911F910F91FF90DF90CF9068
:104C300008954F925F926F927F928F929F92AF9260
:104C4000BF92CF92DF92EF92FF920F931F93CF9379
:104C5000DF934C01EB0186E0849F8001859F100D5E
:104C60001124060F171FFB01E017F10708F58281D9
:104C70009381892B21F13696F7CF40815181648150
:104C80007581DA01A60FB71F2C91332727FD3095C8
:104C90008217930711F56F5F7F4F758364832281BD
:104CA00033816217730759F03696E017F10728F33E
:104CB000C4010E940A2597FD46C0FE01F6CFEC1BF9
:104CC000FD0BF595E7952BEA3AEAE29FC001E39FD9
:104CD000900DF29F900D112438C06115710521F3DC
:104CE000A480B58095012150310935832483DA01F0
:104CF000A20FB31FAC91BB27A7FDB0958A179B07E6
:104D0000F9F421153105C9F06A017B01E21AF30AB1
:104D1000E40EF51E412C512CD6016D906D01D7018A
:104D20007D907D01671006C0BFEF4B1A5B0A4216EB
:104D3000530690F34216530699F6B582A482B4CF77
:104D4000232B71F6B1CF8FEF9FEFDF91CF911F91A2
:104D50000F91FF90EF90DF90CF90BF90AF909F901A
:104D60008F907F906F905F904F900895CF93DF93D7
:104D700000D000D000D0CDB7DEB7FE01319626E0DE
:104D8000DF011D922A95E9F77A8369835C834B835F
:104D900041E050E0BF010E94192621E0892B09F073
:104DA00020E0822F26960FB6F894DEBF0FBECDBF4F
:104DB000DF91CF910895FB0101900020E9F7AF0149
:104DC00041505109461B570B0C94B62670E09B01CD
:104DD000382BC9010895FC01808191810C94172A18
:104DE000CF93DF93EC0188819981009711F00E94A5
:104DF000172A198218821D821C821B821A82DF9157
:104E0000CF9108950F931F93CF93DF93EC018B0104
:104E10006F5F7F4F888199810E94A62A009731F0A9
:104E2000998388831B830A8381E001C080E0DF913E
:104E3000CF911F910F910895CF93DF93EC0188815B
:104E40009981892B29F08A819B818617970760F4C5
:104E5000CE010E940227882341F08C819D81892BFD
:104E600019F4E881F981108281E0DF91CF910895F2
:104E7000EF92FF920F931F93CF93DF93EC017B018F
:104E80008A01BA010E941C27811104C0CE010E9430
:104E9000F02607C01D830C83B701888199810E9489
:104EA000B32BCE01DF91CF911F910F91FF90EF9027
:104EB0000895FC01118210821382128215821482DD
:104EC0006115710559F0FB0101900020E9F7AF0170
:104ED00041505109461B570B0C9438270895CF9326
:104EE000DF93EC016115710561F0FB010190002079
:104EF000E9F7AF0141505109461B570B0E94382773
:104F000002C00E94F026CE01DF91CF910895EF926A
:104F1000FF920F931F93CF93DF93EC017B010C81E2
:104F20001D816115710511F480E016C04115510510
:104F300091F0040F151FB8010E941C278823A1F3CC
:104F4000288139818C819D81B701820F931F0E9436
:104F5000B32B1D830C8381E0DF91CF911F910F91C3
:104F6000FF90EF9008956115710559F0FB010190D4
:104F70000020E9F7AF0141505109461B570B0C9433
:104F8000872780E00895EF92FF920F931F93CF93AE
:104F9000DF93CDB7DEB728970FB6F894DEBF0FBE0C
:104FA000CDBF7C01CB014AE08E010F5F1F4FB801DE
:104FB0000E94C92BF80101900020E9F7AF01415090
:104FC0005109401B510BB801C7010E948727289641
:104FD0000FB6F894DEBF0FBECDBFDF91CF911F910A
:104FE0000F91FF90EF900895FC01848195816817DF
:104FF000790720F480819181009729F410926E0541
:105000008EE695E00895860F971F08950895FC0198
:10501000818D228D90E0805C9F4F821B91098F7360
:1050200099270895FC01918D828D981731F0828D1A
:10503000E80FF11D858D90E008958FEF9FEF0895A3
:10504000FC01918D828D981761F0828DDF01A80F90
:10505000B11D5D968C91928D9F5F9F73928F90E0B2
:1050600008958FEF9FEF089588EE92E2892B49F023
:1050700080E090E0892B29F00E94E82281110C94B5
:1050800000000895FC01848DDF01A80FB11DA35A13
:10509000BF4F2C91848D90E001968F739927848F58
:1050A000A689B7892C93A089B1898C9180648C934F
:1050B000938D848D981306C00288F389E02D80813A
:1050C0008F7D80830895CF93DF93EC01888D8823B3
:1050D000C9F0EA89FB89808185FD05C0A889B98965
:1050E0008C9186FD0FC00FB607FCF5CF808185FF40
:1050F000F2CFA889B9898C9185FFEDCFCE010E94AE
:105100004228E7CFDF91CF910895CF92DF92FF92AF
:105110000F931F93CF93DF931F92CDB7DEB76C0130
:1051200081E0D60158968C9358975B969C915B973B
:105130005C968C915C97981307C05096ED91FC910A
:105140005197808185FD2EC0F601038D10E00F5F21
:105150001F4F0F731127F02EF601848DF81211C026
:105160000FB607FCF9CFD6015096ED91FC915197FF
:10517000808185FFF1CFC60169830E944228698141
:10518000EBCF838DE80FF11DE35AFF4F6083D6010B
:105190005B960C935B975296ED91FC9153978081AF
:1051A00080620CC0D6015696ED91FC9157976083B2
:1051B0005096ED91FC91519780818064808381E0CD
:1051C00090E00F90DF91CF911F910F91FF90DF90B2
:1051D000CF900895991B79E004C0991F961708F0A5
:1051E000961B881F7A95C9F78095089597FB072E1F
:1051F00016F4009407D077FD09D00E946B2907FCB4
:1052000005D03EF4909581959F4F089570956195D6
:105210007F4F0895A1E21A2EAA1BBB1BFD010DC0F2
:10522000AA1FBB1FEE1FFF1FA217B307E407F50756
:1052300020F0A21BB30BE40BF50B661F771F881F32
:10524000991F1A9469F760957095809590959B01C8
:10525000AC01BD01CF010895052E97FB1EF400940B
:105260000E94432957FD07D00E940A2907FC03D05A
:105270004EF40C94432950954095309521953F4F1D
:105280004F4F5F4F089590958095709561957F4F32
:105290008F4F9F4F0895EE0FFF1F0590F491E02D63
:1052A0000994A29FB001B39FC001A39F700D811DFF
:1052B0001124911DB29F700D811D1124911D08951F
:1052C0000E945129A59F900DB49F900DA49F800D21
:1052D000911D11240895AA1BBB1B51E107C0AA1FF1
:1052E000BB1FA617B70710F0A61BB70B881F991F87
:1052F0005A95A9F780959095BC01CD010895CF935B
:10530000DF938230910510F482E090E0E091710526
:10531000F091720520E030E0A0E0B0E0309739F184
:105320004081518148175907B8F04817590771F45F
:1053300082819381109729F013969C938E931297F4
:105340002CC0909372058093710527C021153105FB
:1053500031F04217530718F0A901DB0101C0EF013A
:105360009A01BD01DF010280F381E02DD7CF211525
:105370003105F9F0281B390B2430310580F48A817E
:105380009B816115710521F0FB019383828304C029
:105390009093720580937105FE01329644C0FE0120
:1053A000E20FF31F819391932250310939832883AF
:1053B0003AC020916F0530917005232B41F4209164
:1053C0000201309103013093700520936F05209105
:1053D0000001309101012115310541F42DB73EB78F
:1053E0004091040150910501241B350BE0916F059C
:1053F000F0917005E217F307A0F42E1B3F0B28175E
:10540000390778F0AC014E5F5F4F2417350748F03D
:105410004E0F5F1F5093700540936F0581939193DA
:1054200002C0E0E0F0E0CF01DF91CF910895CF938B
:10543000DF93009709F487C0FC0132971382128230
:10544000C0917105D0917205209781F4208131813E
:10545000280F391F80916F0590917005821793076F
:1054600079F5F0937005E0936F056DC0DE0120E0E3
:1054700030E0AE17BF0750F412964D915C91139730
:105480009D014115510509F1DA01F3CFB383A283E0
:1054900040815181840F951F8A179B0771F48D916C
:1054A0009C911197840F951F029691838083129689
:1054B0008D919C911397938382832115310529F453
:1054C000F0937205E09371053EC0D9011396FC93E9
:1054D000EE9312974D915D91A40FB51FEA17FB074C
:1054E00079F480819181840F951F0296D9011196DC
:1054F0009C938E938281938113969C938E931297A3
:10550000E0E0F0E08A819B81009719F0FE01EC0158
:10551000F9CFCE01029628813981820F931F209105
:105520006F05309170052817390769F4309729F411
:10553000109272051092710502C013821282D093EC
:105540007005C0936F05DF91CF910895A0E0B0E0A2
:10555000ECEAFAE20C94082FEC01CB01209719F445
:105560000E947F29B8C0FE01E60FF71F9E0122505E
:105570003109E217F30708F4ACC0D9010D911C9171
:10558000119706171707B8F00530110508F49FC0EA
:10559000A801445051094617570708F498C0025013
:1055A0001109061B170B019311936D937C93CF0187
:1055B0000E94172A8CC05B01A01AB10A4E01800E0E
:1055C000911EA0917105B0917205612C712C60E063
:1055D00070E0109709F449C0A815B905C9F5ED9018
:1055E000FC901197670142E0C40ED11CCA14DB0481
:1055F00078F147018A189B08640142E0C40ED11C6F
:105600001296BC9012971396AC91B5E0CB16D104CC
:1056100040F0B282A38391828082D9018D939C93C2
:1056200009C00E5F1F4F0E0D1F1DF901118300836E
:10563000EB2DFA2F6115710531F0DB011396FC9308
:10564000EE93129744C0F0937205E09371053FC04A
:105650006D917C9111976616770608F43B01BD01A8
:1056600012960D90BC91A02DB4CF60916F057091F2
:10567000700568157905E9F468167906D0F440914B
:105680000001509101014115510541F44DB75EB73C
:105690006091040170910501461B570BE417F50753
:1056A000C0F4F0937005E0936F05F9019183808356
:1056B0000EC00E947F297C01009759F0A801BE010D
:1056C0000E94A32BCE010E94172AC70104C0CE015D
:1056D00002C080E090E0CDB7DEB7EEE00C94242F5E
:1056E00081E090E0F8940C943B2FFC0188279927E7
:1056F000E89421912032E9F3293010F02E30C8F3DC
:105700002B3241F02D3239F4689404C00E94D42B1E
:10571000820F911D219120532A30C0F31EF49095E1
:1057200081959F4F0895FB01DC0105900D920020AB
:10573000E1F70895FC0105900020E9F78095909528
:105740008E0F9F1F0895FB01DC0102C001900D9296
:1057500041505040D8F70895DC0101C06D9341508D
:105760005040E0F70895FB01DC0101900D9200200C
:10577000E1F70895FB01DC014150504048F00190F1
:105780000D920020C9F701C01D9241505040E0F732
:105790000895BB274A3031F4992322F4BDE2909555
:1057A00081959F4F0C94DD2B7AE0979F902D879FDA
:1057B000802D910D11240895BB27FB015527AA27A1
:1057C000880F991FAA1FA41710F0A41B839550518E
:1057D000B9F7A05DAA3308F0A95DA193009779F706
:1057E000B111B1931192CB010C94642EAEE0B0E0F4
:1057F000ECEFFBE20C94122F0D891E8986E08C835E
:105800001A8309838FEF9FE79E838D83AE01475EE6
:105810005F4F6F89788DCE0101960E94662CEF81D3
:10582000F885E00FF11F10822E96E4E00C942E2FE5
:10583000AEE0B0E0EEE1FCE20C94122F0D891E897F
:105840008EE08C831A8309838FEF9FE79E838D837D
:10585000AE01475E5F4F6F89788DCE0101960E9441
:10586000662CEF81F885E00FF11F10822E96E4E0A0
:105870000C942E2FAEE0B0E0E0E4FCE20C94122F8A
:105880008C01CA014EE04C831A83098377FF02C062
:1058900060E070E8615071097E836D83A901BC01ED
:1058A000CE0101960E94662C4D815E8157FD0AC093
:1058B0002F813885421753070CF49A01F801E20F43
:1058C000F31F10822E96E4E00C942E2FACE0B0E093
:1058D000ECE6FCE20C94042F7C016B018A01FC01D4
:1058E00017821682838181FFBDC1CE0101964C01D2
:1058F000F7019381F60193FD859193FF81916F01EB
:10590000882309F4ABC1853239F493FD859193FF67
:1059100081916F01853229F4B70190E00E94742EC5
:10592000E7CF512C312C20E02032A0F48B3269F0EB
:1059300030F4803259F0833269F420612CC08D320A
:1059400039F0803339F4216026C02260246023C0FE
:10595000286021C027FD27C030ED380F3A3078F499
:1059600026FF06C0FAE05F9E300D1124532E13C0AF
:105970008AE0389E300D1124332E20620CC08E3206
:1059800021F426FD6BC1206406C08C3611F420681A
:1059900002C0883641F4F60193FD859193FF819111
:1059A0006F018111C1CF982F9F7D9554933028F4BA
:1059B0000C5F1F4FFFE3F9830DC0833631F083374F
:1059C00071F0833509F05BC022C0F80180818983C2
:1059D0000E5F1F4F44244394512C540115C03801CD
:1059E000F2E06F0E711CF801A080B18026FF03C0A9
:1059F000652D70E002C06FEF7FEFC5012C870E941C
:105A0000592E2C0183012C852F77222E17C03801A7
:105A1000F2E06F0E711CF801A080B18026FF03C078
:105A2000652D70E002C06FEF7FEFC5012C870E94EB
:105A30004E2E2C012C852068222E830123FC1BC0B6
:105A4000832D90E048165906B0F4B70180E290E04B
:105A50000E94742E3A94F4CFF50127FC859127FE1D
:105A600081915F01B70190E00E94742E31103A9449
:105A7000F1E04F1A51084114510471F7E5C0843622
:105A800011F0893639F5F80127FF07C0608171816F
:105A9000828193810C5F1F4F08C0608171818827CC
:105AA00077FD8095982F0E5F1F4F2F76B22E97FFB0
:105AB00009C090958095709561957F4F8F4F9F4F4E
:105AC0002068B22E2AE030E0A4010E94A62EA82E63
:105AD000A81844C0853729F42F7EB22E2AE030E082
