:100000000C94E2020C94041D0C94DD1C0C949C1DB9
:100010000C94771D0C94521D0C940A070C94EA0A58
:100020000C940A030C940A030C940A030C940A031C
:100030000C940A030C942B1D0C940A030C940A03D1
:100040000C94931C0C940A030C94661A0C94401A9A
:100050000C940A030C940A030C940A030C940A03EC
:100060000C949F0E0C940A0300000000003E5B4FAE
:100070005B3E3E6B4F6B3E1C3E7C3E1C183C7E3C08
:10008000181C577D571C1C5E7F5E1C00183C180016
:10009000FFE7C3E7FF0018241800FFE7DBE7FF30A6
:1000A000483A060E2629792926407F050507407F14
:1000B00005253F5A3CE73C5A7F3E1C1C08081C1C87
:1000C0003E7F14227F22145F5F005F5F06097F017D
:1000D0007F006689956A606060606094A2FFA29468
:1000E00008047E040810207E201008082A1C080836
:1000F0001C2A08081E101010100C1E0C1E0C303884
:100100003E3830060E3E0E06000000000000005F84
:1001100000000007000700147F147F14242A7F2AA0
:100120001223130864623649562050000807030062
:10013000001C2241000041221C002A1C7F1C2A08AE
:10014000083E080800807030000808080808000011
:1001500060600020100804023E5149453E00427F85
:10016000400072494949462141494D331814127FD4
:100170001027454545393C4A494931412111090774
:100180003649494936464949291E000014000000F5
:1001900040340000000814224114141414140041C7
:1001A00022140802015909063E415D594E7C121184
:1001B000127C7F494949363E414141227F414141BC
:1001C0003E7F494949417F090909013E4141517337
:1001D0007F0808087F00417F41002040413F017FA8
:1001E000081422417F404040407F021C027F7F0470
:1001F00008107F3E4141413E7F090909063E4151B9
:10020000215E7F09192946264949493203017F01A8
:10021000033F4040403F1F2040201F3F4038403FA9
:10022000631408146303047804036159494D4300BF
:100230007F4141410204081020004141417F0402F6
:10024000010204404040404000030708002054548D
:1002500078407F284444383844444428384444286B
:100260007F385454541800087E090218A4A49C78BE
:100270007F0804047800447D40002040403D007F1A
:100280001028440000417F40007C047804787C08FA
:100290000404783844444438FC18242418182424CE
:1002A00018FC7C08040408485454542404043F44B3
:1002B000243C4040207C1C2040201C3C4030403CE2
:1002C00044281028444C9090907C4464544C440042
:1002D00008364100000077000000413608000201A6
:1002E0000204023C2623263C1EA1A161123A404092
:1002F000207A38545455592155557941225454780F
:1003000042215554784020545579400C1E527212A7
:100310003955555559395454545939555454580030
:1003200000457C410002457D420001457C407D1234
:1003300011127DF0282528F07C5455450020545496
:100340007C547C0A097F4932494949323A44444441
:100350003A324A4848303A4141217A3A424020787C
:10036000009DA0A07D3D4242423D3D4040403D3C7D
:1003700024FF2424487E4943662B2FFC2F2BFF09A2
:1003800029F620C0887E0903205454794100004496
:100390007D413048484A32384040227A007A0A0A81
:1003A000727D0D19317D2629292F282629292926F4
:1003B00030484D4020380808080808080808382F39
:1003C00010C8ACBA2F102834FA00007B00000814C3
:1003D0002A142222142A14085500550055AA55AA99
:1003E00055AAFF55FF55FF000000FF00101010FF39
:1003F00000141414FF001010FF00FF1010F010F094
:10040000141414FC001414F700FF0000FF00FF1484
:1004100014F404FC141417101F10101F101F1414D0
:10042000141F00101010F0000000001F101010101A
:100430001F10101010F010000000FF10101010100E
:1004400010101010FF10000000FF140000FF00FF4C
:1004500000001F10170000FC04F4141417101714E8
:1004600014F404F40000FF00F7141414141414140A
:10047000F700F7141414171410101F101F1414147D
:10048000F4141010F010F000001F101F0000001FE7
:1004900014000000FC140000F010F01010FF10FF1A
:1004A000141414FF141010101F00000000F010FFAF
:1004B000FFFFFFFFF0F0F0F0F0FFFFFF0000000093
:1004C00000FFFF0F0F0F0F0F3844443844FC4A4A17
:1004D0004A347E02020606027E027E0263554941CC
:1004E000633844443C04407E201E2006027E020203
:1004F00099A5E7A5991C2A492A1C4C7201724C3017
:100500004A4D4D303048784830BC625A463D3E49ED
:100510004949007E0101017E2A2A2A2A2A44445F91
:10052000444440514A444040444A51400000FF0185
:1005300003E080FF000008086B6B08361236243693
:10054000060F090F060000181800000010100030F8
:1005500040FF0101001F01011E00191D1712003C80
:100560003C3C3C00000000000000000800020100CC
:10057000000304070000000000000000000000006D
:10058000240027002A000000000023002600290084
:1005900000000000250028002B00040404040404CB
:1005A0000404020202020202030303030303010222
:1005B00004081020408001020408102001020408F1
:1005C0001020332611241FBECFEFD8E0DEBFCDBFF1
:1005D00025E0AAE0B2E001C01D92A938B207E1F718
:1005E00012E0A0E0B1E0EAE5F6E502C005900D9268
:1005F000AA30B107D9F712E0C2EED2E004C02197C9
:10060000FE010E940329C13ED107C9F70E94772548
:100610000C942B2B0C9400008091C5028460809375
:10062000C5028091C60280788093C602E091D10213
:10063000F091D202309709F009940895E5ECF2E0C8
:100640008081877F8F7E80831092C1021092C202C8
:100650001092C3021092C4020E948C1B6093C802C5
:100660007093C9028093CA029093CB0243E050E09A
:1006700060E070E087E593E00C943C28FC01838106
:1006800087708860838384818F71806284836783AD
:10069000CF0108950F931F93CF93DF93EC01611562
:1006A000710561F0FB0101900020E9F73197E61B2D
:1006B000F70BE931F10518F0E9E101C0E0E00E2F98
:1006C00010E0C80123E0880F991F2A95E1F79B816C
:1006D0009770892B8B838C818F718C83EE2329F00B
:1006E000A801CE0107960E941C2BFE01E00FF11F0E
:1006F0001782CE01DF91CF911F910F910895FC01D8
:100700002481229526952770213011F48781089540
:10071000211104C007960E94B027089580E0089533
:100720008EBD00000DB407FEFDCF8EB50895CF92AB
:10073000DF92EF92FF920F931F93CF93DF937B0192
:10074000142F022F91E59CBD91E09DBD2A98E3E214
:10075000F0E03197F1F70E949003E7011123A9F02F
:10076000002349F08FEF0E949003E114F10459F047
:100770008883219608C06E018FEFC81AD80A888135
:100780000E949003E6011150E9CF2A9AE3E2F0E0DB
:100790003197F1F7DF91CF911F910F91FF90EF907B
:1007A000DF90CF900895CF9321E041E060E070E0CA
:1007B00086E00E949703C82F21E041E060E070E0EE
:1007C00085E00E94970321E08C3409F020E081E06D
:1007D000C73209F080E08223CF910895CF93DF9351
:1007E0001F92CDB7DEB7698320E041E0BE016F5FA5
:1007F0007F4F0E9497030F90DF91CF9108956FE094
:1008000080E20E94EE03609118016F3F19F08AE2C6
:100810000E94EE03299A08958091C602982F90773E
:10082000903759F0982F92959F709F5F977092958F
:10083000907F8F78892B8093C6028091C5028B7F31
:100840008F7E8093C50280E090E0892B21F087E6BF
:1008500090E00E94000029986CE080E20C94EE0386
:1008600020E040E060E070E00C9497030F931F934A
:10087000CF93DF938C01FC01C2818091C50280FF80
:1008800004C0CF3F09F05DC014C0C11103C0C091C6
:1008900058030FC0CF3F69F08C2F90E003960E9461
:1008A0004C288F3F29F480915803F80190819813C8
:1008B000C82F80915703F8018083438142FD06C011
:1008C000469546954695D7E0D40F01C0D0E280E02A
:1008D00090E0892B21F080E090E00E9400002998B0
:1008E00083E092E00197F1F76EE080E20E94EE0370
:1008F0008BE891E00197F1F76C2F8AE20E94EE03FA
:100900006C2F80E30E94EE0381EE0E943004CF3F03
:1009100011F080EA01C080EB4D2FD13208F040E2A7
:1009200020E0B8010E949703299A00E010E08FEFC1
:100930000E943004D82F807331F401501109B9F7A7
:1009400002C0D0E02FC0299860E387E20E94EE0346
:10095000D4FF03C081EE0E9430040E94FF03D5FB48
:10096000DD27D0F991E0CF3F09F090E0D92B8091BD
:100970005803C81317C0D11110C080E090E0892B34
:1009800021F085E690E00E9400008091C60291E08F
:10099000980F9F70807F892B03C08091C602807F53
:1009A0008093C6028D2FDF91CF911F910F910895F3
:1009B0002091C50222FD0C94360480E00895CF9367
:1009C00080910D0381FD27C00E94771880E090E0A0
:1009D000892B21F089E090E00E94000080910D03B6
:1009E000816080930D03C4E02AE143E06FEF80E073
:1009F0000E94C11D62E00E943E030E94D8048BE168
:100A00000E944E1E811102C0C15071F780910D03EA
:100A1000826080930D03CF91089580E090E0892B50
:100A200021F088E090E00E9400008FEF8093C702E1
:100A30008091C50288608093C50228E143E06FEF92
:100A400080E00E94C11D61E00E943E030C943604C8
:100A5000809157038F3FA1F480E090E0892B21F033
:100A600086E090E00E94000023E043E06FEF80E02A
:100A70000E94C11D61E072E00E944A030C9436049A
:100A8000089580E090E0892B21F084E090E00E94BE
:100A900000008091C502897F81608093C5028FEF3D
:100AA000809359038093580327E043E06FEF0E943F
:100AB000C11D61E072E00E944A030C943604CF939A
:100AC000C82F8FEF8C0F8E3FA8F4C0935703C093AD
:100AD000180163E082E20E94EE0361E081E20E947D
:100AE000EE030E94FF036C2F80E090E00E946428D8
:100AF00081E00CC080E090E0892B21F08EE690E050
:100B00000E9400008FEF8093570380E0CF910895FB
:100B1000E091BB02F091BC020280F381E02D30979E
:100B200009F009958091C50284FD0C943312089553
:100B30000F931F930E948C1B0091BD021091BE0267
:100B40002091BF023091C002601B710B820B930B8E
:100B50001F910F9108959C018091BB029091BC025E
:100B60008217930751F09091C5029F719093C5022F
:100B70003093BC022093BB0205C08091C502805E09
:100B80008093C502E091BB02F091BC020190F0811C
:100B9000E02D309709F009950E948C1B6093BD02EF
:100BA0007093BE028093BF029093C00208950F938A
:100BB0001F930E9498052091C6022077203729F0C4
:100BC00000E117E220E030E004C000E61AEE20E089
:100BD00030E0061717072807390730F481E291E063
:100BE0001F910F910C94AB051F910F910895809167
:100BF000C6028F708B3020F084E191E00C94AB053D
:100C000008958091C7028F3FA1F00E948C1B6093D2
:100C1000C1027093C2028093C3029093C402809178
:100C2000C7029091590389138093590380E191E0A1
:100C30001BC00E949805613D774081059105B0F089
:100C40008091C502803618F48CE091E00DC0877F5A
:100C50008093C50280E090E0892B21F08AE690E045
:100C60000E94000084E191E00C94AB05089580910E
:100C700057038F3F59F080E090E0892B21F087E007
:100C800090E00E9400008CE091E018C00E9498055E
:100C9000613D77408105910598F08091C5028036CD
:100CA00018F488E091E00AC080E090E0892B21F000
:100CB00089E690E00E9400008DE191E00C94AB0584
:100CC00008950E949805613D77408105910520F4C3
:100CD0008091C50281FF0895809158038F3F81F074
:100CE0008091C5028E7F8093C50280E090E0892BC1
:100CF00021F085E090E00E94000088E091E011C0C2
:100D00008091C502803618F484E191E00AC080E049
:100D100090E0892B21F088E690E00E9400008DE1B0
:100D200091E00C94AB05219A229A0E94690E2998B1
:100D30002A9A6EE080E20E94EE0365E070E080E0B7
:100D400090E00E94521B63E083E20E94EE036FE595
:100D500084E20E94EE036CE485E20E94EE0367E207
:100D600086E20E94EE0363E780E50E94EE0366E000
:100D70008DE30E94EE030E94D3038823F1F162E029
:100D800082E20E94EE0360E081E20E94EE0363E0F3
:100D90008CE30E94EE038FEF8093030120E045E097
:100DA00063E071E08BE20E94970320E045E063E09E
:100DB00071E08AE20E94970320E045E063E071E081
:100DC00080E30E94970382EE0E94300481EE0E942D
:100DD000300460E787E20E94EE038091C5028061E3
:100DE0008093C502809157038F3F81F00E945F0579
:100DF00081110CC08DE191E00BC080E090E0892B67
:100E0000C9F387E690E00E940000F4CF84E191E00E
:100E10000C94AB051F920F920FB60F9211240F90F6
:100E20000FBE0F901F901895CF92DF92EF92FF9216
:100E30000F931F93CF93DF93FC016901342F8589B2
:100E4000882391F0823020F090859150961B692F75
:100E50009FEF980F923018F432853150341B80FF89
:100E600003C0862F632F382F67FD79C0862F062E8B
:100E7000000C990BC481D5818C179D070CF06FC0B5
:100E8000032F10E046815781041715070CF067C047
:100E9000568D23E0959587952A95E1F743E01595C2
:100EA00007954A95E1F7509F7001519FF00C11246E
:100EB000078D10A1800F911F8E0D9F1DDC012C91BD
:100EC000462F4770377081A192A1820F911DDC01DE
:100ED0008C91823018F097E0941B492F9FEF980F68
:100EE000923018F497E0931B392F80FF03C0842FB2
:100EF000432F382F822F652F0E94AD28859F201900
:100F00001124B8E02B9F400D112498E0899F300DEB
:100F10001124632F70E083E0759567958A95E1F75A
:100F2000C69FC001C79F900DD69F900D1124840FBE
:100F3000911D47FD9A95038CF48DE02DE80FF91F64
:100F4000377081E090E001C0880F3A95EAF7208180
:100F5000CD2811F0822B02C0809582238083DF91FF
:100F6000CF911F910F91FF90EF90DF90CF90089558
:100F70000895FC016370658B84819581268137819A
:100F8000613039F0633029F0918780873387228779
:100F90000895318720879387828708950C94B90735
:100FA0006F927F928F929F92AF92BF92CF92DF9279
:100FB000EF92FF920F931F93CF93DF93EC014B01BE
:100FC0005A0169013801E881F9810284F385E02D35
:100FD0000995E881F9810288F389E02D870196015E
:100FE000A501B401CE010995E881F981A501460D5D
:100FF000571D415051090288F389E02D9601B40133
:10100000CE010995E881F9810088F189E02D9301ED
:10101000A501B401CE010995E881F981C80CD91C5C
:10102000B601615071090088F189E02D9301A50195
:10103000CE010995E881F9810688F789E02DCE0176
:10104000DF91CF911F910F91FF90EF90DF90CF90A4
:10105000BF90AF909F908F907F906F900994CF92A8
:10106000DF92EF92FF920F931F93CF93DF9300D005
:1010700000D000D0CDB7DEB76C01DC01ED91FC9162
:101080006217730789F4041715072CF4942F852F22
:10109000A801092F182F041B150B98012F5F3F4F34
:1010A000048CF58DE02D12C04017510709F5261765
:1010B00037072CF4962F872FB901292F382F261B9D
:1010C000370B2F5F3F4F068CF78DE02D8701C60150
:1010D000099526960FB6F894DEBF0FBECDBFDF91FF
:1010E000CF911F910F91FF90EF90DF90CF900895D7
:1010F0000284F385E02D2D833E834B835C836983DB
:101100007A830995D601ED91FC910488F589E02D4B
:101110002D813E814B815C8169817A81C60109956F
:10112000D601ED91FC910688F789E02DC60126963F
:101130000FB6F894DEBF0FBECDBFDF91CF911F91E8
:101140000F91FF90EF90DF90CF900994EF92FF9274
:101150000F931F93DC01ED91FC9111971A960D915D
:101160001C911B9718962D913C91199700A0F1A105
:10117000E02D7B0140E050E060E070E009951F91B8
:101180000F91FF90EF9008954F925F926F927F9230
:101190008F929F92AF92BF92CF92DF92EF92FF9287
:1011A0000F931F93CF93DF9300D0CDB7DEB76C01C1
:1011B0005A0139014801DC01ED91FC910284F3856B
:1011C000E02D69837A8309956981462E7A81572EAD
:1011D000640C751CD601ED91FC91461457046CF417
:1011E0000088F189E02D87019401A501B201C601B3
:1011F0000995BFEF4B1A5B0AEDCF0688F789E02D02
:10120000C6010F900F90DF91CF911F910F91FF902A
:10121000EF90DF90CF90BF90AF909F908F907F9096
:101220006F905F904F900994AF92BF92CF92DF92F0
:10123000EF92FF920F931F93CF93DF9300D000D0D4
:10124000CDB7DEB75C016901DC01ED91FC91028450
:10125000F385E02D4B835C8369837A830995D501FF
:10126000ED91FC9169817A819B012C0D3D1D2150EE
:1012700031090488F589E02D78014B815C818A0170
:10128000C5010995D501ED91FC910688F789E02DFE
:10129000C5010F900F900F900F90DF91CF911F918C
:1012A0000F91FF90EF90DF90CF90BF90AF90099497
:1012B000AF92BF92CF92DF92EF92FF920F931F9364
:1012C000CF93DF9300D000D0CDB7DEB75C016901CA
:1012D000DC01ED91FC910284F385E02D4B835C836E
:1012E00069837A830995D501ED91FC914B815C81ED
:1012F000C40ED51EB1E0CB1AD1080488F589E02DC3
:101300007801860169817A819B01C5010995D50122
:10131000ED91FC910688F789E02DC5010F900F90A3
:101320000F900F90DF91CF911F910F91FF90EF9051
:10133000DF90CF90BF90AF9009940895EF92FF9205
:101340000F931F93DC01ED91FC9100A0F1A1E02D22
:1013500009951F910F91FF90EF9008950F931F93A0
:10136000DC01ED91FC91068CF78DE02D09951F9124
:101370000F9108950F931F93DC01ED91FC91048C64
:10138000F58DE02D09951F910F910895DC01ED91E8
:10139000FC910084F185E02D099408952F923F92ED
:1013A0004F925F926F927F928F929F92AF92BF9275
:1013B000CF92DF92EF92FF920F931F93CF93DF9321
:1013C00000D01F92CDB7DEB74C017B836A836A01E0
:1013D000590117019801241B350B37FF03C03195C4
:1013E00021953109C5014A815B81841B950B97FFCB
:1013F00003C091958195910951E059838217930714
:1014000014F019820BC09A2D8B2D5801092F182F1B
:101410009A818B81DB82CA82C92ED82E8A819B81D8
:10142000A816B9065CF49C2D8D2D6801092F182F84
:101430009A818B81BB82AA82A92EB82E2501AA810E
:10144000BB814A1A5B0A38016C187D0877FE03C01D
:10145000719461947108720157FE03C0BFEFEB1ADB
:10146000FB0AF594E794C016D1061CF00FEF1FEFAE
:101470001FC001E010E01CC0D401ED91FC91B981C6
:101480000484F585E02D9101BB23C1F04A815B8185
:10149000B601C4010995E618F708F7FE04C0C00EAE
:1014A000D11EE40CF51CEA81FB813196FB83EA83B3
:1014B0004A815B81A416B506FCF604C0A6016A81C8
:1014C0007B81E7CF0F900F900F90DF91CF911F910D
:1014D0000F91FF90EF90DF90CF90BF90AF909F90D3
:1014E0008F907F906F905F904F903F902F900895D6
:1014F000FC01458D50E0672B19F460E070E002C0FC
:101500006FEF70E0FC01838D948D0C940E2BDF92B5
:10151000EF92FF920F931F93CF93DF93282F30E02A
:10152000F901EE0FFF1FE657FA4FA591B4910C9108
:10153000F901E557FD4FD080D0260083220F331FDD
:10154000F901E15DFE4F0190F081E02D9081D922FB
:10155000C9F1182F110F110F110FE12CF12CC1E05F
:10156000D0E09E010E2C01C0220F0A94EAF78D2DC7
:10157000822309F1E12FEE0DF0E0EE0FFF1FDF01F6
:10158000A55ABD4F8D919C918130910551F08330CA
:10159000910519F4202329F40EC0029761F4202349
:1015A00051F4E55DFD4F80819181892B21F00190FF
:1015B000F081E02D09958FEFE81AF80A88E0E81627
:1015C000F10479F6DF91CF911F910F91FF90EF9089
:1015D000DF9008951F920F920FB60F9211242F9350
:1015E0003F934F935F936F937F938F939F93AF93AB
:1015F000BF93EF93FF93E091B502F091B602099586
:10160000FF91EF91BF91AF919F918F917F916F91DA
:101610005F914F913F912F910F900FBE0F901F90B0
:101620001895FC01F894248135818085823021F45D
:10163000C9018170992705C0843031F4C9018370D4
:1016400099279583848302C01582148278948085BB
:10165000843029F4359527953595279504C0823037
:1016600011F4359527958685882329F08185928503
:10167000892F992702C080E090E037FF03C0809552
:1016800090950895232B11F00196089580E090E045
:101690000895EF92FF920F931F93CF93DF938C01E6
:1016A000D62FE42E60E0DC015A968C910E94C11A7C
:1016B000FF24FA94FD0EF801C58DCF0DC8508D2F73
:1016C0000E949003D93048F4D8015B96ED91FC91CB
:1016D0005C97EC0FF11D808101C08E2D0E9490035C
:1016E000FC1660F361E0F801828DDF91CF911F91CC
:1016F0000F91FF90EF900C94C11A2F923F924F924E
:101700005F926F927F928F929F92AF92BF92CF9291
:10171000DF92EF92FF920F931F93CF93DF93CDB79A
:10172000DEB76C970FB6F894DEBF0FBECDBF9C8FAF
:101730008B8F5B011A011F830E833701C982DC0185
:1017400058964D915C9159974115510509F0E5C0A6
:1017500018968D919C911997681779070CF0CAC15A
:101760001A968D919C911B97281639060CF0C2C1D0
:101770008C2C912CFB0136E0C39EE00DF11D112451
:10178000FB87EA871E161F060CF0B4C1C40133E0C4
:10179000880F991F3A95E1F79D878C87820D931DDD
:1017A000181619060CF0A6C157968C91811103C02A
:1017B000203B08F02F5FAB8DBC8DED91FC91119714
:1017C0000284F385E02DCD012A8F09952A8DB5E09D
:1017D0002B9F90011124F5013596FF87EE87BB8280
:1017E000AA822501A9014A195B09598B488BC101BD
:1017F00008969B8B8A8BE889F989E40DF51DE859D9
:10180000FF4F9491988761013D822C82A885A0FFAB
:1018100013C0AB8DBC8DED91FC91B981B13031F429
:101820000484F585E02D2E813F8116C00684F7855E
:10183000E02DEE80FF801AC0EE81FF816E167F06DC
:10184000F1F0AB8DBC8DED91FC91B981B13051F4CB
:101850000484F585E02D9301A601B2018B8D9C8D4A
:1018600009950DC00684F785E02D7301840194016C
:101870004C815D816A817B818B8D9C8D0995E8858A
:10188000E695E887FFEFCF1ADF0A2C813D81280D0E
:10189000391D3D832C834A895B89C416D50609F01E
:1018A000B5CF5FEF451A550A8A819B81880D991D36
:1018B0009B838A83AE85BF854A165B0609F09BCF62
:1018C000EE81FF816E167F0609F4F2C0EB8DFC8D70
:1018D000A081B181F981F13079F4B5016B5F7F4F5F
:1018E0005096ED91FC915197830128E030E0A101E1
:1018F0008B8D9C8D0995DCC06A857B85681979097B
:101900001E96ED91FC911F9773010C851D85940126
:10191000A1018B8D9C8D0995CBC0FA0134969491D1
:10192000329765917491291BCB01B7E02B9F800DF5
:10193000911D1124FA01259134913B8B2A8BFC01D6
:10194000459154915B834A83FC013296C490319651
:1019500054915E87329614913196D4908981823069
:1019600058F0612E012E000C7708AD2D0D2C000CC7
:10197000BB0BB987A88704C019861886612C712C07
:10198000AB8DBC8DED91FC9111970284F385E02D18
:10199000CD010995B9818B2E912C689CC001699C61
:1019A000900D789C900D1124FC01EA0DFB1DFD8724
:1019B000EC871C82712C612CE12F110FFF0B95011C
:1019C0002E0F3F1F3B872A87AC0CB11CA5014E0F81
:1019D0005F1F5F8B4E8BC1018D0D911DD7FC9A95BA
:1019E000998F888F4E85641608F062C0862D90E02E
:1019F00048855985480F591F489D9001499D300DD4
:101A0000589D300D1124D901A20DB31DB98BA88B9F
:101A1000AA84BB844C845D84DC80BA85DB1AE88DA3
:101A2000F98DE80FF91FFD8BEC8B8D2D8A0D2E891A
:101A30003F89A216B306B9F1877061F48A819B8150
:101A40000196EA89FB89AA81BB81EA0FFB1F74908A
:101A50009B838A8377FE20C0AB8DBC8DED91FC917A
:101A6000B981B13061F40484F585E02D2E813F8188
:101A70004C895D89B5018B8D9C8D09950DC00684BF
:101A8000F785E02DEE80FF80840194014889598913
:101A9000B2018B8D9C8D0995770CEFEFAE1ABE0AC3
:101AA000480C591CC2CF3C813C0D3C8363949ACFB7
:101AB000AB8DBC8DED91FC9111970688F789E02DD7
:101AC000CD016C960FB6F894DEBF0FBECDBFDF918F
:101AD000CF911F910F91FF90EF90DF90CF90BF902B
:101AE000AF909F908F907F906F905F904F903F90BE
:101AF0002F9009946C960FB6F894DEBF0FBECDBF41
:101B0000DF91CF911F910F91FF90EF90DF90CF90D9
:101B1000BF90AF909F908F907F906F905F904F900D
:101B20003F902F900895AF92BF92CF92EF92FF9285
:101B30000F931F93CF93DF93EC01262F888D998D00
:101B4000009709F040C06A3059F41D861C862C8924
:101B50008E859F8538E0239F800D911D112441C003
:101B60006D3009F4AAC08E898823C1F03C898C8528
:101B70009D8546E0349F800D911D1124488559852F
:101B8000481759075CF41D861C868E859F8548E0A2
:101B9000349F800D911D11249F878E87EA88FB88D2
:101BA000088919894E855F856C857D85CC88CE0135
:101BB0000E947D0B2C898C859D8536E0239F800DAE
:101BC000911D112442C06A3079F41D861C862C892F
:101BD000FC013696E4918E859F852E9F800D911D88
:101BE00011249F878E8769C06D3009F466C0FC019F
:101BF00034963491631708F460C03196E491E61787
:101C000008F45BC0FC013296A590B490462F50E0DA
:101C1000431B510937E0349FB001359F700D1124EB
:101C2000A60EB71EF501329634913196E491332316
:101C300011F0E1110DC0F5013496E4912C898C85E9
:101C40009D85E29F800D911D11249D878C8735C055
:101C5000F501359644915E89552311F16C89E32F86
:101C6000F0E0E40FF11D47FDFA956E9FD0016F9FE4
:101C7000B00D11244C855D854A0F5B1FE885F98501
:101C8000E417F5076CF41D861C86FC013696E4917A
:101C90008E859F856E9F800D911D11249F878E8755
:101CA000EA88FB88088919894E855F856C857D8562
:101CB000CC88CE010E947D0BBECF81E090E0DF9109
:101CC000CF911F910F91FF90EF90CF90BF90AF9069
:101CD0000895CF93CFB7F8948091B402811127C0B3
:101CE000E4EAF5E08491E8EBF5E09491E82FF0E088
:101CF000EE0FFF1FE458FA4FA591B491EC91E92340
:101D000021F461E08AE00E94C11A61E08AE00E9449
:101D1000F11A8CB580618CBD8CB580648CBD61E09E
:101D20008DE00E94F11A61E08BE00E94F11A80912F
:101D3000B4028F5F8093B402CFBFCF9108951F92FA
:101D40000F920FB60F9211242F933F934F935F93EF
:101D50006F937F938F939F93AF93BF93EF93FF9373
:101D60008091B900887F803609F49CC068F588327C
:101D700009F45BC090F4803109F454C038F488232E
:101D800009F4F6C0883009F44DC0F6C0883109F472
:101D90004CC0803209F45DC0EFC0803409F468C0E3
:101DA00048F4803309F455C0883309F0E5C08093C6
:101DB0003203D8C0803509F44FC0883509F45DC0BE
:101DC000883409F0D9C0D6C0883909F4C7C0A8F44E
:101DD000883709F467C038F4883609F463C080375F
:101DE00009F460C0C9C0883809F4B8C0803909F462
:101DF0005FC0803809F0C0C05BC0803B09F486C07A
:101E000038F4803A09F466C0883A09F47FC0B4C057
:101E1000803C09F4A7C0883C09F4A4C0883B09F4BD
:101E20008AC0AAC080912F0310C090913103809185
:101E30003003981770F5E091310381E08E0F8093A5
:101E40003103F0E0E25FFC4F80818093BB0085ECC2
:101E500086C0809332038EC0E091310381E08E0F03
:101E6000809331038091BB00F0E0E25FFC4F808300
:101E700090913103809130036EC0E091310381E095
:101E80008E0F809331038091BB00F0E0E25FFC4F46
:101E900080838091330381116DC081E080932E0394
:101EA00084EA61C083E0809334031092B302CFCF01
:101EB0008091B302803208F051C0E091B30281E01A
:101EC0008E0F8093B3028091BB00F0E0ED56FD4F82
:101ED0008083BDCF85EC8093BC0010923403809149
:101EE000B302803230F4E091B302F0E0ED56FD4FE2
:101EF00010826091B30270E0E0919102F091920241
:101F000083E992E009951092B30236C084E0809391
:101F100034031092900210922A02E0918E02F09106
:101F20008F02099580912A02811105C081E080937A
:101F30002A0210920A02E091900281E08E0F8093B3
:101F40009002F0E0E65FFD4F80818093BB009091AE
:101F5000900280912A02981708F479CF85E880933F
:101F6000BC000AC085EC8093BC001092340304C00E
:101F7000109232030E942912FF91EF91BF91AF910D
:101F80009F918F917F916F915F914F913F912F9191
:101F90000F900FBE0F901F90189540912A02262F88
:101FA00030E0240F311D21323105DCF4209134035F
:101FB0002430C9F4FC0180E090E0861758F4309199
:101FC0002A022191DC01A65FBD4FA30FB11D2C9306
:101FD0000196F3CF80912A02680F60932A0280E075
:101FE000089581E0089582E008950895E091360310
:101FF00080913503E81730F4F0E0E95CFC4F808114
:1020000090E008958FEF9FEF0895909136038091AF
:102010003503981750F4E92FF0E0E95CFC4F20817C
:1020200030E09F5F9093360302C02FEF3FEFC9016E
:1020300008958091350390E020913603821B910929
:102040000895CF92DF92EF92FF920F931F93CF9359
:10205000DF937C01262F972F8A0180910B03882321
:1020600091F0C62FD72F6E01C40ED51ECC15DD05FD
:1020700071F06991D701ED91FC910190F081E02D13
:10208000C7010995F3CF642F822F0E94CD0FC8019D
:10209000DF91CF911F910F91FF90EF90DF90CF9044
:1020A0000895CF93DF931F92CDB7DEB76983209158
:1020B0000B032223D1F020910903203240F021E0CC
:1020C00030E0FC013383228380E090E015C08091F2
:1020D0000A03E82FF0E0E751FD4F998190838F5F6D
:1020E00080930A038093090305C061E0CE01019645
:1020F0000E94CD0F81E090E00F90DF91CF91089585
:10210000089580E090E008952F923F924F925F9261
:102110006F927F928F929F92AF92BF92CF92EF92E7
:10212000FF920F931F93CF93DF933C010E948C1B70
:102130001B012C018091CD029091CE02A091CF0283
:10214000B091D002A2019101281B390B4A0B5B0B05
:10215000293231054105510508F490C060E070E076
:1021600082E994E00E94780A8091B9029091BA02C3
:102170006091EF047091F0040E94CD285B01C09142
:102180009A04D0919B042197C81BD90B80919C0481
:1021900090919D044C0138E0831A910897FE04C089
:1021A0004C0147E0841A9108959487948091EF043C
:1021B0009091F0048C0F9D1F1816190664F5B7FC5A
:1021C0002AC0D30114968D919C911597A816B90633
:1021D000C0F4ED91FC91309729F41092CC02ECEC14
:1021E000F2E002C0EA0DFB1DCC24C394E12CF12CDB
:1021F00001E010E02081A401BE0182E994E00E9488
:102200007D0BB1E0AB1AB1088091EF049091F0041E
:10221000C81BD90BCBCF0E94841E8091B90290912C
:10222000BA0220919A0430919B0422503109D301C3
:102230001496ED91FC9115976091EF047091F00464
:10224000E69FA001E79F500DF69F500D1124240F2B
:10225000351F8217930730F401969093BA0280934A
:10226000B90204C01092BA021092B9022092CD02B3
:102270003092CE024092CF025092D002DF91CF91A5
:102280001F910F91FF90EF90CF90BF90AF909F90D4
:102290008F907F906F905F904F903F902F90089518
:1022A0008091E6049091E70481309105E1F01CF4FF
:1022B000892B49F008958330910509F43FC00497B4
:1022C00009F465C0089581E08093BC0480E591E144
:1022D0009093C5048093C40461E088E00E94C11A11
:1022E00083E090E06FC082E08093BC0480E591E1E0
:1022F0009093C5048093C40460E088E00E94C11AF2
:102300004091E9045091EA0428EE33E0429FC00175
:10231000439F900D529F900D1124A0E0B0E0809358
:102320008C0490938D04A0938E04B0938F0484E06A
:1023300090E09093E7048093E604089582E0809310
:10234000BC0480E591E19093C5048093C40460E0EF
:1023500088E00E94C11A4091E9045091EA0428EEF5
:1023600033E0429FC001439F900D529F900D112476
:10237000A0E0B0E080938C0490938D04A0938E0431
:10238000B0938F041092E7041092E60408958091B0
:102390001B0190911C01029729F5809119019091E0
:1023A0001A010397F9F481E08093BC0480E591E180
:1023B0009093C5048093C40461E088E00E94C11A30
:1023C00081E090E09093E7048093E6048AEF90E048
:1023D000A0E0B0E080938C0490938D04A0938E04D1
:1023E000B0938F0408952091E6043091E704909112
:1023F000690480916A0497709860909369048F7162
:10240000806280936A042230310589F081E08093F4
:102410006D0486E694E00E94271E82E090E090938F
:10242000E7048093E6041092870462E00EC01092E5
:102430006D0486E694E00E94271E1092E704109235
:10244000E60481E08093870460E08DE991E00C94DC
:10245000642885ED8093BC008091BC0084FDFCCF96
:102460001092340308954F925F926F927F928F92F1
:102470009F92AF92BF92CF92DF92EF92FF920F9313
:102480001F93CF93DF930E948C1B0091C802109181
:10249000C9022091CA023091CB02DC01CB01801B22
:1024A000910BA20BB30B813A9B4BAD40B10590F061
:1024B0000E948C1B6093C8027093C9028093CA0269
:1024C0009093CB020E94D303811104C08DE191E06F
:1024D0000E94AB0586E0B82E90E0E92E90E0F92E40
:1024E00020E0C22E20E0D22E31E2A32E21E041E0F6
:1024F00060E070E087E10E94970380FD99C2BA9482
:10250000BB2009F495C2E114F10421F081E090E0D0
:102510000E94000021E041E060E070E080E60E945F
:102520009703082F813220F082EE0E94300400E0F1
:1025300021E0402F62E175E081E60E94970360E4AC
:1025400087E20E94EE0390911505192F16951695B6
:1025500016951A3108F019E192FD03C087E0810F4A
:1025600001C080E270901605C0911705D091130547
:102570009090120580901405081739F0E114F104C9
:1025800009F4B4CF8CE690E009C09370923049F022
:10259000E114F10409F4AACF8DE690E00E94000056
:1025A000A5CF80915803981651F080915703D81702
:1025B00031F08D2F90E0692D03960E946428072D3D
:1025C00007708091C60280688093C602809157038D
:1025D00088124DC020911505822F86958695869587
:1025E0008A3108F089E138E0839FC0011124277007
:1025F000822B80931505E12FF0E0EE5EFA4F1782F3
:102600008091160583FF17C0E2E1F5E0A1EFB4E089
:102610008A2D01900D928A95E1F78091F504877FCC
:1026200080618093F5048092F204D093F30481EFEB
:1026300094E00E94D8048091160584FD13C00330F5
:1026400089F49091170521EF290F233008F0BBC0C2
:102650004DCF913009F45DC19A3009F479C19C31B4
:1026600009F444CF82E195E00E9489173FCF2FEF14
:1026700082128FC0033009F07EC08091C50282FFB4
:102680005DC0C73009F05AC080915803D81709F4CB
:102690002DCF0E948C1B0091C1021091C20220918B
:1026A000C3023091C402DC01CB01801B910BA20B51
:1026B000B30B80319742A105B10518F18091C50295
:1026C00083FD14CF9091570391116AC11092C702F4
:1026D0008091C502877F8093C502C091C702CF3F1A
:1026E00009F404CF0E948C1B6093C1027093C20254
:1026F0008093C3029093C40280915903C813C0937E
:1027000059030E948C1B6093C1027093C202809394
:10271000C3029093C4020E948C1B73708827992770
:102720000E94521BC091590328E043E06FEF8D2FA8
:102730000E94C11D6C2F0E943E0342C0C83009F4A4
:10274000D5CEC431C1F480915803981214C00E94B0
:102750008C1B7370882799270E94521BC0915803C5
:1027600025E143E06FEF8D2F0E94C11D6C2F0E9469
:102770003E030E943604809158039812B7CE809190
:102780005703D81709F450C18091C50282FD40C19A
:102790004BC18091C50282FFA9CE033079F4C851A4
:1027A000C23060F482E195E00E947F038E3F31F0F9
:1027B00061E0680F82E195E00E943E0382E195E0CE
:1027C0000E94360493CEC43039F482E195E00E9431
:1027D0007F030E945F058ACEC830D9F4C091C5023C
:1027E000C0FF84CE82E195E00E947F038F3F09F411
:1027F0007DCE8F5F8F3F09F479CE90915903891771
:1028000008F074CEC1FD72CE80935903D093580363
:102810006DCEC83141F429E143E06FEF8D2F0E9466
:10282000C11D61E088CFC93171F48091C50283FF79
:102830005DCE877F8093C50282E195E00E947F0391
:102840008093C70253CE209113052111A5C09D305E
:1028500099F480E090E0892B21F08BE090E00E94D9
:10286000000098E088E10FB6F894A8958093600086
:102870000FBE90936000FFCF9B31A9F482E195E0F9
:102880000E947F0391E0811101C090E080910D03CF
:1028900090FB80F980930D03E114F10409F426CE36
:1028A0008AE090E07BCE963099F49091190581E012
:1028B000992319F09D3409F080E080930C0341E0E6
:1028C00050E063E071E08CE093E00E9454280ECE6B
:1028D000933119F40E94771809CE923109F0B9CEDC
:1028E0000E9498052B013C0126E143E06FEF80E058
:1028F0000E94C11DFC0184818F71806A8483838161
:102900008770806283834782508661867286CF019A
:1029100040C0C114D10409F4E9CD82958695877031
:10292000853049F46091190570911A0580911B0555
:1029300090911C050AC0811105C089E195E00E94B3
:10294000CE2703C060E070E0CB010E940000CECD36
:1029500080911905833409F0C9CDE114F10421F007
:102960008DE090E00E940000C3E0D0E06FEFCE0168
:102970000E9464282196C33081E0D807B9F72AE085
:1029800043E06FEF80E00E94C11D67E871E00E94A4
:102990004A030E94D804AACD9A3109F063CEA6CD8D
:1029A00088608093C5028092C70228E143E06FEF00
:1029B00080E00E94C11D61E00E943E030E94360437
:1029C0000E948C1B2B013C0110921705C0E00E9455
:1029D0008C1BDC01CB0184199509A609B709803D40
:1029E0009740A105B10508F073CEC11171CE809159
:1029F000C50284FD0E943312A89580911605877048
:102A0000833029F7C1E0809117058931F9F6DFCFCE
:102A100082E195E00E943604033009F467CD80918D
:102A20005803981263CD1ECE033009F01BCE5ECD45
:102A3000DF91CF911F910F91FF90EF90DF90CF909A
:102A4000BF90AF909F908F907F906F905F904F90CE
:102A50000895CF93DF9300D000D000D0CDB7DEB77C
:102A600080911B0190911C01019761F580911901E2
:102A700090911A0183309105A1F044F481309105C1
:102A800069F00297F9F46CE971E010C084309105A7
:102A900059F00597B9F46EED71E008C06AE871E08D
:102AA00005C06AEA71E002C064EC71E0CE010196F3
:102AB0000E942B1ACE0101960E94841089819A816E
:102AC0000E949E2980911B0190911C01029799F50B
:102AD00060E070E082E994E00E94780A10929F041E
:102AE00010929E041092A1041092A00480911901EA
:102AF00090911A0183309105B1F01CF4029739F0DE
:102B000018C08430910579F0059769F012C0809162
:102B1000E804882319F083EF91E002C086EF91E08A
:102B20000E94901E06C08091B7029091B8020E9448
:102B3000A21E0E94841E26960FB6F894DEBF0FBE1A
:102B4000CDBFDF91CF910895EF92FF920F931F9326
:102B5000CF93DF9380E28093B804109236031092F3
:102B6000350310920A03109209031092340381E096
:102B70008093330310922E0361E082E10E94C11A18
:102B800061E083E10E94C11A8091B9008E7F809339
:102B9000B9008091B9008D7F8093B90088E480935B
:102BA000B80085E48093BC000E94D01D8091B704DA
:102BB0008E7F8093B7048091B5048E7F8093B50497
:102BC0000E94DF1E8091B7048E7F8093B7048091AE
:102BD000B50481608093B5040E94DF1E8091B70424
:102BE0008D7F8093B7048091B5048D7F8093B50469
:102BF0000E94DF1E8091B7048D7F8093B70480917F
:102C0000B50482608093B5040E94DF1E60E082E01C
:102C10000E94F11A61E082E00E94C11A82E0809372
:102C2000BB0462E00E94F11AE0EBF5E02491ECE9CC
:102C3000F5E0E491EE2309F447C0E250AE2FB0E096
:102C4000AA0FBB1FA15DBE4F0D90BC91A02DE1301E
:102C500031F08E2F880F880F880F8E5F01C08CEFA8
:102C600090E0880F991FEC01C55ADD4F42E050E01B
:102C700059834883EC01C55DDD4F4DEA52E259832B
:102C800048838C91282B2C932091680081E090E060
:102C900001C0880FEA95EAF7822B80936800EAE882
:102CA000F5E0A591B4918C9180938B02ECE8F5E06E
:102CB000A591B4918C9180938C02EEE8F5E0A591FA
:102CC000B4918C9180938D0282E08093BD0423EFB8
:102CD00031E13093C7042093C6048093BC0480E59F
:102CE00091E19093C5048093C4048FE090E00E942A
:102CF0000929EC0180E188838FE0898381E18A835F
:102D00001B821D821C821F821E8281E088871A8698
:102D100019861C861B868D878E8762E080E10E9463
:102D2000F11A62E089810E94F11A62E08A810E94B0
:102D3000F11A88810E94981A2B8130E0821793073C
:102D400021F483E090E09F838E8389810E94981A0A
:102D50002B8130E08217930731F48E819F8121E02F
:102D600082279F838E83D0937D05C0937C0591E05D
:102D70009E871092800080E1809381009093D5021D
:102D80008FB78093D602F89420E43FE13093D402C9
:102D90002093D30230938700209386008091D6023F
:102DA0008FBF80918100887F809381002091810076
:102DB0008091D502282B2093810023E133E23093C8
:102DC000D8022093D70290936F0090918100892BB5
:102DD0008093810080917C0590917D050E94110B6C
:102DE0009093700580936F0540E06AE082E994E07B
:102DF0000E94490BC0E0D0E080919A0490919B041E
:102E0000019760E070E0C817D90734F582E994E0D3
:102E10000E94780A00919C0410919D0401501109B0
:102E200020919A0430919B04215031092C1B3D0BB9
:102E3000EE24E394F12C40E050E0BE0182E994E0FE
:102E40000E942F080E94841E60E570E080E090E000
:102E50000E94521B2196D0CF82E994E00E94780A0A
:102E60000E94841E2091EB043091EC048091ED04CB
:102E70009091EE04281B390B309372052093710555
:102E80006091E9047091EA0448EE53E0649FC00148
:102E9000659F900D749F900D1124A0E0B0E0809389
:102EA0008C0490938D04A0938E04B0938F04809132
:102EB00028048F718066809328048091270487708E
:102EC00080618093270430932C0420932B0484E2A8
:102ED00094E00E94271E2091DA023091DB0280915B
:102EE00007048F71806680930704809106048770C1
:102EF00080618093060430930B0420930A0483E0DE
:102F000094E0DF91CF911F910F91FF90EF900C947F
:102F1000271ECF93DF93EC018D818230A1F48E8147
:102F2000823089F48091E6049091E704029731F0B1
:102F3000CE010E947F03811129C005C0CE010E94ED
:102F40007F03882369F18D81823009F05CC08E8116
:102F5000813009F058C08091E6049091E704009711
:102F600061F5CE010E947F03882309F44CC083E001
:102F700090E09093E7048093E60461E088E00E948B
:102F8000C11A8AEF90E0A0E0B0E035C082E090E0A6
:102F90009093E7048093E6041092870462E008C0EF
:102FA0001092E7041092E60481E08093870460E0C9
:102FB0008DE991E00E946428C6CF039721F5CE01E8
:102FC0000E947F0381111FC01092E7041092E60453
:102FD00060E088E00E94C11A4091E9045091EA043F
:102FE00028EE33E0429FC001439F900D529F900D09
:102FF0001124A0E0B0E080938C0490938D04A09302
:103000008E04B0938F04DF91CF9108952BE043E0BD
:103010006FEF80E00E94C11D69EF71E00E944A03DA
:103020000E94D8042CE043E06FEF80E00E94C11DB5
:103030006EEF71E00E944A030E94D80463E081E0D1
:103040000E94381E63E082E00E94381E64E283E042
:103050000E94381E6FE084E00C94381E61E088E026
:103060000E94F11A60E088E00E94C11A40E06AE024
:1030700082E994E00E94490B60E070E082E994E00C
:103080000E94780A82E092E00E94901E0E94841EB4
:103090008DE991E00E944C2890E09093E7048093A2
:1030A000E6048EE991E00E944C2891E0811101C074
:1030B00090E09093E8048FE991E00E944C2890E022
:1030C0009093EA048093E90480EA91E00E944C28FE
:1030D00090E09093EC048093EB0481EA91E00E94ED
:1030E0004C2890E09093EE048093ED040895CF93E4
:1030F00080E090E0892B21F08CE090E00E940000BD
:103100002FE043E06FEF80E00E94C11D61E072E0BC
:103110000E944A038091F404877080618093F404D4
:103120008091F5048F71806C8093F50481E0809329
:10313000F8041092F90481EF94E00E94D8048FE023
:103140000E944E1E62E18FEF0E94381EC09158030C
:1031500026E043E06FEF80E00E94C11D6C2F0E94CB
:103160003E030E94D80486E00E944E1ECF910C942C
:103170000618CF92DF92EF92FF920F931F93CF9397
:10318000DF936C017A018B01C0E0D0E0CE15DF0542
:1031900089F0D8016D918D01D601ED91FC910190DE
:1031A000F081E02DC6010995892B11F47E0102C042
:1031B0002196ECCFC701DF91CF911F910F91FF9026
:1031C000EF90DF90CF900895FC01538D448D252F13
:1031D00030E0842F90E0821B930B541710F0CF96B1
:1031E000089501970895FC01918D828D981761F0E3
:1031F000828DDF01A80FB11D5D968C91928D9F5F2E
:103200009F73928F90E008958FEF9FEF0895FC01D8
:10321000918D828D981731F0828DE80FF11D858D8B
:1032200090E008958FEF9FEF0895FC01918D228D1E
:10323000892F90E0805C9F4F821B91098F739927A3
:1032400008958AE593E00E94151921E0892B09F47D
:1032500020E0822F0895FC01848DDF01A80FB11DAD
:10326000A35ABF4F2C91848D90E001968F739927BC
:10327000848FA689B7892C93A089B1898C918064A9
:103280008C93938D848D981306C00288F389E02D6A
:1032900080818F7D80830895EF92FF920F931F931B
:1032A000CF93DF93EC0181E0888F9B8D8C8D9813F9
:1032B00005C0E889F989808185FD24C0F62E0B8D33
:1032C00010E00F5F1F4F0F731127E02E8C8DE81257
:1032D0000CC00FB607FCFACFE889F989808185FF19
:1032E000F5CFCE010E942B19F1CF8B8DFE01E80F97
:1032F000F11DE35AFF4FF0820B8FEA89FB89808131
:10330000806207C0EE89FF896083E889F98980813E
:103310008064808381E090E0DF91CF911F910F91D5
:10332000FF90EF900895CF93DF93EC01888D882371
:10333000C9F0EA89FB89808185FD05C0A889B98922
:103340008C9186FD0FC00FB607FCF5CF808185FFFD
:10335000F2CFA889B9898C9185FFEDCFCE010E946B
:103360002B19E7CFDF91CF91089580E090E0892B72
:1033700029F00E94211981110C94000008958330D6
:1033800081F028F4813099F08230A1F008958730DF
:10339000A9F08830B9F08430D1F4809180008F7D1D
:1033A00003C0809180008F7780938000089584B55A
:1033B0008F7702C084B58F7D84BD08958091B00061
:1033C0008F7703C08091B0008F7D8093B000089507
:1033D0000895EF92FF920F931F93CF93DF93EC0129
:1033E0007B018A0188819981009729F02A813B819C
:1033F00024173507F8F4B8016F5F7F4F0E94362A13
:10340000009759F0998388831B830A832C813D811F
:10341000232B81F4FC0110820DC0888199810097D3
:1034200011F00E949E29198218821D821C821B8223
:103430001A8207C01D830C83B701888199810E947D
:10344000152BCE01DF91CF911F910F91FF90EF903F
:1034500008950E94002BFC011182108213821282B7
:10346000158214826115710551F0FB010190002055
:10347000E9F73197AF01461B570B0C94E9190895F2
:103480001F920F920FB60F9211242F933F934F93D9
:103490005F936F937F938F939F93AF93BF93EF93BC
:1034A000FF938AE593E00E942B19FF91EF91BF9162
:1034B000AF919F918F917F916F915F914F913F91CC
:1034C0002F910F900FBE0F901F9018951F920F9283
:1034D0000FB60F9211242F938F939F93EF93FF9327
:1034E000E0916A03F0916B038081E0917003F091A9
:1034F000710382FD12C09081809173038F5F8F737F
:1035000020917403821751F0E0917303F0E0E65AC2
:10351000FC4F958F8093730301C08081FF91EF91E1
:103520009F918F912F910F900FBE0F901F90189524
:10353000CF93DF93282F30E0F901E859FA4F8491B7
:10354000F901E255FA4FD491F901E656FA4FC491C8
:10355000CC2391F081110E94BF19EC2FF0E0EE0F07
:10356000FF1FEA57FA4FA591B491EC91ED2381E04A
:1035700090E021F480E002C080E090E0DF91CF9104
:1035800008951F93CF93DF93282F30E0F901E85976
:10359000FA4F8491F901E255FA4FD491F901E656B8
:1035A000FA4FC491CC23C9F0162F81110E94BF1984
:1035B000EC2FF0E0EE0FFF1FE057FA4FA591B4910A
:1035C0008FB7F894111105C09C91ED2FE095E92378
:1035D00002C0EC91ED2BEC938FBFDF91CF911F9147
:1035E0000895CF93DF9390E0FC01E255FA4F2491C8
:1035F000FC01E656FA4F8491882361F190E0880F30
:10360000991FFC01E458FA4FC591D491FC01E05791
:10361000FA4FA591B491611109C09FB7F8948881C0
:10362000209582238883EC912E230BC0623061F4B5
:103630009FB7F8943881822F809583238883EC91FB
:103640002E2B2C939FBF06C08FB7F894E8812E2BAA
:1036500028838FBFDF91CF9108953FB7F894809171
:10366000E1029091E202A091E302B091E40226B55A
:10367000A89B05C02F3F19F00196A11DB11D3FBFAA
:10368000BA2FA92F982F8827820F911DA11DB11D38
:10369000BC01CD0142E0660F771F881F991F4A9534
:1036A000D1F708958F929F92AF92BF92CF92DF92FF
:1036B000EF92FF926B017C010E942D1B4B015C017C
:1036C000C114D104E104F104F1F00E942D1BDC01CE
:1036D000CB0188199909AA09BB09883E9340A10525
:1036E000B10570F321E0C21AD108E108F10888EEB3
:1036F000880E83E0981EA11CB11CC114D104E10402
:10370000F10419F7DDCFFF90EF90DF90CF90BF90DD
:10371000AF909F908F9008952FB7F8946091DD023D
:103720007091DE028091DF029091E0022FBF089538
:10373000AF92BF92CF92DF92EF92FF920F931F93BF
:10374000CF93DF93CDB7DEB767970FB6F894DEBFA0
:103750000FBECDBF182F062F0E948C1B6B017C0162
:103760002091DA023091DB02C90123E0880F991F12
:103770002A95E1F72091EB043091EC044091ED049F
:103780005091EE04B901641B750B0E94B9285B01CE
:1037900060E070E082E994E00E94780A8091D902AA
:1037A000882349F121E030E040E050E06FE070E034
:1037B00082E994E00E9414078091E5029091E6026C
:1037C000A091E702B091E802A7019601281B390BEE
:1037D0004A0B5B0B2536310541055105A0F020E071
:1037E00030E040E050E06FE070E082E994E00E9459
:1037F00014071092D902C092E502D092E602E0923C
:10380000E702F092E802002319F021E030E002C064
:1038100020E030E042E050E06FE070E082E994E0C8
:103820000E9414078091E804882319F020E030E01A
:1038300002C021E030E044E050E06FE070E082E957
:1038400094E00E941407112319F021E030E002C037
:1038500020E030E046E050E06FE070E082E994E084
:103860000E94140782E0C82ED12CD0929F04C092EF
:103870009E041092A1041092A00408E010E00A191E
:103880001B09EE24E394F12C20E030E047E050E007
:1038900060E070E082E994E00E942F08D0929F04DB
:1038A000C0929E041092A1041092A0048091DA02AA
:1038B0009091DB021B8A1A8A1D8A1C8A1F8A1E8A23
:1038C0004AE08E010F5F1F4FB8010E941228F801D5
:1038D00001900020E9F73197AF01401B510BB8016F
:1038E000CE0142960E94E9194E895F896A897B89D7
:1038F00082E994E00E94B9188A899B890E949E29D6
:103900000E94841E67960FB6F894DEBF0FBECDBF2F
:10391000DF91CF911F910F91FF90EF90DF90CF90AB
:10392000BF90AF9008951F920F920FB60F9211247F
:103930002F933F938F939F93AF93BF938091DD021B
:103940009091DE02A091DF02B091E0023091DC02A2
:1039500023E0230F2D3720F40196A11DB11D05C0D2
:1039600026E8230F0296A11DB11D2093DC0280934F
:10397000DD029093DE02A093DF02B093E00280911B
:10398000E1029091E202A091E302B091E40201967B
:10399000A11DB11D8093E1029093E202A093E30286
:1039A000B093E402BF91AF919F918F913F912F917E
:1039B0000F900FBE0F901F9018951F920F920FB689
:1039C0000F9211242F933F934F935F936F937F93A5
:1039D0008F939F93AF93BF93EF93FF93E091270152
:1039E000F09128010995FF91EF91BF91AF919F91BF
:1039F0008F917F916F915F914F913F912F910F9098
:103A00000FBE0F901F9018951F920F920FB60F9236
:103A100011242F933F934F935F936F937F938F93D3
:103A20009F93AF93BF93EF93FF93E0912501F091A4
:103A300026010995FF91EF91BF91AF919F918F91D1
:103A40007F916F915F914F913F912F910F900FBE9A
:103A50000F901F9018951F920F920FB60F9211247E
:103A60002F933F934F935F936F937F938F939F9386
:103A7000AF93BF93EF93FF93E091D702F091D802F9
:103A80000995FF91EF91BF91AF919F918F917F9198
:103A90006F915F914F913F912F910F900FBE0F90BB
:103AA0001F9018951F920F920FB60F9211242F930B
:103AB0003F934F935F936F937F938F939F93AF93B6
:103AC000BF93EF93FF9382E00E94870AFF91EF91EB
:103AD000BF91AF919F918F917F916F915F914F9126
:103AE0003F912F910F900FBE0F901F9018951F922E
:103AF0000F920FB60F9211242F933F934F935F9322
:103B00006F937F938F939F93AF93BF93EF93FF93A5
:103B100081E00E94870AFF91EF91BF91AF919F9141
:103B20008F917F916F915F914F913F912F910F9066
:103B30000FBE0F901F9018951F920F920FB60F9205
:103B400011242F933F934F935F936F937F938F93A2
:103B50009F93AF93BF93EF93FF9380E00E94870AF8
:103B6000FF91EF91BF91AF919F918F917F916F9155
:103B70005F914F913F912F910F900FBE0F901F902B
:103B80001895E1EFF4E09091570391838283668367
:103B9000258347708481807E482B4483CF0108951C
:103BA0008091B6048093B9048091B8049091340355
:103BB0009111FCCF91E090933403909333032FEF56
:103BC00020933203109231031092300390932F030D
:103BD00090912F03880F892B80932F0380912E03C0
:103BE000813061F410922E0380912F038093BB00EB
:103BF0008091BC0083FDF8CF85EC01C085EE8093F9
:103C0000BC00809134038130E1F380913103811154
:103C100003C08091310301C081E0AEE0B3E027E34F
:103C200033E0F9019E2F921B981718F49D91919300
:103C3000F9CF1092360380933503811101C0FFCF75
:103C400087EF93E00E9405108093B6040895FC016D
:103C50008091570381839481907F916094838091B8
:103C60000D0380FF03C0CF010C94D80480E00895B9
:103C7000CF93DF93262F8F3F19F0C1E0D2E002C02F
:103C8000C4E0D2E040E0682F80E00E94C11DBE0188
:103C90000E944A03DF91CF910C94D804CF92DF9217
:103CA000EF92FF92CF93DF93D82F0E948C1B6B0172
:103CB0007C0181E0D11180E080931705C0E00E9473
:103CC0008C1BAB01BC014C195D096E097F09403D9D
:103CD00057406105710580F4C1110EC0A8950E947E
:103CE0008805909116059770933049F7C1E080914F
:103CF00017058D13E3CFE3CF8C2FDF91CF91FF908A
:103D0000EF90DF90CF900895CF93C8E040E06C2F04
:103D100082E994E00E94490BC150C1F7CF91089508
:103D2000009769F0FC0101900020E9F73197AF019D
:103D3000481B590BBC0182E994E00C94B91880E04F
:103D400090E00895CF92DF92EF92FF920F931F932E
:103D5000CF93DF93CDB7DEB7A1970FB6F894DEBF50
:103D60000FBECDBF9C0140E050E019A28E010F5D57
:103D70001F4F8AE0C82ED12CE12CF12CCA01B901C9
:103D8000A70196010E94E128605DF80162938F010E
:103D9000211531054105510589F7CF010E94901E7B
:103DA000A1960FB6F894DEBF0FBECDBFDF91CF91C5
:103DB0001F910F91FF90EF90DF90CF900895CF93D8
:103DC0009091B6046091B7048091B504C091B80495
:103DD00021E020930B03C093330510920A03109245
:103DE000090360956923682B87EF93E00E945110C7
:103DF00080910903813208F046C0909134039111FB
:103E0000FCCF92E09093340391E0909333039FEFC3
:103E1000909332031092310380933003A9EEB2E005
:103E20002EE033E0F9019E2F921B981718F49D9114
:103E30009193F9CF10922F0380912F03CC0FC82BB1
:103E4000C0932F0380912E03813061F410922E03D2
:103E500080912F038093BB008091BC0083FDF8CF3D
:103E600085EC01C085EE8093BC00809134038230E4
:103E7000E1F3809132038F3F31F080913203803241
:103E800011F08091320310920A03109209031092EC
:103E90000B03CF910895EF92FF920F931F938091A0
:103EA00087048823F1F00E948C1B009188041091F4
:103EB000890420918A0430918B04DC01CB01801BA2
:103EC000910BA20BB30B00918C0410918D042091E7
:103ED0008E0430918F0480179107A207B30708F072
:103EE00027C380917C0590917D050E94110B209144
:103EF000730530917405820F931F9093740580931E
:103F0000730597FD01969595879520916F053091E2
:103F100070052817390744F49093700580936F0556
:103F200081E0809378050AC0821793076CF4909320
:103F3000700580936F0581E08093770566E970E0F6
:103F400080E090E00E94521BE0917C05F0917D059D
:103F500083859485238534852330310511F01486BB
:103F60001386009729F0059719F481E0809379056D
:103F700080917805882309F48EC020911B0130912F
:103F80001C012130310509F046C0109278051092CD
:103F9000BA021092B9028091190190911A018130F0
:103FA000910539F482E090E090931A018093190111
:103FB00072C08230910559F483E090E090931A0129
:103FC000809319018091EB049091EC0460C08330E0
:103FD000910559F484E090E090931A0180931901BF
:103FE000809171059091720552C08430910559F409
:103FF00085E090E090931A01809319018091E90483
:104000009091EA0444C0059709F045C030931A0125
:104010002093190140C022303105E9F58091190142
:1040200090911A018230910569F41092780580917F
:10403000E804882319F01092E8042DC081E08093F1
:10404000E80429C08330910589F4109278058091A5
:10405000B7029091B80201969093B8028093B7028C
:1040600084369105C0F083E690E011C0843091055C
:1040700061F3059781F4109278058091B7029091D1
:10408000B80201968B35910510F08AE590E0909387
:10409000B8028093B70280917705882309F487C01E
:1040A00020911B0130911C012130310509F042C0E3
:1040B000109277051092BA021092B90280911901FC
:1040C00090911A018130910559F485E090E0909328
:1040D0001A01809319018091E9049091EA0463C068
:1040E0008230910529F430931A01209319015FC0A1
:1040F0008330910519F482E090E005C08430910589
:1041000059F483E090E090931A0180931901809113
:10411000EB049091EC0447C0059709F048C084E097
:1041200090E090931A01809319018091710590910C
:10413000720539C022303105D1F580911901909175
:104140001A018230910569F4109277058091E80494
:10415000882319F01092E8042AC081E08093E804D3
:1041600026C08330910581F4109277058091B702C3
:104170009091B80201979093B8028093B70202978A
:10418000B0F482E090E00FC08430910569F30597A8
:1041900071F4109277058091B7029091B80201975F
:1041A00011F481E090E09093B8028093B70280917F
:1041B0007905882309F4B0C0109279058091E6044E
:1041C0009091E704049789F084E090E09093E704ED
:1041D0008093E60481E090E090931C0180931B01A2
:1041E00090931A018093190197C080911B019091BF
:1041F0001C018130910551F58091190190911A01AE
:1042000081309105E1F41092E7041092E6044091A8
:10421000E9045091EA0428EE33E0429FC001439F35
:10422000900D529F900D1124A0E0B0E080938C047B
:1042300090938D04A0938E04B0938F046DC0029769
:10424000049708F069C082E090E062C0029709F02C
:1042500063C08091190190911A0183309105D1F0CA
:1042600044F4029709F052C06091E8048EE991E0AD
:104270004BC084309105C9F0059709F047C06091A3
:10428000B7028091B8026093E9048093EA048FE951
:1042900091E03AC06091B7028091B8026093EB045C
:1042A0008093EC0480EA91E02FC08091B702909156
:1042B000B8026091EB047091EC04681B790B709369
:1042C000EE046093ED04909372058093710581EA8A
:1042D00091E00E94642820917105309172058091CF
:1042E00028048F718066809328048091270487704A
:1042F00080618093270430932C0420932B0484E264
:1043000094E00E94271E02C00E94642881E090E091
:1043100090931C0180931B018091E6049091E70427
:104320008230910509F47FC074F40097A1F00197E1
:1043300009F00EC180917A0590917B059093B802A7
:104340008093B702EFC08330910509F49FC00497B2
:1043500009F4E8C0FDC02091DA023091DB028091BF
:104360007105909172058217930788F58091E80492
:10437000882351F183E090E09093E7048093E60472
:1043800061E088E00E94C11A8AEF90E0A0E0B0E00E
:1043900080938C0490938D04A0938E04B0938F042B
:1043A0008091480487708860809348048091490414
:1043B0008F7180628093490481E080934C0485E48E
:1043C00094E00E94271E07C060E081E002C060E028
:1043D00080E00E94981B2091DA023091DB028091EC
:1043E0007505909176058217930709F4B1C0309353
:1043F000760520937505809107048F718066809300
:1044000007048091060487708061809306043093CE
:104410000B0420930A0483E094E01F910F91FF9016
:10442000EF900C94271E60E070E082E994E00E9417
:10443000780AEE24E394F12C08E010E020E130E06B
:1044400040E050E060E070E082E994E00E94D00734
:1044500007E010E02FE030E040E050E060E070E086
:1044600082E994E00E942F0800E010E02FE030E0A5
:1044700047E050E060E070E082E994E00E942F089D
:104480001F910F91FF90EF900C94841E8091DA029F
:104490009091DB02892B89F51092E7041092E604D3
:1044A00060E088E00E94C11A4091E9045091EA045A
:1044B00028EE33E0429FC001439F900D529F900D24
:1044C0001124A0E0B0E080938C0490938D04A0931D
:1044D0008E04B0938F048091480487708860809325
:1044E0004804809149048F7180628093490410923E
:1044F0004C0485E494E00E94271E2091DA0230915A
:10450000DB02809171059091720561E0821793073B
:1045100010F481E001C080E01F910F91FF90EF90B7
:104520000C94981B1F910F91FF90EF900C942915FC
:104530000E948C1B609388047093890480938A0482
:1045400090938B04E0919004F09191040995C9CC6B
:104550001F910F91FF90EF9008950F931F93CF93AA
:10456000DF938091BA04811159C081E08093BA042D
:1045700078940E94D01D04EC14E0C0E0D0E02C2F11
:10458000D801ED91FD918D013097F1F1DE01AB5431
:10459000BB4F17968C91813031F0B0F0823049F0EA
:1045A0008330E9F031C08091B6049091B904892735
:1045B00023C08091B90490E00C2E02C09595879598
:1045C0000A94E2F780FF20C08091B60490E002C018
:1045D000959587952A95E2F780FD16C01DC08091BC
:1045E000B90490E00C2E02C0959587950A94E2F7E5
:1045F00080FD0AC08091B60490E002C09595879531
:104600002A95E2F780FD08C02196C830D10509F04F
:10461000B6CF1092BA0402C00995F6CFDF91CF91C0
:104620001F910F910895CF92DF92EF92FF920F9317
:104630001F93CF93DF93C0917C05D0917D050E949D
:104640008C1B6B017C018E85882359F089859A85A6
:1046500002979A87898789859A8597FF02C01A866B
:10466000198688810E94981A2B8130E0821793075F
:1046700011F413E001C010E089810E94981A2B8187
:1046800030E08217930711F481E018278E819F8113
:10469000811B80FF12C0212F110F330B3F832E830C
:1046A0002C813D818270082E000C990B0197820F9E
:1046B000931F9D838C8381E001C080E09E859923B8
:1046C00061F0882351F089859A85883E9B4028F4C3
:1046D00089859A8549969A8789878A81882309F4EA
:1046E00070C0409181055091820560918305709161
:1046F000840597018601041B150B260B370B0A3026
:1047000011052105310508F45CC0C0928105D092E5
:104710008205E0928305F09284050E94981A2B810D
:1047200030E08217930781F480917F059091800596
:1047300001969093800580937F058937910520F03D
:1047400083E090E09C878B878A810E94981A3B8146
:1047500021E0232730E08217930731F580917F0510
:1047600090918005892BE1F08B859C85039719F446
:1047700084E090E008C080917E05823048F08C3360
:1047800078F486E090E09C878B8710927E0508C0C5
:104790008D85811102C081E001C08CE380937E058C
:1047A0001092800510927F0580917E05882349F044
:1047B000825080937E05811104C085E090E09C8743
:1047C0008B87DF91CF911F910F91FF90EF90DF903A
:1047D000CF9008952F923F924F925F926F927F9267
:1047E0008F929F92AF92BF92CF92DF92EF92FF9201
:1047F0000F931F93CF93DF9300D000D000D0CDB79D
:10480000DEB781E08093D9021A82198213E000E0BA
:104810006BE0462E512C73E2672E712CE8EE8E2E43
:10482000E3E09E2EA12CB12C0E942D1B6B017C017C
:10483000E091DE04F091DF0490818091D804892B0F
:104840008083E091DA04F091DB0490818091D804B8
:10485000809589238083C2010197F1F7E091DA0402
:10486000F091DB0490818091D804892B8083C3016F
:104870000197F1F7E091DA04F091DB0490818091E7
:10488000D804809589238083E091DE04F091DF04D1
:1048900090818091D804809589238083E091DC0405
:1048A000F091DD0490818091D904892309F0A2C0A0
:1048B0000E942D1B2091E0043091E10440E050E083
:1048C0002855394E4F4F5F4FDC01CB01820F931FAC
:1048D000A41FB51F8093E2049093E304A093E40423
:1048E000B093E504E091DC04F091DD0490818091C7
:1048F000D904892381F40E942D1B2091E204309178
:10490000E3044091E4045091E50426173707480773
:10491000590740F76FC00E942D1B2091E004309191
:10492000E104DC01CB01820F931FA11DB11D809317
:10493000E2049093E304A093E404B093E504E091CF
:10494000DC04F091DD0490818091D904892381F009
:104950000E942D1B2091E2043091E3044091E40475
:104960005091E504261737074807590740F742C01A
:104970000E942D1B2091E0043091E104A9014550D3
:1049800051092091E2043091E304FA01E21BF30B98
:104990006E0F7F1F6115710569F1011102C040E0C2
:1049A0001FC0402F842F90E0FC013197EE0FFF1FB6
:1049B00021E030E02C0F3D1FE20FF31F20813181F9
:1049C0002617370768F4880F991FE1E0F0E0EC0F35
:1049D000FD1FE80FF91F31832083415019F7DFCF06
:1049E000FE013196E40FF11DE40FF11D7183608328
:1049F0000F5F01C01150011738F50E942D1BDC011B
:104A0000CB018C199D09AE09BF0988349147A105D6
:104A1000B10508F009CF0E942D1B48E4C40E41E700
:104A2000D41EE11CF11CA7019601261B370B480B75
:104A3000590BCA01B901A50194010E94E128CA01DC
:104A4000B9010E94521BF0CE1E7FFE01E10FF11D45
:104A5000818192810FB6F894DEBF0FBECDBF69E3AE
:104A600070E00E94B92870937B0560937A0580916D
:104A7000EB049091EC048617970728F41092DB0260
:104A80001092DA0206C0861B970B9093DB0280938C
:104A9000DA0226960FB6F894DEBF0FBECDBFDF91C7
:104AA000CF911F910F91FF90EF90DF90CF90BF902B
:104AB000AF909F908F907F906F905F904F903F90BE
:104AC0002F900895CF93DF93FC0110821182128200
:104AD000148215821682DC0117968AE1ED01199283
:104AE0008A95E9F782E08383DF91CF9108957894E6
:104AF00084B5826084BD84B5816084BD85B58260E3
:104B000085BD85B5816085BD80916E008160809393
:104B10006E001092810080918100826080938100FC
:104B2000809181008160809381008091800081600C
:104B3000809380008091B10084608093B100809167
:104B4000B00081608093B00080917A00846080938F
:104B50007A0080917A00826080937A0080917A0056
:104B6000816080937A0080917A00806880937A00D7
:104B70001092C100A89580E090E0892B11F00E946E
:104B80000000E0916A03F0916B0382E08083E09182
:104B90006603F09167031082E0916803F091690366
:104BA00080E1808310927203E0916E03F0916F03B5
:104BB00086E08083E0916C03F0916D0380818061D9
:104BC0008083E0916C03F0916D0380818860808325
:104BD000E0916C03F0916D03808180688083E091A7
:104BE0006C03F0916D0380818F7D808380910D0334
:104BF0008D7F80930D030E942E1841E050E063E00A
:104C000071E08CE093E00E943C286FEF81E090E03F
:104C10000E9464288091C6028F788093C602109209
:104C2000BC021092BB0281E291E00E94AB058FEDC5
:104C300094E09093D2028093D1020E948C1B0E9438
:104C40008C1B0E948805A8958091C50282FFF7CF32
:104C50000E94A415A895A8950E9488050E944B1F44
:104C60000E94B519F8CFAF92BF92CF92DF92EF9228
:104C7000FF920F931F93CF93DF93EAE5F3E0138244
:104C8000128288EEC82E83E0D82EE12CF12CC4824B
:104C9000D582E682F78289E391E09183808385EC77
:104CA00090E09587848784EC90E09787868780ECF6
:104CB00090E0918B808B81EC90E0938B828B82ECE7
:104CC00090E0958B848B86EC90E0978B868B118E91
:104CD000128E138E148EE7EFF3E013821282C482D9
:104CE000D582E682F7828BE491E09183808382E132
:104CF00095E00E94622581EF94E00E94622586E0A3
:104D000090E09093F0048093EF04E6EEF4E01282DA
:104D100081E090E0948383838CE190E096838583A7
:104D200028E030E030872783E2EBF5E0E491A4ED62
:104D3000B4E01496EC931497E1EBF5E0E49115964A
:104D4000EC9315978EE995E0FC014491E42FF0E097
:104D5000EE0FFF1FE057FA4F4591549117965C9361
:104D60004E931697EDE9F5E0E491F0E0EE0FFF1FAA
:104D7000EA57FA4F4591549119965C934E931897C0
:104D8000FC018491E82FF0E0EE0FFF1FE458FA4F8A
:104D9000859194911B969C938E931A978DE796E13B
:104DA0001D969C938E931C97E5EBF4E01082118284
:104DB000128213821482158216821782108611863F
:104DC00012861386148615861686108A1786128A0E
:104DD000118A148A138A168A158A108E178A128EDF
:104DE000118E148E138E168E158EE4E3F5E011E00D
:104DF000108F128E118E8DEC9CECACECBDE387A372
:104E000090A7A1A7B2A780E090E0A0EAB0E4838FCA
:104E1000948FA58FB68FC2E9D4E01B821A8280E1FD
:104E200090E09D838C833F832E83998788873B877F
:104E30002A871D8A1D861C861F861E861C8B8FEF67
:104E40009FEF9B8B8A8B998B888B1E8B1F8A198E69
:104E5000188E8DE591E09983888387E08A8F02E040
:104E60000E8F80E18D8F80E190E00E9409299C8F58
:104E70008B8F82E090E00E9409295C019AA389A3AC
:104E800082E090E00E94092998A38F8FFC01108294
:104E9000F5011082FC011183F50111820E94690E57
:104EA00061E08A8D0E94F11A60E070E0CE010E94FC
:104EB000780A40E06FE0CE010E94490B47E06BE0CA
:104EC000CE010E94490B40E069E0CE010E94490BEF
:104ED00041E06CE0CE010E94490B47E06AE0CE0160
:104EE0000E94490BE7E8F4E01083118212821382DA
:104EF0001482C582D682E782F0868AEE93E2928798
:104F0000818786E694E00E946225E6E6F4E0068367
:104F1000058385E494E00E946225E5E4F4E01683CD
:104F2000058384E294E00E946225E4E2F4E083E0F9
:104F300086838FE2858383E094E00E946225E3E02C
:104F4000F4E084E086838DE08583DF91CF911F912B
:104F50000F91FF90EF90DF90CF90BF90AF900895AA
:104F6000FC0188279927E89421912032E9F3293020
:104F700010F02E30C8F32B3241F02D3239F4689402
:104F800004C00E940A28820F911D219120532A30CB
:104F9000C0F31EF4909581959F4F08951F93FC01D7
:104FA00099278827BC01E89411911032E9F3193050
:104FB00010F01E30C8F31B3251F01D3249F46894D2
:104FC00006C00E94F527610F711D811D911D119171
:104FD00010531A30B0F33EF490958095709561951A
:104FE0007F4F8F4F9F4F1F910895592F482F372F75
:104FF000262F660F771F881F991F660F771F881F40
:10500000991F620F731F841F951F660F771F881FDC
:10501000991F08957AE0979F902D879F802D910D7D
:1050200011240895BB27FB015527AA27880F991F34
:10503000AA1FA41710F0A41B83955051B9F7A05DC7
:10504000AA3308F0A95DA193009779F7B111B19344
:105050001192CB010C942C28DC01FC01672F71917B
:105060007723E1F7329704C07C916D93708362914E
:10507000AE17BF07C8F30895DC01CB01FC01F99915
:10508000FECF06C0F2BDE1BDF89A319600B40D9294
:1050900041505040B8F70895F999FECF92BD81BDB7
:1050A000F89A992780B50895DC01A40FB51F4150E7
:1050B000504048F0CB01840F951F2E910E94652827
:1050C00041505040D0F70895262FF999FECF92BD58
:1050D00081BDF89A019700B4021639F01FBA20BDBD
:1050E0000FB6F894FA9AF99A0FBE08952F923F924C
:1050F0004F925F926F927F928F929F92AF92BF92E8
:10510000CF92DF92EF92FF920F931F93CF93DF9393
:10511000CDB7DEB7CA1BDB0B0FB6F894DEBF0FBEF0
:10512000CDBF09942A88398848885F846E847D843D
:105130008C849B84AA84B984C884DF80EE80FD803F
:105140000C811B81AA81B981CE0FD11D0FB6F894B5
:10515000DEBF0FBECDBFED010895991B79E004C0FD
:10516000991F961708F0961B881F7A95C9F78095A6
:105170000895AA1BBB1B51E107C0AA1FBB1FA6179E
:10518000B70710F0A61BB70B881F991F5A95A9F7F0
:1051900080959095BC01CD01089597FB072E16F4DC
:1051A000009407D077FD09D00E94B92807FC05D0EC
:1051B0003EF4909581959F4F0895709561957F4F2E
:1051C0000895A1E21A2EAA1BBB1BFD010DC0AA1F48
:1051D000BB1FEE1FFF1FA217B307E407F50720F060
:1051E000A21BB30BE40BF50B661F771F881F991FDB
:1051F0001A9469F760957095809590959B01AC0124
:10520000BD01CF010895EE0FFF1F0590F491E02D31
:105210000994CF93DF938230910510F482E090E0FF
:10522000E0918705F091880520E030E0C0E0D0E013
:10523000309711F14081518148175907C0F0481744
:10524000590761F482819381209719F09B838A83A7
:105250002BC0909388058093870526C021153105C2
:1052600019F04217530718F49A01BE01DF01EF014C
:105270000280F381E02DDCCF2115310509F1281BD7
:10528000390B2430310590F412968D919C9113972F
:105290006115710521F0FB019383828304C0909313
:1052A000880580938705FD01329644C0FD01E20F19
:1052B000F31F81939193225031092D933C933AC06F
:1052C0002091850530918605232B41F420912B01F7
:1052D00030912C013093860520938505209129017A
:1052E00030912A012115310541F42DB73EB7409187
:1052F0002D0150912E01241B350BE0918505F09175
:105300008605E217F307A0F42E1B3F0B2817390779
:1053100078F0AC014E5F5F4F2417350748F04E0F11
:105320005F1F50938605409385058193919302C03A
:10533000E0E0F0E0CF01DF91CF9108950F931F934C
:10534000CF93DF93009709F48CC0FC01329713824E
:10535000128200918705109188050115110581F4CD
:1053600020813181820F931F209185053091860520
:105370002817390779F5F0938605E093850571C004
:10538000D80140E050E0AE17BF0750F412962D91BF
:105390003C911397AD012115310509F1D901F3CFE6
:1053A0009D01DA013383228360817181860F971F0B
:1053B0008217930769F4EC0128813981260F371F82
:1053C0002E5F3F4F318320838A819B819383828329
:1053D000452B29F4F0938805E093870542C0139686
:1053E000FC93EE931297ED01499159919E01240F80
:1053F000351FE217F30771F480819181840F951FA7
:10540000029611969C938E938281938113969C931E
:105410008E931297E0E0F0E0D80112968D919C9166
:105420001397009719F0F8018C01F6CF8D919C919C
:1054300098012E5F3F4F820F931F20918505309179
:1054400086052817390769F4309729F410928805E2
:105450001092870502C01382128210938605009372
:105460008505DF91CF911F910F910895A0E0B0E0E5
:10547000ECE3FAE20C947A28EC01009721F4CB01DA
:105480000E940929B8C0FC01E60FF71F9C012250B9
:105490003109E217F30708F4ACC0D9010D911C9152
:1054A000119706171707B0F00530110508F49FC0D3
:1054B000C80104978617970708F499C0025011098C
:1054C000061B170B019311936D937C93CF010E94E0
:1054D0009E298DC05B01A01AB10A4C01800E911E5D
:1054E000A0918705B091880540E050E0E12CF12CB7
:1054F000109709F44AC0A815B905D1F56D907C90B4
:105500001197630182E0C80ED11CCA14DB0480F13C
:10551000A3014A195B096A0182E0C80ED11C1296E8
:10552000BC9012971396AC91B5E0CB16D10440F025
:10553000B282A38351834083D9016D937C930AC0C7
:105540000E5F1F4FC301800F911FF901918380836C
:10555000EB2DFA2FE114F10431F0D7011396FC93EF
:10556000EE93129744C0F0938805E09387053FC0FF
:105570008D919C9111974817590708F4AC017D0152
:1055800012960D90BC91A02DB3CF8091850590917E
:10559000860588159905E1F446175707C8F48091E8
:1055A000290190912A01009741F48DB79EB740914F
:1055B0002D0150912E01841B950BE817F907C8F4B3
:1055C000F0938605E0938505F901718360830FC030
:1055D000CB010E9409297C01009759F0A801BE0166
:1055E0000E94052BCE010E949E29C70104C0CE0156
:1055F00002C080E090E0CDB7DEB7EEE00C949628D4
:1056000081E090E0F8940C942B2BFB01DC0102C0AC
:1056100001900D9241505040D8F70895DC0101C02F
:105620006D9341505040E0F70895FB01DC0101907B
:105630000D920020E1F70895FB01DC01415050403C
:1056400048F001900D920020C9F701C01D92415011
:0A5650005040E0F70895F894FFCFF2
:10565A00FFFFFF00FCE1A8A8280537060D05010693
:10566A000C03F70541056106FF010001000C04D790
:10567A00051E039306E819E8190000890580006BE6
:10568A00006C006D00000000004C19B918E4189372
:10569A00191519F31807190000000051102110817B
:1056AA0010F50F19100510F60F00000000930DB940
:1056BA0018811080101407CD09C6099E09BA09AECF
:1056CA0009CE099D09CE07B80758091409C40878F4
:1056DA000A2F08D00701004F4B00312E2077796A34
:1056EA0073636965207A206D656E7500322E2074A9
:1056FA0072796220707261637900332E206D696E4F
:10570A0020706F7A696F6D2077207A62696F726E86
:10571A00696B7500342E206D617820706F7A696F1D
:10572A006D2077207A62696F726E696B7500352E0B
:10573A0020706F6D69617220636F20696C652073D8
:10574A006563004175004D6E0050756D7000312E15
:0A575A0030003E00322E312E3100E7
:00000001FF
