:100000000C94E2020C94441D0C941D1D0C94DC1DF8
:100010000C94B71D0C94921D0C949A070C947A0BB7
:100020000C940A030C940A030C940A030C940A031C
:100030000C940A030C946B1D0C940A030C940A0391
:100040000C94D31C0C940A030C94A61A0C94801ADA
:100050000C940A030C940A030C940A030C940A03EC
:100060000C942F0F0C940A0300000000003E5B4F1D
:100070005B3E3E6B4F6B3E1C3E7C3E1C183C7E3C08
:10008000181C577D571C1C5E7F5E1C00183C180016
:10009000FFE7C3E7FF0018241800FFE7DBE7FF30A6
:1000A000483A060E2629792926407F050507407F14
:1000B00005253F5A3CE73C5A7F3E1C1C08081C1C87
:1000C0003E7F14227F22145F5F005F5F06097F017D
:1000D0007F006689956A606060606094A2FFA29468
:1000E00008047E040810207E201008082A1C080836
:1000F0001C2A08081E101010100C1E0C1E0C303884
:100100003E3830060E3E0E06000000000000005F84
:1001100000000007000700147F147F14242A7F2AA0
:100120001223130864623649562050000807030062
:10013000001C2241000041221C002A1C7F1C2A08AE
:10014000083E080800807030000808080808000011
:1001500060600020100804023E5149453E00427F85
:10016000400072494949462141494D331814127FD4
:100170001027454545393C4A494931412111090774
:100180003649494936464949291E000014000000F5
:1001900040340000000814224114141414140041C7
:1001A00022140802015909063E415D594E7C121184
:1001B000127C7F494949363E414141227F414141BC
:1001C0003E7F494949417F090909013E4141517337
:1001D0007F0808087F00417F41002040413F017FA8
:1001E000081422417F404040407F021C027F7F0470
:1001F00008107F3E4141413E7F090909063E4151B9
:10020000215E7F09192946264949493203017F01A8
:10021000033F4040403F1F2040201F3F4038403FA9
:10022000631408146303047804036159494D4300BF
:100230007F4141410204081020004141417F0402F6
:10024000010204404040404000030708002054548D
:1002500078407F284444383844444428384444286B
:100260007F385454541800087E090218A4A49C78BE
:100270007F0804047800447D40002040403D007F1A
:100280001028440000417F40007C047804787C08FA
:100290000404783844444438FC18242418182424CE
:1002A00018FC7C08040408485454542404043F44B3
:1002B000243C4040207C1C2040201C3C4030403CE2
:1002C00044281028444C9090907C4464544C440042
:1002D00008364100000077000000413608000201A6
:1002E0000204023C2623263C1EA1A161123A404092
:1002F000207A38545455592155557941225454780F
:1003000042215554784020545579400C1E527212A7
:100310003955555559395454545939555454580030
:1003200000457C410002457D420001457C407D1234
:1003300011127DF0282528F07C5455450020545496
:100340007C547C0A097F4932494949323A44444441
:100350003A324A4848303A4141217A3A424020787C
:10036000009DA0A07D3D4242423D3D4040403D3C7D
:1003700024FF2424487E4943662B2FFC2F2BFF09A2
:1003800029F620C0887E0903205454794100004496
:100390007D413048484A32384040227A007A0A0A81
:1003A000727D0D19317D2629292F282629292926F4
:1003B00030484D4020380808080808080808382F39
:1003C00010C8ACBA2F102834FA00007B00000814C3
:1003D0002A142222142A14085500550055AA55AA99
:1003E00055AAFF55FF55FF000000FF00101010FF39
:1003F00000141414FF001010FF00FF1010F010F094
:10040000141414FC001414F700FF0000FF00FF1484
:1004100014F404FC141417101F10101F101F1414D0
:10042000141F00101010F0000000001F101010101A
:100430001F10101010F010000000FF10101010100E
:1004400010101010FF10000000FF140000FF00FF4C
:1004500000001F10170000FC04F4141417101714E8
:1004600014F404F40000FF00F7141414141414140A
:10047000F700F7141414171410101F101F1414147D
:10048000F4141010F010F000001F101F0000001FE7
:1004900014000000FC140000F010F01010FF10FF1A
:1004A000141414FF141010101F00000000F010FFAF
:1004B000FFFFFFFFF0F0F0F0F0FFFFFF0000000093
:1004C00000FFFF0F0F0F0F0F3844443844FC4A4A17
:1004D0004A347E02020606027E027E0263554941CC
:1004E000633844443C04407E201E2006027E020203
:1004F00099A5E7A5991C2A492A1C4C7201724C3017
:100500004A4D4D303048784830BC625A463D3E49ED
:100510004949007E0101017E2A2A2A2A2A44445F91
:10052000444440514A444040444A51400000FF0185
:1005300003E080FF000008086B6B08361236243693
:10054000060F090F060000181800000010100030F8
:1005500040FF0101001F01011E00191D1712003C80
:100560003C3C3C00000000000000000800020100CC
:10057000000304070000000000000000000000006D
:10058000240027002A000000000023002600290084
:1005900000000000250028002B00040404040404CB
:1005A0000404020202020202030303030303010222
:1005B00004081020408001020408102001020408F1
:1005C00010205C2611241FBECFEFD8E0DEBFCDBFC8
:1005D00025E0AAE0B2E001C01D92AD38B207E1F714
:1005E00012E0A0E0B1E0ECEAF6E502C005900D9261
:1005F000AA30B107D9F712E0C2EED2E004C02197C9
:10060000FE010E942C29C13ED107C9F70E94A025F6
:100610000C94542B0C9400008091CB028460809346
:10062000CB028091CC0280788093CC02E0910E02C4
:10063000F0910F02309709F00994089561E088E085
:100640000E94311B60E088E00E94011B40E06AE0EC
:1006500086E994E00E94D90B60E070E086E994E0BE
:100660000E94080B87E891E00E94D01E0C94C41EE3
:10067000EBECF2E08081877F8F7E80831092C7024F
:100680001092C8021092C9021092CA020E94CC1B9A
:100690006093CE027093CF028093D0029093D102E8
:1006A00043E050E060E070E08BE593E00C94652857
:1006B000FC01838187708860838384818F7180626D
:1006C00084836783CF010895FC01838187708860EC
:1006D000838384818F71806284836783CF010895CF
:1006E0000F931F93CF93DF93EC016115710561F0B8
:1006F000FB0101900020E9F73197E61BF70BE93188
:10070000F10518F0E9E101C0E0E00E2F10E0C801AA
:1007100023E0880F991F2A95E1F79B819770892B19
:100720008B838C818F718C83EE2329F0A801CE01FD
:1007300007960E94452BFE01E00FF11F1782CE01A4
:10074000DF91CF911F910F910895FC012481229593
:1007500026952770213011F487810895211104C056
:1007600007960E94D927089580E008958EBD000065
:100770000DB407FEFDCF8EB50895CF92DF92EF92B4
:10078000FF920F931F93CF93DF937B01142F022FC0
:1007900091E59CBD91E09DBD2A98E3E2F0E03197A0
:1007A000F1F70E94B603E7011123A9F0002349F0F5
:1007B0008FEF0E94B603E114F10459F0888321966B
:1007C00008C06E018FEFC81AD80A88810E94B6034C
:1007D000E6011150E9CF2A9AE3E2F0E03197F1F710
:1007E000DF91CF911F910F91FF90EF90DF90CF900D
:1007F0000895CF9321E041E060E070E086E00E9440
:10080000BD03C82F21E041E060E070E085E00E9478
:10081000BD0321E08C3409F020E081E0C73209F00B
:1008200080E08223CF910895CF93DF931F92CDB7BD
:10083000DEB7698320E041E0BE016F5F7F4F0E9419
:10084000BD030F90DF91CF9108956FE080E20E9489
:100850001404609118016F3F19F08AE20E94140499
:10086000299A08958091CC02982F9077903759F06B
:10087000982F92959F709F5F97709295907F8F7839
:10088000892B8093CC028091CB028B7F8F7E8093CB
:10089000CB0280E090E0892B21F087E690E00E9477
:1008A000000029986CE080E20C94140420E040E001
:1008B00060E070E00C94BD030F931F93CF93DF9320
:1008C0008C01FC01C2818091CB0280FF04C0CF3F2C
:1008D00009F05DC014C0C11103C0C0915C030FC01A
:1008E000CF3F69F08C2F90E003960E9475288F3FD0
:1008F00029F480915C03F80190819813C82F8091AE
:100900005B03F8018083438142FD06C0469546950E
:100910004695D7E0D40F01C0D0E280E090E0892B6B
:1009200021F080E090E00E940000299883E092E0AE
:100930000197F1F76EE080E20E9414048BE891E0E9
:100940000197F1F76C2F8AE20E9414046C2F80E368
:100950000E94140481EE0E945604CF3F11F080EAF9
:1009600001C080EB4D2FD13208F040E220E0B80109
:100970000E94BD03299A00E010E08FEF0E94560408
:10098000D82F807331F401501109B9F702C0D0E0BB
:100990002FC0299860E387E20E941404D4FF03C0AB
:1009A00081EE0E9456040E942504D5FBDD27D0F974
:1009B00091E0CF3F09F090E0D92B80915C03C81300
:1009C00017C0D11110C080E090E0892B21F085E69E
:1009D00090E00E9400008091CC0291E0980F9F70FF
:1009E000807F892B03C08091CC02807F8093CC02D2
:1009F0008D2FDF91CF911F910F9108952091CB0200
:100A000022FD0C945C0480E008952BE043E06FEF3E
:100A100080E00E94011E69E871E00E9470030E945C
:100A2000FE042CE043E06FEF80E00E94011E6EE8C0
:100A300071E00E9470030E94FE0463E081E00E9466
:100A4000781E63E082E00E94781E64E283E00E94E8
:100A5000781E6FE084E00C94781ECF9380E090E0E5
:100A6000892B21F08CE090E00E9400002FE043E011
:100A70006FEF80E00E94011E61E971E00E94700347
:100A80008091F804877080618093F8048091F90464
:100A90008F71806C8093F90481E08093FC04109244
:100AA000FD0485EF94E00E94FE048FE00E948E1EFC
:100AB00062E18FEF0E94781EC0915C0326E043E064
:100AC0006FEF80E00E94011E6C2F0E9458030E946D
:100AD000FE0486E00E948E1ECF910C940505CF93F4
:100AE0008091110381FD27C00E942D0580E090E0D8
:100AF000892B21F089E090E00E9400008091110391
:100B0000816080931103C4E02AE143E06FEF80E04D
:100B10000E94011E62E00E9458030E94FE048BE1C5
:100B20000E948E1E811102C0C15071F78091110385
:100B3000826080931103CF91089580E090E0892B2B
:100B400021F088E090E00E9400008FEF8093CD02BA
:100B50008091CB0288608093CB0228E143E06FEF65
:100B600080E00E94011E61E00E9458030C945C0426
:100B700080915B038F3FA1F480E090E0892B21F00E
:100B800086E090E00E94000023E043E06FEF80E009
:100B90000E94011E61E971E00E9470030C945C04E4
:100BA000089580E090E0892B21F084E090E00E949D
:100BB00000008091CB02897F81608093CB028FEF10
:100BC00080935D0380935C0327E043E06FEF0E9416
:100BD000011E61E971E00E9470030C945C04CF93E4
:100BE000C82F8FEF8C0F8E3FA8F4C0935B03C09388
:100BF000180163E082E20E94140461E081E20E9435
:100C000014040E9425046C2F80E090E00E948D283F
:100C100081E00CC080E090E0892B21F08EE690E02E
:100C20000E9400008FEF80935B0380E0CF910895D6
:100C3000E091C102F091C2020280F381E02D309771
:100C400009F009958091CB0284FD0C94D912089586
:100C50000F931F930E94CC1B0091C3021091C402FA
:100C60002091C5023091C602601B710B820B930B61
:100C70001F910F9108959C018091C1029091C20231
:100C80008217930751F09091CB029F719093CB0202
:100C90003093C2022093C10205C08091CB02805ED6
:100CA0008093CB02E091C102F091C2020190F081E9
:100CB000E02D309709F009950E94CC1B6093C30288
:100CC0007093C4028093C5029093C60208950F9357
:100CD0001F930E9428062091CC022077203729F00C
:100CE00000E117E220E030E004C000E61AEE20E068
:100CF00030E0061717072807390730F489E191E03B
:100D00001F910F910C943B061F910F9108958091B4
:100D1000CC028F708B3020F084E191E00C943B0684
:100D200008958091CD028F3FA1F00E94CC1B60936B
:100D3000C7027093C8028093C9029093CA0280913F
:100D4000CD0290915D03891380935D0380E191E072
:100D50001BC00E942806613D774081059105B0F0D7
:100D60008091CB02803618F48CE091E00DC0877F33
:100D70008093CB0280E090E0892B21F08AE690E01E
:100D80000E94000084E191E00C943B06089580915C
:100D90005B038F3F59F080E090E0892B21F087E0E2
:100DA00090E00E9400008CE091E018C00E942806AC
:100DB000613D77408105910598F08091CB028036A6
:100DC00018F488E091E00AC080E090E0892B21F0DF
:100DD00089E690E00E94000081E291E00C943B06DD
:100DE00008950E942806613D77408105910520F411
:100DF0008091CB0281FF089580915C038F3F81F049
:100E00008091CB028E7F8093CB0280E090E0892B93
:100E100021F085E090E00E94000088E091E011C0A0
:100E20008091CB02803618F484E191E00AC080E022
:100E300090E0892B21F088E690E00E94000081E29A
:100E400091E00C943B06219A229A0E94F90E29986F
:100E50002A9A6EE080E20E94140465E070E080E06F
:100E600090E00E94921B63E083E20E9414046FE50D
:100E700084E20E9414046CE485E20E94140467E298
:100E800086E20E94140463E780E50E94140466E091
:100E90008DE30E9414040E94F9038823F1F162E0BB
:100EA00082E20E94140460E081E20E94140463E084
:100EB0008CE30E9414048FEF8093030120E045E04F
:100EC00063E071E08BE20E94BD0320E045E063E057
:100ED00071E08AE20E94BD0320E045E063E071E03A
:100EE00080E30E94BD0382EE0E94560481EE0E94C0
:100EF000560460E787E20E9414048091CB0280616F
:100F00008093CB0280915B038F3F81F00E94EF05BD
:100F100081110CC081E291E00BC080E090E0892B50
:100F2000C9F387E690E00E940000F4CF84E191E0ED
:100F30000C943B061F920F920FB60F9211240F9044
:100F40000FBE0F901F901895CF92DF92EF92FF92F5
:100F50000F931F93CF93DF93FC016901342F858991
:100F6000882391F0823020F090859150961B692F54
:100F70009FEF980F923018F432853150341B80FF68
:100F800003C0862F632F382F67FD79C0862F062E6A
:100F9000000C990BC481D5818C179D070CF06FC094
:100FA000032F10E046815781041715070CF067C026
:100FB000568D23E0959587952A95E1F743E01595A1
:100FC00007954A95E1F7509F7001519FF00C11244D
:100FD000078D10A1800F911F8E0D9F1DDC012C919C
:100FE000462F4770377081A192A1820F911DDC01BD
:100FF0008C91823018F097E0941B492F9FEF980F47
:10100000923018F497E0931B392F80FF03C0842F90
:10101000432F382F822F652F0E94D628859F2019B5
:101020001124B8E02B9F400D112498E0899F300DCA
:101030001124632F70E083E0759567958A95E1F739
:10104000C69FC001C79F900DD69F900D1124840F9D
:10105000911D47FD9A95038CF48DE02DE80FF91F43
:10106000377081E090E001C0880F3A95EAF720815F
:10107000CD2811F0822B02C0809582238083DF91DE
:10108000CF911F910F91FF90EF90DF90CF90089537
:101090000895FC016370658B848195812681378179
:1010A000613039F0633029F0918780873387228758
:1010B0000895318720879387828708950C94490883
:1010C0006F927F928F929F92AF92BF92CF92DF9258
:1010D000EF92FF920F931F93CF93DF93EC014B019D
:1010E0005A0169013801E881F9810284F385E02D14
:1010F0000995E881F9810288F389E02D870196013D
:10110000A501B401CE010995E881F981A501460D3B
:10111000571D415051090288F389E02D9601B40111
:10112000CE010995E881F9810088F189E02D9301CC
:10113000A501B401CE010995E881F981C80CD91C3B
:10114000B601615071090088F189E02D9301A50174
:10115000CE010995E881F9810688F789E02DCE0155
:10116000DF91CF911F910F91FF90EF90DF90CF9083
:10117000BF90AF909F908F907F906F900994CF9287
:10118000DF92EF92FF920F931F93CF93DF9300D0E4
:1011900000D000D0CDB7DEB76C01DC01ED91FC9141
:1011A0006217730789F4041715072CF4942F852F01
:1011B000A801092F182F041B150B98012F5F3F4F13
:1011C000048CF58DE02D12C04017510709F5261744
:1011D00037072CF4962F872FB901292F382F261B7C
:1011E000370B2F5F3F4F068CF78DE02D8701C6012F
:1011F000099526960FB6F894DEBF0FBECDBFDF91DE
:10120000CF911F910F91FF90EF90DF90CF900895B5
:101210000284F385E02D2D833E834B835C836983B9
:101220007A830995D601ED91FC910488F589E02D2A
:101230002D813E814B815C8169817A81C60109954E
:10124000D601ED91FC910688F789E02DC60126961E
:101250000FB6F894DEBF0FBECDBFDF91CF911F91C7
:101260000F91FF90EF90DF90CF900994EF92FF9253
:101270000F931F93DC01ED91FC9111971A960D913C
:101280001C911B9718962D913C91199700A0F1A1E4
:10129000E02D7B0140E050E060E070E009951F9197
:1012A0000F91FF90EF9008954F925F926F927F920F
:1012B0008F929F92AF92BF92CF92DF92EF92FF9266
:1012C0000F931F93CF93DF9300D0CDB7DEB76C01A0
:1012D0005A0139014801DC01ED91FC910284F3854A
:1012E000E02D69837A8309956981462E7A81572E8C
:1012F000640C751CD601ED91FC91461457046CF4F6
:101300000088F189E02D87019401A501B201C60191
:101310000995BFEF4B1A5B0AEDCF0688F789E02DE0
:10132000C6010F900F90DF91CF911F910F91FF9009
:10133000EF90DF90CF90BF90AF909F908F907F9075
:101340006F905F904F900994AF92BF92CF92DF92CF
:10135000EF92FF920F931F93CF93DF9300D000D0B3
:10136000CDB7DEB75C016901DC01ED91FC9102842F
:10137000F385E02D4B835C8369837A830995D501DE
:10138000ED91FC9169817A819B012C0D3D1D2150CD
:1013900031090488F589E02D78014B815C818A014F
:1013A000C5010995D501ED91FC910688F789E02DDD
:1013B000C5010F900F900F900F90DF91CF911F916B
:1013C0000F91FF90EF90DF90CF90BF90AF90099476
:1013D000AF92BF92CF92DF92EF92FF920F931F9343
:1013E000CF93DF9300D000D0CDB7DEB75C016901A9
:1013F000DC01ED91FC910284F385E02D4B835C834D
:1014000069837A830995D501ED91FC914B815C81CB
:10141000C40ED51EB1E0CB1AD1080488F589E02DA1
:101420007801860169817A819B01C5010995D50101
:10143000ED91FC910688F789E02DC5010F900F9082
:101440000F900F90DF91CF911F910F91FF90EF9030
:10145000DF90CF90BF90AF9009940895EF92FF92E4
:101460000F931F93DC01ED91FC9100A0F1A1E02D01
:1014700009951F910F91FF90EF9008950F931F937F
:10148000DC01ED91FC91068CF78DE02D09951F9103
:101490000F9108950F931F93DC01ED91FC91048C43
:1014A000F58DE02D09951F910F910895DC01ED91C7
:1014B000FC910084F185E02D099408952F923F92CC
:1014C0004F925F926F927F928F929F92AF92BF9254
:1014D000CF92DF92EF92FF920F931F93CF93DF9300
:1014E00000D01F92CDB7DEB74C017B836A836A01BF
:1014F000590117019801241B350B37FF03C03195A3
:1015000021953109C5014A815B81841B950B97FFA9
:1015100003C091958195910951E0598382179307F2
:1015200014F019820BC09A2D8B2D5801092F182FFA
:101530009A818B81DB82CA82C92ED82E8A819B81B7
:10154000A816B9065CF49C2D8D2D6801092F182F63
:101550009A818B81BB82AA82A92EB82E2501AA81ED
:10156000BB814A1A5B0A38016C187D0877FE03C0FC
:10157000719461947108720157FE03C0BFEFEB1ABA
:10158000FB0AF594E794C016D1061CF00FEF1FEF8D
:101590001FC001E010E01CC0D401ED91FC91B981A5
:1015A0000484F585E02D9101BB23C1F04A815B8164
:1015B000B601C4010995E618F708F7FE04C0C00E8D
:1015C000D11EE40CF51CEA81FB813196FB83EA8392
:1015D0004A815B81A416B506FCF604C0A6016A81A7
:1015E0007B81E7CF0F900F900F90DF91CF911F91EC
:1015F0000F91FF90EF90DF90CF90BF90AF909F90B2
:101600008F907F906F905F904F903F902F900895B4
:10161000FC01458D50E0672B19F460E070E002C0DA
:101620006FEF70E0FC01838D948D0C94372BDF926B
:10163000EF92FF920F931F93CF93DF93282F30E009
:10164000F901EE0FFF1FE657FA4FA591B4910C91E7
:10165000F901EF56FD4FD080D0260083220F331FB3
:10166000F901E15DFE4F0190F081E02D9081D922DA
:10167000C9F1182F110F110F110FE12CF12CC1E03E
:10168000D0E09E010E2C01C0220F0A94EAF78D2DA6
:10169000822309F1E12FEE0DF0E0EE0FFF1FDF01D5
:1016A000AF59BD4F8D919C918130910551F08330A0
:1016B000910519F4202329F40EC0029761F4202328
:1016C00051F4EF5CFD4F80819181892B21F00190D5
:1016D000F081E02D09958FEFE81AF80A88E0E81606
:1016E000F10479F6DF91CF911F910F91FF90EF9068
:1016F000DF9008951F920F920FB60F9211242F932F
:101700003F934F935F936F937F938F939F93AF9389
:10171000BF93EF93FF93E091BB02F091BC02099558
:10172000FF91EF91BF91AF919F918F917F916F91B9
:101730005F914F913F912F910F900FBE0F901F908F
:101740001895FC01F894248135818085823021F43C
:10175000C9018170992705C0843031F4C9018370B3
:1017600099279583848302C015821482789480859A
:10177000843029F4359527953595279504C0823016
:1017800011F4359527958685882329F081859285E2
:10179000892F992702C080E090E037FF03C0809531
:1017A00090950895232B11F00196089580E090E024
:1017B0000895EF92FF920F931F93CF93DF938C01C5
:1017C000D62FE42E60E0DC015A968C910E94011B1A
:1017D000FF24FA94FD0EF801C58DCF0DC8508D2F52
:1017E0000E94B603D93048F4D8015B96ED91FC9184
:1017F0005C97EC0FF11D808101C08E2D0E94B60315
:10180000FC1660F361E0F801828DDF91CF911F91AA
:101810000F91FF90EF900C94011B2F923F924F92EB
:101820005F926F927F928F929F92AF92BF92CF9270
:10183000DF92EF92FF920F931F93CF93DF93CDB779
:10184000DEB76C970FB6F894DEBF0FBECDBF9C8F8E
:101850008B8F5B011A011F830E833701C982DC0164
:1018600058964D915C9159974115510509F0E5C085
:1018700018968D919C911997681779070CF0CAC139
:101880001A968D919C911B97281639060CF0C2C1AF
:101890008C2C912CFB0136E0C39EE00DF11D112430
:1018A000FB87EA871E161F060CF0B4C1C40133E0A3
:1018B000880F991F3A95E1F79D878C87820D931DBC
:1018C000181619060CF0A6C157968C91811103C009
:1018D000203B08F02F5FAB8DBC8DED91FC911197F3
:1018E0000284F385E02DCD012A8F09952A8DB5E07C
:1018F0002B9F90011124F5013596FF87EE87BB825F
:10190000AA822501A9014A195B09598B488BC1019B
:1019100008969B8B8A8BE889F989E40DF51DE859B7
:10192000FF4F9491988761013D822C82A885A0FF8A
:1019300013C0AB8DBC8DED91FC91B981B13031F408
:101940000484F585E02D2E813F8116C00684F7853D
:10195000E02DEE80FF801AC0EE81FF816E167F06BB
:10196000F1F0AB8DBC8DED91FC91B981B13051F4AA
:101970000484F585E02D9301A601B2018B8D9C8D29
:1019800009950DC00684F785E02D7301840194014B
:101990004C815D816A817B818B8D9C8D0995E88569
:1019A000E695E887FFEFCF1ADF0A2C813D81280DED
:1019B000391D3D832C834A895B89C416D50609F0FD
:1019C000B5CF5FEF451A550A8A819B81880D991D15
:1019D0009B838A83AE85BF854A165B0609F09BCF41
:1019E000EE81FF816E167F0609F4F2C0EB8DFC8D4F
:1019F000A081B181F981F13079F4B5016B5F7F4F3E
:101A00005096ED91FC915197830128E030E0A101BF
:101A10008B8D9C8D0995DCC06A857B856819790959
:101A20001E96ED91FC911F9773010C851D85940105
:101A3000A1018B8D9C8D0995CBC0FA0134969491B0
:101A4000329765917491291BCB01B7E02B9F800DD4
:101A5000911D1124FA01259134913B8B2A8BFC01B5
:101A6000459154915B834A83FC013296C490319630
:101A700054915E87329614913196D4908981823048
:101A800058F0612E012E000C7708AD2D0D2C000CA6
:101A9000BB0BB987A88704C019861886612C712CE6
:101AA000AB8DBC8DED91FC9111970284F385E02DF7
:101AB000CD010995B9818B2E912C689CC001699C40
:101AC000900D789C900D1124FC01EA0DFB1DFD8703
:101AD000EC871C82712C612CE12F110FFF0B9501FB
:101AE0002E0F3F1F3B872A87AC0CB11CA5014E0F60
:101AF0005F1F5F8B4E8BC1018D0D911DD7FC9A9599
:101B0000998F888F4E85641608F062C0862D90E00C
:101B100048855985480F591F489D9001499D300DB2
:101B2000589D300D1124D901A20DB31DB98BA88B7E
:101B3000AA84BB844C845D84DC80BA85DB1AE88D82
:101B4000F98DE80FF91FFD8BEC8B8D2D8A0D2E89F9
:101B50003F89A216B306B9F1877061F48A819B812F
:101B60000196EA89FB89AA81BB81EA0FFB1F749069
:101B70009B838A8377FE20C0AB8DBC8DED91FC9159
:101B8000B981B13061F40484F585E02D2E813F8167
:101B90004C895D89B5018B8D9C8D09950DC006849E
:101BA000F785E02DEE80FF808401940148895989F2
:101BB000B2018B8D9C8D0995770CEFEFAE1ABE0AA2
:101BC000480C591CC2CF3C813C0D3C8363949ACF96
:101BD000AB8DBC8DED91FC9111970688F789E02DB6
:101BE000CD016C960FB6F894DEBF0FBECDBFDF916E
:101BF000CF911F910F91FF90EF90DF90CF90BF900A
:101C0000AF909F908F907F906F905F904F903F909C
:101C10002F9009946C960FB6F894DEBF0FBECDBF1F
:101C2000DF91CF911F910F91FF90EF90DF90CF90B8
:101C3000BF90AF909F908F907F906F905F904F90EC
:101C40003F902F900895AF92BF92CF92EF92FF9264
:101C50000F931F93CF93DF93EC01262F888D998DDF
:101C6000009709F040C06A3059F41D861C862C8903
:101C70008E859F8538E0239F800D911D112441C0E2
:101C80006D3009F4AAC08E898823C1F03C898C8507
:101C90009D8546E0349F800D911D1124488559850E
:101CA000481759075CF41D861C868E859F8548E081
:101CB000349F800D911D11249F878E87EA88FB88B1
:101CC000088919894E855F856C857D85CC88CE0114
:101CD0000E940D0C2C898C859D8536E0239F800DFC
:101CE000911D112442C06A3079F41D861C862C890E
:101CF000FC013696E4918E859F852E9F800D911D67
:101D000011249F878E8769C06D3009F466C0FC017D
:101D100034963491631708F460C03196E491E61765
:101D200008F45BC0FC013296A590B490462F50E0B9
:101D3000431B510937E0349FB001359F700D1124CA
:101D4000A60EB71EF501329634913196E4913323F5
:101D500011F0E1110DC0F5013496E4912C898C85C8
:101D60009D85E29F800D911D11249D878C8735C034
:101D7000F501359644915E89552311F16C89E32F65
:101D8000F0E0E40FF11D47FDFA956E9FD0016F9FC3
:101D9000B00D11244C855D854A0F5B1FE885F985E0
:101DA000E417F5076CF41D861C86FC013696E49159
:101DB0008E859F856E9F800D911D11249F878E8734
:101DC000EA88FB88088919894E855F856C857D8541
:101DD000CC88CE010E940D0CBECF81E090E0DF9157
:101DE000CF911F910F91FF90EF90CF90BF90AF9048
:101DF0000895CF93CFB7F8948091BA02811127C08C
:101E0000E4EAF5E08491E8EBF5E09491E82FF0E066
:101E1000EE0FFF1FE458FA4FA591B491EC91E9231E
:101E200021F461E08AE00E94011B61E08AE00E94E7
:101E3000311B8CB580618CBD8CB580648CBD61E03C
:101E40008DE00E94311B61E08BE00E94311B80918C
:101E5000BA028F5F8093BA02CFBFCF9108951F92CD
:101E60000F920FB60F9211242F933F934F935F93CE
:101E70006F937F938F939F93AF93BF93EF93FF9352
:101E80008091B900887F803609F49CC068F588325B
:101E900009F45BC090F4803109F454C038F488230D
:101EA00009F4F6C0883009F44DC0F6C0883109F451
:101EB0004CC0803209F45DC0EFC0803409F468C0C2
:101EC00048F4803309F455C0883309F0E5C08093A5
:101ED0003603D8C0803509F44FC0883509F45DC099
:101EE000883409F0D9C0D6C0883909F4C7C0A8F42D
:101EF000883709F467C038F4883609F463C080373E
:101F000009F460C0C9C0883809F4B8C0803909F440
:101F10005FC0803809F0C0C05BC0803B09F486C058
:101F200038F4803A09F466C0883A09F47FC0B4C036
:101F3000803C09F4A7C0883C09F4A4C0883B09F49C
:101F40008AC0AAC08091330310C09091350380915C
:101F50003403981770F5E091350381E08E0F80937C
:101F60003503F0E0EE5EFC4F80818093BB0085EC92
:101F700086C0809336038EC0E091350381E08E0FDA
:101F8000809335038091BB00F0E0EE5EFC4F8083D0
:101F900090913503809134036EC0E091350381E068
:101FA0008E0F809335038091BB00F0E0EE5EFC4F16
:101FB00080838091370381116DC081E0809332036B
:101FC00084EA61C083E0809338031092B902CFCFD6
:101FD0008091B902803208F051C0E091B90281E0ED
:101FE0008E0F8093B9028091BB00F0E0E756FD4F61
:101FF0008083BDCF85EC8093BC0010923803809124
:10200000B902803230F4E091B902F0E0E756FD4FBA
:1020100010826091B90270E0E0919702F09198020D
:1020200089E992E009951092B90236C084E0809364
:1020300038031092960210923002E0919402F091CF
:102040009502099580913002811105C081E080934D
:10205000300210921002E091960281E08E0F809380
:102060009602F0E0E05FFD4F80818093BB0090918D
:10207000960280913002981708F479CF85E8809312
:10208000BC000AC085EC8093BC001092380304C0E9
:10209000109236030E94CF12FF91EF91BF91AF9142
:1020A0009F918F917F916F915F914F913F912F9170
:1020B0000F900FBE0F901F90189540913002262F61
:1020C00030E0240F311D21323105DCF4209138033A
:1020D0002430C9F4FC0180E090E0861758F4309178
:1020E00030022191DC01A05FBD4FA30FB11D2C93E5
:1020F0000196F3CF80913002680F6093300280E048
:10210000089581E0089582E008950895E0913A03EA
:1021100080913903E81730F4F0E0E55CFC4F8081F2
:1021200090E008958FEF9FEF089590913A0380918A
:102130003903981750F4E92FF0E0E55CFC4F20815B
:1021400030E09F5F90933A0302C02FEF3FEFC90149
:1021500008958091390390E020913A03821B910900
:102160000895CF92DF92EF92FF920F931F93CF9338
:10217000DF937C01262F972F8A0180910F038823FC
:1021800091F0C62FD72F6E01C40ED51ECC15DD05DC
:1021900071F06991D701ED91FC910190F081E02DF2
:1021A000C7010995F3CF642F822F0E945D10C801EB
:1021B000DF91CF911F910F91FF90EF90DF90CF9023
:1021C0000895CF93DF931F92CDB7DEB76983209137
:1021D0000F032223D1F020910D03203240F021E0A3
:1021E00030E0FC013383228380E090E015C08091D1
:1021F0000E03E82FF0E0E351FD4F998190838F5F4C
:1022000080930E0380930D0305C061E0CE0101961B
:102210000E945D1081E090E00F90DF91CF910895D2
:10222000089580E090E008952F923F924F925F9240
:102230006F927F928F929F92AF92BF92CF92EF92C6
:10224000FF920F931F93CF93DF933C010E94CC1B0F
:102250001B012C018091D3029091D402A091D50250
:10226000B091D602A2019101281B390B4A0B5B0BDE
:10227000293231054105510508F490C060E070E055
:1022800086E994E00E94080B8091BF029091C00201
:102290006091F3047091F4040E94F6285B01C091F0
:1022A0009E04D0919F042197C81BD90B8091A00454
:1022B0009091A1044C0138E0831A910897FE04C064
:1022C0004C0147E0841A9108959487948091F30417
:1022D0009091F4048C0F9D1F1816190664F5B7FC35
:1022E0002AC0D30114968D919C911597A816B90612
:1022F000C0F4ED91FC91309729F41092D202E2EDF6
:10230000F2E002C0EA0DFB1DCC24C394E12CF12CB9
:1023100001E010E02081A401BE0186E994E00E9462
:102320000D0CB1E0AB1AB1088091F3049091F40464
:10233000C81BD90BCBCF0E94C41E8091BF029091C5
:10234000C00220919E0430919F0422503109D30194
:102350001496ED91FC9115976091F3047091F4043B
:10236000E69FA001E79F500DF69F500D1124240F0A
:10237000351F8217930730F401969093C002809323
:10238000BF0204C01092C0021092BF022092D3027A
:102390003092D4024092D5025092D602DF91CF9172
:1023A0001F910F91FF90EF90CF90BF90AF909F90B3
:1023B0008F907F906F905F904F903F902F900895F7
:1023C0008091EA049091EB0481309105E1F01CF4D6
:1023D000892B49F008958330910509F43FC0049793
:1023E00009F465C0089581E08093C00480EE91E116
:1023F0009093C9048093C80461E088E00E94011BA7
:1024000083E090E06FC082E08093C00480EE91E1B1
:102410009093C9048093C80460E088E00E94011B87
:102420004091ED045091EE0428EE33E0429FC0014C
:10243000439F900D529F900D1124A0E0B0E0809337
:10244000900490939104A0939204B093930484E039
:1024500090E09093EB048093EA04089582E08093E7
:10246000C00480EE91E19093C9048093C80460E0B9
:1024700088E00E94011B4091ED045091EE0428EE8B
:1024800033E0429FC001439F900D529F900D112455
:10249000A0E0B0E08093900490939104A093920404
:1024A000B09393041092EB041092EA040895809183
:1024B0001F0190912001029729F580911D019091B3
:1024C0001E010397F9F481E08093C00480EE91E14E
:1024D0009093C9048093C80461E088E00E94011BC6
:1024E00081E090E09093EB048093EA048AEF90E01F
:1024F000A0E0B0E08093900490939104A0939204A4
:10250000B093930408958091EA049091EB040297AC
:10251000E1F061E08AE694E00E9464030E94671E95
:1025200060E089E494E00E9464030E94671E60E01A
:1025300088E00E94011B82E090E09093EB0480937E
:10254000EA0410928B0462E026C060E08AE694E020
:102550000E9464030E94671E1092EB041092EA042A
:1025600081E080938B044091ED045091EE0428EEBD
:1025700033E0429FC001439F900D529F900D112464
:10258000A0E0B0E08093900490939104A093920413
:10259000B093930460E08DE991E00C948D2885ED73
:1025A0008093BC008091BC0084FDFCCF1092380366
:1025B00008954F925F926F927F928F929F92AF9207
:1025C000BF92CF92DF92EF92FF920F931F93CF9320
:1025D000DF930E94CC1B0091CE021091CF0220917C
:1025E000D0023091D102DC01CB01801B910BA20BF8
:1025F000B30B813A9B4BAD40B10590F00E94CC1BD0
:102600006093CE027093CF028093D0029093D10258
:102610000E94F903811104C081E291E00E943B060F
:1026200086E0B82E90E0E92E90E0F92E20E0C22E50
:1026300020E0D22E31E2A32E21E041E060E070E004
:1026400087E10E94BD0380FD99C2BA94BB2009F4C2
:1026500095C2E114F10421F081E090E00E940000B5
:1026600021E041E060E070E080E60E94BD03082FB9
:10267000813220F082EE0E94560400E021E0402FDB
:1026800066E175E081E60E94BD0360E487E20E9496
:10269000140490911905192F1695169516951A314F
:1026A00008F019E192FD03C087E0810F01C080E2CC
:1026B00070901A05C0911B05D091170590901605D2
:1026C00080901805081739F0E114F10409F4B4CF2B
:1026D0008CE690E009C09370923049F0E114F10467
:1026E00009F4AACF8DE690E00E940000A5CF80916A
:1026F0005C03981651F080915B03D81731F08D2F51
:1027000090E0692D03960E948D28072D0770809117
:10271000CC0280688093CC0280915B0388124DC00C
:1027200020911905822F8695869586958A3108F025
:1027300089E138E0839FC00111242770822B8093A8
:102740001905E12FF0E0EA5EFA4F178280911A0531
:1027500083FF17C0E6E1F5E0A5EFB4E08A2D019014
:102760000D928A95E1F78091F904877F80618093CB
:10277000F9048092F604D093F70485EF94E00E9468
:10278000FE0480911A0584FD13C0033089F49091F2
:102790001B0521EF290F233008F0BBC04DCF91302E
:1027A00009F45DC19A3009F479C19C3109F444CF30
:1027B00086E195E00E945F183FCF2FEF82128FC015
:1027C000033009F07EC08091CB0282FF5DC0C7302C
:1027D00009F05AC080915C03D81709F42DCF0E94EC
:1027E000CC1B0091C7021091C8022091C902309100
:1027F000CA02DC01CB01801B910BA20BB30B803111
:102800009742A105B10518F18091CB0283FD14CF49
:1028100090915B0391116AC11092CD028091CB021D
:10282000877F8093CB02C091CD02CF3F09F404CFC4
:102830000E94CC1B6093C7027093C8028093C902A8
:102840009093CA0280915D03C813C0935D030E94F8
:10285000CC1B6093C7027093C8028093C902909307
:10286000CA020E94CC1B7370882799270E94921B72
:10287000C0915D0328E043E06FEF8D2F0E94011EA1
:102880006C2F0E94580342C0C83009F4D5CEC43121
:10289000C1F480915C03981214C00E94CC1B737029
:1028A000882799270E94921BC0915C0325E143E091
:1028B0006FEF8D2F0E94011E6C2F0E9458030E9403
:1028C0005C0480915C039812B7CE80915B03D817AB
:1028D00009F450C18091CB0282FD40C14BC180916F
:1028E000CB0282FFA9CE033079F4C851C23060F424
:1028F00086E195E00E94A5038E3F31F061E0680F0C
:1029000086E195E00E94580386E195E00E945C0410
:1029100093CEC43039F486E195E00E94A5030E946D
:10292000EF058ACEC830D9F4C091CB02C0FF84CE67
:1029300086E195E00E94A5038F3F09F47DCE8F5F6D
:102940008F3F09F479CE90915D03891708F074CE1A
:10295000C1FD72CE80935D03D0935C036DCEC83110
:1029600041F429E143E06FEF8D2F0E94011E61E0E9
:1029700088CFC93171F48091CB0283FF5DCE877F10
:102980008093CB0286E195E00E94A5038093CD025F
:1029900053CE209117052111A5C09D3099F480E0F8
:1029A00090E0892B21F08BE090E00E94000098E0FD
:1029B00088E10FB6F894A895809360000FBE9093BD
:1029C0006000FFCF9B31A9F486E195E00E94A5034A
:1029D00091E0811101C090E08091110390FB80F99A
:1029E00080931103E114F10409F426CE8AE090E00B
:1029F0007BCE963099F490911D0581E0992319F0D2
:102A00009D3409F080E08093100341E050E063E0E2
:102A100071E080E193E00E947D280ECE933119F49D
:102A20000E942D0509CE923109F0B9CE0E942806E8
:102A30002B013C0126E143E06FEF80E00E94011E84
:102A4000FC0184818F71806A8483838187708062B6
:102A500083834782508661867286CF0140C0C1144D
:102A6000D10409F4E9CD829586958770853049F4C3
:102A700060911D0570911E0580911F0590912005A4
:102A80000AC0811105C08DE195E00E94F72703C0BF
:102A900060E070E0CB010E940000CECD80911D056A
:102AA000833409F0C9CDE114F10421F08DE090E008
:102AB0000E940000C3E0D0E06FEFCE010E948D289D
:102AC0002196C33081E0D807B9F72AE043E06FEFE1
:102AD00080E00E94011E62E971E00E9470030E9482
:102AE000FE04AACD9A3109F063CEA6CD886080930A
:102AF000CB028092CD0228E143E06FEF80E00E949C
:102B0000011E61E00E9458030E945C040E94CC1BDD
:102B10002B013C0110921B05C0E00E94CC1BDC0184
:102B2000CB0184199509A609B709803D9740A105F5
:102B3000B10508F073CEC11171CE8091CB0284FD36
:102B40000E94D912A89580911A058770833029F7C1
:102B5000C1E080911B058931F9F6DFCF86E195E070
:102B60000E945C04033009F467CD80915C039812E5
:102B700063CD1ECE033009F01BCE5ECDDF91CF9129
:102B80001F910F91FF90EF90DF90CF90BF90AF908B
:102B90009F908F907F906F905F904F900895CF930C
:102BA000DF9300D000D000D0CDB7DEB780911F01F9
:102BB00090912001019761F580911D0190911E0176
:102BC00083309105A1F044F48130910569F00297BA
:102BD000F9F467EA71E010C08430910559F0059767
:102BE000B9F469EE71E008C065E971E005C065EB14
:102BF00071E002C06FEC71E0CE0101960E946B1A89
:102C0000CE0101960E94141189819A810E94C729E0
:102C100080911F0190912001029799F560E070E08A
:102C200086E994E00E94080B1092A3041092A2047B
:102C30001092A5041092A40480911D0190911E0190
:102C400083309105B1F01CF4029739F018C084303C
:102C5000910579F0059769F012C08091EC04882302
:102C600019F08EEF91E002C081E092E00E94D01E48
:102C700006C08091BD029091BE020E94E21E0E9499
:102C8000C41E26960FB6F894DEBF0FBECDBFDF91EF
:102C9000CF910895EF92FF920F931F93CF93DF93FD
:102CA00080E28093BC0410923A0310923903109290
:102CB0000E0310920D031092380381E080933703C6
:102CC0001092320361E082E10E94011B61E083E126
:102CD0000E94011B8091B9008E7F8093B900809182
:102CE000B9008D7F8093B90088E48093B80085E4B3
:102CF0008093BC000E94101E8091BB048E7F809345
:102D0000BB048091B9048E7F8093B9040E941F1F79
:102D10008091BB048E7F8093BB048091B904816055
:102D20008093B9040E941F1F8091BB048D7F809304
:102D3000BB048091B9048D7F8093B9040E941F1F4A
:102D40008091BB048D7F8093BB048091B904826025
:102D50008093B9040E941F1F60E082E00E94311B33
:102D600061E082E00E94011B82E08093BF0462E088
:102D70000E94311BE0EBF5E02491ECE9F5E0E491F1
:102D8000EE2309F447C0E250AE2FB0E0AA0FBB1FFC
:102D9000A15DBE4F0D90BC91A02DE13031F08E2F82
:102DA000880F880F880F8E5F01C08CEF90E0880F2E
:102DB000991FEC01CF59DD4F42E050E05983488321
:102DC000EC01CF5CDD4F46ED52E2598348838C9194
:102DD000282B2C932091680081E090E001C0880F9F
:102DE000EA95EAF7822B80936800EAE8F5E0A5917E
:102DF000B4918C9180939102ECE8F5E0A591B491A7
:102E00008C9180939202EEE8F5E0A591B4918C91BB
:102E10008093930282E08093C10423E832E13093EF
:102E2000CB042093CA048093C00480EE91E1909378
:102E3000C9048093C8048FE090E00E943229EC011D
:102E400080E188838FE0898381E18A831B821D82F0
:102E50001C821F821E8281E088871A8619861C8642
:102E60001B868D878E8762E080E10E94311B62E0C5
:102E700089810E94311B62E08A810E94311B888116
:102E80000E94D81A2B8130E08217930721F483E047
:102E900090E09F838E8389810E94D81A2B8130E035
:102EA0008217930731F48E819F8121E082279F83CF
:102EB0008E83D0938105C093800591E09E87109208
:102EC000800080E1809381009093D9028FB7809336
:102ED000DA02F89420E43FE13093D8022093D7023D
:102EE00030938700209386008091DA028FBF809113
:102EF0008100887F80938100209181008091D90298
:102F0000282B209381002CE333E23093DC022093C2
:102F1000DB0290936F0090918100892B8093810058
:102F200080918005909181050E94A10B909374057A
:102F30008093730540E06AE086E994E00E94D90B33
:102F4000C0E0D0E080919E0490919F04019760E0E2
:102F500070E0C817D90734F586E994E00E94080BA1
:102F60000091A0041091A1040150110920919E0428
:102F700030919F04215031092C1B3D0BEE24E3942A
:102F8000F12C40E050E0BE0186E994E00E94BF08C9
:102F90000E94C41E60E570E080E090E00E94921BF9
:102FA0002196D0CF86E994E00E94080B0E94C41EAF
:102FB0008DE991E00E94752890E09093EB04809356
:102FC000EA048EE991E00E94752891E0811101C028
:102FD00090E09093EC048FE991E00E94752890E0D6
:102FE0009093EE048093ED0480EA91E00E947528AE
:102FF00090E09093F0048093EF0481EA91E00E94C6
:10300000752890E09093F2048093F1040E941324B9
:103010002091EF043091F0048091F1049091F2043A
:10302000281B390B30937605209375056091ED04CC
:103030007091EE0448EE53E0649FC001659F900DCF
:10304000749F900D1124A0E0B0E0809390049093C1
:103050009104A0939204B093930480912C048F71F7
:10306000806680932C0480912B048770806180930C
:103070002B043093300420932F0488E294E00E94C4
:10308000671E2091DE023091DF0280910B048F7168
:10309000806680930B0480910A048770806180931E
:1030A0000A0430930F0420930E0487E094E0DF912C
:1030B000CF911F910F91FF90EF900C94671ECF93CB
:1030C000DF93EC018D818230A1F48E81823089F40E
:1030D0008091EA049091EB04029731F0CE010E94B6
:1030E000A50381112AC005C0CE010E94A503882333
:1030F00099F18D81823009F079C08E81813009F09B
:1031000075C08091EA049091EB04009709F048C0E3
:10311000CE010E94A503882309F468C083E090E0F3
:103120009093EB048093EA0461E088E00E94011B25
:103130008AEF90E0A0E0B0E051C082E090E0909390
:10314000EB048093EA0460E088E00E94011B109287
:103150008B046091EA041FC01092EB041092EA0401
:1031600081E080938B044091ED045091EE0428EEB1
:1031700033E0429FC001439F900D529F900D112458
:10318000A0E0B0E08093900490939104A093920407
:10319000B093930460E08DE991E00E948D28A9CF5F
:1031A000039721F5CE010E94A50381111FC0109243
:1031B000EB041092EA0460E088E00E94011B409159
:1031C000ED045091EE0428EE33E0429FC001439F8E
:1031D000900D529F900D1124A0E0B0E080939004D8
:1031E00090939104A0939204B0939304DF91CF91B4
:1031F0000895CF92DF92EF92FF920F931F93CF9398
:10320000DF936C017A018B01C0E0D0E0CE15DF05C1
:1032100089F0D8016D918D01D601ED91FC9101905D
:10322000F081E02DC6010995892B11F47E0102C0C1
:103230002196ECCFC701DF91CF911F910F91FF90A5
:10324000EF90DF90CF900895FC01538D448D252F92
:1032500030E0842F90E0821B930B541710F0CF9630
:10326000089501970895FC01918D828D981761F062
:10327000828DDF01A80FB11D5D968C91928D9F5FAD
:103280009F73928F90E008958FEF9FEF0895FC0158
:10329000918D828D981731F0828DE80FF11D858D0B
:1032A00090E008958FEF9FEF0895FC01918D228D9E
:1032B000892F90E0805C9F4F821B91098F73992723
:1032C00008958EE593E00E94551921E0892B09F4B9
:1032D00020E0822F0895FC01848DDF01A80FB11D2D
:1032E000A35ABF4F2C91848D90E001968F7399273C
:1032F000848FA689B7892C93A089B1898C91806429
:103300008C93938D848D981306C00288F389E02DE9
:1033100080818F7D80830895EF92FF920F931F939A
:10332000CF93DF93EC0181E0888F9B8D8C8D981378
:1033300005C0E889F989808185FD24C0F62E0B8DB2
:1033400010E00F5F1F4F0F731127E02E8C8DE812D6
:103350000CC00FB607FCFACFE889F989808185FF98
:10336000F5CFCE010E946B19F1CF8B8DFE01E80FD6
:10337000F11DE35AFF4FF0820B8FEA89FB898081B0
:10338000806207C0EE89FF896083E889F9898081BE
:103390008064808381E090E0DF91CF911F910F9155
:1033A000FF90EF900895CF93DF93EC01888D8823F1
:1033B000C9F0EA89FB89808185FD05C0A889B989A2
:1033C0008C9186FD0FC00FB607FCF5CF808185FF7D
:1033D000F2CFA889B9898C9185FFEDCFCE010E94EB
:1033E0006B19E7CFDF91CF91089580E090E0892BB2
:1033F00029F00E94611981110C9400000895833016
:1034000081F028F4813099F08230A1F0089587305E
:10341000A9F08830B9F08430D1F4809180008F7D9C
:1034200003C0809180008F7780938000089584B5D9
:103430008F7702C084B58F7D84BD08958091B000E0
:103440008F7703C08091B0008F7D8093B000089586
:103450000895EF92FF920F931F93CF93DF93EC01A8
:103460007B018A0188819981009729F02A813B811B
:1034700024173507F8F4B8016F5F7F4F0E945F2A69
:10348000009759F0998388831B830A832C813D819F
:10349000232B81F4FC0110820DC088819981009753
:1034A00011F00E94C729198218821D821C821B827A
:1034B0001A8207C01D830C83B701888199810E94FD
:1034C0003E2BCE01DF91CF911F910F91FF90EF9096
:1034D00008950E94292BFC0111821082138212820E
:1034E000158214826115710551F0FB0101900020D5
:1034F000E9F73197AF01461B570B0C94291A089531
:103500001F920F920FB60F9211242F933F934F9358
:103510005F936F937F938F939F93AF93BF93EF933B
:10352000FF938EE593E00E946B19FF91EF91BF919D
:10353000AF919F918F917F916F915F914F913F914B
:103540002F910F900FBE0F901F9018951F920F9202
:103550000FB60F9211242F938F939F93EF93FF93A6
:10356000E0916E03F0916F038081E0917403F0911C
:10357000750382FD12C09081809177038F5F8F73F6
:1035800020917803821751F0E0917703F0E0E25A3E
:10359000FC4F958F8093770301C08081FF91EF915D
:1035A0009F918F912F910F900FBE0F901F901895A4
:1035B000CF93DF93282F30E0F901E859FA4F849137
:1035C000F901E255FA4FD491F901E656FA4FC49148
:1035D000CC2391F081110E94FF19EC2FF0E0EE0F47
:1035E000FF1FEA57FA4FA591B491EC91ED2381E0CA
:1035F00090E021F480E002C080E090E0DF91CF9184
:1036000008951F93CF93DF93282F30E0F901E859F5
:10361000FA4F8491F901E255FA4FD491F901E65637
:10362000FA4FC491CC23C9F0162F81110E94FF19C3
:10363000EC2FF0E0EE0FFF1FE057FA4FA591B49189
:103640008FB7F894111105C09C91ED2FE095E923F7
:1036500002C0EC91ED2BEC938FBFDF91CF911F91C6
:103660000895CF93DF9390E0FC01E255FA4F249147
:10367000FC01E656FA4F8491882361F190E0880FAF
:10368000991FFC01E458FA4FC591D491FC01E05711
:10369000FA4FA591B491611109C09FB7F894888140
:1036A000209582238883EC912E230BC0623061F435
:1036B0009FB7F8943881822F809583238883EC917B
:1036C0002E2B2C939FBF06C08FB7F894E8812E2B2A
:1036D00028838FBFDF91CF9108953FB7F8948091F1
:1036E000E5029091E602A091E702B091E80226B5CA
:1036F000A89B05C02F3F19F00196A11DB11D3FBF2A
:10370000BA2FA92F982F8827820F911DA11DB11DB7
:10371000BC01CD0142E0660F771F881F991F4A95B3
:10372000D1F708958F929F92AF92BF92CF92DF927E
:10373000EF92FF926B017C010E946D1B4B015C01BB
:10374000C114D104E104F104F1F00E946D1BDC010D
:10375000CB0188199909AA09BB09883E9340A105A4
:10376000B10570F321E0C21AD108E108F10888EE32
:10377000880E83E0981EA11CB11CC114D104E10481
:10378000F10419F7DDCFFF90EF90DF90CF90BF905D
:10379000AF909F908F9008952FB7F8946091E102B9
:1037A0007091E2028091E3029091E4022FBF0895AC
:1037B000AF92BF92CF92DF92EF92FF920F931F933F
:1037C000CF93DF93CDB7DEB767970FB6F894DEBF20
:1037D0000FBECDBF182F062F0E94CC1B6B017C01A2
:1037E0002091DE023091DF02C90123E0880F991F8A
:1037F0002A95E1F72091EF043091F0044091F10413
:103800005091F204B901641B750B0E94E2285B0120
:1038100060E070E086E994E00E94080B8091DD0290
:10382000882349F121E030E040E050E06FE070E0B3
:1038300086E994E00E94A4078091E9029091EA024F
:10384000A091EB02B091EC02A7019601281B390B65
:103850004A0B5B0B2536310541055105A0F020E0F0
:1038600030E040E050E06FE070E086E994E00E94D4
:10387000A4071092DD02C092E902D092EA02E0921F
:10388000EB02F092EC02002319F021E030E002C0DC
:1038900020E030E042E050E06FE070E086E994E044
:1038A0000E94A4078091EC04882319F020E030E006
:1038B00002C021E030E044E050E06FE070E086E9D3
:1038C00094E00E94A407112319F021E030E002C027
:1038D00020E030E046E050E06FE070E086E994E000
:1038E0000E94A40782E0C82ED12CD092A304C092DB
:1038F000A2041092A5041092A40408E010E00A1992
:103900001B09EE24E394F12C20E030E047E050E086
:1039100060E070E086E994E00E94BF08D092A304C2
:10392000C092A2041092A5041092A4048091DE0219
:103930009091DF021B8A1A8A1D8A1C8A1F8A1E8A9E
:103940004AE08E010F5F1F4FB8010E943B28F8012B
:1039500001900020E9F73197AF01401B510BB801EE
:10396000CE0142960E94291A4E895F896A897B8915
:1039700086E994E00E94F9188A899B890E94C729E8
:103980000E94C41E67960FB6F894DEBF0FBECDBF6F
:10399000DF91CF911F910F91FF90EF90DF90CF902B
:1039A000BF90AF9008951F920F920FB60F921124FF
:1039B0002F933F938F939F93AF93BF938091E10297
:1039C0009091E202A091E302B091E4023091E00212
:1039D00023E0230F2D3720F40196A11DB11D05C052
:1039E00026E8230F0296A11DB11D2093E0028093CB
:1039F000E1029093E202A093E302B093E40280918B
:103A0000E5029091E602A091E702B091E8020196EA
:103A1000A11DB11D8093E5029093E602A093E702F9
:103A2000B093E802BF91AF919F918F913F912F91F9
:103A30000F900FBE0F901F9018951F920F920FB608
:103A40000F9211242F933F934F935F936F937F9324
:103A50008F939F93AF93BF93EF93FF93E0912701D1
:103A6000F09128010995FF91EF91BF91AF919F913E
:103A70008F917F916F915F914F913F912F910F9017
:103A80000FBE0F901F9018951F920F920FB60F92B6
:103A900011242F933F934F935F936F937F938F9353
:103AA0009F93AF93BF93EF93FF93E0912501F09124
:103AB00026010995FF91EF91BF91AF919F918F9151
:103AC0007F916F915F914F913F912F910F900FBE1A
:103AD0000F901F9018951F920F920FB60F921124FE
:103AE0002F933F934F935F936F937F938F939F9306
:103AF000AF93BF93EF93FF93E091DB02F091DC0271
:103B00000995FF91EF91BF91AF919F918F917F9117
:103B10006F915F914F913F912F910F900FBE0F903A
:103B20001F9018951F920F920FB60F9211242F938A
:103B30003F934F935F936F937F938F939F93AF9335
:103B4000BF93EF93FF9382E00E94170BFF91EF91D9
:103B5000BF91AF919F918F917F916F915F914F91A5
:103B60003F912F910F900FBE0F901F9018951F92AD
:103B70000F920FB60F9211242F933F934F935F93A1
:103B80006F937F938F939F93AF93BF93EF93FF9325
:103B900081E00E94170BFF91EF91BF91AF919F9130
:103BA0008F917F916F915F914F913F912F910F90E6
:103BB0000FBE0F901F9018951F920F920FB60F9285
:103BC00011242F933F934F935F936F937F938F9322
:103BD0009F93AF93BF93EF93FF9380E00E94170BE7
:103BE000FF91EF91BF91AF919F918F917F916F91D5
:103BF0005F914F913F912F910F900FBE0F901F90AB
:103C00001895E5EFF4E090915B03918382836683DE
:103C1000258347708481807E482B4483CF0108959B
:103C20008091BA048093BD048091BC0490913803C4
:103C30009111FCCF91E090933803909337032FEFCD
:103C4000209336031092350310923403909333037C
:103C500090913303880F892B809333038091320333
:103C6000813061F410923203809133038093BB0062
:103C70008091BC0083FDF8CF85EC01C085EE809378
:103C8000BC00809138038130E1F3809135038111CC
:103C900003C08091350301C081E0A2E1B3E02BE3D2
:103CA00033E0F9019E2F921B981718F49D91919380
:103CB000F9CF10923A0380933903811101C0FFCFED
:103CC0008BEF93E00E9495108093BA040895FC0155
:103CD00080915B0381839481907F91609483809134
:103CE000110380FF03C0CF010C94FE0480E008950F
:103CF000CF93DF93262F8F3F19F0C1E9D1E002C0A7
:103D0000C4E0D2E040E0682F80E00E94011EBE01C6
:103D10000E947003DF91CF910C94FE04CF92DF924A
:103D2000EF92FF92CF93DF93D82F0E94CC1B6B01B1
:103D30007C0181E0D11180E080931B05C0E00E94EE
:103D4000CC1BAB01BC014C195D096E097F09403DDC
:103D500057406105710580F4C1110EC0A8950E94FD
:103D6000180690911A059770933049F7C1E0809139
:103D70001B058D13E3CFE3CF8C2FDF91CF91FF9005
:103D8000EF90DF90CF900895CF93C8E040E06C2F84
:103D900086E994E00E94D90BC150C1F7CF910895F4
:103DA000009769F0FC0101900020E9F73197AF011D
:103DB000481B590BBC0186E994E00C94F91880E08B
:103DC00090E00895CF92DF92EF92FF920F931F93AE
:103DD000CF93DF93CDB7DEB7A1970FB6F894DEBFD0
:103DE0000FBECDBF9C0140E050E019A28E010F5DD7
:103DF0001F4F8AE0C82ED12CE12CF12CCA01B90149
:103E0000A70196010E940A29605DF80162938F0163
:103E1000211531054105510589F7CF010E94D01EBA
:103E2000A1960FB6F894DEBF0FBECDBFDF91CF9144
:103E30001F910F91FF90EF90DF90CF900895CF9357
:103E40009091BA046091BB048091B904C091BC0404
:103E500021E020930F03C093370510920E031092B8
:103E60000D0360956923682B8BEF93E00E94E110AE
:103E700080910D03813208F046C090913803911172
:103E8000FCCF92E09093380391E0909337039FEF3B
:103E9000909336031092350380933403ADEEB2E075
:103EA00022E133E0F9019E2F921B981718F49D919F
:103EB0009193F9CF1092330380913303CC0FC82B29
:103EC000C093330380913203813061F41092320346
:103ED000809133038093BB008091BC0083FDF8CFB9
:103EE00085EC01C085EE8093BC0080913803823060
:103EF000E1F3809136038F3F31F0809136038032B9
:103F000011F08091360310920E0310920D0310925F
:103F10000F03CF910895EF92FF920F931F9380911B
:103F20008B048823F1F00E94CC1B00918C0410912B
:103F30008D0420918E0430918F04DC01CB01801B15
:103F4000910BA20BB30B009190041091910420915E
:103F500092043091930480179107A207B30708F0E9
:103F600010C380918005909181050E94A10B209142
:103F7000770530917805820F931F90937805809391
:103F8000770597FD0196959587952091730530915A
:103F900074052817390744F49093740580937305CA
:103FA00081E080937C050AC0821793076CF490939C
:103FB00074058093730581E080937B0566E970E06A
:103FC00080E090E00E94921BE0918005F0918105D5
:103FD00083859485238534852330310511F014863B
:103FE0001386009729F0059719F481E080937D05E9
:103FF00080917C05882309F48EC020911F013091A7
:1040000020012130310509F046C010927C05109244
:10401000C0021092BF0280911D0190911E0181305B
:10402000910539F482E090E090931E0180931D0188
:1040300072C08230910559F483E090E090931E01A4
:1040400080931D018091EF049091F00460C0833053
:10405000910559F484E090E090931E0180931D0136
:10406000809175059091760552C08430910559F480
:1040700085E090E090931E0180931D018091ED04F6
:104080009091EE0444C0059709F045C030931E019D
:1040900020931D0140C022303105E9F580911D01BA
:1040A00090911E018230910569F410927C058091F7
:1040B000EC04882319F01092EC042DC081E0809369
:1040C000EC0429C08330910589F410927C0580911D
:1040D000BD029091BE0201969093BE028093BD02F4
:1040E00084369105C0F083E690E011C084309105DC
:1040F00061F3059781F410927C058091BD02909147
:10410000BE0201968B35910510F08AE590E0909300
:10411000BE028093BD0280917B05882309F487C08D
:1041200020911F01309120012130310509F042C05A
:1041300010927B051092C0021092BF0280911D0167
:1041400090911E018130910559F485E090E09093A3
:104150001E0180931D018091ED049091EE0463C0D7
:104160008230910529F430931E0120931D015FC018
:104170008330910519F482E090E005C08430910508
:1041800059F483E090E090931E0180931D0180918B
:10419000EF049091F00447C0059709F048C084E00F
:1041A00090E090931E0180931D0180917505909180
:1041B000760539C022303105D1F580911D019091ED
:1041C0001E018230910569F410927B058091EC0408
:1041D000882319F01092EC042AC081E08093EC044B
:1041E00026C08330910581F410927B058091BD0239
:1041F0009091BE0201979093BE028093BD020297F8
:10420000B0F482E090E00FC08430910569F3059727
:1042100071F410927B058091BD029091BE020197CE
:1042200011F481E090E09093BE028093BD028091F2
:104230007D05882309F4B0C010927D058091EA04C1
:104240009091EB04049789F084E090E09093EB0464
:104250008093EA0481E090E09093200180931F0115
:1042600090931E0180931D0197C080911F01909132
:1042700020018130910551F580911D0190911E0121
:1042800081309105E1F41092EB041092EA04409120
:10429000ED045091EE0428EE33E0429FC001439FAD
:1042A000900D529F900D1124A0E0B0E080939004F7
:1042B00090939104A0939204B09393046DC00297DD
:1042C000049708F069C082E090E062C0029709F0AC
:1042D00063C080911D0190911E0183309105D1F042
:1042E00044F4029709F052C06091EC048EE991E029
:1042F0004BC084309105C9F0059709F047C0609123
:10430000BD028091BE026093ED048093EE048FE9BC
:1043100091E03AC06091BD028091BE026093EF04CB
:104320008093F00480EA91E02FC08091BD029091CB
:10433000BE026091EF047091F004681B790B7093DA
:10434000F2046093F104909376058093750581EAF9
:1043500091E00E948D28209175053091760580911D
:104360002C048F71806680932C0480912B048770BD
:10437000806180932B043093300420932F0488E2D3
:1043800094E00E94671E02C00E948D2881E090E0A8
:104390009093200180931F018091EA049091EB0497
:1043A0008230910509F473C074F40097A1F001976D
:1043B00009F0F7C080917E0590917F059093BE0231
:1043C0008093BD02D8C08330910509F493C004974F
:1043D00009F4D1C0E6C02091DE023091DF02809165
:1043E0007505909176058217930728F58091EC0466
:1043F0008823F1F083E090E09093EB048093EA044B
:1044000061E088E00E94011B8AEF90E0A0E0B0E04C
:104410008093900490939104A0939204B09393049A
:1044200061E089E494E00E9464030E94671E07C073
:1044300060E081E002C060E080E00E94D81B209133
:10444000DE023091DF028091790590917A05821722
:10445000930709F4A6C030937A05209379058091DB
:104460000B048F71806680930B0480910A0487701F
:10447000806180930A0430930F0420930E0487E038
:1044800094E01F910F91FF90EF900C94671E60E0F5
:1044900070E086E994E00E94080BEE24E394F12C8E
:1044A00008E010E020E130E040E050E060E070E043
:1044B00086E994E00E94600807E010E02FE030E019
:1044C00040E050E060E070E086E994E00E94BF08C0
:1044D00000E010E02FE030E047E050E060E070E006
:1044E00086E994E00E94BF081F910F91FF90EF9022
:1044F0000C94C41E8091DE029091DF02892B31F56D
:104500001092EB041092EA0460E088E00E94011B24
:104510004091ED045091EE0428EE33E0429FC0013B
:10452000439F900D529F900D1124A0E0B0E0809326
:10453000900490939104A0939204B093930460E04C
:1045400089E494E00E9464030E94671E2091DE02C9
:104550003091DF02809175059091760561E08217B8
:10456000930710F481E001C080E01F910F91FF904C
:10457000EF900C94D81B1F910F91FF90EF900C942B
:10458000CF150E94CC1B60938C0470938D04809394
:104590008E0490938F04E0919404F0919504099512
:1045A000E0CC1F910F91FF90EF9008950F931F9310
:1045B000CF93DF938091BE04811159C081E0809335
:1045C000BE0478940E94101E08EC14E0C0E0D0E015
:1045D0002C2FD801ED91FD918D013097F1F1DE0185
:1045E000A754BB4F17968C91813031F0B0F08230D8
:1045F00049F08330E9F031C08091BA049091BD0454
:10460000892723C08091BD0490E00C2E02C09595AF
:1046100087950A94E2F780FF20C08091BA0490E069
:1046200002C0959587952A95E2F780FD16C01DC0BA
:104630008091BD0490E00C2E02C0959587950A9458
:10464000E2F780FD0AC08091BA0490E002C095951F
:1046500087952A95E2F780FD08C02196C830D105DC
:1046600009F0B6CF1092BE0402C00995F6CFDF91D3
:10467000CF911F910F910895CF92DF92EF92FF9209
:104680000F931F93CF93DF93C0918005D091810545
:104690000E94CC1B6B017C018E85882359F0898593
:1046A0009A8502979A87898789859A8597FF02C09C
:1046B0001A86198688810E94D81A2B8130E08217C9
:1046C000930711F413E001C010E089810E94D81A09
:1046D0002B8130E08217930711F481E018278E8137
:1046E0009F81811B80FF12C0212F110F330B3F834D
:1046F0002E832C813D818270082E000C990B01972E
:10470000820F931F9D838C8381E001C080E09E8592
:10471000992361F0882351F089859A85883E9B40D2
:1047200028F489859A8549969A8789878A8188237A
:1047300009F470C040918505509186056091870508
:104740007091880597018601041B150B260B370B0A
:104750000A3011052105310508F45CC0C0928505B9
:10476000D0928605E0928705F09288050E94D81ABB
:104770002B8130E08217930781F48091830590911B
:10478000840501969093840580938305893791056C
:1047900020F083E090E09C878B878A810E94D81A62
:1047A0003B8121E0232730E08217930731F5809188
:1047B000830590918405892BE1F08B859C85039777
:1047C00019F484E090E008C080918205823048F0BE
:1047D0008C3378F486E090E09C878B87109282057A
:1047E00008C08D85811102C081E001C08CE38093F7
:1047F000820510928405109283058091820588239A
:1048000049F0825080938205811104C085E090E0D8
:104810009C878B87DF91CF911F910F91FF90EF9035
:10482000DF90CF9008952F923F924F925F926F92B8
:104830007F928F929F92AF92BF92CF92DF92EF9230
:10484000FF920F931F93CF93DF9300D000D000D03F
:10485000CDB7DEB781E08093DD021A82198213E0C2
:1048600000E06BE0462E512C73E2672E712CE8EECF
:104870008E2EE3E09E2EA12CB12C0E946D1B6B01AD
:104880007C01E091E204F091E30490818091DC04EA
:10489000892B8083E091DE04F091DF049081809188
:1048A000DC04809589238083C2010197F1F7E091B0
:1048B000DE04F091DF0490818091DC04892B8083F9
:1048C000C3010197F1F7E091DE04F091DF049081DC
:1048D0008091DC04809589238083E091E204F0914B
:1048E000E30490818091DC04809589238083E091AA
:1048F000E004F091E10490818091DD04892309F0C6
:10490000A2C00E946D1B2091E4043091E50440E0B8
:1049100050E02855394E4F4F5F4FDC01CB01820FDD
:10492000931FA41FB51F8093E6049093E704A09300
:10493000E804B093E904E091E004F091E10490818F
:104940008091DD04892381F40E946D1B2091E6048F
:104950003091E7044091E8045091E90426173707A5
:104960004807590740F76FC00E946D1B2091E4046F
:104970003091E504DC01CB01820F931FA11DB11D15
:104980008093E6049093E704A093E804B093E904CD
:10499000E091E004F091E10490818091DD048923AD
:1049A00081F00E946D1B2091E6043091E704409154
:1049B000E8045091E904261737074807590740F7DC
:1049C00042C00E946D1B2091E4043091E504A901CE
:1049D000455051092091E6043091E704FA01E21BA9
:1049E000F30B6E0F7F1F6115710569F1011102C094
:1049F00040E01FC0402F842F90E0FC013197EE0F64
:104A0000FF1F21E030E02C0F3D1FE20FF31F20813C
:104A100031812617370768F4880F991FE1E0F0E02D
:104A2000EC0FFD1FE80FF91F31832083415019F768
:104A3000DFCFFE013196E40FF11DE40FF11D71830C
:104A400060830F5F01C01150011738F50E946D1B84
:104A5000DC01CB018C199D09AE09BF09883491474F
:104A6000A105B10508F009CF0E946D1B48E4C40EF2
:104A700041E7D41EE11CF11CA7019601261B370B50
:104A8000480B590BCA01B901A50194010E940A29DA
:104A9000CA01B9010E94921BF0CE1E7FFE01E10FF8
:104AA000F11D818192810FB6F894DEBF0FBECDBF9C
:104AB00069E370E00E94E22870937F0560937E05B1
:104AC0008091EF049091F0048617970728F41092D4
:104AD000DF021092DE0206C0861B970B9093DF0266
:104AE0008093DE0226960FB6F894DEBF0FBECDBFD0
:104AF000DF91CF911F910F91FF90EF90DF90CF90BA
:104B0000BF90AF909F908F907F906F905F904F90ED
:104B10003F902F900895CF93DF93FC011082118274
:104B20001282148215821682DC0117968AE1ED0149
:104B300019928A95E9F782E08383DF91CF910895F6
:104B4000789484B5826084BD84B5816084BD85B568
:104B5000826085BD85B5816085BD80916E00816074
:104B600080936E001092810080918100826080931A
:104B7000810080918100816080938100809180001C
:104B80008160809380008091B10084608093B10047
:104B90008091B00081608093B00080917A00846041
:104BA00080937A0080917A00826080937A0080916D
:104BB0007A00816080937A0080917A008068809387
:104BC0007A001092C100A89580E090E0892B11F046
:104BD0000E940000E0916E03F0916F0382E08083F9
:104BE000E0916A03F0916B031082E0916C03F09105
:104BF0006D0380E1808310927603E0917203F0915F
:104C0000730386E08083E0917003F09171038081EB
:104C100080618083E0917003F091710380818860EE
:104C20008083E0917003F0917103808180688083BC
:104C3000E0917003F091710380818F7D808380917A
:104C400011038D7F809311030E941E0341E050E009
:104C500063E071E080E193E00E9465286FEF81E0FE
:104C600090E00E948D288091CC028F788093CC02B6
:104C70001092C2021092C10289E191E00E943B06AB
:104C80008FE695E090930F0280930E020E94CC1B5A
:104C90000E94CC1B0E941806A8958091CB0282FF2F
:104CA000F7CF0E944A16A895A8950E9418060E9460
:104CB0008B1F0E94F519F8CFAF92BF92CF92DF926F
:104CC000EF92FF920F931F93CF93DF93EEE5F3E004
:104CD0001382128288EEC82E83E0D82EE12CF12CAC
:104CE000C482D582E682F78289E391E09183808352
:104CF00085EC90E09587848784EC90E097878687A1
:104D000080EC90E0918B808B81EC90E0938B828B98
:104D100082EC90E0958B848B86EC90E0978B868B71
:104D2000118E128E138E148EEBEFF3E0138212822B
:104D3000C482D582E682F7828BE491E091838083FE
:104D400086E195E00E948B2585EF94E00E948B25FB
:104D500086E090E09093F4048093F304EAEEF4E0AC
:104D6000128281E090E0948383838CE190E09683CB
:104D7000858328E030E030872783E2EBF5E0E4919B
:104D8000A8EDB4E01496EC931497E1EBF5E0E49110
:104D90001596EC9315978EE995E0FC014491E42F6C
:104DA000F0E0EE0FFF1FE057FA4F45915491179630
:104DB0005C934E931697EDE9F5E0E491F0E0EE0F89
:104DC000FF1FEA57FA4F4591549119965C934E9301
:104DD0001897FC018491E82FF0E0EE0FFF1FE458D4
:104DE000FA4F859194911B969C938E931A978DE719
:104DF00096E11D969C938E931C97E9EBF4E010824C
:104E000011821282138214821582168217821086F2
:104E1000118612861386148615861686108A1786C2
:104E2000128A118A148A138A168A158A108E178A92
:104E3000128E118E148E138E168E158EE8E3F5E009
:104E400011E0108F128E118E8DEC9CECACECBDE35A
:104E500087A390A7A1A7B2A780E090E0A0EAB0E462
:104E6000838F948FA58FB68FC6E9D4E01B821A82F8
:104E700080E190E09D838C833F832E839987888790
:104E80003B872A871D8A1D861C861F861E861C8BD3
:104E90008FEF9FEF9B8B8A8B998B888B1E8B1F8A42
:104EA000198E188E8DE591E09983888387E08A8F2B
:104EB00002E00E8F80E18D8F80E190E00E94322928
:104EC0009C8F8B8F82E090E00E9432295C019AA334
:104ED00089A382E090E00E94322998A38F8FFC0181
:104EE0001082F5011082FC011183F50111820E94EC
:104EF000F90E61E08A8D0E94311B60E070E0CE0106
:104F00000E94080B40E06FE0CE010E94D90B47E001
:104F10006BE0CE010E94D90B40E069E0CE010E9417
:104F2000D90B41E06CE0CE010E94D90B47E06AE06A
:104F3000CE010E94D90BEBE8F4E0108311821282BB
:104F400013821482C582D682E782F08683E194E2DE
:104F5000928781878AE694E00E948B25EAE6F4E056
:104F60000683058389E494E00E948B25E9E4F4E05C
:104F70001683058388E294E00E948B25E8E2F4E042
:104F800083E086838FE2858387E094E00E948B250F
:104F9000E7E0F4E084E086838DE08583DF91CF91C4
:104FA0001F910F91FF90EF90DF90CF90BF90AF9047
:104FB0000895FC0188279927E89421912032E9F38C
:104FC000293010F02E30C8F32B3241F02D3239F455
:104FD000689404C00E943328820F911D21912053B0
:104FE0002A30C0F31EF4909581959F4F08951F932A
:104FF000FC0199278827BC01E89411911032E9F34C
:10500000193010F01E30C8F31B3251F01D3249F434
:10501000689406C00E941E28610F711D811D911D9C
:10502000119110531A30B0F33EF49095809570951D
:1050300061957F4F8F4F9F4F1F910895592F482F94
:10504000372F262F660F771F881F991F660F771F30
:10505000881F991F620F731F841F951F660F771F8C
:10506000881F991F08957AE0979F902D879F802D24
:10507000910D11240895BB27FB015527AA27880FFE
:10508000991FAA1FA41710F0A41B83955051B9F7BC
:10509000A05DAA3308F0A95DA193009779F7B1113B
:1050A000B1931192CB010C945528DC01FC01672FC0
:1050B00071917723E1F7329704C07C916D937083EF
:1050C0006291AE17BF07C8F30895DC01CB01FC0164
:1050D000F999FECF06C0F2BDE1BDF89A319600B451
:1050E0000D9241505040B8F70895F999FECF92BD06
:1050F00081BDF89A992780B50895DC01A40FB51FEA
:105100004150504048F0CB01840F951F2E910E94D2
:105110008E2841505040D0F70895262FF999FECFA0
:1051200092BD81BDF89A019700B4021639F01FBAFA
:1051300020BD0FB6F894FA9AF99A0FBE08952F92EF
:105140003F924F925F926F927F928F929F92AF9217
:10515000BF92CF92DF92EF92FF920F931F93CF9364
:10516000DF93CDB7DEB7CA1BDB0B0FB6F894DEBFFB
:105170000FBECDBF09942A88398848885F846E8421
:105180007D848C849B84AA84B984C884DF80EE806B
:10519000FD800C811B81AA81B981CE0FD11D0FB674
:1051A000F894DEBF0FBECDBFED010895991B79E0E5
:1051B00004C0991F961708F0961B881F7A95C9F7A7
:1051C00080950895AA1BBB1B51E107C0AA1FBB1FF6
:1051D000A617B70710F0A61BB70B881F991F5A9583
:1051E000A9F780959095BC01CD01089597FB072EF6
:1051F00016F4009407D077FD09D00E94E22807FC3E
:1052000005D03EF4909581959F4F089570956195D6
:105210007F4F0895A1E21A2EAA1BBB1BFD010DC0F2
:10522000AA1FBB1FEE1FFF1FA217B307E407F50756
:1052300020F0A21BB30BE40BF50B661F771F881F32
:10524000991F1A9469F760957095809590959B01C8
:10525000AC01BD01CF010895EE0FFF1F0590F49141
:10526000E02D0994CF93DF938230910510F482E012
:1052700090E0E0918B05F0918C0520E030E0C0E0FB
:10528000D0E0309711F14081518148175907C0F0A3
:105290004817590761F482819381209719F09B8305
:1052A0008A832BC090938C0580938B0526C0211593
:1052B000310519F04217530718F49A01BE01DF01B6
:1052C000EF010280F381E02DDCCF2115310509F1DA
:1052D000281B390B2430310590F412968D919C9146
:1052E00013976115710521F0FB019383828304C03C
:1052F00090938C0580938B05FD01329644C0FD018F
:10530000E20FF31F81939193225031092D933C9327
:105310003AC02091890530918A05232B41F42091D0
:105320002B0130912C0130938A052093890520911F
:10533000290130912A012115310541F42DB73EB7DD
:1053400040912D0150912E01241B350BE0918905D0
:10535000F0918A05E217F307A0F42E1B3F0B2817E4
:10536000390778F0AC014E5F5F4F2417350748F0DE
:105370004E0F5F1F50938A05409389058193919347
:1053800002C0E0E0F0E0CF01DF91CF9108950F93EC
:105390001F93CF93DF93009709F48CC0FC013297E1
:1053A0001382128200918B0510918C050115110555
:1053B00081F420813181820F931F209189053091E2
:1053C0008A052817390779F5F0938A05E09389054E
:1053D00071C0D80140E050E0AE17BF0750F41296FC
:1053E0002D913C911397AD012115310509F1D9019A
:1053F000F3CF9D01DA013383228360817181860FAF
:10540000971F8217930769F4EC0128813981260FD1
:10541000371F2E5F3F4F318320838A819B81938387
:105420008283452B29F4F0938C05E0938B0542C0D1
:105430001396FC93EE931297ED01499159919E01B9
:10544000240F351FE217F30771F480819181840FD7
:10545000951F029611969C938E9382819381139649
:105460009C938E931297E0E0F0E0D80112968D9114
:105470009C911397009719F0F8018C01F6CF8D914C
:105480009C9198012E5F3F4F820F931F20918905B9
:1054900030918A052817390769F4309729F410925A
:1054A0008C0510928B0502C01382128210938A051C
:1054B00000938905DF91CF911F910F910895A0E08E
:1054C000B0E0E5E6FAE20C94A328EC01009721F4A1
:1054D000CB010E943229B8C0FC01E60FF71F9C01E6
:1054E00022503109E217F30708F4ACC0D9010D913D
:1054F0001C91119706171707B0F00530110508F435
:105500009FC0C80104978617970708F499C00250F6
:105510001109061B170B019311936D937C93CF0117
:105520000E94C7298DC05B01A01AB10A4C01800EF0
:10553000911EA0918B05B0918C0540E050E0E12CCC
:10554000F12C109709F44AC0A815B905D1F56D9052
:105550007C901197630182E0C80ED11CCA14DB0451
:1055600080F1A3014A195B096A0182E0C80ED11CCF
:105570001296BC9012971396AC91B5E0CB16D1045D
:1055800040F0B282A38351834083D9016D937C9311
:105590000AC00E5F1F4FC301800F911FF901918355
:1055A0008083EB2DFA2FE114F10431F0D70113962B
:1055B000FC93EE93129744C0F0938C05E0938B0517
:1055C0003FC08D919C9111974817590708F4AC0181
:1055D0007D0112960D90BC91A02DB3CF80918905CD
:1055E00090918A0588159905E1F446175707C8F484
:1055F0008091290190912A01009741F48DB79EB7BF
:1056000040912D0150912E01841B950BE817F9074D
:10561000C8F4F0938A05E0938905F90171836083EA
:105620000FC0CB010E9432297C01009759F0A801DC
:10563000BE010E942E2BCE010E94C729C70104C0C3
:10564000CE0102C080E090E0CDB7DEB7EEE00C9472
:10565000BF2881E090E0F8940C94542BFB01DC010E
:1056600002C001900D9241505040D8F70895DC01DE
:1056700001C06D9341505040E0F70895FB01DC01FB
:1056800001900D920020E1F70895FB01DC014150EB
:10569000504048F001900D920020C9F701C01D92C2
:0C56A00041505040E0F70895F894FFCF0F
:1056AC00FFFFFF00FCE1A8A8B805C7069D05910601
:1056BC000C038706D105F106FF380323070100010F
:1056CC000032046706281A281A00008D0580006B2A
:1056DC00006C006D00000000008C19F9182419D31F
:1056EC001955193319471900000000E110B11011B8
:1056FC00118510A9109510861000000000230EF9DA
:10570C001811111011A4075D0A560A2E0A4A0A3EF6
:10571C000A5E0A2D0A5E084808E809A4095409081B
:10572C000BBF08600801003E0050756D7000312EF3
:10573C0030004F4B00312E2077796A7363696520F6
:10574C007A206D656E7500322E207472796220702D
:10575C007261637900332E206D696E20706F7A69E7
:10576C006F6D2077207A62696F726E696B75003489
:10577C002E206D617820706F7A696F6D2077207A9A
:10578C0062696F726E696B7500352E20706F6D6972
:10579C00617220636F20696C6520736563004175CD
:0A57AC00004D6E00322E312E310048
:107E0000112484B714BE81FFF0D085E080938100F7
:107E100082E08093C00088E18093C10086E0809377
:107E2000C20080E18093C4008EE0C9D0259A86E02C
:107E300020E33CEF91E0309385002093840096BBD3
:107E4000B09BFECF1D9AA8958150A9F7CC24DD24C4
:107E500088248394B5E0AB2EA1E19A2EF3E0BF2EE7
:107E6000A2D0813461F49FD0082FAFD0023811F036
:107E7000013811F484E001C083E08DD089C08234E0
:107E800011F484E103C0853419F485E0A6D080C0E4
:107E9000853579F488D0E82EFF2485D0082F10E0AE
:107EA000102F00270E291F29000F111F8ED06801E7
:107EB0006FC0863521F484E090D080E0DECF843638
:107EC00009F040C070D06FD0082F6DD080E0C81688
:107ED00080E7D80618F4F601B7BEE895C0E0D1E017
:107EE00062D089930C17E1F7F0E0CF16F0E7DF06D8
:107EF00018F0F601B7BEE89568D007B600FCFDCFD4
:107F0000A601A0E0B1E02C9130E011968C91119780
:107F100090E0982F8827822B932B1296FA010C0160
:107F200087BEE89511244E5F5F4FF1E0A038BF0790
:107F300051F7F601A7BEE89507B600FCFDCF97BE46
:107F4000E89526C08437B1F42ED02DD0F82E2BD052
:107F50003CD0F601EF2C8F010F5F1F4F84911BD097
:107F6000EA94F801C1F70894C11CD11CFA94CF0C13
:107F7000D11C0EC0853739F428D08EE10CD085E9AC
:107F80000AD08FE07ACF813511F488E018D01DD067
:107F900080E101D065CF982F8091C00085FFFCCF94
:107FA0009093C60008958091C00087FFFCCF809118
:107FB000C00084FD01C0A8958091C6000895E0E648
:107FC000F0E098E1908380830895EDDF803219F02E
:107FD00088E0F5DFFFCF84E1DECF1F93182FE3DFCA
:107FE0001150E9F7F2DF1F91089580E0E8DFEE27F6
:047FF000FF270994CA
:027FFE00040479
:0400000300007E007B
:00000001FF