:100000000C9462000C944E020C9427020C94E402AF
:100010000C94BF020C949A020C94A50A0C948A00CA
:100020000C948A000C948A000C948A000C948A0028
:100030000C948A000C9475020C948A000C948A002B
:100040000C94DD010C948A000C94AD0F0C94870F76
:100050000C948A000C948A000C948A000C948A00F8
:100060000C9409030C948A00000000002300260071
:10007000290000000000240027002A0000000000E2
:10008000250028002B0004040404040404040202D4
:100090000202020203030303030301020408102007
:1000A0004080010204081020010204081020000012
:1000B0000008000201000003040700000000000027
:1000C00000003D1111241FBECFEFD8E0DEBFCDBF31
:1000D00024E0A4E7B1E001C01D92A035B207E1F72A
:1000E00011E0A0E0B1E0E2ECF6E202C005900D9272
:1000F000A437B107D9F710E0C2E6D0E004C02197D9
:10010000FE010E944513C136D107C9F70E94A11014
:100110000C945F130C940000089590E0FC01EE0F26
:10012000FF1FE459FF4FA591B4912C91FC01E05EB3
:10013000FD4F30812083880F991FFC01EB5DFE4F3E
:100140000190F081E02D8081089585ED8093BC00C1
:100150008091BC0084FDFCCF10925502089540911F
:10016000CB01262F30E0240F311D21323105DCF484
:10017000209155022430C9F4FC0180E090E08617FC
:1001800058F43091CB012191DC01A755BE4FA30F4C
:10019000B11D2C930196F3CF8091CB01680F609332
:1001A000CB0180E0089581E0089582E008950895EC
:1001B000E091A8018091A701E81730F4F0E0E95739
:1001C000FE4F808190E008958FEF9FEF089590910A
:1001D000A8018091A701981750F4E92FF0E0E957A2
:1001E000FE4F208130E09F5F9093A80102C02FEF67
:1001F0003FEFC90108958091A70190E02091A801E7
:10020000821B91090895CF92DF92EF92FF920F9394
:100210001F93CF93DF937C01262F972F8A01809124
:100220007802882391F0C62FD72F6E01C40ED51EF9
:10023000CC15DD0571F06991D701ED91FC9101902C
:10024000F081E02DC7010995F3CF642F822F0E9422
:10025000AF00C801DF91CF911F910F91FF90EF90F8
:10026000DF90CF900895CF93DF931F92CDB7DEB785
:100270006983209178022223D1F0209176022032E6
:1002800040F021E030E0FC013383228380E090E005
:1002900015C080917702E82FF0E0EA5AFD4F99816E
:1002A00090838F5F809377028093760205C061E030
:1002B000CE0101960E94AF0081E090E00F90DF91A7
:1002C000CF910895089580E090E008950895CF9328
:1002D000DF93FC0125812230E1F5EC010E94570DEE
:1002E0002E812D5F3091A803882341F081E090E0BA
:1002F00001C0880F2A95EAF7832B08C081E090E0BF
:1003000001C0880F2A95EAF7809583238093A8037C
:100310000E94A70ECE010E94570D882321F08091E4
:10032000A803846003C08091A8038B7F8093A803F7
:100330000E94A70ECE010E94570D61E0811101C0FD
:1003400060E08E8190E083569E4FDF91CF910C94B8
:100350003313DF91CF9108953FB7F894809128022D
:1003600090912902A0912A02B0912B0226B5A89B58
:1003700005C02F3F19F00196A11DB11D3FBFBA2F37
:10038000A92F982F8827820F911DA11DB11DBC0197
:10039000CD0142E0660F771F881F991F4A95D1F75C
:1003A00008952FB7F89460912402709125028091EE
:1003B0002602909127022FBF08951F920F920FB629
:1003C0000F9211242F933F938F939F93AF93BF93DB
:1003D0008091240290912502A0912602B0912702DB
:1003E0003091230223E0230F2D3720F40196A11D25
:1003F000B11D05C026E8230F0296A11DB11D209353
:1004000023028093240290932502A0932602B093A6
:1004100027028091280290912902A0912A02B0918E
:100420002B020196A11DB11D8093280290932902F1
:10043000A0932A02B0932B02BF91AF919F918F910D
:100440003F912F910F900FBE0F901F9018951F9204
:100450000F920FB60F9211242F933F934F935F93F8
:100460006F937F938F939F93AF93BF93EF93FF937C
:10047000E0910601F09107010995FF91EF91BF917D
:10048000AF919F918F917F916F915F914F913F912C
:100490002F910F900FBE0F901F9018951F920F92E3
:1004A0000FB60F9211242F933F934F935F936F9347
:1004B0007F938F939F93AF93BF93EF93FF93E091BD
:1004C0000401F09105010995FF91EF91BF91AF9162
:1004D0009F918F917F916F915F914F913F912F915C
:1004E0000F900FBE0F901F9018951F920F920FB68E
:1004F0000F9211242F933F934F935F936F937F93AA
:100500008F939F93AF93BF93EF93FF93E0E0F0E05F
:100510000995FF91EF91BF91AF919F918F917F913D
:100520006F915F914F913F912F910F900FBE0F9060
:100530001F9018951F920F920FB60F9211242F93B0
:100540003F934F935F936F937F938F939F93AF935B
:10055000BF93EF93FF9382E00E948D00FF91EF9194
:10056000BF91AF919F918F917F916F915F914F91CB
:100570003F912F910F900FBE0F901F9018951F92D3
:100580000F920FB60F9211242F933F934F935F93C7
:100590006F937F938F939F93AF93BF93EF93FF934B
:1005A00081E00E948D00FF91EF91BF91AF919F91EB
:1005B0008F917F916F915F914F913F912F910F900C
:1005C0000FBE0F901F9018951F920F920FB60F92AB
:1005D00011242F933F934F935F936F937F938F9348
:1005E0009F93AF93BF93EF93FF9380E00E948D00A2
:1005F000FF91EF91BF91AF919F918F917F916F91FB
:100600005F914F913F912F910F900FBE0F901F90D0
:1006100018951F920F920FB60F9211242F933F93AC
:100620004F935F936F937F938F939F93AF93BF93FA
:10063000EF93FF938091B900887F803609F49CC0C6
:1006400068F5883209F45BC090F4803109F454C035
:1006500038F4882309F4F6C0883009F44DC0F6C098
:10066000883109F44CC0803209F45DC0EFC0803499
:1006700009F468C048F4803309F455C0883309F0A0
:10068000E5C080935302D8C0803509F44FC0883547
:1006900009F45DC0883409F0D9C0D6C0883909F49E
:1006A000C7C0A8F4883709F467C038F4883609F45D
:1006B00063C0803709F460C0C9C0883809F4B8C085
:1006C000803909F45FC0803809F0C0C05BC0803B4E
:1006D00009F486C038F4803A09F466C0883A09F40F
:1006E0007FC0B4C0803C09F4A7C0883C09F4A4C012
:1006F000883B09F48AC0AAC08091300210C0909152
:10070000520280915102981770F5E091520281E0F7
:100710008E0F80935202F0E0EF5CFD4F808180935A
:10072000BB0085EC86C0809353028EC0E0915202DC
:1007300081E08E0F809352028091BB00F0E0EF5C6D
:10074000FD4F808390915202809151026EC0E091E2
:10075000520281E08E0F809352028091BB00F0E044
:10076000EF5CFD4F80838091540281116DC081E068
:1007700080932F0284EA61C083E080935502109237
:10078000EF01CFCF8091EF01803208F051C0E091AE
:10079000EF0181E08E0F8093EF018091BB00F0E0CC
:1007A000E153FE4F8083BDCF85EC8093BC00109257
:1007B00055028091EF01803230F4E091EF01F0E0DA
:1007C000E153FE4F10826091EF0170E0E091CD01A6
:1007D000F091CE018FEC91E009951092EF0136C0B7
:1007E00084E0809355021092CC011092CB01E091ED
:1007F000C901F091CA0109958091CB01811105C011
:1008000081E08093CB011092A901E091CC0181E0BD
:100810008E0F8093CC01F0E0E755FE4F80818093EE
:10082000BB009091CC018091CB01981708F479CF4F
:1008300085E88093BC000AC085EC8093BC001092D0
:10084000550204C0109253020E94A500FF91EF913F
:10085000BF91AF919F918F917F916F915F914F91D8
:100860003F912F910F900FBE0F901F9018954F92B0
:100870005F926F927F928F929F92AF92BF92CF9230
:10088000DF92EF92FF920F931F93CF93DF930E941B
:10089000D101009183011091840120918501309153
:1008A0008601DC01CB01801B910BA20BB30B813ABB
:1008B0009B4BAD40B10590F00E94D1016093830144
:1008C0007093840180938501909386010E94680D46
:1008D000811104C080E091E00E94130986E0B82EE7
:1008E00090E0E92E90E0F92E20E0C22E20E0D22EFA
:1008F00031E2A32E21E041E060E070E087E10E9458
:100900005F0780FD99C2BA94BB2009F495C2E11437
:10091000F10421F081E090E00E94000021E041E03C
:1009200060E070E080E60E945F07082F813220F0CF
:1009300082EE0E94C60700E021E0402F68EE73E0DF
:1009400081E60E945F0760E487E20E949107909130
:10095000EB03192F1695169516951A3108F019E123
:1009600092FD03C087E0810F01C080E27090EC032C
:10097000C091ED03D091E9039090E8038090EA03E1
:10098000081739F0E114F10409F4B4CF8CE690E0D3
:1009900009C09370923049F0E114F10409F4AACF30
:1009A0008DE690E00E940000A5CF80917A02981613
:1009B00051F080917902D81731F08D2F90E0692D98
:1009C00003960E943313072D077080918101806880
:1009D000809381018091790288124DC02091EB03B0
:1009E000822F8695869586958A3108F089E138E0D0
:1009F000839FC00111242770822B8093EB03E12F8A
:100A0000F0E0E851FC4F17828091EC0383FF17C0A0
:100A1000E8EEF3E0A7ECB3E08A2D01900D928A9501
:100A2000E1F78091CB03877F80618093CB03809235
:100A3000C803D093C90387EC93E00E946E088091AD
:100A4000EC0384FD13C0033089F49091ED0321EF92
:100A5000290F233008F0BBC04DCF913009F45DC1A0
:100A60009A3009F479C19C3109F444CF88EE93E0BF
:100A70000E9467013FCF2FEF82128FC0033009F031
:100A80007EC08091800182FF5DC0C73009F05AC0EE
:100A900080917A02D81709F42DCF0E94D1010091DC
:100AA0007C0110917D0120917E0130917F01DC015C
:100AB000CB01801B910BA20BB30B80319742A10598
:100AC000B10518F18091800183FD14CF90917902D6
:100AD00091116AC11092820180918001877F809379
:100AE0008001C0918201CF3F09F404CF0E94D1015F
:100AF00060937C0170937D0180937E0190937F01D0
:100B000080917B02C813C0937B020E94D101609345
:100B10007C0170937D0180937E0190937F010E9400
:100B2000D1017370882799270E946710C0917B02BA
:100B300028E043E06FEF8D2F0E94980E6C2F0E94EB
:100B4000820C42C0C83009F4D5CEC431C1F48091C2
:100B50007A02981214C00E94D101737088279927D5
:100B60000E946710C0917A0225E143E06FEF8D2F5C
:100B70000E94980E6C2F0E94820C0E94CC078091DC
:100B80007A029812B7CE80917902D81709F450C131
:100B90008091800182FD40C14BC18091800182FF24
:100BA000A9CE033079F4C851C23060F488EE93E0E6
:100BB0000E94570D8E3F31F061E0680F88EE93E0A0
:100BC0000E94820C88EE93E00E94CC0793CEC43042
:100BD00039F488EE93E00E94570D0E94C7088ACE30
:100BE000C830D9F4C0918001C0FF84CE88EE93E074
:100BF0000E94570D8F3F09F47DCE8F5F8F3F09F420
:100C000079CE90917B02891708F074CEC1FD72CE27
:100C100080937B02D0937A026DCEC83141F429E1F2
:100C200043E06FEF8D2F0E94980E61E088CFC931AD
:100C300071F48091800183FF5DCE877F8093800176
:100C400088EE93E00E94570D8093820153CE20914D
:100C5000E9032111A5C09D3099F480E090E0892B33
:100C600021F08BE090E00E94000098E088E10FB650
:100C7000F894A895809360000FBE90936000FFCF1A
:100C80009B31A9F488EE93E00E94570D91E0811109
:100C900001C090E08091750190FB80F9809375010F
:100CA000E114F10409F426CE8AE090E07BCE963080
:100CB00099F49091EF0381E0992319F09D3409F0A4
:100CC00080E08093740141E050E063E071E084E7EC
:100CD00091E00E9423130ECE933119F40E94E70C89
:100CE00009CE923109F0B9CE0E9400092B013C01D6
:100CF00026E143E06FEF80E00E94980EFC018481C2
:100D00008F71806A84838381877080628383478246
:100D1000508661867286CF0140C0C114D10409F4A7
:100D2000E9CD829586958770853049F46091EF030F
:100D30007091F0038091F1039091F2030AC0811148
:100D400005C08FEE93E00E94091203C060E070E0DE
:100D5000CB010E940000CECD8091EF03833409F0D7
:100D6000C9CDE114F10421F08DE090E00E94000073
:100D7000C3E0D0E06FEFCE010E9433132196C33061
:100D800081E0D807B9F72AE043E06FEF80E00E94E6
:100D9000980E6FE471E00E948E0C0E946E08AACD3E
:100DA0009A3109F063CEA6CD88608093800180924D
:100DB000820128E143E06FEF80E00E94980E61E03D
:100DC0000E94820C0E94CC070E94D1012B013C01A1
:100DD0001092ED03C0E00E94D101DC01CB01841927
:100DE0009509A609B709803D9740A105B10508F00E
:100DF00073CEC11171CE8091800184FD0E943704B1
:100E0000A8958091EC038770833029F7C1E0809129
:100E1000ED038931F9F6DFCF88EE93E00E94CC072D
:100E2000033009F467CD80917A02981263CD1ECE0B
:100E3000033009F01BCE5ECDDF91CF911F910F9152
:100E4000FF90EF90DF90CF90BF90AF909F908F90EA
:100E50007F906F905F904F900895809180018460A3
:100E60008093800180918101807880938101E0915D
:100E70002D02F0912E02309709F009940895E0E8D0
:100E8000F1E08081877F8F7E808310927C011092B9
:100E90007D0110927E0110927F010E94D10160932A
:100EA000830170938401809385019093860143E0D0
:100EB00050E060E070E089E792E00C940B1391E55C
:100EC0009CBD91E09DBD2A98E3E2F0E03197F1F7F7
:100ED0008EBD00000DB407FEFDCF8EB5FB019FEF68
:100EE0004150C8F0222361F09EBD00000DB407FE02
:100EF000FDCF8EB56115710599F380833196F0CFE2
:100F0000DF01119680818EBD00000DB407FEFDCF7C
:100F10008EB5FD01E5CF2A9AE3E2F0E03197F1F7D3
:100F20000895CF93DF931F92CDB7DEB7698320E09A
:100F300041E0BE016F5F7F4F0E945F070F90DF911E
:100F4000CF91089580918101982F9077903759F033
:100F5000982F92959F709F5F97709295907F8F7852
:100F6000892B80938101809180018B7F8F7E80937C
:100F7000800180E090E0892B21F087E690E00E94DC
:100F8000000029986CE080E20C94910720E040E09A
:100F900060E070E00C945F070F931F93CF93DF9393
:100FA0008C01FC01C2818091800180FF04C0CF3F91
:100FB00009F05DC014C0C11103C0C0917A020FC016
:100FC000CF3F69F08C2F90E003960E941B138F3F58
:100FD00029F480917A02F80190819813C82F8091AA
:100FE0007902F8018083438142FD06C0469546950B
:100FF0004695D7E0D40F01C0D0E280E090E0892B85
:1010000021F080E090E00E940000299883E092E0C7
:101010000197F1F76EE080E20E9491078BE891E082
:101020000197F1F76C2F8AE20E9491076C2F80E301
:101030000E94910781EE0E94C607CF3F11F080EA1F
:1010400001C080EB4D2FD13208F040E220E0B80122
:101050000E945F07299A00E010E08FEF0E94C60708
:10106000D82F807331F401501109B9F702C0D0E0D4
:101070002FC0299860E387E20E949107D4FF03C044
:1010800081EE0E94C6070E94830DD5FBDD27D0F9B3
:1010900091E0CF3F09F090E0D92B80917A02C813FC
:1010A00017C0D11110C080E090E0892B21F085E6B7
:1010B00090E00E9400008091810191E0980F9F7064
:1010C000807F892B03C080918101807F8093810183
:1010D0008D2FDF91CF911F910F9108952091800165
:1010E00022FD0C94CC0780E0089580E090E0892BED
:1010F00021F088E090E00E9400008FEF8093820151
:101100008091800188608093800128E143E06FEF47
:1011100080E00E94980E61E00E94820C0C94CC0743
:10112000809179028F3FA1F480E090E0892B21F03B
:1011300086E090E00E94000023E043E06FEF80E053
:101140000E94980E63E671E00E948E0C0C94CC070E
:10115000089580E090E0892B21F084E090E00E94E7
:10116000000080918001897F8160809380018FEFF2
:1011700080937B0280937A0227E043E06FEF0E9426
:10118000980E63E671E00E948E0C0C94CC07CF930E
:10119000C82F8FEF8C0F8E3FA8F4C0937902C093B5
:1011A000200163E082E20E94910761E081E20E94F7
:1011B00091070E94830D6C2F80E090E00E94331312
:1011C00081E00CC080E090E0892B21F08EE690E079
:1011D0000E9400008FEF8093790280E0CF91089504
:1011E000E0917601F09177010280F381E02D309754
:1011F00009F009958091800184FD0C9437040895CD
:101200000F931F930E94D1010091780110917901F1
:1012100020917A0130917B01601B710B820B930B43
:101220001F910F9108959C01809176019091770113
:101230008217930751F0909180019F7190938001E4
:10124000309377012093760105C080918001805E04
:1012500080938001E0917601F09177010190F08117
:10126000E02D309709F009950E94D1016093780133
:101270007093790180937A0190937B0108950F9385
:101280001F930E940009209181012077203729F0C7
:1012900000E117E220E030E004C000E61AEE20E0B2
:1012A00030E0061717072807390730F481E291E08C
:1012B0001F910F910C9413091F910F910895809124
:1012C00081018F708B3020F08CE191E00C94130938
:1012D0000895809182018F3FA1F00E94D101609317
:1012E0007C0170937D0180937E0190937F018091BA
:1012F000820190917B02891380937B0288E191E0C7
:101300001BC00E940009613D774081059105B0F046
:1013100080918001803618F484E191E00DC0877FD0
:101320008093800180E090E0892B21F08AE690E0B4
:101330000E9400008CE191E00C94130908958091C3
:1013400079028F3F59F080E090E0892B21F087E00F
:1013500090E00E94000084E191E018C00E94000922
:10136000613D77408105910598F08091800180363C
:1013700018F480E191E00AC080E090E0892B21F030
:1013800089E690E00E94000080E091E00C9413094F
:1013900008950E940009613D77408105910520F480
:1013A0008091800181FF089580917A028F3F81F0C2
:1013B000809180018E7F8093800180E090E0892B76
:1013C00021F085E090E00E94000080E191E011C0F2
:1013D00080918001803618F48CE191E00AC080E0B1
:1013E00090E0892B21F088E690E00E94000080E0E8
:1013F00091E00C941309CF93219A229ACFB7F894D5
:1014000080912C02811127C0E0E9F0E08491E4EAA8
:10141000F0E09491E82FF0E0EE0FFF1FEE58FF4F41
:10142000A591B491EC91E92321F461E08AE00E9456
:10143000DF0F61E08AE00E942B108CB580618CBDCB
:101440008CB580648CBD61E08DE00E942B1061E062
:101450008BE00E942B1080912C028F5F80932C02D6
:10146000CFBF29982A9A6EE080E20E94910765E03A
:1014700070E080E090E00E94671063E083E20E94E9
:1014800091076FE584E20E9491076CE485E20E9477
:10149000910767E286E20E94910763E780E50E9478
:1014A000910766E08DE30E9491070E94680D8823F2
:1014B000F1F162E082E20E94910760E081E20E9425
:1014C000910763E08CE30E9491078FEF80930B01FB
:1014D00020E045E06BE071E08BE20E945F0720E0D6
:1014E00045E06BE071E08AE20E945F0720E045E0A2
:1014F0006BE071E080E30E945F0782EE0E94C60706
:1015000081EE0E94C60760E787E20E949107809102
:101510008001806180938001809179028F3F81F00A
:101520000E94C70881110CC080E091E00BC080E0F0
:1015300090E0892BC9F387E690E00E940000F4CF89
:101540008CE191E0CF910C9413091F920F920FB68A
:101550000F9211240F900FBE0F901F9018958F922D
:101560009F92AF92BF92CF92DF92EF92FF92109232
:101570005D0310925E0310925F031092600310925D
:101580001B0310921C0310921D0310921E030E9455
:10159000D1016B017C014B015C0188EB880E8BE073
:1015A000981EA11CB11C0E94D1016C157D058E05F1
:1015B0009F0528F086169706A806B906A0F78CE7BF
:1015C00092E090935C0380935B030E94130F0E9450
:1015D000D10160931B0370931C0380931D039093B0
:1015E0001E0380915B0390915C03DC01ED91FC9103
:1015F0000280F381E02D41E150E062E571E0099560
:101600000E94D1016B017C014B015C01BAE08B0EA1
:10161000911CA11CB11C0E94D1016C157D058E0589
:101620009F0528F086169706A806B906A0F781E060
:1016300080932F0390E29093AB031092A801109235
:10164000A7011092770210927602109255028093B1
:10165000540210922F0261E082E10E94DF0F61E0EC
:1016600083E10E94DF0F8091B9008E7F8093B900E3
:101670008091B9008D7F8093B90088E48093B80091
:1016800085E48093BC008091A9038093AC03809192
:10169000AB03909155029111FCCF91E090935502CC
:1016A000909354022FEF2093530210925202109203
:1016B00051029093300290913002880F892B8093D1
:1016C000300280912F02813061F410922F028091BC
:1016D00030028093BB008091BC0083FDF8CF85EC85
:1016E00001C085EE8093BC00809155028130E1F30A
:1016F00080915202811103C08091520201C081E0A9
:10170000A1E3B2E027E831E0F9019E2F921B981780
:1017100018F49D919193F9CF1092A8018093A7019D
:10172000811101C0FFCF81E693E00E94E700809322
:10173000A9038091AA0381608093AA038091A803E2
:101740008E7F8093A8030E94A70E8091AA038260D7
:101750008093AA038091A8038D7F8093A8030E94A1
:10176000A70E8091AA0384608093AA038091A803A6
:101770008B7F8093A8030E94A70E8091AA038860A4
:101780008093AA038091A803877F8093A8030E9477
:10179000A70E8091AA0380618093AA038091A80379
:1017A0008F7E8093A8030E94A70E8091AA038F7D4D
:1017B0008093AA038091A8038F7D8093A8030E9441
:1017C000A70E8091AA038F7B8093AA038091A80320
:1017D0008F7B8093A8030E94A70E1092A8030E94FB
:1017E000A70E809185038823B9F020E030E040E027
:1017F0005FE3609188037091890380918A039091DF
:101800008B030E944D1260938C0370938D03809321
:101810008E0390938F0308C010928C0310928D0357
:1018200010928E0310928F0380E090E0A0E8B4E461
:101830008093980390939903A0939A03B0939B038A
:1018400081E090E090939D0380939C0380E090E082
:10185000AAE7B4E48093900390939103A09392033A
:10186000B093930310926D0310926E0310926F0366
:10187000109270031092710310927203109273030E
:101880001092740310927D0310927E0310927F03D6
:1018900010928003109281031092820310928303AE
:1018A0001092840388E091E2A4E8BDE38093A20350
:1018B0009093A303A093A403B093A5031092A7034E
:1018C0001092A60310929E0310929F031092A00301
:1018D0001092A103FF90EF90DF90CF90BF90AF9058
:1018E0009F908F90089561E084E00E942B108EE914
:1018F00091E00E941B1361E0811101C060E084E06F
:101900000C94DF0FFC01838187708860838384815E
:101910008F71806284836783CF0108950F931F9333
:10192000CF93DF93EC016115710561F0FB0101902C
:101930000020E9F73197E61BF70BE931F10518F0C4
:10194000E9E101C0E0E00E2F10E0C80123E0880FBC
:10195000991F2A95E1F79B819770892B8B838C8146
:101960008F718C83EE2329F0A801CE0107960E9487
:101970005013FE01E00FF11F1782CE01DF91CF91CE
:101980001F910F9108952BE043E06FEF80E00E94DC
:10199000980E64E671E00E948E0C0E946E082CE0A6
:1019A00043E06FEF80E00E94980E69E671E00E94CC
:1019B0008E0C0E946E0863E081E00E943B0F6FE096
:1019C00082E00E943B0F6EE183E00C943B0FCF93CB
:1019D00080E090E0892B21F08CE090E00E940000F4
:1019E0002FE043E06FEF80E00E94980E63E671E025
:1019F0000E948E0C8091CA03877080618093CA0315
:101A00008091CB038F71806C8093CB0381E08093B6
:101A1000CE031092CF0387EC93E00E946E088FE014
:101A20000E94510F62E18FEF0E943B0FC0917A023A
:101A300026E043E06FEF80E00E94980E6C2F0E943A
:101A4000820C0E946E0886E00E94510FCF910C9488
:101A5000C30CCF938091750181FD27C00E94E70CD4
:101A600080E090E0892B21F089E090E00E94000066
:101A700080917501816080937501C4E02AE143E0A3
:101A80006FEF80E00E94980E62E00E94820C0E943C
:101A90006E088BE10E94510F811102C0C15071F795
:101AA00080917501826080937501CF910895FC014A
:101AB0002481229526952770213011F4878108957D
:101AC000211104C007960E94EB11089580E008954B
:101AD000CF9321E041E060E070E086E00E945F0784
:101AE000C82F21E041E060E070E085E00E945F07E0
:101AF00021E08C3409F020E081E0C73209F080E079
:101B00008223CF9108956FE080E20E949107609157
:101B100020016F3F19F08AE20E949107299A0895E7
:101B2000CF92DF92EF92FF920F931F93CF93DF93A9
:101B30006C017A018B01C0E0D0E0CE15DF0589F0A1
:101B4000D8016D918D01D601ED91FC910190F0814C
:101B5000E02DC6010995892B11F47E0102C0219662
:101B6000ECCFC701DF91CF911F910F91FF90EF90C4
:101B7000DF90CF900895FC01538D448D252F30E0E8
:101B8000842F90E0821B930B541710F0CF9608958A
:101B900001970895FC01918D828D981761F0828DD7
:101BA000DF01A80FB11D5D968C91928D9F5F9F7391
:101BB000928F90E008958FEF9FEF0895FC01918D33
:101BC000828D981731F0828DE80FF11D858D90E0A0
:101BD00008958FEF9FEF0895FC01918D228D892F3D
:101BE00090E0805C9F4F821B91098F739927089525
:101BF0008CE792E00E94EC0D21E0892B09F420E0B3
:101C0000822F0895FC01848DDF01A80FB11DA35A16
:101C1000BF4F2C91848D90E001968F739927848F0C
:101C2000A689B7892C93A089B1898C9180648C9303
:101C3000938D848D981306C00288F389E02D8081EE
:101C40008F7D80830895EF92FF920F931F93CF9320
:101C5000DF93EC0181E0888F9B8D8C8D981305C0FC
:101C6000E889F989808185FD24C0F62E0B8D10E06E
:101C70000F5F1F4F0F731127E02E8C8DE8120CC0E1
:101C80000FB607FCFACFE889F989808185FFF5CF87
:101C9000CE010E94020EF1CF8B8DFE01E80FF11DE7
:101CA000E35AFF4FF0820B8FEA89FB8980818062C3
:101CB00007C0EE89FF896083E889F98980818064A3
:101CC000808381E090E0DF91CF911F910F91FF9091
:101CD000EF900895CF93DF93EC01888D8823C9F0AE
:101CE000EA89FB89808185FD05C0A889B9898C9125
:101CF00086FD0FC00FB607FCF5CF808185FFF2CFC0
:101D0000A889B9898C9185FFEDCFCE010E94020E82
:101D1000E7CFDF91CF91089580E090E0892B29F003
:101D20000E94F80D81110C94000008950E944B133D
:101D3000E7ECF3E0909179029183828366832583B7
:101D400047708481807E482B4483CF010895CF93D0
:101D50009091A9036091AA038091A803C091AB035D
:101D600021E020937802C093090410927702109228
:101D7000760260956923682B81E693E00E94330127
:101D800080917602813208F046C0909155029111FF
:101D9000FCCF92E09093550291E0909354029FEF14
:101DA000909353021092520280935102A6E5B2E042
:101DB00021E332E0F9019E2F921B981718F49D91B0
:101DC0009193F9CF1092300280913002CC0FC82B42
:101DD000C093300280912F02813061F410922F0263
:101DE000809130028093BB008091BC0083FDF8CFCE
:101DF00085EC01C085EE8093BC0080915502823055
:101E0000E1F3809153028F3F31F080915302803291
:101E100011F0809153021092770210927602109284
:101E20007802CF910895ECE7F2E0A089B18982E0D1
:101E30008C93A485B5851C92A685B78580E18C938B
:101E4000108EA489B58986E08C93A289B3898C9180
:101E500080618C93A289B3898C9188608C93A289CC
:101E6000B3898C9180688C930288F389E02D8081FE
:101E70008F7D80830895CF93DF93262F8F3F19F0B6
:101E8000C3E6D1E002C0CDE6D1E040E0682F80E0BB
:101E90000E94980EBE010E948E0CDF91CF910C948F
:101EA0006E08CF92DF92EF92FF92CF93DF93D82FFD
:101EB0000E94D1016B017C0181E0D11180E080930F
:101EC000ED03C0E00E94D101AB01BC014C195D09DA
:101ED0006E097F09403D57406105710580F4C111CD
:101EE0000EC0A8950E94F0089091EC039770933073
:101EF00049F7C1E08091ED038D13E3CFE3CF8C2F41
:101F0000DF91CF91FF90EF90DF90CF9008951F92D7
:101F10000F920FB60F9211242F933F934F935F931D
:101F20006F937F938F939F93AF93BF93EF93FF93A1
:101F30008CE792E00E94020EFF91EF91BF91AF916A
:101F40009F918F917F916F915F914F913F912F91D1
:101F50000F900FBE0F901F9018951F920F920FB603
:101F60000F9211242F938F939F93EF93FF93E09100
:101F70008C02F0918D028081E0919202F0919302A7
:101F800082FD12C09081809195028F5F8F732091A6
:101F90009602821751F0E0919502F0E0E458FD4F6F
:101FA000958F8093950201C08081FF91EF919F9161
:101FB0008F912F910F900FBE0F901F90189590E06A
:101FC000FC01E255FF4F3491FC01E656FF4F24918E
:101FD000FC01EA57FF4FE491EE2309F43BC03323A1
:101FE00039F1333091F038F43130A9F0323001F565
:101FF00084B58F7D12C0373091F03830A1F0343085
:10200000B9F4809180008F7D03C0809180008F772C
:10201000809380000DC084B58F7784BD09C0809106
:10202000B0008F7703C08091B0008F7D8093B000A7
:10203000F0E0EE0FFF1FE458FF4FA591B4918FB76A
:10204000F894EC91611103C020952E2301C02E2B32
:102050002C938FBF0895CF93DF9390E0FC01E65659
:10206000FF4F2491FC01EA57FF4F8491882361F1CF
:1020700090E0880F991FFC01EE58FF4FC591D49155
:10208000FC01E458FF4FA591B491611109C09FB7BD
:10209000F8948881209582238883EC912E230BC0AD
:1020A000623061F49FB7F8943881822F8095832342
:1020B0008883EC912E2B2C939FBF06C08FB7F8948A
:1020C000E8812E2B28838FBFDF91CF9108958F92C7
:1020D0009F92AF92BF92CF92DF92EF92FF926B01ED
:1020E0007C010E94AC014B015C01C114D104E104EC
:1020F000F104F1F00E94AC01DC01CB0188199909CF
:10210000AA09BB09883E9340A105B10570F321E0FF
:10211000C21AD108E108F10888EE880E83E0981E03
:10212000A11CB11CC114D104E104F10419F7DDCFE5
:10213000FF90EF90DF90CF90BF90AF909F908F90E7
:102140000895789484B5826084BD84B5816084BD2F
:1021500085B5826085BD85B5816085BD80916E0045
:10216000816080936E001092810080918100826076
:1021700080938100809181008160809381008091B3
:1021800080008160809380008091B10084608093A2
:10219000B1008091B00081608093B00080917A009E
:1021A000846080937A0080917A00826080937A00C4
:1021B00080917A00816080937A0080917A008068B3
:1021C00080937A001092C100A89580E090E0892B5E
:1021D00011F00E9400000E94130F809175018D7F05
:1021E000809375010E94730C41E050E063E071E060
:1021F00084E791E00E940B136FEF81E090E00E9472
:102200003313809181018F7880938101109277013F
:102210001092760181E291E00E94130989E29DE02B
:1022200090932E0280932D020E94D1010E94D10131
:102230000E94F008A8958091800182FFF7CF0E944C
:10224000AF0AA895A8950E94F0080E948C0EFACFBC
:10225000CF93DF93FC0110821182128214821582C7
:102260001682DC0117968AE1ED0119928A95E9F749
:1022700082E08383DF91CF910895ECE7F2E013824F
:10228000128288EE93E0A0E0B0E084839583A68379
:10229000B7832FE231E03183208325EC30E03587AE
:1022A000248724EC30E03787268720EC30E0318B20
:1022B000208B21EC30E0338B228B22EC30E0358B0D
:1022C000248B26EC30E0378B268B118E128E138EEA
:1022D000148EE9E1F3E016821782108611861286C9
:1022E00013861486158616861786108A118A128A16
:1022F000138A148A158AE1E6F3E01382128284833A
:102300009583A683B78381E491E09183808388EEEF
:1023100093E00E94281187EC93E00E942811E8EADC
:10232000F3E01082118212821382148215821682C7
:1023300017821086118612861386148615861686D5
:10234000108A1786128A118A148A138A168A158AA5
:10235000108E178A128E118E148E138E168E158E75
:10236000EDE6F3E081E0808F128E118E8DEC9CEC17
:10237000ACECBDE387A390A7A1A7B2A780E090E053
:10238000A0EAB0E4838F948FA58FB68FECE4F4E0DD
:102390001182108281E090E09383828361E080E08B
:1023A0000E942B1060E081E00E942B108BE294E0F1
:1023B0000E942811EBE2F4E083E0868387E28583C4
:1023C0008AE094E00E942811EAE0F4E082E086834B
:1023D0008DE085830895FC0188279927E894219151
:1023E0002032E9F3293010F02E30C8F32B3241F0BF
:1023F0002D3239F4689404C00E944512820F911D59
:10240000219120532A30C0F31EF4909581959F4F5F
:1024100008951F93FC0199278827BC01E894119126
:102420001032E9F3193010F01E30C8F31B3251F0AE
:102430001D3249F4689406C00E943012610F711D6C
:10244000811D911D119110531A30B0F33EF49095F7
:102450008095709561957F4F8F4F9F4F1F91089585
:10246000592F482F372F262F660F771F881F991F48
:10247000660F771F881F991F620F731F841F951F98
:10248000660F771F881F991F08957AE0979F902DF8
:10249000879F802D910D112408950E9460120C9445
:1024A000D1120E94C31238F00E94CA1220F0952364
:1024B00011F00C94BA120C94C01211240C94051350
:1024C0000E94E21270F3959FC1F3950F50E0551FE3
:1024D000629FF001729FBB27F00DB11D639FAA2779
:1024E000F00DB11DAA1F649F6627B00DA11D661FC8
:1024F000829F2227B00DA11D621F739FB00DA11DE9
:10250000621F839FA00D611D221F749F3327A00DA2
:10251000611D231F849F600D211D822F762F6A2F3E
:1025200011249F5750409AF0F1F088234AF0EE0FA3
:10253000FF1FBB1F661F771F881F91505040A9F7D0
:102540009E3F510580F00C94BA120C9405135F3F26
:10255000E4F3983ED4F3869577956795B795F7950C
:10256000E7959F5FC1F7FE2B880F911D9695879584
:1025700097F9089597F99F6780E870E060E0089503
:102580009FEF80EC089500240A941616170618068B
:102590000906089500240A94121613061406050667
:1025A0000895092E0394000C11F4882352F0BB0FF8
:1025B00040F4BF2B11F460FF04C06F5F7F4F8F4F5B
:1025C0009F4F089557FD9058440F551F59F05F3F96
:1025D00071F04795880F97FB991F61F09F3F79F045
:1025E00087950895121613061406551FF2CF4695C7
:1025F000F1DF08C0161617061806991FF1CF869549
:102600007105610508940895E894BB27662777272C
:10261000CB0197F90895DC01CB01FC01F999FECFBC
:1026200006C0F2BDE1BDF89A319600B40D9241505A
:102630005040B8F70895F999FECF92BD81BDF89A40
:10264000992780B50895DC01A40FB51F4150504073
:1026500048F0CB01840F951F2E910E9434134150F6
:102660005040D0F70895262FF999FECF92BD81BD35
:10267000F89A019700B4021639F01FBA20BD0FB6C0
:10268000F894FA9AF99A0FBE0895EE0FFF1F05907D
:10269000F491E02D099481E090E0F8940C945F139C
:1026A000FB01DC014150504048F001900D920020A8
:1026B000C9F701C01D9241505040E0F70895F894C9
:0226C000FFCF4A
:1026C200A2073F098C008C00FFFFFF00FCE1A8A8D5
:1026D20090089F09750869092D075F09A908C909AA
:1026E200FF3F07FB096B006C006D00000000002338
:1026F2000E900DBB0D6A0EEC0DCA0DDE0D00000032
:1027020000330103016301D700FB00E700D8004F4B
:102712004B00564D4450565F317C315F564D44500C
:10272200560D0A0050756D7000312E3000322E3178
:042732002E31000044
:107E0000112484B714BE81FFF0D085E080938100F7
:107E100082E08093C00088E18093C10086E0809377
:107E2000C20080E18093C4008EE0C9D0259A86E02C
:107E300020E33CEF91E0309385002093840096BBD3
:107E4000B09BFECF1D9AA8958150A9F7CC24DD24C4
:107E500088248394B5E0AB2EA1E19A2EF3E0BF2EE7
:107E6000A2D0813461F49FD0082FAFD0023811F036
:107E7000013811F484E001C083E08DD089C08234E0
:107E800011F484E103C0853419F485E0A6D080C0E4
:107E9000853579F488D0E82EFF2485D0082F10E0AE
:107EA000102F00270E291F29000F111F8ED06801E7
:107EB0006FC0863521F484E090D080E0DECF843638
:107EC00009F040C070D06FD0082F6DD080E0C81688
:107ED00080E7D80618F4F601B7BEE895C0E0D1E017
:107EE00062D089930C17E1F7F0E0CF16F0E7DF06D8
:107EF00018F0F601B7BEE89568D007B600FCFDCFD4
:107F0000A601A0E0B1E02C9130E011968C91119780
:107F100090E0982F8827822B932B1296FA010C0160
:107F200087BEE89511244E5F5F4FF1E0A038BF0790
:107F300051F7F601A7BEE89507B600FCFDCF97BE46
:107F4000E89526C08437B1F42ED02DD0F82E2BD052
:107F50003CD0F601EF2C8F010F5F1F4F84911BD097
:107F6000EA94F801C1F70894C11CD11CFA94CF0C13
:107F7000D11C0EC0853739F428D08EE10CD085E9AC
:107F80000AD08FE07ACF813511F488E018D01DD067
:107F900080E101D065CF982F8091C00085FFFCCF94
:107FA0009093C60008958091C00087FFFCCF809118
:107FB000C00084FD01C0A8958091C6000895E0E648
:107FC000F0E098E1908380830895EDDF803219F02E
:107FD00088E0F5DFFFCF84E1DECF1F93182FE3DFCA
:107FE0001150E9F7F2DF1F91089580E0E8DFEE27F6
:047FF000FF270994CA
:027FFE00040479
:0400000300007E007B
:00000001FF