:100000000C94E3020C94E2130C94BB130C947A143A
:100010000C9455140C9430140C944D070C949F14AC
:100020000C940B030C940B030C940B030C940B0318
:100030000C940B030C9409140C940B030C940B03F9
:100040000C9471130C940B030C949A0B0C94740B7A
:100050000C940B030C940B030C940B030C940B03E8
:100060000C94F5150C940B030000000024002700ED
:100070002A000000000023002600290000000000E4
:10008000250028002B0004040404040404040202D4
:100090000202020203030303030301020408102007
:1000A0004080010204081020010204081020000012
:1000B0000000003E5B4F5B3E3E6B4F6B3E1C3E7C48
:1000C0003E1C183C7E3C181C577D571C1C5E7F5EF6
:1000D0001C00183C1800FFE7C3E7FF0018241800B5
:1000E000FFE7DBE7FF30483A060E2629792926404C
:1000F0007F050507407F05253F5A3CE73C5A7F3E78
:100100001C1C08081C1C3E7F14227F22145F5F0009
:100110005F5F06097F017F006689956A60606060A5
:100120006094A2FFA29408047E040810207E201090
:1001300008082A1C08081C2A08081E101010100C99
:100140001E0C1E0C30383E3830060E3E0E060000E7
:1001500000000000005F00000007000700147F148B
:100160007F14242A7F2A12231308646236495620FA
:10017000500008070300001C2241000041221C001F
:100180002A1C7F1C2A08083E0808008070300008DE
:1001900008080808000060600020100804023E51B2
:1001A00049453E00427F4000724949494621414944
:1001B0004D331814127F1027454545393C4A4949AB
:1001C0003141211109073649494936464949291E15
:1001D0000000140000004034000000081422411404
:1001E00014141414004122140802015909063E4156
:1001F0005D594E7C1211127C7F494949363E41417E
:1002000041227F4141413E7F494949417F090909D6
:10021000013E414151737F0808087F00417F410042
:100220002040413F017F081422417F404040407FF1
:10023000021C027F7F0408107F3E4141413E7F093E
:100240000909063E4151215E7F091929462649497F
:10025000493203017F01033F4040403F1F204020BF
:100260001F3F4038403F63140814630304780403BD
:100270006159494D43007F4141410204081020006B
:100280004141417F040201020440404040400003DC
:1002900007080020545478407F28444438384444A8
:1002A0004428384444287F385454541800087E09A0
:1002B0000218A4A49C787F0804047800447D4000C0
:1002C0002040403D007F1028440000417F40007CDA
:1002D000047804787C080404783844444438FC18D2
:1002E00024241818242418FC7C08040408485454B6
:1002F000542404043F44243C4040207C1C204020E3
:100300001C3C4030403C44281028444C9090907C49
:100310004464544C4400083641000000770000005B
:100320004136080002010204023C2623263C1EA19D
:10033000A161123A4040207A3854545559215555FC
:1003400079412254547842215554784020545579AB
:10035000400C1E527212395555555939545454593E
:1003600039555454580000457C410002457D4200F7
:1003700001457C407D1211127DF0282528F07C5427
:100380005545002054547C547C0A097F4932494920
:1003900049323A4444443A324A4848303A41412189
:1003A0007A3A42402078009DA0A07D3D4242423DE5
:1003B0003D4040403D3C24FF2424487E4943662B79
:1003C0002FFC2F2BFF0929F620C0887E090320541B
:1003D0005479410000447D413048484A3238404019
:1003E000227A007A0A0A727D0D19317D2629292F79
:1003F00028262929292630484D4020380808080891
:1004000008080808382F10C8ACBA2F102834FA0092
:10041000007B000008142A142222142A1408550014
:10042000550055AA55AA55AAFF55FF55FF000000D3
:10043000FF00101010FF00141414FF001010FF0034
:10044000FF1010F010F0141414FC001414F700FF47
:100450000000FF00FF1414F404FC141417101F1004
:10046000101F101F1414141F00101010F0000000B3
:10047000001F101010101F10101010F010000000BE
:10048000FF101010101010101010FF10000000FFCF
:10049000140000FF00FF00001F10170000FC04F410
:1004A00014141710171414F404F40000FF00F714C8
:1004B000141414141414F700F7141414171410104F
:1004C0001F101F141414F4141010F010F000001F6B
:1004D000101F0000001F14000000FC140000F010AA
:1004E000F01010FF10FF141414FF141010101F0050
:1004F000000000F010FFFFFFFFFFF0F0F0F0F0FF52
:10050000FFFF0000000000FFFF0F0F0F0F0F384428
:10051000443844FC4A4A4A347E02020606027E02FD
:100520007E0263554941633844443C04407E201EAA
:100530002006027E020299A5E7A5991C2A492A1CD9
:100540004C7201724C304A4D4D303048784830BCC6
:10055000625A463D3E494949007E0101017E2A2AF0
:100560002A2A2A44445F444440514A444040444A71
:1005700051400000FF0103E080FF000008086B6BA2
:10058000083612362436060F090F06000018180028
:1005900000001010003040FF0101001F01011E008B
:1005A000191D1712003C3C3C3C00000000000000FC
:1005B0000008000201000003040700000000000022
:1005C00000002A286C2911241FBECFEFD8E0DEBF1F
:1005D000CDBF27E0A0E4B4E001C01D92AB3AB20762
:1005E000E1F714E0A0E0B1E0EAE9F9E502C0059026
:1005F0000D92A034B107D9F712E0C2EED2E004C0E8
:100600002197FE010E949F2AC13ED107C9F70E948F
:10061000A1270C94C02C0C94000080919107846059
:100620008093910780919207807880939207E09160
:100630004404F0914504309709F009940895E1E9E4
:10064000F7E08081877F8F7E808310928D071092E4
:100650008E0710928F07109290070E946513609387
:10066000940770939507809396079093970743E0BC
:1006700050E060E070E082EB94E00C94F229FC0121
:10068000838187708860838384818F718062848393
:100690006783CF0108950F931F93CF93DF93EC01EE
:1006A0006115710561F0FB0101900020E9F73197B8
:1006B000E61BF70BE931F10518F0E9E101C0E0E0D4
:1006C0000E2F10E0C80123E0880F991F2A95E1F74B
:1006D0009B819770892B8B838C818F718C83EE2308
:1006E00029F0A801CE0107960E94B12CFE01E00F6F
:1006F000F11F1782CE01DF91CF911F910F910895C5
:10070000FC012481229526952770213011F48781E0
:100710000895211104C007960E949029089580E051
:1007200008958EBD00000DB407FEFDCF8EB508956F
:10073000CF92DF92EF92FF920F931F93CF93DF93AD
:100740007B01142F022F91E59CBD91E09DBD2A985D
:10075000E3E2F0E03197F1F70E949103E701112302
:10076000A9F0002349F08FEF0E949103E114F104F6
:1007700059F08883219608C06E018FEFC81AD80AF5
:1007800088810E949103E6011150E9CF2A9AE3E2A1
:10079000F0E03197F1F7DF91CF911F910F91FF902A
:1007A000EF90DF90CF900895CF9321E041E060E09B
:1007B00070E086E00E949803C82F21E041E060E0ED
:1007C00070E085E00E94980321E08C3409F020E07D
:1007D00081E0C73209F080E08223CF910895CF9362
:1007E000DF931F92CDB7DEB7698320E041E0BE0101
:1007F0006F5F7F4F0E9498030F90DF91CF91089514
:100800006FE080E20E94EF03609118016F3F19F0E2
:100810008AE20E94EF03299A089580919207982F07
:100820009077903759F0982F92959F709F5F9770AF
:100830009295907F8F78892B809392078091910772
:100840008B7F8F7E8093910780E090E0892B21F051
:1008500087E690E00E94000029986CE080E20C940A
:10086000EF0320E040E060E070E00C9498030F9309
:100870001F93CF93DF938C01FC01C281809191077C
:1008800080FF04C0CF3F09F05DC014C0C11103C098
:10089000C091B3040FC0CF3F69F08C2F90E0039656
:1008A0000E94022A8F3F29F48091B304F8019081BD
:1008B0009813C82F8091B204F8018083438142FDD0
:1008C00006C0469546954695D7E0D40F01C0D0E2C4
:1008D00080E090E0892B21F080E090E00E94000011
:1008E000299883E092E00197F1F76EE080E20E94A0
:1008F000EF038BE891E00197F1F76C2F8AE20E94F9
:10090000EF036C2F80E30E94EF0381EE0E9431041D
:10091000CF3F11F080EA01C080EB4D2FD13208F0BB
:1009200040E220E0B8010E949803299A00E010E01C
:100930008FEF0E943104D82F807331F401501109D8
:10094000B9F702C0D0E02FC0299860E387E20E9487
:10095000EF03D4FF03C081EE0E9431040E94000423
:10096000D5FBDD27D0F991E0CF3F09F090E0D92BFE
:100970008091B304C81317C0D11110C080E090E07B
:10098000892B21F085E690E00E940000809192077B
:1009900091E0980F9F70807F892B03C08091920710
:1009A000807F809392078D2FDF91CF911F910F91C0
:1009B00008952091910722FD0C94370480E008955A
:1009C000CF9380E090E0892B21F08CE090E00E94B2
:1009D00000002FE043E06FEF80E00E94920864EF98
:1009E00073E00E944B038091820687708061809340
:1009F0008206809183068F71806C8093830681E0EC
:100A000080938606109287068FE796E00E94D904AD
:100A10008FE00E94A20962E18FEF0E948C09C091D1
:100A2000B30426E043E06FEF80E00E9492086C2F51
:100A30000E943F030E94D90486E00E94A209CF9140
:100A40000C94A021CF938091860781FD27C00E943E
:100A5000E00480E090E0892B21F089E090E00E94A2
:100A6000000080918607816080938607C4E02AE1B8
:100A700043E06FEF80E00E94920862E00E943F0333
:100A80000E94D9048BE10E94A209811102C0C150C9
:100A900071F780918607826080938607CF910895D1
:100AA00080E090E0892B21F088E090E00E94000037
:100AB0008FEF8093930780919107886080939107CF
:100AC00028E143E06FEF80E00E94920861E00E941D
:100AD0003F030C9437048091B2048F3FA1F480E06F
:100AE00090E0892B21F086E090E00E94000023E056
:100AF00043E06FEF80E00E94920864EF73E00E9491
:100B00004B030C943704089580E090E0892B21F08A
:100B100084E090E00E94000080919107897F8160CD
:100B2000809391078FEF8093B4048093B30427E000
:100B300043E06FEF0E94920864EF73E00E944B0362
:100B40000C943704CF93C82F8FEF8C0F8E3FA8F4EF
:100B5000C093B204C093180163E082E20E94EF03E5
:100B600061E081E20E94EF030E9400046C2F80E0AC
:100B700090E00E941A2A81E00CC080E090E0892B6E
:100B800021F08EE690E00E9400008FEF8093B20487
:100B900080E0CF910895E0918707F0918807028067
:100BA000F381E02D309709F009958091910784FD3C
:100BB0000C94C02108950F931F930E946513009118
:100BC000890710918A0720918B0730918C07601B51
:100BD000710B820B930B1F910F9108959C018091D3
:100BE0008707909188078217930751F0909191079A
:100BF0009F7190939107309388072093870705C0D2
:100C000080919107805E80939107E0918707F09132
:100C100088070190F081E02D309709F009950E9436
:100C200065136093890770938A0780938B0790936D
:100C30008C0708950F931F930E94DB052091920764
:100C40002077203729F000E117E220E030E004C0EF
:100C500000E61AEE20E030E00617170728073907EC
:100C600030F489E191E01F910F910C94EE051F91F2
:100C70000F910895809192078F708B3020F084E15E
:100C800091E00C94EE050895809193078F3FA1F0B9
:100C90000E94651360938D0770938E0780938F0772
:100CA00090939007809193079091B4048913809357
:100CB000B40480E191E01BC00E94DB05613D7740F8
:100CC00081059105B0F080919107803618F48CE091
:100CD00091E00DC0877F8093910780E090E0892BA1
:100CE00021F08AE690E00E94000084E191E00C94FB
:100CF000EE0508958091B2048F3F59F080E090E0B6
:100D0000892B21F087E090E00E9400008CE091E0C8
:100D100018C00E94DB05613D77408105910598F080
:100D200080919107803618F488E091E00AC080E055
:100D300090E0892B21F089E690E00E94000082E299
:100D400093E00C94EE0508950E94DB05613D774029
:100D50008105910520F48091910781FF089580918C
:100D6000B3048F3F81F0809191078E7F809391072C
:100D700080E090E0892B21F085E090E00E94000067
:100D800088E091E011C080919107803618F484E1E9
:100D900091E00AC080E090E0892B21F088E690E0A5
:100DA0000E94000082E293E00C94EE05219A229AC0
:100DB0000E94FE1429982A9A6EE080E20E94EF03B6
:100DC00065E070E080E090E00E942B1363E083E236
:100DD0000E94EF036FE584E20E94EF036CE485E27A
:100DE0000E94EF0367E286E20E94EF0363E780E57B
:100DF0000E94EF0366E08DE30E94EF030E94D4039C
:100E00008823F1F162E082E20E94EF0360E081E278
:100E10000E94EF0363E08CE30E94EF038FEF809367
:100E2000030120E045E063E071E08BE20E9498035B
:100E300020E045E063E071E08AE20E94980320E050
:100E400045E063E071E080E30E94980382EE0E9437
:100E5000310481EE0E94310460E787E20E94EF03D3
:100E6000809191078061809391078091B2048F3FB8
:100E700081F00E94A20581110CC082E293E00BC0B8
:100E800080E090E0892BC9F387E690E00E940000A3
:100E9000F4CF84E191E00C94EE051F920F920FB60F
:100EA0000F9211240F900FBE0F901F901895CF92A4
:100EB000DF92EF92FF920F931F93CF93DF936C011A
:100EC0007A018B01C0E0D0E0CE15DF0589F0D801B2
:100ED0006D918D01D601ED91FC910190F081E02D95
:100EE000C6010995892B11F47E0102C02196ECCF31
:100EF000C701DF91CF911F910F91FF90EF90DF908D
:100F0000CF900895FC01538D448D252F30E0842F20
:100F100090E0821B930B541710F0CF960895019721
:100F20000895FC01918D828D981761F0828DDF010B
:100F3000A80FB11D5D968C91928D9F5F9F73928FCC
:100F400090E008958FEF9FEF0895FC01918D828DC1
:100F5000981731F0828DE80FF11D858D90E008958E
:100F60008FEF9FEF0895FC01918D228D892F90E0E6
:100F7000805C9F4F821B91098F739927089585EBA1
:100F800094E00E94B30721E0892B09F420E0822F2E
:100F90000895FC01848DDF01A80FB11DA35ABF4F36
:100FA0002C91848D90E001968F739927848FA68968
:100FB000B7892C93A089B1898C9180648C93938D8F
:100FC000848D981306C00288F389E02D80818F7D7F
:100FD00080830895EF92FF920F931F93CF93DF9337
:100FE000EC0181E0888F9B8D8C8D981305C0E8897A
:100FF000F989808185FD24C0F62E0B8D10E00F5FEE
:101000001F4F0F731127E02E8C8DE8120CC00FB606
:1010100007FCFACFE889F989808185FFF5CFCE01F9
:101020000E94C907F1CF8B8DFE01E80FF11DE35A35
:10103000FF4FF0820B8FEA89FB898081806207C0B5
:10104000EE89FF896083E889F989808180648083E3
:1010500081E090E0DF91CF911F910F91FF90EF9091
:101060000895CF93DF93EC01888D8823C9F0EA8936
:10107000FB89808185FD05C0A889B9898C9186FD91
:101080000FC00FB607FCF5CF808185FFF2CFA8898E
:10109000B9898C9185FFEDCFCE010E94C907E7CFBA
:1010A000DF91CF91089580E090E0892B29F00E9494
:1010B000BF0781110C940000089590911F069F3F77
:1010C00021F4909120069F3F59F128E030E040E85C
:1010D000E0912606F091270650819091290690957F
:1010E00095239083E0912406F0912506909128069F
:1010F000542F582319F05081952B03C0508190959F
:1011000095239083E0912606F091270650819091D7
:101110002906952B9083469521503109C9F60895EB
:101120000C949103EFE7F6E09091B20491838283EF
:101130006683258347708481807E482B4483CF015A
:101140000895CF9390916106609162068091600648
:10115000C091630621E02093B104C093C1061092B0
:10116000B0041092AF0460956923682B8AE995E07A
:101170000E94C2158091AF04813208F046C0909160
:101180008E049111FCCF92E090938E0491E09093A5
:101190008D049FEF90938C0410928B0480938A04AB
:1011A000AFE8B4E02AE634E0F9019E2F921B9817CD
:1011B00018F49D919193F9CF10926904809169047C
:1011C000CC0FC82BC093690480916804813061F40E
:1011D00010926804809169048093BB008091BC00E8
:1011E00083FDF8CF85EC01C085EE8093BC00809133
:1011F0008E048230E1F380918C048F3F31F0809136
:101200008C04803211F080918C041092B004109202
:10121000AF041092B104CF9108958091610680933C
:1012200064068091630690918E049111FCCF91E049
:1012300090938E0490938D042FEF20938C04109242
:101240008B0410928A049093690490916904880F2A
:10125000892B8093690480916804813061F4109235
:101260006804809169048093BB008091BC0083FD79
:10127000F8CF85EC01C085EE8093BC0080918E0490
:101280008130E1F380918B04811103C080918B0444
:1012900001C081E0AAE6B4E028E434E0F9019E2F21
:1012A000921B981718F49D919193F9CF10924704CF
:1012B00080934604811101C0FFCF8AE995E00E9426
:1012C0007615809361060895E5EBF4E0A089B18975
:1012D00082E08C93A485B5851C92A685B78580E1B4
:1012E0008C93108EA489B58986E08C93A289B389EA
:1012F0008C9180618C93A289B3898C9188608C9346
:10130000A289B3898C9180688C930288F389E02D3F
:1013100080818F7D80830895CF93DF93262F8F3F29
:1013200019F0C4EFD3E002C0C3EDD3E040E0682F72
:1013300080E00E949208BE010E944B03DF91CF9192
:101340000C94D904CF92DF92EF92FF92CF93DF9368
:10135000D82F0E9465136B017C0181E0D11180E0E0
:101360008093A506C0E00E946513AB01BC014C1937
:101370005D096E097F09403D57406105710580F4A4
:10138000C1110EC0A8950E94CB059091A40697703C
:10139000933049F7C1E08091A5068D13E3CFE3CFE9
:1013A0008C2FDF91CF91FF90EF90DF90CF90089539
:1013B000CF93C82F60E0809121060E949A128091FD
:1013C000230618161CF460E00E949A128C2F0E94CB
:1013D0005D0880912306181624F461E0CF910C94E7
:1013E0009A12CF910895EF92FF920F931F93CF938C
:1013F0008DE1E82E81E0F82EC0E08C2F80640E9401
:10140000D80980E80E94D80961E0809121060E94F5
:101410009A128091230618161CF460E00E949A121A
:1014200000E010E0F701E00FF11F80810E945D08ED
:101430000F5F1F4F04351105A9F780912306181679
:101440001CF461E00E949A12CF5F84E5E80EF11C63
:10145000C63099F680E4CF911F910F91FF90EF90E5
:101460000C94D80988EF91E0EDE1F1E0DF019C01F7
:101470001D9221503040E1F7E5E0F6E01586148634
:101480001786168608950F931F93CF93DF93EC0171
:1014900088819981009729F02A813B812617370797
:1014A00088F48B016F5F7F4F0E94D22B009761F011
:1014B000998388831B830A832C813D81232B11F41C
:1014C000FC01108281E001C080E0DF91CF911F918B
:1014D0000F910895EF92FF920F931F93CF93DF9395
:1014E000EC017B018A01BA010E94430A28813981FB
:1014F00081110DC02115310519F0C9010E943A2B47
:10150000198218821D821C821B821A8206C01D83CA
:101510000C83B701C9010E94AA2CCE01DF91CF91A3
:101520001F910F91FF90EF900895FC0180819181B0
:101530000C943A2BFB01DC0111961C921E9213961F
:101540001C921E92129715961C921E921497861743
:10155000970749F0608171816115710521F044811F
:1015600055810C946A0A0895FC011182108213823D
:101570001282158214826115710551F0FB010190F0
:101580000020E9F73197AF01461B570B0C946A0A0C
:1015900008956115710579F0FB0101900020E9F7CC
:1015A0003197AF01461B570BDC01ED91FC91028096
:1015B000F381E02D099480E090E00895CF93DF93CC
:1015C000BC0185E096E00E94C90AEC0162EF73E07D
:1015D00085E096E00E94C90A8C0F9D1FDF91CF9194
:1015E00008954F925F926F927F92EF92FF920F93C6
:1015F0001F93CF93DF93CDB7DEB7A1970FB6F894C3
:10160000DEBF0FBECDBF7C01FA01CB0119A2223093
:1016100008F42AE08E010F5D1F4F422E512C612CE1
:10162000712CBF01A30192010E942C2AF901CA0169
:10163000015011096A3014F4605D01C0695CD80181
:101640006C93232B242B252B61F7B801C7010E9433
:10165000C90AA1960FB6F894DEBF0FBECDBFDF91C9
:10166000CF911F910F91FF90EF907F906F905F90BF
:101670004F900895CF92DF92EF92FF92CF93DF9336
:101680006C01990FEE08FF08F7FE21C0E0910506F6
:10169000F09106060190F081E02D6DE285E096E084
:1016A0000995EC0144275527BA014C195D096E09CB
:1016B0007F092AE085E096E00E94F10A8C0F9D1FC9
:1016C000DF91CF91FF90EF90DF90CF9008952AE0C7
:1016D000B701A60185E096E0DF91CF91FF90EF90F2
:1016E000DF90CF900C94F10A1F920F920FB60F92D9
:1016F00011242F933F934F935F936F937F938F9317
:101700009F93AF93BF93EF93FF9385EB94E00E9479
:10171000C907FF91EF91BF91AF919F918F917F91F9
:101720006F915F914F913F912F910F900FBE0F904E
:101730001F9018951F920F920FB60F9211242F939E
:101740008F939F93EF93FF93E091C504F091C604AC
:101750008081E091CB04F091CC0482FD12C0908195
:101760008091CE048F5F8F732091CF04821751F048
:10177000E091CE04F0E0EB54FB4F958F8093CE04C4
:1017800001C08081FF91EF919F918F912F910F90D8
:101790000FBE0F901F901895833081F028F4813090
:1017A00099F08230A1F008958730A9F08830B9F01F
:1017B0008430D1F4809180008F7D03C080918000BF
:1017C0008F7780938000089584B58F7702C084B5A9
:1017D0008F7D84BD08958091B0008F7703C0809184
:1017E000B0008F7D8093B00008950895DF92EF924E
:1017F000FF920F931F93CF93DF93282F30E0F901CF
:10180000EE0FFF1FEA58FF4FA591B4910C91F9011B
:10181000EE5DF84FD080D0260083220F331FF901F0
:10182000E458FC4F0190F081E02D9081D922C9F15C
:10183000182F110F110F110FE12CF12CC1E0D0E086
:101840009E010E2C01C0220F0A94EAF78D2D8223EF
:1018500009F1E12FEE0DF0E0EE0FFF1FDF01AE50BA
:10186000B94F8D919C918130910551F08330910554
:1018700019F4202329F40EC0029761F4202351F4B7
:10188000EE53F94F80819181892B21F00190F081F5
:10189000E02D09958FEFE81AF80A88E0E816F104C0
:1018A00079F6DF91CF911F910F91FF90EF90DF902C
:1018B0000895FC0177FD68C08085918568177907D8
:1018C0000CF062C057FD60C08285938548175907A8
:1018D0000CF05AC08589823059F08330B1F08130E4
:1018E000D1F48FE290E0861B970BBA01AC0113C0D4
:1018F00083E590E0FC01E61BF70BBF018FE290E06F
:10190000FC01E41BF50BAF0106C083E590E0841BEE
:10191000950BAB01BC0164357105B0F54033510541
:1019200098F5CA01E3E095958795EA95E1F7477048
:101930005527232BA1F024E5289FF001299FF00DC6
:1019400011246E0F7F1FFB01E35EFE4F81E090E0EC
:1019500001C0880F4A95EAF79081892B14C024E5CD
:10196000289FF001299FF00D11246E0F7F1FFB01AE
:10197000E35EFE4F81E090E001C0880F4A95EAF7F0
:10198000809590818923808308950895FC01637078
:10199000658B8481958126813781613039F0633090
:1019A00029F09187808733872287089531872087A0
:1019B0009387828708952F923F924F925F926F9202
:1019C0007F928F929F92AF92BF92CF92DF92EF92CF
:1019D000FF920F931F93CF93DF93CDB7DEB76C9732
:1019E0000FB6F894DEBF0FBECDBF9C8F8B8F5B010F
:1019F0001A011F830E833701C982DC0158964D916D
:101A00005C9159974115510509F0E5C018968D91E3
:101A10009C911997681779070CF0CAC11A968D9195
:101A20009C911B97281639060CF0C2C18C2C912C66
:101A3000FB0136E0C39EE00DF11D1124FB87EA8710
:101A40001E161F060CF0B4C1C40133E0880F991FA5
:101A50003A95E1F79D878C87820D931D181619061C
:101A60000CF0A6C157968C91811103C0203B08F061
:101A70002F5FAB8DBC8DED91FC9111970284F385A6
:101A8000E02DCD012A8F09952A8DB5E02B9F90017D
:101A90001124F5013596FF87EE87BB82AA822501C6
:101AA000A9014A195B09598B488BC10108969B8B88
:101AB0008A8BE889F989E40DF51DE255FF4F949171
:101AC000988761013D822C82A885A0FF13C0AB8D51
:101AD000BC8DED91FC91B981B13031F40484F58570
:101AE000E02D2E813F8116C00684F785E02DEE8023
:101AF000FF801AC0EE81FF816E167F06F1F0AB8D7C
:101B0000BC8DED91FC91B981B13051F40484F5851F
:101B1000E02D9301A601B2018B8D9C8D09950DC01E
:101B20000684F785E02D7301840194014C815D8169
:101B30006A817B818B8D9C8D0995E885E695E88788
:101B4000FFEFCF1ADF0A2C813D81280D391D3D831F
:101B50002C834A895B89C416D50609F0B5CF5FEF9F
:101B6000451A550A8A819B81880D991D9B838A831A
:101B7000AE85BF854A165B0609F09BCFEE81FF81DB
:101B80006E167F0609F4F2C0EB8DFC8DA081B18149
:101B9000F981F13079F4B5016B5F7F4F5096ED918B
:101BA000FC915197830128E030E0A1018B8D9C8D41
:101BB0000995DCC06A857B85681979091E96ED91C7
:101BC000FC911F9773010C851D859401A1018B8DDC
:101BD0009C8D0995CBC0FA0134969491329765910A
:101BE0007491291BCB01B7E02B9F800D911D11240F
:101BF000FA01259134913B8B2A8BFC01459154913C
:101C00005B834A83FC013296C490319654915E877F
:101C1000329614913196D4908981823058F0612E99
:101C2000012E000C7708AD2D0D2C000CBB0BB987D5
:101C3000A88704C019861886612C712CAB8DBC8DC9
:101C4000ED91FC9111970284F385E02DCD0109956A
:101C5000B9818B2E912C689CC001699C900D789C59
:101C6000900D1124FC01EA0DFB1DFD87EC871C8201
:101C7000712C612CE12F110FFF0B95012E0F3F1FCF
:101C80003B872A87AC0CB11CA5014E0F5F1F5F8BF1
:101C90004E8BC1018D0D911DD7FC9A95998F888F20
:101CA0004E85641608F062C0862D90E048855985FF
:101CB000480F591F489D9001499D300D589D300D8A
:101CC0001124D901A20DB31DB98BA88BAA84BB84A2
:101CD0004C845D84DC80BA85DB1AE88DF98DE80FD1
:101CE000F91FFD8BEC8B8D2D8A0D2E893F89A21655
:101CF000B306B9F1877061F48A819B810196EA8904
:101D0000FB89AA81BB81EA0FFB1F74909B838A83A6
:101D100077FE20C0AB8DBC8DED91FC91B981B130C7
:101D200061F40484F585E02D2E813F814C895D8925
:101D3000B5018B8D9C8D09950DC00684F785E02D2E
:101D4000EE80FF808401940148895989B2018B8D0E
:101D50009C8D0995770CEFEFAE1ABE0A480C591C02
:101D6000C2CF3C813C0D3C8363949ACFAB8DBC8D3C
:101D7000ED91FC9111970688F789E02DCD016C96C5
:101D80000FB6F894DEBF0FBECDBFDF91CF911F918C
:101D90000F91FF90EF90DF90CF90BF90AF909F900A
:101DA0008F907F906F905F904F903F902F9009940D
:101DB0006C960FB6F894DEBF0FBECDBFDF91CF910A
:101DC0001F910F91FF90EF90DF90CF90BF90AF9059
:101DD0009F908F907F906F905F904F903F902F904B
:101DE0000895AF92BF92CF92EF92FF920F931F93FD
:101DF000CF93DF93EC01262F888D998D009709F002
:101E000040C06A3059F41D861C862C898E859F85BA
:101E100038E0239F800D911D112441C06D3009F4DD
:101E2000AAC08E898823C1F03C898C859D8546E0B7
:101E3000349F800D911D11244885598548175907F5
:101E40005CF41D861C868E859F8548E0349F800D3E
:101E5000911D11249F878E87EA88FB88088919893C
:101E60004E855F856C857D85CC88CE010E94DB0C1C
:101E70002C898C859D8536E0239F800D911D112432
:101E800042C06A3079F41D861C862C89FC01369686
:101E9000E4918E859F852E9F800D911D11249F8733
:101EA0008E8769C06D3009F466C0FC0134963491A8
:101EB000631708F460C03196E491E61708F45BC03C
:101EC000FC013296A590B490462F50E0431B510977
:101ED00037E0349FB001359F700D1124A60EB71E58
:101EE000F501329634913196E491332311F0E111EA
:101EF0000DC0F5013496E4912C898C859D85E29F77
:101F0000800D911D11249D878C8735C0F501359674
:101F100044915E89552311F16C89E32FF0E0E40FC1
:101F2000F11D47FDFA956E9FD0016F9FB00D1124F2
:101F30004C855D854A0F5B1FE885F985E417F50739
:101F40006CF41D861C86FC013696E4918E859F8577
:101F50006E9F800D911D11249F878E87EA88FB88D4
:101F6000088919894E855F856C857D85CC88CE0171
:101F70000E94DB0CBECF81E090E0DF91CF911F91FA
:101F80000F91FF90EF90CF90BF90AF9008956F9218
:101F90007F928F929F92AF92BF92CF92DF92EF92F9
:101FA000FF920F931F93CF93DF93EC014B015A01E4
:101FB00069013801E881F9810284F385E02D0995F2
:101FC000E881F9810288F389E02D87019601A50156
:101FD000B401CE010995E881F981A501460D571D8F
:101FE000415051090288F389E02D9601B401CE01D8
:101FF0000995E881F9810088F189E02D9301A50117
:10200000B401CE010995E881F981C80CD91CB6014B
:10201000615071090088F189E02D9301A501CE017D
:102020000995E881F9810688F789E02DCE01DF91D5
:10203000CF911F910F91FF90EF90DF90CF90BF90C5
:10204000AF909F908F907F906F900994CF92DF9286
:10205000EF92FF920F931F93CF93DF9300D000D0A6
:1020600000D0CDB7DEB76C01DC01ED91FC916217B9
:10207000730789F4041715072CF4942F852FA801F2
:10208000092F182F041B150B98012F5F3F4F048C4D
:10209000F58DE02D12C04017510709F526173707B7
:1020A0002CF4962F872FB901292F382F261B370B99
:1020B0002F5F3F4F068CF78DE02D8701C6010995F4
:1020C00026960FB6F894DEBF0FBECDBFDF91CF913D
:1020D0001F910F91FF90EF90DF90CF9008950284B1
:1020E000F385E02D2D833E834B835C8369837A8364
:1020F0000995D601ED91FC910488F589E02D2D819B
:102100003E814B815C8169817A81C6010995D60146
:10211000ED91FC910688F789E02DC60126960FB651
:10212000F894DEBF0FBECDBFDF91CF911F910F910D
:10213000FF90EF90DF90CF900994EF92FF920F9372
:102140001F93DC01ED91FC9111971A960D911C9152
:102150001B9718962D913C91199700A0F1A1E02DA5
:102160007B0140E050E060E070E009951F910F9125
:10217000FF90EF9008954F925F926F927F928F92AF
:102180009F92AF92BF92CF92DF92EF92FF920F9306
:102190001F93CF93DF9300D0CDB7DEB76C015A0108
:1021A00039014801DC01ED91FC910284F385E02DB9
:1021B00069837A8309956981462E7A81572E640C4A
:1021C000751CD601ED91FC91461457046CF40088FF
:1021D000F189E02D87019401A501B201C60109959D
:1021E000BFEF4B1A5B0AEDCF0688F789E02DC601D9
:1021F0000F900F90DF91CF911F910F91FF90EF9073
:10220000DF90CF90BF90AF909F908F907F906F9016
:102210005F904F900994AF92BF92CF92DF92EF926E
:10222000FF920F931F93CF93DF9300D000D0CDB7D1
:10223000DEB75C016901DC01ED91FC910284F3855C
:10224000E02D4B835C8369837A830995D501ED91F9
:10225000FC9169817A819B012C0D3D1D2150310932
:102260000488F589E02D78014B815C818A01C501E4
:102270000995D501ED91FC910688F789E02DC501FE
:102280000F900F900F900F90DF91CF911F910F91B2
:10229000FF90EF90DF90CF90BF90AF900994AF92F6
:1022A000BF92CF92DF92EF92FF920F931F93CF9343
:1022B000DF9300D000D0CDB7DEB75C016901DC014F
:1022C000ED91FC910284F385E02D4B835C8369835F
:1022D0007A830995D501ED91FC914B815C81C40E07
:1022E000D51EB1E0CB1AD1080488F589E02D78011C
:1022F000860169817A819B01C5010995D501ED911E
:10230000FC910688F789E02DC5010F900F900F9082
:102310000F90DF91CF911F910F91FF90EF90DF9081
:10232000CF90BF90AF9009940895EF92FF920F93D2
:102330001F93DC01ED91FC9100A0F1A1E02D099526
:102340001F910F91FF90EF9008950F931F93DC0161
:10235000ED91FC91068CF78DE02D09951F910F9161
:1023600008950F931F93DC01ED91FC91048CF58D82
:10237000E02D09951F910F910895DC01ED91FC91DD
:102380000084F185E02D099408952F923F924F9299
:102390005F926F927F928F929F92AF92BF92CF92F5
:1023A000DF92EF92FF920F931F93CF93DF9300D0B2
:1023B0001F92CDB7DEB74C017B836A836A01590156
:1023C00017019801241B350B37FF03C03195219568
:1023D0003109C5014A815B81841B950B97FF03C0BE
:1023E00091958195910951E059838217930714F0D3
:1023F00019820BC09A2D8B2D5801092F182F9A8105
:102400008B81DB82CA82C92ED82E8A819B81A81635
:10241000B9065CF49C2D8D2D6801092F182F9A8127
:102420008B81BB82AA82A92EB82E2501AA81BB81ED
:102430004A1A5B0A38016C187D0877FE03C0719454
:1024400061947108720157FE03C0BFEFEB1AFB0ADB
:10245000F594E794C016D1061CF00FEF1FEF1FC0D4
:1024600001E010E01CC0D401ED91FC91B98104841D
:10247000F585E02D9101BB23C1F04A815B81B60156
:10248000C4010995E618F708F7FE04C0C00ED11E76
:10249000E40CF51CEA81FB813196FB83EA834A81D7
:1024A0005B81A416B506FCF604C0A6016A817B8197
:1024B000E7CF0F900F900F90DF91CF911F910F9169
:1024C000FF90EF90DF90CF90BF90AF909F908F9054
:1024D0007F906F905F904F903F902F9008950E9453
:1024E0009C2CCF93DF93282F30E0F901E255FA4F6F
:1024F0008491F901E656FF4FD491F901EA57FF4F55
:10250000C491CC2391F081110E94CC0BEC2FF0E010
:10251000EE0FFF1FEE58FF4FA591B491EC91ED2304
:1025200081E090E021F480E002C080E090E0DF9163
:10253000CF9108951F93CF93DF93282F30E0F901B7
:10254000E255FA4F8491F901E656FF4FD491F90113
:10255000EA57FF4FC491CC23C9F0162F81110E9476
:10256000CC0BEC2FF0E0EE0FFF1FE458FF4FA591CE
:10257000B4918FB7F894111105C09C91ED2FE0959F
:10258000E92302C0EC91ED2BEC938FBFDF91CF914B
:102590001F910895CF93DF9390E0FC01E656FF4F23
:1025A0002491FC01EA57FF4F8491882361F190E068
:1025B000880F991FFC01E859FF4FC591D491FC0188
:1025C000E458FF4FA591B491611109C09FB7F894E9
:1025D0008881209582238883EC912E230BC0623062
:1025E00061F49FB7F8943881822F80958323888384
:1025F000EC912E2B2C939FBF06C08FB7F894E881E7
:102600002E2B28838FBFDF91CF9108953FB7F89489
:102610008091330790913407A0913507B091360728
:1026200026B5A89B05C02F3F19F00196A11DB11D2D
:102630003FBFBA2FA92F982F8827820F911DA11D68
:10264000B11DBC01CD0142E0660F771F881F991FA5
:102650004A95D1F708958F929F92AF92BF92CF92F1
:10266000DF92EF92FF926B017C010E9406134B01F7
:102670005C01C114D104E104F104F1F00E940613DD
:10268000DC01CB0188199909AA09BB09883E93404E
:10269000A105B10570F321E0C21AD108E108F108E3
:1026A00088EE880E83E0981EA11CB11CC114D104D1
:1026B000E104F10419F7DDCFFF90EF90DF90CF90A8
:1026C000BF90AF909F908F9008952FB7F89460912E
:1026D0002F077091300780913107909132072FBFFB
:1026E00008951F920F920FB60F9211242F933F93CC
:1026F0008F939F93AF93BF9380912F079091300753
:10270000A0913107B091320730912E0723E0230FBB
:102710002D3720F40196A11DB11D05C026E8230F19
:102720000296A11DB11D20932E0780932F07909331
:102730003007A0933107B09332078091330790910F
:102740003407A0913507B09136070196A11DB11D40
:102750008093330790933407A0933507B0933607DF
:10276000BF91AF919F918F913F912F910F900FBE8D
:102770000F901F9018951F920F920FB60F92112471
:102780002F933F934F935F936F937F938F939F9379
:10279000AF93BF93EF93FF93E0911703F09118036A
:1027A0000995FF91EF91BF91AF919F918F917F918B
:1027B0006F915F914F913F912F910F900FBE0F90AE
:1027C0001F9018951F920F920FB60F9211242F93FE
:1027D0003F934F935F936F937F938F939F93AF93A9
:1027E000BF93EF93FF93E0911503F09116030995C2
:1027F000FF91EF91BF91AF919F918F917F916F91D9
:102800005F914F913F912F910F900FBE0F901F90AE
:1028100018951F920F920FB60F9211242F933F938A
:102820004F935F936F937F938F939F93AF93BF93D8
:10283000EF93FF93E0912907F0912A070995FF9103
:10284000EF91BF91AF919F918F917F916F915F9128
:102850004F913F912F910F900FBE0F901F901895A1
:102860001F920F920FB60F9211242F933F934F9305
:102870005F936F937F938F939F93AF93BF93EF93E8
:10288000FF9382E00E94F60BFF91EF91BF91AF9111
:102890009F918F917F916F915F914F913F912F9178
:1028A0000F900FBE0F901F9018951F920F920FB6AA
:1028B0000F9211242F933F934F935F936F937F93C6
:1028C0008F939F93AF93BF93EF93FF9381E00E9409
:1028D000F60BFF91EF91BF91AF919F918F917F91F7
:1028E0006F915F914F913F912F910F900FBE0F907D
:1028F0001F9018951F920F920FB60F9211242F93CD
:102900003F934F935F936F937F938F939F93AF9377
:10291000BF93EF93FF9380E00E94F60BFF91EF913E
:10292000BF91AF919F918F917F916F915F914F91E7
:102930003F912F910F900FBE0F901F9018951F92EF
:102940000F920FB60F9211242F933F934F935F93E3
:102950006F937F938F939F93AF93BF93EF93FF9367
:10296000E0912C07F0912D070995FF91EF91BF9110
:10297000AF919F918F917F916F915F914F913F9117
:102980002F910F900FBE0F901F901895FC01F89497
:10299000248135818085823021F4C9018170992795
:1029A00005C0843031F4C9018370992795838483ED
:1029B00002C01582148278948085843029F435957C
:1029C00027953595279504C0823011F435952795C4
:1029D0008685882329F081859285892F992702C0D1
:1029E00080E090E037FF03C0809590950895232BF9
:1029F00011F00196089580E090E00895CF93CFB74D
:102A0000F89480912B07811127C0E0E9F0E08491D0
:102A1000E4EAF0E09491E82FF0E0EE0FFF1FE859B0
:102A2000FF4FA591B491EC91E92321F461E08AE094
:102A30000E949A1261E08AE00E94CA128CB58061FD
:102A40008CBD8CB580648CBD61E08DE00E94CA12A3
:102A500061E08BE00E94CA1280912B078F5F809308
:102A60002B07CFBFCF91089585ED8093BC00809157
:102A7000BC0084FDFCCF10928E040895409159074C
:102A8000262F30E0240F311D21323105DCF4209156
:102A90008E042430C9F4FC0180E090E0861758F4DD
:102AA000309159072191DC01A95CB84FA30FB11DEA
:102AB0002C930196F3CF80915907680F60935907C3
:102AC00080E0089581E0089582E008950895E091FE
:102AD000470480914604E81730F4F0E0E85BFB4FD0
:102AE000808190E008958FEF9FEF089590914704C3
:102AF00080914604981750F4E92FF0E0E85BFB4F13
:102B0000208130E09F5F9093470402C02FEF3FEF9A
:102B1000C90108958091460490E020914704821BEA
:102B200091090895CF92DF92EF92FF920F931F9336
:102B3000CF93DF937C01262F972F8A018091B104D8
:102B4000882391F0C62FD72F6E01C40ED51ECC1549
:102B5000DD0571F06991D701ED91FC910190F08153
:102B6000E02DC7010995F3CF642F822F0E943E15F7
:102B7000C801DF91CF911F910F91FF90EF90DF90EF
:102B8000CF900895CF93DF931F92CDB7DEB76983BF
:102B90002091B1042223D1F02091AF04203240F0E3
:102BA00021E030E0FC013383228380E090E015C017
:102BB0008091B004E82FF0E0E157FB4F99819083BA
:102BC0008F5F8093B0048093AF0405C061E0CE01B5
:102BD00001960E943E1581E090E00F90DF91CF9129
:102BE0000895089580E090E008951F920F920FB627
:102BF0000F9211242F933F934F935F936F937F9383
:102C00008F939F93AF93BF93EF93FF938091B900FE
:102C1000887F803609F49CC068F5883209F45BC06F
:102C200090F4803109F454C038F4882309F4F6C0D4
:102C3000883009F44DC0F6C0883109F44CC08032A8
:102C400009F45DC0EFC0803409F468C048F48033F3
:102C500009F455C0883309F0E5C080938C04D8C0CE
:102C6000803509F44FC0883509F45DC0883409F017
:102C7000D9C0D6C0883909F4C7C0A8F4883709F488
:102C800067C038F4883609F463C0803709F460C03F
:102C9000C9C0883809F4B8C0803909F45FC08038E9
:102CA00009F0C0C05BC0803B09F486C038F4803AAC
:102CB00009F466C0883A09F47FC0B4C0803C09F4C6
:102CC000A7C0883C09F4A4C0883B09F48AC0AAC004
:102CD0008091690410C090918B0480918A049817A8
:102CE00070F5E0918B0481E08E0F80938B04F0E00F
:102CF000E659FB4F80818093BB0085EC86C08093B2
:102D00008C048EC0E0918B0481E08E0F80938B0445
:102D10008091BB00F0E0E659FB4F808390918B04DB
:102D200080918A046EC0E0918B0481E08E0F8093C5
:102D30008B048091BB00F0E0E659FB4F80838091CB
:102D40008D0481116DC081E08093680484EA61C0C4
:102D500083E080938E0410927D07CFCF80917D0712
:102D6000803208F051C0E0917D0781E08E0F8093A2
:102D70007D078091BB00F0E0E35AF84F8083BDCF20
:102D800085EC8093BC0010928E0480917D07803288
:102D900030F4E0917D07F0E0E35AF84F1082609143
:102DA0007D0770E0E0915B07F0915C078DE597E0AF
:102DB000099510927D0736C084E080938E041092AE
:102DC0005A0710925907E0915707F0915807099553
:102DD00080915907811105C081E0809359071092B5
:102DE0003707E0915A0781E08E0F80935A07F0E091
:102DF000E95CF84F80818093BB0090915A078091E5
:102E00005907981708F479CF85E88093BC000AC069
:102E100085EC8093BC0010928E0404C010928C0448
:102E20000E943415FF91EF91BF91AF919F918F91C7
:102E30007F916F915F914F913F912F910F900FBEB6
:102E40000F901F9018950F931F93CF93DF9300D08F
:102E500000D000D0CDB7DEB781E0809319060E9484
:102E6000320A81E090E09093160680931506109246
:102E70001806109217068FE090E090931206809348
:102E80001106109214061092130669ED73E085E0A6
:102E900096E00E94C90A01E010E023E530E04AE034
:102EA00050E060E070E085E096E00E940B118091B8
:102EB0001B0390911C038130910501F5809119034A
:102EC00090911A03019709F053C16AE576E0CE01AB
:102ED00001960E949A0A41E06FE070E0CE010196EF
:102EE0000E941427CE0101960E94950A64E576E0BF
:102EF000CE0101960E949A0A40E023C082309105DB
:102F000069F58091190390911A038130910509F0B8
:102F1000A8C06AE576E0CE0101960E949A0A40E0D8
:102F20006FE070E0CE0101960E941427CE01019659
:102F30000E94950A64E576E0CE0101960E949A0A05
:102F400041E069E170E0CE0101960E941427CE01B4
:102F500001960E94950A6EE476E0FBC083309105ED
:102F600069F58091190390911A038130910509F058
:102F70005BC06AE576E0CE0101960E949A0A40E0C5
:102F80006FE070E0CE0101960E941427CE010196F9
:102F90000E94950A64E576E0CE0101960E949A0AA5
:102FA00040E069E170E0CE0101960E941427CE0155
:102FB00001960E94950A6EE476E030C08430910557
:102FC00009F0E3C08091190390911A0382309105B2
:102FD00009F00CC164E576E0CE0101960E949A0AE0
:102FE00040E06FE070E0CE0101960E941427CE0110
:102FF00001960E94950A6EE476E0CE0101960E9449
:103000009A0A40E069E170E0CE0101960E9414271F
:10301000CE0101960E94950A68E476E0CE01019601
:103020000E949A0A41E09AC08230910509F041C09D
:1030300064E576E0CE0101960E949A0A40E06FE0D6
:1030400070E0CE0101960E941427CE0101960E94E5
:10305000950A6EE476E0CE0101960E949A0A41E05C
:103060001BC0029709F084C064E576E0CE010196AA
:103070000E949A0A41E06FE070E0CE0101960E9442
:103080001427CE0101960E94950A6EE476E0CE01E7
:1030900001960E949A0A40E069E170E0CE01019633
:1030A0000E941427CE0101960E94950A68E476E0FA
:1030B00050C0039709F05CC06EE476E0CE01019643
:1030C0000E949A0A41E06FE070E0CE0101960E94F2
:1030D0001427CE0101960E94950A68E476E0CE019D
:1030E00001960E949A0A40E069E170E0CE010196E3
:1030F0000E941427CE0101960E94950A62E476E0B0
:1031000028C08430910509F029C168E476E0CE0139
:1031100001960E949A0A40E06FE070E0CE010196AD
:103120000E941427CE0101960E94950A62E476E07F
:10313000CE0101960E949A0A41E069E170E0CE0159
:1031400001960E941427CE0101960E94950A6CE315
:1031500076E0CE0101960E949A0A40E063E270E0B8
:10316000CE0101960E941427CE0101960E94950A75
:103170000E94F30926960FB6F894DEBF0FBECDBFAE
:10318000DF91CF911F910F9108958530910509F03E
:103190004AC08091190390911A038330910509F078
:1031A000B0CF6EE476E0CE0101960E949A0A40E02C
:1031B0006FE070E0CE0101960E941427CE010196C7
:1031C0000E94950A68E476E0CE0101960E949A0A70
:1031D00040E069E170E0CE0101960E941427CE0123
:1031E00001960E94950A62E476E018CF833091053B
:1031F00009F04AC06EE476E0CE0101960E949A0A78
:1032000040E06FE070E0CE0101960E941427CE01ED
:1032100001960E94950A68E476E0CE0101960E942C
:103220009A0A41E061CF8630910509F049C080914A
:10323000190390911A038430910509F072C068E473
:1032400076E0CE0101960E949A0A40E06FE070E0BD
:10325000CE0101960E941427CE0101960E94950A84
:1032600062E476E0CE0101960E949A0A40E069E1AC
:1032700070E0CE0101960E941427CE0101960E94B3
:10328000950A6CE376E0CACE049709F071CF68E442
:1032900076E0CE0101960E949A0A41E06FE070E06C
:1032A000CE0101960E941427CE0101960E94950A34
:1032B00062E476E0CE0101960E949A0A40E03DCF9A
:1032C0008730910509F072C08091190390911A031B
:1032D0008530910509F09BC062E476E0CE0101964D
:1032E0000E949A0A40E06FE070E0CE0101960E94D1
:1032F0001427CE0101960E94950A6CE376E0CE0178
:1033000001960E949A0A40E069E170E0CE010196C0
:103310000E941427CE0101960E94950A66E376E08A
:103320007DCE8530910509F08FC062E476E0CE0154
:1033300001960E949A0A40E06FE070E0CE0101968B
:103340000E941427CE0101960E94950A6CE376E054
:10335000CE0101960E949A0A41E01BC0059709F030
:1033600007CF62E476E0CE0101960E949A0A41E01E
:103370006FE070E0CE0101960E941427CE01019605
:103380000E94950A6CE376E0CE0101960E949A0AAB
:1033900040E069E170E0CE0101960E941427CE0161
:1033A00001960E94950A66E376E0D3CE88309105B7
:1033B00009F072C08091190390911A03863091052B
:1033C00009F099C06CE376E0CE0101960E949A0A5A
:1033D00040E06FE070E0CE0101960E941427CE011C
:1033E00001960E94950A66E376E0CE0101960E945E
:1033F0009A0A40E069E170E0CE0101960E9414272C
:10340000CE0101960E94950A60E376E007CE8630F1
:10341000910509F08CC06CE376E0CE0101960E9424
:103420009A0A40E06FE070E0CE0101960E941427F6
:10343000CE0101960E94950A66E376E0CE010196E0
:103440000E949A0A41E01BC0069709F091CE6CE3F6
:1034500076E0CE0101960E949A0A41E06FE070E0AA
:10346000CE0101960E941427CE0101960E94950A72
:1034700066E376E0CE0101960E949A0A40E069E197
:1034800070E0CE0101960E941427CE0101960E94A1
:10349000950A60E376E05DCE099709F069CE8091E8
:1034A000190390911A03079709F062CE66E376E05C
:1034B000CE0101960E949A0A40E06FE070E0CE01D2
:1034C00001960E941427CE0101960E94950A60E39E
:1034D00076E0CE0101960E949A0A40E069E170E030
:1034E000CE0101960E941427CE0101960E94950AF2
:1034F0006AE276E093CD079709F03ACE66E376E08C
:10350000CE0101960E949A0A40E06FE070E0CE0181
:1035100001960E941427CE0101960E94950A60E34D
:1035200076E0CE0101960E949A0A41E01BC00797FF
:1035300009F01ECE66E376E0CE0101960E949A0A5B
:1035400041E06FE070E0CE0101960E941427CE01A9
:1035500001960E94950A60E376E0CE0101960E94F2
:103560009A0A40E069E170E0CE0101960E941427BA
:10357000CE0101960E94950A6AE276E0EACD8F922A
:103580009F92AF92BF92CF92DF92EF92FF92CF9332
:10359000DF9310929605109297051092980510925D
:1035A00099051092540510925505109256051092E7
:1035B00057050E9465136B017C014B015C0128EBF0
:1035C000820E2BE0921EA11CB11C0E9465136C158B
:1035D0007D058E059F0528F086169706A806B90674
:1035E000A0F785EB94E090939505809394050E9455
:1035F00064090E9465136093540570935505809388
:1036000056059093570563EE73E080919405909171
:1036100095050E94C90A0E9465136B017C014B014C
:103620005C018AE0880E911CA11CB11C0E946513EC
:103630006C157D058E059F0528F086169706A80651
:10364000B906A0F781E080936805809162068160E9
:1036500080936206809160068E7F809360060E9450
:10366000A108809162068260809362068091600664
:103670008D7F809360060E94A1088091620684601D
:1036800080936206809160068B7F809360060E9423
:10369000A10880916206886080936206809160062E
:1036A000877F809360060E94A108809162068F7DCB
:1036B00080936206809160068062809360060E941B
:1036C000A108809162068F7D8093620680916006DA
:1036D0008F7D809360060E94A108809162068F7B97
:1036E00080936206809160068064809360060E94E9
:1036F000A108809162068F7B8093620680916006AC
:103700008F7B809360060E94A1088091620680688A
:1037100080936206809160068F77809360060E9496
:10372000A108109260060E94A10882E080936606BC
:1037300062E00E94CA12ECE9F0E02491E8E8F0E0CF
:10374000E491EE2309F447C0E250AE2FB0E0AA0F97
:10375000BB1FA458BC4F0D90BC91A02DE13031F09F
:103760008E2F880F880F880F8E5F01C08CEF90E03E
:10377000880F991FEC01CE50D94F42E050E0598399
:103780004883EC01CE53D94F42EC54E2598348832D
:103790008C91282B2C932091680081E090E001C04F
:1037A000880FEA95EAF7822B80936800E6E7F0E05D
:1037B000A591B4918C9180932207E8E7F0E0A59160
:1037C000B4918C9180932307EAE7F0E0A591B4913E
:1037D0008C918093240782E080936C062BEB34E27B
:1037E00030937A062093790680936D0686EB94E2F7
:1037F00090937C0680937B068FE090E00E94A52A40
:10380000EC0180E188838FE0898381E18A831B82D8
:103810001D821C821F821E8281E088871A8619867B
:103820001C861B868D878E8762E080E10E94CA120B
:1038300062E089810E94CA1262E08A810E94CA12F3
:1038400088810E9471122B8130E08217930721F446
:1038500083E090E09F838E8389810E9471122B8187
:1038600030E08217930731F48E819F8121E0822717
:103870009F838E83D0939907C093980710928000FE
:1038800080E18093810021E0209327078FB7809308
:103890002807F89480E49FE19093260780932507FA
:1038A0009093870080938600809128078FBF809136
:1038B0008100887F8093810090918100809127070B
:1038C000982B9093810047E056E250932A0740934B
:1038D000290720936F0090918100892B80938100AC
:1038E00080919807909199070E94C61490937F0742
:1038F00080937E0780911F068F3F09F07CC09091D6
:1039000020069F3F09F077C00E94FE148CB58C7F83
:103910008CBD8DB58E7F8DBD8CB5837F8CBD8CB5F8
:103920008F7D8CBD61E0809121060E94CA1280913A
:10393000220618161CF461E00E94CA128091230628
:1039400018161CF461E00E94CA1280912206181613
:1039500074F460E00E949A1264EF71E080E090E0FD
:103960000E942B1361E0809122060E949A1281E24C
:103970000E94D80984E10E94D80988EA0E94D809E7
:1039800080E20E94D8098CE00E94D8090E94F309C5
:103990000E94320A0E94320A1092120610921106F8
:1039A000109214061092130684EF93E00E94DE0A30
:1039B00085EF93E00E94DE0A84E094E00E94DE0A34
:1039C00082E194E00E94DE0A0E94F30968EB7BE04A
:1039D00080E090E00E942B1310929F0710929E07A8
:1039E000DF91CF91FF90EF90DF90CF90BF90AF909D
:1039F0009F908F90089561E00E94CA1261E08091CB
:103A000020060E94CA1280912006082E000C990BF5
:103A1000FC01EA57FF4FE491F0E0EE0FFF1FE4587E
:103A2000FF4F259134913093270620932606FC0101
:103A3000E656FF4FE491E093290680911F06082E79
:103A4000000C990BFC01EA57FF4FE491F0E0EE0FF8
:103A5000FF1FE458FF4F25913491309325062093A2
:103A60002406FC01E656FF4FE491E09328065ACF66
:103A700080E28093630610924704109246041092ED
:103A8000B0041092AF0410928E0481E080938D04F4
:103A90001092680461E082E10E949A1261E083E181
:103AA0000E949A128091B9008E7F8093B900809114
:103AB000B9008D7F8093B90088E48093B80085E4D5
:103AC0008093BC000E940D09809162068061809302
:103AD0006206809160068F7E809360060E94A10836
:103AE0008EE991E00E94022A882321F080916006ED
:103AF000806103C0809160068F7E809360060C9485
:103B0000A108AF92BF92CF92DF92EF92FF920F93F4
:103B10001F93CF93DF938091A6058823F1F00E9435
:103B200065130091A7051091A8052091A905309172
:103B3000AA05DC01CB01801B910BA20BB30B0091FA
:103B4000AB051091AC052091AD053091AE05801705
:103B50009107A207B30708F0B0C38091980790912E
:103B600099070E94C6142091800730918107820F27
:103B7000931F909381078093800797FD01969595F9
:103B8000879520917E0730917F072817390744F4E5
:103B900090937F0780937E0781E0809382070AC01D
:103BA000821793076CF490937F0780937E0781E0E0
:103BB0008093830766E970E080E090E00E942B1319
:103BC000E0919807F0919907838594852385348542
:103BD0002330310511F014861386009729F00597DC
:103BE00019F481E08093840780918307882309F486
:103BF00083C020912003309121032130310509F049
:103C000066C01092830780911B0390911C03823041
:103C1000910541F44091190350911A034230510526
:103C2000C9F50CC08330910571F4209119033091CE
:103C30001A032330310571F522E030E030931A0386
:103C40002093190327C08430910551F42091190362
:103C500030911A032430310569F523E030E026C0A5
:103C60008530910551F42091190330911A032530C4
:103C7000310501F524E030E019C08630910551F49A
:103C80002091190330911A032630310599F425E06B
:103C900030E00CC08730910569F420911903309110
:103CA0001A032730310531F426E030E030931A034F
:103CB0002093190390931F0380931E03019711F41F
:103CC00081E090E090931C0380931B0315C0223089
:103CD000310591F480911B0390911C038130910573
:103CE00019F41092830708C082309105D1F3833014
:103CF0009105B9F30497A9F380918207882309F409
:103D000089C080912003909121038130910509F0B1
:103D10006DC01092820780911B0390911C03833029
:103D2000910569F420911E0330911F032230310563
:103D300009F048C02091190330911A033DC0843026
:103D4000910541F420911E0330911F03233031056A
:103D5000C9F5F0CF8530910541F420911E033091D3
:103D60001F032430310571F5E5CF8630910541F40C
:103D700020911E0330911F032530310519F5DACF4C
:103D80008730910541F420911E0330911F032630A6
:103D90003105C1F4CFCF88309105A1F420911E03E5
:103DA00030911F032730310569F4209119033091B8
:103DB0001A032730310531F02F5F3F4F30931A033C
:103DC0002093190390931F0380931E039C012F5F80
:103DD0003F4F2A30310529F030931C0320931B03F9
:103DE00019C090931C0380931B0314C0029791F495
:103DF00080911B0390911C038130910519F410925E
:103E0000820708C082309105D1F383309105B9F360
:103E10000497A9F380918407882391F11092840775
:103E200080919E0790919F078130910539F081E044
:103E300090E090939F0780939E0722C020912003DB
:103E4000309121032130310569F480911B03909159
:103E50001C038130910509F040C210929F07109217
:103E60009E0753C22230310559F420911B03309133
:103E70001C032930310521F4909321038093200302
:103E800080919E0790919F078130910509F4B8C1F8
:103E90008230910509F4C7C1892B09F046C20E94FE
:103EA000320A81E0809319061092120610921106D0
:103EB000109214061092130668E185E096E00E94C5
:103EC000F10E109212061092110689E290E0909382
:103ED00014068093130669E185E096E00E94F10ED6
:103EE000109212061092110684E190E0909314064D
:103EF000809313066DE385E096E00E94F10EEE24B8
:103F0000E394F12C00E010E022E130E040E050E0EA
:103F10006AE070E085E096E00E9426100FE210E073
:103F20002DE030E040E050E06DE070E085E096E0AC
:103F30000E94261022E130E040E050E062E170E0B3
:103F400085E096E00E94261022E130E04FE250E04A
:103F50006AE070E085E096E00E9426100BE010E039
:103F60002DE030E04BE050E06CE070E085E096E062
:103F70000E94261007E110E02DE030E047E150E01C
:103F80006AE070E085E096E00E94261003E210E00F
:103F90002DE030E043E250E06CE070E085E096E038
:103FA0000E94261020919A0730919B0740919C0710
:103FB00050919D07AEE2B0E00E944E2A24E130E02D
:103FC00040E050E00E942C2A6901C0E0D0E04EE2BF
:103FD000A42EB12CCC15DD058CF5EE24E394F12C48
:103FE000C731D10569F0C332D10589F0CB30D10595
:103FF000B9F403E210E022E130E043E250E00DC00A
:1040000007E110E022E130E047E150E006C00BE0BC
:1040100010E022E130E04BE050E060E170E008C0E9
:10402000A5014C1B5D0B8A0122E130E06DE070E0E0
:1040300085E096E00E9426102196CCCFC4E1D0E026
:10404000D0931206C0931106109214061092130614
:1040500084E190E00E943A0B67E274E085E096E02C
:104060000E94C90A20919A0730919B0740919C07B2
:1040700050919D07A4E6B0E00E944E2A24E130E072
:1040800040E050E00E942C2A6901D0931206C093B0
:10409000110687E190E09093140680931306C901FE
:1040A0000E943A0B6AE274E085E096E00E94C90A39
:1040B00082E080931906D0931206C093110682E223
:1040C00090E0909314068093130640919A075091C4
:1040D0009B0760919C0770919D072AE085E096E020
:1040E0000E94F10A62EF73E085E096E00E94C90A3F
:1040F00081E0809319068BE290E090931206809302
:10410000110689E290E0909314068093130687E2EB
:1041100094E00E94DE0AEE24E394F12C00E010E02B
:1041200023E530E040E050E067E370E085E096E0B2
:104130000E94261009E210E023E530E049E250E059
:1041400067E370E085E096E00E94261027E330E008
:1041500040E050E067E370E085E096E00E942610C2
:1041600023E530E040E050E063E570E085E096E074
:104170000E942610CAE3D0E0D0931206C093110625
:1041800081E090E090931406809313066DE873E04D
:1041900085E096E00E94C90A85E6C816D104ACF015
:1041A00061E081E00E949A12D0931206C09311063A
:1041B00089E190E090931406809313066CE274E01A
:1041C00085E096E00E94C90A04C060E081E00E9498
:1041D0009A1281E090E09093160680931506109253
:1041E0001806109217068AE390E0909312068093C7
:1041F000110681E290E0909314068093130651C05B
:104200008091200390912103019709F08EC0DF91E6
:10421000CF911F910F91FF90EF90DF90CF90BF90C3
:10422000AF900C9423170E94320A00910F06109150
:10423000100620910D0630910E06EE24E394F12C29
:1042400040E050E060E070E085E096E00E94BB1046
:1042500000910F06109110060650110920910D06CD
:1042600030910E0626503109E12CF12C43E050E04C
:1042700063E070E085E096E00E94BB1083E08093ED
:10428000190688E090E090931206809311068FE063
:1042900090E0909314068093130681E394E00E94CB
:1042A000DE0ADF91CF911F910F91FF90EF90DF9089
:1042B000CF90BF90AF900C94F3090E946513609368
:1042C000A7057093A8058093A9059093AA05E0918E
:1042D000AF05F091B005099540CC0697B1F48091F7
:1042E0001D03882339F010921D034AE050E06CE171
:1042F00074E007C081E080931D0349E050E063EB68
:1043000073E08CE396E00E946A0A80911B0390910F
:104310001C03089709F0B4CD49E050E063EB73E06B
:1043200082E496E00E946A0AABCDDF91CF911F91A3
:104330000F91FF90EF90DF90CF90BF90AF900895D6
:104340002BE043E06FEF80E00E94920866E374E0A8
:104350000E944B030E94D9042CE043E06FEF80E001
:104360000E94920868E174E00E944B030E94D90405
:1043700063E081E00E948C096FE082E00C948C097C
:104380004F925F926F927F928F929F92AF92BF9265
:10439000CF92DF92EF92FF920F931F93CF93DF9311
:1043A0000E9465130091940710919507209196073C
:1043B00030919707DC01CB01801B910BA20BB30B53
:1043C000813A9B4BAD40B10590F00E94651360931C
:1043D00094077093950780939607909397070E9490
:1043E000D403811104C082E293E00E94EE0586E0CE
:1043F000B82E90E0E92E90E0F92E20E0C22E20E0C9
:10440000D22E31E2A32E21E041E060E070E087E1AE
:104410000E94980380FD99C2BA94BB2009F495C20A
:10442000E114F10421F081E090E00E94000021E01D
:1044300041E060E070E080E60E949803082F81323E
:1044400020F082EE0E94310400E021E0402F60EA7B
:1044500076E081E60E94980360E487E20E94EF0321
:104460009091A306192F1695169516951A3108F0F6
:1044700019E192FD03C087E0810F01C080E27090D6
:10448000A406C091A506D091A1069090A0068090A8
:10449000A206081739F0E114F10409F4B4CF8CE650
:1044A00090E009C09370923049F0E114F10409F4EE
:1044B000AACF8DE690E00E940000A5CF8091B304C2
:1044C000981651F08091B204D81731F08D2F90E0FA
:1044D000692D03960E941A2A072D07708091920772
:1044E0008068809392078091B20488124DC0209119
:1044F000A306822F8695869586958A3108F089E1F4
:1045000038E0839FC00111242770822B8093A3067B
:10451000E12FF0E0E056F94F17828091A40683FF67
:1045200017C0E0EAF6E0AFE7B6E08A2D01900D9201
:104530008A95E1F780918306877F80618093830667
:1045400080928006D09381068FE796E00E94D9047E
:104550008091A40684FD13C0033089F49091A506D0
:1045600021EF290F233008F0BBC04DCF913009F463
:104570005DC19A3009F479C19C3109F444CF80EAD5
:1045800096E00E94DE263FCF2FEF82128FC00330CD
:1045900009F07EC08091910782FF5DC0C73009F0AD
:1045A0005AC08091B304D81709F42DCF0E94651327
:1045B00000918D0710918E0720918F073091900701
:1045C000DC01CB01801B910BA20BB30B8031974216
:1045D000A105B10518F18091910783FD14CF909149
:1045E000B20491116AC11092930780919107877F5D
:1045F00080939107C0919307CF3F09F404CF0E94A5
:10460000651360938D0770938E0780938F07909347
:1046100090078091B404C813C093B4040E9465133A
:1046200060938D0770938E0780938F079093900708
:104630000E9465137370882799270E942B13C091DD
:10464000B40428E043E06FEF8D2F0E9492086C2F96
:104650000E943F0342C0C83009F4D5CEC431C1F432
:104660008091B304981214C00E9465137370882758
:1046700099270E942B13C091B30425E143E06FEF0B
:104680008D2F0E9492086C2F0E943F030E943704D6
:104690008091B3049812B7CE8091B204D81709F470
:1046A00050C18091910782FD40C14BC1809191071B
:1046B00082FFA9CE033079F4C851C23060F480EA99
:1046C00096E00E9480038E3F31F061E0680F80EA3F
:1046D00096E00E943F0380EA96E00E94370493CE62
:1046E000C43039F480EA96E00E9480030E94A2055B
:1046F0008ACEC830D9F4C0919107C0FF84CE80EA39
:1047000096E00E9480038F3F09F47DCE8F5F8F3F3C
:1047100009F479CE9091B404891708F074CEC1FDE4
:1047200072CE8093B404D093B3046DCEC83141F4FB
:1047300029E143E06FEF8D2F0E94920861E088CF5E
:10474000C93171F48091910783FF5DCE877F80939B
:10475000910780EA96E00E9480038093930753CEEE
:104760002091A1062111A5C09D3099F480E090E030
:10477000892B21F08BE090E00E94000098E088E116
:104780000FB6F894A895809360000FBE90936000D8
:10479000FFCF9B31A9F480EA96E00E94800391E06C
:1047A000811101C090E08091860790FB80F9809391
:1047B0008607E114F10409F426CE8AE090E07BCE6E
:1047C000963099F49091A70681E0992319F09D34D1
:1047D00009F080E08093850741E050E063E071E0FC
:1047E00085E897E00E940A2A0ECE933119F40E94C0
:1047F000E00409CE923109F0B9CE0E94DB052B010D
:104800003C0126E143E06FEF80E00E949208FC014A
:1048100084818F71806A84838381877080628383BF
:104820004782508661867286CF0140C0C114D10490
:1048300009F4E9CD829586958770853049F46091B9
:10484000A7067091A8068091A9069091AA060AC0B1
:10485000811105C087EA96E00E94AE2903C060E09E
:1048600070E0CB010E940000CECD8091A70683347A
:1048700009F0C9CDE114F10421F08DE090E00E942F
:104880000000C3E0D0E06FEFCE010E941A2A21960B
:10489000C33081E0D807B9F72AE043E06FEF80E04A
:1048A0000E9492086BE374E00E944B030E94D904BB
:1048B000AACD9A3109F063CEA6CD88608093910786
:1048C0008092930728E143E06FEF80E00E94920816
:1048D00061E00E943F030E9437040E9465132B0190
:1048E0003C011092A506C0E00E946513DC01CB01DB
:1048F00084199509A609B709803D9740A105B1051E
:1049000008F073CEC11171CE8091910784FD0E9491
:10491000C021A8958091A4068770833029F7C1E053
:104920008091A5068931F9F6DFCF80EA96E00E94F2
:104930003704033009F467CD8091B304981263CD36
:104940001ECE033009F01BCE5ECDDF91CF911F91BB
:104950000F91FF90EF90DF90CF90BF90AF909F901E
:104960008F907F906F905F904F90089510929F0767
:1049700010929E07089582E090E090939F078093A5
:104980009E0708950F931F93CF93DF938091650641
:10499000811159C081E08093650678940E940D09C9
:1049A0000FE616E0C0E0D0E02C2FD801ED91FD918C
:1049B0008D013097F1F1DE01A05AB94F17968C9115
:1049C000813031F0B0F0823049F08330E9F031C00D
:1049D0008091610690916406892723C080916406C6
:1049E00090E00C2E02C0959587950A94E2F780FF1F
:1049F00020C08091610690E002C0959587952A9528
:104A0000E2F780FD16C01DC08091640690E00C2E78
:104A100002C0959587950A94E2F780FD0AC08091BF
:104A2000610690E002C0959587952A95E2F780FD92
:104A300008C02196C830D10509F0B6CF109265069E
:104A400002C00995F6CFDF91CF911F910F91089584
:104A50000F931F93809160068860809360060E9488
:104A6000A10865E070E080E090E00E942B13809147
:104A70006006877F809360060E94A108E091FD0593
:104A8000F091FE0590818091F705892B8083E0915C
:104A9000F905F091FA0590818091F70580958923B9
:104AA00080838BE090E00197F1F7E091F905F091B8
:104AB000FA0590818091F705892B808383E290E04D
:104AC0000197F1F7E091F905F091FA059081809155
:104AD000F705809589238083E091FD05F091FE051F
:104AE00090818091F705809589238083E091FB0573
:104AF000F091FC0590818091F805892309F072C03E
:104B00000E9406132091FF0530910006890120E0E4
:104B100030E00855194E2F4F3F4FDC01CB01800F7D
:104B2000911FA21FB31F8093010690930206A093CA
:104B30000306B0930406E091FB05F091FC0590811B
:104B40008091F805892381F40E94061300910106E3
:104B500010910206209103063091040606171707EC
:104B60002807390740F73EC00E9406132091FF0531
:104B700030910006DC01CB01820F931FA11DB11DF6
:104B80008093010690930206A0930306B093040657
:104B9000E091FB05F091FC0590818091F805892357
:104BA00081F00E94061300910106109102062091E7
:104BB000030630910406061717072807390740F740
:104BC00011C00E9406132091FF0530910006255068
:104BD00031094091010650910206241B350B620FEA
:104BE000731F02C060E070E080E090E029E330E0F5
:104BF00040E050E00E942C2A20939A0730939B07B4
:104C000040939C0750939D071F910F910895CF9259
:104C1000DF92EF92FF920F931F93CF93DF93C09198
:104C20009807D09199070E9465136B017C018E85CE
:104C3000882359F089859A8502979A87898789857B
:104C40009A8597FF02C01A86198688810E94711280
:104C50002B8130E08217930711F413E001C010E0BC
:104C600089810E9471122B8130E08217930711F421
:104C700081E018278E819F81811B80FF12C0212F28
:104C8000110F330B3F832E832C813D818270082EC0
:104C9000000C990B0197820F931F9D838C8381E0F9
:104CA00001C080E09E85992361F0882351F08985B9
:104CB0009A85883E9B4028F489859A8549969A87EB
:104CC00089878A81882309F470C04091A307509195
:104CD000A4076091A5077091A60797018601041BA0
:104CE000150B260B370B0A3011052105310508F489
:104CF0005CC0C092A307D092A407E092A507F092EF
:104D0000A6070E9471122B8130E08217930781F46D
:104D10008091A1079091A20701969093A20780939A
:104D2000A1078937910520F083E090E09C878B876D
:104D30008A810E9471123B8121E0232730E0821793
:104D4000930731F58091A1079091A207892BE1F09B
:104D50008B859C85039719F484E090E008C08091CE
:104D6000A007823048F08C3378F486E090E09C878E
:104D70008B871092A00708C08D85811102C081E049
:104D800001C08CE38093A0071092A2071092A107A4
:104D90008091A007882349F082508093A007811159
:104DA00004C085E090E09C878B87DF91CF911F91B5
:104DB0000F91FF90EF90DF90CF900895CF93DF9306
:104DC000FC012581223069F5EC010E9480038111EC
:104DD00004C0809160068F7E03C080916006806170
:104DE000809360060E94A108CE010E948003882360
:104DF00021F080916006846003C0809160068B7F03
:104E0000809360060E94A108CE010E94800361E0A9
:104E1000811101C060E08EE991E0DF91CF910C94A7
:104E20001A2ADF91CF910895EF92FF920F931F936B
:104E3000CF93DF9300D000D000D0CDB7DEB78C0188
:104E4000442359F0109216061092150681E090E066
:104E500090931806809317060AC081E090E0909323
:104E600016068093150610921806109217061092D7
:104E700012061092110670931406609313066EE3E7
:104E800074E0CE0101960E94B40AF80124813581B4
:104E9000E080F1800D811E81E114F104C1F0211543
:104EA000310509F1020F131FB801CE0101960E94CE
:104EB000430A882361F029813A818D819E81B7015F
:104EC000820F931F0E94AA2C1E830D830CC0898120
:104ED0009A81009711F00E943A2B1A8219821E8241
:104EE0001D821C821B824D815E8169817A8185E0F1
:104EF00096E00E945707CE0101960E94950A2696D9
:104F00000FB6F894DEBF0FBECDBFDF91CF911F91DA
:104F10000F91FF90EF900895CF93DF93FC011082E3
:104F200011821282148215821682DC0117968AE1A0
:104F3000ED0119928A95E9F782E08383DF91CF91A1
:104F40000895789484B5826084BD84B5816084BD01
:104F500085B5826085BD85B5816085BD80916E0017
:104F6000816080936E001092810080918100826048
:104F70008093810080918100816080938100809185
:104F800080008160809380008091B1008460809374
:104F9000B1008091B00081608093B00080917A0070
:104FA000846080937A0080917A00826080937A0096
:104FB00080917A00816080937A0080917A00806885
:104FC00080937A001092C100A89580E090E0892B30
:104FD00011F00E9400000E946409809186078D7F75
:104FE000809386070E94381D41E050E063E071E045
:104FF00085E897E00E94F2296FEF81E090E00E943F
:105000001A2A809192078F788093920710928807CE
:105010001092870789E191E00E94EE0582E295E017
:1050200090934504809344040E9465130E94651385
:105030000E94CB05A8958091910782FFF7CF0E942F
:10504000BF1AA895A8950E94CB050E94811D0E94B9
:105050005308F8CFCF93DF93E5EBF4E0138212828D
:1050600088EE93E0A0E0B0E084839583A683B783C5
:1050700020E333E03183208325EC30E0358724873B
:1050800024EC30E03787268720EC30E0318B208B12
:1050900021EC30E0338B228B22EC30E0358B248BFB
:1050A00026EC30E0378B268B118E128E138E148EE9
:1050B000E2E5F5E0168217821086118612861386C5
:1050C0001486158616861786108A118A128A138A04
:1050D000148A158AEAE9F5E01382128284839583A3
:1050E000A683B78382E493E09183808380EA96E08D
:1050F0000E948C278FE796E00E948C27E0E6F6E07E
:1051000010821182128213821482158216821782F3
:105110001086118612861386148615861686108AC6
:105120001786128A118A148A138A168A158A108E93
:10513000178A128E118E148E138E168E158E62E8BB
:1051400073E08AE596E00E94B40A67E873E084E5BC
:1051500096E00E94B40A62E973E08EE496E00E9451
:10516000B40A6CE973E088E496E00E94B40A66EA47
:1051700073E082E496E00E94B40A63EB73E08CE390
:1051800096E00E94B40A6DEB73E086E396E00E941D
:10519000B40A67EC73E080E396E00E94B40A6DEC19
:1051A00073E08AE296E00E94B40AE5E0F6E013823A
:1051B000128224E530E03583248380E390E09783F6
:1051C00086833187208793878287158A1586148680
:1051D00017861686C1E0C48B8FEF9FEF938B828B6F
:1051E000918B808BC68B178A118E108E84E593E08D
:1051F0009183808386E0828F87E0838F85E0848F30
:1052000083E0858F84E0868FE2EAF0E0E491A3EF0B
:10521000B5E01496EC931497E8EAF0E0E491159663
:10522000EC9315978EE890E0FC012491E22FF0E0DA
:10523000EE0FFF1FE458FF4F2591349117963C93D2
:105240002E931697E4E9F0E0E491F0E0EE0FFF1FF3
:10525000EE58FF4F2591349119963C932E93189751
:10526000FC018491E82FF0E0EE0FFF1FE859FF4F9B
:10527000859194911B969C938E931A978DE796E156
:105280001D969C938E931C9782ED95E00E948C272F
:10529000E2EDF5E0C683D2E0D58381EB95E00E9494
:1052A0008C27E1EBF5E0D6838DE08583E6EAF5E037
:1052B000C083118212821382148288E893E1A0E0F5
:1052C000B0E085839683A783B08788E295E29287D2
:1052D0008187DF91CF9108958AE296E00E94950A36
:1052E00080E396E00E94950A86E396E00E94950A84
:1052F0008CE396E00E94950A82E496E00E94950A6B
:1053000088E496E00E94950A8EE496E00E94950A51
:1053100084E596E00E94950A8AE596E00C94950A49
:10532000FC0188279927E89421912032E9F329305C
:1053300010F02E30C8F32B3241F02D3239F468943E
:1053400004C00E94EA29820F911D219120532A3026
:10535000C0F31EF4909581959F4F08951F93FC0113
:1053600099278827BC01E89411911032E9F319308C
:1053700010F01E30C8F31B3251F01D3249F468940E
:1053800006C00E94D529610F711D811D911D1191CB
:1053900010531A30B0F33EF4909580957095619556
:1053A0007F4F8F4F9F4F1F910895592F482F372FB1
:1053B000262F660F771F881F991F660F771F881F7C
:1053C000991F620F731F841F951F660F771F881F19
:1053D000991F08957AE0979F902D879F802D910DBA
:1053E00011240895DC01CB01FC01F999FECF06C020
:1053F000F2BDE1BDF89A319600B40D924150504093
:10540000B8F70895F999FECF92BD81BDF89A992712
:1054100080B50895DC01A40FB51F4150504048F0FD
:10542000CB01840F951F2E910E941B2A41505040A2
:10543000D0F70895262FF999FECF92BD81BDF89A35
:10544000019700B4021639F01FBA20BD0FB6F894C8
:10545000FA9AF99A0FBE0895A1E21A2EAA1BBB1B55
:10546000FD010DC0AA1FBB1FEE1FFF1FA217B30730
:10547000E407F50720F0A21BB30BE40BF50B661F46
:10548000771F881F991F1A9469F76095709580950A
:1054900090959B01AC01BD01CF0108950E94902A17
:1054A000A59F900DB49F900DA49F800D911D112478
:1054B00008952F923F924F925F926F927F928F92B8
:1054C0009F92AF92BF92CF92DF92EF92FF920F9393
:1054D0001F93CF93DF93CDB7DEB7CA1BDB0B0FB69D
:1054E000F894DEBF0FBECDBF09942A88398848885A
:1054F0005F846E847D848C849B84AA84B984C884F0
:10550000DF80EE80FD800C811B81AA81B981CE0FE6
:10551000D11D0FB6F894DEBF0FBECDBFED010895CB
:10552000A29FB001B39FC001A39F700D811D1124E4
:10553000911DB29F700D811D1124911D0895EE0FD4
:10554000FF1F0590F491E02D0994CF93DF938230F3
:10555000910510F482E090E0E091A907F091AA078C
:1055600020E030E0C0E0D0E0309711F1408151817F
:1055700048175907C0F04817590761F48281938191
:10558000209719F09B838A832BC09093AA0780935E
:10559000A90726C02115310519F04217530718F441
:1055A0009A01BE01DF01EF010280F381E02DDCCF23
:1055B0002115310509F1281B390B2430310590F4F0
:1055C00012968D919C9113976115710521F0FB0145
:1055D0009383828304C09093AA078093A907FD0157
:1055E000329644C0FD01E20FF31F81939193225044
:1055F00031092D933C933AC02091A7073091A80719
:10560000232B41F420912803309129033093A807DC
:105610002093A707209126033091270321153105F8
:1056200041F42DB73EB740912A0350912B03241B20
:10563000350BE091A707F091A807E217F307A0F454
:105640002E1B3F0B2817390778F0AC014E5F5F4FD8
:105650002417350748F04E0F5F1F5093A80740935B
:10566000A7078193919302C0E0E0F0E0CF01DF91C2
:10567000CF9108950F931F93CF93DF93009709F471
:105680008CC0FC013297138212820091A9071091FD
:10569000AA070115110581F420813181820F931F22
:1056A0002091A7073091A8072817390779F5F093BB
:1056B000A807E093A70771C0D80140E050E0AE17FB
:1056C000BF0750F412962D913C911397AD0121150F
:1056D000310509F1D901F3CF9D01DA01338322832A
:1056E00060817181860F971F8217930769F4EC011F
:1056F00028813981260F371F2E5F3F4F318320834A
:105700008A819B8193838283452B29F4F093AA0796
:10571000E093A90742C01396FC93EE931297ED0114
:10572000499159919E01240F351FE217F30771F437
:1057300080819181840F951F029611969C938E9380
:105740008281938113969C938E931297E0E0F0E010
:10575000D80112968D919C911397009719F0F8013A
:105760008C01F6CF8D919C9198012E5F3F4F820F57
:10577000931F2091A7073091A8072817390769F4CC
:10578000309729F41092AA071092A90702C0138239
:1057900012821093A8070093A707DF91CF911F9162
:1057A0000F910895A0E0B0E0E8EDFBE20C945D2AD3
:1057B000EC01009721F4CB010E94A52AB8C0FC019E
:1057C000E60FF71F9C0122503109E217F30708F496
:1057D000ACC0D9010D911C91119706171707B0F0B5
:1057E0000530110508F49FC0C80104978617970774
:1057F00008F499C002501109061B170B019311936D
:105800006D937C93CF010E943A2B8DC05B01A01A4F
:10581000B10A4C01800E911EA091A907B091AA0770
:1058200040E050E0E12CF12C109709F44AC0A81593
:10583000B905D1F56D907C901197630182E0C80E97
:10584000D11CCA14DB0480F1A3014A195B096A0167
:1058500082E0C80ED11C1296BC9012971396AC91A0
:10586000B5E0CB16D10440F0B282A38351834083CC
:10587000D9016D937C930AC00E5F1F4FC301800F47
:10588000911FF90191838083EB2DFA2FE114F1042C
:1058900031F0D7011396FC93EE93129744C0F09326
:1058A000AA07E093A9073FC08D919C9111974817D3
:1058B000590708F4AC017D0112960D90BC91A02D02
:1058C000B3CF8091A7079091A80788159905E1F4B7
:1058D00046175707C8F48091260390912703009735
:1058E00041F48DB79EB740912A0350912B03841B3E
:1058F000950BE817F907C8F4F093A807E093A707FA
:10590000F901718360830FC0CB010E94A52A7C013D
:10591000009759F0A801BE010E94A12CCE010E945F
:105920003A2BC70104C0CE0102C080E090E0CDB7A1
:10593000DEB7EEE00C94792A81E090E0F8940C94C4
:10594000C02CFB01DC0102C001900D92415050407F
:10595000D8F70895FB01DC0101900D920020E1F7DA
:105960000895FB01DC014150504048F001900D9238
:105970000020C9F701C01D9241505040E0F7089542
:1059800012E0C2EED2E004C0FE010E949F2A2196DE
:0A599000C33ED107C9F7F894FFCF1A
:10599A00FFFFFF00FCE1A8A86B057A065005440644
:1059AA000D033A068405A406FF1F03D6060000006D
:1059BA0000000000000000000000000000000000DD
:1059CA0000000000000000000000000000000000CD
:1059DA00000000C0E0F0F8FCFCFEFFFCE000000064
:1059EA0000000000000000000000000000000000AD
:1059FA00000000000000000000000000000000009D
:105A0A00000000000000000000000000000000008C
:105A1A000000F8F8F8F8F8F8F8F8F8F8F8F8F0F0FC
:105A2A00E0E0C080C0FCFFFFFFFF7F3F7FFFFFFF7A
:105A3A00FFFF00000000000000000000000000005E
:105A4A00000000000000000000000000000000004C
:105A5A00000000000000000000000000000000003C
:105A6A00000000000000000F1F3F7FFFFFFFFFFF45
:105A7A00FFFFFFE7C7C7878F9F9FFFFFFFC1C0E0F8
:105A8A00FCFFFFFFFFFFFCFCFCFCFEFEFEFCFCF83B
:105A9A00F8F0E0C0C00000000000000000000000B4
:105AAA0000000000000000000000000000000000EC
:105ABA00000000000000000000000000000080C09C
:105ACA00E0F1FBFFFFFFFFFF7F1F0F0F87E7FFFFDD
