:100000000C94E2000C9486080C945F080C940A018E
:100010000C940A010C940A010C9449070C940A01EF
:100020000C940A010C940A010C940A010C940A0124
:100030000C940A010C940A010C940A010C940A0114
:100040000C9415080C940A010C944A100C9424107A
:100050000C940A010C940A010C940A010C940A01F4
:100060000C940A010C940A0100000008000201002F
:10007000000304070000000000000000005EBCE276
:10008000613FDD83C29C7E20A3FD1F419DC3217F74
:10009000FCA2401E5F01E3BD3E6082DC237D9FC168
:1000A000421CFEA0E1BF5D0380DE3C62BEE0025C5C
:1000B000DF81633D7C22C09E1D43A1FF4618FAA448
:1000C00027799BC584DA3866E5BB5907DB85673934
:1000D000BAE406581947A5FB7826C49A653BD98728
:1000E000045AB8E6A7F91B45C6987A24F8A6441A1C
:1000F00099C7257B3A6486D85B05E7B98CD2306E08
:10010000EDB3510F4E10F2AC2F7193CD114FADF3F3
:10011000702ECC92D38D6F31B2EC0E50AFF1134DE7
:10012000CE90722C6D33D18F0C52B0EE326C8ED0DB
:10013000530DEFB1F0AE4C1291CF2D73CA947628C7
:10014000ABF517490856B4EA6937D58B5709EBB5B3
:1001500036688AD495CB2977F4AA4816E9B7550BA7
:1001600088D6346A2B7597C94A14F6A8742AC8969B
:10017000154BA9F7B6E80A54D7896B350000000083
:10018000250028002B0000000000240027002A0082
:1001900000000000230026002900040404040404D5
:1001A0000404020202020202030303030303010226
:1001B00004081020408001020408102001020408F5
:1001C0001020C31111241FBECFEFD8E0DEBFCDBF7A
:1001D00011E0A0E0B1E0E6ECFAE202C005900D9279
:1001E000AA35B107D9F722E0AAE5B1E001C01D9216
:1001F000A93AB207E1F710E0C2EED0E004C02197BF
:10020000FE010E947A12C13ED107C9F70E94071170
:100210000C9461150C94000080918201846080939D
:10022000820180918301807880938301E0915B015A
:10023000F0915C01309709F00994089591E59CBD17
:1002400091E09DBD2A98E3E2F0E03197F1F78EBD91
:1002500000000DB407FEFDCF8EB5FB019FEF4150AE
:10026000C8F0222361F09EBD00000DB407FEFDCF53
:100270008EB56115710599F380833196F0CFDF015A
:10028000119680818EBD00000DB407FEFDCF8EB5A6
:10029000FD01E5CF2A9AE3E2F0E03197F1F7089506
:1002A000CF93DF931F92CDB7DEB7698320E041E0A3
:1002B000BE016F5F7F4F0E941E010F90DF91CF91B3
:1002C00008956FE080E20E94500160911B016F3F32
:1002D00019F08AE20E945001299A089520E040E036
:1002E00060E070E00C941E010F931F93CF93DF9397
:1002F000FC0182819091820190FF04C08F3F09F040
:100300004FC005C08F3F19F0D091860101C0DFEFCB
:10031000809185018083438142FD06C046954695C4
:100320004695C7E0C40F01C0C0E28F0180E090E0B5
:10033000892B21F080E090E00E940000299883E062
:1003400092E00197F1F76EE080E20E9450018BE8A5
:1003500091E00197F1F76D2F8AE20E9450016D2F15
:1003600080E30E94500181EE0E946E01DF3F11F098
:1003700080EA01C080EB4C2FC13208F040E220E05F
:10038000B8010E941E01299A00E010E08FEF0E9440
:100390006E01C82F807331F401501109B9F702C002
:1003A000C0E02FC0299860E387E20E945001C4FF9B
:1003B00003C081EE0E946E010E946101C5FBCC2743
:1003C000C0F991E0DF3F09F090E0C92B80918601F0
:1003D000D81317C0C11110C080E090E0892B21F024
:1003E00085E690E00E9400008091830191E0980FE3
:1003F0009F70807F892B03C080918301807F8093D1
:1004000083018C2FDF91CF911F910F910895CF938E
:10041000C82F8FEF8C0F8E3FA8F4C0938501C09337
:100420001B0163E082E20E94500161E081E20E94D0
:1004300050010E9461016C2F80E090E00E944F15F6
:1004400081E00CC080E090E0892B21F08EE690E006
:100450000E9400008FEF8093850180E0CF91089586
:10046000E2E8F1E08081877F8F7E808310927E01B9
:1004700010927F01109280011092810143E050E0C0
:1004800060E070E085E891E00C942F15FC01838119
:1004900087708860838384818F718062848367839F
:1004A000CF01089580E090E0892B21F088E090E072
:1004B0000E9400008FEF8093840180918201886008
:1004C0008093820128E143E06FEF80E00E94460DB7
:1004D00061E00E9446020C9474010F931F93CF9326
:1004E000DF93EC016115710561F0FB0101900020C3
:1004F000E9F73197E61BF70BE931F10518F0E9E16F
:1005000001C0E0E00E2F10E0C80123E0880F991F22
:100510002A95E1F79B819770892B8B838C818F7152
:100520008C83EE2329F0A801CE0107960E949A132E
:10053000FE01E00FF11F1782CE01DF91CF911F91D5
:100540000F910895809185018F3FA1F480E090E0A4
:10055000892B21F086E090E00E94000023E043E038
:100560006FEF80E00E94460D62E571E00E946D022F
:100570000C947401089580E090E0892B21F084E0D0
:1005800090E00E94000080918201897F81608093C9
:1005900082018FEF809387018093860127E043E0FB
:1005A0006FEF0E94460D62E571E00E946D020C94AF
:1005B000740129986CE080E20C94500180918301D1
:1005C000982F9077903759F0982F92959F709F5F52
:1005D00097709295907F8F78892B8093830180917B
:1005E00082018B7F8F7E8093820180E090E0892B57
:1005F00021F087E690E00E9400000C94D90220913F
:10060000820122FD0C94740180E00895CF938091C3
:100610005E0181FD27C00E940B0C80E090E0892BD9
:1006200021F089E090E00E94000080915E018160ED
:1006300080935E01C4E02AE143E06FEF80E00E9416
:10064000460D62E00E9446020E94FF028BE10E947A
:10065000310E811102C0C15071F780915E0182603C
:1006600080935E01CF9108956F927F928F929F92B7
:10067000AF92BF92CF92DF92EF92FF920F931F93B0
:10068000CF93DF9300D0CDB7DEB7E0917801F09142
:1006900079010280F381E02D309709F0099580916E
:1006A000820184FBCC24C0F884FFA1C186E0D82E4F
:1006B00090E0692E90E0792E00E010E020E0E22E3C
:1006C00020E0F22E31E2B32E21E041E060E070E064
:1006D00087E10E941E0180FD8AC1DA94DD2009F4C1
:1006E00086C16114710421F081E090E00E94000055
:1006F00021E041E060E070E080E60E941E01982E5B
:1007000080E2891520F482EE0E946E01912C21E096
:10071000492D6AE772E081E60E941E0160E487E2EB
:100720000E94500190917D02292F269526952695AD
:100730002A3108F029E192FD03C037E0320F01C0F1
:1007400030E2E0917E0250917F02A0907B02809186
:100750007A0280907C02931639F06114710409F4D6
:10076000B3CF8CE690E00AC0392F3370323049F0B5
:100770006114710409F4A8CF8DE690E00E94000096
:10078000A3CF4E2F4770309183013068309383019F
:100790003091850183124DC030E0B901F3E0660F5E
:1007A000771FFA95E1F79770962B90937D02D90108
:1007B000A658BD4F17961C92E3FF1BC0EAE7F2E074
:1007C000A9E5B2E08B2D01900D928A95E1F7809119
:1007D0005D02877F806180935D0280925A02A092C1
:1007E0005B0289E592E049835A830E94FF025A81A5
:1007F000498120917E0224FD13C0433089F49091F9
:100800007F0281EF890F833008F043C05DCF9130C4
:1008100009F4CAC09A3009F457CF9C3109F454CF77
:100820000115110509F450CF8AE792E00E940000FB
:100830004BCF9FEF891248CF433031F59091820121
:1008400092FF03C0573009F43FCF583009F43CCF32
:10085000543109F039CF90918601891335CF0E9428
:1008600009087370882799270E94B8109090860114
:1008700025E143E06FEF8A2D0E94460D692D0E940D
:1008800046020E94740120CF9091860189131CCFEB
:10089000C7CF543029F40E94E60D0E94070214CFFE
:1008A0005830D1F49090820190FE0ECF0E94E60D58
:1008B0008F3F09F409CF91E0980F9F3F09F404CFCF
:1008C00080918701981708F0FFCE91FCFDCE9093A0
:1008D0008701A0928601F8CE583141F429E143E026
:1008E0006FEF8A2D0E94460D61E0C9CF593161F446
:1008F0008091820183FFE8CE877F809382010E94EE
:10090000E60D80938401E0CE80917B0281116BC063
:100910009D3099F480E090E0892B21F08BE090E00D
:100920000E94000098E088E10FB6F894A8958093A3
:1009300060000FBE90936000FFCF9B3199F40E943E
:10094000E60D91E0811101C090E080915E0190FB85
:1009500080F980935E016114710409F4B5CE8AE0D8
:1009600090E00CCF9630A9F490918102992329F060
:1009700081E09D3419F080E001C08C2D80935D01F1
:1009800041E050E063E071E08DE591E00E943F15A9
:100990009BCE933119F40E940B0C96CE923109F044
:1009A00036CF0E94F90D90CEE114F10409F48CCEFB
:1009B000229526952770253049F460918102709127
:1009C000820280918302909184020AC0211105C0A5
:1009D00081E892E00E94C71303C060E070E0CB01A1
:1009E0000E94000071CE9A3109F01ACF6DCE0F909F
:1009F0000F90DF91CF911F910F91FF90EF90DF90BB
:100A0000CF90BF90AF909F908F907F906F90089500
:100A10000F931F930E94090800917A0110917B01A6
:100A200020917C0130917D01601B710B820B930B37
:100A30001F910F9108959C01809178019091790107
:100A40008217930751F0909182019F7190938201D8
:100A5000309379012093780105C080918201805EF6
:100A600080938201E0917801F09179010190F08109
:100A7000E02D309709F009950E94090860937A01EA
:100A800070937B0180937C0190937D0108950F9377
:100A90001F930E940805209183012077203729F0B9
:100AA00000E117E220E030E004C000E61AEE20E0AA
:100AB00030E0061717072807390730F48CE191E07A
:100AC0001F910F910C941B051F910F910895809118
:100AD00083018F70863020F087E191E00C941B0534
:100AE0000895809184018F3FA1F00E9409086093CE
:100AF0007E0170937F0180938001909381018091AA
:100B000084019091870189138093870183E191E0AB
:100B10001BC00E940805613D774081059105B0F03A
:100B200080918201803618F48FE091E00DC0877FBC
:100B30008093820180E090E0892B21F08AE690E0AA
:100B40000E94000087E191E00C941B0508958091BC
:100B500085018F3F59F080E090E0892B21F087E0FC
:100B600090E00E9400008FE091E018C00E9408050C
:100B7000613D77408105910598F080918201803632
:100B800018F48BE091E00AC080E090E0892B21F01E
:100B900089E690E00E94000087E091E00C941B053C
:100BA00008950E940805613D77408105910520F474
:100BB0008091820181FF0895809186018F3F81F0AD
:100BC000809182018E7F8093820180E090E0892B6A
:100BD00021F085E090E00E9400008BE091E011C0E0
:100BE00080918201803618F487E191E00AC080E0AC
:100BF00090E0892B21F088E690E00E94000087E0D9
:100C000091E00C941B05CF93219A229ACFB7F894C8
:100C100080915A01811166C084EA91E0FC0124911F
:100C200048EB51E0FA01649130E0220F331F2A575C
:100C30003E4FF901A591B4912C91622309F040C077
:100C4000E2E7F0E02491FA014491FC0194919923A8
:100C5000B9F1222339F1233091F038F42130A9F091
:100C6000223001F584B58F7D12C0273091F02830F5
:100C7000A1F02430B9F4809180008F7D03C0809171
:100C800080008F77809380000DC084B58F7784BDFE
:100C900009C08091B0008F7703C08091B0008F7D34
:100CA0008093B000E92FF0E0EE0FFF1FE458FE4FF5
:100CB000A591B4918FB7F8949C91492B4C938FBF19
:100CC00061E08AE00E947C108CB580618CBD8CB59F
:100CD00080648CBD61E08DE00E947C1061E08BE05F
:100CE0000E947C1080915A018F5F80935A01CFBF80
:100CF00029982A9A6EE080E20E94500165E070E037
:100D000080E090E00E94B81063E083E20E9450010E
:100D10006FE584E20E9450016CE485E20E9450017C
:100D200067E286E20E94500163E780E50E9450017D
:100D300066E08DE30E94500121E041E060E070E058
:100D400086E00E941E01C82F21E041E060E070E0D3
:100D500085E00E941E018C3409F040C0C732F1F5D5
:100D600062E082E20E94500160E081E20E94500154
:100D700063E08CE30E9450018FEF8093020120E03A
:100D800045E062E071E08BE20E941E0120E045E058
:100D900062E071E08AE20E941E0120E045E062E02C
:100DA00071E080E30E941E0182EE0E946E0181EEDE
:100DB0000E946E0160E787E20E94500180918201EB
:100DC000806180938201809185018F3F81F00E9434
:100DD000070281110CC087E091E00BC080E090E039
:100DE000892BC9F387E690E00E940000F4CF87E1E9
:100DF00091E0CF910C941B0520917A002F772093DE
:100E00007A00309160008A309105B1F083FD02C014
:100E100028E001C028E28770822B98E10FB6F89491
:100E2000A895909360000FBE809360008091600051
:100E30008065809360000BC00FB6F894A8958091F0
:100E40006000886180936000109260000FBE83B7DD
:100E5000817F846083BFF89483B7816083BF85B747
:100E6000806685BF8F7D85BF7894889583B78E7F98
:100E700083BFF894A895809160008861809360009A
:100E800030936000789480917A00806880937A0033
:100E900008951F920F920FB60F9211240F900FBE5C
:100EA0000F901F9018950895FC0190810180F281A8
:100EB000E02DF8948181892B81832281892F80956F
:100EC00028232283A7E0B0E01197F1F72181822344
:100ED0008183A3E2B0E01197F1F780817894EFEC81
:100EE000F0E03197F1F7982381E009F480E008956C
:100EF000FC0190810180F281E02D892F809560FFB7
:100F000012C0F8942281822382838181892B81837C
:100F1000A3E2B0E01197F1F78281982B9283789445
:100F200087ED90E011C0F894228182238283818131
:100F3000892B8183AFEFB0E01197F1F78281982B75
:100F4000928378948FE090E00197F1F708950895E7
:100F500083E080932001109248020895CF93DF939D
:100F60002BE043E06FEF80E00E94460D6CE371E000
:100F70000E946D020E94FF022CE043E06FEF80E0D0
:100F80000E94460D6FE471E00E946D020E94FF0214
:100F900080914A0290E090936E0180936D01C0E0D1
:100FA000D0E080916D0190916E01C817D9074CF483
:100FB000C330D10531F066E08C2F0E941B0E2196C4
:100FC000F0CFDF91CF9108953FB7F89480917401ED
:100FD00090917501A0917601B091770126B5A89BFB
:100FE00005C02F3F19F00196A11DB11D3FBFBA2FBB
:100FF000A92F982F8827820F911DA11DB11DBC011B
:10100000CD0142E0660F771F881F991F4A95D1F7DF
:1010100008952FB7F89460917001709171018091DB
:101020007201909173012FBF08951F920F920FB616
:101030000F9211242F933F938F939F93AF93BF935E
:101040008091700190917101A0917201B091730132
:1010500030916F0123E0230F2D3720F40196A11D5D
:10106000B11D05C026E8230F0296A11DB11D2093D6
:101070006F018093700190937101A0937201B093FE
:1010800073018091740190917501A0917601B091E6
:1010900077010196A11DB11D809374019093750194
:1010A000A0937601B0937701BF91AF919F918F91FB
:1010B0003F912F910F900FBE0F901F9018951F9288
:1010C0000F920FB60F9211242F933F934F935F937C
:1010D0006F937F938F939F93AF93BF93EF93FF9300
:1010E000E0912301F09124010995FF91EF91BF91C7
:1010F000AF919F918F917F916F915F914F913F91B0
:101100002F910F900FBE0F901F9018951F920F9266
:101110000FB60F9211242F933F934F935F936F93CA
:101120007F938F939F93AF93BF93EF93FF93E09140
:101130002101F09122010995FF91EF91BF91AF91AB
:101140009F918F917F916F915F914F913F912F91DF
:101150000F900FBE0F901F901895DC01E0E06150DA
:1011600038F08D91E827F0E0E458FF4FE491F7CF95
:101170008E2F0895EF92FF920F931F93CF93DF93DB
:101180007C0108E010E0C0E0D1E0C7010E945407F4
:101190008111CD2BDD0F01501109B9F78C2FDF9193
:1011A000CF911F910F91FF90EF900895CF92DF9212
:1011B000EF92FF920F931F93CF93DF931F92CDB7C0
:1011C000DEB76C01E62E08E010E0FF24F39461E046
:1011D0008F2D8E2109F460E0C60149830E947807B3
:1011E000FF0C0150110949810115110581F74111C9
:1011F00015C0F894D6011196ED91FC91129791814A
:101200008C918095892381831196ED91FC911297A1
:1012100092818C9180958923828378940F90DF91BD
:10122000CF911F910F91FF90EF90DF90CF90089595
:10123000CF92DF92EF92FF920F931F93CF93DF93A2
:101240001F92CDB7DEB78C01F62E40E065E57983BD
:101250000E94D608CF2C7981D72E760188E0E80E3F
:10126000F11CF60161916F0140E0C8010E94D608AF
:10127000CE14DF04B1F70F90DF91CF911F910F9142
:10128000FF90EF90DF90CF900895FC019081018056
:10129000F281E02DF8948181292F2095822381838A
:1012A00078948DE743E050E0815021F1DA01119705
:1012B000F1F730813923C1F3F8948281822382834C
:1012C0008181892B81837894ABE7B7E01197F1F79F
:1012D000F894818128232183A3E1B1E01197F1F7EC
:1012E0008081982381E009F080E07894E3E6F6E0DD
:1012F0003197F1F70895AF92BF92CF92DF92EF92BC
:10130000FF920F931F93CF93DF931F92CDB7DEB75A
:101310005C01E62ED72EFC01858581115DC0C501DB
:101320000E944509811105C0F501138615861486B2
:101330006BC040E060EFC5010E94D60801E0F12CCF
:10134000C12C11E0C5010E945407682FC5016983B3
:101350000E9454076981613019F48130B9F433C0B7
:101360004F2D50E068131BC0F5018385181730F42A
:10137000E40FF51F8381802349F402C0181731F070
:1013800060E0193058F4F501148708C0F501EF0D3D
:10139000F11D8381802B838361E009C0C12EF5019B
:1013A000E40FF51F9381802F809589238383C501E6
:1013B0000E9478071F5F000F11F4F39401E0F7E03B
:1013C000FF1508F0BFCF113438F0F501C386C11006
:1013D00015C081E0858712C0F50113861586148635
:1013E00080E0D5011396EE2DFD2D9501255F3F4F31
:1013F0009D919193A217B307D9F706C0F501838198
:10140000882351F381E0EDCF0F90DF91CF911F91B1
:101410000F91FF90EF90DF90CF90BF90AF90089525
:101420007F928F929F92AF92BF92CF92DF92EF9274
:10143000FF920F931F93CF93DF93CDB7DEB728971B
:101440000FB6F894DEBF0FBECDBF8091200120E41F
:10145000829FC001112480937C0080917A00806477
:1014600080937A0080917A0086FDFCCF809178008D
:101470002091790090E0922B6AE070E00E94521275
:101480008B0180916D0190916E01892B09F445C00B
:1014900080914B0290914C020E94450940E06CEC17
:1014A00080914B0290914C020E94D60840914602D6
:1014B00064E480914B0290914C020E94D608809186
:1014C00048028823A9F0E0914702E950E33040F454
:1014D000F0E0EE0FFF1FEA5DFE4F6081718102C0F8
:1014E0006EEE72E0072E000C880B990B0E94B8106C
:1014F000E0914702E950E33040F4F0E0EE0FFF1FC7
:10150000EA5DFE4F6081718102C06EEE72E0072ECF
:10151000000C880B990B0E94670E81E6C82E81E0B3
:10152000D82EE12CF12C7724739480916D01909149
:101530006E01E816F9060CF0B7C083E0E816F10476
:1015400009F4B2C080915D016E2D882301F1CE01B6
:1015500001960E94EF0F811105C060E070E08EEFF0
:1015600092EC3AC0CE0101960E949A0F8138E4EEC7
:101570009E079CF3BC01990F880B990B0E941214D3
:1015800020E030E040E05CE30E94711425C0CE0111
:1015900001960E94EF0F811105C06AE979E984E4A0
:1015A00093EC1AC0CE0101960E949A0F8138F4EE96
:1015B0009F079CF3BC01990F880B990B0E94121492
:1015C00026E636E646E65CE30E94711420E030E051
:1015D00040E052E40E94811220E030E040E251E419
:1015E0000E9471140E945F13072E000C880B990B48
:1015F0000E94121420E030E040E251E40E94ED121B
:101600004B015C019B01AC01F6016081718182811B
:1016100093810E940B148823F1F120E030E04EEF1B
:1016200052ECC501B4010E940B148823A1F120E003
:1016300030E04AEA52E4C501B4010E940B14882349
:1016400051F1E0922B02809128028770886280938A
:1016500028028091290280922C0290922D02A09261
:101660002E02B0922F0270923002909185019093D9
:1016700026028071816E8093290280915E0180FF35
:1016800004C085E292E00E94FF02F601808291820E
:10169000A282B38202C00E94F90DFFEFEF1AFF0A87
:1016A00024E0C20ED11C41CF80915F019091600176
:1016B0008017910779F020E043E06FEF80E00E940F
:1016C000460D602F0E9446020E94FF0210936001A7
:1016D00000935F0160EE73E984E090E00E94670E82
:1016E00028960FB6F894DEBF0FBECDBFDF91CF9125
:1016F0001F910F91FF90EF90DF90CF90BF90AF9030
:101700009F908F907F9008950F931F93CF93DF93B7
:10171000CDB7DEB761970FB6F894DEBF0FBECDBF71
:10172000E0914B02F0914C02138615861486DF017E
:101730001B9633961E92AE17BF07E1F710924A022E
:1017400011E0BE01665F7F4F80914B0290914C0289
:101750000E947B09882309F453C067E0CE010A96F2
:101760000E94AD0899898913ECCF809146028111BE
:1017700026C080914B0290914C020E944509BE0107
:10178000665F7F4F80914B0290914C020E94180936
:1017900040E064EB80914B0290914C020E94D6088D
:1017A00080914B0290914C020E945407082F809127
:1017B0004B0290914C020E9445090023F1F0BE01BA
:1017C0006F5F7F4FCE010A960E94550D0091470230
:1017D000CE010A960E94AE0D801718F48091470240
:1017E00004C0CE010A960E94AE0D809347028091FC
:1017F0004A028F5F80934A02A4CF10934602DFCF44
:1018000061960FB6F894DEBF0FBECDBFDF91CF91CA
:101810001F910F910895CF9380E090E0892B21F0E4
:101820008CE090E00E9400002FE043E06FEF80E04A
:101830000E94460D62E571E00E946D0280915C029B
:101840008770806180935C0280915D028F71806CF3
:1018500080935D0281E0809360021092610289E5CD
:1018600092E00E94FF028FE00E94310E61E18FEF53
:101870000E941B0EC091860126E043E06FEF80E0DE
:101880000E94460D6C2F0E9446020E94FF0286E0D5
:101890000E94310ECF910C94AE07CF92DF92EF925F
:1018A000FF920F931F93CF93DF936C017A018B010B
:1018B000C0E0D0E0CE15DF0589F0D8016D918D0133
:1018C000D601ED91FC910190F081E02DC6010995C2
:1018D000892B11F47E0102C02196ECCFC701DF9164
:1018E000CF911F910F91FF90EF90DF90CF900895CF
:1018F000FC01918D828D981761F0828DDF01A80F18
:10190000B11D5D968C91928D9F5F9F73928F90E039
:1019100008958FEF9FEF0895FC01918D828D9817A8
:1019200031F0828DE80FF11D858D90E008958FEFE5
:101930009FEF0895FC01918D228D892F90E0805CAE
:101940009F4F821B91098F739927089588E891E032
:101950000E949A0C21E0892B09F420E0822F08953F
:10196000FC01848DDF01A80FB11DA35ABF4F2C913C
:10197000848D90E001968F739927848FA689B7890B
:101980002C93A089B1898C9180648C93938D848DE4
:10199000981306C00288F389E02D80818F7D8083B3
:1019A0000895EF92FF920F931F93CF93DF93EC0173
:1019B00081E0888F9B8D8C8D981305C0E889F9890B
:1019C000808185FD24C0F62E0B8D10E00F5F1F4F28
:1019D0000F731127E02E8C8DE8120CC00FB607FC98
:1019E000FACFE889F989808185FFF5CFCE010E9481
:1019F000B00CF1CF8B8DFE01E80FF11DE35AFF4FC4
:101A0000F0820B8FEA89FB898081806207C0EE89B2
:101A1000FF896083E889F98980818064808381E01F
:101A200090E0DF91CF911F910F91FF90EF9008957B
:101A3000CF93DF93EC01888D8823C9F0EA89FB8975
:101A4000808185FD05C0A889B9898C9186FD0FC06C
:101A50000FB607FCF5CF808185FFF2CFA889B98941
:101A60008C9185FFEDCFCE010E94B00CE7CFDF91C6
:101A7000CF91089580E090E0892B29F00E94A60C78
:101A800081110C94000008950E949513E9E5F2E09D
:101A90009091850191838283668325834770848139
:101AA000807E482B4483CF010895EF92FF920F93DD
:101AB0001F93CF93DF937C018B01C6E4D2E08D812D
:101AC0009E810E944509B7018D819E810E9418095F
:101AD00040E06EEB8D819E810E94D6088D819E81B3
:101AE0000E94BA08F80180838D819E810E94BA0805
:101AF000F80181838D819E810E94BA08F80182835A
:101B00008D819E810E94BA08F80183838D819E8118
:101B10000E94BA08F80184838D819E810E94BA08D0
:101B2000F80185838D819E810E94BA08F801868321
:101B30008D819E810E94BA08F80187838D819E81E4
:101B40000E94BA08F80180878D819E81DF91CF9134
:101B50001F910F91FF90EF900C944509CF93DF9365
:101B6000CDB7DEB729970FB6F894DEBF0FBECDBF55
:101B7000FC012081203101F1BE016F5F7F4F0E9487
:101B8000550D68E0CE0101960E94AD089985891334
:101B900011C08D818F3361F020F48F3159F489E0C9
:101BA0000CC08F3519F08F3739F004C08BE005C0B9
:101BB0008AE003C080E001C08CE029960FB6F8945B
:101BC000DEBF0FBECDBFDF91CF91089580917E0221
:101BD000829586958770813019F4809181020895ED
:101BE000811105C081E892E00E94A913089580E068
:101BF0000895CF92DF92EF92FF920E9408056B0149
:101C00007C0126E143E06FEF80E00E94460DFC017D
:101C100084818F71806A84838381877080628383EB
:101C2000C782D086E186F286CF01FF90EF90DF90E9
:101C3000CF900C94FF02CF93DF93262F8F3F19F0A4
:101C4000C2E5D1E002C0C3E5D1E040E0682F80E00A
:101C50000E94460DBE010E946D02DF91CF910C944F
:101C6000FF02CF92DF92EF92FF92CF93DF93D82FB4
:101C70000E9409086B017C0181E0D11180E0809312
:101C80007F02C0E00E940908AB01BC014C195D094C
:101C90006E097F09403D57406105710580F4C1110F
:101CA0000EC0A8950E94340390917E0297709330E5
:101CB00049F7C1E080917F028D13E3CFE3CF8C2FF2
:101CC000DF91CF91FF90EF90DF90CF9008958F92AA
:101CD0009F92AF92BF92CF92DF92EF92FF926B01F1
:101CE0007C018091820182FD1BC00E9409084B018A
:101CF0005C0180E090E0DC012091820122FD40C087
:101D00008C159D05AE05BF0508F03FC0803127E268
:101D10009207A105B10540F1C81AD90AEA0AFB0ADF
:101D20000E94D90280E090E0892B21F08EE090E0C3
:101D30000E94000088E891E00E94180D8091250122
:101D40008F3F29F520E4C2162FE1D206E104F10409
:101D5000F0F089E090E00E94FC0680E4C81A8FE170
:101D6000D80AE108F108EACFA8950E9434030E943E
:101D70000908DC01CB0188199909AA09BB09BCCF64
:101D80008C159D05AE05BF0538F28EEFCAC0809157
:101D900025018F3F41F480EAC8168FE0D806E104A0
:101DA000F10408F065C0809125018F3F41F420EDDA
:101DB000C21627E0D206E104F10408F064C0809165
:101DC00025018F3F41F488EEC81683E0D806E10470
:101DD000F10408F063C0809125018F3F41F424EFA6
:101DE000C21621E0D206E104F10408F062C080913D
:101DF00025018F3F39F48AEFC816D104E104F104BC
:101E000008F062C0809125018F3F39F42DE7C2169A
:101E1000D104E104F10408F061C0809125018F3FF5
:101E200039F480E4C816D104E104F10408F060C07C
:101E3000809125018F3F39F420E2C216D104E104DC
:101E4000F10408F05FC0809125018F3F39F480E1F3
:101E5000C816D104E104F10408F05EC080E090E00F
:101E6000892B21F08FE090E00E9400008FEF59C095
:101E700088E090E00E94FC0620EAC21A2FE0D20A15
:101E8000E108F10890CF87E090E00E94FC0680ED29
:101E9000C81A87E0D80AE108F10891CF86E090E0FF
:101EA0000E94FC0628EEC21A23E0D20AE108F108DB
:101EB00092CF85E090E00E94FC0684EFC81A81E092
:101EC000D80AE108F10893CF84E090E00E94FC0674
:101ED0002AEFC21AD108E108F10894CF83E090E01C
:101EE0000E94FC0688E7C81AD108E108F10895CFDE
:101EF00082E090E00E94FC062CE3C21AD108E108BF
:101F0000F10896CF81E090E00E94FC068EE1C81AAD
:101F1000D108E108F10897CF80E090E00E94FC062C
:101F20009DCFFF90EF90DF90CF90BF90AF909F90AC
:101F30008F9008950F931F93CF93DF93CDB7DEB7A4
:101F400029970FB6F894DEBF0FBECDBF8C01BE013E
:101F50006F5F7F4F0E94550D68E0CE0101960E9491
:101F6000AD08998589132CC0298148E0249FB001D0
:101F700011249A81292F30E0322F2227330F330F7B
:101F8000330F262B372BF80180818031E1F46885EF
:101F900070E08F81AB01481B5109CA019695982FBB
:101FA0008827979587950E945212CB014097207FF2
:101FB00053E0220F331F5A95E1F7820F931F04C09D
:101FC00080E894EE01C0C90129960FB6F894DEBFEF
:101FD0000FBECDBFDF91CF911F910F9108950F9349
:101FE0001F93CF93DF938C01D62FE0914B02F0919A
:101FF0004C02138615861486DF011B9633961E92BB
:10200000AE17BF07E1F7C0E0B80180914B02909195
:102010004C020E947B09811102C080E010C0CD13E8
:102020000AC067E0C8010E94AD08F80197818913D2
:1020300002C081E004C0CF5FDC1778F3E5CFDF9109
:10204000CF911F910F9108951F920F920FB60F928B
:1020500011242F933F934F935F936F937F938F93AD
:102060009F93AF93BF93EF93FF9388E891E00E9413
:10207000B00CFF91EF91BF91AF919F918F917F91A4
:102080006F915F914F913F912F910F900FBE0F90E5
:102090001F9018951F920F920FB60F9211242F9335
:1020A0008F939F93EF93FF93E0919801F0919901A3
:1020B0008081E0919E01F0919F0182FD12C090818C
:1020C0008091A1018F5F8F732091A201821751F03F
:1020D000E091A101F0E0E857FE4F958F8093A101B8
:1020E00001C08081FF91EF919F918F912F910F906F
:1020F0000FBE0F901F901895CF93DF9390E0FC01D7
:10210000E255FE4F2491FC01E656FE4F8491882350
:1021100061F190E0880F991FFC01EA57FE4FC591CD
:10212000D491FC01E458FE4FA591B491611109C00E
:102130009FB7F8948881209582238883EC912E2381
:102140000BC0623061F49FB7F8943881822F80957C
:1021500083238883EC912E2B2C939FBF06C08FB7CF
:10216000F894E8812E2B28838FBFDF91CF910895BB
:102170008F929F92AF92BF92CF92DF92EF92FF9297
:102180006B017C010E94E4074B015C01C114D10486
:10219000E104F104F1F00E94E407DC01CB018819AD
:1021A0009909AA09BB09883E9340A105B10570F3BE
:1021B00021E0C21AD108E108F10888EE880E83E018
:1021C000981EA11CB11CC114D104E104F10419F73B
:1021D000DDCFFF90EF90DF90CF90BF90AF909F90BA
:1021E0008F900895CF93DF93FC01108211821282A9
:1021F000148215821682DC0117968AE1ED0119928C
:102200008A95E9F782E08383DF91CF9108957894EE
:1022100084B5826084BD84B5816084BD85B58260EB
:1022200085BD85B5816085BD80916E00816080939C
:102230006E00109281008091810082608093810005
:102240008091810081608093810080918000816015
:10225000809380008091B10084608093B100809170
:10226000B00081608093B00080917A008460809398
:102270007A0080917A00826080937A0080917A005F
:10228000816080937A0080917A00806880937A00E0
:102290001092C100A89580E090E0892B11F00E9477
:1022A0000000E0919801F091990182E08083E09133
:1022B0009401F09195011082E0919601F0919701BF
:1022C00080E180831092A001E0919C01F0919D013A
:1022D00086E08083E0919A01F0919B01808180618A
:1022E0008083E0919A01F0919B01808188608083D6
:1022F000E0919A01F0919B01808180688083E09158
:102300009A01F0919B0180818F7D808380915E0195
:102310008D7F80935E010E94840B41E050E063E07A
:1023200071E08DE591E00E942F156FEF81E090E064
:102330000E944F15809183018F78809383011092C2
:102340007901109278018CE191E00E941B0586E0F2
:1023500093E090935C0180935B010E9409080E94C6
:1023600009080E943403A8958091820182FFF7CF6B
:102370000E94A807A895A8950E9434030E94100AFD
:102380000E943A0DF8CF10928B0110928A0188EECC
:1023900093E0A0E0B0E080938C0190938D01A09336
:1023A0008E01B0938F0180E391E090938901809337
:1023B000880185EC90E0909395018093940184ECE2
:1023C00090E0909397018093960180EC90E0909339
:1023D00099018093980181EC90E090939B01809308
:1023E0009A0182EC90E090939D0180939C0186EC91
:1023F00090E090939F0180939E011092A101109212
:10240000A2011092A3011092A4018AE792E00E9417
:10241000F21089E592E00E94F21060E088E00E94EC
:102420007C10E6EBF1E0E491E0939B02E2EAF1E05C
:10243000E491F0E0EE0FFF1FE057FE4F859194917D
:1024400090939D0280939C021092A6021092A80283
:102450001092A702E6EAF2E0129282E0EE39F80763
:10246000D9F787EA97E090935802809357028BE957
:1024700092E090934C0280934B0210924A02109289
:10248000460289E08093470281E08093480280936E
:10249000490285E292E00E94F21010922B02109203
:1024A0002A02089597FB072E16F4009407D077FDB3
:1024B00009D00E94661207FC05D03EF490958195E4
:1024C0009F4F0895709561957F4F0895AA1BBB1B80
:1024D00051E107C0AA1FBB1FA617B70710F0A61B24
:1024E000B70B881F991F5A95A9F780959095BC0145
:1024F000CD010895EE0FFF1F0590F491E02D099492
:102500005058BB27AA270E9498120C94F5140E94D9
:10251000E71438F00E94EE1420F039F49F3F19F4CC
:1025200026F40C94E4140EF4E095E7FB0C94DE140E
:10253000E92F0E94061558F3BA176207730784073C
:10254000950720F079F4A6F50C9428150EF4E09583
:102550000B2EBA2FA02D0B01B90190010C01CA015D
:10256000A0011124FF27591B99F0593F50F4503E08
:1025700068F11A16F040A22F232F342F4427585FFA
:10258000F3CF469537952795A795F0405395C9F712
:102590007EF41F16BA0B620B730B840BBAF09150CA
:1025A000A1F0FF0FBB1F661F771F881FC2F70EC069
:1025B000BA0F621F731F841F48F48795779567953C
:1025C000B795F7959E3F08F0B0CF9395880F08F028
:1025D0009927EE0F9795879508950E9401130C9403
:1025E000F5140E94EE1458F00E94E71440F029F40C
:1025F0005F3F29F00C94DE1451110C9429150C94B2
:10260000E4140E94061568F39923B1F3552391F35E
:10261000951B550BBB27AA2762177307840738F051
:102620009F5F5F4F220F331F441FAA1FA9F335D0AE
:102630000E2E3AF0E0E832D091505040E695001C62
:10264000CAF72BD0FE2F29D0660F771F881FBB1F1C
:10265000261737074807AB07B0E809F0BB0B802DFA
:10266000BF01FF2793585F4F3AF09E3F510578F026
:102670000C94DE140C9429155F3FE4F3983ED4F3D8
:10268000869577956795B795F7959F5FC9F7880FFA
:10269000911D9695879597F90895E1E0660F771F4C
:1026A000881FBB1F621773078407BA0720F0621BDD
:1026B000730B840BBA0BEE1F88F7E09508950E9408
:1026C00066136894B1110C94291508950E940E1593
:1026D00088F09F5798F0B92F9927B751B0F0E1F0E3
:1026E000660F771F881F991F1AF0BA95C9F714C093
:1026F000B13091F00E942815B1E008950C9428158E
:10270000672F782F8827B85F39F0B93FCCF38695CB
:1027100077956795B395D9F73EF490958095709528
:1027200061957F4F8F4F9F4F089581E090E0F8941F
:102730000C946115FB01DC014150504048F00190C0
:102740000D920020C9F701C01D9241505040E0F7A2
:102750000895FC0188279927E89421912032E9F314
:10276000293010F02E30C8F32B3241F02D3239F4DD
:10277000689404C00E940314820F911D219120537C
:102780002A30C0F31EF4909581959F4F08951F93B2
:10279000FC0199278827BC01E89411911032E9F3D4
:1027A000193010F01E30C8F31B3251F01D3249F4BD
:1027B000689406C00E94EE13610F711D811D911D6A
:1027C000119110531A30B0F33EF4909580957095A6
:1027D00061957F4F8F4F9F4F1F910895592F482F1D
:1027E000372F262F660F771F881F991F660F771FB9
:1027F000881F991F620F731F841F951F660F771F15
:10280000881F991F08957AE0979F902D879F802DAC
:10281000910D112408950E944D1408F481E008954B
:10282000E89409C097FB3EF490958095709561956A
:102830007F4F8F4F9F4F9923A9F0F92F96E9BB2720
:102840009395F695879577956795B795F111F8CF9C
:10285000FAF4BB0F11F460FF1BC06F5F7F4F8F4F07
:102860009F4F16C0882311F096E911C0772321F0FD
:102870009EE8872F762F05C0662371F096E8862F95
:1028800070E060E02AF09A95660F771F881FDAF7EC
:10289000880F9695879597F90895990F0008550F19
:1028A000AA0BE0E8FEEF16161706E807F907C0F0D6
:1028B00012161306E407F50798F0621B730B840BDE
:1028C000950B39F40A2661F0232B242B252B21F4B8
:1028D00008950A2609F4A140A6958FEF811D811D58
:1028E00008950E9484140C94F5140E94E71438F0A3
:1028F0000E94EE1420F0952311F00C94DE140C9439
:10290000E41411240C9429150E94061570F3959F68
:10291000C1F3950F50E0551F629FF001729FBB27D6
:10292000F00DB11D639FAA27F00DB11DAA1F649F72
:102930006627B00DA11D661F829F2227B00DA11D25
:10294000621F739FB00DA11D621F839FA00D611DAB
:10295000221F749F3327A00D611D231F849F600DCC
:10296000211D822F762F6A2F11249F5750409AF0F5
:10297000F1F088234AF0EE0FFF1FBB1F661F771F81
:10298000881F91505040A9F79E3F510580F00C944C
:10299000DE140C9429155F3FE4F3983ED4F386953A
:1029A00077956795B795F795E7959F5FC1F7FE2BEC
:1029B000880F911D9695879597F9089597F99F67C8
:1029C00080E870E060E008959FEF80EC08950024B7
:1029D0000A941616170618060906089500240A9484
:1029E00012161306140605060895092E0394000C0A
:1029F00011F4882352F0BB0F40F4BF2B11F460FF99
:102A000004C06F5F7F4F8F4F9F4F089557FD9058C1
:102A1000440F551F59F05F3F71F04795880F97FBA2
:102A2000991F61F09F3F79F087950895121613065C
:102A30001406551FF2CF4695F1DF08C0161617068B
:102A40001806991FF1CF86957105610508940895C0
:102A5000E894BB2766277727CB0197F90895DC0117
:102A6000CB01FC01F999FECF06C0F2BDE1BDF89A99
:102A7000319600B40D9241505040B8F70895DC01F2
:102A8000A40FB51F4150504048F0CB01840F951F53
:102A90002E910E94501541505040D0F70895262F96
:102AA000F999FECF92BD81BDF89A019700B4021644
:102AB00039F01FBA20BD0FB6F894FA9AF99A0FBEF2
:062AC0000895F894FFCF19
:102AC600FFFF00FCE1A8A8DE024705A202A7055207
:102AD6000271050C016705BB02D105FF3002030632
:102AE6000153075307FF5E00BC007701000000009A
:102AF600D10C4D0C9A0C780C8C0C180D54656D701D
:102B06002B42617474657279204D6574657200316B
:0A2B16002E3000322E312E31000067
:107E0000112484B714BE81FFF0D085E080938100F7
:107E100082E08093C00088E18093C10086E0809377
:107E2000C20080E18093C4008EE0C9D0259A86E02C
:107E300020E33CEF91E0309385002093840096BBD3
:107E4000B09BFECF1D9AA8958150A9F7CC24DD24C4
:107E500088248394B5E0AB2EA1E19A2EF3E0BF2EE7
:107E6000A2D0813461F49FD0082FAFD0023811F036
:107E7000013811F484E001C083E08DD089C08234E0
:107E800011F484E103C0853419F485E0A6D080C0E4
:107E9000853579F488D0E82EFF2485D0082F10E0AE
:107EA000102F00270E291F29000F111F8ED06801E7
:107EB0006FC0863521F484E090D080E0DECF843638
:107EC00009F040C070D06FD0082F6DD080E0C81688
:107ED00080E7D80618F4F601B7BEE895C0E0D1E017
:107EE00062D089930C17E1F7F0E0CF16F0E7DF06D8
:107EF00018F0F601B7BEE89568D007B600FCFDCFD4
:107F0000A601A0E0B1E02C9130E011968C91119780
:107F100090E0982F8827822B932B1296FA010C0160
:107F200087BEE89511244E5F5F4FF1E0A038BF0790
:107F300051F7F601A7BEE89507B600FCFDCF97BE46
:107F4000E89526C08437B1F42ED02DD0F82E2BD052
:107F50003CD0F601EF2C8F010F5F1F4F84911BD097
:107F6000EA94F801C1F70894C11CD11CFA94CF0C13
:107F7000D11C0EC0853739F428D08EE10CD085E9AC
:107F80000AD08FE07ACF813511F488E018D01DD067
:107F900080E101D065CF982F8091C00085FFFCCF94
:107FA0009093C60008958091C00087FFFCCF809118
:107FB000C00084FD01C0A8958091C6000895E0E648
:107FC000F0E098E1908380830895EDDF803219F02E
:107FD00088E0F5DFFFCF84E1DECF1F93182FE3DFCA
:107FE0001150E9F7F2DF1F91089580E0E8DFEE27F6
:047FF000FF270994CA
:027FFE00040479
:0400000300007E007B
:00000001FF