:100000000C94E2000C94540E0C942D0E0C940A01E6
:100010000C940A010C940A010C948B070C940A01AD
:100020000C940A010C940A010C940A010C940A0124
:100030000C940A010C940A010C940A010C940A0114
:100040000C94E30D0C940A010C94F90C0C94D30C51
:100050000C940A010C940A010C940A010C940A01F4
:100060000C940A010C940A0100000008000201002F
:10007000000304070000000000000000005EBCE276
:10008000613FDD83C29C7E20A3FD1F419DC3217F74
:10009000FCA2401E5F01E3BD3E6082DC237D9FC168
:1000A000421CFEA0E1BF5D0380DE3C62BEE0025C5C
:1000B000DF81633D7C22C09E1D43A1FF4618FAA448
:1000C00027799BC584DA3866E5BB5907DB85673934
:1000D000BAE406581947A5FB7826C49A653BD98728
:1000E000045AB8E6A7F91B45C6987A24F8A6441A1C
:1000F00099C7257B3A6486D85B05E7B98CD2306E08
:10010000EDB3510F4E10F2AC2F7193CD114FADF3F3
:10011000702ECC92D38D6F31B2EC0E50AFF1134DE7
:10012000CE90722C6D33D18F0C52B0EE326C8ED0DB
:10013000530DEFB1F0AE4C1291CF2D73CA947628C7
:10014000ABF517490856B4EA6937D58B5709EBB5B3
:1001500036688AD495CB2977F4AA4816E9B7550BA7
:1001600088D6346A2B7597C94A14F6A8742AC8969B
:10017000154BA9F7B6E80A54D7896B350000000083
:10018000250028002B0000000000240027002A0082
:1001900000000000230026002900040404040404D5
:1001A0000404020202020202030303030303010226
:1001B00004081020408001020408102001020408F5
:1001C0001020E81011241FBECFEFD8E0DEBFCDBF56
:1001D00022E0ACE5B1E001C01D92A93AB207E1F717
:1001E00011E0A0E0B1E0E6EEF6E202C005900D926B
:1001F000AC35B107D9F710E0C2EED0E004C02197CA
:10020000FE010E945713C13ED107C9F70E942C106E
:100210000C9471130C940000FC018381877088603A
:10022000838384818F71806284836783CF01089583
:1002300080916B01846080936B0180916C01807868
:1002400080936C01E0915D01F0915E01309709F0BF
:100250000994089591E59CBD91E09DBD2A98E3E243
:10026000F0E03197F1F78EBD00000DB407FEFDCF31
:100270008EB5FB019FEF4150C8F0222361F09EBD77
:1002800000000DB407FEFDCF8EB56115710599F321
:1002900080833196F0CFDF01119680818EBD000002
:1002A0000DB407FEFDCF8EB5FD01E5CF2A9AE3E23E
:1002B000F0E03197F1F70895CF93DF931F92CDB718
:1002C000DEB7698320E041E0BE016F5F7F4F0E948F
:1002D0002A010F90DF91CF9108956FE080E20E9494
:1002E0005C0160911B016F3F19F08AE20E945C0182
:1002F000299A089520E040E060E070E00C942A0123
:100300000F931F93CF93DF93FC01828190916B0138
:1003100090FF04C08F3F09F04FC005C08F3F19F018
:10032000D0917D0101C0DFEF80917C01808343810A
:1003300042FD06C0469546954695C7E0C40F01C0EC
:10034000C0E28F0180E090E0892B21F080E090E016
:100350000E940000299883E092E00197F1F76EE097
:1003600080E20E945C018BE891E00197F1F76D2F2C
:100370008AE20E945C016D2F80E30E945C0181EEA5
:100380000E947A01DF3F11F080EA01C080EB4C2F20
:10039000C13208F040E220E0B8010E942A01299A07
:1003A00000E010E08FEF0E947A01C82F807331F4D3
:1003B00001501109B9F702C0C0E02FC0299860E3CD
:1003C00087E20E945C01C4FF03C081EE0E947A01B3
:1003D0000E946D01C5FBCC27C0F991E0DF3F09F019
:1003E00090E0C92B80917D01D81317C0C11110C0B6
:1003F00080E090E0892B21F085E690E00E940000EB
:1004000080916C0191E0980F9F70807F892B03C0D1
:1004100080916C01807F80936C018C2FDF91CF9154
:100420001F910F91089580E090E0892B21F088E0E2
:1004300090E00E9400008FEF80936D0180916B012E
:10044000886080936B0128E143E06FEF80E00E94B9
:10045000790C61E00E940C010C948001CF93C82FAD
:100460008FEF8C0F8E3FA8F4C0937C01C0931B01CB
:1004700063E082E20E945C0161E081E20E945C0133
:100480000E946D016C2F80E090E00E941D1381E0BE
:100490000CC080E090E0892B21F08EE690E00E9475
:1004A00000008FEF80937C0180E0CF910895EBE610
:1004B000F1E08081877F8F7E8083109267011092A8
:1004C00068011092690110926A0143E050E060E017
:1004D00070E08CE791E00C94FD120F931F93CF9383
:1004E000DF93EC016115710561F0FB0101900020C3
:1004F000E9F73197E61BF70BE931F10518F0E9E16F
:1005000001C0E0E00E2F10E0C80123E0880F991F22
:100510002A95E1F79B819770892B8B838C818F7152
:100520008C83EE2329F0A801CE0107960E94621366
:10053000FE01E00FF11F1782CE01DF91CF911F91D5
:100540000F91089580917C018F3FA1F480E090E0AD
:10055000892B21F086E090E00E94000023E043E038
:100560006FEF80E00E94790C64E571E00E946D02FB
:100570000C948001089580E090E0892B21F084E0C4
:1005800090E00E94000080916B01897F81608093E0
:100590006B018FEF80937E0180937D0127E043E024
:1005A0006FEF0E94790C64E571E00E946D020C947B
:1005B000800129986CE080E20C945C0180916C01D0
:1005C000982F9077903759F0982F92959F709F5F52
:1005D00097709295907F8F78892B80936C01809192
:1005E0006B018B7F8F7E80936B0180E090E0892B85
:1005F00021F087E690E00E9400000C94D90220913F
:100600006B0122FD0C94800180E00895CF9380E07F
:1006100090E0892B21F08CE090E00E9400002FE018
:1006200043E06FEF80E00E94790C64E571E00E9486
:100630006D02809153028770806180935302809194
:1006400054028F71806C8093540281E08093570232
:100650001092580280E592E00E94FF028FE00E9413
:10066000AD0D61E18FEF0E94BD0CC0917D0126E0D0
:1006700043E06FEF80E00E94790C6C2F0E940C0128
:100680000E94FF0286E00E94AD0DCF910C949C0762
:10069000CF938091600181FD27C00E94060380E016
:1006A00090E0892B21F089E090E00E940000809189
:1006B0006001816080936001C4E02AE143E06FEF54
:1006C00080E00E94790C62E00E940C010E94FF020F
:1006D0008BE10E94AD0D811102C0C15071F7809174
:1006E0006001826080936001CF9108956F927F9244
:1006F0008F929F92AF92BF92CF92DF92EF92FF9232
:100700000F931F93CF93DF9300D0CDB7DEB7E09167
:100710006101F09162010280F381E02D309709F0D0
:10072000099580916B0184FBCC24C0F884FFA1C1A2
:1007300086E0D82E90E0692E90E0792E00E010E05F
:1007400020E0E22E20E0F22E31E2B32E21E041E063
:1007500060E070E087E10E942A0180FD8AC1DA949E
:10076000DD2009F486C16114710421F081E090E07C
:100770000E94000021E041E060E070E080E60E941D
:100780002A01982E80E2891520F482EE0E947A01D7
:10079000912C21E0492D61E772E081E60E942A0157
:1007A00060E487E20E945C0190917402292F2695F3
:1007B000269526952A3108F029E192FD03C037E0FD
:1007C000320F01C030E2E091750250917602A090A4
:1007D00072028091710280907302931639F0611455
:1007E000710409F4B3CF8CE690E00AC0392F33705E
:1007F000323049F06114710409F4A8CF8DE690E01D
:100800000E940000A3CF4E2F477030916C013068DA
:1008100030936C0130917C0183124DC030E0B901FE
:10082000F3E0660F771FFA95E1F79770962B909398
:100830007402D901AF58BD4F17961C92E3FF1BC03D
:10084000E1E7F2E0A0E5B2E08B2D01900D928A95F0
:10085000E1F780915402877F8061809354028092F7
:100860005102A092520280E592E049835A830E948D
:10087000FF025A8149812091750224FD13C0433043
:1008800089F49091760281EF890F833008F043C09C
:100890005DCF913009F4CAC09A3009F457CF9C312A
:1008A00009F454CF0115110509F450CF81E792E006
:1008B0000E9400004BCF9FEF891248CF433031F5A3
:1008C00090916B0192FF03C0573009F43FCF58302D
:1008D00009F43CCF543109F039CF90917D0189134F
:1008E00035CF0E94A10D7370882799270E94670D4C
:1008F00090907D0125E143E06FEF8A2D0E94790CF5
:10090000692D0E940C010E94800120CF90917D01F1
:1009100089131CCFC7CF543029F40E94880C0E9441
:100920002E0214CF5830D1F490906B0190FE0ECF70
:100930000E94880C8F3F09F409CF91E0980F9F3FE8
:1009400009F404CF80917E01981708F0FFCE91FC46
:10095000FDCE90937E01A0927D01F8CE583141F4F6
:1009600029E143E06FEF8A2D0E94790C61E0C9CF45
:10097000593161F480916B0183FFE8CE877F8093CA
:100980006B010E94880C80936D01E0CE8091720211
:1009900081116BC09D3099F480E090E0892B21F0AB
:1009A0008BE090E00E94000098E088E10FB6F89498
:1009B000A895809360000FBE90936000FFCF9B319D
:1009C00099F40E94880C91E0811101C090E080911F
:1009D000600190FB80F9809360016114710409F457
:1009E000B5CE8AE090E00CCF9630A9F490917802D1
:1009F000992329F081E09D3419F080E001C08C2D0D
:100A000080935F0141E050E063E071E08FE591E0A9
:100A10000E940D139BCE933119F40E94060396CECB
:100A2000923109F036CF0E949B0C90CEE114F10474
:100A300009F48CCE229526952770253049F46091D3
:100A400078027091790280917A0290917B020AC0BB
:100A5000211105C088E792E00E94951103C060E073
:100A600070E0CB010E94000071CE9A3109F01ACFDC
:100A70006DCE0F900F90DF91CF911F910F91FF904E
:100A8000EF90DF90CF90BF90AF909F908F907F902E
:100A90006F9008950F931F930E94A10D0091630121
:100AA000109164012091650130916601601B710B0A
:100AB000820B930B1F910F9108959C01809161010E
:100AC000909162018217930751F090916B019F7191
:100AD00090936B01309362012093610105C0809176
:100AE0006B01805E80936B01E0916101F091620186
:100AF0000190F081E02D309709F009950E94A10D39
:100B00006093630170936401809365019093660123
:100B100008950F931F930E944A0520916C0120773E
:100B2000203729F000E117E220E030E004C000E6C1
:100B30001AEE20E030E0061717072807390730F4CF
:100B40008CE191E01F910F910C945D051F910F9125
:100B5000089580916C018F70863020F087E191E0DC
:100B60000C945D05089580916D018F3FA1F00E9466
:100B7000A10D609367017093680180936901909360
:100B80006A0180916D0190917E01891380937E01AD
:100B900083E191E01BC00E944A05613D77408105D9
:100BA0009105B0F080916B01803618F48FE091E0F0
:100BB0000DC0877F80936B0180E090E0892B21F04E
:100BC0008AE690E00E94000087E191E00C945D05C8
:100BD000089580917C018F3F59F080E090E0892B4F
:100BE00021F087E090E00E9400008FE091E018C0C3
:100BF0000E944A05613D77408105910598F08091FA
:100C00006B01803618F48BE091E00AC080E090E040
:100C1000892B21F089E690E00E94000087E091E0B6
:100C20000C945D0508950E944A05613D7740810559
:100C3000910520F480916B0181FF089580917D01E1
:100C40008F3F81F080916B018E7F80936B0180E0FC
:100C500090E0892B21F085E090E00E9400008BE07D
:100C600091E011C080916B01803618F487E191E02A
:100C70000AC080E090E0892B21F088E690E00E9495
:100C8000000087E091E00C945D05CF93219A229AB1
:100C9000CFB7F89480915C01811166C084EA91E03D
:100CA000FC01249148EB51E0FA01649130E0220FFD
:100CB000331F2A573E4FF901A591B4912C9162231D
:100CC00009F040C0E2E7F0E02491FA014491FC0110
:100CD00094919923B9F1222339F1233091F038F41A
:100CE0002130A9F0223001F584B58F7D12C0273064
:100CF00091F02830A1F02430B9F4809180008F7DEC
:100D000003C0809180008F77809380000DC084B5F0
:100D10008F7784BD09C08091B0008F7703C0809128
:100D2000B0008F7D8093B000E92FF0E0EE0FFF1F41
:100D3000E458FE4FA591B4918FB7F8949C91492B3C
:100D40004C938FBF61E08AE00E942B0D8CB58061CF
:100D50008CBD8CB580648CBD61E08DE00E942B0D54
:100D600061E08BE00E942B0D80915C018F5F80938E
:100D70005C01CFBF29982A9A6EE080E20E945C0154
:100D800065E070E080E090E00E94670D63E083E240
:100D90000E945C016FE584E20E945C016CE485E2E4
:100DA0000E945C0167E286E20E945C0163E780E5E5
:100DB0000E945C0166E08DE30E945C0121E041E05D
:100DC00060E070E086E00E942A01C82F21E041E047
:100DD00060E070E085E00E942A018C3409F040C098
:100DE000C732F1F562E082E20E945C0160E081E2DC
:100DF0000E945C0163E08CE30E945C018FEF8093B2
:100E0000020120E045E062E071E08BE20E942A01ED
:100E100020E045E062E071E08AE20E942A0120E0E1
:100E200045E062E071E080E30E942A0182EE0E94C8
:100E30007A0181EE0E947A0160E787E20E945C01FC
:100E400080916B01806180936B0180917C018F3F69
:100E500081F00E942E0281110CC087E091E00BC04E
:100E600080E090E0892BC9F387E690E00E940000C3
:100E7000F4CF87E191E0CF910C945D0520917A0049
:100E80002F7720937A00309160008A309105B1F07D
:100E900083FD02C028E001C028E28770822B98E120
:100EA0000FB6F894A895909360000FBE80936000F1
:100EB000809160008065809360000BC00FB6F8944D
:100EC000A895809160008861809360001092600016
:100ED0000FBE83B7817F846083BFF89483B781603E
:100EE00083BF85B7806685BF8F7D85BF78948895E1
:100EF00083B78E7F83BFF894A89580916000886146
:100F00008093600030936000789480917A008068CC
:100F100080937A0008951F920F920FB60F921124BA
:100F20000F900FBE0F901F901895089583E0809347
:100F3000200110923F020895CF93DF932BE043E00E
:100F40006FEF80E00E94790C6EE371E00E946D0209
:100F50000E94FF022CE043E06FEF80E00E94790CDA
:100F600061E571E00E946D020E94FF0280914102E2
:100F700090E090936F0180936E01C0E0D0E080918B
:100F80006E0190916F01C817D9074CF4C330D10599
:100F900031F066E08C2F0E94BD0C2196F0CFDF91DE
:100FA000CF910895FC0190810180F281E02DF894A9
:100FB0008181892B81832281892F80952823228317
:100FC000A7E0B0E01197F1F7218182238183A3E2AA
:100FD000B0E01197F1F780817894EFECF0E0319771
:100FE000F1F7982381E009F480E00895FC019081F5
:100FF0000180F281E02D892F809560FF12C0F89466
:101000002281822382838181892B8183A3E2B0E0C4
:101010001197F1F78281982B9283789487ED90E075
:1010200011C0F8942281822382838181892B81835C
:10103000AFEFB0E01197F1F78281982B928378940B
:101040008FE090E00197F1F70895FC019081018015
:10105000F281E02DF8948181292F209582238183CC
:1010600078948DE743E050E0815021F1DA01119747
:10107000F1F730813923C1F3F8948281822382838E
:101080008181892B81837894ABE7B7E01197F1F7E1
:10109000F894818128232183A3E1B1E01197F1F72E
:1010A0008081982381E009F080E07894E3E6F6E01F
:1010B0003197F1F708958F929F92AF92BF92CF929E
:1010C000DF92EF92FF920F931F93CF93DF93CDB7F1
:1010D000DEB761970FB6F894DEBF0FBECDBF80912B
:1010E0004202909143020E94250840E06CEC8091FE
:1010F0004202909143020E94880E40913D0264E4B6
:1011000080914202909143020E94880E80913F029A
:101110008823A9F0E0913E02E950E33040F4F0E08A
:10112000EE0FFF1FEA5DFE4F6081718102C06EEE1F
:1011300072E0072E000C880B990B0E94670D00E7E8
:1011400011E0E12CF12CCC24C39480916E0190919C
:101150006F01E816F9060CF085C023E0E216F104F1
:1011600009F480C0DE2CE0914202F0914302138624
:1011700015861486DF011B9633961E92AE17BF07A5
:10118000E1F7B12CBE01665F7F4F809142029091E2
:1011900043020E94CA0E882371F0BD1009C067E0A7
:1011A000CE010A960E947B0E9989891709F481C1A4
:1011B000B394DB1438F7812C912C3EEFA32E32EC44
:1011C000B32EA5019401F801608171818281938120
:1011D0000E94D9118823F1F120E030E04EEF52EC6B
:1011E000C501B4010E94D9118823A1F120E030E0AB
:1011F0004AEA52E4C501B4010E94D911882351F191
:10120000D092220280911F028770886280931F0211
:10121000809120028092230290922402A0922502C3
:10122000B0922602C092270290917C0190931D02F9
:101230008071816E809320028091600180FF04C0E4
:101240008CE192E00E94FF02F80180829182A282EA
:10125000B38202C00E949B0CFFEFEF1AFF0A0C5FE3
:101260001F4F73CF80916B0182FD1DC00E94A10DA5
:101270006B017C0180E090E0DC0120916B0122FD9C
:101280003CC080319742A105B10508F066C1A89520
:101290000E9476030E94A10DDC01CB018C199D09EF
:1012A000AE09BF09EACF90E1C92E97E2D92EE12C11
:1012B000F12C0E94D90280E090E0892B21F08EE091
:1012C00090E00E9400008FE791E00E94250C809141
:1012D00021018F3F21F580E4C8168FE1D806E10493
:1012E000F104E8F089E090E00E943E0750E4C51A5E
:1012F0005FE1D50AE108F108EACF803157E29507AE
:10130000A105B10508F029C120E1C22E27E2D22EA5
:10131000E12CF12CC81AD90AEA0AFB0ACACF80913B
:1013200021018F3F41F4E0EACE16EFE0DE06E10452
:10133000F10408F065C0809121018F3F41F4F0ED88
:10134000CF16F7E0DF06E104F10408F064C08091F5
:1013500021018F3F41F428EEC21623E0D206E104BA
:10136000F10408F063C0809121018F3F41F444EF04
:10137000C41641E0D406E104F10408F062C0809193
:1013800021018F3F39F45AEFC516D104E104F1046D
:1013900008F062C0809121018F3F39F48DE7C816B3
:1013A000D104E104F10408F061C0809121018F3F74
:1013B00039F4E0E4CE16D104E104F10408F060C091
:1013C000809121018F3F39F4F0E2CF16D104E1047E
:1013D000F10408F05FC0809121018F3F39F420E1D2
:1013E000C216D104E104F10408F05EC080E090E090
:1013F000892B09F4B2C08FE090E00E940000ADC0DC
:1014000088E090E00E943E0780EAC81A8FE0D80A80
:10141000E108F10890CF87E090E00E943E07E0ED00
:10142000CE1AE7E0DE0AE108F10891CF86E090E00D
:101430000E943E07F8EECF1AF3E0DF0AE108F10858
:1014400092CF85E090E00E943E0724EFC21A21E08F
:10145000D20AE108F10893CF84E090E00E943E07B1
:101460004AEFC41AD108E108F10894CF83E090E074
:101470000E943E0758E7C51AD108E108F10895CF48
:1014800082E090E00E943E078CE3C81AD108E10890
:10149000F10896CF81E090E00E943E07EEE1CE1A7F
:1014A000D108E108F10897CF80E090E00E943E0764
:1014B0009DCFBE016F5F7F4FCE010A960E94870FBE
:1014C000882341F068E0CE0101960E947B0E998549
:1014D0008917B1F060E874EE613854EE75070CF4CA
:1014E0006ACE072E000C880B990B0E94E01120E0B9
:1014F00030E040E05CE30E943F124B015C0161CEB2
:10150000698148E0649FB00111248A81282F30E06E
:10151000322F2227330F330F330F262B372B8A8599
:101520008031C9F4688570E08F81AB01481B510997
:10153000CA019695982F8827979587950E942F1313
:1015400060517109207F53E0220F331F5A95E1F754
:10155000620F731FC1CFB901BFCF61960FB6F89468
:10156000DEBF0FBECDBFDF91CF911F910F91FF90D6
:10157000EF90DF90CF90BF90AF909F908F900895A5
:101580000F931F93CF93DF93CDB7DEB761970FB65D
:10159000F894DEBF0FBECDBFE0914202F09143024E
:1015A000138615861486DF011B9633961E92AE179E
:1015B000BF07E1F71092410211E0BE01665F7F4F65
:1015C00080914202909143020E94CA0E882309F43E
:1015D00053C067E0CE010A960E947B0E9989891359
:1015E000ECCF80913D02811126C080914202909102
:1015F00043020E942508BE01665F7F4F8091420230
:10160000909143020E945A0F40E064EB80914202A5
:10161000909143020E94880E809142029091430271
:101620000E94D207082F80914202909143020E94AB
:1016300025080023F1F0BE016F5F7F4FCE010A96AF
:101640000E94870F00913E02CE010A960E94DC0F95
:10165000801718F480913E0204C0CE010A960E94C1
:10166000DC0F80933E02809141028F5F80934102A4
:10167000A4CF10933D02DFCF61960FB6F894DEBF82
:101680000FBECDBFDF91CF911F910F910895CF92E3
:10169000DF92EF92FF920F931F93CF93DF936C0132
:1016A0007A018B01C0E0D0E0CE15DF0589F0D801CA
:1016B0006D918D01D601ED91FC910190F081E02DAD
:1016C000C6010995892B11F47E0102C02196ECCF49
:1016D000C701DF91CF911F910F91FF90EF90DF90A5
:1016E000CF900895089580E090E00895FC01538D17
:1016F000448D252F30E0842F90E0821B930B5417EC
:1017000010F0CF96089501970895FC01918D828D78
:10171000981761F0828DDF01A80FB11D5D968C9145
:10172000928D9F5F9F73928F90E008958FEF9FEF50
:101730000895FC01918D828D981731F0828DE80F0C
:10174000F11D858D90E008958FEF9FEF0895FC01C6
:10175000918D228D892F90E0805C9F4F821B910993
:101760008F73992708958FE791E00E94A70B21E0DE
:10177000892B09F420E0822F0895FC01848DDF017C
:10178000A80FB11DA35ABF4F2C91848D90E00196F4
:101790008F739927848FA689B7892C93A089B189E3
:1017A0008C9180648C93938D848D981306C00288ED
:1017B000F389E02D80818F7D80830895EF92FF92E1
:1017C0000F931F93CF93DF93EC0181E0888F9B8D64
:1017D0008C8D981305C0E889F989808185FD24C026
:1017E000F62E0B8D10E00F5F1F4F0F731127E02EA9
:1017F0008C8DE8120CC00FB607FCFACFE889F98986
:10180000808185FFF5CFCE010E94BD0BF1CF8B8D7E
:10181000FE01E80FF11DE35AFF4FF0820B8FEA89BA
:10182000FB898081806207C0EE89FF896083E88937
:10183000F98980818064808381E090E0DF91CF919D
:101840001F910F91FF90EF900895CF93DF93EC01DC
:10185000888D8823C9F0EA89FB89808185FD05C0D0
:10186000A889B9898C9186FD0FC00FB607FCF5CF0A
:10187000808185FFF2CFA889B9898C9185FFEDCF52
:10188000CE010E94BD0BE7CFDF91CF91089580E09C
:1018900090E0892B29F00E94B30B81110C94000079
:1018A00008953FB7F8948091970290919802A09183
:1018B0009902B0919A0226B5A89B05C02F3F19F056
:1018C0000196A11DB11D3FBFBA2FA92F982F8827C0
:1018D000820F911DA11DB11DBC01CD0142E0660F1B
:1018E000771F881F991F4A95D1F7089508950E9480
:1018F0005D13E0E5F2E090917C0191838283668341
:10190000258347708481807E482B4483CF010895CE
:1019100080917502829586958770813019F4809147
:1019200078020895811105C088E792E00E9477113E
:10193000089580E00895CF92DF92EF92FF920E9487
:101940004A056B017C0126E143E06FEF80E00E94D5
:10195000790CFC0184818F71806A84838381877014
:1019600080628383C782D086E186F286CF01FF90B2
:10197000EF90DF90CF900C94FF02CF93DF93262F50
:101980008F3F19F0C4E5D1E002C0C5E5D1E040E0E9
:10199000682F80E00E94790CBE010E946D02DF91E9
:1019A000CF910C94FF021F920F920FB60F92112449
:1019B0002F933F934F935F936F937F938F939F9357
:1019C000AF93BF93EF93FF938FE791E00E94BD0B1E
:1019D000FF91EF91BF91AF919F918F917F916F9107
:1019E0005F914F913F912F910F900FBE0F901F90DD
:1019F00018951F920F920FB60F9211242F938F9369
:101A00009F93EF93FF93E0918F01F091900180817C
:101A1000E0919501F091960182FD12C09081809134
:101A200098018F5F8F7320919901821751F0E09197
:101A30009801F0E0E158FE4F958F8093980101C026
:101A40008081FF91EF919F918F912F910F900FBE09
:101A50000F901F901895CF93DF9390E0FC01E25513
:101A6000FE4F2491FC01E656FE4F8491882361F1DC
:101A700090E0880F991FFC01EA57FE4FC591D49161
:101A8000FC01E458FE4FA591B491611109C09FB7C4
:101A9000F8948881209582238883EC912E230BC0B3
:101AA000623061F49FB7F8943881822F8095832348
:101AB0008883EC912E2B2C939FBF06C08FB7F89490
:101AC000E8812E2B28838FBFDF91CF9108958F92CD
:101AD0009F92AF92BF92CF92DF92EF92FF926B01F3
:101AE0007C010E94510C4B015C01C114D104E10442
:101AF000F104F1F00E94510CDC01CB018819990925
:101B0000AA09BB09883E9340A105B10570F321E005
:101B1000C21AD108E108F10888EE880E83E0981E09
:101B2000A11CB11CC114D104E104F10419F7DDCFEB
:101B3000FF90EF90DF90CF90BF90AF909F908F90ED
:101B400008952FB7F8946091930270919402809158
:101B50009502909196022FBF0895CF92DF92EF9257
:101B6000FF92CF93DF93D82F0E94A10D6B017C01D0
:101B700081E0D11180E080937602C0E00E94A10D47
:101B8000AB01BC014C195D096E097F09403D57400E
:101B90006105710580F4C1110EC0A8950E947603FD
:101BA000909175029770933049F7C1E08091760269
:101BB0008D13E3CFE3CF8C2FDF91CF91FF90EF9088
:101BC000DF90CF9008951F920F920FB60F921124BD
:101BD0002F933F938F939F93AF93BF9380919302E3
:101BE00090919402A0919502B09196023091920248
:101BF00023E0230F2D3720F40196A11DB11D05C050
:101C000026E8230F0296A11DB11D20939202809316
:101C1000930290939402A0939502B09396028091C0
:101C2000970290919802A0919902B0919A02019620
:101C3000A11DB11D8093970290939802A0939902E1
:101C4000B0939A02BF91AF919F918F913F912F9145
:101C50000F900FBE0F901F9018951F920F920FB606
:101C60000F9211242F933F934F935F936F937F9322
:101C70008F939F93AF93BF93EF93FF93E0912401D2
:101C8000F09125010995FF91EF91BF91AF919F913F
:101C90008F917F916F915F914F913F912F910F9015
:101CA0000FBE0F901F9018951F920F920FB60F92B4
:101CB00011242F933F934F935F936F937F938F9351
:101CC0009F93AF93BF93EF93FF93E0912201F09125
:101CD00023010995FF91EF91BF91AF919F918F9152
:101CE0007F916F915F914F913F912F910F900FBE18
:101CF0000F901F901895DC01E0E0615038F08D9155
:101D0000E827F0E0E458FF4FE491F7CF8E2F0895D5
:101D1000CF92DF92EF92FF920F931F93CF93DF93B7
:101D20001F92CDB7DEB76C01E62E08E010E0FF246D
:101D3000F39461E08F2D8E2109F460E0C6014983A0
:101D40000E94F607FF0C0150110949810115110588
:101D500081F7411115C0F894D6011196ED91FC91CF
:101D6000129791818C918095892381831196ED91B1
:101D7000FC91129792818C9180958923828378942B
:101D80000F90DF91CF911F910F91FF90EF90DF9017
:101D9000CF900895AF92BF92CF92DF92EF92FF92D1
:101DA0000F931F93CF93DF931F92CDB7DEB75C01E4
:101DB000D62EE72EFC018585811105C0C5010E9444
:101DC0002508811106C0F50113861586148680E06A
:101DD00065C040E060EFC5010E94880E01E0F12C73
:101DE000C12C11E0C5010E94D207682FC50169838B
:101DF0000E94D2076981613019F48130B9F433C08F
:101E00004F2D50E068131BC0F5018385181730F47F
:101E1000E40FF51F8381802349F402C0181731F0C5
:101E200060E0193058F4F501148708C0F501EF0D92
:101E3000F11D8381802B838361E009C0C12EF501F0
:101E4000E40FF51F9381802F809589238383C5013B
:101E50000E94F6071F5F000F11F4F39401E0F7E012
:101E6000FF1508F0BFCF113408F4ADCFF501C386DC
:101E7000C11002C081E08587F5018381882309F4C0
:101E8000A2CFD5011396ED2DFE2D9501255F3F4F75
:101E90008D918193A217B307D9F781E00F90DF915D
:101EA000CF911F910F91FF90EF90DF90CF90BF9057
:101EB000AF900895CF92DF92EF92FF920F931F930E
:101EC000CF93DF931F92CDB7DEB78C01F62E40E0A3
:101ED00065E579830E94880ECF2C7981D72E760113
:101EE00088E0E80EF11CF60161916F0140E0C80145
:101EF0000E94880ECE14DF04B1F70F90DF91CF91CE
:101F00001F910F91FF90EF90DF90CF900895AF92C7
:101F1000BF92CF92DF92EF92FF920F931F93CF93D6
:101F2000DF93EC018B0180914202909143020E9469
:101F300025088823A1F1BE018091420290914302BD
:101F40000E945A0F40E06EEB809142029091430252
:101F50000E94880EE801680189E0C80ED11CA0909B
:101F60004202B090430288E0E82EF12C01E010E03C
:101F7000C5010E94D2078111102B000F81E0E81AE1
:101F8000F108B1F71993CC15DD0549F780914202AC
:101F9000909143020E94250891E0813009F090E081
:101FA000892FDF91CF911F910F91FF90EF90DF90DC
:101FB000CF90BF90AF900895CF93DF93CDB7DEB7AA
:101FC00029970FB6F894DEBF0FBECDBFFC0120816C
:101FD000203119F1BE016F5F7F4F0E94870F882368
:101FE00079F068E0CE0101960E947B0E99858913F5
:101FF00007C008C0803458F08F3569F08F3769F01A
:1020000080E00CC08D818F33A9F78AE007C08F3143
:10201000B9F789E003C08BE001C08CE029960FB6C8
:10202000F894DEBF0FBECDBFDF91CF910895CF935F
:10203000DF93FC01108211821282148215821682B3
:10204000DC0117968AE1ED0119928A95E9F782E0A1
:102050008383DF91CF910895789484B5826084BDA5
:1020600084B5816084BD85B5826085BD85B581609C
:1020700085BD80916E00816080936E00109281001A
:1020800080918100826080938100809181008160D5
:102090008093810080918000816080938000809196
:1020A000B10084608093B1008091B0008160809322
:1020B000B00080917A00846080937A0080917A00E9
:1020C000826080937A0080917A00816080937A00A8
:1020D00080917A00806880937A001092C100A89560
:1020E00080E090E0892B11F00E940000E0918F01C8
:1020F000F091900182E08083E0918B01F0918C015E
:102100001082E0918D01F0918E0180E18083109228
:102110009701E0919301F091940186E08083E09132
:102120009101F0919201808180618083E091910121
:10213000F0919201808188608083E0919101F0911B
:102140009201808180688083E0919101F0919201F9
:1021500080818F7D8083809160018D7F809360017D
:102160000E94C00A41E050E063E071E08FE591E039
:102170000E94FD126FEF81E090E00E941D1380919C
:102180006C018F7880936C01109262011092610152
:102190008CE191E00E945D0588E493E090935E01FC
:1021A00080935D010E94A10D0E94A10D0E94760303
:1021B000A89580916B0182FFF7CF0E949607A895A2
:1021C000A8950E9476030E945B080E94470CF8CFF6
:1021D000109282011092810188EE93E0A0E0B0E0BD
:1021E0008093830190938401A0938501B09386012D
:1021F00080E391E09093800180937F0185EC90E0F3
:1022000090938C0180938B0184EC90E090938E01ED
:1022100080938D0180EC90E09093900180938F01EA
:1022200081EC90E0909392018093910182EC90E098
:10223000909394018093930186EC90E090939601A3
:1022400080939501109298011092990110929A0131
:1022500010929B0181E792E00E94171080E592E0C6
:102260000E94171060E088E00E942B0DE6EBF1E081
:10227000E491E0939B02E2EAF1E0E491F0E0EE0FFA
:10228000FF1FE057FE4F8591949190939D0280939C
:102290009C021092A6021092A8021092A702E6EAEF
:1022A000F2E0129282E0EE39F807D9F785E997E07B
:1022B00090934F0280934E028BE992E090934302F9
:1022C000809342021092410210923D0289E0809375
:1022D0003E0281E080933F02809340028CE192E0D5
:1022E0000E94171010922202109221020895FC0100
:1022F00088279927E89421912032E9F3293010F0BA
:102300002E30C8F32B3241F02D3239F4689404C0DA
:102310000E94D111820F911D219120532A30C0F3C8
:102320001EF4909581959F4F08951F93FC01992766
:102330008827BC01E89411911032E9F3193010F0AC
:102340001E30C8F31B3251F01D3249F4689406C0A8
:102350000E94BC11610F711D811D911D11911053BF
:102360001A30B0F33EF490958095709561957F4F4B
:102370008F4F9F4F1F910895592F482F372F262F8A
:10238000660F771F881F991F660F771F881F991F79
:10239000620F731F841F951F660F771F881F991F79
:1023A00008957AE0979F902D879F802D910D11249D
:1023B00008950E941B1208F481E00895E89409C072
:1023C00097FB3EF490958095709561957F4F8F4F68
:1023D0009F4F9923A9F0F92F96E9BB279395F6957E
:1023E000879577956795B795F111F8CFFAF4BB0FFC
:1023F00011F460FF1BC06F5F7F4F8F4F9F4F16C060
:10240000882311F096E911C0772321F09EE8872FE9
:10241000762F05C0662371F096E8862F70E060E0A5
:102420002AF09A95660F771F881FDAF7880F96951E
:10243000879597F90895990F0008550FAA0BE0E8C2
:10244000FEEF16161706E807F907C0F01216130676
:10245000E407F50798F0621B730B840B950B39F4B6
:102460000A2661F0232B242B252B21F408950A261C
:1024700009F4A140A6958FEF811D811D08950E944A
:1024800052120C94C3120E94B51238F00E94BC1272
:1024900020F0952311F00C94AC120C94B21211247C
:1024A0000C94F7120E94D41270F3959FC1F3950F0C
:1024B00050E0551F629FF001729FBB27F00DB11DC8
:1024C000639FAA27F00DB11DAA1F649F6627B00D58
:1024D000A11D661F829F2227B00DA11D621F739F41
:1024E000B00DA11D621F839FA00D611D221F749F4F
:1024F0003327A00D611D231F849F600D211D822F96
:10250000762F6A2F11249F5750409AF0F1F08823BC
:102510004AF0EE0FFF1FBB1F661F771F881F9150E9
:102520005040A9F79E3F510580F00C94AC120C94DA
:10253000F7125F3FE4F3983ED4F38695779567955D
:10254000B795F795E7959F5FC1F7FE2B880F911D13
:102550009695879597F9089597F99F6780E870E0B9
:1025600060E008959FEF80EC089500240A94161609
:10257000170618060906089500240A941216130671
:10258000140605060895092E0394000C11F48823FF
:1025900052F0BB0F40F4BF2B11F460FF04C06F5F1B
:1025A0007F4F8F4F9F4F089557FD9058440F551FF1
:1025B00059F05F3F71F04795880F97FB991F61F0C5
:1025C0009F3F79F087950895121613061406551F3C
:1025D000F2CF4695F1DF08C0161617061806991FA8
:1025E000F1CF86957105610508940895E894BB279D
:1025F00066277727CB0197F90895DC01CB01FC0111
:10260000F999FECF06C0F2BDE1BDF89A319600B44B
:102610000D9241505040B8F70895DC01A40FB51F4A
:102620004150504048F0CB01840F951F2E910E94DD
:102630001E1341505040D0F70895262FF999FECF30
:1026400092BD81BDF89A019700B4021639F01FBA05
:1026500020BD0FB6F894FA9AF99A0FBE089597FB29
:10266000072E16F4009407D077FD09D00E9443137B
:1026700007FC05D03EF4909581959F4F0895709585
:1026800061957F4F0895AA1BBB1B51E107C0AA1F8C
:10269000BB1FA617B70710F0A61BB70B881F991F03
:1026A0005A95A9F780959095BC01CD010895EE0F3C
:1026B000FF1F0590F491E02D099481E090E0F894DB
:1026C0000C947113FB01DC014150504048F0019023
:1026D0000D920020C9F701C01D9241505040E0F713
:0626E0000895F894FFCFFD
:1026E600FFFF00FCE1A8A8DE028905A202E90513A6
:1026F60002B3051801A905BB021306FF57024506DA
:1027060001FF760C760C5E00BC007701000000002D
:10271600DE0B470B760B250CA70B850B990B546527
:102726006D702B42617474657279204D65746572A3
:0C27360000322E3000322E312E31000017
:00000001FF
