:100000000C94DD020C94810C0C945A0C0C94050396
:100010000C9405030C9405030C942F080C94050311
:100020000C9405030C9405030C9405030C94050330
:100030000C9405030C9405030C9405030C94050320
:100040000C94100C0C9405030C94160B0C94F00AF1
:100050000C9405030C9405030C9405030C94050300
:100060000C947F140C9405030000000800020100AA
:100070000003040700000000000000000000000072
:10008000250028002B0000000000240027002A0083
:10009000040404040404040402020202020203032E
:1000A0000303030301020408102040800102040836
:1000B000102001020408102000000000003E5B4FE9
:1000C0005B3E3E6B4F6B3E1C3E7C3E1C183C7E3CB8
:1000D000181C577D571C1C5E7F5E1C00183C1800C6
:1000E000FFE7C3E7FF0018241800FFE7DBE7FF3056
:1000F000483A060E2629792926407F050507407FC4
:1001000005253F5A3CE73C5A7F3E1C1C08081C1C36
:100110003E7F14227F22145F5F005F5F06097F012C
:100120007F006689956A606060606094A2FFA29417
:1001300008047E040810207E201008082A1C0808E5
:100140001C2A08081E101010100C1E0C1E0C303833
:100150003E3830060E3E0E06000000000000005F34
:1001600000000007000700147F147F14242A7F2A50
:100170001223130864623649562050000807030012
:10018000001C2241000041221C002A1C7F1C2A085E
:10019000083E0808008070300008080808080000C1
:1001A00060600020100804023E5149453E00427F35
:1001B000400072494949462141494D331814127F84
:1001C0001027454545393C4A494931412111090724
:1001D0003649494936464949291E000014000000A5
:1001E0004034000000081422411414141414004177
:1001F00022140802015909063E415D594E7C121134
:10020000127C7F494949363E414141227F4141416B
:100210003E7F494949417F090909013E41415173E6
:100220007F0808087F00417F41002040413F017F57
:10023000081422417F404040407F021C027F7F041F
:1002400008107F3E4141413E7F090909063E415168
:10025000215E7F09192946264949493203017F0158
:10026000033F4040403F1F2040201F3F4038403F59
:10027000631408146303047804036159494D43006F
:100280007F4141410204081020004141417F0402A6
:10029000010204404040404000030708002054543D
:1002A00078407F284444383844444428384444281B
:1002B0007F385454541800087E090218A4A49C786E
:1002C0007F0804047800447D40002040403D007FCA
:1002D0001028440000417F40007C047804787C08AA
:1002E0000404783844444438FC182424181824247E
:1002F00018FC7C08040408485454542404043F4463
:10030000243C4040207C1C2040201C3C4030403C91
:1003100044281028444C9090907C4464544C4400F1
:100320000836410000007700000041360800020155
:100330000204023C2623263C1EA1A161123A404041
:10034000207A3854545559215555794122545478BE
:1003500042215554784020545579400C1E52721257
:1003600039555555593954545459395554545800E0
:1003700000457C410002457D420001457C407D12E4
:1003800011127DF0282528F07C5455450020545446
:100390007C547C0A097F4932494949323A444444F1
:1003A0003A324A4848303A4141217A3A424020782C
:1003B000009DA0A07D3D4242423D3D4040403D3C2D
:1003C00024FF2424487E4943662B2FFC2F2BFF0952
:1003D00029F620C0887E0903205454794100004446
:1003E0007D413048484A32384040227A007A0A0A31
:1003F000727D0D19317D2629292F282629292926A4
:1004000030484D4020380808080808080808382FE8
:1004100010C8ACBA2F102834FA00007B0000081472
:100420002A142222142A14085500550055AA55AA48
:1004300055AAFF55FF55FF000000FF00101010FFE8
:1004400000141414FF001010FF00FF1010F010F043
:10045000141414FC001414F700FF0000FF00FF1434
:1004600014F404FC141417101F10101F101F141480
:10047000141F00101010F0000000001F10101010CA
:100480001F10101010F010000000FF1010101010BE
:1004900010101010FF10000000FF140000FF00FFFC
:1004A00000001F10170000FC04F414141710171498
:1004B00014F404F40000FF00F714141414141414BA
:1004C000F700F7141414171410101F101F1414142D
:1004D000F4141010F010F000001F101F0000001F97
:1004E00014000000FC140000F010F01010FF10FFCA
:1004F000141414FF141010101F00000000F010FF5F
:10050000FFFFFFFFF0F0F0F0F0FFFFFF0000000042
:1005100000FFFF0F0F0F0F0F3844443844FC4A4AC6
:100520004A347E02020606027E027E02635549417B
:10053000633844443C04407E201E2006027E0202B2
:1005400099A5E7A5991C2A492A1C4C7201724C30C6
:100550004A4D4D303048784830BC625A463D3E499D
:100560004949007E0101017E2A2A2A2A2A44445F41
:10057000444440514A444040444A51400000FF0135
:1005800003E080FF000008086B6B08361236243643
:10059000060F090F060000181800000010100030A8
:1005A00040FF0101001F01011E00191D1712003C30
:1005B0003C3C3C0000000000591811241FBECFEF46
:1005C000D8E0DEBFCDBF23E0A2EAB1E001C01D92BA
:1005D000A738B207E1F711E0A0E0B1E0E2EEF8E3FE
:1005E00002C005900D92A23AB107D9F712E0CDED05
:1005F000D2E004C02197FE010E94211BCC3DD1070F
:10060000C9F70E947B190C946F1C0C940000809118
:100610007303846080937303809174038078809364
:100620007403E0917603F0917703309709F0099411
:1006300008950F931F930E94CE0B00916B031091AE
:100640006C0320916D0330916E03601B710B820B64
:10065000930B1F910F910895E3E7F3E08081877F6B
:100660008F7E808310926F0310927003109271033B
:100670001092720343E050E060E070E089EA91E09C
:100680000C94991A8EBD00000DB407FEFDCF8EB5F7
:100690000895CF92DF92EF92FF920F931F93CF9323
:1006A000DF937B01142F022F91E59CBD91E09DBD4E
:1006B0002A98E3E2F0E03197F1F70E944203E70164
:1006C0001123A9F0002349F08FEF0E944203E114A7
:1006D000F10459F08883219608C06E018FEFC81A83
:1006E000D80A88810E944203E6011150E9CF2A9A74
:1006F000E3E2F0E03197F1F7DF91CF911F910F9195
:10070000FF90EF90DF90CF900895CF93DF931F92EB
:10071000CDB7DEB7698320E041E0BE016F5F7F4F58
:100720000E9449030F90DF91CF9108956FE080E21E
:100730000E94850360911C016F3F19F08AE20E94BC
:100740008503299A0895CF93C82F8FEF8C0F8E3F82
:10075000A8F4C093A901C0931C0163E082E20E9447
:10076000850361E081E20E9485030E9496036C2F5D
:1007700080E090E00E94B91A81E00CC080E090E037
:10078000892B21F08EE690E00E9400008FEF80938D
:10079000A90180E0CF91089580917403982F9077FC
:1007A000903759F0982F92959F709F5F9770929510
:1007B000907F8F78892B80937403809173038B7F54
:1007C0008F7E8093730380E090E0892B21F087E691
:1007D00090E00E94000029986CE080E20C94850370
:1007E00020E040E060E070E00C9449030F931F9319
:1007F000CF93DF93FC0182819091730390FF04C03B
:100800008F3F09F04FC005C08F3F19F0D091AA016A
:1008100001C0DFEF8091A9018083438142FD06C0C2
:10082000469546954695C7E0C40F01C0C0E28F01CA
:1008300080E090E0892B21F080E090E00E940000B1
:10084000299883E092E00197F1F76EE080E20E9440
:1008500085038BE891E00197F1F76D2F8AE20E9402
:1008600085036D2F80E30E94850381EE0E94F003D3
:10087000DF3F11F080EA01C080EB4C2FC13208F05D
:1008800040E220E0B8010E944903299A00E010E00C
:100890008FEF0E94F003C82F807331F401501109CB
:1008A000B9F702C0C0E02FC0299860E387E20E9438
:1008B0008503C4FF03C081EE0E94F0030E949603EB
:1008C000C5FBCC27C0F991E0DF3F09F090E0C92BD0
:1008D0008091AA01D81317C0C11110C080E090E028
:1008E000892B21F085E690E00E940000809174033E
:1008F00091E0980F9F70807F892B03C080917403D3
:10090000807F809374038C2FDF91CF911F910F9183
:10091000089580E090E0892B21F088E090E00E942B
:1009200000008FEF8093750380917303886080933C
:10093000730348E163E080E00E946D0A61E00E9479
:100940008E170C94F6038091A9018F3F99F480E0F3
:1009500090E0892B21F086E090E00E94000043E0C7
:1009600063E080E00E946D0A6BE971E00E949A17D3
:100970000C94F603089580E090E0892B21F084E048
:1009800090E00E94000080917303897F81608093D2
:1009900073038FEF8093AB018093AA0147E063E07C
:1009A0000E946D0A6BE971E00E949A170C94F6039D
:1009B0002091730322FD0C94F60380E008956F925A
:1009C0007F928F929F92AF92BF92DF92EF92FF92AF
:1009D0000F931F93CF93DF9300D0CDB7DEB7E09195
:1009E0006903F0916A030280F381E02D309709F0EA
:1009F00009958091730384FBEE24E0F884FFAEC177
:100A000086E0F82E90E0692E90E0792E00E010E06C
:100A100021E2D22E21E041E060E070E087E10E9417
:100A2000490380FD9BC1FA94FF2009F497C161142A
:100A3000710421F081E090E00E94000021E041E09B
:100A400060E070E080E60E944903A82E80E28A15EB
:100A500020F482EE0E94F003A12C21E04A2D6DE8E3
:100A600072E081E60E94490360E487E20E94850308
:100A700090919002292F2695269526952A3108F0E7
:100A800029E192FD03C047E0420F01C040E2E0913E
:100A9000910250919202B0908E0230918D0280911D
:100AA0008F02A41639F06114710409F4B3CF8CE6F7
:100AB00090E00AC0492F4370423049F0611471043C
:100AC00009F4A8CF8DE690E00E940000A3CF4E2F3E
:100AD0004770609174036068609374036091A9012A
:100AE00086134DC030E0B901F3E0660F771FFA9529
:100AF000E1F79770962B90939002D901A357BD4FC1
:100B000017961C92E3FF1BC0EDE8F2E0ACE6B2E002
:100B10009D2D01900D929A95E1F790917002977F2B
:100B200090619093700280936D02B0926E028CE699
:100B300092E049835A830E94D8045A8149812091C6
:100B4000910224FD13C0433089F49091920281EF09
:100B5000890F833008F042C05DCF913009F4DFC0C7
:100B60009A3009F457CF9C3109F454CF011511057F
:100B700009F450CF8DE892E00E9400004BCF8F3FE8
:100B800009F048CF433029F58091730382FF03C0F9
:100B9000573009F43FCF583009F43CCF543109F0B5
:100BA00039CF8091AA01381335CF0E94CE0B7370D4
:100BB000882799270E94940BA090AA0145E163E041
:100BC0008B2D0E946D0A6A2D0E948E170E94F603DB
:100BD00021CF8091AA0138131DCFC8CF543029F4FA
:100BE0000E949C0A0E94A30315CF5830D1F4A09014
:100BF0007303A0FE0FCF0E949C0A8F3F09F40ACF17
:100C000091E0980F9F3F09F405CF8091AB019817B1
:100C100008F000CFA1FCFECE9093AB01B092AA01E8
:100C2000F9CE583139F449E163E08B2D0E946D0A09
:100C300061E0CACF593161F48091730383FFEACE3A
:100C4000877F809373030E949C0A80937503E2CE92
:100C500080918E0281117EC09D3099F480E090E0F9
:100C6000892B21F08BE090E00E94000098E088E161
:100C70000FB6F894A895809360000FBE9093600023
:100C8000FFCF9B3199F40E949C0A91E0811101C031
:100C900090E08091790390FB80F98093790361144F
:100CA000710409F4B7CE8AE090E00ECF9630A9F433
:100CB00090919402992329F081E09D3419F080E00D
:100CC00001C08E2D8093780341E050E063E071E035
:100CD00088E793E00E94A91A9DCE933119F40E94EF
:100CE000E51798CE923109F038CF0E9419034B01D5
:100CF0005C0146E163E080E00E946D0AFC018481B2
:100D00008F71806A84838381877080628383878206
:100D10009086A186B286CF010E94D8047BCE229510
:100D200026952770253049F46091940270919502C0
:100D300080919602909197020AC0211105C084E922
:100D400092E00E94551A03C060E070E0CB010E945F
:100D5000CD1660CE9A3109F009CF5CCE0F900F907E
:100D6000DF91CF911F910F91FF90EF90DF90BF9097
:100D7000AF909F908F907F906F9008959C0180918D
:100D8000690390916A038217930751F0909173035E
:100D90009F719093730330936A032093690305C096
:100DA00080917303805E80937303E0916903F091F7
:100DB0006A030190F081E02D309709F009950E94B7
:100DC000CE0B60936B0370936C0380936D039093D1
:100DD0006E0308950F931F930E94190320917403CB
:100DE0002077203729F000E117E220E030E004C04E
:100DF00000E61AEE20E030E006171707280739074B
:100E000030F481E291E01F910F910C94BE061F9186
:100E10000F910895809174038F70863020F088E1DF
:100E200091E00C94BE060895809175038F3FA1F068
:100E30000E94CE0B60936F037093700380937103D5
:100E400090937203809175039091AB018913809305
:100E5000AB0184E191E01BC00E941903613D774022
:100E600081059105B0F080917303803618F480E11C
:100E700091E00DC0877F8093730380E090E0892B21
:100E800021F08AE690E00E94000088E191E00C9455
:100E9000BE0608958091A9018F3F59F080E090E04F
:100EA000892B21F087E090E00E94000080E191E032
:100EB00018C00E941903613D77408105910598F0A3
:100EC00080917303803618F48CE091E00AC080E0D2
:100ED00090E0892B21F089E690E00E94000088E0F4
:100EE00091E00C94BE0608950E941903613D77407D
:100EF0008105910520F48091730381FF089580910D
:100F0000AA018F3F81F0809173038E7F80937303DA
:100F100080E090E0892B21F085E090E00E940000C5
:100F20008CE091E011C080917303803618F488E161
:100F300091E00AC080E090E0892B21F088E690E003
:100F40000E94000088E091E00C94BE06CF93219AA5
:100F5000229A0E944C1429982A9A6EE080E20E94FC
:100F6000850365E070E080E090E00E94940B63E010
:100F700083E20E9485036FE584E20E9485036CE4AE
:100F800085E20E94850367E286E20E94850363E7AB
:100F900080E50E94850366E08DE30E94850321E0E1
:100FA00041E060E070E086E00E944903C82F21E044
:100FB00041E060E070E085E00E9449038C3409F074
:100FC00040C0C732F1F562E082E20E94850360E032
:100FD00081E20E94850363E08CE30E9485038FEF2A
:100FE0008093030120E045E063E071E08BE20E9422
:100FF000490320E045E063E071E08AE20E94490392
:1010000020E045E063E071E080E30E94490382EE66
:101010000E94F00381EE0E94F00360E787E20E94E5
:101020008503809173038061809373038091A9018C
:101030008F3F81F00E94A30381110CC088E091E0F2
:101040000BC080E090E0892BC9F387E690E00E9416
:101050000000F4CF88E191E0CF910C94BE061F927E
:101060000F920FB60F9211240F900FBE0F901F908A
:101070001895CF92DF92EF92FF920F931F93CF9329
:10108000DF936C017A018B01C0E0D0E0CE15DF0563
:1010900089F0D8016D918D01D601ED91FC910190FF
:1010A000F081E02DC6010995892B11F47E0102C063
:1010B0002196ECCFC701DF91CF911F910F91FF9047
:1010C000EF90DF90CF900895FC01538D448D252F34
:1010D00030E0842F90E0821B930B541710F0CF96D2
:1010E000089501970895FC01918D828D981761F004
:1010F000828DDF01A80FB11D5D968C91928D9F5F4F
:101100009F73928F90E008958FEF9FEF0895FC01F9
:10111000918D828D981731F0828DE80FF11D858DAC
:1011200090E008958FEF9FEF0895FC01918D228D3F
:10113000892F90E0805C9F4F821B91098F739927C4
:1011400008958CEA91E00E94950821E0892B09F42A
:1011500020E0822F0895FC01848DDF01A80FB11DCE
:10116000A35ABF4F2C91848D90E001968F739927DD
:10117000848FA689B7892C93A089B1898C918064CA
:101180008C93938D848D981306C00288F389E02D8B
:1011900080818F7D80830895EF92FF920F931F933C
:1011A000CF93DF93EC0181E0888F9B8D8C8D98131A
:1011B00005C0E889F989808185FD24C0F62E0B8D54
:1011C00010E00F5F1F4F0F731127E02E8C8DE81278
:1011D0000CC00FB607FCFACFE889F989808185FF3A
:1011E000F5CFCE010E94AB08F1CF8B8DFE01E80F49
:1011F000F11DE35AFF4FF0820B8FEA89FB89808152
:10120000806207C0EE89FF896083E889F98980815F
:101210008064808381E090E0DF91CF911F910F91F6
:10122000FF90EF900895CF93DF93EC01888D882392
:10123000C9F0EA89FB89808185FD05C0A889B98943
:101240008C9186FD0FC00FB607FCF5CF808185FF1E
:10125000F2CFA889B9898C9185FFEDCFCE010E948C
:10126000AB08E7CFDF91CF91089580E090E0892B24
:1012700029F00E94A10881110C94000008953FB745
:10128000F8948091C7029091C802A091C902B091D0
:10129000CA0226B5A89B05C02F3F19F00196A11DD3
:1012A000B11D3FBFBA2FA92F982F8827820F911DFC
:1012B000A11DB11DBC01CD0142E0660F771F881F43
:1012C000991F4A95D1F708950895CF92DF92EF9232
:1012D000FF920F931F93CF93DF93FC016901342F8B
:1012E0008589882391F0823020F090859150961B5B
:1012F000692F9FEF980F923018F432853150341BCC
:1013000080FF03C0862F632F382F67FD79C0862F9B
:10131000062E000C990BC481D5818C179D070CF00B
:101320006FC0032F10E046815781041715070CF09A
:1013300067C0568D23E0959587952A95E1F743E0A0
:10134000159507954A95E1F7509F7001519FF00C54
:101350001124078D10A1800F911F8E0D9F1DDC01A0
:101360002C91462F4770377081A192A1820F911D59
:10137000DC018C91823018F097E0941B492F9FEF8D
:10138000980F923018F497E0931B392F80FF03C019
:10139000842F432F382F822F652F0E94CB1A859FD1
:1013A00020191124B8E02B9F400D112498E0899F4B
:1013B000300D1124632F70E083E0759567958A9551
:1013C000E1F7C69FC001C79F900DD69F900D1124D5
:1013D000840F911D47FD9A95038CF48DE02DE80F45
:1013E000F91F377081E090E001C0880F3A95EAF765
:1013F0002081CD2811F0822B02C08095822380832A
:10140000DF91CF911F910F91FF90EF90DF90CF90E0
:1014100008950C94950EFC01458D50E0672B19F44E
:1014200060E070E002C06FEF70E0FC01838D948D8E
:101430000C94591C8F929F92AF92BF920F931F935F
:10144000CF93DF93CDB7DEB7A1970FB6F894DEBF89
:101450000FBECDBF19A2423008F44AE08E010F5DE5
:101460001F4F842E912CA12CB12CA50194010E9418
:10147000EB1AE62FB901CA0101501109EA3014F440
:10148000E05D01C0E95CD801EC93232B242B252BD4
:1014900061F70115110571F0F80101900020E9F7DD
:1014A0003197AF01401B510BB80189E492E00E94D3
:1014B000390802C080E090E0A1960FB6F894DEBF34
:1014C0000FBECDBFDF91CF911F910F91BF90AF9015
:1014D0009F908F9008950E94541CECE6F2E090914A
:1014E000A901918382838FEF86834583677084810E
:1014F000807E682B6483CF01089590E0FC01EC5559
:10150000FF4F2491FC01E057FF4F8491882399F00D
:1015100090E0880F991FFC01EA57FF4FA591B49105
:10152000FC01E458FF4F859194918FB7F894EC91AA
:10153000E22BEC938FBF089580919102829586955E
:101540008770813019F4809194020895811105C04B
:1015500084E992E00E94371A089580E0089541E0FE
:1015600063E080E00E946D0A6BE971E00E949A17C7
:101570000C94D804CF92DF92EF92FF92CF93DF9337
:101580006C01990FEE08FF08F7FE1FC0E0914902B9
:10159000F0914A020190F081E02D6DE289E492E041
:1015A0000995EC0166277727CB016C197D098E0917
:1015B0009F094AE00E941A0A8C0F9D1FDF91CF916C
:1015C000FF90EF90DF90CF9008954AE0C701B601F9
:1015D000DF91CF91FF90EF90DF90CF900C941A0A9B
:1015E0001F920F920FB60F9211242F933F934F9398
:1015F0005F936F937F938F939F93AF93BF93EF937B
:10160000FF938CEA91E00E94AB08FF91EF91BF91AC
:10161000AF919F918F917F916F915F914F913F918A
:101620002F910F900FBE0F901F9018951F920F9241
:101630000FB60F9211242F938F939F93EF93FF93E5
:10164000E091BC01F091BD018081E091C201F09177
:10165000C30182FD12C090818091C5018F5F8F739D
:101660002091C601821751F0E091C501F0E0E455E8
:10167000FE4F958F8093C50101C08081FF91EF914E
:101680009F918F912F910F900FBE0F901F901895E3
:1016900090E0FC01E859FF4F3491FC01EC55FF4FFD
:1016A0002491FC01E057FF4FE491EE2309F43BC085
:1016B000332339F1333091F038F43130A9F032303E
:1016C00001F584B58F7D12C0373091F03830A1F02C
:1016D0003430B9F4809180008F7D03C08091800008
:1016E0008F77809380000DC084B58F7784BD09C04B
:1016F0008091B0008F7703C08091B0008F7D809380
:10170000B000F0E0EE0FFF1FE458FF4FA591B49139
:101710008FB7F894EC91611103C020952E2301C07E
:101720002E2B2C938FBF08958F929F92AF92BF92D2
:10173000CF92DF92EF92FF926B017C010E943F09F2
:101740004B015C01C114D104E104F104F1F00E94E9
:101750003F09DC01CB0188199909AA09BB09883E18
:101760009340A105B10570F321E0C21AD108E10848
:10177000F10888EE880E83E0981EA11CB11CC114EC
:10178000D104E104F10419F7DDCFFF90EF90DF9071
:10179000CF90BF90AF909F908F9008952FB7F894FF
:1017A0006091C3027091C4028091C5029091C602FB
:1017B0002FBF0895CF92DF92EF92FF92CF93DF93E6
:1017C000D82F0E94CE0B6B017C0181E0D11180E00B
:1017D00080939202C0E00E94CE0BAB01BC014C1979
:1017E0005D096E097F09403D57406105710580F430
:1017F000C1110EC0A8950E94DF04909191029770CC
:10180000933049F7C1E0809192028D13E3CFE3CF8B
:101810008C2FDF91CF91FF90EF90DF90CF900895C4
:101820001F920F920FB60F9211242F933F938F9315
:101830009F93AF93BF938091C3029091C402A091F4
:10184000C502B091C6023091C20223E0230F2D37AA
:1018500020F40196A11DB11D05C026E8230F0296B4
:10186000A11DB11D2093C2028093C3029093C402B4
:10187000A093C502B093C6028091C7029091C8029E
:10188000A091C902B091CA020196A11DB11D809319
:10189000C7029093C802A093C902B093CA02BF9135
:1018A000AF919F918F913F912F910F900FBE0F900D
:1018B0001F9018951F920F920FB60F9211242F931D
:1018C0003F934F935F936F937F938F939F93AF93C8
:1018D000BF93EF93FF93E0911F01F09120010995D1
:1018E000FF91EF91BF91AF919F918F917F916F91F8
:1018F0005F914F913F912F910F900FBE0F901F90CE
:1019000018951F920F920FB60F9211242F933F93A9
:101910004F935F936F937F938F939F93AF93BF93F7
:10192000EF93FF93E0911D01F0911E010995FF9146
:10193000EF91BF91AF919F918F917F916F915F9147
:101940004F913F912F910F900FBE0F901F901895C0
:101950006093BE027093BF028093C0029093C10255
:10196000DC01CB01845D9E4FAF4FBF4F8093BA0225
:101970009093BB02A093BC02B093BD0282E090E0C2
:101980009093B9028093B8020E94CE0B6093B40288
:101990007093B5028093B6029093B7020895CF92E8
:1019A000DF92EF92FF920F931F930E94CE0BC09095
:1019B000B402D090B502E090B602F090B7028B016D
:1019C0009C010C191D092E093F098091BE029091BE
:1019D000BF02A091C002B091C102083E1340210590
:1019E0003105D0F00196A11DB11D8093BE029093E8
:1019F000BF02A093C002B093C102B701A601485133
:101A00005C4F6F4F7F4F4093B4025093B502609389
:101A1000B6027093B702C9CF4091BA025091BB028F
:101A20006091BC027091BD0284179507A607B707A5
:101A300088F1E091B202F091B302309759F1099523
:101A4000611571058105910519F00E94A80C22C04D
:101A50008091BE029091BF02A091C002B091C102DC
:101A6000845D9E4FAF4FBF4F8093BA029093BB02ED
:101A7000A093BC02B093BD0281E090E02091B80237
:101A80003091B902232B11F480E090E09093B902D9
:101A90008093B8026091BE027091BF028091C00233
:101AA0009091C1021F910F91FF90EF90DF90CF9026
:101AB00008954F925F926F927F928F929F92AF9212
:101AC000BF92CF92DF92EF92FF920F931F93CF932B
:101AD000DF934B015C018091AE029091AF02A09127
:101AE000B002B091B10288169906AA06BB0609F4A5
:101AF000C2C08CE3C82ED12CE12CF12CC501B4015D
:101B0000A70196010E94EB1A6093A201CA01B901D4
:101B1000A70196010E94EB1A6093A301CA01B901C3
:101B200028E130E040E050E00E94EB1A69017A01C0
:101B30006093A401CA01B9016C5F7F4F8F4F9F4F23
:101B400027E030E040E050E00E94EB1A6F5F6093C6
:101B5000A501412C512C320140E004E610E0C0E91F
:101B6000D1E0242F30E02E54384FF901E370FF27E5
:101B7000309789F4C901B8010E94D71A892B31F432
:101B8000C901BE010E94D71A892B29F48EE691E083
:101B9000A0E0B0E004C08DE691E0A0E0B0E0480E27
:101BA000591E6A1E7B1ED301C201AA27BB27C81675
:101BB000D906EA06FB0610F04F5FD3CF4093A80189
:101BC000309799F4C90164E670E00E94D71A892B16
:101BD00039F4C90160E971E00E94D71A892B29F410
:101BE0008EE691E0A0E0B0E004C08DE691E0A0E0D8
:101BF000B0E0481A590A6A0A7B0AC418D508E608F0
:101C0000F708C90164E670E00E94D71AEC01C90127
:101C100060E971E00E94D71AABE2B1E020E0213028
:101C200039F4309749F4209729F4009729F402C039
:101C30004C9103C04DE101C04CE150E060E070E028
:101C4000C416D506E606F70640F0C41AD50AE60A19
:101C5000F70A2F5F11962C3011F72F5F2093A70101
:101C6000C394C092A6018092AE029092AF02A0925D
:101C7000B002B092B102DF91CF911F910F91FF900E
:101C8000EF90DF90CF90BF90AF909F908F907F901C
:101C90006F905F904F9008950E94CF0C0E94590D55
:101CA0008091A20190E00895EF92FF920F931F930D
:101CB000CF93DF938C01D62FE42E60E0DC015A969F
:101CC0008C910E94480BFF24FA94FD0EF801C58DFB
:101CD000CF0DC8508D2F0E944203D93048F4D8014F
:101CE0005B96ED91FC915C97EC0FF11D808101C03A
:101CF0008E2D0E944203FC1660F361E0F801828D94
:101D0000DF91CF911F910F91FF90EF900C94480BB2
:101D1000CF93C8E040E06C2F89E492E00E94540E1B
:101D2000C150C1F7CF9108950895FC016370658B90
:101D30008481958126813781613039F0633029F0C3
:101D400091878087338722870895318720879387FB
:101D5000828708952F923F924F925F926F927F9267
:101D60008F929F92AF92BF92CF92DF92EF92FF92AB
:101D70000F931F93CF93DF93CDB7DEB76C970FB65A
:101D8000F894DEBF0FBECDBF9C8F8B8F5B011A0115
:101D90001F830E833701C982DC0158964D915C91F7
:101DA00059974115510509F0E5C018968D919C9100
:101DB0001997681779070CF0CAC11A968D919C91F2
:101DC0001B97281639060CF0C2C18C2C912CFB01F4
:101DD00036E0C39EE00DF11D1124FB87EA871E1635
:101DE0001F060CF0B4C1C40133E0880F991F3A9567
:101DF000E1F79D878C87820D931D181619060CF04C
:101E0000A6C157968C91811103C0203B08F02F5F2B
:101E1000AB8DBC8DED91FC9111970284F385E02D83
:101E2000CD012A8F09952A8DB5E02B9F90011124B1
:101E3000F5013596FF87EE87BB82AA822501A901AD
:101E40004A195B09598B488BC10108969B8B8A8B79
:101E5000E889F989E40DF51DE854FF4F94919887BE
:101E600061013D822C82A885A0FF13C0AB8DBC8D83
:101E7000ED91FC91B981B13031F40484F585E02D08
:101E80002E813F8116C00684F785E02DEE80FF800D
:101E90001AC0EE81FF816E167F06F1F0AB8DBC8D0E
:101EA000ED91FC91B981B13051F40484F585E02DB8
:101EB0009301A601B2018B8D9C8D09950DC00684FE
:101EC000F785E02D7301840194014C815D816A8165
:101ED0007B818B8D9C8D0995E885E695E887FFEFE2
:101EE000CF1ADF0A2C813D81280D391D3D832C83BB
:101EF0004A895B89C416D50609F0B5CF5FEF451A4C
:101F0000550A8A819B81880D991D9B838A83AE85A2
:101F1000BF854A165B0609F09BCFEE81FF816E16E6
:101F20007F0609F4F2C0EB8DFC8DA081B181F981AF
:101F3000F13079F4B5016B5F7F4F5096ED91FC91D4
:101F40005197830128E030E0A1018B8D9C8D09958C
:101F5000DCC06A857B85681979091E96ED91FC9134
:101F60001F9773010C851D859401A1018B8D9C8D9C
:101F70000995CBC0FA01349694913297659174918A
:101F8000291BCB01B7E02B9F800D911D1124FA0175
:101F9000259134913B8B2A8BFC01459154915B83B5
:101FA0004A83FC013296C490319654915E873296F2
:101FB00014913196D4908981823058F0612E012E8F
:101FC000000C7708AD2D0D2C000CBB0BB987A88732
:101FD00004C019861886612C712CAB8DBC8DED91D7
:101FE000FC9111970284F385E02DCD010995B9810B
:101FF0008B2E912C689CC001699C900D789C900D53
:102000001124FC01EA0DFB1DFD87EC871C82712C5D
:10201000612CE12F110FFF0B95012E0F3F1F3B8706
:102020002A87AC0CB11CA5014E0F5F1F5F8B4E8B36
:10203000C1018D0D911DD7FC9A95998F888F4E8582
:10204000641608F062C0862D90E048855985480FD7
:10205000591F489D9001499D300D589D300D112408
:10206000D901A20DB31DB98BA88BAA84BB844C8463
:102070005D84DC80BA85DB1AE88DF98DE80FF91FE5
:10208000FD8BEC8B8D2D8A0D2E893F89A216B30610
:10209000B9F1877061F48A819B810196EA89FB8995
:1020A000AA81BB81EA0FFB1F74909B838A8377FE12
:1020B00020C0AB8DBC8DED91FC91B981B13061F444
:1020C0000484F585E02D2E813F814C895D89B50121
:1020D0008B8D9C8D09950DC00684F785E02DEE80D3
:1020E000FF808401940148895989B2018B8D9C8DB0
:1020F0000995770CEFEFAE1ABE0A480C591CC2CFF7
:102100003C813C0D3C8363949ACFAB8DBC8DED91AB
:10211000FC9111970688F789E02DCD016C960FB6DA
:10212000F894DEBF0FBECDBFDF91CF911F910F910D
:10213000FF90EF90DF90CF90BF90AF909F908F90E7
:102140007F906F905F904F903F902F9009946C9686
:102150000FB6F894DEBF0FBECDBFDF91CF911F91B8
:102160000F91FF90EF90DF90CF90BF90AF909F9036
:102170008F907F906F905F904F903F902F90089539
:10218000AF92BF92CF92EF92FF920F931F93CF9394
:10219000DF93EC01262F888D998D009709F040C0C0
:1021A0006A3059F41D861C862C898E859F8538E0FF
:1021B000239F800D911D112441C06D3009F4AAC0E8
:1021C0008E898823C1F03C898C859D8546E0349FAB
:1021D000800D911D112448855985481759075CF4D5
:1021E0001D861C868E859F8548E0349F800D911D3D
:1021F00011249F878E87EA88FB88088919894E8574
:102200005F856C857D85CC88CE010E94AA0E2C89C5
:102210008C859D8536E0239F800D911D112442C041
:102220006A3079F41D861C862C89FC013696E4916F
:102230008E859F852E9F800D911D11249F878E87EF
:1022400069C06D3009F466C0FC013496349163179F
:1022500008F460C03196E491E61708F45BC0FC0115
:102260003296A590B490462F50E0431B510937E0B9
:10227000349FB001359F700D1124A60EB71EF501D5
:10228000329634913196E491332311F0E1110DC06F
:10229000F5013496E4912C898C859D85E29F800D13
:1022A000911D11249D878C8735C0F5013596449189
:1022B0005E89552311F16C89E32FF0E0E40FF11DE5
:1022C00047FDFA956E9FD0016F9FB00D11244C858C
:1022D0005D854A0F5B1FE885F985E417F5076CF407
:1022E0001D861C86FC013696E4918E859F856E9F27
:1022F000800D911D11249F878E87EA88FB880889AD
:1023000019894E855F856C857D85CC88CE010E94BC
:10231000AA0EBECF81E090E0DF91CF911F910F9187
:10232000FF90EF90CF90BF90AF9008956F927F9203
:102330008F929F92AF92BF92CF92DF92EF92FF92D5
:102340000F931F93CF93DF93EC014B015A01690167
:102350003801E881F9810284F385E02D0995E8814F
:10236000F9810288F389E02D87019601A501B40166
:10237000CE010995E881F981A501460D571D41500F
:1023800051090288F389E02D9601B401CE01099527
:10239000E881F9810088F189E02D9301A501B4015C
:1023A000CE010995E881F981C80CD91CB6016150AC
:1023B00071090088F189E02D9301A501CE010995ED
:1023C000E881F9810688F789E02DCE01DF91CF9170
:1023D0001F910F91FF90EF90DF90CF90BF90AF9043
:1023E0009F908F907F906F900994CF92DF92EF92A1
:1023F000FF920F931F93CF93DF9300D000D000D0B4
:10240000CDB7DEB76C01DC01ED91FC91621773076B
:1024100089F4041715072CF4942F852FA801092F90
:10242000182F041B150B98012F5F3F4F048CF58D5F
:10243000E02D12C04017510709F5261737072CF475
:10244000962F872FB901292F382F261B370B2F5F87
:102450003F4F068CF78DE02D8701C6010995269622
:102460000FB6F894DEBF0FBECDBFDF91CF911F91A5
:102470000F91FF90EF90DF90CF9008950284F38545
:10248000E02D2D833E834B835C8369837A8309959A
:10249000D601ED91FC910488F589E02D2D813E81D6
:1024A0004B815C8169817A81C6010995D601ED91E4
:1024B000FC910688F789E02DC60126960FB6F894A0
:1024C000DEBF0FBECDBFDF91CF911F910F91FF9067
:1024D000EF90DF90CF900994EF92FF920F931F93AC
:1024E000DC01ED91FC9111971A960D911C911B97AF
:1024F00018962D913C91199700A0F1A1E02D7B0138
:1025000040E050E060E070E009951F910F91FF906E
:10251000EF9008954F925F926F927F928F929F9269
:10252000AF92BF92CF92DF92EF92FF920F931F93E1
:10253000CF93DF9300D0CDB7DEB76C015A013901DC
:102540004801DC01ED91FC910284F385E02D698363
:102550007A8309956981462E7A81572E640C751C01
:10256000D601ED91FC91461457046CF40088F18972
:10257000E02D87019401A501B201C6010995BFEFC5
:102580004B1A5B0AEDCF0688F789E02DC6010F9044
:102590000F90DF91CF911F910F91FF90EF90DF90FF
:1025A000CF90BF90AF909F908F907F906F905F90F3
:1025B0004F900994AF92BF92CF92DF92EF92FF9229
:1025C0000F931F93CF93DF9300D000D0CDB7DEB72A
:1025D0005C016901DC01ED91FC910284F385E02D41
:1025E0004B835C8369837A830995D501ED91FC91D6
:1025F00069817A819B012C0D3D1D21503109048890
:10260000F589E02D78014B815C818A01C50109952E
:10261000D501ED91FC910688F789E02DC5010F9059
:102620000F900F900F90DF91CF911F910F91FF901E
:10263000EF90DF90CF90BF90AF900994AF92BF9290
:10264000CF92DF92EF92FF920F931F93CF93DF937E
:1026500000D000D0CDB7DEB75C016901DC01ED919F
:10266000FC910284F385E02D4B835C8369837A833C
:102670000995D501ED91FC914B815C81C40ED51E6D
:10268000B1E0CB1AD1080488F589E02D78018601E4
:1026900069817A819B01C5010995D501ED91FC9174
:1026A0000688F789E02DC5010F900F900F900F90CD
:1026B000DF91CF911F910F91FF90EF90DF90CF901E
:1026C000BF90AF9009940895EF92FF920F931F93DC
:1026D000DC01ED91FC9100A0F1A1E02D09951F9185
:1026E0000F91FF90EF9008950F931F93DC01ED91F0
:1026F000FC91068CF78DE02D09951F910F9108959F
:102700000F931F93DC01ED91FC91048CF58DE02D6E
:1027100009951F910F910895DC01ED91FC910084C2
:10272000F185E02D099408952F923F924F925F9288
:102730006F927F928F929F92AF92BF92CF92DF92D1
:10274000EF92FF920F931F93CF93DF9300D01F92CE
:10275000CDB7DEB74C017B836A836A01590117014B
:102760009801241B350B37FF03C0319521953109A2
:10277000C5014A815B81841B950B97FF03C091952E
:102780008195910951E059838217930714F01982BA
:102790000BC09A2D8B2D5801092F182F9A818B81F0
:1027A000DB82CA82C92ED82E8A819B81A816B906DF
:1027B0005CF49C2D8D2D6801092F182F9A818B8137
:1027C000BB82AA82A92EB82E2501AA81BB814A1AF2
:1027D0005B0A38016C187D0877FE03C07194619420
:1027E0007108720157FE03C0BFEFEB1AFB0AF594A4
:1027F000E794C016D1061CF00FEF1FEF1FC001E0D9
:1028000010E01CC0D401ED91FC91B9810484F585E0
:10281000E02D9101BB23C1F04A815B81B601C40167
:102820000995E618F708F7FE04C0C00ED11EE40CA7
:10283000F51CEA81FB813196FB83EA834A815B8147
:10284000A416B506FCF604C0A6016A817B81E7CF19
:102850000F900F900F90DF91CF911F910F91FF90EC
:10286000EF90DF90CF90BF90AF909F908F907F9030
:102870006F905F904F903F902F90089585ED8093DB
:10288000BC008091BC0084FDFCCF109242030895EF
:1028900008958FEF9FEF0895CF93CFB7F89480916D
:1028A0006803811124C0EAE9F0E08491EEEAF0E0E7
:1028B0009491E82FF0E0EE0FFF1FEA57FF4FA5912C
:1028C000B491EC91E92321F461E08AE00E94480B85
:1028D0008AE00E947D0A8CB580618CBD8CB58064D5
:1028E0008CBD8DE00E947D0A8BE00E947D0A809164
:1028F00068038F5F80936803CFBFCF9108951F92C5
:102900000F920FB60F9211242F933F934F935F9323
:102910006F937F938F939F93AF93BF93EF93FF93A7
:102920008091B900887F803609F49CC068F58832B0
:1029300009F45BC090F4803109F454C038F4882362
:1029400009F4F6C0883009F44DC0F6C0883109F4A6
:102950004CC0803209F45DC0EFC0803409F468C017
:1029600048F4803309F455C0883309F0E5C08093FA
:102970004103D8C0803509F44FC0883509F45DC0E3
:10298000883409F0D9C0D6C0883909F4C7C0A8F482
:10299000883709F467C038F4883609F463C0803793
:1029A00009F460C0C9C0883809F4B8C0803909F496
:1029B0005FC0803809F0C0C05BC0803B09F486C0AE
:1029C00038F4803A09F466C0883A09F47FC0B4C08C
:1029D000803C09F4A7C0883C09F4A4C0883B09F4F2
:1029E0008AC0AAC08091670310C09091660380914D
:1029F0006503981770F5E091660381E08E0F809370
:102A00006603F0E0EB5BFC4F80818093BB0085ECBC
:102A100086C0809341038EC0E091660381E08E0FF3
:102A2000809366038091BB00F0E0EB5BFC4F8083FA
:102A300090916603809165036EC0E091660381E02A
:102A40008E0F809366038091BB00F0E0EB5BFC4F40
:102A500080838091440381116DC081E080934303A2
:102A600084EA61C083E08093420310924003CFCF99
:102A700080914003803208F051C0E091400381E032
:102A80008E0F809340038091BB00F0E0E05EFC4F2E
:102A90008083BDCF85EC8093BC001092420380916F
:102AA0004003803230F4E0914003F0E0E05EFC4F00
:102AB00010826091400370E0E0911E03F0911F03CB
:102AC00080E293E009951092400336C084E0809341
:102AD000420310921D0310921C03E0911A03F0911F
:102AE0001B03099580911C03811105C081E080932F
:102AF0001C031092FA02E0911D0381E08E0F809377
:102B00001D03F0E0E650FD4F80818093BB00909163
:102B10001D0380911C03981708F479CF85E88093F2
:102B2000BC000AC085EC8093BC001092420304C034
:102B3000109241030E943E14FF91EF91BF91AF911B
:102B40009F918F917F916F915F914F913F912F91C5
:102B50000F900FBE0F901F90189540911C03262FC9
:102B600030E0240F311D21323105DCF42091420385
:102B70002430C9F4FC0180E090E0861758F43091CD
:102B80001C032191DC01A650BD4FA30FB11D2C9356
:102B90000196F3CF80911C03680F60931C0380E0C3
:102BA000089581E0089582E008958FEF9FEF0895E2
:102BB0008091F90290E09195819591090895089589
:102BC00080E090E00895CF93DF9300D0CDB7DEB7DB
:102BD000CB01642F49835A830E94AD154981842F0C
:102BE0005A81952F0F900F90DF91CF910895CF9339
:102BF000DF931F92CDB7DEB7698361E0CE01019606
:102C00000E94AD1581E090E00F90DF91CF91089583
:102C100060E070E089E492E00C940B0ACF92DF92BE
:102C2000EF92FF920E94CE0B6B017C0120918203F8
:102C300080917E0390917F03A0918003B0918103E6
:102C400021110EC0A7019601281B390B4A0B5B0B03
:102C5000DA01C90181319742A105B10570F417C0AD
:102C6000A7019601281B390B4A0B5B0BDA01C9013E
:102C700081389E4EA643B10550F00E94AF0AC09223
:102C80007E03D0927F03E0928003F09281038091D3
:102C90007A0390917B03A0917C03B0917D03A701FF
:102CA0009601281B390B4A0B5B0BDA01C901893EDF
:102CB0009340A105B10508F46BC060E070E089E4C1
:102CC00092E00E940B0A0E94CF0C0E94590D809145
:102CD000A40190E00A971CF489E090E002C083E030
:102CE00090E09093560280935502109258021092F1
:102CF00057020E94CF0C0E94590D8091A40190E0D0
:102D00000E94BA0A82E190E09093560280935502A5
:102D100010925802109257020E94CF0C0E94590D37
:102D20008091A30190E00A9744F441E050E06AE901
:102D300071E089E492E00E9439080E94CF0C0E9461
:102D4000590D8091A30190E00E94BA0A0E944C0E96
:102D50004E9734F40E944C0EBC016F5F7F4F06C04B
:102D60000E944C0E6CE370E0681B790B21E030E0B0
:102D700047E050E089E492E00E9465090E94880ED5
:102D8000C0927A03D0927B03E0927C03F0927D03A1
:102D9000FF90EF90DF90CF9008950E94A80C81E003
:102DA000809382030895CF92DF92EF92FF920F9368
:102DB0001F93CF93DF9340E06AE089E492E00E94A2
:102DC000540E40E06AE089E492E00E94540EC12C67
:102DD000D12CC0915102D09152022197CC16DD0620
:102DE0001CF560E070E089E492E00E940B0A00911B
:102DF00053021091540201501109EE24E394F12C76
:102E0000960140E050E0B60189E492E00E94F5119D
:102E10000E94880E62E370E080E090E00E94940BD4
:102E20008FEFC81AD80AD5CF1C161D060CF560E026
:102E300070E089E492E00E940B0A00915302109125
:102E4000540201501109EE24E394F12C9E0140E05C
:102E500050E0BE0189E492E00E94F5110E94880EC4
:102E600069E170E080E090E00E94940B2197DCCF54
:102E700045E06AE089E492E00E94540E60E070E070
:102E800089E492E00E940B0A0E94880E68EC70E0D0
:102E900080E090E00E94940B61E070E089E492E0B1
:102EA0000E940B0A0E94880E64E670E080E090E0C9
:102EB0000E94940B60E070E089E492E00E940B0AAB
:102EC0000E94880E64E670E080E090E00E94940B1F
:102ED00061E070E089E492E00E940B0A0E94880E93
:102EE00068EC70E080E090E00E94940B40E06AE0C3
:102EF00089E492E00E94540E60E070E089E492E080
:102F00000E940B0A0E94880EDF91CF911F910F91B2
:102F1000FF90EF90DF90CF900C94AF0AFC0183817B
:102F200087708860838384818F71806284836783E4
:102F3000CF0108950F931F93CF93DF93EC01611599
:102F4000710561F0FB0101900020E9F73197E61B64
:102F5000F70BE931F10518F0E9E101C0E0E00E2FCF
:102F600010E0C80123E0880F991F2A95E1F79B81A3
:102F70009770892B8B838C818F718C83EE2329F042
:102F8000A801CE0107960E94601CFE01E00FF11F10
:102F90001782CE01DF91CF911F910F9108954BE0E1
:102FA00063E080E00E946D0A67E871E00E949A1772
:102FB0000E94D8044CE063E080E00E946D0A68E95A
:102FC00071E00E949A170C94D804CF9380E090E0AF
:102FD000892B21F08CE090E00E9400004FE063E03C
:102FE00080E00E946D0A6BE971E00E949A1780915F
:102FF0006F028770806180936F02809170028F7181
:10300000806C8093700281E080937302109274024E
:103010008CE692E00E94D8048FE00E94DA0B41E136
:1030200060E080E00E946D0A6CE971E00E949A17EE
:103030000E94D804C091AA0146E063E080E00E94AB
:103040006D0A6C2F0E948E170E94D80486E00E94A1
:10305000DA0BCF910C94CF17CF938091790381FD38
:1030600026C00E94E51780E090E0892B21F089E0DE
:1030700090E00E9400008091790381608093790341
:10308000C4E04AE163E080E00E946D0A62E00E94D1
:103090008E170E94D8048BE10E94DA0B811102C0C6
:1030A000C15079F780917903826080937903CF9141
:1030B00008951092AF011092AE0188EE93E0A0E067
:1030C000B0E08093B0019093B101A093B201B093AE
:1030D000B3012BE331E03093AD012093AC0125EC3B
:1030E00030E03093B9012093B80124EC30E0309304
:1030F000BB012093BA0120EC30E03093BD01209356
:10310000BC0121EC30E03093BF012093BE0122ECE2
:1031100030E03093C1012093C00126EC30E03093C1
:10312000C3012093C2011092C5011092C6011092F2
:10313000C7011092C8011092CE021092CD02809366
:10314000CF029093D002A093D102B093D2028DE42B
:1031500091E09093CC028093CB0210928D0210925A
:103160008E0210928F02109291021092920210928F
:1031700093029AE1E4E9F2E0DF01892F1D928A953A
:10318000E9F782E08093900210926C0210926D0237
:1031900010926E02109270021092710210927202DE
:1031A000E3E7F2E0DF011D929A95E9F780936F0261
:1031B00010924C0210924B0220E230E030934E020B
:1031C00020934D0288E090E09093500280934F024C
:1031D00030935202209351029093540280935302F1
:1031E00010925E02109256021092550210925802EE
:1031F0001092570281E080935D022FEF3FEF3093F2
:103200005C0220935B0230935A0220935902809310
:103210005F021092600210926202109261028FE5CA
:1032200091E090934A028093490288E08093630280
:1032300084E08093670280E28093660280E290E0FF
:103240000E94271B909365028093640284E090E0C3
:103250000E94271B90936B0280936A0284E090E0A7
:103260000E94271B909369028093680280E090E09F
:10327000E0916802F0916902E80FF91F8083E09104
:103280006A02F0916B02E80FF91F108201968430F8
:10329000910571F70E944C14809163020E947D0A8F
:1032A00060E070E089E492E00E940B0A40E06FE089
:1032B00089E492E00E94540E47E06BE089E492E0DA
:1032C0000E94540E40E069E089E492E00E94540EAE
:1032D00041E06CE089E492E00E94540E47E06AE02D
:1032E00089E492E00E94540E86E090E09093D80228
:1032F0008093D7020895789484B5826084BD84B5A4
:10330000816084BD85B5826085BD85B5816085BDE0
:1033100080916E00816080936E0010928100809198
:103320008100826080938100809181008160809320
:103330008100809180008160809380008091B10045
:1033400084608093B1008091B00081608093B00070
:1033500080917A00846080937A0080917A00826004
:1033600080937A0080917A00816080937A008091C6
:103370007A00806880937A001092C100A89580E05E
:1033800090E0892B11F00E940000E091BC01F091C7
:10339000BD0182E08083E091B801F091B901108213
:1033A000E091BA01F091BB0180E180831092C401E9
:1033B000E091C001F091C10186E08083E091BE01FF
:1033C000F091BF01808180618083E091BE01F09126
:1033D000BF01808188608083E091BE01F091BF01D0
:1033E000808180688083E091BE01F091BF0180817F
:1033F0008F7D8083809179038D7F809379030E94F4
:10340000081641E050E063E071E088E793E00E9435
:10341000991A6FEF81E090E00E94B91A80917403CD
:103420008F788093740310926A031092690381E28B
:1034300091E00E94BE068CE298E19093770380931E
:1034400076030E94CE0B0E94CE0B0E94DF04A8954B
:103450008091730382FFF7CF0E94D316A895A89599
:103460000E94DF040E940E160E943509F8CFFC016D
:1034700088279927E89421912032E9F3293010F028
:103480002E30C8F32B3241F02D3239F4689404C049
:103490000E94911A820F911D219120532A30C0F36E
:1034A0001EF4909581959F4F08951F93FC019927D5
:1034B0008827BC01E89411911032E9F3193010F01B
:1034C0001E30C8F31B3251F01D3249F4689406C017
:1034D0000E947C1A610F711D811D911D1191105365
:1034E0001A30B0F33EF490958095709561957F4FBA
:1034F0008F4F9F4F1F910895592F482F372F262FF9
:10350000660F771F881F991F660F771F881F991FE7
:10351000620F731F841F951F660F771F881F991FE7
:1035200008957AE0979F902D879F802D910D11240B
:103530000895DC01CB01FC01F999FECF06C0F2BD74
:10354000E1BDF89A319600B40D9241505040B8F761
:103550000895DC01A40FB51F4150504048F0CB0145
:10356000840F951F2E910E94BA1A41505040D0F7F7
:103570000895262FF999FECF92BD81BDF89A019743
:1035800000B4021639F01FBA20BD0FB6F894FA9AAB
:10359000F99A0FBE0895991B79E004C0991F9617F8
:1035A00008F0961B881F7A95C9F78095089597FBB8
:1035B000072E16F4009407D077FD09D00E940D1B4A
:1035C00007FC05D03EF4909581959F4F0895709526
:1035D00061957F4F0895A1E21A2EAA1BBB1BFD0126
:1035E0000DC0AA1FBB1FEE1FFF1FA217B307E407E2
:1035F000F50720F0A21BB30BE40BF50B661F771F3A
:10360000881F991F1A9469F7609570958095909519
:103610009B01AC01BD01CF010895AA1BBB1B51E169
:1036200007C0AA1FBB1FA617B70710F0A61BB70B32
:10363000881F991F5A95A9F780959095BC01CD01D7
:103640000895EE0FFF1F0590F491E02D0994CF939C
:10365000DF938230910510F482E090E0E0918503E1
:10366000F091860320E030E0C0E0D0E0309711F127
:103670004081518148175907C0F04817590761F434
:1036800082819381209719F09B838A832BC090932A
:1036900086038093850326C02115310519F0421752
:1036A000530718F49A01BE01DF01EF010280F38194
:1036B000E02DDCCF2115310509F1281B390B243011
:1036C000310590F412968D919C91139761157105B7
:1036D00021F0FB019383828304C09093860380933F
:1036E0008503FD01329644C0FD01E20FF31F819373
:1036F0009193225031092D933C933AC0209183033A
:1037000030918403232B41F420912701309128012B
:103710003093840320938303209125013091260167
:103720002115310541F42DB73EB740912901509143
:103730002A01241B350BE0918303F0918403E217E7
:10374000F307A0F42E1B3F0B2817390778F0AC01C4
:103750004E5F5F4F2417350748F04E0F5F1F5093A1
:103760008403409383038193919302C0E0E0F0E0EF
:10377000CF01DF91CF9108950F931F93CF93DF93E4
:10378000009709F48CC0FC013297138212820091D9
:103790008503109186030115110581F42081318183
:1037A000820F931F209183033091840328173907D8
:1037B00079F5F0938403E093830371C0D80140E06E
:1037C00050E0AE17BF0750F412962D913C9113971D
:1037D000AD012115310509F1D901F3CF9D01DA01C0
:1037E0003383228360817181860F971F821793072D
:1037F00069F4EC0128813981260F371F2E5F3F4F76
:10380000318320838A819B8193838283452B29F492
:10381000F0938603E093850342C01396FC93EE93E6
:103820001297ED01499159919E01240F351FE2171E
:10383000F30771F480819181840F951F0296119690
:103840009C938E938281938113969C938E9312976F
:10385000E0E0F0E0D80112968D919C9113970097CB
:1038600019F0F8018C01F6CF8D919C9198012E5F93
:103870003F4F820F931F20918303309184032817B9
:10388000390769F4309729F4109286031092850362
:1038900002C0138212821093840300938303DF918A
:1038A000CF911F910F91089581E090E0F8940C94CE
:1038B0006F1CDC0101C06D9341505040E0F708954A
:1038C000FB01DC014150504048F001900D92002076
:1038D000C9F701C01D9241505040E0F70895F89497
:0238E000FFCF18
:1038E200FFFFFF00FCE1A8A8CC03EA06A3044A07F5
:1038F2008904140707030A07BB047407FF640964F9
:10390200092C03A6070000870380001F1C1F1E1F2F
:103912001E1F1F1E1F1E1F00000000CC0839086456
:1039220008130995087308870800000000F715E3DB
:1039320015E0154814D815D515491400000000C02B
:10394200103908E015DF15650993138C1364138091
:1039520013741394136313090A940E1E13DA128A52
:10396200120B0AF511961152544320436C6F636B8C
:10397200206D617472697800312E3000322E312E42
:02398200310012
:107E0000112484B714BE81FFF0D085E080938100F7
:107E100082E08093C00088E18093C10086E0809377
:107E2000C20080E18093C4008EE0C9D0259A86E02C
:107E300020E33CEF91E0309385002093840096BBD3
:107E4000B09BFECF1D9AA8958150A9F7CC24DD24C4
:107E500088248394B5E0AB2EA1E19A2EF3E0BF2EE7
:107E6000A2D0813461F49FD0082FAFD0023811F036
:107E7000013811F484E001C083E08DD089C08234E0
:107E800011F484E103C0853419F485E0A6D080C0E4
:107E9000853579F488D0E82EFF2485D0082F10E0AE
:107EA000102F00270E291F29000F111F8ED06801E7
:107EB0006FC0863521F484E090D080E0DECF843638
:107EC00009F040C070D06FD0082F6DD080E0C81688
:107ED00080E7D80618F4F601B7BEE895C0E0D1E017
:107EE00062D089930C17E1F7F0E0CF16F0E7DF06D8
:107EF00018F0F601B7BEE89568D007B600FCFDCFD4
:107F0000A601A0E0B1E02C9130E011968C91119780
:107F100090E0982F8827822B932B1296FA010C0160
:107F200087BEE89511244E5F5F4FF1E0A038BF0790
:107F300051F7F601A7BEE89507B600FCFDCF97BE46
:107F4000E89526C08437B1F42ED02DD0F82E2BD052
:107F50003CD0F601EF2C8F010F5F1F4F84911BD097
:107F6000EA94F801C1F70894C11CD11CFA94CF0C13
:107F7000D11C0EC0853739F428D08EE10CD085E9AC
:107F80000AD08FE07ACF813511F488E018D01DD067
:107F900080E101D065CF982F8091C00085FFFCCF94
:107FA0009093C60008958091C00087FFFCCF809118
:107FB000C00084FD01C0A8958091C6000895E0E648
:107FC000F0E098E1908380830895EDDF803219F02E
:107FD00088E0F5DFFFCF84E1DECF1F93182FE3DFCA
:107FE0001150E9F7F2DF1F91089580E0E8DFEE27F6
:047FF000FF270994CA
:027FFE00040479
:0400000300007E007B
:00000001FF