:100000000C94DD020C949C170C9475170C9405034A
:100010000C9405030C9405030C9417080C94050329
:100020000C9405030C9405030C9405030C94050330
:100030000C9405030C9405030C9405030C94050320
:100040000C942B170C9405030C9431160C940B167E
:100050000C9405030C9405030C9405030C94050300
:100060000C94EC0F0C94050300000000003E5B4F65
:100070005B3E3E6B4F6B3E1C3E7C3E1C183C7E3C08
:10008000181C577D571C1C5E7F5E1C00183C180016
:10009000FFE7C3E7FF0018241800FFE7DBE7FF30A6
:1000A000483A060E2629792926407F050507407F14
:1000B00005253F5A3CE73C5A7F3E1C1C08081C1C87
:1000C0003E7F14227F22145F5F005F5F06097F017D
:1000D0007F006689956A606060606094A2FFA29468
:1000E00008047E040810207E201008082A1C080836
:1000F0001C2A08081E101010100C1E0C1E0C303884
:100100003E3830060E3E0E06000000000000005F84
:1001100000000007000700147F147F14242A7F2AA0
:100120001223130864623649562050000807030062
:10013000001C2241000041221C002A1C7F1C2A08AE
:10014000083E080800807030000808080808000011
:1001500060600020100804023E5149453E00427F85
:10016000400072494949462141494D331814127FD4
:100170001027454545393C4A494931412111090774
:100180003649494936464949291E000014000000F5
:1001900040340000000814224114141414140041C7
:1001A00022140802015909063E415D594E7C121184
:1001B000127C7F494949363E414141227F414141BC
:1001C0003E7F494949417F090909013E4141517337
:1001D0007F0808087F00417F41002040413F017FA8
:1001E000081422417F404040407F021C027F7F0470
:1001F00008107F3E4141413E7F090909063E4151B9
:10020000215E7F09192946264949493203017F01A8
:10021000033F4040403F1F2040201F3F4038403FA9
:10022000631408146303047804036159494D4300BF
:100230007F4141410204081020004141417F0402F6
:10024000010204404040404000030708002054548D
:1002500078407F284444383844444428384444286B
:100260007F385454541800087E090218A4A49C78BE
:100270007F0804047800447D40002040403D007F1A
:100280001028440000417F40007C047804787C08FA
:100290000404783844444438FC18242418182424CE
:1002A00018FC7C08040408485454542404043F44B3
:1002B000243C4040207C1C2040201C3C4030403CE2
:1002C00044281028444C9090907C4464544C440042
:1002D00008364100000077000000413608000201A6
:1002E0000204023C2623263C1EA1A161123A404092
:1002F000207A38545455592155557941225454780F
:1003000042215554784020545579400C1E527212A7
:100310003955555559395454545939555454580030
:1003200000457C410002457D420001457C407D1234
:1003300011127DF0282528F07C5455450020545496
:100340007C547C0A097F4932494949323A44444441
:100350003A324A4848303A4141217A3A424020787C
:10036000009DA0A07D3D4242423D3D4040403D3C7D
:1003700024FF2424487E4943662B2FFC2F2BFF09A2
:1003800029F620C0887E0903205454794100004496
:100390007D413048484A32384040227A007A0A0A81
:1003A000727D0D19317D2629292F282629292926F4
:1003B00030484D4020380808080808080808382F39
:1003C00010C8ACBA2F102834FA00007B00000814C3
:1003D0002A142222142A14085500550055AA55AA99
:1003E00055AAFF55FF55FF000000FF00101010FF39
:1003F00000141414FF001010FF00FF1010F010F094
:10040000141414FC001414F700FF0000FF00FF1484
:1004100014F404FC141417101F10101F101F1414D0
:10042000141F00101010F0000000001F101010101A
:100430001F10101010F010000000FF10101010100E
:1004400010101010FF10000000FF140000FF00FF4C
:1004500000001F10170000FC04F4141417101714E8
:1004600014F404F40000FF00F7141414141414140A
:10047000F700F7141414171410101F101F1414147D
:10048000F4141010F010F000001F101F0000001FE7
:1004900014000000FC140000F010F01010FF10FF1A
:1004A000141414FF141010101F00000000F010FFAF
:1004B000FFFFFFFFF0F0F0F0F0FFFFFF0000000093
:1004C00000FFFF0F0F0F0F0F3844443844FC4A4A17
:1004D0004A347E02020606027E027E0263554941CC
:1004E000633844443C04407E201E2006027E020203
:1004F00099A5E7A5991C2A492A1C4C7201724C3017
:100500004A4D4D303048784830BC625A463D3E49ED
:100510004949007E0101017E2A2A2A2A2A44445F91
:10052000444440514A444040444A51400000FF0185
:1005300003E080FF000008086B6B08361236243693
:10054000060F090F060000181800000010100030F8
:1005500040FF0101001F01011E00191D1712003C80
:100560003C3C3C00000000000000000800020100CC
:10057000000304070000000000000000000000006D
:10058000250028002B0000000000240027002A007E
:100590000404040404040404020202020202030329
:1005A0000303030301020408102040800102040831
:1005B0001020010204081020451911241FBECFEF9E
:1005C000D8E0DEBFCDBF23E0A4EAB1E001C01D92B8
:1005D000AA38B207E1F711E0A0E0B1E0EEE0F9E3FC
:1005E00002C005900D92A43AB107D9F712E0CDED03
:1005F000D2E004C02197FE010E94371BCC3DD107F9
:10060000C9F70E9474180C94851C0C94000080910A
:100610002802846080932802809129028078809348
:100620002902E0912B02F0912C02309709F00994F5
:1006300008950F931F930E94E916009120021091D4
:1006400021022091220230912302601B710B820B48
:10065000930B1F910F910895E8E2F2E08081877F6C
:100660008F7E80831092240210922502109226021F
:100670001092270243E050E060E070E089E392E0EE
:100680000C94AF1A8EBD00000DB407FEFDCF8EB5E1
:100690000895CF92DF92EF92FF920F931F93CF9323
:1006A000DF937B01142F022F91E59CBD91E09DBD4E
:1006B0002A98E3E2F0E03197F1F70E944203E70164
:1006C0001123A9F0002349F08FEF0E944203E114A7
:1006D000F10459F08883219608C06E018FEFC81A83
:1006E000D80A88810E944203E6011150E9CF2A9A74
:1006F000E3E2F0E03197F1F7DF91CF911F910F9195
:10070000FF90EF90DF90CF900895CF93DF931F92EB
:10071000CDB7DEB7698320E041E0BE016F5F7F4F58
:100720000E9449030F90DF91CF9108956FE080E21E
:100730000E94850360911C016F3F19F08AE20E94BC
:100740008503299A0895CF93C82F8FEF8C0F8E3F82
:10075000A8F4C0933902C0931C0163E082E20E94B6
:10076000850361E081E20E9485030E9496036C2F5D
:1007700080E090E00E94CF1A81E00CC080E090E021
:10078000892B21F08EE690E00E9400008FEF80938D
:10079000390280E0CF91089580912902982F9077B7
:1007A000903759F0982F92959F709F5F9770929510
:1007B000907F8F78892B80932902809128028B7FEC
:1007C0008F7E8093280280E090E0892B21F087E6DD
:1007D00090E00E94000029986CE080E20C94850370
:1007E00020E040E060E070E00C9449030F931F9319
:1007F000CF93DF93FC0182819091280290FF04C087
:100800008F3F09F04FC005C08F3F19F0D0913A02D9
:1008100001C0DFEF809139028083438142FD06C031
:10082000469546954695C7E0C40F01C0C0E28F01CA
:1008300080E090E0892B21F080E090E00E940000B1
:10084000299883E092E00197F1F76EE080E20E9440
:1008500085038BE891E00197F1F76D2F8AE20E9402
:1008600085036D2F80E30E94850381EE0E94F003D3
:10087000DF3F11F080EA01C080EB4C2FC13208F05D
:1008800040E220E0B8010E944903299A00E010E00C
:100890008FEF0E94F003C82F807331F401501109CB
:1008A000B9F702C0C0E02FC0299860E387E20E9438
:1008B0008503C4FF03C081EE0E94F0030E949603EB
:1008C000C5FBCC27C0F991E0DF3F09F090E0C92BD0
:1008D00080913A02D81317C0C11110C080E090E097
:1008E000892B21F085E690E00E940000809129028A
:1008F00091E0980F9F70807F892B03C0809129021F
:10090000807F809329028C2FDF91CF911F910F91CF
:10091000089580E090E0892B21F088E090E00E942B
:1009200000008FEF80932A028091280288608093D4
:10093000280228E143E06FEF80E00E947C1561E02F
:100940000E9445120C94F603809139028F3FA1F466
:1009500080E090E0892B21F086E090E00E9400008A
:1009600023E043E06FEF80E00E947C1568E871E0CF
:100970000E9451120C94F603089580E090E0892BB8
:1009800021F084E090E00E94000080912802897F9D
:100990008160809328028FEF80933B0280933A021C
:1009A00027E043E06FEF0E947C1568E871E00E9449
:1009B00051120C94F6032091280222FD0C94F603A8
:1009C00080E008957F928F929F92AF92BF92CF92D4
:1009D000DF92EF92FF920F931F93CF93DF931F92BB
:1009E000CDB7DEB7E0911E02F0911F020280F381C5
:1009F000E02D309709F009958091280284FBFF24AF
:100A0000F0F884FF94C186E0782E00E010E091E2D7
:100A1000E92E21E041E060E070E087E10E944903B7
:100A200080FD85C17A94772009F481C101151105F3
:100A300021F081E090E00E94000021E041E060E0D0
:100A400070E080E60E944903C82E80E28C1520F4F5
:100A500082EE0E94F003C12C21E04C2D6EE373E086
:100A600081E60E94490360E487E20E948503909139
:100A70004103292F2695269526952A3108F029E14C
:100A800092FD03C037E0320F01C030E28091420393
:100A9000B0904303D0903F0360913E0340914003E8
:100AA000C31639F00115110509F4B3CF8CE690E0B7
:100AB0000AC0392F3370323049F00115110509F49D
:100AC000A8CF8DE690E00E940000A3CF582F57706A
:100AD0003091290230683093290230913902431352
:100AE00038C030E0B901E3E0660F771FEA95E1F71F
:100AF0009770962B90934103F901E25CFC4F1782AB
:100B000083FF19C0EEE3F3E0ADE1B3E08E2D019079
:100B10000D928A95E1F780912103877F8061809310
:100B2000210340931E03D0921F038DE193E059836C
:100B30000E94DB0459812091420324FD6ACF533087
:100B400009F067CF9091430381EF890F833058F507
:100B500060CF4F3F09F05DCF533009F05ACF8091FD
:100B6000280282FF04C087E0B81609F452CF84E15E
:100B7000B8124FCF80913A0268134BCF0E94E9160A
:100B80007370882799270E94AF16C0903A0225E11A
:100B900043E06FEF8D2D0E947C156C2D0E94451255
:100BA0000E94F60336CF84E0B81205C00E94AA1551
:100BB0000E94A3032ECF88E0B8121AC0C09028026A
:100BC000C0FE27CF0E94AA158F3F09F422CF91E0E3
:100BD000980F9F3F09F41DCF80913B02981708F0B2
:100BE00018CFC1FC16CF90933B02D0923A0211CF9E
:100BF00088E1B81208C029E143E06FEF8D2D0E9413
:100C00007C1561E0CBCF89E1B8120CC0809128023D
:100C100083FFFFCE877F809328020E94AA158093CE
:100C20002A02F7CE80913F038111F3CE9D3099F4D3
:100C300080E090E0892B21F08BE090E00E940000A2
:100C400098E088E10FB6F894A895809360000FBEF5
:100C500090936000FFCF9B3199F40E94AA1591E018
:100C6000811101C090E080912E0290FB80F9809369
:100C70002E020115110509F4CCCE8AE090E023CFB5
:100C80009630A9F490914503992329F081E09D3491
:100C900019F080E001C08F2D80932D0241E050E0DB
:100CA00063E071E08DE292E00E94BF1AB2CE933110
:100CB00019F40E948513ADCE9231D9F40E94190324
:100CC0004B015C0126E143E06FEF80E00E947C1560
:100CD000FC0184818F71806A848383818770806244
:100CE000838387829086A186B286CF010E94DB042F
:100CF00090CE913009F08DCE229526952770253023
:100D000049F46091450370914603809147039091A7
:100D100048030AC0211105C085E493E00E946B1AC4
:100D200003C060E070E0CB010E943F1272CE0F90D2
:100D3000DF91CF911F910F91FF90EF90DF90CF90B7
:100D4000BF90AF909F908F907F9008959C0180916D
:100D50001E0290911F028217930751F09091280272
:100D60009F719093280230931F0220931E0205C0AA
:100D700080912802805E80932802E0911E02F0910B
:100D80001F020190F081E02D309709F009950E9433
:100D9000E9166093200270932102809322029093BF
:100DA000230208950F931F930E9419032091290293
:100DB0002077203729F000E117E220E030E004C07E
:100DC00000E61AEE20E030E006171707280739077B
:100DD00030F48DE191E01F910F910C94A6061F91C4
:100DE0000F910895809129028F70863020F088E15C
:100DF00091E00C94A606089580912A028F3FA1F0FD
:100E00000E94E916609324027093250280932602C3
:100E10009093270280912A0290913B02891380933C
:100E20003B0284E191E01BC00E941903613D7740C1
:100E300081059105B0F080912802803618F480E198
:100E400091E00DC0877F8093280280E090E0892B9D
:100E500021F08AE690E00E94000088E191E00C9485
:100E6000A6060895809139028F3F59F080E090E006
:100E7000892B21F087E090E00E94000080E191E062
:100E800018C00E941903613D77408105910598F0D3
:100E900080912802803618F48CE091E00AC080E04E
:100EA00090E0892B21F089E690E00E94000088E024
:100EB00091E00C94A60608950E941903613D7740C5
:100EC0008105910520F48091280281FF0895809189
:100ED0003A028F3F81F0809128028E7F8093280212
:100EE00080E090E0892B21F085E090E00E940000F6
:100EF0008CE091E011C080912802803618F488E1DE
:100F000091E00AC080E090E0892B21F088E690E033
:100F10000E94000088E091E00C94A606CF93219AED
:100F2000229A0E94B90F29982A9A6EE080E20E94C4
:100F3000850365E070E080E090E00E94AF1663E01A
:100F400083E20E9485036FE584E20E9485036CE4DE
:100F500085E20E94850367E286E20E94850363E7DB
:100F600080E50E94850366E08DE30E94850321E011
:100F700041E060E070E086E00E944903C82F21E074
:100F800041E060E070E085E00E9449038C3409F0A4
:100F900040C0C732F1F562E082E20E94850360E062
:100FA00081E20E94850363E08CE30E9485038FEF5A
:100FB0008093030120E045E063E071E08BE20E9452
:100FC000490320E045E063E071E08AE20E944903C2
:100FD00020E045E063E071E080E30E94490382EE97
:100FE0000E94F00381EE0E94F00360E787E20E9416
:100FF00085038091280280618093280280913902C4
:101000008F3F81F00E94A30381110CC088E091E022
:101010000BC080E090E0892BC9F387E690E00E9446
:101020000000F4CF88E191E0CF910C94A6061F92C6
:101030000F920FB60F9211240F900FBE0F901F90BA
:101040001895CF92DF92EF92FF920F931F93CF9359
:10105000DF93FC016901342F8589882391F0823068
:1010600020F090859150961B692F9FEF980F92303A
:1010700018F432853150341B80FF03C0862F632F54
:10108000382F67FD79C0862F062E000C990BC4817E
:10109000D5818C179D070CF06FC0032F10E046819F
:1010A0005781041715070CF067C0568D23E09595FE
:1010B00087952A95E1F743E0159507954A95E1F75D
:1010C000509F7001519FF00C1124078D10A1800FCB
:1010D000911F8E0D9F1DDC012C91462F477037709C
:1010E00081A192A1820F911DDC018C91823018F0B8
:1010F00097E0941B492F9FEF980F923018F497E0D8
:10110000931B392F80FF03C0842F432F382F822F4A
:10111000652F0E94E11A859F20191124B8E02B9FAA
:10112000400D112498E0899F300D1124632F70E049
:1011300083E0759567958A95E1F7C69FC001C79FC3
:10114000900DD69F900D1124840F911D47FD9A9507
:10115000038CF48DE02DE80FF91F377081E090E0EB
:1011600001C0880F3A95EAF72081CD2811F0822B33
:1011700002C0809582238083DF91CF911F910F91D0
:10118000FF90EF90DF90CF9008950895FC01637079
:10119000658B8481958126813781613039F0633098
:1011A00029F09187808733872287089531872087A8
:1011B0009387828708950C94C6082F923F924F928E
:1011C0005F926F927F928F929F92AF92BF92CF92D7
:1011D000DF92EF92FF920F931F93CF93DF93CDB7E0
:1011E000DEB76C970FB6F894DEBF0FBECDBF9C8FF5
:1011F0008B8F5B011A011F830E833701C982DC01CB
:1012000058964D915C9159974115510509F0E5C0EB
:1012100018968D919C911997681779070CF0CAC19F
:101220001A968D919C911B97281639060CF0C2C115
:101230008C2C912CFB0136E0C39EE00DF11D112496
:10124000FB87EA871E161F060CF0B4C1C40133E009
:10125000880F991F3A95E1F79D878C87820D931D22
:10126000181619060CF0A6C157968C91811103C06F
:10127000203B08F02F5FAB8DBC8DED91FC91119759
:101280000284F385E02DCD012A8F09952A8DB5E0E2
:101290002B9F90011124F5013596FF87EE87BB82C5
:1012A000AA822501A9014A195B09598B488BC10102
:1012B00008969B8B8A8BE889F989E40DF51DE8591E
:1012C000FF4F9491988761013D822C82A885A0FFF1
:1012D00013C0AB8DBC8DED91FC91B981B13031F46F
:1012E0000484F585E02D2E813F8116C00684F785A4
:1012F000E02DEE80FF801AC0EE81FF816E167F0622
:10130000F1F0AB8DBC8DED91FC91B981B13051F410
:101310000484F585E02D9301A601B2018B8D9C8D8F
:1013200009950DC00684F785E02D730184019401B1
:101330004C815D816A817B818B8D9C8D0995E885CF
:10134000E695E887FFEFCF1ADF0A2C813D81280D53
:10135000391D3D832C834A895B89C416D50609F063
:10136000B5CF5FEF451A550A8A819B81880D991D7B
:101370009B838A83AE85BF854A165B0609F09BCFA7
:10138000EE81FF816E167F0609F4F2C0EB8DFC8DB5
:10139000A081B181F981F13079F4B5016B5F7F4FA4
:1013A0005096ED91FC915197830128E030E0A10126
:1013B0008B8D9C8D0995DCC06A857B8568197909C0
:1013C0001E96ED91FC911F9773010C851D8594016C
:1013D000A1018B8D9C8D0995CBC0FA013496949117
:1013E000329765917491291BCB01B7E02B9F800D3B
:1013F000911D1124FA01259134913B8B2A8BFC011C
:10140000459154915B834A83FC013296C490319696
:1014100054915E87329614913196D49089818230AE
:1014200058F0612E012E000C7708AD2D0D2C000C0C
:10143000BB0BB987A88704C019861886612C712C4C
:10144000AB8DBC8DED91FC9111970284F385E02D5D
:10145000CD010995B9818B2E912C689CC001699CA6
:10146000900D789C900D1124FC01EA0DFB1DFD8769
:10147000EC871C82712C612CE12F110FFF0B950161
:101480002E0F3F1F3B872A87AC0CB11CA5014E0FC6
:101490005F1F5F8B4E8BC1018D0D911DD7FC9A95FF
:1014A000998F888F4E85641608F062C0862D90E073
:1014B00048855985480F591F489D9001499D300D19
:1014C000589D300D1124D901A20DB31DB98BA88BE5
:1014D000AA84BB844C845D84DC80BA85DB1AE88DE9
:1014E000F98DE80FF91FFD8BEC8B8D2D8A0D2E8960
:1014F0003F89A216B306B9F1877061F48A819B8196
:101500000196EA89FB89AA81BB81EA0FFB1F7490CF
:101510009B838A8377FE20C0AB8DBC8DED91FC91BF
:10152000B981B13061F40484F585E02D2E813F81CD
:101530004C895D89B5018B8D9C8D09950DC0068404
:10154000F785E02DEE80FF80840194014889598958
:10155000B2018B8D9C8D0995770CEFEFAE1ABE0A08
:10156000480C591CC2CF3C813C0D3C8363949ACFFC
:10157000AB8DBC8DED91FC9111970688F789E02D1C
:10158000CD016C960FB6F894DEBF0FBECDBFDF91D4
:10159000CF911F910F91FF90EF90DF90CF90BF9070
:1015A000AF909F908F907F906F905F904F903F9003
:1015B0002F9009946C960FB6F894DEBF0FBECDBF86
:1015C000DF91CF911F910F91FF90EF90DF90CF901F
:1015D000BF90AF909F908F907F906F905F904F9053
:1015E0003F902F900895AF92BF92CF92EF92FF92CB
:1015F0000F931F93CF93DF93EC01262F888D998D46
:10160000009709F040C06A3059F41D861C862C8969
:101610008E859F8538E0239F800D911D112441C048
:101620006D3009F4AAC08E898823C1F03C898C856D
:101630009D8546E0349F800D911D11244885598574
:10164000481759075CF41D861C868E859F8548E0E7
:10165000349F800D911D11249F878E87EA88FB8817
:10166000088919894E855F856C857D85CC88CE017A
:101670000E94DD082C898C859D8536E0239F800D96
:10168000911D112442C06A3079F41D861C862C8974
:10169000FC013696E4918E859F852E9F800D911DCD
:1016A00011249F878E8769C06D3009F466C0FC01E4
:1016B00034963491631708F460C03196E491E617CC
:1016C00008F45BC0FC013296A590B490462F50E020
:1016D000431B510937E0349FB001359F700D112431
:1016E000A60EB71EF501329634913196E49133235C
:1016F00011F0E1110DC0F5013496E4912C898C852F
:101700009D85E29F800D911D11249D878C8735C09A
:10171000F501359644915E89552311F16C89E32FCB
:10172000F0E0E40FF11D47FDFA956E9FD0016F9F29
:10173000B00D11244C855D854A0F5B1FE885F98546
:10174000E417F5076CF41D861C86FC013696E491BF
:101750008E859F856E9F800D911D11249F878E879A
:10176000EA88FB88088919894E855F856C857D85A7
:10177000CC88CE010E94DD08BECF81E090E0DF91F1
:10178000CF911F910F91FF90EF90CF90BF90AF90AE
:1017900008956F927F928F929F92AF92BF92CF9255
:1017A000DF92EF92FF920F931F93CF93DF93EC01A1
:1017B0004B015A0169013801E881F9810284F385FE
:1017C000E02D0995E881F9810288F389E02D8701F0
:1017D0009601A501B401CE010995E881F981A50121
:1017E000460D571D415051090288F389E02D96019D
:1017F000B401CE010995E881F9810088F189E02DD5
:101800009301A501B401CE010995E881F981C80CC5
:10181000D91CB601615071090088F189E02D93014E
:10182000A501CE010995E881F9810688F789E02DA7
:10183000CE01DF91CF911F910F91FF90EF90DF903C
:10184000CF90BF90AF909F908F907F906F900994B2
:10185000CF92DF92EF92FF920F931F93CF93DF937C
:1018600000D000D000D0CDB7DEB76C01DC01ED9127
:10187000FC916217730789F4041715072CF4942F51
:10188000852FA801092F182F041B150B98012F5F16
:101890003F4F048CF58DE02D12C04017510709F51C
:1018A000261737072CF4962F872FB901292F382FA9
:1018B000261B370B2F5F3F4F068CF78DE02D8701DE
:1018C000C601099526960FB6F894DEBF0FBECDBFB0
:1018D000DF91CF911F910F91FF90EF90DF90CF900C
:1018E00008950284F385E02D2D833E834B835C8332
:1018F00069837A830995D601ED91FC910488F58975
:10190000E02D2D813E814B815C8169817A81C60108
:101910000995D601ED91FC910688F789E02DC60165
:1019200026960FB6F894DEBF0FBECDBFDF91CF91E4
:101930001F910F91FF90EF90DF90CF900994EF925D
:10194000FF920F931F93DC01ED91FC9111971A9672
:101950000D911C911B9718962D913C91199700A001
:10196000F1A1E02D7B0140E050E060E070E00995DE
:101970001F910F91FF90EF9008954F925F926F9299
:101980007F928F929F92AF92BF92CF92DF92EF920F
:10199000FF920F931F93CF93DF9300D0CDB7DEB7A5
:1019A0006C015A0139014801DC01ED91FC9102847E
:1019B000F385E02D69837A8309956981462E7A81C2
:1019C000572E640C751CD601ED91FC9146145704FA
:1019D0006CF40088F189E02D87019401A501B20122
:1019E000C6010995BFEF4B1A5B0AEDCF0688F78950
:1019F000E02DC6010F900F90DF91CF911F910F91B5
:101A0000FF90EF90DF90CF90BF90AF909F908F901E
:101A10007F906F905F904F900994AF92BF92CF925A
:101A2000DF92EF92FF920F931F93CF93DF9300D03B
:101A300000D0CDB7DEB75C016901DC01ED91FC910E
:101A40000284F385E02D4B835C8369837A83099557
:101A5000D501ED91FC9169817A819B012C0D3D1D91
:101A6000215031090488F589E02D78014B815C8192
:101A70008A01C5010995D501ED91FC910688F78988
:101A8000E02DC5010F900F900F900F90DF91CF9137
:101A90001F910F91FF90EF90DF90CF90BF90AF908C
:101AA0000994AF92BF92CF92DF92EF92FF920F9381
:101AB0001F93CF93DF9300D000D0CDB7DEB75C018A
:101AC0006901DC01ED91FC910284F385E02D4B83EB
:101AD0005C8369837A830995D501ED91FC914B81F3
:101AE0005C81C40ED51EB1E0CB1AD1080488F589FB
:101AF000E02D7801860169817A819B01C5010995F4
:101B0000D501ED91FC910688F789E02DC5010F9074
:101B10000F900F900F90DF91CF911F910F91FF9039
:101B2000EF90DF90CF90BF90AF9009940895EF921F
:101B3000FF920F931F93DC01ED91FC9100A0F1A1A6
:101B4000E02D09951F910F91FF90EF9008950F934D
:101B50001F93DC01ED91FC91068CF78DE02D09952A
:101B60001F910F9108950F931F93DC01ED91FC914C
:101B7000048CF58DE02D09951F910F910895DC01DE
:101B8000ED91FC910084F185E02D099408952F9248
:101B90003F924F925F926F927F928F929F92AF92FD
:101BA000BF92CF92DF92EF92FF920F931F93CF934A
:101BB000DF9300D01F92CDB7DEB74C017B836A83E1
:101BC0006A01590117019801241B350B37FF03C027
:101BD000319521953109C5014A815B81841B950BA3
:101BE00097FF03C091958195910951E05983821720
:101BF000930714F019820BC09A2D8B2D5801092FD1
:101C0000182F9A818B81DB82CA82C92ED82E8A81B5
:101C10009B81A816B9065CF49C2D8D2D6801092FB7
:101C2000182F9A818B81BB82AA82A92EB82E2501FA
:101C3000AA81BB814A1A5B0A38016C187D0877FEBD
:101C400003C0719461947108720157FE03C0BFEF25
:101C5000EB1AFB0AF594E794C016D1061CF00FEFBF
:101C60001FEF1FC001E010E01CC0D401ED91FC91FA
:101C7000B9810484F585E02D9101BB23C1F04A812F
:101C80005B81B601C4010995E618F708F7FE04C0A8
:101C9000C00ED11EE40CF51CEA81FB813196FB835A
:101CA000EA834A815B81A416B506FCF604C0A6014E
:101CB0006A817B81E7CF0F900F900F90DF91CF91DA
:101CC0001F910F91FF90EF90DF90CF90BF90AF905A
:101CD0009F908F907F906F905F904F903F902F904C
:101CE000089585ED8093BC008091BC0084FDFCCFFD
:101CF0001092F3010895FC01458D50E0672B19F413
:101D000060E070E002C06FEF70E0FC01838D948DA5
:101D10000C946F1C4F925F926F927F928F929F9262
:101D2000AF92BF92CF92DF92EF92FF920F931F93E9
:101D3000CF93DF934B015C0180911A0290911B02BB
:101D4000A0911C02B0911D0288169906AA06BB0636
:101D500009F4C2C08CE3C82ED12CE12CF12CC501B2
:101D6000B401A70196010E94011B6093A401CA015E
:101D7000B901A70196010E94011B6093A501CA0148
:101D8000B90128E130E040E050E00E94011B690108
:101D90007A016093A601CA01B9016C5F7F4F8F4F32
:101DA0009F4F27E030E040E050E00E94011B6F5F52
:101DB0006093A701412C512C320140E004E610E071
:101DC000C0E9D1E0242F30E02E54384FF901E37000
:101DD000FF27309789F4C901B8010E94ED1A892BB9
:101DE00031F4C901BE010E94ED1A892B29F48EE657
:101DF00091E0A0E0B0E004C08DE691E0A0E0B0E0AA
:101E0000480E591E6A1E7B1ED301C201AA27BB279A
:101E1000C816D906EA06FB0610F04F5FD3CF4093F1
:101E2000AA01309799F4C90164E670E00E94ED1AA6
:101E3000892B39F4C90160E971E00E94ED1A892B00
:101E400029F48EE691E0A0E0B0E004C08DE691E0D8
:101E5000A0E0B0E0481A590A6A0A7B0AC418D508FB
:101E6000E608F708C90164E670E00E94ED1AEC018B
:101E7000C90160E971E00E94ED1AABE2B1E020E037
:101E8000213039F4309749F4209729F4009729F448
:101E900002C04C9103C04DE101C04CE150E060E054
:101EA00070E0C416D506E606F70640F0C41AD50A57
:101EB000E60AF70A2F5F11962C3011F72F5F209357
:101EC000A901C394C092A80180921A0290921B02A9
:101ED000A0921C02B0921D02DF91CF911F910F9131
:101EE000FF90EF90DF90CF90BF90AF909F908F903A
:101EF0007F906F905F904F9008950E94EA170E9424
:101F00008A0E8091A40190E00895EF92FF920F93C2
:101F10001F93CF93DF938C01D62FE42E60E0DC017A
:101F20005A968C910E946316FF24FA94FD0EF801D4
:101F3000C58DCF0DC8508D2F0E944203D93048F473
:101F4000D8015B96ED91FC915C97EC0FF11D8081BF
:101F500001C08E2D0E944203FC1660F361E0F8017F
:101F6000828DDF91CF911F910F91FF90EF900C9494
:101F70006316CF93CFB7F89480911902811124C0D2
:101F8000EAE9F5E08491EEEAF5E09491E82FF0E0DB
:101F9000EE0FFF1FEA57FA4FA591B491EC91E92398
:101FA00021F461E08AE00E9463168AE00E948B15AA
:101FB0008CB580618CBD8CB580648CBD8DE00E9439
:101FC0008B158BE00E948B15809119028F5F809397
:101FD0001902CFBFCF9108951F920F920FB60F92A3
:101FE00011242F933F934F935F936F937F938F931E
:101FF0009F93AF93BF93EF93FF938091B900887F36
:10200000803609F49CC068F5883209F45BC090F40E
:10201000803109F454C038F4882309F4F6C08830BC
:1020200009F44DC0F6C0883109F44CC0803209F47F
:102030005DC0EFC0803409F468C048F4803309F40F
:1020400055C0883309F0E5C08093F201D8C08035CF
:1020500009F44FC0883509F45DC0883409F0D9C04F
:10206000D6C0883909F4C7C0A8F4883709F467C016
:1020700038F4883609F463C0803709F460C0C9C0F9
:10208000883809F4B8C0803909F45FC0803809F095
:10209000C0C05BC0803B09F486C038F4803A09F4C4
:1020A00066C0883A09F47FC0B4C0803C09F4A7C078
:1020B000883C09F4A4C0883B09F48AC0AAC0809176
:1020C000180210C09091170280911602981770F5AF
:1020D000E091170281E08E0F80931702F0E0EA5042
:1020E000FE4F80818093BB0085EC86C08093F20117
:1020F0008EC0E091170281E08E0F809317028091CD
:10210000BB00F0E0EA50FE4F80839091170280916F
:1021100016026EC0E091170281E08E0F80931702C5
:102120008091BB00F0E0EA50FE4F80838091F50182
:1021300081116DC081E08093F40184EA61C083E085
:102140008093F3011092F101CFCF8091F1018032A1
:1021500008F051C0E091F10181E08E0F8093F10110
:102160008091BB00F0E0EF52FE4F8083BDCF85EC45
:102170008093BC001092F3018091F101803230F421
:10218000E091F101F0E0EF52FE4F10826091F10119
:1021900070E0E091CF01F091D00181ED91E00995DF
:1021A0001092F10136C084E08093F3011092CE01C9
:1021B0001092CD01E091CB01F091CC010995809175
:1021C000CD01811105C081E08093CD011092AB015A
:1021D000E091CE0181E08E0F8093CE01F0E0E555D5
:1021E000FE4F80818093BB009091CE018091CD0104
:1021F000981708F479CF85E88093BC000AC085EC75
:102200008093BC001092F30104C01092F2010E946E
:10221000710EFF91EF91BF91AF919F918F917F913F
:102220006F915F914F913F912F910F900FBE0F9043
:102230001F9018954091CD01262F30E0240F311DBD
:1022400021323105DCF42091F3012430C9F4FC0182
:1022500080E090E0861758F43091CD012191DC01A7
:10226000A555BE4FA30FB11D2C930196F3CF8091BE
:10227000CD01680F6093CD0180E0089581E008955D
:1022800082E0089508958FEF9FEF08958FEF9FEFFD
:1022900008958091380290E0919581959109089573
:1022A000089580E090E008950895CF93DF9300D0E3
:1022B000CDB7DEB7CB01642F49835A830E941A1130
:1022C0004981842F5A81952F0F900F90DF91CF91E4
:1022D0000895CF93DF931F92CDB7DEB7698361E096
:1022E000CE0101960E941A1181E090E00F90DF91DB
:1022F000CF91089560E070E08AEF92E00C947B0E3D
:10230000CF92DF92EF92FF920E94E9166B017C015F
:10231000209137028091330290913402A0913502CE
:10232000B091360221110EC0A7019601281B390B6E
:102330004A0B5B0BDA01C90181319742A105B10556
:1023400070F417C0A7019601281B390B4A0B5B0BD1
:10235000DA01C90181389E4EA643B10550F00E94B2
:10236000BD15C0923302D0923402E0923502F09251
:10237000360280912F0290913002A0913102B091EB
:102380003202A7019601281B390B4A0B5B0BDA01BD
:10239000C901893E9340A105B10508F46BC060E016
:1023A00070E08AEF92E00E947B0E0E94EA170E9482
:1023B0008A0E8091A60190E00A971CF489E090E0D3
:1023C00002C083E090E0909307038093060310928D
:1023D0000903109208030E94EA170E948A0E809156
:1023E000A60190E00E94D51582E190E0909307034A
:1023F0008093060310920903109208030E94EA17C3
:102400000E948A0E8091A50190E00A9744F441E071
:1024100050E06CE971E08AEF92E00E94FD130E94A7
:10242000EA170E948A0E8091A50190E00E94D515BE
:102430000E947D0F4E9734F40E947D0FBC016F5FA8
:102440007F4F06C00E947D0F6CE370E0681B790B24
:1024500021E030E047E050E08AEF92E00E9421085E
:102460000E94C915C0922F02D0923002E092310230
:10247000F0923202FF90EF90DF90CF9008950E948B
:10248000C31781E0809337020895FC018381877030
:102490008860838384818F71806284836783CF01A6
:1024A00008950F931F93CF93DF93EC01611571058E
:1024B00061F0FB0101900020E9F73197E61BF70B73
:1024C000E931F10518F0E9E101C0E0E00E2F10E07C
:1024D000C80123E0880F991F2A95E1F79B81977027
:1024E000892B8B838C818F718C83EE2329F0A8013B
:1024F000CE0107960E94761CFE01E00FF11F1782A5
:10250000CE01DF91CF911F910F910895CF92DF926D
:10251000EF92FF920F931F93CF93DF9340E06AE017
:102520008AEF92E00E94850F40E06AE08AEF92E035
:102530000E94850FC12CD12CC0910203D0910303BE
:102540002197CC16DD061CF560E070E08AEF92E082
:102550000E947B0E009104031091050301501109A4
:10256000EE24E394F12C960140E050E0B6018AEFAE
:1025700092E00E94280C0E94C91562E370E080E09E
:1025800090E00E94AF168FEFC81AD80AD5CF1C165C
:102590001D060CF560E070E08AEF92E00E947B0E71
:1025A000009104031091050301501109EE24E394F6
:1025B000F12C9E0140E050E0BE018AEF92E00E94C3
:1025C000280C0E94C91569E170E080E090E00E944B
:1025D000AF162197DCCF45E06AE08AEF92E00E94D7
:1025E000850F60E070E08AEF92E00E947B0E0E940F
:1025F000C91568EC70E080E090E00E94AF1661E0E1
:1026000070E08AEF92E00E947B0E0E94C91564E69A
:1026100070E080E090E00E94AF1660E070E08AEF2A
:1026200092E00E947B0E0E94C91564E670E080E093
:1026300090E00E94AF1661E070E08AEF92E00E94A5
:102640007B0E0E94C91568EC70E080E090E00E946B
:10265000AF1640E06AE08AEF92E00E94850F60E0EA
:1026600070E08AEF92E00E947B0E0E94C9150E94E2
:10267000BD151092DF0267E871E089ED92E00E94DB
:102680005112FC018091390281839481907F916085
:10269000948380912E0280FF0BC0CF01DF91CF91F8
:1026A0001F910F91FF90EF90DF90CF900C94DB047F
:1026B000DF91CF911F910F91FF90EF90DF90CF901E
:1026C00008952BE043E06FEF80E00E947C1569E8FD
:1026D00071E00E9451120E94DB042CE043E06FEF96
:1026E00080E00E947C156AE971E00E9451120E940C
:1026F000DB0424E240E060E080E00E947C1568E8B2
:1027000071E00E9451120C94DB04CF9380E090E0C2
:10271000892B21F08CE090E00E9400002FE043E044
:102720006FEF80E00E947C1568E871E00E94511212
:102730008091200387708061809320038091210322
:102740008F71806C8093210381E080932403109229
:1027500025038DE193E00E94DB048FE00E94F516D3
:1027600021E140E06FEF80E00E947C156EE971E0AE
:102770000E9451120E94DB04C0913A0226E043E01D
:102780006FEF80E00E947C156C2F0E9445120E9422
:10279000DB0486E00E94F516CF910C946113CF9371
:1027A00080912E0281FD27C00E94851380E090E079
:1027B000892B21F089E090E00E94000080912E0298
:1027C000816080932E02C4E02AE143E06FEF80E055
:1027D0000E947C1562E00E9445120E94DB048BE19E
:1027E0000E94F516811102C0C15071F780912E022E
:1027F000826080932E02CF910895CF92DF92EF9264
:10280000FF920F931F93CF93DF936C017A018B019B
:10281000C0E0D0E0CE15DF0589F0D8016D918D01C3
:10282000D601ED91FC910190F081E02DC601099552
:10283000892B11F47E0102C02196ECCFC701DF91F4
:10284000CF911F910F91FF90EF90DF90CF9008955F
:10285000FC01538D448D252F30E0842F90E0821BA6
:10286000930B541710F0CF96089501970895FC012B
:10287000918D828D981761F0828DDF01A80FB11DB7
:102880005D968C91928D9F5F9F73928F90E00895DB
:102890008FEF9FEF0895FC01918D828D981731F095
:1028A000828DE80FF11D858D90E008958FEF9FEFE9
:1028B0000895FC01918D228D892F90E0805C9F4FBF
:1028C000821B91098F73992708958CE392E00E94EF
:1028D000591421E0892B09F420E0822F0895FC018E
:1028E000848DDF01A80FB11DA35ABF4F2C91848D99
:1028F00090E001968F739927848FA689B7892C93CE
:10290000A089B1898C9180648C93938D848D981368
:1029100006C00288F389E02D80818F7D8083089531
:10292000EF92FF920F931F93CF93DF93EC0181E01F
:10293000888F9B8D8C8D981305C0E889F9898081DB
:1029400085FD24C0F62E0B8D10E00F5F1F4F0F7317
:102950001127E02E8C8DE8120CC00FB607FCFACFC1
:10296000E889F989808185FFF5CFCE010E946F1437
:10297000F1CF8B8DFE01E80FF11DE35AFF4FF0827E
:102980000B8FEA89FB898081806207C0EE89FF890D
:102990006083E889F98980818064808381E090E0A8
:1029A000DF91CF911F910F91FF90EF900895CF93FA
:1029B000DF93EC01888D8823C9F0EA89FB89808147
:1029C00085FD05C0A889B9898C9186FD0FC00FB619
:1029D00007FCF5CF808185FFF2CFA889B9898C915A
:1029E00085FFEDCFCE010E946F14E7CFDF91CF912D
:1029F000089580E090E0892B29F00E9465148111F0
:102A00000C94000008953FB7F8948091740390915E
:102A10007503A0917603B091770326B5A89B05C0F6
:102A20002F3F19F00196A11DB11D3FBFBA2FA92F4D
:102A3000982F8827820F911DA11DB11DBC01CD01CA
:102A400042E0660F771F881F991F4A95D1F70895B6
:102A500008958F929F92AF92BF920F931F93CF933F
:102A6000DF93CDB7DEB7A1970FB6F894DEBF0FBEE8
:102A7000CDBF19A2423008F44AE08E010F5D1F4F0E
:102A8000842E912CA12CB12CA50194010E94011B34
:102A9000E62FB901CA0101501109EA3014F4E05DD2
:102AA00001C0E95CD801EC93232B242B252B61F783
:102AB0000115110571F0F80101900020E9F7319737
:102AC000AF01401B510BB8018AEF92E00E94FD1349
:102AD00002C080E090E0A1960FB6F894DEBF0FBE72
:102AE000CDBFDF91CF911F910F91BF90AF909F907D
:102AF0008F9008950E946A1CEDE1F3E090913902F5
:102B0000918382836683258347708481807E482BEE
:102B10004483CF01089590E0FC01EC55FA4F2491D5
:102B2000FC01E057FA4F8491882399F090E0880FD8
:102B3000991FFC01EA57FA4FA591B491FC01E458A2
:102B4000FA4F859194918FB7F894EC91E22BEC9326
:102B50008FBF08958091420382958695877081305A
:102B600019F4809145030895811105C085E493E02F
:102B70000E944D1A089580E0089521E043E06FEF30
:102B800080E00E947C1568E871E00E9451120C946C
:102B9000DB04CF93C8E040E06C2F8AEF92E00E9404
:102BA000850FC150C1F7CF910895CF92DF92EF9278
:102BB000FF92CF93DF936C01990FEE08FF08F7FEA9
:102BC0001FC0E091FA02F091FB020190F081E02D2C
:102BD0006DE28AEF92E00995EC0166277727CB0139
:102BE0006C197D098E099F094AE00E9429158C0FF6
:102BF0009D1FDF91CF91FF90EF90DF90CF900895D0
:102C00004AE0C701B601DF91CF91FF90EF90DF90CE
:102C1000CF900C9429151F920F920FB60F9211248A
:102C20002F933F934F935F936F937F938F939F93D4
:102C3000AF93BF93EF93FF938CE392E00E946F14E6
:102C4000FF91EF91BF91AF919F918F917F916F9184
:102C50005F914F913F912F910F900FBE0F901F905A
:102C600018951F920F920FB60F9211242F938F93E6
:102C70009F93EF93FF93E0914C02F0914D0280817E
:102C8000E0915202F091530282FD12C09081809136
:102C900055028F5F8F7320915602821751F0E09199
:102CA0005502F0E0E45CFD4F958F8093550201C022
:102CB0008081FF91EF919F918F912F910F900FBE87
:102CC0000F901F90189590E0FC01E859FA4F34914D
:102CD000FC01EC55FA4F2491FC01E057FA4FE491C6
:102CE000EE2309F43BC0332339F1333091F038F44B
:102CF0003130A9F0323001F584B58F7D12C0373004
:102D000091F03830A1F03430B9F4809180008F7D9B
:102D100003C0809180008F77809380000DC084B5C0
:102D20008F7784BD09C08091B0008F7703C08091F8
:102D3000B0008F7D8093B000F0E0EE0FFF1FE458ED
:102D4000FA4FA591B4918FB7F894EC91611103C03B
:102D500020952E2301C02E2B2C938FBF08958F9288
:102D60009F92AF92BF92CF92DF92EF92FF926B0150
:102D70007C010E9403154B015C01C114D104E104E4
:102D8000F104F1F00E940315DC01CB0188199909C7
:102D9000AA09BB09883E9340A105B10570F321E063
:102DA000C21AD108E108F10888EE880E83E0981E67
:102DB000A11CB11CC114D104E104F10419F7DDCF49
:102DC000FF90EF90DF90CF90BF90AF909F908F904B
:102DD00008952FB7F89460917003709171038091FA
:102DE0007203909173032FBF0895CF92DF92EF92F9
:102DF000FF92CF93DF93D82F0E94E9166B017C01DD
:102E000081E0D11180E080934303C0E00E94E91685
:102E1000AB01BC014C195D096E097F09403D57406B
:102E20006105710580F4C1110EC0A8950E94E204ED
:102E3000909142039770933049F7C1E0809143032A
:102E40008D13E3CFE3CF8C2FDF91CF91FF90EF90E5
:102E5000DF90CF9008951F920F920FB60F9211241A
:102E60002F933F938F939F93AF93BF938091700362
:102E700090917103A0917203B091730330916F032D
:102E800023E0230F2D3720F40196A11DB11D05C0AD
:102E900026E8230F0296A11DB11D20936F03809396
:102EA000700390937103A0937203B09373038091A6
:102EB000740390917503A0917603B0917703019606
:102EC000A11DB11D8093740390937503A0937603A5
:102ED000B0937703BF91AF919F918F913F912F91C5
:102EE0000F900FBE0F901F9018951F920F920FB664
:102EF0000F9211242F933F934F935F936F937F9380
:102F00008F939F93AF93BF93EF93FF93E091230130
:102F1000F09124010995FF91EF91BF91AF919F919D
:102F20008F917F916F915F914F913F912F910F9072
:102F30000FBE0F901F9018951F920F920FB60F9211
:102F400011242F933F934F935F936F937F938F93AE
:102F50009F93AF93BF93EF93FF93E0912101F09183
:102F600022010995FF91EF91BF91AF919F918F91B0
:102F70007F916F915F914F913F912F910F900FBE75
:102F80000F901F90189560936B0370936C03809360
:102F90006D0390936E03DC01CB01845D9E4FAF4FB8
:102FA000BF4F8093670390936803A0936903B09326
:102FB0006A0382E090E090936603809365030E9429
:102FC000E9166093610370936203809363039093A7
:102FD00064030895CF92DF92EF92FF920F931F93B5
:102FE0000E94E916C0906103D0906203E0906303F1
:102FF000F09064038B019C010C191D092E093F09F7
:1030000080916B0390916C03A0916D03B0916E035E
:10301000083E134021053105D0F00196A11DB11DD8
:1030200080936B0390936C03A0936D03B0936E0336
:10303000B701A60148515C4F6F4F7F4F409361032A
:10304000509362036093630370936403C9CF40910C
:103050006703509168036091690370916A03841754
:103060009507A607B70788F1E0915F03F091600329
:10307000309759F10995611571058105910519F090
:103080000E94C31722C080916B0390916C03A091A2
:103090006D03B0916E03845D9E4FAF4FBF4F809321
:1030A000670390936803A0936903B0936A0381E078
:1030B00090E02091650330916603232B11F480E0AA
:1030C00090E0909366038093650360916B03709129
:1030D0006C0380916D0390916E031F910F91FF908F
:1030E000EF90DF90CF900895789484B5826084BD8E
:1030F00084B5816084BD85B5826085BD85B58160FC
:1031000085BD80916E00816080936E001092810079
:103110008091810082608093810080918100816034
:1031200080938100809180008160809380008091F5
:10313000B10084608093B1008091B0008160809381
:10314000B00080917A00846080937A0080917A0048
:10315000826080937A0080917A00816080937A0007
:1031600080917A00806880937A001092C100A895BF
:1031700080E090E0892B11F00E940000E0914C0269
:10318000F0914D0282E08083E0914802F091490283
:103190001082E0914A02F0914B0280E1808310920C
:1031A0005402E0915002F091510286E08083E09158
:1031B0004E02F0914F02808180618083E0914E0247
:1031C000F0914F02808188608083E0914E02F091FF
:1031D0004F02808180688083E0914E02F0914F021F
:1031E00080818F7D808380912E028D7F80932E023F
:1031F0000E947A1141E050E063E071E08DE292E0DC
:103200000E94AF1A6FEF81E090E00E94CF1A809188
:1032100029028F788093290210921F0210921E02B9
:103220008DE191E00E94A6068FEC93E190932C0231
:1032300080932B020E94E9160E94E9160E94E20484
:10324000A8958091280282FFF7CF0E948612A89548
:10325000A8950E94E2040E9480110E94F914F8CF00
:10326000CF93DF93FC0110821182128214821582A7
:103270001682DC0117968AE1ED0119928A95E9F729
:1032800082E08383DF91CF91089510923F021092E4
:103290003E0288EE93E0A0E0B0E08093400290937D
:1032A0004102A0934202B09343022BE331E03093FA
:1032B0003D0220933C0225EC30E0309349022093FC
:1032C000480224EC30E030934B0220934A0220EC79
:1032D00030E030934D0220934C0221EC30E03093EB
:1032E0004F0220934E0222EC30E0309351022093A3
:1032F000500226EC30E03093530220935202109299
:1033000055021092560210925702109258021092D3
:103310007B0310927A0380937C0390937D03A093A8
:103320007E03B0937F038DE491E0909379038093C3
:1033300078038EE393E00E9430198DE193E00E94C0
:1033400030191092FD021092FC0220E230E030931E
:10335000FF022093FE0288E090E0909301038093A7
:10336000000330930303209302039093050380939B
:10337000040310920F031092070310920603109299
:1033800009031092080381E080930E032FEF3FEFB3
:1033900030930D0320930C0330930B0320930A0307
:1033A00080931003109211031092130310921203D2
:1033B0008FE591E09093FB028093FA0288E080937E
:1033C000140384E08093180380E28093170380E263
:1033D00090E00E943D1B909316038093150384E0B8
:1033E00090E00E943D1B90931C0380931B0384E09C
:1033F00090E00E943D1B90931A038093190380E094
:1034000090E0E0911903F0911A03E80FF91F80830F
:10341000E0911B03F0911C03E80FF91F1082019645
:103420008430910571F70E94B90F809114030E94B6
:103430008B1560E070E08AEF92E00E947B0E40E026
:103440006FE08AEF92E00E94850F47E06BE08AEF21
:1034500092E00E94850F40E069E08AEF92E00E94CE
:10346000850F41E06CE08AEF92E00E94850F47E013
:103470006AE08AEF92E00E94850F89ED92E00E9457
:1034800030191092DF028FE28093DE0286E090E036
:1034900090938503809384030895FC0188279927DE
:1034A000E89421912032E9F3293010F02E30C8F34E
:1034B0002B3241F02D3239F4689404C00E94A71ACF
:1034C000820F911D219120532A30C0F31EF4909554
:1034D00081959F4F08951F93FC0199278827BC0170
:1034E000E89411911032E9F3193010F01E30C8F34E
:1034F0001B3251F01D3249F4689406C00E94921AA2
:10350000610F711D811D911D119110531A30B0F37F
:103510003EF490958095709561957F4F8F4F9F4FAA
:103520001F910895592F482F372F262F660F771F89
:10353000881F991F660F771F881F991F620F731FBF
:10354000841F951F660F771F881F991F08957AE0C3
:10355000979F902D879F802D910D11240895DC0158
:10356000CB01FC01F999FECF06C0F2BDE1BDF89A8E
:10357000319600B40D9241505040B8F70895DC01E7
:10358000A40FB51F4150504048F0CB01840F951F48
:103590002E910E94D01A41505040D0F70895262F06
:1035A000F999FECF92BD81BDF89A019700B4021639
:1035B00039F01FBA20BD0FB6F894FA9AF99A0FBEE7
:1035C0000895991B79E004C0991F961708F0961B7F
:1035D000881F7A95C9F78095089597FB072E16F4F2
:1035E000009407D077FD09D00E94231B07FC05D06B
:1035F0003EF4909581959F4F0895709561957F4F0A
:103600000895A1E21A2EAA1BBB1BFD010DC0AA1F23
:10361000BB1FEE1FFF1FA217B307E407F50720F03B
:10362000A21BB30BE40BF50B661F771F881F991FB6
:103630001A9469F760957095809590959B01AC01FF
:10364000BD01CF010895AA1BBB1B51E107C0AA1FF2
:10365000BB1FA617B70710F0A61BB70B881F991F33
:103660005A95A9F780959095BC01CD010895EE0F6C
:10367000FF1F0590F491E02D0994CF93DF938230E2
:10368000910510F482E090E0E0918803F0918903C5
:1036900020E030E0C0E0D0E0309711F1408151816E
:1036A00048175907C0F04817590761F48281938180
:1036B000209719F09B838A832BC090938903809372
:1036C000880326C02115310519F04217530718F455
:1036D0009A01BE01DF01EF010280F381E02DDCCF12
:1036E0002115310509F1281B390B2430310590F4DF
:1036F00012968D919C9113976115710521F0FB0134
:103700009383828304C09093890380938803FD018F
:10371000329644C0FD01E20FF31F81939193225032
:1037200031092D933C933AC0209186033091870351
:10373000232B41F4209127013091280130938703F6
:103740002093860320912501309126012115310512
:1037500041F42DB73EB74091290150912A01241B15
:10376000350BE0918603F0918703E217F307A0F48D
:103770002E1B3F0B2817390778F0AC014E5F5F4FC7
:103780002417350748F04E0F5F1F5093870340936F
:1037900086038193919302C0E0E0F0E0CF01DF91D6
:1037A000CF9108950F931F93CF93DF93009709F460
:1037B0008CC0FC0132971382128200918803109111
:1037C00089030115110581F420813181820F931F36
:1037D00020918603309187032817390779F5F093F4
:1037E0008703E093860371C0D80140E050E0AE1734
:1037F000BF0750F412962D913C911397AD012115FE
:10380000310509F1D901F3CF9D01DA013383228318
:1038100060817181860F971F8217930769F4EC010D
:1038200028813981260F371F2E5F3F4F3183208338
:103830008A819B8193838283452B29F4F0938903AA
:10384000E093880342C01396FC93EE931297ED0128
:10385000499159919E01240F351FE217F30771F426
:1038600080819181840F951F029611969C938E936F
:103870008281938113969C938E931297E0E0F0E0FF
:10388000D80112968D919C911397009719F0F80129
:103890008C01F6CF8D919C9198012E5F3F4F820F46
:1038A000931F20918603309187032817390769F405
:1038B000309729F4109289031092880302C0138272
:1038C00012821093870300938603DF91CF911F919B
:1038D0000F91089581E090E0F8940C94851CDC0130
:1038E00001C06D9341505040E0F70895FB01DC01A9
:1038F0004150504048F001900D920020C9F701C09E
:0E3900001D9241505040E0F70895F894FFCF1B
:10390E00FFFFFF00FCE1A8A8CC03D206A4043207F7
:10391E008904FC060703F206BD045C07FF2C038E28
:10392E00072815281500008A0380001F1C1F1E1F64
:10393E001E1F1F1E1F1E1F000000009014FD1328C7
:10394E0014D714591437144B140000000069115584
:10395E00115111421149114611431100000000F39B
:10396E000AFD13511150112108C60DBF0D970DB34D
:10397E000DA70DC70D960DDB08C508510D0D0DBD1C
:10398E000C7B0E280CC90B2D0052544320436C6F38
:10399E00636B206D617472697800312E3000322EA7
:0439AE00312E310085
:107E0000112484B714BE81FFF0D085E080938100F7
:107E100082E08093C00088E18093C10086E0809377
:107E2000C20080E18093C4008EE0C9D0259A86E02C
:107E300020E33CEF91E0309385002093840096BBD3
:107E4000B09BFECF1D9AA8958150A9F7CC24DD24C4
:107E500088248394B5E0AB2EA1E19A2EF3E0BF2EE7
:107E6000A2D0813461F49FD0082FAFD0023811F036
:107E7000013811F484E001C083E08DD089C08234E0
:107E800011F484E103C0853419F485E0A6D080C0E4
:107E9000853579F488D0E82EFF2485D0082F10E0AE
:107EA000102F00270E291F29000F111F8ED06801E7
:107EB0006FC0863521F484E090D080E0DECF843638
:107EC00009F040C070D06FD0082F6DD080E0C81688
:107ED00080E7D80618F4F601B7BEE895C0E0D1E017
:107EE00062D089930C17E1F7F0E0CF16F0E7DF06D8
:107EF00018F0F601B7BEE89568D007B600FCFDCFD4
:107F0000A601A0E0B1E02C9130E011968C91119780
:107F100090E0982F8827822B932B1296FA010C0160
:107F200087BEE89511244E5F5F4FF1E0A038BF0790
:107F300051F7F601A7BEE89507B600FCFDCF97BE46
:107F4000E89526C08437B1F42ED02DD0F82E2BD052
:107F50003CD0F601EF2C8F010F5F1F4F84911BD097
:107F6000EA94F801C1F70894C11CD11CFA94CF0C13
:107F7000D11C0EC0853739F428D08EE10CD085E9AC
:107F80000AD08FE07ACF813511F488E018D01DD067
:107F900080E101D065CF982F8091C00085FFFCCF94
:107FA0009093C60008958091C00087FFFCCF809118
:107FB000C00084FD01C0A8958091C6000895E0E648
:107FC000F0E098E1908380830895EDDF803219F02E
:107FD00088E0F5DFFFCF84E1DECF1F93182FE3DFCA
:107FE0001150E9F7F2DF1F91089580E0E8DFEE27F6
:047FF000FF270994CA
:027FFE00040479
:0400000300007E007B
:00000001FF